{
  "contractName": "ERC20StakingRewardsDistribution",
  "abi": [
    {
      "anonymous": false,
      "inputs": [],
      "name": "Canceled",
      "type": "event"
    },
    {
      "anonymous": false,
      "inputs": [
        {
          "indexed": true,
          "internalType": "address",
          "name": "claimer",
          "type": "address"
        },
        {
          "indexed": false,
          "internalType": "uint256[]",
          "name": "amounts",
          "type": "uint256[]"
        }
      ],
      "name": "Claimed",
      "type": "event"
    },
    {
      "anonymous": false,
      "inputs": [
        {
          "indexed": false,
          "internalType": "address[]",
          "name": "rewardsTokenAddresses",
          "type": "address[]"
        },
        {
          "indexed": false,
          "internalType": "address",
          "name": "stakableTokenAddress",
          "type": "address"
        },
        {
          "indexed": false,
          "internalType": "uint256[]",
          "name": "rewardsAmounts",
          "type": "uint256[]"
        },
        {
          "indexed": false,
          "internalType": "uint64",
          "name": "startingTimestamp",
          "type": "uint64"
        },
        {
          "indexed": false,
          "internalType": "uint64",
          "name": "endingTimestamp",
          "type": "uint64"
        },
        {
          "indexed": false,
          "internalType": "bool",
          "name": "locked",
          "type": "bool"
        },
        {
          "indexed": false,
          "internalType": "uint256",
          "name": "stakingCap",
          "type": "uint256"
        }
      ],
      "name": "Initialized",
      "type": "event"
    },
    {
      "anonymous": false,
      "inputs": [
        {
          "indexed": true,
          "internalType": "address",
          "name": "previousOwner",
          "type": "address"
        },
        {
          "indexed": true,
          "internalType": "address",
          "name": "newOwner",
          "type": "address"
        }
      ],
      "name": "OwnershipTransferred",
      "type": "event"
    },
    {
      "anonymous": false,
      "inputs": [
        {
          "indexed": false,
          "internalType": "uint256[]",
          "name": "amounts",
          "type": "uint256[]"
        }
      ],
      "name": "Recovered",
      "type": "event"
    },
    {
      "anonymous": false,
      "inputs": [
        {
          "indexed": true,
          "internalType": "address",
          "name": "staker",
          "type": "address"
        },
        {
          "indexed": false,
          "internalType": "uint256",
          "name": "amount",
          "type": "uint256"
        }
      ],
      "name": "Staked",
      "type": "event"
    },
    {
      "anonymous": false,
      "inputs": [
        {
          "indexed": true,
          "internalType": "address",
          "name": "withdrawer",
          "type": "address"
        },
        {
          "indexed": false,
          "internalType": "uint256",
          "name": "amount",
          "type": "uint256"
        }
      ],
      "name": "Withdrawn",
      "type": "event"
    },
    {
      "inputs": [
        {
          "internalType": "address",
          "name": "",
          "type": "address"
        },
        {
          "internalType": "address",
          "name": "",
          "type": "address"
        }
      ],
      "name": "claimedReward",
      "outputs": [
        {
          "internalType": "uint256",
          "name": "",
          "type": "uint256"
        }
      ],
      "stateMutability": "view",
      "type": "function"
    },
    {
      "inputs": [
        {
          "internalType": "address",
          "name": "",
          "type": "address"
        },
        {
          "internalType": "address",
          "name": "",
          "type": "address"
        }
      ],
      "name": "consolidatedRewardsPerStakedToken",
      "outputs": [
        {
          "internalType": "uint256",
          "name": "",
          "type": "uint256"
        }
      ],
      "stateMutability": "view",
      "type": "function"
    },
    {
      "inputs": [
        {
          "internalType": "address",
          "name": "",
          "type": "address"
        },
        {
          "internalType": "address",
          "name": "",
          "type": "address"
        }
      ],
      "name": "earnedRewards",
      "outputs": [
        {
          "internalType": "uint256",
          "name": "",
          "type": "uint256"
        }
      ],
      "stateMutability": "view",
      "type": "function"
    },
    {
      "inputs": [],
      "name": "endingTimestamp",
      "outputs": [
        {
          "internalType": "uint64",
          "name": "",
          "type": "uint64"
        }
      ],
      "stateMutability": "view",
      "type": "function"
    },
    {
      "inputs": [],
      "name": "initialized",
      "outputs": [
        {
          "internalType": "bool",
          "name": "",
          "type": "bool"
        }
      ],
      "stateMutability": "view",
      "type": "function"
    },
    {
      "inputs": [],
      "name": "lastConsolidationTimestamp",
      "outputs": [
        {
          "internalType": "uint64",
          "name": "",
          "type": "uint64"
        }
      ],
      "stateMutability": "view",
      "type": "function"
    },
    {
      "inputs": [],
      "name": "locked",
      "outputs": [
        {
          "internalType": "bool",
          "name": "",
          "type": "bool"
        }
      ],
      "stateMutability": "view",
      "type": "function"
    },
    {
      "inputs": [],
      "name": "owner",
      "outputs": [
        {
          "internalType": "address",
          "name": "",
          "type": "address"
        }
      ],
      "stateMutability": "view",
      "type": "function"
    },
    {
      "inputs": [
        {
          "internalType": "address",
          "name": "",
          "type": "address"
        }
      ],
      "name": "recoverableUnassignedReward",
      "outputs": [
        {
          "internalType": "uint256",
          "name": "",
          "type": "uint256"
        }
      ],
      "stateMutability": "view",
      "type": "function"
    },
    {
      "inputs": [
        {
          "internalType": "address",
          "name": "",
          "type": "address"
        }
      ],
      "name": "rewardAmount",
      "outputs": [
        {
          "internalType": "uint256",
          "name": "",
          "type": "uint256"
        }
      ],
      "stateMutability": "view",
      "type": "function"
    },
    {
      "inputs": [
        {
          "internalType": "address",
          "name": "",
          "type": "address"
        }
      ],
      "name": "rewardPerStakedToken",
      "outputs": [
        {
          "internalType": "uint256",
          "name": "",
          "type": "uint256"
        }
      ],
      "stateMutability": "view",
      "type": "function"
    },
    {
      "inputs": [
        {
          "internalType": "uint256",
          "name": "",
          "type": "uint256"
        }
      ],
      "name": "rewardTokens",
      "outputs": [
        {
          "internalType": "contract ERC20",
          "name": "",
          "type": "address"
        }
      ],
      "stateMutability": "view",
      "type": "function"
    },
    {
      "inputs": [],
      "name": "secondsDuration",
      "outputs": [
        {
          "internalType": "uint64",
          "name": "",
          "type": "uint64"
        }
      ],
      "stateMutability": "view",
      "type": "function"
    },
    {
      "inputs": [],
      "name": "stakableToken",
      "outputs": [
        {
          "internalType": "contract ERC20",
          "name": "",
          "type": "address"
        }
      ],
      "stateMutability": "view",
      "type": "function"
    },
    {
      "inputs": [
        {
          "internalType": "address",
          "name": "",
          "type": "address"
        }
      ],
      "name": "stakedTokenAmount",
      "outputs": [
        {
          "internalType": "uint256",
          "name": "",
          "type": "uint256"
        }
      ],
      "stateMutability": "view",
      "type": "function"
    },
    {
      "inputs": [
        {
          "internalType": "address",
          "name": "",
          "type": "address"
        }
      ],
      "name": "stakedTokensOf",
      "outputs": [
        {
          "internalType": "uint256",
          "name": "",
          "type": "uint256"
        }
      ],
      "stateMutability": "view",
      "type": "function"
    },
    {
      "inputs": [],
      "name": "stakingCap",
      "outputs": [
        {
          "internalType": "uint256",
          "name": "",
          "type": "uint256"
        }
      ],
      "stateMutability": "view",
      "type": "function"
    },
    {
      "inputs": [],
      "name": "startingTimestamp",
      "outputs": [
        {
          "internalType": "uint64",
          "name": "",
          "type": "uint64"
        }
      ],
      "stateMutability": "view",
      "type": "function"
    },
    {
      "inputs": [
        {
          "internalType": "address",
          "name": "",
          "type": "address"
        }
      ],
      "name": "totalClaimedRewards",
      "outputs": [
        {
          "internalType": "uint256",
          "name": "",
          "type": "uint256"
        }
      ],
      "stateMutability": "view",
      "type": "function"
    },
    {
      "inputs": [],
      "name": "totalStakedTokensAmount",
      "outputs": [
        {
          "internalType": "uint256",
          "name": "",
          "type": "uint256"
        }
      ],
      "stateMutability": "view",
      "type": "function"
    },
    {
      "inputs": [],
      "name": "getRewardTokens",
      "outputs": [
        {
          "internalType": "contract ERC20[]",
          "name": "",
          "type": "address[]"
        }
      ],
      "stateMutability": "view",
      "type": "function"
    },
    {
      "inputs": [
        {
          "internalType": "address",
          "name": "_claimer",
          "type": "address"
        }
      ],
      "name": "getClaimedRewards",
      "outputs": [
        {
          "internalType": "uint256[]",
          "name": "",
          "type": "uint256[]"
        }
      ],
      "stateMutability": "view",
      "type": "function"
    },
    {
      "inputs": [
        {
          "internalType": "address[]",
          "name": "_rewardTokenAddresses",
          "type": "address[]"
        },
        {
          "internalType": "address",
          "name": "_stakableTokenAddress",
          "type": "address"
        },
        {
          "internalType": "uint256[]",
          "name": "_rewardAmounts",
          "type": "uint256[]"
        },
        {
          "internalType": "uint64",
          "name": "_startingTimestamp",
          "type": "uint64"
        },
        {
          "internalType": "uint64",
          "name": "_endingTimestamp",
          "type": "uint64"
        },
        {
          "internalType": "bool",
          "name": "_locked",
          "type": "bool"
        },
        {
          "internalType": "uint256",
          "name": "_stakingCap",
          "type": "uint256"
        }
      ],
      "name": "initialize",
      "outputs": [],
      "stateMutability": "nonpayable",
      "type": "function"
    },
    {
      "inputs": [],
      "name": "cancel",
      "outputs": [],
      "stateMutability": "nonpayable",
      "type": "function"
    },
    {
      "inputs": [],
      "name": "recoverUnassignedRewards",
      "outputs": [],
      "stateMutability": "nonpayable",
      "type": "function"
    },
    {
      "inputs": [
        {
          "internalType": "uint256",
          "name": "_amount",
          "type": "uint256"
        }
      ],
      "name": "stake",
      "outputs": [],
      "stateMutability": "nonpayable",
      "type": "function"
    },
    {
      "inputs": [
        {
          "internalType": "uint256",
          "name": "_amount",
          "type": "uint256"
        }
      ],
      "name": "withdraw",
      "outputs": [],
      "stateMutability": "nonpayable",
      "type": "function"
    },
    {
      "inputs": [
        {
          "internalType": "uint256[]",
          "name": "_amounts",
          "type": "uint256[]"
        },
        {
          "internalType": "address",
          "name": "_recipient",
          "type": "address"
        }
      ],
      "name": "claim",
      "outputs": [],
      "stateMutability": "nonpayable",
      "type": "function"
    },
    {
      "inputs": [
        {
          "internalType": "address",
          "name": "_recipient",
          "type": "address"
        }
      ],
      "name": "claimAll",
      "outputs": [],
      "stateMutability": "nonpayable",
      "type": "function"
    },
    {
      "inputs": [
        {
          "internalType": "address",
          "name": "_recipient",
          "type": "address"
        }
      ],
      "name": "exit",
      "outputs": [],
      "stateMutability": "nonpayable",
      "type": "function"
    },
    {
      "inputs": [],
      "name": "consolidateReward",
      "outputs": [],
      "stateMutability": "nonpayable",
      "type": "function"
    },
    {
      "inputs": [
        {
          "internalType": "address",
          "name": "_staker",
          "type": "address"
        }
      ],
      "name": "claimableRewards",
      "outputs": [
        {
          "internalType": "uint256[]",
          "name": "",
          "type": "uint256[]"
        }
      ],
      "stateMutability": "view",
      "type": "function"
    },
    {
      "inputs": [],
      "name": "renounceOwnership",
      "outputs": [],
      "stateMutability": "nonpayable",
      "type": "function"
    },
    {
      "inputs": [
        {
          "internalType": "address",
          "name": "_newOwner",
          "type": "address"
        }
      ],
      "name": "transferOwnership",
      "outputs": [],
      "stateMutability": "nonpayable",
      "type": "function"
    }
  ],
  "bytecode": "0x608060405234801561001057600080fd5b50612d25806100206000396000f3fe608060405234801561001057600080fd5b50600436106102065760003560e01c80638c574b481161011a578063b9e35db0116100ad578063dc01f60d1161007c578063dc01f60d14610503578063e644067d14610516578063e66d85be1461051e578063ea8a1af01461053e578063f2fde38b1461054657610206565b8063b9e35db0146104a2578063c10de300146104c2578063c4f59f9b146104da578063cf309012146104ef57610206565b8063a694fc3a116100e9578063a694fc3a14610453578063ab08d4fc14610466578063b41fa97914610486578063b42652e91461048f57610206565b80638c574b48146103ed5780638da5cb5b1461040057806398f8123014610413578063a110b93f1461043357610206565b80635fa350231161019d578063728e4a671161016c578063728e4a671461035e57806375b8dbf81461038957806377329f35146103b45780637bb7bed1146103c757806388786272146103da57610206565b80635fa3502314610314578063645a8a561461032e5780636715dcb81461034e578063715018a61461035657610206565b806334380a61116101d957806334380a61146102805780633b34ee50146102b957806344c370d3146102d95780635e5294b7146102e257610206565b8063158ef93e1461020b5780631c96c3fb1461022d57806323a26e36146102585780632e1a7d4d1461026d575b600080fd5b6009546102189060ff1681565b60405190151581526020015b60405180910390f35b600254610240906001600160a01b031681565b6040516001600160a01b039091168152602001610224565b61026b610266366004612753565b610559565b005b61026b61027b3660046128fe565b610afe565b6102ab61028e366004612721565b600f60209081526000928352604080842090915290825290205481565b604051908152602001610224565b6102ab6102c7366004612707565b600a6020526000908152604090205481565b6102ab60085481565b6007546102fc90600160401b90046001600160401b031681565b6040516001600160401b039091168152602001610224565b6007546102fc90600160801b90046001600160401b031681565b6102ab61033c366004612707565b60036020526000908152604090205481565b61026b610d72565b61026b6110d3565b6102ab61036c366004612721565b600e60209081526000928352604080842090915290825290205481565b6102ab610397366004612721565b600d60209081526000928352604080842090915290825290205481565b61026b6103c2366004612707565b611139565b6102406103d53660046128fe565b61130c565b6007546102fc906001600160401b031681565b61026b6103fb366004612811565b611336565b600054610240906001600160a01b031681565b6102ab610421366004612707565b60066020526000908152604090205481565b6102ab610441366004612707565b600b6020526000908152604090205481565b61026b6104613660046128fe565b611601565b6102ab610474366004612707565b600c6020526000908152604090205481565b6102ab60055481565b61026b61049d366004612707565b611831565b6104b56104b0366004612707565b6118b9565b6040516102249190612a72565b6009546102fc9061010090046001600160401b031681565b6104e26119ca565b6040516102249190612a25565b60075461021890600160c01b900460ff1681565b6104b5610511366004612707565b611a2c565b61026b611d30565b6102ab61052c366004612707565b60046020526000908152604090205481565b61026b611fba565b61026b610554366004612707565b6121e6565b60095460ff16156105bc5760405162461bcd60e51b81526020600482015260346024820152600080516020612cd083398151915260448201527308185b1c9958591e481a5b9a5d1a585b1a5e995960621b60648201526084015b60405180910390fd5b42846001600160401b0316116106285760405162461bcd60e51b815260206004820152603b6024820152600080516020612cd083398151915260448201527f20696e76616c6964207374617274696e672074696d657374616d70000000000060648201526084016105b3565b836001600160401b0316836001600160401b0316116106965760405162461bcd60e51b81526020600482015260366024820152600080516020612cd08339815191526044820152751034b73b30b634b2103a34b6b290323ab930ba34b7b760511b60648201526084016105b3565b8785146107035760405162461bcd60e51b81526020600482015260416024820152600080516020612cd083398151915260448201527f20696e636f6e73697374656e742072657761726420746f6b656e2f616d6f756e6064820152601d60fa1b608482015260a4016105b3565b61070d8484612c02565b600760106101000a8154816001600160401b0302191690836001600160401b0316021790555060005b63ffffffff81168911156109a75760008a8a8363ffffffff1681811061076c57634e487b7160e01b600052603260045260246000fd5b90506020020160208101906107819190612707565b9050600088888463ffffffff168181106107ab57634e487b7160e01b600052603260045260246000fd5b60200291909101359150506001600160a01b0382166108205760405162461bcd60e51b815260206004820152603a6024820152600080516020612cd083398151915260448201527f203020616464726573732061732072657761726420746f6b656e00000000000060648201526084016105b3565b600081116108715760405162461bcd60e51b815260206004820152602a6024820152600080516020612cd0833981519152604482015269081b9bc81c995dd85c9960b21b60648201526084016105b3565b6040516370a0823160e01b8152306004820152829082906001600160a01b038316906370a082319060240160206040518083038186803b1580156108b457600080fd5b505afa1580156108c8573d6000803e3d6000fd5b505050506040513d601f19601f820116820180604052508101906108ec9190612916565b101561093c5760405162461bcd60e51b815260206004820152602b6024820152600080516020612cd083398151915260448201526a206e6f2066756e64696e6760a81b60648201526084016105b3565b600180548082019091557fb10e2d527612073b26eecdfd717e6a320cf44b4afac2b0732d9fcbe2b7fa0cf60180546001600160a01b0319166001600160a01b03928316179055919091166000908152600360205260409020558061099f81612c71565b915050610736565b506001600160a01b038716610a125760405162461bcd60e51b815260206004820152603c6024820152600080516020612cd083398151915260448201527f20302061646472657373206173207374616b61626c6520746f6b656e0000000060648201526084016105b3565b600280546001600160a01b03199081166001600160a01b038a16179091556000805433921691909117905560078054600980546001600160401b038881166fffffffffffffffffffffffffffffffff199094168417600160401b918916919091021760ff60c01b1916600160c01b8715150217909355600884905568ffffffffffffffffff1990921661010090910260ff19161760011790556040517f2c1fa4f0e3f1c67636ee0b3665bf3a04407a2c1332d4e3e99f941ee2b0b9daf490610aeb908b908b908b908b908b908b908b908b908b9061297e565b60405180910390a1505050505050505050565b60095460ff16610b205760405162461bcd60e51b81526004016105b390612b56565b60095460ff168015610b3d57506007546001600160401b03164210155b610b595760405162461bcd60e51b81526004016105b390612add565b60008111610bbd5760405162461bcd60e51b815260206004820152603a6024820152600080516020612cd083398151915260448201527f20747269656420746f207769746864726177206e6f7468696e6700000000000060648201526084016105b3565b600754600160c01b900460ff1615610c5657600754600160401b90046001600160401b03164211610c565760405162461bcd60e51b81526020600482015260496024820152600080516020612cd083398151915260448201527f2066756e6473206c6f636b656420756e74696c2074686520646973747269627560648201526874696f6e20656e647360b81b608482015260a4016105b3565b610c5e610d72565b336000908152600c6020526040902054811115610ce65760405162461bcd60e51b815260206004820152604c6024820152600080516020612cd083398151915260448201527f2077697468647261776e20616d6f756e742067726561746572207468616e206360648201526b757272656e74207374616b6560a01b608482015260a4016105b3565b336000908152600c6020526040902054610d01908290612beb565b336000908152600c6020526040902055600554610d1f908290612beb565b600555600254610d39906001600160a01b031633836122c8565b60405181815233907f7084f5476618d8e60b11ef0d7d3f06914655adb8793e28ff7f018d4c76d505d5906020015b60405180910390a250565b60095460ff16610d945760405162461bcd60e51b81526004016105b390612b56565b60095460ff168015610db157506007546001600160401b03164210155b610dcd5760405162461bcd60e51b81526004016105b390612add565b600754600090610dee904290600160401b90046001600160401b0316612330565b600954909150600090610e0f9061010090046001600160401b031683612c02565b6001600160401b0316905060005b6001548110156110a857600060018281548110610e4a57634e487b7160e01b600052603260045260246000fd5b6000918252602090912001546005546001600160a01b039091169150610efb576007546001600160a01b038216600090815260036020526040902054600160801b9091046001600160401b031690610ea29085612bcc565b610eac9190612bac565b6001600160a01b0382166000908152600a6020526040902054610ecf9190612b94565b6001600160a01b0382166000908152600a60209081526040808320939093556006905290812055610f95565b600754600554610f1b91600160801b90046001600160401b031690612bcc565b6001600160a01b038216600090815260036020526040902054600160701b90610f449086612bcc565b610f4e9190612bcc565b610f589190612bac565b6001600160a01b038216600090815260066020526040902054610f7b9190612b94565b6001600160a01b0382166000908152600660205260409020555b6001600160a01b038116600090815260066020526040812054610fb9576000611019565b336000908152600d602090815260408083206001600160a01b0386168452825280832054600690925290912054600160701b91610ff591612beb565b336000908152600c602052604090205461100f9190612bcc565b6110199190612bac565b336000908152600e602090815260408083206001600160a01b038716845290915290205490915061104b908290612b94565b336000818152600e602090815260408083206001600160a01b0397909716808452968252808320949094556006815283822054928252600d81528382209582529490945292209190915550806110a081612c56565b915050610e1d565b5050600980546001600160401b039092166101000268ffffffffffffffff0019909216919091179055565b6000546001600160a01b031633146110fd5760405162461bcd60e51b81526004016105b390612b17565b600080546001600160a01b031916815560405181907f8be0079c531659141344cd1fd0a4f28419497f9722a3daafe3b4186f6b6457e0908290a3565b60095460ff1661115b5760405162461bcd60e51b81526004016105b390612b56565b60095460ff16801561117857506007546001600160401b03164210155b6111945760405162461bcd60e51b81526004016105b390612add565b61119c610d72565b6001546000906001600160401b038111156111c757634e487b7160e01b600052604160045260246000fd5b6040519080825280602002602001820160405280156111f0578160200160208202803683370190505b50905060005b6001548110156112c65760006001828154811061122357634e487b7160e01b600052603260045260246000fd5b600091825260208083209091015433808452600f835260408085206001600160a01b0390931680865292845280852054918552600e84528085208386529093529183205490935083929161127691612beb565b9050611283838288612348565b808585815181106112a457634e487b7160e01b600052603260045260246000fd5b60200260200101818152505050505080806112be90612c56565b9150506111f6565b50336001600160a01b03167f28ee566bdecaf975c0979f4d09fecf91a9009ffe78523aef053a678134137b8b826040516113009190612a72565b60405180910390a25050565b6001818154811061131c57600080fd5b6000918252602090912001546001600160a01b0316905081565b60095460ff166113585760405162461bcd60e51b81526004016105b390612b56565b60095460ff16801561137557506007546001600160401b03164210155b6113915760405162461bcd60e51b81526004016105b390612add565b6001548251146113f75760405162461bcd60e51b815260206004820152603d6024820152600080516020612cd083398151915260448201527f20696e636f6e73697374656e7420636c61696d656420616d6f756e747300000060648201526084016105b3565b6113ff610d72565b6001546000906001600160401b0381111561142a57634e487b7160e01b600052604160045260246000fd5b604051908082528060200260200182016040528015611453578160200160208202803683370190505b50905060005b6001548110156115ba5760006001828154811061148657634e487b7160e01b600052603260045260246000fd5b600091825260208083209091015433808452600f835260408085206001600160a01b0390931680865292845280852054918552600e8452808520838652909352918320549093508392916114d991612beb565b905060008785815181106114fd57634e487b7160e01b600052603260045260246000fd5b602002602001015190508082101561156b5760405162461bcd60e51b815260206004820152603e6024820152600080516020612cd083398151915260448201527f20696e73756666696369656e7420636c61696d61626c6520616d6f756e74000060648201526084016105b3565b611576848289612348565b8086868151811061159757634e487b7160e01b600052603260045260246000fd5b6020026020010181815250505050505080806115b290612c56565b915050611459565b50336001600160a01b03167f28ee566bdecaf975c0979f4d09fecf91a9009ffe78523aef053a678134137b8b826040516115f49190612a72565b60405180910390a2505050565b60095460ff166116235760405162461bcd60e51b81526004016105b390612b56565b60095460ff16801561164057506007546001600160401b03164210155b61165c5760405162461bcd60e51b81526004016105b390612add565b60095460ff1680156116805750600754600160401b90046001600160401b03164211155b6116d15760405162461bcd60e51b815260206004820152602e6024820152600080516020612cd083398151915260448201526d08185b1c9958591e48195b99195960921b60648201526084016105b3565b600081116117355760405162461bcd60e51b81526020600482015260376024820152600080516020612cd083398151915260448201527f20747269656420746f207374616b65206e6f7468696e6700000000000000000060648201526084016105b3565b600854156117a3576008548160055461174e9190612b94565b11156117a35760405162461bcd60e51b81526020600482015260306024820152600080516020612cd083398151915260448201526f081cdd185ada5b99c818d85c081a1a5d60821b60648201526084016105b3565b6117ab610d72565b336000908152600c60205260409020546117c6908290612b94565b336000908152600c60205260409020556005546117e4908290612b94565b6005556002546117ff906001600160a01b03163330846123d6565b60405181815233907f9e71bc8eea02a63969f509818f2dafb9254532904319f9dbda79b67bd34a5f3d90602001610d67565b60095460ff166118535760405162461bcd60e51b81526004016105b390612b56565b60095460ff16801561187057506007546001600160401b03164210155b61188c5760405162461bcd60e51b81526004016105b390612add565b611894610d72565b61189d81611139565b336000908152600c60205260409020546118b690610afe565b50565b6001546060906000906001600160401b038111156118e757634e487b7160e01b600052604160045260246000fd5b604051908082528060200260200182016040528015611910578160200160208202803683370190505b50905060005b6001548110156119c1576001600160a01b0384166000908152600f60205260408120600180549192918490811061195d57634e487b7160e01b600052603260045260246000fd5b60009182526020808320909101546001600160a01b0316835282019290925260400190205482518390839081106119a457634e487b7160e01b600052603260045260246000fd5b6020908102919091010152806119b981612c56565b915050611916565b5090505b919050565b60606001805480602002602001604051908101604052809291908181526020018280548015611a2257602002820191906000526020600020905b81546001600160a01b03168152600190910190602001808311611a04575b5050505050905090565b6001546060906000906001600160401b03811115611a5a57634e487b7160e01b600052604160045260246000fd5b604051908082528060200260200182016040528015611a83578160200160208202803683370190505b5060095490915060ff161580611aa357506007546001600160401b031642105b15611afc5760005b600154811015611af4576000828281518110611ad757634e487b7160e01b600052603260045260246000fd5b602090810291909101015280611aec81612c56565b915050611aab565b5090506119c5565b600754600090611b1d904290600160401b90046001600160401b0316612330565b600954909150600090611b3e9061010090046001600160401b031683612c02565b6001600160401b0316905060005b600154811015611d2657600060018281548110611b7957634e487b7160e01b600052603260045260246000fd5b60009182526020808320909101546001600160a01b0316808352600690915260409091205460055491925090611bb157506000611c1b565b600754600554611bd191600160801b90046001600160401b031690612bcc565b6001600160a01b038316600090815260036020526040902054600160701b90611bfa9087612bcc565b611c049190612bcc565b611c0e9190612bac565b611c189082612b94565b90505b6000808211611c2b576000611c8e565b6001600160a01b03808a166000908152600d6020908152604080832093871683529290522054600160701b90611c619084612beb565b6001600160a01b038b166000908152600c6020526040902054611c849190612bcc565b611c8e9190612bac565b6001600160a01b03808b166000818152600f6020908152604080832094891680845294825280832054938352600e8252808320948352939052919091205491925090611cda9083612b94565b611ce49190612beb565b878581518110611d0457634e487b7160e01b600052603260045260246000fd5b6020026020010181815250505050508080611d1e90612c56565b915050611b4c565b5091949350505050565b60095460ff16611d525760405162461bcd60e51b81526004016105b390612b56565b60095460ff168015611d6f57506007546001600160401b03164210155b611d8b5760405162461bcd60e51b81526004016105b390612add565b611d93610d72565b6001546000816001600160401b03811115611dbe57634e487b7160e01b600052604160045260246000fd5b604051908082528060200260200182016040528015611de7578160200160208202803683370190505b50905060005b82811015611f7e57600060018281548110611e1857634e487b7160e01b600052603260045260246000fd5b60009182526020808320909101546001600160a01b0316808352600a8252604080842054600b909352909220549192508291611e549190612b94565b6001600160a01b0382166000908152600b6020908152604080832084905560039091528120549091611e8591612beb565b6001600160a01b038381166000908152600a6020526040808220829055516370a0823160e01b81523060048201529293509183918616906370a082319060240160206040518083038186803b158015611edd57600080fd5b505afa158015611ef1573d6000803e3d6000fd5b505050506040513d601f19601f82011682018060405250810190611f159190612916565b611f1f9190612beb565b905080868681518110611f4257634e487b7160e01b600052603260045260246000fd5b6020908102919091010152600054611f67906001600160a01b038681169116836122c8565b505050508080611f7690612c56565b915050611ded565b507ff904fafa600a7e4e8039f3a5497d1b6016772e3060f87d3e40f911b315f00bd181604051611fae9190612a72565b60405180910390a15050565b60095460ff16611fdc5760405162461bcd60e51b81526004016105b390612b56565b6000546001600160a01b031633146120065760405162461bcd60e51b81526004016105b390612b17565b6007546001600160401b031642106120745760405162461bcd60e51b815260206004820152603d6024820152600080516020612cd083398151915260448201527f20646973747269627574696f6e20616c7265616479207374617274656400000060648201526084016105b3565b60005b60015481101561216a576000600182815481106120a457634e487b7160e01b600052603260045260246000fd5b6000918252602080832091909101546001600160a01b0390811680845260039092526040808420849055925492516370a0823160e01b815230600482015291935061215792169083906370a082319060240160206040518083038186803b15801561210e57600080fd5b505afa158015612122573d6000803e3d6000fd5b505050506040513d601f19601f820116820180604052508101906121469190612916565b6001600160a01b03841691906122c8565b508061216281612c56565b915050612077565b506121776001600061265e565b600280546001600160a01b0319169055600780546009805468ffffffffffffffffff1916905578ff0000000000000000ffffffffffffffffffffffffffffffff191690556040517f1afb0ae590df277bcb3a37f88612725bf1f7df4755792b1548a7efe77985ff7790600090a1565b6000546001600160a01b031633146122105760405162461bcd60e51b81526004016105b390612b17565b6001600160a01b03811661226d5760405162461bcd60e51b81526020600482015260306024820152600080516020612cd083398151915260448201526f101816b0b2323932b9b99037bbb732b960811b60648201526084016105b3565b600080546040516001600160a01b03808516939216917f8be0079c531659141344cd1fd0a4f28419497f9722a3daafe3b4186f6b6457e091a3600080546001600160a01b0319166001600160a01b0392909216919091179055565b6040516001600160a01b03831660248201526044810182905261232b90849063a9059cbb60e01b906064015b60408051601f198184030181529190526020810180516001600160e01b03166001600160e01b031990931692909217909152612414565b505050565b600081831061233f5781612341565b825b9392505050565b336000908152600f602090815260408083206001600160a01b0387168452909152902054612377908390612b94565b336000908152600f602090815260408083206001600160a01b0388168452825280832093909355600b905220546123af908390612b94565b6001600160a01b0384166000818152600b602052604090209190915561232b9082846122c8565b6040516001600160a01b038085166024830152831660448201526064810182905261240e9085906323b872dd60e01b906084016122f4565b50505050565b6000612469826040518060400160405280602081526020017f5361666545524332303a206c6f772d6c6576656c2063616c6c206661696c6564815250856001600160a01b03166124e69092919063ffffffff16565b80519091501561232b578080602001905181019061248791906128e2565b61232b5760405162461bcd60e51b815260206004820152602a60248201527f5361666545524332303a204552433230206f7065726174696f6e20646964206e6044820152691bdd081cdd58d8d9595960b21b60648201526084016105b3565b60606124f584846000856124fd565b949350505050565b60608247101561255e5760405162461bcd60e51b815260206004820152602660248201527f416464726573733a20696e73756666696369656e742062616c616e636520666f6044820152651c8818d85b1b60d21b60648201526084016105b3565b843b6125ac5760405162461bcd60e51b815260206004820152601d60248201527f416464726573733a2063616c6c20746f206e6f6e2d636f6e747261637400000060448201526064016105b3565b600080866001600160a01b031685876040516125c89190612962565b60006040518083038185875af1925050503d8060008114612605576040519150601f19603f3d011682016040523d82523d6000602084013e61260a565b606091505b509150915061261a828286612625565b979650505050505050565b60608315612634575081612341565b8251156126445782518084602001fd5b8160405162461bcd60e51b81526004016105b39190612aaa565b50805460008255906000526020600020908101906118b691905b8082111561268c5760008155600101612678565b5090565b80356001600160a01b03811681146119c557600080fd5b60008083601f8401126126b8578081fd5b5081356001600160401b038111156126ce578182fd5b6020830191508360208260051b85010111156126e957600080fd5b9250929050565b80356001600160401b03811681146119c557600080fd5b600060208284031215612718578081fd5b61234182612690565b60008060408385031215612733578081fd5b61273c83612690565b915061274a60208401612690565b90509250929050565b600080600080600080600080600060e08a8c031215612770578485fd5b89356001600160401b0380821115612786578687fd5b6127928d838e016126a7565b909b5099508991506127a660208d01612690565b985060408c01359150808211156127bb578687fd5b506127c88c828d016126a7565b90975095506127db905060608b016126f0565b93506127e960808b016126f0565b925060a08a01356127f981612cc1565b8092505060c08a013590509295985092959850929598565b60008060408385031215612823578182fd5b82356001600160401b0380821115612839578384fd5b818501915085601f83011261284c578384fd5b813560208282111561286057612860612cab565b8160051b604051601f19603f8301168101818110868211171561288557612885612cab565b604052838152828101945085830182870184018b10156128a3578889fd5b8896505b848710156128c55780358652600196909601959483019483016128a7565b5096506128d59050878201612690565b9450505050509250929050565b6000602082840312156128f3578081fd5b815161234181612cc1565b60006020828403121561290f578081fd5b5035919050565b600060208284031215612927578081fd5b5051919050565b81835260006001600160fb1b03831115612946578081fd5b8260051b80836020870137939093016020019283525090919050565b60008251612974818460208701612c2a565b9190910192915050565b60e0808252810189905260008a6101008301825b8c8110156129c0576001600160a01b036129ab84612690565b16825260209283019290910190600101612992565b506001600160a01b038b16602085015283810360408501526129e3818a8c61292e565b925050506129fc60608301876001600160401b03169052565b6001600160401b0394909416608082015291151560a083015260c0909101529695505050505050565b6020808252825182820181905260009190848201906040850190845b81811015612a665783516001600160a01b031683529284019291840191600101612a41565b50909695505050505050565b6020808252825182820181905260009190848201906040850190845b81811015612a6657835183529284019291840191600101612a8e565b6000602082528251806020840152612ac9816040850160208701612c2a565b601f01601f19169190910160400192915050565b6020808252602c90820152600080516020612cd083398151915260408201526b081b9bdd081cdd185c9d195960a21b606082015260800190565b6020808252603190820152600080516020612cd08339815191526040820152701031b0b63632b9103737ba1037bbb732b960791b606082015260800190565b6020808252603090820152600080516020612cd083398151915260408201526f081b9bdd081a5b9a5d1a585b1a5e995960821b606082015260800190565b60008219821115612ba757612ba7612c95565b500190565b600082612bc757634e487b7160e01b81526012600452602481fd5b500490565b6000816000190483118215151615612be657612be6612c95565b500290565b600082821015612bfd57612bfd612c95565b500390565b60006001600160401b0383811690831681811015612c2257612c22612c95565b039392505050565b60005b83811015612c45578181015183820152602001612c2d565b8381111561240e5750506000910152565b6000600019821415612c6a57612c6a612c95565b5060010190565b600063ffffffff80831681811415612c8b57612c8b612c95565b6001019392505050565b634e487b7160e01b600052601160045260246000fd5b634e487b7160e01b600052604160045260246000fd5b80151581146118b657600080fdfe45524332305374616b696e6752657761726473446973747269627574696f6e3aa264697066735822122087d4ed53b03b7facef67fa5f4e12d88b046c654bb5d1004a96a4c8a2ee5086ee64736f6c63430008030033",
  "immutableReferences": {},
  "source": "// SPDX-License-Identifier: GPL-3.0\n\npragma solidity ^0.8.0;\n\nimport \"@openzeppelin/contracts/utils/math/Math.sol\";\nimport \"@openzeppelin/contracts/token/ERC20/ERC20.sol\";\nimport \"@openzeppelin/contracts/token/ERC20/utils/SafeERC20.sol\";\n\ncontract ERC20StakingRewardsDistribution {\n    using SafeERC20 for ERC20;\n\n    uint224 constant MULTIPLIER = 2**112;\n\n    address public owner;\n    ERC20[] public rewardTokens;\n    ERC20 public stakableToken;\n    mapping(address => uint256) public rewardAmount;\n    mapping(address => uint256) public stakedTokenAmount;\n    uint256 public totalStakedTokensAmount;\n    mapping(address => uint256) public rewardPerStakedToken;\n    uint64 public startingTimestamp;\n    uint64 public endingTimestamp;\n    uint64 public secondsDuration;\n    bool public locked;\n    uint256 public stakingCap;\n    bool public initialized;\n    uint64 public lastConsolidationTimestamp;\n    mapping(address => uint256) public recoverableUnassignedReward;\n    mapping(address => uint256) public totalClaimedRewards;\n\n    mapping(address => uint256) public stakedTokensOf;\n    mapping(address => mapping(address => uint256))\n        public consolidatedRewardsPerStakedToken;\n    mapping(address => mapping(address => uint256)) public earnedRewards;\n    mapping(address => mapping(address => uint256)) public claimedReward;\n\n    event OwnershipTransferred(\n        address indexed previousOwner,\n        address indexed newOwner\n    );\n    event Initialized(\n        address[] rewardsTokenAddresses,\n        address stakableTokenAddress,\n        uint256[] rewardsAmounts,\n        uint64 startingTimestamp,\n        uint64 endingTimestamp,\n        bool locked,\n        uint256 stakingCap\n    );\n    event Canceled();\n    event Staked(address indexed staker, uint256 amount);\n    event Withdrawn(address indexed withdrawer, uint256 amount);\n    event Claimed(address indexed claimer, uint256[] amounts);\n    event Recovered(uint256[] amounts);\n\n    function getRewardTokens() external view returns (ERC20[] memory) {\n        return rewardTokens;\n    }\n\n    function getClaimedRewards(address _claimer)\n        external\n        view\n        returns (uint256[] memory)\n    {\n        uint256[] memory _claimedRewards = new uint256[](rewardTokens.length);\n        for (uint256 _i = 0; _i < rewardTokens.length; _i++) {\n            _claimedRewards[_i] = claimedReward[_claimer][\n                address(rewardTokens[_i])\n            ];\n        }\n        return _claimedRewards;\n    }\n\n    function initialize(\n        address[] calldata _rewardTokenAddresses,\n        address _stakableTokenAddress,\n        uint256[] calldata _rewardAmounts,\n        uint64 _startingTimestamp,\n        uint64 _endingTimestamp,\n        bool _locked,\n        uint256 _stakingCap\n    ) external onlyUninitialized {\n        require(\n            _startingTimestamp > block.timestamp,\n            \"ERC20StakingRewardsDistribution: invalid starting timestamp\"\n        );\n        require(\n            _endingTimestamp > _startingTimestamp,\n            \"ERC20StakingRewardsDistribution: invalid time duration\"\n        );\n        require(\n            _rewardTokenAddresses.length == _rewardAmounts.length,\n            \"ERC20StakingRewardsDistribution: inconsistent reward token/amount\"\n        );\n\n        secondsDuration = _endingTimestamp - _startingTimestamp;\n        // Initializing reward tokens and amounts\n        for (uint32 _i = 0; _i < _rewardTokenAddresses.length; _i++) {\n            address _rewardTokenAddress = _rewardTokenAddresses[_i];\n            uint256 _rewardAmount = _rewardAmounts[_i];\n            require(\n                _rewardTokenAddress != address(0),\n                \"ERC20StakingRewardsDistribution: 0 address as reward token\"\n            );\n            require(\n                _rewardAmount > 0,\n                \"ERC20StakingRewardsDistribution: no reward\"\n            );\n            ERC20 _rewardToken = ERC20(_rewardTokenAddress);\n            require(\n                _rewardToken.balanceOf(address(this)) >= _rewardAmount,\n                \"ERC20StakingRewardsDistribution: no funding\"\n            );\n            rewardTokens.push(_rewardToken);\n            rewardAmount[_rewardTokenAddress] = _rewardAmount;\n        }\n\n        require(\n            _stakableTokenAddress != address(0),\n            \"ERC20StakingRewardsDistribution: 0 address as stakable token\"\n        );\n        stakableToken = ERC20(_stakableTokenAddress);\n\n        owner = msg.sender;\n        startingTimestamp = _startingTimestamp;\n        endingTimestamp = _endingTimestamp;\n        lastConsolidationTimestamp = _startingTimestamp;\n        locked = _locked;\n        stakingCap = _stakingCap;\n\n        initialized = true;\n        emit Initialized(\n            _rewardTokenAddresses,\n            _stakableTokenAddress,\n            _rewardAmounts,\n            _startingTimestamp,\n            _endingTimestamp,\n            _locked,\n            _stakingCap\n        );\n    }\n\n    function cancel() external onlyInitialized onlyOwner {\n        require(\n            block.timestamp < startingTimestamp,\n            \"ERC20StakingRewardsDistribution: distribution already started\"\n        );\n        // resetting reward information (both tokens and amounts)\n        for (uint256 _i; _i < rewardTokens.length; _i++) {\n            ERC20 _rewardToken = rewardTokens[_i];\n            delete rewardAmount[address(_rewardToken)];\n            _rewardToken.safeTransfer(\n                owner,\n                _rewardToken.balanceOf(address(this))\n            );\n        }\n        delete rewardTokens;\n        delete stakableToken;\n        startingTimestamp = 0;\n        endingTimestamp = 0;\n        lastConsolidationTimestamp = 0;\n        initialized = false;\n        locked = false;\n        emit Canceled();\n    }\n\n    function recoverUnassignedRewards() external onlyInitialized onlyStarted {\n        consolidateReward();\n        uint256 _numberOfRewardsTokens = rewardTokens.length;\n        uint256[] memory _recoveredUnassignedRewards =\n            new uint256[](_numberOfRewardsTokens);\n        for (uint256 _i; _i < _numberOfRewardsTokens; _i++) {\n            ERC20 _relatedRewardToken = rewardTokens[_i];\n            address _relatedRewardTokenAddress = address(_relatedRewardToken);\n            // recoverable rewards are going to be recovered in this tx (if it does not revert),\n            // so we add them to the claimed rewards right now\n            totalClaimedRewards[_relatedRewardTokenAddress] =\n                totalClaimedRewards[_relatedRewardTokenAddress] +\n                recoverableUnassignedReward[_relatedRewardTokenAddress];\n            uint256 _requiredFunding =\n                rewardAmount[_relatedRewardTokenAddress] -\n                    totalClaimedRewards[_relatedRewardTokenAddress];\n            delete recoverableUnassignedReward[_relatedRewardTokenAddress];\n            uint256 _recoverableRewards =\n                _relatedRewardToken.balanceOf(address(this)) - _requiredFunding;\n            _recoveredUnassignedRewards[_i] = _recoverableRewards;\n            _relatedRewardToken.safeTransfer(owner, _recoverableRewards);\n        }\n        emit Recovered(_recoveredUnassignedRewards);\n    }\n\n    function stake(uint256 _amount)\n        external\n        onlyInitialized\n        onlyStarted\n        onlyRunning\n    {\n        require(\n            _amount > 0,\n            \"ERC20StakingRewardsDistribution: tried to stake nothing\"\n        );\n        if (stakingCap > 0) {\n            require(\n                totalStakedTokensAmount + _amount <= stakingCap,\n                \"ERC20StakingRewardsDistribution: staking cap hit\"\n            );\n        }\n        consolidateReward();\n        stakedTokensOf[msg.sender] = stakedTokensOf[msg.sender] + _amount;\n        totalStakedTokensAmount = totalStakedTokensAmount + _amount;\n        stakableToken.safeTransferFrom(msg.sender, address(this), _amount);\n        emit Staked(msg.sender, _amount);\n    }\n\n    function withdraw(uint256 _amount) public onlyInitialized onlyStarted {\n        require(\n            _amount > 0,\n            \"ERC20StakingRewardsDistribution: tried to withdraw nothing\"\n        );\n        if (locked) {\n            require(\n                block.timestamp > endingTimestamp,\n                \"ERC20StakingRewardsDistribution: funds locked until the distribution ends\"\n            );\n        }\n        consolidateReward();\n        require(\n            _amount <= stakedTokensOf[msg.sender],\n            \"ERC20StakingRewardsDistribution: withdrawn amount greater than current stake\"\n        );\n        stakedTokensOf[msg.sender] = stakedTokensOf[msg.sender] - _amount;\n        totalStakedTokensAmount = totalStakedTokensAmount - _amount;\n        stakableToken.safeTransfer(msg.sender, _amount);\n        emit Withdrawn(msg.sender, _amount);\n    }\n\n    function claim(uint256[] memory _amounts, address _recipient)\n        external\n        onlyInitialized\n        onlyStarted\n    {\n        require(\n            _amounts.length == rewardTokens.length,\n            \"ERC20StakingRewardsDistribution: inconsistent claimed amounts\"\n        );\n        consolidateReward();\n        uint256[] memory _claimedRewards = new uint256[](rewardTokens.length);\n        for (uint256 _i; _i < rewardTokens.length; _i++) {\n            ERC20 _relatedRewardToken = rewardTokens[_i];\n            address _relatedRewardTokenAddress = address(_relatedRewardToken);\n            uint256 _claimableReward =\n                earnedRewards[msg.sender][_relatedRewardTokenAddress] -\n                    claimedReward[msg.sender][_relatedRewardTokenAddress];\n            uint256 _wantedAmount = _amounts[_i];\n            require(\n                _claimableReward >= _wantedAmount,\n                \"ERC20StakingRewardsDistribution: insufficient claimable amount\"\n            );\n            consolidateAndTransferClaim(\n                _relatedRewardToken,\n                _wantedAmount,\n                _recipient\n            );\n            _claimedRewards[_i] = _wantedAmount;\n        }\n        emit Claimed(msg.sender, _claimedRewards);\n    }\n\n    function claimAll(address _recipient) public onlyInitialized onlyStarted {\n        consolidateReward();\n        uint256[] memory _claimedRewards = new uint256[](rewardTokens.length);\n        for (uint256 _i; _i < rewardTokens.length; _i++) {\n            ERC20 _relatedRewardToken = rewardTokens[_i];\n            address _relatedRewardTokenAddress = address(_relatedRewardToken);\n            uint256 _claimableReward =\n                earnedRewards[msg.sender][_relatedRewardTokenAddress] -\n                    claimedReward[msg.sender][_relatedRewardTokenAddress];\n            consolidateAndTransferClaim(\n                _relatedRewardToken,\n                _claimableReward,\n                _recipient\n            );\n            _claimedRewards[_i] = _claimableReward;\n        }\n        emit Claimed(msg.sender, _claimedRewards);\n    }\n\n    function exit(address _recipient) external onlyInitialized onlyStarted {\n        consolidateReward();\n        claimAll(_recipient);\n        withdraw(stakedTokensOf[msg.sender]);\n    }\n\n    function consolidateAndTransferClaim(\n        ERC20 _rewardToken,\n        uint256 _amount,\n        address _recipient\n    ) private {\n        claimedReward[msg.sender][address(_rewardToken)] =\n            claimedReward[msg.sender][address(_rewardToken)] +\n            _amount;\n        totalClaimedRewards[address(_rewardToken)] =\n            totalClaimedRewards[address(_rewardToken)] +\n            _amount;\n        _rewardToken.safeTransfer(_recipient, _amount);\n    }\n\n    function consolidateReward() public onlyInitialized onlyStarted {\n        uint64 _consolidationTimestamp =\n            uint64(Math.min(block.timestamp, endingTimestamp));\n        uint256 _lastPeriodDuration =\n            uint256(_consolidationTimestamp - lastConsolidationTimestamp);\n        for (uint256 _i; _i < rewardTokens.length; _i++) {\n            address _relatedRewardTokenAddress = address(rewardTokens[_i]);\n            if (totalStakedTokensAmount == 0) {\n                // If the current staked tokens amount is zero, there have been unassigned rewards in the last period.\n                // We add these unassigned rewards to the amount that can be claimed back by the contract's owner.\n                recoverableUnassignedReward[_relatedRewardTokenAddress] =\n                    recoverableUnassignedReward[_relatedRewardTokenAddress] +\n                    ((_lastPeriodDuration *\n                        rewardAmount[_relatedRewardTokenAddress]) /\n                        secondsDuration);\n                rewardPerStakedToken[_relatedRewardTokenAddress] = 0;\n            } else {\n                rewardPerStakedToken[_relatedRewardTokenAddress] =\n                    rewardPerStakedToken[_relatedRewardTokenAddress] +\n                    ((_lastPeriodDuration *\n                        rewardAmount[_relatedRewardTokenAddress] *\n                        MULTIPLIER) /\n                        (totalStakedTokensAmount * secondsDuration));\n            }\n            // avoids subtraction underflow. If the rewards per staked tokens are 0,\n            // the rewards in current period must be 0 by definition, no need to\n            // perform subtraction risking underflow.\n            uint256 _rewardInCurrentPeriod =\n                rewardPerStakedToken[_relatedRewardTokenAddress] > 0\n                    ? (stakedTokensOf[msg.sender] *\n                        (rewardPerStakedToken[_relatedRewardTokenAddress] -\n                            consolidatedRewardsPerStakedToken[msg.sender][\n                                _relatedRewardTokenAddress\n                            ])) / MULTIPLIER\n                    : 0;\n            earnedRewards[msg.sender][_relatedRewardTokenAddress] =\n                earnedRewards[msg.sender][_relatedRewardTokenAddress] +\n                _rewardInCurrentPeriod;\n            consolidatedRewardsPerStakedToken[msg.sender][\n                _relatedRewardTokenAddress\n            ] = rewardPerStakedToken[_relatedRewardTokenAddress];\n        }\n        lastConsolidationTimestamp = _consolidationTimestamp;\n    }\n\n    function claimableRewards(address _staker)\n        public\n        view\n        returns (uint256[] memory)\n    {\n        uint256[] memory _outstandingRewards =\n            new uint256[](rewardTokens.length);\n        if (!initialized || block.timestamp < startingTimestamp) {\n            for (uint256 _i; _i < rewardTokens.length; _i++) {\n                _outstandingRewards[_i] = 0;\n            }\n            return _outstandingRewards;\n        }\n        uint64 _consolidationTimestamp =\n            uint64(Math.min(block.timestamp, endingTimestamp));\n        uint256 _lastPeriodDuration =\n            uint256(_consolidationTimestamp - lastConsolidationTimestamp);\n        for (uint256 _i; _i < rewardTokens.length; _i++) {\n            address _relatedRewardTokenAddress = address(rewardTokens[_i]);\n            uint256 _localRewardPerStakedToken =\n                rewardPerStakedToken[_relatedRewardTokenAddress];\n            if (totalStakedTokensAmount == 0) {\n                _localRewardPerStakedToken = 0;\n            } else {\n                _localRewardPerStakedToken =\n                    _localRewardPerStakedToken +\n                    ((_lastPeriodDuration *\n                        rewardAmount[_relatedRewardTokenAddress] *\n                        MULTIPLIER) /\n                        (totalStakedTokensAmount * secondsDuration));\n            }\n            uint256 _rewardsInTheCurrentPeriod =\n                _localRewardPerStakedToken > 0\n                    ? (stakedTokensOf[_staker] *\n                        (_localRewardPerStakedToken -\n                            consolidatedRewardsPerStakedToken[_staker][\n                                _relatedRewardTokenAddress\n                            ])) / MULTIPLIER\n                    : 0;\n            // the claimable reward basically is the one not yet consolidated in the current period plus any\n            // previously consolidated/earned but unclaimed reward\n            _outstandingRewards[_i] =\n                _rewardsInTheCurrentPeriod +\n                earnedRewards[_staker][_relatedRewardTokenAddress] -\n                claimedReward[_staker][_relatedRewardTokenAddress];\n        }\n        return _outstandingRewards;\n    }\n\n    function renounceOwnership() public onlyOwner {\n        owner = address(0);\n        emit OwnershipTransferred(owner, address(0));\n    }\n\n    function transferOwnership(address _newOwner) public onlyOwner {\n        require(\n            _newOwner != address(0),\n            \"ERC20StakingRewardsDistribution: 0-address owner\"\n        );\n        emit OwnershipTransferred(owner, _newOwner);\n        owner = _newOwner;\n    }\n\n    modifier onlyOwner() {\n        require(\n            owner == msg.sender,\n            \"ERC20StakingRewardsDistribution: caller not owner\"\n        );\n        _;\n    }\n\n    modifier onlyUninitialized() {\n        require(\n            !initialized,\n            \"ERC20StakingRewardsDistribution: already initialized\"\n        );\n        _;\n    }\n\n    modifier onlyInitialized() {\n        require(\n            initialized,\n            \"ERC20StakingRewardsDistribution: not initialized\"\n        );\n        _;\n    }\n\n    modifier onlyStarted() {\n        require(\n            initialized && block.timestamp >= startingTimestamp,\n            \"ERC20StakingRewardsDistribution: not started\"\n        );\n        _;\n    }\n\n    modifier onlyRunning() {\n        require(\n            initialized && block.timestamp <= endingTimestamp,\n            \"ERC20StakingRewardsDistribution: already ended\"\n        );\n        _;\n    }\n}\n",
  "sourcePath": "/home/luzzif/Projects/swapr-lp-staker/contracts/ERC20StakingRewardsDistribution.sol",
  "compiler": {
    "name": "solc",
    "version": "0.8.3+commit.8d00100c.Emscripten.clang"
  },
  "schemaVersion": "3.3.3",
  "updatedAt": "2021-04-15T12:36:31.490Z",
  "devdoc": {
    "kind": "dev",
    "methods": {},
    "version": 1
  },
  "userdoc": {
    "kind": "user",
    "methods": {},
    "version": 1
  }
}