{
  "contractName": "ERC20StakingRewardsDistribution",
  "abi": [
    {
      "anonymous": false,
      "inputs": [],
      "name": "Canceled",
      "type": "event"
    },
    {
      "anonymous": false,
      "inputs": [
        {
          "indexed": true,
          "internalType": "address",
          "name": "claimer",
          "type": "address"
        },
        {
          "indexed": false,
          "internalType": "uint256[]",
          "name": "amounts",
          "type": "uint256[]"
        }
      ],
      "name": "Claimed",
      "type": "event"
    },
    {
      "anonymous": false,
      "inputs": [
        {
          "indexed": false,
          "internalType": "address[]",
          "name": "rewardsTokenAddresses",
          "type": "address[]"
        },
        {
          "indexed": false,
          "internalType": "address",
          "name": "stakableTokenAddress",
          "type": "address"
        },
        {
          "indexed": false,
          "internalType": "uint256[]",
          "name": "rewardsAmounts",
          "type": "uint256[]"
        },
        {
          "indexed": false,
          "internalType": "uint64",
          "name": "startingTimestamp",
          "type": "uint64"
        },
        {
          "indexed": false,
          "internalType": "uint64",
          "name": "endingTimestamp",
          "type": "uint64"
        },
        {
          "indexed": false,
          "internalType": "bool",
          "name": "locked",
          "type": "bool"
        }
      ],
      "name": "Initialized",
      "type": "event"
    },
    {
      "anonymous": false,
      "inputs": [
        {
          "indexed": true,
          "internalType": "address",
          "name": "previousOwner",
          "type": "address"
        },
        {
          "indexed": true,
          "internalType": "address",
          "name": "newOwner",
          "type": "address"
        }
      ],
      "name": "OwnershipTransferred",
      "type": "event"
    },
    {
      "anonymous": false,
      "inputs": [
        {
          "indexed": false,
          "internalType": "uint256[]",
          "name": "amounts",
          "type": "uint256[]"
        }
      ],
      "name": "Recovered",
      "type": "event"
    },
    {
      "anonymous": false,
      "inputs": [
        {
          "indexed": true,
          "internalType": "address",
          "name": "staker",
          "type": "address"
        },
        {
          "indexed": false,
          "internalType": "uint256",
          "name": "amount",
          "type": "uint256"
        }
      ],
      "name": "Staked",
      "type": "event"
    },
    {
      "anonymous": false,
      "inputs": [
        {
          "indexed": true,
          "internalType": "address",
          "name": "withdrawer",
          "type": "address"
        },
        {
          "indexed": false,
          "internalType": "uint256",
          "name": "amount",
          "type": "uint256"
        }
      ],
      "name": "Withdrawn",
      "type": "event"
    },
    {
      "inputs": [
        {
          "internalType": "address",
          "name": "",
          "type": "address"
        },
        {
          "internalType": "address",
          "name": "",
          "type": "address"
        }
      ],
      "name": "claimedReward",
      "outputs": [
        {
          "internalType": "uint256",
          "name": "",
          "type": "uint256"
        }
      ],
      "stateMutability": "view",
      "type": "function"
    },
    {
      "inputs": [
        {
          "internalType": "address",
          "name": "",
          "type": "address"
        },
        {
          "internalType": "address",
          "name": "",
          "type": "address"
        }
      ],
      "name": "consolidatedRewardsPerStakedToken",
      "outputs": [
        {
          "internalType": "uint256",
          "name": "",
          "type": "uint256"
        }
      ],
      "stateMutability": "view",
      "type": "function"
    },
    {
      "inputs": [
        {
          "internalType": "address",
          "name": "",
          "type": "address"
        },
        {
          "internalType": "address",
          "name": "",
          "type": "address"
        }
      ],
      "name": "earnedRewards",
      "outputs": [
        {
          "internalType": "uint256",
          "name": "",
          "type": "uint256"
        }
      ],
      "stateMutability": "view",
      "type": "function"
    },
    {
      "inputs": [],
      "name": "endingTimestamp",
      "outputs": [
        {
          "internalType": "uint64",
          "name": "",
          "type": "uint64"
        }
      ],
      "stateMutability": "view",
      "type": "function"
    },
    {
      "inputs": [],
      "name": "initialized",
      "outputs": [
        {
          "internalType": "bool",
          "name": "",
          "type": "bool"
        }
      ],
      "stateMutability": "view",
      "type": "function"
    },
    {
      "inputs": [],
      "name": "lastConsolidationTimestamp",
      "outputs": [
        {
          "internalType": "uint64",
          "name": "",
          "type": "uint64"
        }
      ],
      "stateMutability": "view",
      "type": "function"
    },
    {
      "inputs": [],
      "name": "locked",
      "outputs": [
        {
          "internalType": "bool",
          "name": "",
          "type": "bool"
        }
      ],
      "stateMutability": "view",
      "type": "function"
    },
    {
      "inputs": [],
      "name": "owner",
      "outputs": [
        {
          "internalType": "address",
          "name": "",
          "type": "address"
        }
      ],
      "stateMutability": "view",
      "type": "function"
    },
    {
      "inputs": [
        {
          "internalType": "address",
          "name": "",
          "type": "address"
        }
      ],
      "name": "recoverableUnassignedReward",
      "outputs": [
        {
          "internalType": "uint256",
          "name": "",
          "type": "uint256"
        }
      ],
      "stateMutability": "view",
      "type": "function"
    },
    {
      "inputs": [],
      "name": "renounceOwnership",
      "outputs": [],
      "stateMutability": "nonpayable",
      "type": "function"
    },
    {
      "inputs": [
        {
          "internalType": "address",
          "name": "",
          "type": "address"
        }
      ],
      "name": "rewardAmount",
      "outputs": [
        {
          "internalType": "uint256",
          "name": "",
          "type": "uint256"
        }
      ],
      "stateMutability": "view",
      "type": "function"
    },
    {
      "inputs": [
        {
          "internalType": "address",
          "name": "",
          "type": "address"
        }
      ],
      "name": "rewardPerStakedToken",
      "outputs": [
        {
          "internalType": "uint256",
          "name": "",
          "type": "uint256"
        }
      ],
      "stateMutability": "view",
      "type": "function"
    },
    {
      "inputs": [
        {
          "internalType": "uint256",
          "name": "",
          "type": "uint256"
        }
      ],
      "name": "rewardTokens",
      "outputs": [
        {
          "internalType": "contract ERC20",
          "name": "",
          "type": "address"
        }
      ],
      "stateMutability": "view",
      "type": "function"
    },
    {
      "inputs": [],
      "name": "secondsDuration",
      "outputs": [
        {
          "internalType": "uint64",
          "name": "",
          "type": "uint64"
        }
      ],
      "stateMutability": "view",
      "type": "function"
    },
    {
      "inputs": [],
      "name": "stakableToken",
      "outputs": [
        {
          "internalType": "contract ERC20",
          "name": "",
          "type": "address"
        }
      ],
      "stateMutability": "view",
      "type": "function"
    },
    {
      "inputs": [
        {
          "internalType": "address",
          "name": "",
          "type": "address"
        }
      ],
      "name": "stakedTokenAmount",
      "outputs": [
        {
          "internalType": "uint256",
          "name": "",
          "type": "uint256"
        }
      ],
      "stateMutability": "view",
      "type": "function"
    },
    {
      "inputs": [
        {
          "internalType": "address",
          "name": "",
          "type": "address"
        }
      ],
      "name": "stakedTokensOf",
      "outputs": [
        {
          "internalType": "uint256",
          "name": "",
          "type": "uint256"
        }
      ],
      "stateMutability": "view",
      "type": "function"
    },
    {
      "inputs": [],
      "name": "startingTimestamp",
      "outputs": [
        {
          "internalType": "uint64",
          "name": "",
          "type": "uint64"
        }
      ],
      "stateMutability": "view",
      "type": "function"
    },
    {
      "inputs": [
        {
          "internalType": "address",
          "name": "",
          "type": "address"
        }
      ],
      "name": "totalClaimedRewards",
      "outputs": [
        {
          "internalType": "uint256",
          "name": "",
          "type": "uint256"
        }
      ],
      "stateMutability": "view",
      "type": "function"
    },
    {
      "inputs": [],
      "name": "totalStakedTokensAmount",
      "outputs": [
        {
          "internalType": "uint256",
          "name": "",
          "type": "uint256"
        }
      ],
      "stateMutability": "view",
      "type": "function"
    },
    {
      "inputs": [
        {
          "internalType": "address",
          "name": "newOwner",
          "type": "address"
        }
      ],
      "name": "transferOwnership",
      "outputs": [],
      "stateMutability": "nonpayable",
      "type": "function"
    },
    {
      "inputs": [],
      "name": "getRewardTokens",
      "outputs": [
        {
          "internalType": "contract ERC20[]",
          "name": "",
          "type": "address[]"
        }
      ],
      "stateMutability": "view",
      "type": "function"
    },
    {
      "inputs": [
        {
          "internalType": "address[]",
          "name": "_rewardTokenAddresses",
          "type": "address[]"
        },
        {
          "internalType": "address",
          "name": "_stakableTokenAddress",
          "type": "address"
        },
        {
          "internalType": "uint256[]",
          "name": "_rewardAmounts",
          "type": "uint256[]"
        },
        {
          "internalType": "uint64",
          "name": "_startingTimestamp",
          "type": "uint64"
        },
        {
          "internalType": "uint64",
          "name": "_endingTimestamp",
          "type": "uint64"
        },
        {
          "internalType": "bool",
          "name": "_locked",
          "type": "bool"
        }
      ],
      "name": "initialize",
      "outputs": [],
      "stateMutability": "nonpayable",
      "type": "function"
    },
    {
      "inputs": [],
      "name": "cancel",
      "outputs": [],
      "stateMutability": "nonpayable",
      "type": "function"
    },
    {
      "inputs": [],
      "name": "recoverUnassignedRewards",
      "outputs": [],
      "stateMutability": "nonpayable",
      "type": "function"
    },
    {
      "inputs": [
        {
          "internalType": "uint256",
          "name": "_amount",
          "type": "uint256"
        }
      ],
      "name": "stake",
      "outputs": [],
      "stateMutability": "nonpayable",
      "type": "function"
    },
    {
      "inputs": [
        {
          "internalType": "uint256",
          "name": "_amount",
          "type": "uint256"
        }
      ],
      "name": "withdraw",
      "outputs": [],
      "stateMutability": "nonpayable",
      "type": "function"
    },
    {
      "inputs": [
        {
          "internalType": "uint256[]",
          "name": "_amounts",
          "type": "uint256[]"
        },
        {
          "internalType": "address",
          "name": "_recipient",
          "type": "address"
        }
      ],
      "name": "claim",
      "outputs": [],
      "stateMutability": "nonpayable",
      "type": "function"
    },
    {
      "inputs": [
        {
          "internalType": "address",
          "name": "_recipient",
          "type": "address"
        }
      ],
      "name": "claimAll",
      "outputs": [],
      "stateMutability": "nonpayable",
      "type": "function"
    },
    {
      "inputs": [],
      "name": "consolidateReward",
      "outputs": [],
      "stateMutability": "nonpayable",
      "type": "function"
    }
  ],
  "bytecode": "0x608060405234801561001057600080fd5b50600061001b61006a565b600080546001600160a01b0319166001600160a01b0383169081178255604051929350917f8be0079c531659141344cd1fd0a4f28419497f9722a3daafe3b4186f6b6457e0908290a35061006e565b3390565b612be18061007d6000396000f3fe608060405234801561001057600080fd5b50600436106101da5760003560e01c80638c574b4811610104578063c03e7295116100a2578063e644067d11610071578063e644067d1461064c578063e66d85be14610654578063ea8a1af01461067a578063f2fde38b14610682576101da565b8063c03e7295146104fa578063c10de300146105e4578063c4f59f9b146105ec578063cf30901214610644576101da565b8063a110b93f116100de578063a110b93f14610489578063a694fc3a146104af578063ab08d4fc146104cc578063b41fa979146104f2576101da565b80638c574b48146103ad5780638da5cb5b1461045b57806398f8123014610463576101da565b8063645a8a561161017c57806375b8dbf81161014b57806375b8dbf81461033457806377329f35146103625780637bb7bed11461038857806388786272146103a5576101da565b8063645a8a56146102d05780636715dcb8146102f6578063715018a6146102fe578063728e4a6714610306576101da565b806334380a61116101b857806334380a611461023e5780633b34ee501461027e5780635e5294b7146102a45780635fa35023146102c8576101da565b8063158ef93e146101df5780631c96c3fb146101fb5780632e1a7d4d1461021f575b600080fd5b6101e76106a8565b604080519115158252519081900360200190f35b6102036106b8565b604080516001600160a01b039092168252519081900360200190f35b61023c6004803603602081101561023557600080fd5b50356106c7565b005b61026c6004803603604081101561025457600080fd5b506001600160a01b03813581169160200135166108ef565b60408051918252519081900360200190f35b61026c6004803603602081101561029457600080fd5b50356001600160a01b031661090c565b6102ac61091e565b604080516001600160401b039092168252519081900360200190f35b6102ac610934565b61026c600480360360208110156102e657600080fd5b50356001600160a01b031661094a565b61023c61095c565b61023c610ccf565b61026c6004803603604081101561031c57600080fd5b506001600160a01b0381358116916020013516610d71565b61026c6004803603604081101561034a57600080fd5b506001600160a01b0381358116916020013516610d8e565b61023c6004803603602081101561037857600080fd5b50356001600160a01b0316610dab565b6102036004803603602081101561039e57600080fd5b5035610fbb565b6102ac610fe2565b61023c600480360360408110156103c357600080fd5b8101906020810181356401000000008111156103de57600080fd5b8201836020820111156103f057600080fd5b8035906020019184602083028401116401000000008311171561041257600080fd5b919080806020026020016040519081016040528093929190818152602001838360200280828437600092019190915250929550505090356001600160a01b03169150610ff19050565b61020361129f565b61026c6004803603602081101561047957600080fd5b50356001600160a01b03166112ae565b61026c6004803603602081101561049f57600080fd5b50356001600160a01b03166112c0565b61023c600480360360208110156104c557600080fd5b50356112d2565b61026c600480360360208110156104e257600080fd5b50356001600160a01b03166114b1565b61026c6114c3565b61023c600480360360c081101561051057600080fd5b81019060208101813564010000000081111561052b57600080fd5b82018360208201111561053d57600080fd5b8035906020019184602083028401116401000000008311171561055f57600080fd5b919390926001600160a01b038335169260408101906020013564010000000081111561058a57600080fd5b82018360208201111561059c57600080fd5b803590602001918460208302840111640100000000831117156105be57600080fd5b91935091506001600160401b0381358116916020810135909116906040013515156114c9565b6102ac6119f4565b6105f4611a03565b60408051602080825283518183015283519192839290830191858101910280838360005b83811015610630578181015183820152602001610618565b505050509050019250505060405180910390f35b6101e7611a65565b61023c611a75565b61026c6004803603602081101561066a57600080fd5b50356001600160a01b0316611d48565b61023c611d5a565b61023c6004803603602081101561069857600080fd5b50356001600160a01b0316611f9b565b600754600160c81b900460ff1681565b6002546001600160a01b031681565b600754600160c81b900460ff1661070f5760405162461bcd60e51b81526004018080602001828103825260308152602001806129206030913960400191505060405180910390fd5b600754600160c81b900460ff16801561073357506007546001600160401b03164210155b61076e5760405162461bcd60e51b815260040180806020018281038252602c815260200180612739602c913960400191505060405180910390fd5b600081116107ad5760405162461bcd60e51b815260040180806020018281038252603a815260200180612765603a913960400191505060405180910390fd5b600754600160c01b900460ff161561080f57600754600160401b90046001600160401b0316421161080f5760405162461bcd60e51b8152600401808060200182810382526049815260200180612b0e6049913960600191505060405180910390fd5b61081761095c565b336000908152600b60205260409020548111156108655760405162461bcd60e51b815260040180806020018281038252604c815260200180612844604c913960600191505060405180910390fd5b336000908152600b602052604090205461087f9082612093565b336000908152600b602052604090205560055461089c9082612093565b6005556002546108b6906001600160a01b031633836120de565b60408051828152905133917f7084f5476618d8e60b11ef0d7d3f06914655adb8793e28ff7f018d4c76d505d5919081900360200190a250565b600e60209081526000928352604080842090915290825290205481565b60096020526000908152604090205481565b600754600160401b90046001600160401b031681565b600754600160801b90046001600160401b031681565b60036020526000908152604090205481565b600754600160c81b900460ff166109a45760405162461bcd60e51b81526004018080602001828103825260308152602001806129206030913960400191505060405180910390fd5b600754600160c81b900460ff1680156109c857506007546001600160401b03164210155b610a035760405162461bcd60e51b815260040180806020018281038252602c815260200180612739602c913960400191505060405180910390fd5b600754600090610a24904290600160401b90046001600160401b0316612135565b600854909150600090610a43906001600160401b038085169116612093565b905060005b600154811015610caa57600060018281548110610a6157fe5b6000918252602090912001546005546001600160a01b039091169150610b13576007546001600160a01b038216600090815260036020526040902054610ae791610ac891600160801b9091046001600160401b031690610ac290879061214b565b906121a4565b6001600160a01b038316600090815260096020526040902054906121e6565b6001600160a01b0382166000908152600960209081526040808320939093556006905290812055610ba7565b600754600554610b8d91610b6e91610b3a91600160801b90046001600160401b031661214b565b6001600160a01b038416600090815260036020526040902054610ac290600160701b90610b6890899061214b565b9061214b565b6001600160a01b038316600090815260066020526040902054906121e6565b6001600160a01b0382166000908152600660205260409020555b6001600160a01b038116600090815260066020526040812054610bcb576000610c26565b336000908152600c602090815260408083206001600160a01b0386168452825280832054600690925290912054610c2691600160701b91610ac291610c109190612093565b336000908152600b60205260409020549061214b565b336000908152600d602090815260408083206001600160a01b0387168452909152902054909150610c5790826121e6565b336000818152600d602090815260408083206001600160a01b0397909716808452968252808320949094556006815283822054928252600c81528382209582529490945292209190915550600101610a48565b50506008805467ffffffffffffffff19166001600160401b0392909216919091179055565b610cd7612240565b6000546001600160a01b03908116911614610d27576040805162461bcd60e51b81526020600482018190526024820152600080516020612971833981519152604482015290519081900360640190fd5b600080546040516001600160a01b03909116907f8be0079c531659141344cd1fd0a4f28419497f9722a3daafe3b4186f6b6457e0908390a3600080546001600160a01b0319169055565b600d60209081526000928352604080842090915290825290205481565b600c60209081526000928352604080842090915290825290205481565b600754600160c81b900460ff16610df35760405162461bcd60e51b81526004018080602001828103825260308152602001806129206030913960400191505060405180910390fd5b600754600160c81b900460ff168015610e1757506007546001600160401b03164210155b610e525760405162461bcd60e51b815260040180806020018281038252602c815260200180612739602c913960400191505060405180910390fd5b610e5a61095c565b6001546060906001600160401b0381118015610e7557600080fd5b50604051908082528060200260200182016040528015610e9f578160200160208202803683370190505b50905060005b600154811015610f4257600060018281548110610ebe57fe5b600091825260208083209091015433808452600e835260408085206001600160a01b0390931680865292845280852054918552600d845280852083865290935291832054909350839291610f129190612093565b9050610f1f838288612244565b80858581518110610f2c57fe5b6020908102919091010152505050600101610ea5565b50604080516020808252835181830152835133937f28ee566bdecaf975c0979f4d09fecf91a9009ffe78523aef053a678134137b8b93869390928392830191808601910280838360005b83811015610fa4578181015183820152602001610f8c565b505050509050019250505060405180910390a25050565b60018181548110610fc857fe5b6000918252602090912001546001600160a01b0316905081565b6007546001600160401b031681565b600754600160c81b900460ff166110395760405162461bcd60e51b81526004018080602001828103825260308152602001806129206030913960400191505060405180910390fd5b600754600160c81b900460ff16801561105d57506007546001600160401b03164210155b6110985760405162461bcd60e51b815260040180806020018281038252602c815260200180612739602c913960400191505060405180910390fd5b6001548251146110d95760405162461bcd60e51b815260040180806020018281038252603d8152602001806126fc603d913960400191505060405180910390fd5b6110e161095c565b6001546060906001600160401b03811180156110fc57600080fd5b50604051908082528060200260200182016040528015611126578160200160208202803683370190505b50905060005b6001548110156112255760006001828154811061114557fe5b600091825260208083209091015433808452600e835260408085206001600160a01b0390931680865292845280852054918552600d8452808520838652909352918320549093508392916111999190612093565b905060008785815181106111a957fe5b60200260200101519050808210156111f25760405162461bcd60e51b815260040180806020018281038252603e81526020018061279f603e913960400191505060405180910390fd5b6111fd848289612244565b8086868151811061120a57fe5b602090810291909101015250506001909201915061112c9050565b50604080516020808252835181830152835133937f28ee566bdecaf975c0979f4d09fecf91a9009ffe78523aef053a678134137b8b93869390928392830191808601910280838360005b8381101561128757818101518382015260200161126f565b505050509050019250505060405180910390a2505050565b6000546001600160a01b031690565b60066020526000908152604090205481565b600a6020526000908152604090205481565b600754600160c81b900460ff1661131a5760405162461bcd60e51b81526004018080602001828103825260308152602001806129206030913960400191505060405180910390fd5b600754600160c81b900460ff16801561133e57506007546001600160401b03164210155b6113795760405162461bcd60e51b815260040180806020018281038252602c815260200180612739602c913960400191505060405180910390fd5b600754600160c81b900460ff1680156113a45750600754600160401b90046001600160401b03164211155b6113df5760405162461bcd60e51b815260040180806020018281038252602e815260200180612aa5602e913960400191505060405180910390fd5b6000811161141e5760405162461bcd60e51b8152600401808060200182810382526037815260200180612a326037913960400191505060405180910390fd5b61142661095c565b336000908152600b602052604090205461144090826121e6565b336000908152600b602052604090205560055461145d90826121e6565b600555600254611478906001600160a01b03163330846122d0565b60408051828152905133917f9e71bc8eea02a63969f509818f2dafb9254532904319f9dbda79b67bd34a5f3d919081900360200190a250565b600b6020526000908152604090205481565b60055481565b6114d1612240565b6000546001600160a01b03908116911614611521576040805162461bcd60e51b81526020600482018190526024820152600080516020612971833981519152604482015290519081900360640190fd5b600754600160c81b900460ff161561156a5760405162461bcd60e51b81526004018080602001828103825260348152602001806128ec6034913960400191505060405180910390fd5b42836001600160401b0316116115b15760405162461bcd60e51b815260040180806020018281038252603b815260200180612ad3603b913960400191505060405180910390fd5b826001600160401b0316826001600160401b0316116116015760405162461bcd60e51b81526004018080602001828103825260368152602001806128906036913960400191505060405180910390fd5b86841461163f5760405162461bcd60e51b81526004018080602001828103825260418152602001806128036041913960600191505060405180910390fd5b6007805467ffffffffffffffff60801b1916600160801b8585036001600160401b03160217905560005b63ffffffff811688111561184f57600089898363ffffffff1681811061168b57fe5b905060200201356001600160a01b03169050600087878463ffffffff168181106116b157fe5b60200291909101359150506001600160a01b0382166117015760405162461bcd60e51b815260040180806020018281038252603a815260200180612991603a913960400191505060405180910390fd5b600081116117405760405162461bcd60e51b815260040180806020018281038252602a8152602001806129cb602a913960400191505060405180910390fd5b604080516370a0823160e01b81523060048201529051839183916001600160a01b038416916370a08231916024808301926020929190829003018186803b15801561178a57600080fd5b505afa15801561179e573d6000803e3d6000fd5b505050506040513d60208110156117b457600080fd5b505110156117f35760405162461bcd60e51b815260040180806020018281038252602b815260200180612b81602b913960400191505060405180910390fd5b6001805480820182557fb10e2d527612073b26eecdfd717e6a320cf44b4afac2b0732d9fcbe2b7fa0cf60180546001600160a01b0319166001600160a01b03938416179055921660009081526003602052604090205501611669565b506001600160a01b0386166118955760405162461bcd60e51b815260040180806020018281038252603c815260200180612a69603c913960400191505060405180910390fd5b600280546001600160a01b0319166001600160a01b03881690811790915560078054600880546001600160401b0388811667ffffffffffffffff199283168117909355600160c81b9190931682176fffffffffffffffff00000000000000001916600160401b9388169384021760ff60c01b1916600160c01b8715159081029190911760ff60c81b191691909117909355604080516020808201969096526060810192909252608082019290925260a081019290925260c080835282018a90527fe0447a394d11ec1fdc78a0ee3f2ce94c11fcfcf256a283544638f918f2df2800928b928b928b928b928b928b928b928b929091829182019060e08301908c908c0280828437600083820152601f01601f19169091018481038352888152602090810191508990890280828437600083820152604051601f909101601f19169092018290039c50909a5050505050505050505050a15050505050505050565b6008546001600160401b031681565b60606001805480602002602001604051908101604052809291908181526020018280548015611a5b57602002820191906000526020600020905b81546001600160a01b03168152600190910190602001808311611a3d575b5050505050905090565b600754600160c01b900460ff1681565b600754600160c81b900460ff16611abd5760405162461bcd60e51b81526004018080602001828103825260308152602001806129206030913960400191505060405180910390fd5b600754600160c81b900460ff168015611ae157506007546001600160401b03164210155b611b1c5760405162461bcd60e51b815260040180806020018281038252602c815260200180612739602c913960400191505060405180910390fd5b611b2461095c565b6001546060816001600160401b0381118015611b3f57600080fd5b50604051908082528060200260200182016040528015611b69578160200160208202803683370190505b50905060005b82811015611cce57600060018281548110611b8657fe5b60009182526020808320909101546001600160a01b031680835260098252604080842054600a909352909220549192508291611bc1916121e6565b6001600160a01b0382166000908152600a6020908152604080832084905560039091528120549091611bf39190612093565b6001600160a01b03808416600090815260096020908152604080832083905580516370a0823160e01b815230600482015290519495509193611c87938693908916926370a0823192602480840193829003018186803b158015611c5557600080fd5b505afa158015611c69573d6000803e3d6000fd5b505050506040513d6020811015611c7f57600080fd5b505190612093565b905080868681518110611c9657fe5b602002602001018181525050611cbe611cad61129f565b6001600160a01b03861690836120de565b505060019092019150611b6f9050565b507ff904fafa600a7e4e8039f3a5497d1b6016772e3060f87d3e40f911b315f00bd1816040518080602001828103825283818151815260200191508051906020019060200280838360005b83811015611d31578181015183820152602001611d19565b505050509050019250505060405180910390a15050565b60046020526000908152604090205481565b600754600160c81b900460ff16611da25760405162461bcd60e51b81526004018080602001828103825260308152602001806129206030913960400191505060405180910390fd5b611daa612240565b6000546001600160a01b03908116911614611dfa576040805162461bcd60e51b81526020600482018190526024820152600080516020612971833981519152604482015290519081900360640190fd5b6007546001600160401b03164210611e435760405162461bcd60e51b815260040180806020018281038252603d8152602001806129f5603d913960400191505060405180910390fd5b60005b600154811015611f1f57600060018281548110611e5f57fe5b60009182526020808320909101546001600160a01b0316808352600390915260408220919091559050611f16611e9361129f565b604080516370a0823160e01b815230600482015290516001600160a01b038516916370a08231916024808301926020929190829003018186803b158015611ed957600080fd5b505afa158015611eed573d6000803e3d6000fd5b505050506040513d6020811015611f0357600080fd5b50516001600160a01b03841691906120de565b50600101611e46565b50611f2c600160006126c1565b600280546001600160a01b0319169055600780546008805467ffffffffffffffff1916905579ffff0000000000000000ffffffffffffffffffffffffffffffff191690556040517f1afb0ae590df277bcb3a37f88612725bf1f7df4755792b1548a7efe77985ff7790600090a1565b611fa3612240565b6000546001600160a01b03908116911614611ff3576040805162461bcd60e51b81526020600482018190526024820152600080516020612971833981519152604482015290519081900360640190fd5b6001600160a01b0381166120385760405162461bcd60e51b81526004018080602001828103825260268152602001806127dd6026913960400191505060405180910390fd5b600080546040516001600160a01b03808516939216917f8be0079c531659141344cd1fd0a4f28419497f9722a3daafe3b4186f6b6457e091a3600080546001600160a01b0319166001600160a01b0392909216919091179055565b60006120d583836040518060400160405280601e81526020017f536166654d6174683a207375627472616374696f6e206f766572666c6f770000815250612330565b90505b92915050565b604080516001600160a01b038416602482015260448082018490528251808303909101815260649091019091526020810180516001600160e01b031663a9059cbb60e01b1790526121309084906123cc565b505050565b600081831061214457816120d5565b5090919050565b60008261215a575060006120d8565b8282028284828161216757fe5b04146120d55760405162461bcd60e51b81526004018080602001828103825260218152602001806129506021913960400191505060405180910390fd5b60006120d583836040518060400160405280601a81526020017f536166654d6174683a206469766973696f6e206279207a65726f00000000000081525061247d565b6000828201838110156120d5576040805162461bcd60e51b815260206004820152601b60248201527f536166654d6174683a206164646974696f6e206f766572666c6f770000000000604482015290519081900360640190fd5b3390565b336000908152600e602090815260408083206001600160a01b038716845290915290205461227290836121e6565b336000908152600e602090815260408083206001600160a01b0388168452825280832093909355600a905220546122a990836121e6565b6001600160a01b0384166000818152600a60205260409020919091556121309082846120de565b604080516001600160a01b0380861660248301528416604482015260648082018490528251808303909101815260849091019091526020810180516001600160e01b03166323b872dd60e01b17905261232a9085906123cc565b50505050565b600081848411156123bf5760405162461bcd60e51b81526004018080602001828103825283818151815260200191508051906020019080838360005b8381101561238457818101518382015260200161236c565b50505050905090810190601f1680156123b15780820380516001836020036101000a031916815260200191505b509250505060405180910390fd5b50508183035b9392505050565b6060612421826040518060400160405280602081526020017f5361666545524332303a206c6f772d6c6576656c2063616c6c206661696c6564815250856001600160a01b03166124e29092919063ffffffff16565b8051909150156121305780806020019051602081101561244057600080fd5b50516121305760405162461bcd60e51b815260040180806020018281038252602a815260200180612b57602a913960400191505060405180910390fd5b600081836124cc5760405162461bcd60e51b815260206004820181815283516024840152835190928392604490910191908501908083836000831561238457818101518382015260200161236c565b5060008385816124d857fe5b0495945050505050565b60606124f184846000856124f9565b949350505050565b60608247101561253a5760405162461bcd60e51b81526004018080602001828103825260268152602001806128c66026913960400191505060405180910390fd5b61254385612655565b612594576040805162461bcd60e51b815260206004820152601d60248201527f416464726573733a2063616c6c20746f206e6f6e2d636f6e7472616374000000604482015290519081900360640190fd5b60006060866001600160a01b031685876040518082805190602001908083835b602083106125d35780518252601f1990920191602091820191016125b4565b6001836020036101000a03801982511681845116808217855250505050505090500191505060006040518083038185875af1925050503d8060008114612635576040519150601f19603f3d011682016040523d82523d6000602084013e61263a565b606091505b509150915061264a82828661265b565b979650505050505050565b3b151590565b6060831561266a5750816123c5565b82511561267a5782518084602001fd5b60405162461bcd60e51b815260206004820181815284516024840152845185939192839260440191908501908083836000831561238457818101518382015260200161236c565b50805460008255906000526020600020908101906126df91906126e2565b50565b5b808211156126f757600081556001016126e3565b509056fe45524332305374616b696e6752657761726473446973747269627574696f6e3a20696e636f6e73697374656e7420636c61696d656420616d6f756e747345524332305374616b696e6752657761726473446973747269627574696f6e3a206e6f74207374617274656445524332305374616b696e6752657761726473446973747269627574696f6e3a20747269656420746f207769746864726177206e6f7468696e6745524332305374616b696e6752657761726473446973747269627574696f6e3a20696e73756666696369656e7420636c61696d61626c6520616d6f756e744f776e61626c653a206e6577206f776e657220697320746865207a65726f206164647265737345524332305374616b696e6752657761726473446973747269627574696f6e3a20696e636f6e73697374656e742072657761726420746f6b656e2f616d6f756e7445524332305374616b696e6752657761726473446973747269627574696f6e3a2077697468647261776e20616d6f756e742067726561746572207468616e2063757272656e74207374616b6545524332305374616b696e6752657761726473446973747269627574696f6e3a20696e76616c69642074696d65206475726174696f6e416464726573733a20696e73756666696369656e742062616c616e636520666f722063616c6c45524332305374616b696e6752657761726473446973747269627574696f6e3a20616c726561647920696e697469616c697a656445524332305374616b696e6752657761726473446973747269627574696f6e3a206e6f7420696e697469616c697a6564536166654d6174683a206d756c7469706c69636174696f6e206f766572666c6f774f776e61626c653a2063616c6c6572206973206e6f7420746865206f776e657245524332305374616b696e6752657761726473446973747269627574696f6e3a203020616464726573732061732072657761726420746f6b656e45524332305374616b696e6752657761726473446973747269627574696f6e3a206e6f2072657761726445524332305374616b696e6752657761726473446973747269627574696f6e3a20646973747269627574696f6e20616c7265616479207374617274656445524332305374616b696e6752657761726473446973747269627574696f6e3a20747269656420746f207374616b65206e6f7468696e6745524332305374616b696e6752657761726473446973747269627574696f6e3a20302061646472657373206173207374616b61626c6520746f6b656e45524332305374616b696e6752657761726473446973747269627574696f6e3a20616c726561647920656e64656445524332305374616b696e6752657761726473446973747269627574696f6e3a20696e76616c6964207374617274696e672074696d657374616d7045524332305374616b696e6752657761726473446973747269627574696f6e3a2066756e6473206c6f636b656420756e74696c2074686520646973747269627574696f6e20656e64735361666545524332303a204552433230206f7065726174696f6e20646964206e6f74207375636365656445524332305374616b696e6752657761726473446973747269627574696f6e3a206e6f2066756e64696e67a264697066735822122023673f971c40cbe41fb702ecc8b23b89b5d63f6ed7a6a6525625a9673012a6eb64736f6c634300060c0033",
  "immutableReferences": {},
  "source": "// SPDX-License-Identifier: GPL-3.0\n\npragma solidity ^0.6.12;\n\nimport \"@openzeppelin/contracts/math/SafeMath.sol\";\nimport \"@openzeppelin/contracts/math/Math.sol\";\nimport \"@openzeppelin/contracts/token/ERC20/ERC20.sol\";\nimport \"@openzeppelin/contracts/token/ERC20/SafeERC20.sol\";\nimport \"@openzeppelin/contracts/access/Ownable.sol\";\n\ncontract ERC20StakingRewardsDistribution is Ownable {\n    using SafeMath for uint256;\n    using SafeMath for uint64;\n    using SafeERC20 for ERC20;\n\n    uint224 constant MULTIPLIER = 2**112;\n\n    ERC20[] public rewardTokens;\n    ERC20 public stakableToken;\n    mapping(address => uint256) public rewardAmount;\n    mapping(address => uint256) public stakedTokenAmount;\n    uint256 public totalStakedTokensAmount;\n    mapping(address => uint256) public rewardPerStakedToken;\n    uint64 public startingTimestamp;\n    uint64 public endingTimestamp;\n    uint64 public secondsDuration;\n    bool public locked;\n    bool public initialized;\n    uint64 public lastConsolidationTimestamp;\n    mapping(address => uint256) public recoverableUnassignedReward;\n    mapping(address => uint256) public totalClaimedRewards;\n\n    mapping(address => uint256) public stakedTokensOf;\n    mapping(address => mapping(address => uint256))\n        public consolidatedRewardsPerStakedToken;\n    mapping(address => mapping(address => uint256)) public earnedRewards;\n    mapping(address => mapping(address => uint256)) public claimedReward;\n\n    event Initialized(\n        address[] rewardsTokenAddresses,\n        address stakableTokenAddress,\n        uint256[] rewardsAmounts,\n        uint64 startingTimestamp,\n        uint64 endingTimestamp,\n        bool locked\n    );\n    event Canceled();\n    event Staked(address indexed staker, uint256 amount);\n    event Withdrawn(address indexed withdrawer, uint256 amount);\n    event Claimed(address indexed claimer, uint256[] amounts);\n    event Recovered(uint256[] amounts);\n\n    function getRewardTokens() external view returns (ERC20[] memory) {\n        return rewardTokens;\n    }\n\n    function initialize(\n        address[] calldata _rewardTokenAddresses,\n        address _stakableTokenAddress,\n        uint256[] calldata _rewardAmounts,\n        uint64 _startingTimestamp,\n        uint64 _endingTimestamp,\n        bool _locked\n    ) external onlyOwner onlyUninitialized {\n        require(\n            _startingTimestamp > block.timestamp,\n            \"ERC20StakingRewardsDistribution: invalid starting timestamp\"\n        );\n        require(\n            _endingTimestamp > _startingTimestamp,\n            \"ERC20StakingRewardsDistribution: invalid time duration\"\n        );\n        require(\n            _rewardTokenAddresses.length == _rewardAmounts.length,\n            \"ERC20StakingRewardsDistribution: inconsistent reward token/amount\"\n        );\n\n        secondsDuration = _endingTimestamp - _startingTimestamp;\n        // Initializing reward tokens and amounts\n        for (uint32 _i = 0; _i < _rewardTokenAddresses.length; _i++) {\n            address _rewardTokenAddress = _rewardTokenAddresses[_i];\n            uint256 _rewardAmount = _rewardAmounts[_i];\n            require(\n                _rewardTokenAddress != address(0),\n                \"ERC20StakingRewardsDistribution: 0 address as reward token\"\n            );\n            require(\n                _rewardAmount > 0,\n                \"ERC20StakingRewardsDistribution: no reward\"\n            );\n            ERC20 _rewardToken = ERC20(_rewardTokenAddress);\n            require(\n                _rewardToken.balanceOf(address(this)) >= _rewardAmount,\n                \"ERC20StakingRewardsDistribution: no funding\"\n            );\n            rewardTokens.push(_rewardToken);\n            rewardAmount[_rewardTokenAddress] = _rewardAmount;\n        }\n\n        require(\n            _stakableTokenAddress != address(0),\n            \"ERC20StakingRewardsDistribution: 0 address as stakable token\"\n        );\n        stakableToken = ERC20(_stakableTokenAddress);\n\n        startingTimestamp = _startingTimestamp;\n        endingTimestamp = _endingTimestamp;\n        lastConsolidationTimestamp = _startingTimestamp;\n        locked = _locked;\n\n        initialized = true;\n        emit Initialized(\n            _rewardTokenAddresses,\n            _stakableTokenAddress,\n            _rewardAmounts,\n            _startingTimestamp,\n            _endingTimestamp,\n            _locked\n        );\n    }\n\n    function cancel() external onlyInitialized onlyOwner {\n        require(\n            block.timestamp < startingTimestamp,\n            \"ERC20StakingRewardsDistribution: distribution already started\"\n        );\n        // resetting reward information (both tokens and amounts)\n        for (uint256 _i; _i < rewardTokens.length; _i++) {\n            ERC20 _rewardToken = rewardTokens[_i];\n            delete rewardAmount[address(_rewardToken)];\n            _rewardToken.safeTransfer(\n                owner(),\n                _rewardToken.balanceOf(address(this))\n            );\n        }\n        delete rewardTokens;\n        delete stakableToken;\n        startingTimestamp = 0;\n        endingTimestamp = 0;\n        lastConsolidationTimestamp = 0;\n        initialized = false;\n        locked = false;\n        emit Canceled();\n    }\n\n    function recoverUnassignedRewards() external onlyInitialized onlyStarted {\n        consolidateReward();\n        uint256 _numberOfRewardsTokens = rewardTokens.length;\n        uint256[] memory _recoveredUnassignedRewards =\n            new uint256[](_numberOfRewardsTokens);\n        for (uint256 _i; _i < _numberOfRewardsTokens; _i++) {\n            ERC20 _relatedRewardToken = rewardTokens[_i];\n            address _relatedRewardTokenAddress = address(_relatedRewardToken);\n            // recoverable rewards are going to be recovered in this tx (if it does not revert),\n            // so we add them to the claimed rewards right now\n            totalClaimedRewards[\n                _relatedRewardTokenAddress\n            ] = totalClaimedRewards[_relatedRewardTokenAddress].add(\n                recoverableUnassignedReward[_relatedRewardTokenAddress]\n            );\n            uint256 _requiredFunding =\n                rewardAmount[_relatedRewardTokenAddress].sub(\n                    totalClaimedRewards[_relatedRewardTokenAddress]\n                );\n            delete recoverableUnassignedReward[_relatedRewardTokenAddress];\n            uint256 _recoverableRewards =\n                _relatedRewardToken.balanceOf(address(this)).sub(\n                    _requiredFunding\n                );\n            _recoveredUnassignedRewards[_i] = _recoverableRewards;\n            _relatedRewardToken.safeTransfer(owner(), _recoverableRewards);\n        }\n        emit Recovered(_recoveredUnassignedRewards);\n    }\n\n    function stake(uint256 _amount)\n        external\n        onlyInitialized\n        onlyStarted\n        onlyRunning\n    {\n        require(\n            _amount > 0,\n            \"ERC20StakingRewardsDistribution: tried to stake nothing\"\n        );\n        consolidateReward();\n        stakedTokensOf[msg.sender] = stakedTokensOf[msg.sender].add(_amount);\n        totalStakedTokensAmount = totalStakedTokensAmount.add(_amount);\n        stakableToken.safeTransferFrom(msg.sender, address(this), _amount);\n        emit Staked(msg.sender, _amount);\n    }\n\n    function withdraw(uint256 _amount) external onlyInitialized onlyStarted {\n        require(\n            _amount > 0,\n            \"ERC20StakingRewardsDistribution: tried to withdraw nothing\"\n        );\n        if (locked) {\n            require(\n                block.timestamp > endingTimestamp,\n                \"ERC20StakingRewardsDistribution: funds locked until the distribution ends\"\n            );\n        }\n        consolidateReward();\n        require(\n            _amount <= stakedTokensOf[msg.sender],\n            \"ERC20StakingRewardsDistribution: withdrawn amount greater than current stake\"\n        );\n        stakedTokensOf[msg.sender] = stakedTokensOf[msg.sender].sub(_amount);\n        totalStakedTokensAmount = totalStakedTokensAmount.sub(_amount);\n        stakableToken.safeTransfer(msg.sender, _amount);\n        emit Withdrawn(msg.sender, _amount);\n    }\n\n    function claim(uint256[] memory _amounts, address _recipient)\n        external\n        onlyInitialized\n        onlyStarted\n    {\n        require(\n            _amounts.length == rewardTokens.length,\n            \"ERC20StakingRewardsDistribution: inconsistent claimed amounts\"\n        );\n        consolidateReward();\n        uint256[] memory _claimedRewards = new uint256[](rewardTokens.length);\n        for (uint256 _i; _i < rewardTokens.length; _i++) {\n            ERC20 _relatedRewardToken = rewardTokens[_i];\n            address _relatedRewardTokenAddress = address(_relatedRewardToken);\n            uint256 _claimableReward =\n                earnedRewards[msg.sender][_relatedRewardTokenAddress].sub(\n                    claimedReward[msg.sender][_relatedRewardTokenAddress]\n                );\n            uint256 _wantedAmount = _amounts[_i];\n            require(\n                _claimableReward >= _wantedAmount,\n                \"ERC20StakingRewardsDistribution: insufficient claimable amount\"\n            );\n            consolidateAndTransferClaim(\n                _relatedRewardToken,\n                _wantedAmount,\n                _recipient\n            );\n            _claimedRewards[_i] = _wantedAmount;\n        }\n        emit Claimed(msg.sender, _claimedRewards);\n    }\n\n    function claimAll(address _recipient) external onlyInitialized onlyStarted {\n        consolidateReward();\n        uint256[] memory _claimedRewards = new uint256[](rewardTokens.length);\n        for (uint256 _i; _i < rewardTokens.length; _i++) {\n            ERC20 _relatedRewardToken = rewardTokens[_i];\n            address _relatedRewardTokenAddress = address(_relatedRewardToken);\n            uint256 _claimableReward =\n                earnedRewards[msg.sender][_relatedRewardTokenAddress].sub(\n                    claimedReward[msg.sender][_relatedRewardTokenAddress]\n                );\n            consolidateAndTransferClaim(\n                _relatedRewardToken,\n                _claimableReward,\n                _recipient\n            );\n            _claimedRewards[_i] = _claimableReward;\n        }\n        emit Claimed(msg.sender, _claimedRewards);\n    }\n\n    function consolidateAndTransferClaim(\n        ERC20 _rewardToken,\n        uint256 _amount,\n        address _recipient\n    ) private {\n        claimedReward[msg.sender][address(_rewardToken)] = claimedReward[\n            msg.sender\n        ][address(_rewardToken)]\n            .add(_amount);\n        totalClaimedRewards[address(_rewardToken)] = totalClaimedRewards[\n            address(_rewardToken)\n        ]\n            .add(_amount);\n        _rewardToken.safeTransfer(_recipient, _amount);\n    }\n\n    function consolidateReward() public onlyInitialized onlyStarted {\n        uint64 _consolidationTimestamp =\n            uint64(Math.min(block.timestamp, endingTimestamp));\n        uint256 _lastPeriodDuration =\n            uint256(_consolidationTimestamp.sub(lastConsolidationTimestamp));\n        for (uint256 _i; _i < rewardTokens.length; _i++) {\n            address _relatedRewardTokenAddress = address(rewardTokens[_i]);\n            if (totalStakedTokensAmount == 0) {\n                // If the current staked tokens amount is zero, there have been unassigned rewards in the last period.\n                // We add these unassigned rewards to the amount that can be claimed back by the contract's owner.\n                recoverableUnassignedReward[\n                    _relatedRewardTokenAddress\n                ] = recoverableUnassignedReward[_relatedRewardTokenAddress].add(\n                    _lastPeriodDuration\n                        .mul(rewardAmount[_relatedRewardTokenAddress])\n                        .div(secondsDuration)\n                );\n                rewardPerStakedToken[_relatedRewardTokenAddress] = 0;\n            } else {\n                rewardPerStakedToken[\n                    _relatedRewardTokenAddress\n                ] = rewardPerStakedToken[_relatedRewardTokenAddress].add(\n                    _lastPeriodDuration\n                        .mul(rewardAmount[_relatedRewardTokenAddress])\n                        .mul(MULTIPLIER)\n                        .div(totalStakedTokensAmount.mul(secondsDuration))\n                );\n            }\n            // avoids subtraction underflow. If the rewards per staked tokens are 0,\n            // the rewards in current period must be 0 by definition, no need to\n            // perform subtraction risking underflow.\n            uint256 _rewardInCurrentPeriod =\n                rewardPerStakedToken[_relatedRewardTokenAddress] > 0\n                    ? stakedTokensOf[msg.sender]\n                        .mul(\n                        rewardPerStakedToken[_relatedRewardTokenAddress].sub(\n                            consolidatedRewardsPerStakedToken[msg.sender][\n                                _relatedRewardTokenAddress\n                            ]\n                        )\n                    )\n                        .div(MULTIPLIER)\n                    : 0;\n            earnedRewards[msg.sender][\n                _relatedRewardTokenAddress\n            ] = earnedRewards[msg.sender][_relatedRewardTokenAddress].add(\n                _rewardInCurrentPeriod\n            );\n            consolidatedRewardsPerStakedToken[msg.sender][\n                _relatedRewardTokenAddress\n            ] = rewardPerStakedToken[_relatedRewardTokenAddress];\n        }\n        lastConsolidationTimestamp = _consolidationTimestamp;\n    }\n\n    modifier onlyUninitialized() {\n        require(\n            !initialized,\n            \"ERC20StakingRewardsDistribution: already initialized\"\n        );\n        _;\n    }\n\n    modifier onlyInitialized() {\n        require(\n            initialized,\n            \"ERC20StakingRewardsDistribution: not initialized\"\n        );\n        _;\n    }\n\n    modifier onlyStarted() {\n        require(\n            initialized && block.timestamp >= startingTimestamp,\n            \"ERC20StakingRewardsDistribution: not started\"\n        );\n        _;\n    }\n\n    modifier onlyRunning() {\n        require(\n            initialized && block.timestamp <= endingTimestamp,\n            \"ERC20StakingRewardsDistribution: already ended\"\n        );\n        _;\n    }\n}\n",
  "sourcePath": "/home/luzzif/Projects/swapr-lp-staker/contracts/ERC20StakingRewardsDistribution.sol",
  "compiler": {
    "name": "solc",
    "version": "0.6.12+commit.27d51765.Emscripten.clang"
  },
  "schemaVersion": "3.3.3",
  "updatedAt": "2021-02-18T14:21:14.228Z",
  "devdoc": {
    "kind": "dev",
    "methods": {
      "owner()": {
        "details": "Returns the address of the current owner."
      },
      "renounceOwnership()": {
        "details": "Leaves the contract without owner. It will not be possible to call `onlyOwner` functions anymore. Can only be called by the current owner. NOTE: Renouncing ownership will leave the contract without an owner, thereby removing any functionality that is only available to the owner."
      },
      "transferOwnership(address)": {
        "details": "Transfers ownership of the contract to a new account (`newOwner`). Can only be called by the current owner."
      }
    },
    "version": 1
  },
  "userdoc": {
    "kind": "user",
    "methods": {},
    "version": 1
  }
}