{
  "contractName": "ERC20StakingRewardsDistributionFactory",
  "abi": [
    {
      "inputs": [
        {
          "internalType": "address",
          "name": "_implementation",
          "type": "address"
        }
      ],
      "stateMutability": "nonpayable",
      "type": "constructor"
    },
    {
      "anonymous": false,
      "inputs": [
        {
          "indexed": false,
          "internalType": "address",
          "name": "owner",
          "type": "address"
        },
        {
          "indexed": false,
          "internalType": "address",
          "name": "deployedAt",
          "type": "address"
        }
      ],
      "name": "DistributionCreated",
      "type": "event"
    },
    {
      "anonymous": false,
      "inputs": [
        {
          "indexed": true,
          "internalType": "address",
          "name": "previousOwner",
          "type": "address"
        },
        {
          "indexed": true,
          "internalType": "address",
          "name": "newOwner",
          "type": "address"
        }
      ],
      "name": "OwnershipTransferred",
      "type": "event"
    },
    {
      "anonymous": false,
      "inputs": [
        {
          "indexed": true,
          "internalType": "address",
          "name": "implementation",
          "type": "address"
        }
      ],
      "name": "Upgraded",
      "type": "event"
    },
    {
      "inputs": [
        {
          "internalType": "uint256",
          "name": "",
          "type": "uint256"
        }
      ],
      "name": "distributions",
      "outputs": [
        {
          "internalType": "contract IERC20StakingRewardsDistribution",
          "name": "",
          "type": "address"
        }
      ],
      "stateMutability": "view",
      "type": "function"
    },
    {
      "inputs": [],
      "name": "implementation",
      "outputs": [
        {
          "internalType": "address",
          "name": "",
          "type": "address"
        }
      ],
      "stateMutability": "view",
      "type": "function"
    },
    {
      "inputs": [],
      "name": "owner",
      "outputs": [
        {
          "internalType": "address",
          "name": "",
          "type": "address"
        }
      ],
      "stateMutability": "view",
      "type": "function"
    },
    {
      "inputs": [],
      "name": "renounceOwnership",
      "outputs": [],
      "stateMutability": "nonpayable",
      "type": "function"
    },
    {
      "inputs": [
        {
          "internalType": "address",
          "name": "newOwner",
          "type": "address"
        }
      ],
      "name": "transferOwnership",
      "outputs": [],
      "stateMutability": "nonpayable",
      "type": "function"
    },
    {
      "inputs": [
        {
          "internalType": "address",
          "name": "newImplementation",
          "type": "address"
        }
      ],
      "name": "upgradeTo",
      "outputs": [],
      "stateMutability": "nonpayable",
      "type": "function"
    },
    {
      "inputs": [
        {
          "internalType": "address[]",
          "name": "_rewardTokenAddresses",
          "type": "address[]"
        },
        {
          "internalType": "address",
          "name": "_stakableTokenAddress",
          "type": "address"
        },
        {
          "internalType": "uint256[]",
          "name": "_rewardAmounts",
          "type": "uint256[]"
        },
        {
          "internalType": "uint64",
          "name": "_startingTimestamp",
          "type": "uint64"
        },
        {
          "internalType": "uint64",
          "name": "_endingTimestamp",
          "type": "uint64"
        },
        {
          "internalType": "bool",
          "name": "_locked",
          "type": "bool"
        },
        {
          "internalType": "uint256",
          "name": "_stakingCap",
          "type": "uint256"
        }
      ],
      "name": "createDistribution",
      "outputs": [],
      "stateMutability": "nonpayable",
      "type": "function"
    },
    {
      "inputs": [],
      "name": "getDistributionsAmount",
      "outputs": [
        {
          "internalType": "uint256",
          "name": "",
          "type": "uint256"
        }
      ],
      "stateMutability": "view",
      "type": "function"
    }
  ],
  "bytecode": "0x608060405234801561001057600080fd5b5060405161172e38038061172e83398101604081905261002f91610131565b600080546001600160a01b031916339081178255604051839282917f8be0079c531659141344cd1fd0a4f28419497f9722a3daafe3b4186f6b6457e0908290a35061007981610080565b505061015f565b6100938161012b60201b6105af1760201c565b6101095760405162461bcd60e51b815260206004820152603360248201527f5570677261646561626c65426561636f6e3a20696d706c656d656e746174696f60448201527f6e206973206e6f74206120636f6e747261637400000000000000000000000000606482015260840160405180910390fd5b600180546001600160a01b0319166001600160a01b0392909216919091179055565b3b151590565b600060208284031215610142578081fd5b81516001600160a01b0381168114610158578182fd5b9392505050565b6115c08061016e6000396000f3fe60806040523480156200001157600080fd5b5060043610620000935760003560e01c8063715018a61162000062578063715018a6146200010e5780638da5cb5b1462000118578063d5eeaef7146200012a578063f2fde38b146200013c57600080fd5b80632c8908ff14620000985780633659cfe614620000b15780634487d3df14620000c85780635c60da1b14620000fc575b600080fd5b620000af620000a9366004620009bc565b62000153565b005b620000af620000c23660046200099f565b620003a6565b620000df620000d936600462000aa9565b6200041e565b6040516001600160a01b0390911681526020015b60405180910390f35b6001546001600160a01b0316620000df565b620000af62000449565b6000546001600160a01b0316620000df565b600254604051908152602001620000f3565b620000af6200014d3660046200099f565b620004c0565b6000306040518060200160405280600081525060405162000174906200090e565b6200018192919062000b43565b604051809103906000f0801580156200019e573d6000803e3d6000fd5b50905060005b8981101562000240576000888883818110620001d057634e487b7160e01b600052603260045260246000fd5b9050602002013590506200022a3384838f8f878181106200020157634e487b7160e01b600052603260045260246000fd5b90506020020160208101906200021891906200099f565b6001600160a01b0316929190620005b5565b5080620002378162000c92565b915050620001a4565b506040516311d1371b60e11b815281906001600160a01b038216906323a26e369062000281908e908e908e908e908e908e908e908e908e9060040162000b69565b600060405180830381600087803b1580156200029c57600080fd5b505af1158015620002b1573d6000803e3d6000fd5b505060405163f2fde38b60e01b81523360048201526001600160a01b038416925063f2fde38b9150602401600060405180830381600087803b158015620002f757600080fd5b505af11580156200030c573d6000803e3d6000fd5b5050600280546001810182556000919091527f405787fa12a823e0f2b7631cc41b3ba8828b3321ca811111fa75cd3aa3bb5ace0180546001600160a01b0319166001600160a01b0385169081179091556040805133815260208101929092527fc017437e795c074edadc242e8f0b868fb614ed8d2923b9a58cbc52799e8b9b27935001905060405180910390a15050505050505050505050565b6000546001600160a01b03163314620003dc5760405162461bcd60e51b8152600401620003d39062000c2e565b60405180910390fd5b620003e78162000617565b6040516001600160a01b038216907fbc7cd75a20ee27fd9adebab32041f755214dbc6bffa90cc0225b39da2e5c2d3b90600090a250565b600281815481106200042f57600080fd5b6000918252602090912001546001600160a01b0316905081565b6000546001600160a01b03163314620004765760405162461bcd60e51b8152600401620003d39062000c2e565b600080546040516001600160a01b03909116907f8be0079c531659141344cd1fd0a4f28419497f9722a3daafe3b4186f6b6457e0908390a3600080546001600160a01b0319169055565b6000546001600160a01b03163314620004ed5760405162461bcd60e51b8152600401620003d39062000c2e565b6001600160a01b038116620005545760405162461bcd60e51b815260206004820152602660248201527f4f776e61626c653a206e6577206f776e657220697320746865207a65726f206160448201526564647265737360d01b6064820152608401620003d3565b600080546040516001600160a01b03808516939216917f8be0079c531659141344cd1fd0a4f28419497f9722a3daafe3b4186f6b6457e091a3600080546001600160a01b0319166001600160a01b0392909216919091179055565b3b151590565b604080516001600160a01b0385811660248301528416604482015260648082018490528251808303909101815260849091019091526020810180516001600160e01b03166323b872dd60e01b17905262000611908590620006a5565b50505050565b803b620006835760405162461bcd60e51b815260206004820152603360248201527f5570677261646561626c65426561636f6e3a20696d706c656d656e746174696f6044820152721b881a5cc81b9bdd08184818dbdb9d1c9858dd606a1b6064820152608401620003d3565b600180546001600160a01b0319166001600160a01b0392909216919091179055565b6000620006fc826040518060400160405280602081526020017f5361666545524332303a206c6f772d6c6576656c2063616c6c206661696c6564815250856001600160a01b0316620007839092919063ffffffff16565b8051909150156200077e57808060200190518101906200071d919062000a8a565b6200077e5760405162461bcd60e51b815260206004820152602a60248201527f5361666545524332303a204552433230206f7065726174696f6e20646964206e6044820152691bdd081cdd58d8d9595960b21b6064820152608401620003d3565b505050565b60606200079484846000856200079e565b90505b9392505050565b606082471015620008015760405162461bcd60e51b815260206004820152602660248201527f416464726573733a20696e73756666696369656e742062616c616e636520666f6044820152651c8818d85b1b60d21b6064820152608401620003d3565b843b620008515760405162461bcd60e51b815260206004820152601d60248201527f416464726573733a2063616c6c20746f206e6f6e2d636f6e74726163740000006044820152606401620003d3565b600080866001600160a01b031685876040516200086f919062000b25565b60006040518083038185875af1925050503d8060008114620008ae576040519150601f19603f3d011682016040523d82523d6000602084013e620008b3565b606091505b5091509150620008c5828286620008d0565b979650505050505050565b60608315620008e157508162000797565b825115620008f25782518084602001fd5b8160405162461bcd60e51b8152600401620003d3919062000c19565b6108be8062000ccd83390190565b80356001600160a01b03811681146200093457600080fd5b919050565b60008083601f8401126200094b578182fd5b50813567ffffffffffffffff81111562000963578182fd5b6020830191508360208260051b85010111156200097f57600080fd5b9250929050565b803567ffffffffffffffff811681146200093457600080fd5b600060208284031215620009b1578081fd5b62000797826200091c565b600080600080600080600080600060e08a8c031215620009da578485fd5b893567ffffffffffffffff80821115620009f2578687fd5b62000a008d838e0162000939565b909b50995089915062000a1660208d016200091c565b985060408c013591508082111562000a2c578687fd5b5062000a3b8c828d0162000939565b909750955062000a50905060608b0162000986565b935062000a6060808b0162000986565b925060a08a013562000a728162000cba565b8092505060c08a013590509295985092959850929598565b60006020828403121562000a9c578081fd5b8151620007978162000cba565b60006020828403121562000abb578081fd5b5035919050565b81835260006001600160fb1b0383111562000adb578081fd5b8260051b80836020870137939093016020019283525090919050565b6000815180845262000b1181602086016020860162000c63565b601f01601f19169290920160200192915050565b6000825162000b3981846020870162000c63565b9190910192915050565b6001600160a01b0383168152604060208201819052600090620007949083018462000af7565b60e0808252810189905260008a6101008301825b8c81101562000baf576001600160a01b0362000b99846200091c565b1682526020928301929091019060010162000b7d565b506001600160a01b038b166020850152838103604085015262000bd4818a8c62000ac2565b9250505062000bef606083018767ffffffffffffffff169052565b67ffffffffffffffff94909416608082015291151560a083015260c0909101529695505050505050565b60208152600062000797602083018462000af7565b6020808252818101527f4f776e61626c653a2063616c6c6572206973206e6f7420746865206f776e6572604082015260600190565b60005b8381101562000c8057818101518382015260200162000c66565b83811115620006115750506000910152565b600060001982141562000cb357634e487b7160e01b81526011600452602481fd5b5060010190565b801515811462000cc957600080fd5b5056fe60806040526040516108be3803806108be8339810160408190526100229161041c565b61004d60017fa3f0ad74e5423aebfd80d3ef4346578335a9a72aeaee59ff6cb3582b35133d51610527565b60008051602061087d8339815191521461007757634e487b7160e01b600052600160045260246000fd5b6100818282610088565b505061058c565b61009b8261024360201b6100291760201c565b6100fa5760405162461bcd60e51b815260206004820152602560248201527f426561636f6e50726f78793a20626561636f6e206973206e6f74206120636f6e6044820152641d1c9858dd60da1b60648201526084015b60405180910390fd5b61017d826001600160a01b0316635c60da1b6040518163ffffffff1660e01b815260040160206040518083038186803b15801561013657600080fd5b505afa15801561014a573d6000803e3d6000fd5b505050506040513d601f19601f8201168201806040525081019061016e9190610402565b61024360201b6100291760201c565b6101ef5760405162461bcd60e51b815260206004820152603460248201527f426561636f6e50726f78793a20626561636f6e20696d706c656d656e7461746960448201527f6f6e206973206e6f74206120636f6e747261637400000000000000000000000060648201526084016100f1565b60008051602061087d83398151915282815581511561023e5761023c610213610249565b8360405180606001604052806021815260200161089d602191396102d660201b61002f1760201c565b505b505050565b3b151590565b600061026160008051602061087d8339815191525490565b6001600160a01b0316635c60da1b6040518163ffffffff1660e01b815260040160206040518083038186803b15801561029957600080fd5b505afa1580156102ad573d6000803e3d6000fd5b505050506040513d601f19601f820116820180604052508101906102d19190610402565b905090565b6060833b6103355760405162461bcd60e51b815260206004820152602660248201527f416464726573733a2064656c65676174652063616c6c20746f206e6f6e2d636f6044820152651b9d1c9858dd60d21b60648201526084016100f1565b600080856001600160a01b03168560405161035091906104d8565b600060405180830381855af49150503d806000811461038b576040519150601f19603f3d011682016040523d82523d6000602084013e610390565b606091505b5090925090506103a18282866103ad565b925050505b9392505050565b606083156103bc5750816103a6565b8251156103cc5782518084602001fd5b8160405162461bcd60e51b81526004016100f191906104f4565b80516001600160a01b03811681146103fd57600080fd5b919050565b600060208284031215610413578081fd5b6103a6826103e6565b6000806040838503121561042e578081fd5b610437836103e6565b60208401519092506001600160401b0380821115610453578283fd5b818501915085601f830112610466578283fd5b81518181111561047857610478610576565b604051601f8201601f19908116603f011681019083821181831017156104a0576104a0610576565b816040528281528860208487010111156104b8578586fd5b6104c983602083016020880161054a565b80955050505050509250929050565b600082516104ea81846020870161054a565b9190910192915050565b602081526000825180602084015261051381604085016020870161054a565b601f01601f19169190910160400192915050565b60008282101561054557634e487b7160e01b81526011600452602481fd5b500390565b60005b8381101561056557818101518382015260200161054d565b8381111561023c5750506000910152565b634e487b7160e01b600052604160045260246000fd5b6102e28061059b6000396000f3fe60806040523661001357610011610017565b005b6100115b61002761002261010a565b6101a9565b565b3b151590565b6060833b6100935760405162461bcd60e51b815260206004820152602660248201527f416464726573733a2064656c65676174652063616c6c20746f206e6f6e2d636f6044820152651b9d1c9858dd60d21b60648201526084015b60405180910390fd5b600080856001600160a01b0316856040516100ae919061022d565b600060405180830381855af49150503d80600081146100e9576040519150601f19603f3d011682016040523d82523d6000602084013e6100ee565b606091505b50915091506100fe8282866101cd565b925050505b9392505050565b60006101347fa3f0ad74e5423aebfd80d3ef4346578335a9a72aeaee59ff6cb3582b35133d505490565b6001600160a01b0316635c60da1b6040518163ffffffff1660e01b815260040160206040518083038186803b15801561016c57600080fd5b505afa158015610180573d6000803e3d6000fd5b505050506040513d601f19601f820116820180604052508101906101a49190610206565b905090565b3660008037600080366000845af43d6000803e8080156101c8573d6000f35b3d6000fd5b606083156101dc575081610103565b8251156101ec5782518084602001fd5b8160405162461bcd60e51b815260040161008a9190610249565b600060208284031215610217578081fd5b81516001600160a01b0381168114610103578182fd5b6000825161023f81846020870161027c565b9190910192915050565b602081526000825180602084015261026881604085016020870161027c565b601f01601f19169190910160400192915050565b60005b8381101561029757818101518382015260200161027f565b838111156102a6576000848401525b5050505056fea2646970667358221220e49be29ca3b71f51ad2e6f0190a42e67c2bc47919d128a435d80defb2f15053d64736f6c63430008040033a3f0ad74e5423aebfd80d3ef4346578335a9a72aeaee59ff6cb3582b35133d50426561636f6e50726f78793a2066756e6374696f6e2063616c6c206661696c6564a264697066735822122089d802603375bd1bc285264e43f24dba33483b9b51d4257eca4b6ab9a21c118064736f6c63430008040033",
  "immutableReferences": {},
  "source": "// SPDX-License-Identifier: GPL-3.0\n\npragma solidity ^0.8.4;\n\nimport \"@openzeppelin/contracts/token/ERC20/IERC20.sol\";\nimport \"@openzeppelin/contracts/token/ERC20/utils/SafeERC20.sol\";\nimport \"@openzeppelin/contracts/proxy/beacon/UpgradeableBeacon.sol\";\nimport \"@openzeppelin/contracts/proxy/beacon/BeaconProxy.sol\";\nimport \"./interfaces/IERC20StakingRewardsDistribution.sol\";\n\ncontract ERC20StakingRewardsDistributionFactory is UpgradeableBeacon {\n    using SafeERC20 for IERC20;\n\n    IERC20StakingRewardsDistribution[] public distributions;\n\n    event DistributionCreated(address owner, address deployedAt);\n\n    constructor(address _implementation) UpgradeableBeacon(_implementation) {}\n\n    function createDistribution(\n        address[] calldata _rewardTokenAddresses,\n        address _stakableTokenAddress,\n        uint256[] calldata _rewardAmounts,\n        uint64 _startingTimestamp,\n        uint64 _endingTimestamp,\n        bool _locked,\n        uint256 _stakingCap\n    ) public virtual {\n        BeaconProxy _distributionProxy =\n            new BeaconProxy(address(this), bytes(\"\"));\n        for (uint256 _i; _i < _rewardTokenAddresses.length; _i++) {\n            uint256 _relatedAmount = _rewardAmounts[_i];\n            IERC20(_rewardTokenAddresses[_i]).safeTransferFrom(\n                msg.sender,\n                address(_distributionProxy),\n                _relatedAmount\n            );\n        }\n        IERC20StakingRewardsDistribution _distribution =\n            IERC20StakingRewardsDistribution(address(_distributionProxy));\n        _distribution.initialize(\n            _rewardTokenAddresses,\n            _stakableTokenAddress,\n            _rewardAmounts,\n            _startingTimestamp,\n            _endingTimestamp,\n            _locked,\n            _stakingCap\n        );\n        _distribution.transferOwnership(msg.sender);\n        distributions.push(_distribution);\n        emit DistributionCreated(msg.sender, address(_distribution));\n    }\n\n    function getDistributionsAmount() external view returns (uint256) {\n        return distributions.length;\n    }\n}\n",
  "sourcePath": "/home/luzzif/Projects/swapr-lp-staker/contracts/ERC20StakingRewardsDistributionFactory.sol",
  "compiler": {
    "name": "solc",
    "version": "0.8.4+commit.c7e474f2.Emscripten.clang"
  },
  "schemaVersion": "3.3.3",
  "updatedAt": "2021-05-04T10:15:57.776Z",
  "devdoc": {
    "kind": "dev",
    "methods": {
      "implementation()": {
        "details": "Returns the current implementation address."
      },
      "owner()": {
        "details": "Returns the address of the current owner."
      },
      "renounceOwnership()": {
        "details": "Leaves the contract without owner. It will not be possible to call `onlyOwner` functions anymore. Can only be called by the current owner. NOTE: Renouncing ownership will leave the contract without an owner, thereby removing any functionality that is only available to the owner."
      },
      "transferOwnership(address)": {
        "details": "Transfers ownership of the contract to a new account (`newOwner`). Can only be called by the current owner."
      },
      "upgradeTo(address)": {
        "details": "Upgrades the beacon to a new implementation. Emits an {Upgraded} event. Requirements: - msg.sender must be the owner of the contract. - `newImplementation` must be a contract."
      }
    },
    "version": 1
  },
  "userdoc": {
    "kind": "user",
    "methods": {},
    "version": 1
  }
}