{
  "contractName": "ERC20StakingRewardsDistributionFactory",
  "abi": [
    {
      "anonymous": false,
      "inputs": [
        {
          "indexed": false,
          "internalType": "address",
          "name": "owner",
          "type": "address"
        },
        {
          "indexed": false,
          "internalType": "address",
          "name": "deployedAt",
          "type": "address"
        }
      ],
      "name": "DistributionCreated",
      "type": "event"
    },
    {
      "anonymous": false,
      "inputs": [
        {
          "indexed": true,
          "internalType": "address",
          "name": "previousOwner",
          "type": "address"
        },
        {
          "indexed": true,
          "internalType": "address",
          "name": "newOwner",
          "type": "address"
        }
      ],
      "name": "OwnershipTransferred",
      "type": "event"
    },
    {
      "inputs": [
        {
          "internalType": "uint256",
          "name": "",
          "type": "uint256"
        }
      ],
      "name": "distributions",
      "outputs": [
        {
          "internalType": "contract ERC20StakingRewardsDistribution",
          "name": "",
          "type": "address"
        }
      ],
      "stateMutability": "view",
      "type": "function"
    },
    {
      "inputs": [],
      "name": "owner",
      "outputs": [
        {
          "internalType": "address",
          "name": "",
          "type": "address"
        }
      ],
      "stateMutability": "view",
      "type": "function"
    },
    {
      "inputs": [],
      "name": "renounceOwnership",
      "outputs": [],
      "stateMutability": "nonpayable",
      "type": "function"
    },
    {
      "inputs": [
        {
          "internalType": "address",
          "name": "newOwner",
          "type": "address"
        }
      ],
      "name": "transferOwnership",
      "outputs": [],
      "stateMutability": "nonpayable",
      "type": "function"
    },
    {
      "inputs": [
        {
          "internalType": "address[]",
          "name": "_rewardTokenAddresses",
          "type": "address[]"
        },
        {
          "internalType": "address",
          "name": "_stakableTokenAddress",
          "type": "address"
        },
        {
          "internalType": "uint256[]",
          "name": "_rewardAmounts",
          "type": "uint256[]"
        },
        {
          "internalType": "uint64",
          "name": "_startingTimestamp",
          "type": "uint64"
        },
        {
          "internalType": "uint64",
          "name": "_endingTimestmp",
          "type": "uint64"
        },
        {
          "internalType": "bool",
          "name": "_locked",
          "type": "bool"
        }
      ],
      "name": "createDistribution",
      "outputs": [],
      "stateMutability": "nonpayable",
      "type": "function"
    },
    {
      "inputs": [],
      "name": "getDistributionsAmount",
      "outputs": [
        {
          "internalType": "uint256",
          "name": "",
          "type": "uint256"
        }
      ],
      "stateMutability": "view",
      "type": "function"
    }
  ],
  "bytecode": "0x608060405234801561001057600080fd5b50600061001b61006a565b600080546001600160a01b0319166001600160a01b0383169081178255604051929350917f8be0079c531659141344cd1fd0a4f28419497f9722a3daafe3b4186f6b6457e0908290a35061006e565b3390565b613aaf8061007d6000396000f3fe608060405234801561001057600080fd5b50600436106100625760003560e01c80634487d3df14610067578063484a5eaa146100a0578063715018a61461018d5780638da5cb5b14610195578063d5eeaef71461019d578063f2fde38b146101b7575b600080fd5b6100846004803603602081101561007d57600080fd5b50356101dd565b604080516001600160a01b039092168252519081900360200190f35b61018b600480360360c08110156100b657600080fd5b8101906020810181356401000000008111156100d157600080fd5b8201836020820111156100e357600080fd5b8035906020019184602083028401116401000000008311171561010557600080fd5b919390926001600160a01b038335169260408101906020013564010000000081111561013057600080fd5b82018360208201111561014257600080fd5b8035906020019184602083028401116401000000008311171561016457600080fd5b919350915067ffffffffffffffff8135811691602081013590911690604001351515610204565b005b61018b610485565b610084610539565b6101a5610548565b60408051918252519081900360200190f35b61018b600480360360208110156101cd57600080fd5b50356001600160a01b031661054e565b600181815481106101ea57fe5b6000918252602090912001546001600160a01b0316905081565b600060405161021290610991565b604051809103906000f08015801561022e573d6000803e3d6000fd5b50905060005b8881101561029757600087878381811061024a57fe5b90506020020135905061028e3384838e8e8781811061026557fe5b905060200201356001600160a01b03166001600160a01b0316610658909392919063ffffffff16565b50600101610234565b50806001600160a01b031663c03e72958a8a8a8a8a8a8a8a6040518963ffffffff1660e01b81526004018080602001886001600160a01b03168152602001806020018667ffffffffffffffff1681526020018567ffffffffffffffff168152602001841515815260200183810383528b8b82818152602001925060200280828437600083820152601f01601f19169091018481038352888152602090810191508990890280828437600081840152601f19601f8201169050808301925050509a5050505050505050505050600060405180830381600087803b15801561037c57600080fd5b505af1158015610390573d6000803e3d6000fd5b50506040805163f2fde38b60e01b815233600482015290516001600160a01b038516935063f2fde38b9250602480830192600092919082900301818387803b1580156103db57600080fd5b505af11580156103ef573d6000803e3d6000fd5b50506001805480820182556000919091527fb10e2d527612073b26eecdfd717e6a320cf44b4afac2b0732d9fcbe2b7fa0cf60180546001600160a01b0319166001600160a01b03851690811790915560408051338152602081019290925280517fc017437e795c074edadc242e8f0b868fb614ed8d2923b9a58cbc52799e8b9b27945091829003019150a1505050505050505050565b61048d6106b8565b6000546001600160a01b039081169116146104ef576040805162461bcd60e51b815260206004820181905260248201527f4f776e61626c653a2063616c6c6572206973206e6f7420746865206f776e6572604482015290519081900360640190fd5b600080546040516001600160a01b03909116907f8be0079c531659141344cd1fd0a4f28419497f9722a3daafe3b4186f6b6457e0908390a3600080546001600160a01b0319169055565b6000546001600160a01b031690565b60015490565b6105566106b8565b6000546001600160a01b039081169116146105b8576040805162461bcd60e51b815260206004820181905260248201527f4f776e61626c653a2063616c6c6572206973206e6f7420746865206f776e6572604482015290519081900360640190fd5b6001600160a01b0381166105fd5760405162461bcd60e51b8152600401808060200182810382526026815260200180613a046026913960400191505060405180910390fd5b600080546040516001600160a01b03808516939216917f8be0079c531659141344cd1fd0a4f28419497f9722a3daafe3b4186f6b6457e091a3600080546001600160a01b0319166001600160a01b0392909216919091179055565b604080516001600160a01b0380861660248301528416604482015260648082018490528251808303909101815260849091019091526020810180516001600160e01b03166323b872dd60e01b1790526106b29085906106bc565b50505050565b3390565b6060610711826040518060400160405280602081526020017f5361666545524332303a206c6f772d6c6576656c2063616c6c206661696c6564815250856001600160a01b03166107729092919063ffffffff16565b80519091501561076d5780806020019051602081101561073057600080fd5b505161076d5760405162461bcd60e51b815260040180806020018281038252602a815260200180613a50602a913960400191505060405180910390fd5b505050565b6060610781848460008561078b565b90505b9392505050565b6060824710156107cc5760405162461bcd60e51b8152600401808060200182810382526026815260200180613a2a6026913960400191505060405180910390fd5b6107d5856108e7565b610826576040805162461bcd60e51b815260206004820152601d60248201527f416464726573733a2063616c6c20746f206e6f6e2d636f6e7472616374000000604482015290519081900360640190fd5b60006060866001600160a01b031685876040518082805190602001908083835b602083106108655780518252601f199092019160209182019101610846565b6001836020036101000a03801982511681845116808217855250505050505090500191505060006040518083038185875af1925050503d80600081146108c7576040519150601f19603f3d011682016040523d82523d6000602084013e6108cc565b606091505b50915091506108dc8282866108ed565b979650505050505050565b3b151590565b606083156108fc575081610784565b82511561090c5782518084602001fd5b8160405162461bcd60e51b81526004018080602001828103825283818151815260200191508051906020019080838360005b8381101561095657818101518382015260200161093e565b50505050905090810190601f1680156109835780820380516001836020036101000a031916815260200191505b509250505060405180910390fd5b6130658061099f8339019056fe608060405234801561001057600080fd5b50600061001b61006a565b600080546001600160a01b0319166001600160a01b0383169081178255604051929350917f8be0079c531659141344cd1fd0a4f28419497f9722a3daafe3b4186f6b6457e0908290a35061006e565b3390565b612fe7806200007e6000396000f3fe608060405234801561001057600080fd5b50600436106101f05760003560e01c80638da5cb5b1161010f578063c10de300116100a2578063e644067d11610071578063e644067d146106ae578063e66d85be146106b6578063ea8a1af0146106dc578063f2fde38b146106e4576101f0565b8063c10de30014610670578063c4f59f9b14610678578063cf30901214610680578063dc01f60d14610688576101f0565b8063ab08d4fc116100de578063ab08d4fc146104e2578063b41fa97914610508578063b9e35db014610510578063c03e729514610586576101f0565b80638da5cb5b1461047157806398f8123014610479578063a110b93f1461049f578063a694fc3a146104c5576101f0565b80636715dcb81161018757806377329f351161015657806377329f35146103785780637bb7bed11461039e57806388786272146103bb5780638c574b48146103c3576101f0565b80636715dcb81461030c578063715018a614610314578063728e4a671461031c57806375b8dbf81461034a576101f0565b80633b34ee50116101c35780633b34ee50146102945780635e5294b7146102ba5780635fa35023146102de578063645a8a56146102e6576101f0565b8063158ef93e146101f55780631c96c3fb146102115780632e1a7d4d1461023557806334380a6114610254575b600080fd5b6101fd61070a565b604080519115158252519081900360200190f35b61021961071a565b604080516001600160a01b039092168252519081900360200190f35b6102526004803603602081101561024b57600080fd5b5035610729565b005b6102826004803603604081101561026a57600080fd5b506001600160a01b0381358116916020013516610951565b60408051918252519081900360200190f35b610282600480360360208110156102aa57600080fd5b50356001600160a01b031661096e565b6102c2610980565b604080516001600160401b039092168252519081900360200190f35b6102c2610996565b610282600480360360208110156102fc57600080fd5b50356001600160a01b03166109ac565b6102526109be565b610252610d31565b6102826004803603604081101561033257600080fd5b506001600160a01b0381358116916020013516610dd3565b6102826004803603604081101561036057600080fd5b506001600160a01b0381358116916020013516610df0565b6102526004803603602081101561038e57600080fd5b50356001600160a01b0316610e0d565b610219600480360360208110156103b457600080fd5b503561101d565b6102c2611044565b610252600480360360408110156103d957600080fd5b8101906020810181356401000000008111156103f457600080fd5b82018360208201111561040657600080fd5b8035906020019184602083028401116401000000008311171561042857600080fd5b919080806020026020016040519081016040528093929190818152602001838360200280828437600092019190915250929550505090356001600160a01b031691506110539050565b610219611301565b6102826004803603602081101561048f57600080fd5b50356001600160a01b0316611310565b610282600480360360208110156104b557600080fd5b50356001600160a01b0316611322565b610252600480360360208110156104db57600080fd5b5035611334565b610282600480360360208110156104f857600080fd5b50356001600160a01b0316611513565b610282611525565b6105366004803603602081101561052657600080fd5b50356001600160a01b031661152b565b60408051602080825283518183015283519192839290830191858101910280838360005b8381101561057257818101518382015260200161055a565b505050509050019250505060405180910390f35b610252600480360360c081101561059c57600080fd5b8101906020810181356401000000008111156105b757600080fd5b8201836020820111156105c957600080fd5b803590602001918460208302840111640100000000831117156105eb57600080fd5b919390926001600160a01b038335169260408101906020013564010000000081111561061657600080fd5b82018360208201111561062857600080fd5b8035906020019184602083028401116401000000008311171561064a57600080fd5b91935091506001600160401b0381358116916020810135909116906040013515156115f8565b6102c2611b23565b610536611b32565b6101fd611b94565b6105366004803603602081101561069e57600080fd5b50356001600160a01b0316611ba4565b610252611e7b565b610282600480360360208110156106cc57600080fd5b50356001600160a01b031661214e565b610252612160565b610252600480360360208110156106fa57600080fd5b50356001600160a01b03166123a1565b600754600160c81b900460ff1681565b6002546001600160a01b031681565b600754600160c81b900460ff166107715760405162461bcd60e51b8152600401808060200182810382526030815260200180612d266030913960400191505060405180910390fd5b600754600160c81b900460ff16801561079557506007546001600160401b03164210155b6107d05760405162461bcd60e51b815260040180806020018281038252602c815260200180612b3f602c913960400191505060405180910390fd5b6000811161080f5760405162461bcd60e51b815260040180806020018281038252603a815260200180612b6b603a913960400191505060405180910390fd5b600754600160c01b900460ff161561087157600754600160401b90046001600160401b031642116108715760405162461bcd60e51b8152600401808060200182810382526049815260200180612f146049913960600191505060405180910390fd5b6108796109be565b336000908152600b60205260409020548111156108c75760405162461bcd60e51b815260040180806020018281038252604c815260200180612c4a604c913960600191505060405180910390fd5b336000908152600b60205260409020546108e19082612499565b336000908152600b60205260409020556005546108fe9082612499565b600555600254610918906001600160a01b031633836124e4565b60408051828152905133917f7084f5476618d8e60b11ef0d7d3f06914655adb8793e28ff7f018d4c76d505d5919081900360200190a250565b600e60209081526000928352604080842090915290825290205481565b60096020526000908152604090205481565b600754600160401b90046001600160401b031681565b600754600160801b90046001600160401b031681565b60036020526000908152604090205481565b600754600160c81b900460ff16610a065760405162461bcd60e51b8152600401808060200182810382526030815260200180612d266030913960400191505060405180910390fd5b600754600160c81b900460ff168015610a2a57506007546001600160401b03164210155b610a655760405162461bcd60e51b815260040180806020018281038252602c815260200180612b3f602c913960400191505060405180910390fd5b600754600090610a86904290600160401b90046001600160401b031661253b565b600854909150600090610aa5906001600160401b038085169116612499565b905060005b600154811015610d0c57600060018281548110610ac357fe5b6000918252602090912001546005546001600160a01b039091169150610b75576007546001600160a01b038216600090815260036020526040902054610b4991610b2a91600160801b9091046001600160401b031690610b24908790612551565b906125aa565b6001600160a01b038316600090815260096020526040902054906125ec565b6001600160a01b0382166000908152600960209081526040808320939093556006905290812055610c09565b600754600554610bef91610bd091610b9c91600160801b90046001600160401b0316612551565b6001600160a01b038416600090815260036020526040902054610b2490600160701b90610bca908990612551565b90612551565b6001600160a01b038316600090815260066020526040902054906125ec565b6001600160a01b0382166000908152600660205260409020555b6001600160a01b038116600090815260066020526040812054610c2d576000610c88565b336000908152600c602090815260408083206001600160a01b0386168452825280832054600690925290912054610c8891600160701b91610b2491610c729190612499565b336000908152600b602052604090205490612551565b336000908152600d602090815260408083206001600160a01b0387168452909152902054909150610cb990826125ec565b336000818152600d602090815260408083206001600160a01b0397909716808452968252808320949094556006815283822054928252600c81528382209582529490945292209190915550600101610aaa565b50506008805467ffffffffffffffff19166001600160401b0392909216919091179055565b610d39612646565b6000546001600160a01b03908116911614610d89576040805162461bcd60e51b81526020600482018190526024820152600080516020612d77833981519152604482015290519081900360640190fd5b600080546040516001600160a01b03909116907f8be0079c531659141344cd1fd0a4f28419497f9722a3daafe3b4186f6b6457e0908390a3600080546001600160a01b0319169055565b600d60209081526000928352604080842090915290825290205481565b600c60209081526000928352604080842090915290825290205481565b600754600160c81b900460ff16610e555760405162461bcd60e51b8152600401808060200182810382526030815260200180612d266030913960400191505060405180910390fd5b600754600160c81b900460ff168015610e7957506007546001600160401b03164210155b610eb45760405162461bcd60e51b815260040180806020018281038252602c815260200180612b3f602c913960400191505060405180910390fd5b610ebc6109be565b6001546060906001600160401b0381118015610ed757600080fd5b50604051908082528060200260200182016040528015610f01578160200160208202803683370190505b50905060005b600154811015610fa457600060018281548110610f2057fe5b600091825260208083209091015433808452600e835260408085206001600160a01b0390931680865292845280852054918552600d845280852083865290935291832054909350839291610f749190612499565b9050610f8183828861264a565b80858581518110610f8e57fe5b6020908102919091010152505050600101610f07565b50604080516020808252835181830152835133937f28ee566bdecaf975c0979f4d09fecf91a9009ffe78523aef053a678134137b8b93869390928392830191808601910280838360005b83811015611006578181015183820152602001610fee565b505050509050019250505060405180910390a25050565b6001818154811061102a57fe5b6000918252602090912001546001600160a01b0316905081565b6007546001600160401b031681565b600754600160c81b900460ff1661109b5760405162461bcd60e51b8152600401808060200182810382526030815260200180612d266030913960400191505060405180910390fd5b600754600160c81b900460ff1680156110bf57506007546001600160401b03164210155b6110fa5760405162461bcd60e51b815260040180806020018281038252602c815260200180612b3f602c913960400191505060405180910390fd5b60015482511461113b5760405162461bcd60e51b815260040180806020018281038252603d815260200180612b02603d913960400191505060405180910390fd5b6111436109be565b6001546060906001600160401b038111801561115e57600080fd5b50604051908082528060200260200182016040528015611188578160200160208202803683370190505b50905060005b600154811015611287576000600182815481106111a757fe5b600091825260208083209091015433808452600e835260408085206001600160a01b0390931680865292845280852054918552600d8452808520838652909352918320549093508392916111fb9190612499565b9050600087858151811061120b57fe5b60200260200101519050808210156112545760405162461bcd60e51b815260040180806020018281038252603e815260200180612ba5603e913960400191505060405180910390fd5b61125f84828961264a565b8086868151811061126c57fe5b602090810291909101015250506001909201915061118e9050565b50604080516020808252835181830152835133937f28ee566bdecaf975c0979f4d09fecf91a9009ffe78523aef053a678134137b8b93869390928392830191808601910280838360005b838110156112e95781810151838201526020016112d1565b505050509050019250505060405180910390a2505050565b6000546001600160a01b031690565b60066020526000908152604090205481565b600a6020526000908152604090205481565b600754600160c81b900460ff1661137c5760405162461bcd60e51b8152600401808060200182810382526030815260200180612d266030913960400191505060405180910390fd5b600754600160c81b900460ff1680156113a057506007546001600160401b03164210155b6113db5760405162461bcd60e51b815260040180806020018281038252602c815260200180612b3f602c913960400191505060405180910390fd5b600754600160c81b900460ff1680156114065750600754600160401b90046001600160401b03164211155b6114415760405162461bcd60e51b815260040180806020018281038252602e815260200180612eab602e913960400191505060405180910390fd5b600081116114805760405162461bcd60e51b8152600401808060200182810382526037815260200180612e386037913960400191505060405180910390fd5b6114886109be565b336000908152600b60205260409020546114a290826125ec565b336000908152600b60205260409020556005546114bf90826125ec565b6005556002546114da906001600160a01b03163330846126d6565b60408051828152905133917f9e71bc8eea02a63969f509818f2dafb9254532904319f9dbda79b67bd34a5f3d919081900360200190a250565b600b6020526000908152604090205481565b60055481565b60015460609081906001600160401b038111801561154857600080fd5b50604051908082528060200260200182016040528015611572578160200160208202803683370190505b50905060005b6001548110156115f1576001600160a01b0384166000908152600e6020526040812060018054919291849081106115ab57fe5b60009182526020808320909101546001600160a01b0316835282019290925260400190205482518390839081106115de57fe5b6020908102919091010152600101611578565b5092915050565b611600612646565b6000546001600160a01b03908116911614611650576040805162461bcd60e51b81526020600482018190526024820152600080516020612d77833981519152604482015290519081900360640190fd5b600754600160c81b900460ff16156116995760405162461bcd60e51b8152600401808060200182810382526034815260200180612cf26034913960400191505060405180910390fd5b42836001600160401b0316116116e05760405162461bcd60e51b815260040180806020018281038252603b815260200180612ed9603b913960400191505060405180910390fd5b826001600160401b0316826001600160401b0316116117305760405162461bcd60e51b8152600401808060200182810382526036815260200180612c966036913960400191505060405180910390fd5b86841461176e5760405162461bcd60e51b8152600401808060200182810382526041815260200180612c096041913960600191505060405180910390fd5b6007805467ffffffffffffffff60801b1916600160801b8585036001600160401b03160217905560005b63ffffffff811688111561197e57600089898363ffffffff168181106117ba57fe5b905060200201356001600160a01b03169050600087878463ffffffff168181106117e057fe5b60200291909101359150506001600160a01b0382166118305760405162461bcd60e51b815260040180806020018281038252603a815260200180612d97603a913960400191505060405180910390fd5b6000811161186f5760405162461bcd60e51b815260040180806020018281038252602a815260200180612dd1602a913960400191505060405180910390fd5b604080516370a0823160e01b81523060048201529051839183916001600160a01b038416916370a08231916024808301926020929190829003018186803b1580156118b957600080fd5b505afa1580156118cd573d6000803e3d6000fd5b505050506040513d60208110156118e357600080fd5b505110156119225760405162461bcd60e51b815260040180806020018281038252602b815260200180612f87602b913960400191505060405180910390fd5b6001805480820182557fb10e2d527612073b26eecdfd717e6a320cf44b4afac2b0732d9fcbe2b7fa0cf60180546001600160a01b0319166001600160a01b03938416179055921660009081526003602052604090205501611798565b506001600160a01b0386166119c45760405162461bcd60e51b815260040180806020018281038252603c815260200180612e6f603c913960400191505060405180910390fd5b600280546001600160a01b0319166001600160a01b03881690811790915560078054600880546001600160401b0388811667ffffffffffffffff199283168117909355600160c81b9190931682176fffffffffffffffff00000000000000001916600160401b9388169384021760ff60c01b1916600160c01b8715159081029190911760ff60c81b191691909117909355604080516020808201969096526060810192909252608082019290925260a081019290925260c080835282018a90527fe0447a394d11ec1fdc78a0ee3f2ce94c11fcfcf256a283544638f918f2df2800928b928b928b928b928b928b928b928b929091829182019060e08301908c908c0280828437600083820152601f01601f19169091018481038352888152602090810191508990890280828437600083820152604051601f909101601f19169092018290039c50909a5050505050505050505050a15050505050505050565b6008546001600160401b031681565b60606001805480602002602001604051908101604052809291908181526020018280548015611b8a57602002820191906000526020600020905b81546001600160a01b03168152600190910190602001808311611b6c575b5050505050905090565b600754600160c01b900460ff1681565b600754606090600160c81b900460ff16611bef5760405162461bcd60e51b8152600401808060200182810382526030815260200180612d266030913960400191505060405180910390fd5b600754600160c81b900460ff168015611c1357506007546001600160401b03164210155b611c4e5760405162461bcd60e51b815260040180806020018281038252602c815260200180612b3f602c913960400191505060405180910390fd5b600754600090611c6f904290600160401b90046001600160401b031661253b565b600854909150600090611c8e906001600160401b038085169116612499565b6001549091506060906001600160401b0381118015611cac57600080fd5b50604051908082528060200260200182016040528015611cd6578160200160208202803683370190505b50905060005b600154811015611e7257600060018281548110611cf557fe5b60009182526020808320909101546001600160a01b0316808352600690915260409091205460055491925090611d2d57506000611d8c565b600754600554611d8991611d8291611d5491600160801b90046001600160401b0316612551565b6001600160a01b038516600090815260036020526040902054610b2490600160701b90610bca908b90612551565b82906125ec565b90505b6000808211611d9c576000611dfa565b6001600160a01b03808a166000908152600c6020908152604080832093871683529290522054611dfa90600160701b90610b2490611ddb908690612499565b6001600160a01b038d166000908152600b602052604090205490612551565b6001600160a01b03808b166000818152600e6020908152604080832094891680845294825280832054938352600d82528083209483529390529190912054919250611e5091611e4a9084906125ec565b90612499565b858581518110611e5c57fe5b6020908102919091010152505050600101611cdc565b50949350505050565b600754600160c81b900460ff16611ec35760405162461bcd60e51b8152600401808060200182810382526030815260200180612d266030913960400191505060405180910390fd5b600754600160c81b900460ff168015611ee757506007546001600160401b03164210155b611f225760405162461bcd60e51b815260040180806020018281038252602c815260200180612b3f602c913960400191505060405180910390fd5b611f2a6109be565b6001546060816001600160401b0381118015611f4557600080fd5b50604051908082528060200260200182016040528015611f6f578160200160208202803683370190505b50905060005b828110156120d457600060018281548110611f8c57fe5b60009182526020808320909101546001600160a01b031680835260098252604080842054600a909352909220549192508291611fc7916125ec565b6001600160a01b0382166000908152600a6020908152604080832084905560039091528120549091611ff99190612499565b6001600160a01b03808416600090815260096020908152604080832083905580516370a0823160e01b81523060048201529051949550919361208d938693908916926370a0823192602480840193829003018186803b15801561205b57600080fd5b505afa15801561206f573d6000803e3d6000fd5b505050506040513d602081101561208557600080fd5b505190612499565b90508086868151811061209c57fe5b6020026020010181815250506120c46120b3611301565b6001600160a01b03861690836124e4565b505060019092019150611f759050565b507ff904fafa600a7e4e8039f3a5497d1b6016772e3060f87d3e40f911b315f00bd1816040518080602001828103825283818151815260200191508051906020019060200280838360005b8381101561213757818101518382015260200161211f565b505050509050019250505060405180910390a15050565b60046020526000908152604090205481565b600754600160c81b900460ff166121a85760405162461bcd60e51b8152600401808060200182810382526030815260200180612d266030913960400191505060405180910390fd5b6121b0612646565b6000546001600160a01b03908116911614612200576040805162461bcd60e51b81526020600482018190526024820152600080516020612d77833981519152604482015290519081900360640190fd5b6007546001600160401b031642106122495760405162461bcd60e51b815260040180806020018281038252603d815260200180612dfb603d913960400191505060405180910390fd5b60005b6001548110156123255760006001828154811061226557fe5b60009182526020808320909101546001600160a01b031680835260039091526040822091909155905061231c612299611301565b604080516370a0823160e01b815230600482015290516001600160a01b038516916370a08231916024808301926020929190829003018186803b1580156122df57600080fd5b505afa1580156122f3573d6000803e3d6000fd5b505050506040513d602081101561230957600080fd5b50516001600160a01b03841691906124e4565b5060010161224c565b5061233260016000612ac7565b600280546001600160a01b0319169055600780546008805467ffffffffffffffff1916905579ffff0000000000000000ffffffffffffffffffffffffffffffff191690556040517f1afb0ae590df277bcb3a37f88612725bf1f7df4755792b1548a7efe77985ff7790600090a1565b6123a9612646565b6000546001600160a01b039081169116146123f9576040805162461bcd60e51b81526020600482018190526024820152600080516020612d77833981519152604482015290519081900360640190fd5b6001600160a01b03811661243e5760405162461bcd60e51b8152600401808060200182810382526026815260200180612be36026913960400191505060405180910390fd5b600080546040516001600160a01b03808516939216917f8be0079c531659141344cd1fd0a4f28419497f9722a3daafe3b4186f6b6457e091a3600080546001600160a01b0319166001600160a01b0392909216919091179055565b60006124db83836040518060400160405280601e81526020017f536166654d6174683a207375627472616374696f6e206f766572666c6f770000815250612736565b90505b92915050565b604080516001600160a01b038416602482015260448082018490528251808303909101815260649091019091526020810180516001600160e01b031663a9059cbb60e01b1790526125369084906127d2565b505050565b600081831061254a57816124db565b5090919050565b600082612560575060006124de565b8282028284828161256d57fe5b04146124db5760405162461bcd60e51b8152600401808060200182810382526021815260200180612d566021913960400191505060405180910390fd5b60006124db83836040518060400160405280601a81526020017f536166654d6174683a206469766973696f6e206279207a65726f000000000000815250612883565b6000828201838110156124db576040805162461bcd60e51b815260206004820152601b60248201527f536166654d6174683a206164646974696f6e206f766572666c6f770000000000604482015290519081900360640190fd5b3390565b336000908152600e602090815260408083206001600160a01b038716845290915290205461267890836125ec565b336000908152600e602090815260408083206001600160a01b0388168452825280832093909355600a905220546126af90836125ec565b6001600160a01b0384166000818152600a60205260409020919091556125369082846124e4565b604080516001600160a01b0380861660248301528416604482015260648082018490528251808303909101815260849091019091526020810180516001600160e01b03166323b872dd60e01b1790526127309085906127d2565b50505050565b600081848411156127c55760405162461bcd60e51b81526004018080602001828103825283818151815260200191508051906020019080838360005b8381101561278a578181015183820152602001612772565b50505050905090810190601f1680156127b75780820380516001836020036101000a031916815260200191505b509250505060405180910390fd5b50508183035b9392505050565b6060612827826040518060400160405280602081526020017f5361666545524332303a206c6f772d6c6576656c2063616c6c206661696c6564815250856001600160a01b03166128e89092919063ffffffff16565b8051909150156125365780806020019051602081101561284657600080fd5b50516125365760405162461bcd60e51b815260040180806020018281038252602a815260200180612f5d602a913960400191505060405180910390fd5b600081836128d25760405162461bcd60e51b815260206004820181815283516024840152835190928392604490910191908501908083836000831561278a578181015183820152602001612772565b5060008385816128de57fe5b0495945050505050565b60606128f784846000856128ff565b949350505050565b6060824710156129405760405162461bcd60e51b8152600401808060200182810382526026815260200180612ccc6026913960400191505060405180910390fd5b61294985612a5b565b61299a576040805162461bcd60e51b815260206004820152601d60248201527f416464726573733a2063616c6c20746f206e6f6e2d636f6e7472616374000000604482015290519081900360640190fd5b60006060866001600160a01b031685876040518082805190602001908083835b602083106129d95780518252601f1990920191602091820191016129ba565b6001836020036101000a03801982511681845116808217855250505050505090500191505060006040518083038185875af1925050503d8060008114612a3b576040519150601f19603f3d011682016040523d82523d6000602084013e612a40565b606091505b5091509150612a50828286612a61565b979650505050505050565b3b151590565b60608315612a705750816127cb565b825115612a805782518084602001fd5b60405162461bcd60e51b815260206004820181815284516024840152845185939192839260440191908501908083836000831561278a578181015183820152602001612772565b5080546000825590600052602060002090810190612ae59190612ae8565b50565b5b80821115612afd5760008155600101612ae9565b509056fe45524332305374616b696e6752657761726473446973747269627574696f6e3a20696e636f6e73697374656e7420636c61696d656420616d6f756e747345524332305374616b696e6752657761726473446973747269627574696f6e3a206e6f74207374617274656445524332305374616b696e6752657761726473446973747269627574696f6e3a20747269656420746f207769746864726177206e6f7468696e6745524332305374616b696e6752657761726473446973747269627574696f6e3a20696e73756666696369656e7420636c61696d61626c6520616d6f756e744f776e61626c653a206e6577206f776e657220697320746865207a65726f206164647265737345524332305374616b696e6752657761726473446973747269627574696f6e3a20696e636f6e73697374656e742072657761726420746f6b656e2f616d6f756e7445524332305374616b696e6752657761726473446973747269627574696f6e3a2077697468647261776e20616d6f756e742067726561746572207468616e2063757272656e74207374616b6545524332305374616b696e6752657761726473446973747269627574696f6e3a20696e76616c69642074696d65206475726174696f6e416464726573733a20696e73756666696369656e742062616c616e636520666f722063616c6c45524332305374616b696e6752657761726473446973747269627574696f6e3a20616c726561647920696e697469616c697a656445524332305374616b696e6752657761726473446973747269627574696f6e3a206e6f7420696e697469616c697a6564536166654d6174683a206d756c7469706c69636174696f6e206f766572666c6f774f776e61626c653a2063616c6c6572206973206e6f7420746865206f776e657245524332305374616b696e6752657761726473446973747269627574696f6e3a203020616464726573732061732072657761726420746f6b656e45524332305374616b696e6752657761726473446973747269627574696f6e3a206e6f2072657761726445524332305374616b696e6752657761726473446973747269627574696f6e3a20646973747269627574696f6e20616c7265616479207374617274656445524332305374616b696e6752657761726473446973747269627574696f6e3a20747269656420746f207374616b65206e6f7468696e6745524332305374616b696e6752657761726473446973747269627574696f6e3a20302061646472657373206173207374616b61626c6520746f6b656e45524332305374616b696e6752657761726473446973747269627574696f6e3a20616c726561647920656e64656445524332305374616b696e6752657761726473446973747269627574696f6e3a20696e76616c6964207374617274696e672074696d657374616d7045524332305374616b696e6752657761726473446973747269627574696f6e3a2066756e6473206c6f636b656420756e74696c2074686520646973747269627574696f6e20656e64735361666545524332303a204552433230206f7065726174696f6e20646964206e6f74207375636365656445524332305374616b696e6752657761726473446973747269627574696f6e3a206e6f2066756e64696e67a26469706673582212204bb741662355cf95f9d43a10897bf5c9086aa637c8097d65ff9ff71fdf6c920964736f6c634300060c00334f776e61626c653a206e6577206f776e657220697320746865207a65726f2061646472657373416464726573733a20696e73756666696369656e742062616c616e636520666f722063616c6c5361666545524332303a204552433230206f7065726174696f6e20646964206e6f742073756363656564a264697066735822122091a8c560b281ddbf7b5beb40ff59707478c9e9b0c305a1e8feb499c1e59de33664736f6c634300060c0033",
  "immutableReferences": {},
  "source": "// SPDX-License-Identifier: GPL-3.0\n\npragma solidity ^0.6.12;\n\nimport \"@openzeppelin/contracts/math/SafeMath.sol\";\nimport \"@openzeppelin/contracts/token/ERC20/ERC20.sol\";\nimport \"@openzeppelin/contracts/token/ERC20/SafeERC20.sol\";\nimport \"@openzeppelin/contracts/access/Ownable.sol\";\nimport \"./ERC20StakingRewardsDistribution.sol\";\n\ncontract ERC20StakingRewardsDistributionFactory is Ownable {\n    using SafeMath for uint256;\n    using SafeERC20 for ERC20;\n\n    ERC20StakingRewardsDistribution[] public distributions;\n\n    event DistributionCreated(address owner, address deployedAt);\n\n    function createDistribution(\n        address[] calldata _rewardTokenAddresses,\n        address _stakableTokenAddress,\n        uint256[] calldata _rewardAmounts,\n        uint64 _startingTimestamp,\n        uint64 _endingTimestmp,\n        bool _locked\n    ) public virtual {\n        ERC20StakingRewardsDistribution _distribution =\n            new ERC20StakingRewardsDistribution();\n        for (uint256 _i; _i < _rewardTokenAddresses.length; _i++) {\n            uint256 _relatedAmount = _rewardAmounts[_i];\n            ERC20(_rewardTokenAddresses[_i]).safeTransferFrom(\n                msg.sender,\n                address(_distribution),\n                _relatedAmount\n            );\n        }\n        _distribution.initialize(\n            _rewardTokenAddresses,\n            _stakableTokenAddress,\n            _rewardAmounts,\n            _startingTimestamp,\n            _endingTimestmp,\n            _locked\n        );\n        _distribution.transferOwnership(msg.sender);\n        distributions.push(_distribution);\n        emit DistributionCreated(msg.sender, address(_distribution));\n    }\n\n    function getDistributionsAmount() external view returns (uint256) {\n        return distributions.length;\n    }\n}\n",
  "sourcePath": "/home/luzzif/Projects/swapr-lp-staker/contracts/ERC20StakingRewardsDistributionFactory.sol",
  "compiler": {
    "name": "solc",
    "version": "0.6.12+commit.27d51765.Emscripten.clang"
  },
  "schemaVersion": "3.3.3",
  "updatedAt": "2021-03-11T14:26:42.623Z",
  "devdoc": {
    "kind": "dev",
    "methods": {
      "owner()": {
        "details": "Returns the address of the current owner."
      },
      "renounceOwnership()": {
        "details": "Leaves the contract without owner. It will not be possible to call `onlyOwner` functions anymore. Can only be called by the current owner. NOTE: Renouncing ownership will leave the contract without an owner, thereby removing any functionality that is only available to the owner."
      },
      "transferOwnership(address)": {
        "details": "Transfers ownership of the contract to a new account (`newOwner`). Can only be called by the current owner."
      }
    },
    "version": 1
  },
  "userdoc": {
    "kind": "user",
    "methods": {},
    "version": 1
  }
}