{
  "contractName": "ERC20StakingRewardsDistribution",
  "abi": [
    {
      "anonymous": false,
      "inputs": [],
      "name": "Canceled",
      "type": "event"
    },
    {
      "anonymous": false,
      "inputs": [
        {
          "indexed": true,
          "internalType": "address",
          "name": "claimer",
          "type": "address"
        },
        {
          "indexed": false,
          "internalType": "uint256[]",
          "name": "amounts",
          "type": "uint256[]"
        }
      ],
      "name": "Claimed",
      "type": "event"
    },
    {
      "anonymous": false,
      "inputs": [
        {
          "indexed": false,
          "internalType": "address[]",
          "name": "rewardsTokenAddresses",
          "type": "address[]"
        },
        {
          "indexed": false,
          "internalType": "address",
          "name": "stakableTokenAddress",
          "type": "address"
        },
        {
          "indexed": false,
          "internalType": "uint256[]",
          "name": "rewardsAmounts",
          "type": "uint256[]"
        },
        {
          "indexed": false,
          "internalType": "uint64",
          "name": "startingTimestamp",
          "type": "uint64"
        },
        {
          "indexed": false,
          "internalType": "uint64",
          "name": "endingTimestamp",
          "type": "uint64"
        },
        {
          "indexed": false,
          "internalType": "bool",
          "name": "locked",
          "type": "bool"
        }
      ],
      "name": "Initialized",
      "type": "event"
    },
    {
      "anonymous": false,
      "inputs": [
        {
          "indexed": true,
          "internalType": "address",
          "name": "previousOwner",
          "type": "address"
        },
        {
          "indexed": true,
          "internalType": "address",
          "name": "newOwner",
          "type": "address"
        }
      ],
      "name": "OwnershipTransferred",
      "type": "event"
    },
    {
      "anonymous": false,
      "inputs": [
        {
          "indexed": false,
          "internalType": "uint256[]",
          "name": "amounts",
          "type": "uint256[]"
        }
      ],
      "name": "Recovered",
      "type": "event"
    },
    {
      "anonymous": false,
      "inputs": [
        {
          "indexed": true,
          "internalType": "address",
          "name": "staker",
          "type": "address"
        },
        {
          "indexed": false,
          "internalType": "uint256",
          "name": "amount",
          "type": "uint256"
        }
      ],
      "name": "Staked",
      "type": "event"
    },
    {
      "anonymous": false,
      "inputs": [
        {
          "indexed": true,
          "internalType": "address",
          "name": "withdrawer",
          "type": "address"
        },
        {
          "indexed": false,
          "internalType": "uint256",
          "name": "amount",
          "type": "uint256"
        }
      ],
      "name": "Withdrawn",
      "type": "event"
    },
    {
      "inputs": [
        {
          "internalType": "address",
          "name": "",
          "type": "address"
        },
        {
          "internalType": "address",
          "name": "",
          "type": "address"
        }
      ],
      "name": "claimedReward",
      "outputs": [
        {
          "internalType": "uint256",
          "name": "",
          "type": "uint256"
        }
      ],
      "stateMutability": "view",
      "type": "function"
    },
    {
      "inputs": [
        {
          "internalType": "address",
          "name": "",
          "type": "address"
        },
        {
          "internalType": "address",
          "name": "",
          "type": "address"
        }
      ],
      "name": "consolidatedRewardsPerStakedToken",
      "outputs": [
        {
          "internalType": "uint256",
          "name": "",
          "type": "uint256"
        }
      ],
      "stateMutability": "view",
      "type": "function"
    },
    {
      "inputs": [
        {
          "internalType": "address",
          "name": "",
          "type": "address"
        },
        {
          "internalType": "address",
          "name": "",
          "type": "address"
        }
      ],
      "name": "earnedRewards",
      "outputs": [
        {
          "internalType": "uint256",
          "name": "",
          "type": "uint256"
        }
      ],
      "stateMutability": "view",
      "type": "function"
    },
    {
      "inputs": [],
      "name": "endingTimestamp",
      "outputs": [
        {
          "internalType": "uint64",
          "name": "",
          "type": "uint64"
        }
      ],
      "stateMutability": "view",
      "type": "function"
    },
    {
      "inputs": [],
      "name": "initialized",
      "outputs": [
        {
          "internalType": "bool",
          "name": "",
          "type": "bool"
        }
      ],
      "stateMutability": "view",
      "type": "function"
    },
    {
      "inputs": [],
      "name": "lastConsolidationTimestamp",
      "outputs": [
        {
          "internalType": "uint64",
          "name": "",
          "type": "uint64"
        }
      ],
      "stateMutability": "view",
      "type": "function"
    },
    {
      "inputs": [],
      "name": "locked",
      "outputs": [
        {
          "internalType": "bool",
          "name": "",
          "type": "bool"
        }
      ],
      "stateMutability": "view",
      "type": "function"
    },
    {
      "inputs": [],
      "name": "owner",
      "outputs": [
        {
          "internalType": "address",
          "name": "",
          "type": "address"
        }
      ],
      "stateMutability": "view",
      "type": "function"
    },
    {
      "inputs": [
        {
          "internalType": "address",
          "name": "",
          "type": "address"
        }
      ],
      "name": "recoverableUnassignedReward",
      "outputs": [
        {
          "internalType": "uint256",
          "name": "",
          "type": "uint256"
        }
      ],
      "stateMutability": "view",
      "type": "function"
    },
    {
      "inputs": [],
      "name": "renounceOwnership",
      "outputs": [],
      "stateMutability": "nonpayable",
      "type": "function"
    },
    {
      "inputs": [
        {
          "internalType": "address",
          "name": "",
          "type": "address"
        }
      ],
      "name": "rewardAmount",
      "outputs": [
        {
          "internalType": "uint256",
          "name": "",
          "type": "uint256"
        }
      ],
      "stateMutability": "view",
      "type": "function"
    },
    {
      "inputs": [
        {
          "internalType": "address",
          "name": "",
          "type": "address"
        }
      ],
      "name": "rewardPerStakedToken",
      "outputs": [
        {
          "internalType": "uint256",
          "name": "",
          "type": "uint256"
        }
      ],
      "stateMutability": "view",
      "type": "function"
    },
    {
      "inputs": [
        {
          "internalType": "uint256",
          "name": "",
          "type": "uint256"
        }
      ],
      "name": "rewardTokens",
      "outputs": [
        {
          "internalType": "contract ERC20",
          "name": "",
          "type": "address"
        }
      ],
      "stateMutability": "view",
      "type": "function"
    },
    {
      "inputs": [],
      "name": "secondsDuration",
      "outputs": [
        {
          "internalType": "uint64",
          "name": "",
          "type": "uint64"
        }
      ],
      "stateMutability": "view",
      "type": "function"
    },
    {
      "inputs": [],
      "name": "stakableToken",
      "outputs": [
        {
          "internalType": "contract ERC20",
          "name": "",
          "type": "address"
        }
      ],
      "stateMutability": "view",
      "type": "function"
    },
    {
      "inputs": [
        {
          "internalType": "address",
          "name": "",
          "type": "address"
        }
      ],
      "name": "stakedTokenAmount",
      "outputs": [
        {
          "internalType": "uint256",
          "name": "",
          "type": "uint256"
        }
      ],
      "stateMutability": "view",
      "type": "function"
    },
    {
      "inputs": [
        {
          "internalType": "address",
          "name": "",
          "type": "address"
        }
      ],
      "name": "stakedTokensOf",
      "outputs": [
        {
          "internalType": "uint256",
          "name": "",
          "type": "uint256"
        }
      ],
      "stateMutability": "view",
      "type": "function"
    },
    {
      "inputs": [],
      "name": "startingTimestamp",
      "outputs": [
        {
          "internalType": "uint64",
          "name": "",
          "type": "uint64"
        }
      ],
      "stateMutability": "view",
      "type": "function"
    },
    {
      "inputs": [
        {
          "internalType": "address",
          "name": "",
          "type": "address"
        }
      ],
      "name": "totalClaimedRewards",
      "outputs": [
        {
          "internalType": "uint256",
          "name": "",
          "type": "uint256"
        }
      ],
      "stateMutability": "view",
      "type": "function"
    },
    {
      "inputs": [],
      "name": "totalStakedTokensAmount",
      "outputs": [
        {
          "internalType": "uint256",
          "name": "",
          "type": "uint256"
        }
      ],
      "stateMutability": "view",
      "type": "function"
    },
    {
      "inputs": [
        {
          "internalType": "address",
          "name": "newOwner",
          "type": "address"
        }
      ],
      "name": "transferOwnership",
      "outputs": [],
      "stateMutability": "nonpayable",
      "type": "function"
    },
    {
      "inputs": [],
      "name": "getRewardTokens",
      "outputs": [
        {
          "internalType": "contract ERC20[]",
          "name": "",
          "type": "address[]"
        }
      ],
      "stateMutability": "view",
      "type": "function"
    },
    {
      "inputs": [
        {
          "internalType": "address",
          "name": "_claimer",
          "type": "address"
        }
      ],
      "name": "getClaimedRewards",
      "outputs": [
        {
          "internalType": "uint256[]",
          "name": "",
          "type": "uint256[]"
        }
      ],
      "stateMutability": "view",
      "type": "function"
    },
    {
      "inputs": [
        {
          "internalType": "address[]",
          "name": "_rewardTokenAddresses",
          "type": "address[]"
        },
        {
          "internalType": "address",
          "name": "_stakableTokenAddress",
          "type": "address"
        },
        {
          "internalType": "uint256[]",
          "name": "_rewardAmounts",
          "type": "uint256[]"
        },
        {
          "internalType": "uint64",
          "name": "_startingTimestamp",
          "type": "uint64"
        },
        {
          "internalType": "uint64",
          "name": "_endingTimestamp",
          "type": "uint64"
        },
        {
          "internalType": "bool",
          "name": "_locked",
          "type": "bool"
        }
      ],
      "name": "initialize",
      "outputs": [],
      "stateMutability": "nonpayable",
      "type": "function"
    },
    {
      "inputs": [],
      "name": "cancel",
      "outputs": [],
      "stateMutability": "nonpayable",
      "type": "function"
    },
    {
      "inputs": [],
      "name": "recoverUnassignedRewards",
      "outputs": [],
      "stateMutability": "nonpayable",
      "type": "function"
    },
    {
      "inputs": [
        {
          "internalType": "uint256",
          "name": "_amount",
          "type": "uint256"
        }
      ],
      "name": "stake",
      "outputs": [],
      "stateMutability": "nonpayable",
      "type": "function"
    },
    {
      "inputs": [
        {
          "internalType": "uint256",
          "name": "_amount",
          "type": "uint256"
        }
      ],
      "name": "withdraw",
      "outputs": [],
      "stateMutability": "nonpayable",
      "type": "function"
    },
    {
      "inputs": [
        {
          "internalType": "uint256[]",
          "name": "_amounts",
          "type": "uint256[]"
        },
        {
          "internalType": "address",
          "name": "_recipient",
          "type": "address"
        }
      ],
      "name": "claim",
      "outputs": [],
      "stateMutability": "nonpayable",
      "type": "function"
    },
    {
      "inputs": [
        {
          "internalType": "address",
          "name": "_recipient",
          "type": "address"
        }
      ],
      "name": "claimAll",
      "outputs": [],
      "stateMutability": "nonpayable",
      "type": "function"
    },
    {
      "inputs": [
        {
          "internalType": "address",
          "name": "_recipient",
          "type": "address"
        }
      ],
      "name": "exit",
      "outputs": [],
      "stateMutability": "nonpayable",
      "type": "function"
    },
    {
      "inputs": [],
      "name": "consolidateReward",
      "outputs": [],
      "stateMutability": "nonpayable",
      "type": "function"
    },
    {
      "inputs": [
        {
          "internalType": "address",
          "name": "_staker",
          "type": "address"
        }
      ],
      "name": "claimableRewards",
      "outputs": [
        {
          "internalType": "uint256[]",
          "name": "",
          "type": "uint256[]"
        }
      ],
      "stateMutability": "view",
      "type": "function"
    }
  ],
  "bytecode": "0x608060405234801561001057600080fd5b50600061001b61006a565b600080546001600160a01b0319166001600160a01b0383169081178255604051929350917f8be0079c531659141344cd1fd0a4f28419497f9722a3daafe3b4186f6b6457e0908290a35061006e565b3390565b61309d806200007e6000396000f3fe608060405234801561001057600080fd5b50600436106101fb5760003560e01c80638da5cb5b1161011a578063c03e7295116100ad578063dc01f60d1161007c578063dc01f60d146106b9578063e644067d146106df578063e66d85be146106e7578063ea8a1af01461070d578063f2fde38b14610715576101fb565b8063c03e7295146105b7578063c10de300146106a1578063c4f59f9b146106a9578063cf309012146106b1576101fb565b8063ab08d4fc116100e9578063ab08d4fc146104ed578063b41fa97914610513578063b42652e91461051b578063b9e35db014610541576101fb565b80638da5cb5b1461047c57806398f8123014610484578063a110b93f146104aa578063a694fc3a146104d0576101fb565b80636715dcb81161019257806377329f351161016157806377329f35146103835780637bb7bed1146103a957806388786272146103c65780638c574b48146103ce576101fb565b80636715dcb814610317578063715018a61461031f578063728e4a671461032757806375b8dbf814610355576101fb565b80633b34ee50116101ce5780633b34ee501461029f5780635e5294b7146102c55780635fa35023146102e9578063645a8a56146102f1576101fb565b8063158ef93e146102005780631c96c3fb1461021c5780632e1a7d4d1461024057806334380a611461025f575b600080fd5b61020861073b565b604080519115158252519081900360200190f35b61022461074b565b604080516001600160a01b039092168252519081900360200190f35b61025d6004803603602081101561025657600080fd5b503561075a565b005b61028d6004803603604081101561027557600080fd5b506001600160a01b0381358116916020013516610982565b60408051918252519081900360200190f35b61028d600480360360208110156102b557600080fd5b50356001600160a01b031661099f565b6102cd6109b1565b604080516001600160401b039092168252519081900360200190f35b6102cd6109c7565b61028d6004803603602081101561030757600080fd5b50356001600160a01b03166109dd565b61025d6109ef565b61025d610d62565b61028d6004803603604081101561033d57600080fd5b506001600160a01b0381358116916020013516610e04565b61028d6004803603604081101561036b57600080fd5b506001600160a01b0381358116916020013516610e21565b61025d6004803603602081101561039957600080fd5b50356001600160a01b0316610e3e565b610224600480360360208110156103bf57600080fd5b503561104e565b6102cd611075565b61025d600480360360408110156103e457600080fd5b8101906020810181356401000000008111156103ff57600080fd5b82018360208201111561041157600080fd5b8035906020019184602083028401116401000000008311171561043357600080fd5b919080806020026020016040519081016040528093929190818152602001838360200280828437600092019190915250929550505090356001600160a01b031691506110849050565b610224611332565b61028d6004803603602081101561049a57600080fd5b50356001600160a01b0316611341565b61028d600480360360208110156104c057600080fd5b50356001600160a01b0316611353565b61025d600480360360208110156104e657600080fd5b5035611365565b61028d6004803603602081101561050357600080fd5b50356001600160a01b0316611544565b61028d611556565b61025d6004803603602081101561053157600080fd5b50356001600160a01b031661155c565b6105676004803603602081101561055757600080fd5b50356001600160a01b0316611630565b60408051602080825283518183015283519192839290830191858101910280838360005b838110156105a357818101518382015260200161058b565b505050509050019250505060405180910390f35b61025d600480360360c08110156105cd57600080fd5b8101906020810181356401000000008111156105e857600080fd5b8201836020820111156105fa57600080fd5b8035906020019184602083028401116401000000008311171561061c57600080fd5b919390926001600160a01b038335169260408101906020013564010000000081111561064757600080fd5b82018360208201111561065957600080fd5b8035906020019184602083028401116401000000008311171561067b57600080fd5b91935091506001600160401b0381358116916020810135909116906040013515156116ff565b6102cd611c2a565b610567611c39565b610208611c9b565b610567600480360360208110156106cf57600080fd5b50356001600160a01b0316611cab565b61025d611f39565b61028d600480360360208110156106fd57600080fd5b50356001600160a01b031661220c565b61025d61221e565b61025d6004803603602081101561072b57600080fd5b50356001600160a01b031661245f565b600754600160c81b900460ff1681565b6002546001600160a01b031681565b600754600160c81b900460ff166107a25760405162461bcd60e51b8152600401808060200182810382526030815260200180612ddc6030913960400191505060405180910390fd5b600754600160c81b900460ff1680156107c657506007546001600160401b03164210155b6108015760405162461bcd60e51b815260040180806020018281038252602c815260200180612bf5602c913960400191505060405180910390fd5b600081116108405760405162461bcd60e51b815260040180806020018281038252603a815260200180612c21603a913960400191505060405180910390fd5b600754600160c01b900460ff16156108a257600754600160401b90046001600160401b031642116108a25760405162461bcd60e51b8152600401808060200182810382526049815260200180612fca6049913960600191505060405180910390fd5b6108aa6109ef565b336000908152600b60205260409020548111156108f85760405162461bcd60e51b815260040180806020018281038252604c815260200180612d00604c913960600191505060405180910390fd5b336000908152600b60205260409020546109129082612557565b336000908152600b602052604090205560055461092f9082612557565b600555600254610949906001600160a01b031633836125a2565b60408051828152905133917f7084f5476618d8e60b11ef0d7d3f06914655adb8793e28ff7f018d4c76d505d5919081900360200190a250565b600e60209081526000928352604080842090915290825290205481565b60096020526000908152604090205481565b600754600160401b90046001600160401b031681565b600754600160801b90046001600160401b031681565b60036020526000908152604090205481565b600754600160c81b900460ff16610a375760405162461bcd60e51b8152600401808060200182810382526030815260200180612ddc6030913960400191505060405180910390fd5b600754600160c81b900460ff168015610a5b57506007546001600160401b03164210155b610a965760405162461bcd60e51b815260040180806020018281038252602c815260200180612bf5602c913960400191505060405180910390fd5b600754600090610ab7904290600160401b90046001600160401b03166125f9565b600854909150600090610ad6906001600160401b038085169116612557565b905060005b600154811015610d3d57600060018281548110610af457fe5b6000918252602090912001546005546001600160a01b039091169150610ba6576007546001600160a01b038216600090815260036020526040902054610b7a91610b5b91600160801b9091046001600160401b031690610b5590879061260f565b90612668565b6001600160a01b038316600090815260096020526040902054906126aa565b6001600160a01b0382166000908152600960209081526040808320939093556006905290812055610c3a565b600754600554610c2091610c0191610bcd91600160801b90046001600160401b031661260f565b6001600160a01b038416600090815260036020526040902054610b5590600160701b90610bfb90899061260f565b9061260f565b6001600160a01b038316600090815260066020526040902054906126aa565b6001600160a01b0382166000908152600660205260409020555b6001600160a01b038116600090815260066020526040812054610c5e576000610cb9565b336000908152600c602090815260408083206001600160a01b0386168452825280832054600690925290912054610cb991600160701b91610b5591610ca39190612557565b336000908152600b60205260409020549061260f565b336000908152600d602090815260408083206001600160a01b0387168452909152902054909150610cea90826126aa565b336000818152600d602090815260408083206001600160a01b0397909716808452968252808320949094556006815283822054928252600c81528382209582529490945292209190915550600101610adb565b50506008805467ffffffffffffffff19166001600160401b0392909216919091179055565b610d6a612704565b6000546001600160a01b03908116911614610dba576040805162461bcd60e51b81526020600482018190526024820152600080516020612e2d833981519152604482015290519081900360640190fd5b600080546040516001600160a01b03909116907f8be0079c531659141344cd1fd0a4f28419497f9722a3daafe3b4186f6b6457e0908390a3600080546001600160a01b0319169055565b600d60209081526000928352604080842090915290825290205481565b600c60209081526000928352604080842090915290825290205481565b600754600160c81b900460ff16610e865760405162461bcd60e51b8152600401808060200182810382526030815260200180612ddc6030913960400191505060405180910390fd5b600754600160c81b900460ff168015610eaa57506007546001600160401b03164210155b610ee55760405162461bcd60e51b815260040180806020018281038252602c815260200180612bf5602c913960400191505060405180910390fd5b610eed6109ef565b6001546060906001600160401b0381118015610f0857600080fd5b50604051908082528060200260200182016040528015610f32578160200160208202803683370190505b50905060005b600154811015610fd557600060018281548110610f5157fe5b600091825260208083209091015433808452600e835260408085206001600160a01b0390931680865292845280852054918552600d845280852083865290935291832054909350839291610fa59190612557565b9050610fb2838288612708565b80858581518110610fbf57fe5b6020908102919091010152505050600101610f38565b50604080516020808252835181830152835133937f28ee566bdecaf975c0979f4d09fecf91a9009ffe78523aef053a678134137b8b93869390928392830191808601910280838360005b8381101561103757818101518382015260200161101f565b505050509050019250505060405180910390a25050565b6001818154811061105b57fe5b6000918252602090912001546001600160a01b0316905081565b6007546001600160401b031681565b600754600160c81b900460ff166110cc5760405162461bcd60e51b8152600401808060200182810382526030815260200180612ddc6030913960400191505060405180910390fd5b600754600160c81b900460ff1680156110f057506007546001600160401b03164210155b61112b5760405162461bcd60e51b815260040180806020018281038252602c815260200180612bf5602c913960400191505060405180910390fd5b60015482511461116c5760405162461bcd60e51b815260040180806020018281038252603d815260200180612bb8603d913960400191505060405180910390fd5b6111746109ef565b6001546060906001600160401b038111801561118f57600080fd5b506040519080825280602002602001820160405280156111b9578160200160208202803683370190505b50905060005b6001548110156112b8576000600182815481106111d857fe5b600091825260208083209091015433808452600e835260408085206001600160a01b0390931680865292845280852054918552600d84528085208386529093529183205490935083929161122c9190612557565b9050600087858151811061123c57fe5b60200260200101519050808210156112855760405162461bcd60e51b815260040180806020018281038252603e815260200180612c5b603e913960400191505060405180910390fd5b611290848289612708565b8086868151811061129d57fe5b60209081029190910101525050600190920191506111bf9050565b50604080516020808252835181830152835133937f28ee566bdecaf975c0979f4d09fecf91a9009ffe78523aef053a678134137b8b93869390928392830191808601910280838360005b8381101561131a578181015183820152602001611302565b505050509050019250505060405180910390a2505050565b6000546001600160a01b031690565b60066020526000908152604090205481565b600a6020526000908152604090205481565b600754600160c81b900460ff166113ad5760405162461bcd60e51b8152600401808060200182810382526030815260200180612ddc6030913960400191505060405180910390fd5b600754600160c81b900460ff1680156113d157506007546001600160401b03164210155b61140c5760405162461bcd60e51b815260040180806020018281038252602c815260200180612bf5602c913960400191505060405180910390fd5b600754600160c81b900460ff1680156114375750600754600160401b90046001600160401b03164211155b6114725760405162461bcd60e51b815260040180806020018281038252602e815260200180612f61602e913960400191505060405180910390fd5b600081116114b15760405162461bcd60e51b8152600401808060200182810382526037815260200180612eee6037913960400191505060405180910390fd5b6114b96109ef565b336000908152600b60205260409020546114d390826126aa565b336000908152600b60205260409020556005546114f090826126aa565b60055560025461150b906001600160a01b0316333084612794565b60408051828152905133917f9e71bc8eea02a63969f509818f2dafb9254532904319f9dbda79b67bd34a5f3d919081900360200190a250565b600b6020526000908152604090205481565b60055481565b600754600160c81b900460ff166115a45760405162461bcd60e51b8152600401808060200182810382526030815260200180612ddc6030913960400191505060405180910390fd5b600754600160c81b900460ff1680156115c857506007546001600160401b03164210155b6116035760405162461bcd60e51b815260040180806020018281038252602c815260200180612bf5602c913960400191505060405180910390fd5b61160b6109ef565b61161481610e3e565b336000908152600b602052604090205461162d9061075a565b50565b60015460609081906001600160401b038111801561164d57600080fd5b50604051908082528060200260200182016040528015611677578160200160208202803683370190505b50905060005b6001548110156116f6576001600160a01b0384166000908152600e6020526040812060018054919291849081106116b057fe5b60009182526020808320909101546001600160a01b0316835282019290925260400190205482518390839081106116e357fe5b602090810291909101015260010161167d565b5090505b919050565b611707612704565b6000546001600160a01b03908116911614611757576040805162461bcd60e51b81526020600482018190526024820152600080516020612e2d833981519152604482015290519081900360640190fd5b600754600160c81b900460ff16156117a05760405162461bcd60e51b8152600401808060200182810382526034815260200180612da86034913960400191505060405180910390fd5b42836001600160401b0316116117e75760405162461bcd60e51b815260040180806020018281038252603b815260200180612f8f603b913960400191505060405180910390fd5b826001600160401b0316826001600160401b0316116118375760405162461bcd60e51b8152600401808060200182810382526036815260200180612d4c6036913960400191505060405180910390fd5b8684146118755760405162461bcd60e51b8152600401808060200182810382526041815260200180612cbf6041913960600191505060405180910390fd5b6007805467ffffffffffffffff60801b1916600160801b8585036001600160401b03160217905560005b63ffffffff8116881115611a8557600089898363ffffffff168181106118c157fe5b905060200201356001600160a01b03169050600087878463ffffffff168181106118e757fe5b60200291909101359150506001600160a01b0382166119375760405162461bcd60e51b815260040180806020018281038252603a815260200180612e4d603a913960400191505060405180910390fd5b600081116119765760405162461bcd60e51b815260040180806020018281038252602a815260200180612e87602a913960400191505060405180910390fd5b604080516370a0823160e01b81523060048201529051839183916001600160a01b038416916370a08231916024808301926020929190829003018186803b1580156119c057600080fd5b505afa1580156119d4573d6000803e3d6000fd5b505050506040513d60208110156119ea57600080fd5b50511015611a295760405162461bcd60e51b815260040180806020018281038252602b81526020018061303d602b913960400191505060405180910390fd5b6001805480820182557fb10e2d527612073b26eecdfd717e6a320cf44b4afac2b0732d9fcbe2b7fa0cf60180546001600160a01b0319166001600160a01b0393841617905592166000908152600360205260409020550161189f565b506001600160a01b038616611acb5760405162461bcd60e51b815260040180806020018281038252603c815260200180612f25603c913960400191505060405180910390fd5b600280546001600160a01b0319166001600160a01b03881690811790915560078054600880546001600160401b0388811667ffffffffffffffff199283168117909355600160c81b9190931682176fffffffffffffffff00000000000000001916600160401b9388169384021760ff60c01b1916600160c01b8715159081029190911760ff60c81b191691909117909355604080516020808201969096526060810192909252608082019290925260a081019290925260c080835282018a90527fe0447a394d11ec1fdc78a0ee3f2ce94c11fcfcf256a283544638f918f2df2800928b928b928b928b928b928b928b928b929091829182019060e08301908c908c0280828437600083820152601f01601f19169091018481038352888152602090810191508990890280828437600083820152604051601f909101601f19169092018290039c50909a5050505050505050505050a15050505050505050565b6008546001600160401b031681565b60606001805480602002602001604051908101604052809291908181526020018280548015611c9157602002820191906000526020600020905b81546001600160a01b03168152600190910190602001808311611c73575b5050505050905090565b600754600160c01b900460ff1681565b60015460609081906001600160401b0381118015611cc857600080fd5b50604051908082528060200260200182016040528015611cf2578160200160208202803683370190505b50600754909150600160c81b900460ff161580611d1957506007546001600160401b031642105b15611d545760005b600154811015611d4c576000828281518110611d3957fe5b6020908102919091010152600101611d21565b5090506116fa565b600754600090611d75904290600160401b90046001600160401b03166125f9565b600854909150600090611d94906001600160401b038085169116612557565b905060005b600154811015611f2f57600060018281548110611db257fe5b60009182526020808320909101546001600160a01b0316808352600690915260409091205460055491925090611dea57506000611e49565b600754600554611e4691611e3f91611e1191600160801b90046001600160401b031661260f565b6001600160a01b038516600090815260036020526040902054610b5590600160701b90610bfb908a9061260f565b82906126aa565b90505b6000808211611e59576000611eb7565b6001600160a01b03808a166000908152600c6020908152604080832093871683529290522054611eb790600160701b90610b5590611e98908690612557565b6001600160a01b038d166000908152600b60205260409020549061260f565b6001600160a01b03808b166000818152600e6020908152604080832094891680845294825280832054938352600d82528083209483529390529190912054919250611f0d91611f079084906126aa565b90612557565b878581518110611f1957fe5b6020908102919091010152505050600101611d99565b5091949350505050565b600754600160c81b900460ff16611f815760405162461bcd60e51b8152600401808060200182810382526030815260200180612ddc6030913960400191505060405180910390fd5b600754600160c81b900460ff168015611fa557506007546001600160401b03164210155b611fe05760405162461bcd60e51b815260040180806020018281038252602c815260200180612bf5602c913960400191505060405180910390fd5b611fe86109ef565b6001546060816001600160401b038111801561200357600080fd5b5060405190808252806020026020018201604052801561202d578160200160208202803683370190505b50905060005b828110156121925760006001828154811061204a57fe5b60009182526020808320909101546001600160a01b031680835260098252604080842054600a909352909220549192508291612085916126aa565b6001600160a01b0382166000908152600a60209081526040808320849055600390915281205490916120b79190612557565b6001600160a01b03808416600090815260096020908152604080832083905580516370a0823160e01b81523060048201529051949550919361214b938693908916926370a0823192602480840193829003018186803b15801561211957600080fd5b505afa15801561212d573d6000803e3d6000fd5b505050506040513d602081101561214357600080fd5b505190612557565b90508086868151811061215a57fe5b602002602001018181525050612182612171611332565b6001600160a01b03861690836125a2565b5050600190920191506120339050565b507ff904fafa600a7e4e8039f3a5497d1b6016772e3060f87d3e40f911b315f00bd1816040518080602001828103825283818151815260200191508051906020019060200280838360005b838110156121f55781810151838201526020016121dd565b505050509050019250505060405180910390a15050565b60046020526000908152604090205481565b600754600160c81b900460ff166122665760405162461bcd60e51b8152600401808060200182810382526030815260200180612ddc6030913960400191505060405180910390fd5b61226e612704565b6000546001600160a01b039081169116146122be576040805162461bcd60e51b81526020600482018190526024820152600080516020612e2d833981519152604482015290519081900360640190fd5b6007546001600160401b031642106123075760405162461bcd60e51b815260040180806020018281038252603d815260200180612eb1603d913960400191505060405180910390fd5b60005b6001548110156123e35760006001828154811061232357fe5b60009182526020808320909101546001600160a01b03168083526003909152604082209190915590506123da612357611332565b604080516370a0823160e01b815230600482015290516001600160a01b038516916370a08231916024808301926020929190829003018186803b15801561239d57600080fd5b505afa1580156123b1573d6000803e3d6000fd5b505050506040513d60208110156123c757600080fd5b50516001600160a01b03841691906125a2565b5060010161230a565b506123f060016000612b85565b600280546001600160a01b0319169055600780546008805467ffffffffffffffff1916905579ffff0000000000000000ffffffffffffffffffffffffffffffff191690556040517f1afb0ae590df277bcb3a37f88612725bf1f7df4755792b1548a7efe77985ff7790600090a1565b612467612704565b6000546001600160a01b039081169116146124b7576040805162461bcd60e51b81526020600482018190526024820152600080516020612e2d833981519152604482015290519081900360640190fd5b6001600160a01b0381166124fc5760405162461bcd60e51b8152600401808060200182810382526026815260200180612c996026913960400191505060405180910390fd5b600080546040516001600160a01b03808516939216917f8be0079c531659141344cd1fd0a4f28419497f9722a3daafe3b4186f6b6457e091a3600080546001600160a01b0319166001600160a01b0392909216919091179055565b600061259983836040518060400160405280601e81526020017f536166654d6174683a207375627472616374696f6e206f766572666c6f7700008152506127f4565b90505b92915050565b604080516001600160a01b038416602482015260448082018490528251808303909101815260649091019091526020810180516001600160e01b031663a9059cbb60e01b1790526125f4908490612890565b505050565b60008183106126085781612599565b5090919050565b60008261261e5750600061259c565b8282028284828161262b57fe5b04146125995760405162461bcd60e51b8152600401808060200182810382526021815260200180612e0c6021913960400191505060405180910390fd5b600061259983836040518060400160405280601a81526020017f536166654d6174683a206469766973696f6e206279207a65726f000000000000815250612941565b600082820183811015612599576040805162461bcd60e51b815260206004820152601b60248201527f536166654d6174683a206164646974696f6e206f766572666c6f770000000000604482015290519081900360640190fd5b3390565b336000908152600e602090815260408083206001600160a01b038716845290915290205461273690836126aa565b336000908152600e602090815260408083206001600160a01b0388168452825280832093909355600a9052205461276d90836126aa565b6001600160a01b0384166000818152600a60205260409020919091556125f49082846125a2565b604080516001600160a01b0380861660248301528416604482015260648082018490528251808303909101815260849091019091526020810180516001600160e01b03166323b872dd60e01b1790526127ee908590612890565b50505050565b600081848411156128835760405162461bcd60e51b81526004018080602001828103825283818151815260200191508051906020019080838360005b83811015612848578181015183820152602001612830565b50505050905090810190601f1680156128755780820380516001836020036101000a031916815260200191505b509250505060405180910390fd5b50508183035b9392505050565b60606128e5826040518060400160405280602081526020017f5361666545524332303a206c6f772d6c6576656c2063616c6c206661696c6564815250856001600160a01b03166129a69092919063ffffffff16565b8051909150156125f45780806020019051602081101561290457600080fd5b50516125f45760405162461bcd60e51b815260040180806020018281038252602a815260200180613013602a913960400191505060405180910390fd5b600081836129905760405162461bcd60e51b8152602060048201818152835160248401528351909283926044909101919085019080838360008315612848578181015183820152602001612830565b50600083858161299c57fe5b0495945050505050565b60606129b584846000856129bd565b949350505050565b6060824710156129fe5760405162461bcd60e51b8152600401808060200182810382526026815260200180612d826026913960400191505060405180910390fd5b612a0785612b19565b612a58576040805162461bcd60e51b815260206004820152601d60248201527f416464726573733a2063616c6c20746f206e6f6e2d636f6e7472616374000000604482015290519081900360640190fd5b60006060866001600160a01b031685876040518082805190602001908083835b60208310612a975780518252601f199092019160209182019101612a78565b6001836020036101000a03801982511681845116808217855250505050505090500191505060006040518083038185875af1925050503d8060008114612af9576040519150601f19603f3d011682016040523d82523d6000602084013e612afe565b606091505b5091509150612b0e828286612b1f565b979650505050505050565b3b151590565b60608315612b2e575081612889565b825115612b3e5782518084602001fd5b60405162461bcd60e51b8152602060048201818152845160248401528451859391928392604401919085019080838360008315612848578181015183820152602001612830565b508054600082559060005260206000209081019061162d91905b80821115612bb35760008155600101612b9f565b509056fe45524332305374616b696e6752657761726473446973747269627574696f6e3a20696e636f6e73697374656e7420636c61696d656420616d6f756e747345524332305374616b696e6752657761726473446973747269627574696f6e3a206e6f74207374617274656445524332305374616b696e6752657761726473446973747269627574696f6e3a20747269656420746f207769746864726177206e6f7468696e6745524332305374616b696e6752657761726473446973747269627574696f6e3a20696e73756666696369656e7420636c61696d61626c6520616d6f756e744f776e61626c653a206e6577206f776e657220697320746865207a65726f206164647265737345524332305374616b696e6752657761726473446973747269627574696f6e3a20696e636f6e73697374656e742072657761726420746f6b656e2f616d6f756e7445524332305374616b696e6752657761726473446973747269627574696f6e3a2077697468647261776e20616d6f756e742067726561746572207468616e2063757272656e74207374616b6545524332305374616b696e6752657761726473446973747269627574696f6e3a20696e76616c69642074696d65206475726174696f6e416464726573733a20696e73756666696369656e742062616c616e636520666f722063616c6c45524332305374616b696e6752657761726473446973747269627574696f6e3a20616c726561647920696e697469616c697a656445524332305374616b696e6752657761726473446973747269627574696f6e3a206e6f7420696e697469616c697a6564536166654d6174683a206d756c7469706c69636174696f6e206f766572666c6f774f776e61626c653a2063616c6c6572206973206e6f7420746865206f776e657245524332305374616b696e6752657761726473446973747269627574696f6e3a203020616464726573732061732072657761726420746f6b656e45524332305374616b696e6752657761726473446973747269627574696f6e3a206e6f2072657761726445524332305374616b696e6752657761726473446973747269627574696f6e3a20646973747269627574696f6e20616c7265616479207374617274656445524332305374616b696e6752657761726473446973747269627574696f6e3a20747269656420746f207374616b65206e6f7468696e6745524332305374616b696e6752657761726473446973747269627574696f6e3a20302061646472657373206173207374616b61626c6520746f6b656e45524332305374616b696e6752657761726473446973747269627574696f6e3a20616c726561647920656e64656445524332305374616b696e6752657761726473446973747269627574696f6e3a20696e76616c6964207374617274696e672074696d657374616d7045524332305374616b696e6752657761726473446973747269627574696f6e3a2066756e6473206c6f636b656420756e74696c2074686520646973747269627574696f6e20656e64735361666545524332303a204552433230206f7065726174696f6e20646964206e6f74207375636365656445524332305374616b696e6752657761726473446973747269627574696f6e3a206e6f2066756e64696e67a264697066735822122001e02e1c0b367a3a69db5641fff485011dca903ffed0290c98a384c3270e999064736f6c634300060c0033",
  "immutableReferences": {},
  "source": "// SPDX-License-Identifier: GPL-3.0\n\npragma solidity ^0.6.12;\n\nimport \"@openzeppelin/contracts/math/SafeMath.sol\";\nimport \"@openzeppelin/contracts/math/Math.sol\";\nimport \"@openzeppelin/contracts/token/ERC20/ERC20.sol\";\nimport \"@openzeppelin/contracts/token/ERC20/SafeERC20.sol\";\nimport \"@openzeppelin/contracts/access/Ownable.sol\";\n\ncontract ERC20StakingRewardsDistribution is Ownable {\n    using SafeMath for uint256;\n    using SafeMath for uint64;\n    using SafeERC20 for ERC20;\n\n    uint224 constant MULTIPLIER = 2**112;\n\n    ERC20[] public rewardTokens;\n    ERC20 public stakableToken;\n    mapping(address => uint256) public rewardAmount;\n    mapping(address => uint256) public stakedTokenAmount;\n    uint256 public totalStakedTokensAmount;\n    mapping(address => uint256) public rewardPerStakedToken;\n    uint64 public startingTimestamp;\n    uint64 public endingTimestamp;\n    uint64 public secondsDuration;\n    bool public locked;\n    bool public initialized;\n    uint64 public lastConsolidationTimestamp;\n    mapping(address => uint256) public recoverableUnassignedReward;\n    mapping(address => uint256) public totalClaimedRewards;\n\n    mapping(address => uint256) public stakedTokensOf;\n    mapping(address => mapping(address => uint256))\n        public consolidatedRewardsPerStakedToken;\n    mapping(address => mapping(address => uint256)) public earnedRewards;\n    mapping(address => mapping(address => uint256)) public claimedReward;\n\n    event Initialized(\n        address[] rewardsTokenAddresses,\n        address stakableTokenAddress,\n        uint256[] rewardsAmounts,\n        uint64 startingTimestamp,\n        uint64 endingTimestamp,\n        bool locked\n    );\n    event Canceled();\n    event Staked(address indexed staker, uint256 amount);\n    event Withdrawn(address indexed withdrawer, uint256 amount);\n    event Claimed(address indexed claimer, uint256[] amounts);\n    event Recovered(uint256[] amounts);\n\n    function getRewardTokens() external view returns (ERC20[] memory) {\n        return rewardTokens;\n    }\n\n    function getClaimedRewards(address _claimer)\n        external\n        view\n        returns (uint256[] memory)\n    {\n        uint256[] memory _claimedRewards = new uint256[](rewardTokens.length);\n        for (uint256 _i = 0; _i < rewardTokens.length; _i++) {\n            _claimedRewards[_i] = claimedReward[_claimer][\n                address(rewardTokens[_i])\n            ];\n        }\n        return _claimedRewards;\n    }\n\n    function initialize(\n        address[] calldata _rewardTokenAddresses,\n        address _stakableTokenAddress,\n        uint256[] calldata _rewardAmounts,\n        uint64 _startingTimestamp,\n        uint64 _endingTimestamp,\n        bool _locked\n    ) external onlyOwner onlyUninitialized {\n        require(\n            _startingTimestamp > block.timestamp,\n            \"ERC20StakingRewardsDistribution: invalid starting timestamp\"\n        );\n        require(\n            _endingTimestamp > _startingTimestamp,\n            \"ERC20StakingRewardsDistribution: invalid time duration\"\n        );\n        require(\n            _rewardTokenAddresses.length == _rewardAmounts.length,\n            \"ERC20StakingRewardsDistribution: inconsistent reward token/amount\"\n        );\n\n        secondsDuration = _endingTimestamp - _startingTimestamp;\n        // Initializing reward tokens and amounts\n        for (uint32 _i = 0; _i < _rewardTokenAddresses.length; _i++) {\n            address _rewardTokenAddress = _rewardTokenAddresses[_i];\n            uint256 _rewardAmount = _rewardAmounts[_i];\n            require(\n                _rewardTokenAddress != address(0),\n                \"ERC20StakingRewardsDistribution: 0 address as reward token\"\n            );\n            require(\n                _rewardAmount > 0,\n                \"ERC20StakingRewardsDistribution: no reward\"\n            );\n            ERC20 _rewardToken = ERC20(_rewardTokenAddress);\n            require(\n                _rewardToken.balanceOf(address(this)) >= _rewardAmount,\n                \"ERC20StakingRewardsDistribution: no funding\"\n            );\n            rewardTokens.push(_rewardToken);\n            rewardAmount[_rewardTokenAddress] = _rewardAmount;\n        }\n\n        require(\n            _stakableTokenAddress != address(0),\n            \"ERC20StakingRewardsDistribution: 0 address as stakable token\"\n        );\n        stakableToken = ERC20(_stakableTokenAddress);\n\n        startingTimestamp = _startingTimestamp;\n        endingTimestamp = _endingTimestamp;\n        lastConsolidationTimestamp = _startingTimestamp;\n        locked = _locked;\n\n        initialized = true;\n        emit Initialized(\n            _rewardTokenAddresses,\n            _stakableTokenAddress,\n            _rewardAmounts,\n            _startingTimestamp,\n            _endingTimestamp,\n            _locked\n        );\n    }\n\n    function cancel() external onlyInitialized onlyOwner {\n        require(\n            block.timestamp < startingTimestamp,\n            \"ERC20StakingRewardsDistribution: distribution already started\"\n        );\n        // resetting reward information (both tokens and amounts)\n        for (uint256 _i; _i < rewardTokens.length; _i++) {\n            ERC20 _rewardToken = rewardTokens[_i];\n            delete rewardAmount[address(_rewardToken)];\n            _rewardToken.safeTransfer(\n                owner(),\n                _rewardToken.balanceOf(address(this))\n            );\n        }\n        delete rewardTokens;\n        delete stakableToken;\n        startingTimestamp = 0;\n        endingTimestamp = 0;\n        lastConsolidationTimestamp = 0;\n        initialized = false;\n        locked = false;\n        emit Canceled();\n    }\n\n    function recoverUnassignedRewards() external onlyInitialized onlyStarted {\n        consolidateReward();\n        uint256 _numberOfRewardsTokens = rewardTokens.length;\n        uint256[] memory _recoveredUnassignedRewards =\n            new uint256[](_numberOfRewardsTokens);\n        for (uint256 _i; _i < _numberOfRewardsTokens; _i++) {\n            ERC20 _relatedRewardToken = rewardTokens[_i];\n            address _relatedRewardTokenAddress = address(_relatedRewardToken);\n            // recoverable rewards are going to be recovered in this tx (if it does not revert),\n            // so we add them to the claimed rewards right now\n            totalClaimedRewards[\n                _relatedRewardTokenAddress\n            ] = totalClaimedRewards[_relatedRewardTokenAddress].add(\n                recoverableUnassignedReward[_relatedRewardTokenAddress]\n            );\n            uint256 _requiredFunding =\n                rewardAmount[_relatedRewardTokenAddress].sub(\n                    totalClaimedRewards[_relatedRewardTokenAddress]\n                );\n            delete recoverableUnassignedReward[_relatedRewardTokenAddress];\n            uint256 _recoverableRewards =\n                _relatedRewardToken.balanceOf(address(this)).sub(\n                    _requiredFunding\n                );\n            _recoveredUnassignedRewards[_i] = _recoverableRewards;\n            _relatedRewardToken.safeTransfer(owner(), _recoverableRewards);\n        }\n        emit Recovered(_recoveredUnassignedRewards);\n    }\n\n    function stake(uint256 _amount)\n        external\n        onlyInitialized\n        onlyStarted\n        onlyRunning\n    {\n        require(\n            _amount > 0,\n            \"ERC20StakingRewardsDistribution: tried to stake nothing\"\n        );\n        consolidateReward();\n        stakedTokensOf[msg.sender] = stakedTokensOf[msg.sender].add(_amount);\n        totalStakedTokensAmount = totalStakedTokensAmount.add(_amount);\n        stakableToken.safeTransferFrom(msg.sender, address(this), _amount);\n        emit Staked(msg.sender, _amount);\n    }\n\n    function withdraw(uint256 _amount) public onlyInitialized onlyStarted {\n        require(\n            _amount > 0,\n            \"ERC20StakingRewardsDistribution: tried to withdraw nothing\"\n        );\n        if (locked) {\n            require(\n                block.timestamp > endingTimestamp,\n                \"ERC20StakingRewardsDistribution: funds locked until the distribution ends\"\n            );\n        }\n        consolidateReward();\n        require(\n            _amount <= stakedTokensOf[msg.sender],\n            \"ERC20StakingRewardsDistribution: withdrawn amount greater than current stake\"\n        );\n        stakedTokensOf[msg.sender] = stakedTokensOf[msg.sender].sub(_amount);\n        totalStakedTokensAmount = totalStakedTokensAmount.sub(_amount);\n        stakableToken.safeTransfer(msg.sender, _amount);\n        emit Withdrawn(msg.sender, _amount);\n    }\n\n    function claim(uint256[] memory _amounts, address _recipient)\n        external\n        onlyInitialized\n        onlyStarted\n    {\n        require(\n            _amounts.length == rewardTokens.length,\n            \"ERC20StakingRewardsDistribution: inconsistent claimed amounts\"\n        );\n        consolidateReward();\n        uint256[] memory _claimedRewards = new uint256[](rewardTokens.length);\n        for (uint256 _i; _i < rewardTokens.length; _i++) {\n            ERC20 _relatedRewardToken = rewardTokens[_i];\n            address _relatedRewardTokenAddress = address(_relatedRewardToken);\n            uint256 _claimableReward =\n                earnedRewards[msg.sender][_relatedRewardTokenAddress].sub(\n                    claimedReward[msg.sender][_relatedRewardTokenAddress]\n                );\n            uint256 _wantedAmount = _amounts[_i];\n            require(\n                _claimableReward >= _wantedAmount,\n                \"ERC20StakingRewardsDistribution: insufficient claimable amount\"\n            );\n            consolidateAndTransferClaim(\n                _relatedRewardToken,\n                _wantedAmount,\n                _recipient\n            );\n            _claimedRewards[_i] = _wantedAmount;\n        }\n        emit Claimed(msg.sender, _claimedRewards);\n    }\n\n    function claimAll(address _recipient) public onlyInitialized onlyStarted {\n        consolidateReward();\n        uint256[] memory _claimedRewards = new uint256[](rewardTokens.length);\n        for (uint256 _i; _i < rewardTokens.length; _i++) {\n            ERC20 _relatedRewardToken = rewardTokens[_i];\n            address _relatedRewardTokenAddress = address(_relatedRewardToken);\n            uint256 _claimableReward =\n                earnedRewards[msg.sender][_relatedRewardTokenAddress].sub(\n                    claimedReward[msg.sender][_relatedRewardTokenAddress]\n                );\n            consolidateAndTransferClaim(\n                _relatedRewardToken,\n                _claimableReward,\n                _recipient\n            );\n            _claimedRewards[_i] = _claimableReward;\n        }\n        emit Claimed(msg.sender, _claimedRewards);\n    }\n\n    function exit(address _recipient) external onlyInitialized onlyStarted {\n        consolidateReward();\n        claimAll(_recipient);\n        withdraw(stakedTokensOf[msg.sender]);\n    }\n\n    function consolidateAndTransferClaim(\n        ERC20 _rewardToken,\n        uint256 _amount,\n        address _recipient\n    ) private {\n        claimedReward[msg.sender][address(_rewardToken)] = claimedReward[\n            msg.sender\n        ][address(_rewardToken)]\n            .add(_amount);\n        totalClaimedRewards[address(_rewardToken)] = totalClaimedRewards[\n            address(_rewardToken)\n        ]\n            .add(_amount);\n        _rewardToken.safeTransfer(_recipient, _amount);\n    }\n\n    function consolidateReward() public onlyInitialized onlyStarted {\n        uint64 _consolidationTimestamp =\n            uint64(Math.min(block.timestamp, endingTimestamp));\n        uint256 _lastPeriodDuration =\n            uint256(_consolidationTimestamp.sub(lastConsolidationTimestamp));\n        for (uint256 _i; _i < rewardTokens.length; _i++) {\n            address _relatedRewardTokenAddress = address(rewardTokens[_i]);\n            if (totalStakedTokensAmount == 0) {\n                // If the current staked tokens amount is zero, there have been unassigned rewards in the last period.\n                // We add these unassigned rewards to the amount that can be claimed back by the contract's owner.\n                recoverableUnassignedReward[\n                    _relatedRewardTokenAddress\n                ] = recoverableUnassignedReward[_relatedRewardTokenAddress].add(\n                    _lastPeriodDuration\n                        .mul(rewardAmount[_relatedRewardTokenAddress])\n                        .div(secondsDuration)\n                );\n                rewardPerStakedToken[_relatedRewardTokenAddress] = 0;\n            } else {\n                rewardPerStakedToken[\n                    _relatedRewardTokenAddress\n                ] = rewardPerStakedToken[_relatedRewardTokenAddress].add(\n                    _lastPeriodDuration\n                        .mul(rewardAmount[_relatedRewardTokenAddress])\n                        .mul(MULTIPLIER)\n                        .div(totalStakedTokensAmount.mul(secondsDuration))\n                );\n            }\n            // avoids subtraction underflow. If the rewards per staked tokens are 0,\n            // the rewards in current period must be 0 by definition, no need to\n            // perform subtraction risking underflow.\n            uint256 _rewardInCurrentPeriod =\n                rewardPerStakedToken[_relatedRewardTokenAddress] > 0\n                    ? stakedTokensOf[msg.sender]\n                        .mul(\n                        rewardPerStakedToken[_relatedRewardTokenAddress].sub(\n                            consolidatedRewardsPerStakedToken[msg.sender][\n                                _relatedRewardTokenAddress\n                            ]\n                        )\n                    )\n                        .div(MULTIPLIER)\n                    : 0;\n            earnedRewards[msg.sender][\n                _relatedRewardTokenAddress\n            ] = earnedRewards[msg.sender][_relatedRewardTokenAddress].add(\n                _rewardInCurrentPeriod\n            );\n            consolidatedRewardsPerStakedToken[msg.sender][\n                _relatedRewardTokenAddress\n            ] = rewardPerStakedToken[_relatedRewardTokenAddress];\n        }\n        lastConsolidationTimestamp = _consolidationTimestamp;\n    }\n\n    function claimableRewards(address _staker)\n        public\n        view\n        returns (uint256[] memory)\n    {\n        uint256[] memory _outstandingRewards =\n            new uint256[](rewardTokens.length);\n        if (!initialized || block.timestamp < startingTimestamp) {\n            for (uint256 _i; _i < rewardTokens.length; _i++) {\n                _outstandingRewards[_i] = 0;\n            }\n            return _outstandingRewards;\n        }\n        uint64 _consolidationTimestamp =\n            uint64(Math.min(block.timestamp, endingTimestamp));\n        uint256 _lastPeriodDuration =\n            uint256(_consolidationTimestamp.sub(lastConsolidationTimestamp));\n        for (uint256 _i; _i < rewardTokens.length; _i++) {\n            address _relatedRewardTokenAddress = address(rewardTokens[_i]);\n            uint256 _localRewardPerStakedToken =\n                rewardPerStakedToken[_relatedRewardTokenAddress];\n            if (totalStakedTokensAmount == 0) {\n                _localRewardPerStakedToken = 0;\n            } else {\n                _localRewardPerStakedToken = _localRewardPerStakedToken.add(\n                    _lastPeriodDuration\n                        .mul(rewardAmount[_relatedRewardTokenAddress])\n                        .mul(MULTIPLIER)\n                        .div(totalStakedTokensAmount.mul(secondsDuration))\n                );\n            }\n            uint256 _rewardsInTheCurrentPeriod =\n                _localRewardPerStakedToken > 0\n                    ? stakedTokensOf[_staker]\n                        .mul(\n                        _localRewardPerStakedToken.sub(\n                            consolidatedRewardsPerStakedToken[_staker][\n                                _relatedRewardTokenAddress\n                            ]\n                        )\n                    )\n                        .div(MULTIPLIER)\n                    : 0;\n            // the claimable reward basically is the one not yet consolidated in the current period plus any\n            // previously consolidated/earned but unclaimed reward\n            _outstandingRewards[_i] = _rewardsInTheCurrentPeriod\n                .add(earnedRewards[_staker][_relatedRewardTokenAddress])\n                .sub(claimedReward[_staker][_relatedRewardTokenAddress]);\n        }\n        return _outstandingRewards;\n    }\n\n    modifier onlyUninitialized() {\n        require(\n            !initialized,\n            \"ERC20StakingRewardsDistribution: already initialized\"\n        );\n        _;\n    }\n\n    modifier onlyInitialized() {\n        require(\n            initialized,\n            \"ERC20StakingRewardsDistribution: not initialized\"\n        );\n        _;\n    }\n\n    modifier onlyStarted() {\n        require(\n            initialized && block.timestamp >= startingTimestamp,\n            \"ERC20StakingRewardsDistribution: not started\"\n        );\n        _;\n    }\n\n    modifier onlyRunning() {\n        require(\n            initialized && block.timestamp <= endingTimestamp,\n            \"ERC20StakingRewardsDistribution: already ended\"\n        );\n        _;\n    }\n}\n",
  "sourcePath": "/home/luzzif/Projects/swapr-lp-staker/contracts/ERC20StakingRewardsDistribution.sol",
  "compiler": {
    "name": "solc",
    "version": "0.6.12+commit.27d51765.Emscripten.clang"
  },
  "schemaVersion": "3.3.3",
  "updatedAt": "2021-03-16T20:03:20.684Z",
  "devdoc": {
    "kind": "dev",
    "methods": {
      "owner()": {
        "details": "Returns the address of the current owner."
      },
      "renounceOwnership()": {
        "details": "Leaves the contract without owner. It will not be possible to call `onlyOwner` functions anymore. Can only be called by the current owner. NOTE: Renouncing ownership will leave the contract without an owner, thereby removing any functionality that is only available to the owner."
      },
      "transferOwnership(address)": {
        "details": "Transfers ownership of the contract to a new account (`newOwner`). Can only be called by the current owner."
      }
    },
    "version": 1
  },
  "userdoc": {
    "kind": "user",
    "methods": {},
    "version": 1
  }
}