{
  "contractName": "ERC20StakingRewardsDistribution",
  "abi": [
    {
      "anonymous": false,
      "inputs": [],
      "name": "Canceled",
      "type": "event"
    },
    {
      "anonymous": false,
      "inputs": [
        {
          "indexed": true,
          "internalType": "address",
          "name": "claimer",
          "type": "address"
        },
        {
          "indexed": false,
          "internalType": "uint256[]",
          "name": "amounts",
          "type": "uint256[]"
        }
      ],
      "name": "Claimed",
      "type": "event"
    },
    {
      "anonymous": false,
      "inputs": [
        {
          "indexed": false,
          "internalType": "address[]",
          "name": "rewardsTokenAddresses",
          "type": "address[]"
        },
        {
          "indexed": false,
          "internalType": "address",
          "name": "stakableTokenAddress",
          "type": "address"
        },
        {
          "indexed": false,
          "internalType": "uint256[]",
          "name": "rewardsAmounts",
          "type": "uint256[]"
        },
        {
          "indexed": false,
          "internalType": "uint64",
          "name": "startingTimestamp",
          "type": "uint64"
        },
        {
          "indexed": false,
          "internalType": "uint64",
          "name": "endingTimestamp",
          "type": "uint64"
        },
        {
          "indexed": false,
          "internalType": "bool",
          "name": "locked",
          "type": "bool"
        },
        {
          "indexed": false,
          "internalType": "uint256",
          "name": "stakingCap",
          "type": "uint256"
        }
      ],
      "name": "Initialized",
      "type": "event"
    },
    {
      "anonymous": false,
      "inputs": [
        {
          "indexed": true,
          "internalType": "address",
          "name": "previousOwner",
          "type": "address"
        },
        {
          "indexed": true,
          "internalType": "address",
          "name": "newOwner",
          "type": "address"
        }
      ],
      "name": "OwnershipTransferred",
      "type": "event"
    },
    {
      "anonymous": false,
      "inputs": [
        {
          "indexed": false,
          "internalType": "uint256[]",
          "name": "amounts",
          "type": "uint256[]"
        }
      ],
      "name": "Recovered",
      "type": "event"
    },
    {
      "anonymous": false,
      "inputs": [
        {
          "indexed": true,
          "internalType": "address",
          "name": "staker",
          "type": "address"
        },
        {
          "indexed": false,
          "internalType": "uint256",
          "name": "amount",
          "type": "uint256"
        }
      ],
      "name": "Staked",
      "type": "event"
    },
    {
      "anonymous": false,
      "inputs": [
        {
          "indexed": true,
          "internalType": "address",
          "name": "withdrawer",
          "type": "address"
        },
        {
          "indexed": false,
          "internalType": "uint256",
          "name": "amount",
          "type": "uint256"
        }
      ],
      "name": "Withdrawn",
      "type": "event"
    },
    {
      "inputs": [],
      "name": "canceled",
      "outputs": [
        {
          "internalType": "bool",
          "name": "",
          "type": "bool"
        }
      ],
      "stateMutability": "view",
      "type": "function"
    },
    {
      "inputs": [],
      "name": "endingTimestamp",
      "outputs": [
        {
          "internalType": "uint64",
          "name": "",
          "type": "uint64"
        }
      ],
      "stateMutability": "view",
      "type": "function"
    },
    {
      "inputs": [],
      "name": "factory",
      "outputs": [
        {
          "internalType": "address",
          "name": "",
          "type": "address"
        }
      ],
      "stateMutability": "view",
      "type": "function"
    },
    {
      "inputs": [],
      "name": "initialized",
      "outputs": [
        {
          "internalType": "bool",
          "name": "",
          "type": "bool"
        }
      ],
      "stateMutability": "view",
      "type": "function"
    },
    {
      "inputs": [],
      "name": "lastConsolidationTimestamp",
      "outputs": [
        {
          "internalType": "uint64",
          "name": "",
          "type": "uint64"
        }
      ],
      "stateMutability": "view",
      "type": "function"
    },
    {
      "inputs": [],
      "name": "locked",
      "outputs": [
        {
          "internalType": "bool",
          "name": "",
          "type": "bool"
        }
      ],
      "stateMutability": "view",
      "type": "function"
    },
    {
      "inputs": [],
      "name": "owner",
      "outputs": [
        {
          "internalType": "address",
          "name": "",
          "type": "address"
        }
      ],
      "stateMutability": "view",
      "type": "function"
    },
    {
      "inputs": [
        {
          "internalType": "uint256",
          "name": "",
          "type": "uint256"
        }
      ],
      "name": "rewards",
      "outputs": [
        {
          "internalType": "address",
          "name": "token",
          "type": "address"
        },
        {
          "internalType": "uint256",
          "name": "amount",
          "type": "uint256"
        },
        {
          "internalType": "uint256",
          "name": "perStakedToken",
          "type": "uint256"
        },
        {
          "internalType": "uint256",
          "name": "recoverableSeconds",
          "type": "uint256"
        },
        {
          "internalType": "uint256",
          "name": "claimed",
          "type": "uint256"
        }
      ],
      "stateMutability": "view",
      "type": "function"
    },
    {
      "inputs": [],
      "name": "secondsDuration",
      "outputs": [
        {
          "internalType": "uint64",
          "name": "",
          "type": "uint64"
        }
      ],
      "stateMutability": "view",
      "type": "function"
    },
    {
      "inputs": [],
      "name": "stakableToken",
      "outputs": [
        {
          "internalType": "contract IERC20",
          "name": "",
          "type": "address"
        }
      ],
      "stateMutability": "view",
      "type": "function"
    },
    {
      "inputs": [
        {
          "internalType": "address",
          "name": "",
          "type": "address"
        }
      ],
      "name": "stakers",
      "outputs": [
        {
          "internalType": "uint256",
          "name": "stake",
          "type": "uint256"
        }
      ],
      "stateMutability": "view",
      "type": "function"
    },
    {
      "inputs": [],
      "name": "stakingCap",
      "outputs": [
        {
          "internalType": "uint256",
          "name": "",
          "type": "uint256"
        }
      ],
      "stateMutability": "view",
      "type": "function"
    },
    {
      "inputs": [],
      "name": "startingTimestamp",
      "outputs": [
        {
          "internalType": "uint64",
          "name": "",
          "type": "uint64"
        }
      ],
      "stateMutability": "view",
      "type": "function"
    },
    {
      "inputs": [],
      "name": "totalStakedTokensAmount",
      "outputs": [
        {
          "internalType": "uint256",
          "name": "",
          "type": "uint256"
        }
      ],
      "stateMutability": "view",
      "type": "function"
    },
    {
      "inputs": [
        {
          "internalType": "address[]",
          "name": "_rewardTokenAddresses",
          "type": "address[]"
        },
        {
          "internalType": "address",
          "name": "_stakableTokenAddress",
          "type": "address"
        },
        {
          "internalType": "uint256[]",
          "name": "_rewardAmounts",
          "type": "uint256[]"
        },
        {
          "internalType": "uint64",
          "name": "_startingTimestamp",
          "type": "uint64"
        },
        {
          "internalType": "uint64",
          "name": "_endingTimestamp",
          "type": "uint64"
        },
        {
          "internalType": "bool",
          "name": "_locked",
          "type": "bool"
        },
        {
          "internalType": "uint256",
          "name": "_stakingCap",
          "type": "uint256"
        }
      ],
      "name": "initialize",
      "outputs": [],
      "stateMutability": "nonpayable",
      "type": "function"
    },
    {
      "inputs": [],
      "name": "cancel",
      "outputs": [],
      "stateMutability": "nonpayable",
      "type": "function"
    },
    {
      "inputs": [],
      "name": "recoverUnassignedRewards",
      "outputs": [],
      "stateMutability": "nonpayable",
      "type": "function"
    },
    {
      "inputs": [
        {
          "internalType": "uint256",
          "name": "_amount",
          "type": "uint256"
        }
      ],
      "name": "stake",
      "outputs": [],
      "stateMutability": "nonpayable",
      "type": "function"
    },
    {
      "inputs": [
        {
          "internalType": "uint256",
          "name": "_amount",
          "type": "uint256"
        }
      ],
      "name": "withdraw",
      "outputs": [],
      "stateMutability": "nonpayable",
      "type": "function"
    },
    {
      "inputs": [
        {
          "internalType": "uint256[]",
          "name": "_amounts",
          "type": "uint256[]"
        },
        {
          "internalType": "address",
          "name": "_recipient",
          "type": "address"
        }
      ],
      "name": "claim",
      "outputs": [],
      "stateMutability": "nonpayable",
      "type": "function"
    },
    {
      "inputs": [
        {
          "internalType": "address",
          "name": "_recipient",
          "type": "address"
        }
      ],
      "name": "claimAll",
      "outputs": [],
      "stateMutability": "nonpayable",
      "type": "function"
    },
    {
      "inputs": [
        {
          "internalType": "address",
          "name": "_recipient",
          "type": "address"
        }
      ],
      "name": "exit",
      "outputs": [],
      "stateMutability": "nonpayable",
      "type": "function"
    },
    {
      "inputs": [
        {
          "internalType": "address",
          "name": "_account",
          "type": "address"
        }
      ],
      "name": "claimableRewards",
      "outputs": [
        {
          "internalType": "uint256[]",
          "name": "",
          "type": "uint256[]"
        }
      ],
      "stateMutability": "view",
      "type": "function"
    },
    {
      "inputs": [],
      "name": "getRewardTokens",
      "outputs": [
        {
          "internalType": "address[]",
          "name": "",
          "type": "address[]"
        }
      ],
      "stateMutability": "view",
      "type": "function"
    },
    {
      "inputs": [
        {
          "internalType": "address",
          "name": "_rewardToken",
          "type": "address"
        }
      ],
      "name": "rewardAmount",
      "outputs": [
        {
          "internalType": "uint256",
          "name": "",
          "type": "uint256"
        }
      ],
      "stateMutability": "view",
      "type": "function"
    },
    {
      "inputs": [
        {
          "internalType": "address",
          "name": "_staker",
          "type": "address"
        }
      ],
      "name": "stakedTokensOf",
      "outputs": [
        {
          "internalType": "uint256",
          "name": "",
          "type": "uint256"
        }
      ],
      "stateMutability": "view",
      "type": "function"
    },
    {
      "inputs": [
        {
          "internalType": "address",
          "name": "_staker",
          "type": "address"
        }
      ],
      "name": "earnedRewardsOf",
      "outputs": [
        {
          "internalType": "uint256[]",
          "name": "",
          "type": "uint256[]"
        }
      ],
      "stateMutability": "view",
      "type": "function"
    },
    {
      "inputs": [
        {
          "internalType": "address",
          "name": "_rewardToken",
          "type": "address"
        }
      ],
      "name": "recoverableUnassignedReward",
      "outputs": [
        {
          "internalType": "uint256",
          "name": "",
          "type": "uint256"
        }
      ],
      "stateMutability": "view",
      "type": "function"
    },
    {
      "inputs": [
        {
          "internalType": "address",
          "name": "_claimer",
          "type": "address"
        }
      ],
      "name": "getClaimedRewards",
      "outputs": [
        {
          "internalType": "uint256[]",
          "name": "",
          "type": "uint256[]"
        }
      ],
      "stateMutability": "view",
      "type": "function"
    },
    {
      "inputs": [],
      "name": "renounceOwnership",
      "outputs": [],
      "stateMutability": "nonpayable",
      "type": "function"
    },
    {
      "inputs": [
        {
          "internalType": "address",
          "name": "_newOwner",
          "type": "address"
        }
      ],
      "name": "transferOwnership",
      "outputs": [],
      "stateMutability": "nonpayable",
      "type": "function"
    }
  ],
  "bytecode": "0x608060405234801561001057600080fd5b50612b3f806100206000396000f3fe608060405234801561001057600080fd5b50600436106101e55760003560e01c80639168ae721161010f578063c45a0155116100a2578063e644067d11610071578063e644067d1461046b578063ea8a1af014610473578063f2fde38b1461047b578063f301af421461048e57600080fd5b8063c45a01551461041c578063c4f59f9b1461042f578063cf30901214610444578063dc01f60d1461045857600080fd5b8063b41fa979116100de578063b41fa979146103d3578063b42652e9146103dc578063b9e35db0146103ef578063c10de3001461040257600080fd5b80639168ae72146103575780639322776e14610377578063a694fc3a14610397578063ab08d4fc146103aa57600080fd5b80635e5294b71161018757806377329f351161015657806377329f351461030b578063887862721461031e5780638c574b48146103315780638da5cb5b1461034457600080fd5b80635e5294b7146102a45780635fa35023146102d6578063645a8a56146102f0578063715018a61461030357600080fd5b80632e1a7d4d116101c35780632e1a7d4d146102535780633b34ee50146102665780633f9942ff1461028757806344c370d31461029b57600080fd5b8063158ef93e146101ea5780631c96c3fb1461021357806323a26e361461023e575b600080fd5b6005546101fe90600160b01b900460ff1681565b60405190151581526020015b60405180910390f35b600354610226906001600160a01b031681565b6040516001600160a01b03909116815260200161020a565b61025161024c3660046125e1565b6104d3565b005b610251610261366004612795565b610a02565b6102796102743660046125c6565b610bbe565b60405190815260200161020a565b6005546101fe90600160a81b900460ff1681565b61027960075481565b6002546102be90600160401b90046001600160401b031681565b6040516001600160401b03909116815260200161020a565b6002546102be90600160801b90046001600160401b031681565b6102796102fe3660046125c6565b610d15565b610251610d7d565b6102516103193660046125c6565b610de6565b6002546102be906001600160401b031681565b61025161033f3660046126a2565b611015565b600454610226906001600160a01b031681565b6102796103653660046125c6565b60016020526000908152604090205481565b61038a6103853660046125c6565b6112d6565b60405161020a919061290d565b6102516103a5366004612795565b6113c2565b6102796103b83660046125c6565b6001600160a01b031660009081526001602052604090205490565b61027960065481565b6102516103ea3660046125c6565b611625565b61038a6103fd3660046125c6565b6116a0565b6002546102be90600160c01b90046001600160401b031681565b600554610226906001600160a01b031681565b610437611787565b60405161020a91906128c0565b6005546101fe90600160a01b900460ff1681565b61038a6104663660046125c6565b611853565b610251611abf565b610251611d6b565b6102516104893660046125c6565b611f4f565b6104a161049c366004612795565b612013565b604080516001600160a01b0390961686526020860194909452928401919091526060830152608082015260a00161020a565b600554600160b01b900460ff161561051a5760405162461bcd60e51b81526020600482015260056024820152640a6a48862760db1b60448201526064015b60405180910390fd5b42846001600160401b03161161055a5760405162461bcd60e51b8152602060048201526005602482015264535244303160d81b6044820152606401610511565b836001600160401b0316836001600160401b0316116105a35760405162461bcd60e51b815260206004820152600560248201526429a922181960d91b6044820152606401610511565b8785146105da5760405162461bcd60e51b8152602060048201526005602482015264535244303360d81b6044820152606401610511565b6105e48484612a26565b600260106101000a8154816001600160401b0302191690836001600160401b0316021790555060005b63ffffffff81168911156108c15760008a8a8363ffffffff1681811061063557610635612acf565b905060200201602081019061064a91906125c6565b9050600088888463ffffffff1681811061066657610666612acf565b60200291909101359150506001600160a01b0382166106af5760405162461bcd60e51b815260206004820152600560248201526414d4910c0d60da1b6044820152606401610511565b600081116106e75760405162461bcd60e51b8152602060048201526005602482015264535244303560d81b6044820152606401610511565b6040516370a0823160e01b8152306004820152829082906001600160a01b038316906370a082319060240160206040518083038186803b15801561072a57600080fd5b505afa15801561073e573d6000803e3d6000fd5b505050506040513d601f19601f8201168201806040525081019061076291906127ae565b10156107985760405162461bcd60e51b815260206004820152600560248201526429a922181b60d91b6044820152606401610511565b506040805160a0810182526001600160a01b0393841681526020810192835260009181018281526060820183815260808301848152845460018101865594805292517f290decd9548b62a8d60345a988386fc84ba6bc95484008f6362f93160ef3e563600590950294850180546001600160a01b031916919097161790955592517f290decd9548b62a8d60345a988386fc84ba6bc95484008f6362f93160ef3e56483015591517f290decd9548b62a8d60345a988386fc84ba6bc95484008f6362f93160ef3e56582015591517f290decd9548b62a8d60345a988386fc84ba6bc95484008f6362f93160ef3e566830155517f290decd9548b62a8d60345a988386fc84ba6bc95484008f6362f93160ef3e56790910155806108b981612a95565b91505061060d565b506001600160a01b0387166109005760405162461bcd60e51b8152602060048201526005602482015264535244303760d81b6044820152606401610511565b600380546001600160a01b03199081166001600160a01b038a1617909155600480543392168217905560058054600280546fffffffffffffffffffffffffffffffff19166001600160401b03898116918217600160401b918a1691909102176001600160c01b0316600160c01b919091021790556007849055600160b01b6001600160a81b031990911660ff60a01b1990931692909217600160a01b851515021761ffff60a81b19169190911790556040517f2c1fa4f0e3f1c67636ee0b3665bf3a04407a2c1332d4e3e99f941ee2b0b9daf4906109ef908b908b908b908b908b908b908b908b908b90612819565b60405180910390a1505050505050505050565b600554600160b01b900460ff168015610a255750600554600160a81b900460ff16155b8015610a3c57506002546001600160401b03164210155b610a585760405162461bcd60e51b815260040161051190612978565b60008111610a905760405162461bcd60e51b8152602060048201526005602482015264535244313160d81b6044820152606401610511565b600554600160a01b900460ff1615610aeb57600254600160401b90046001600160401b03164211610aeb5760405162461bcd60e51b815260206004820152600560248201526429a922189960d91b6044820152606401610511565b610af361205e565b3360009081526001602052604090208054821115610b3b5760405162461bcd60e51b8152602060048201526005602482015264535244313360d81b6044820152606401610511565b81816000016000828254610b4f9190612a0f565b925050819055508160066000828254610b689190612a0f565b9091555050600354610b84906001600160a01b03163384612240565b60405182815233907f7084f5476618d8e60b11ef0d7d3f06914655adb8793e28ff7f018d4c76d505d5906020015b60405180910390a25050565b6000805b600054811015610d0c576000808281548110610be057610be0612acf565b6000918252602090912060059091020180549091506001600160a01b0385811691161415610cf957600254600090610c2d90600160701b90600160801b90046001600160401b03166129f0565b82600101548360030154610c4191906129f0565b610c4b91906129ce565b8260040154610c5a91906129b6565b9050808260010154610c6c9190612a0f565b82546040516370a0823160e01b81523060048201526001600160a01b03909116906370a082319060240160206040518083038186803b158015610cae57600080fd5b505afa158015610cc2573d6000803e3d6000fd5b505050506040513d601f19601f82011682018060405250810190610ce691906127ae565b610cf09190612a0f565b95945050505050565b5080610d0481612a7a565b915050610bc2565b50600092915050565b6000805b600054811015610d0c576000808281548110610d3757610d37612acf565b6000918252602090912060059091020180549091506001600160a01b0385811691161415610d6a57600101549392505050565b5080610d7581612a7a565b915050610d19565b6004546001600160a01b03163314610da75760405162461bcd60e51b815260040161051190612997565b600480546001600160a01b031916905560405160009081907f8be0079c531659141344cd1fd0a4f28419497f9722a3daafe3b4186f6b6457e0908290a3565b600554600160b01b900460ff168015610e095750600554600160a81b900460ff16155b8015610e2057506002546001600160401b03164210155b610e3c5760405162461bcd60e51b815260040161051190612978565b610e4461205e565b33600090815260016020526040812081549091906001600160401b03811115610e6f57610e6f612ae5565b604051908082528060200260200182016040528015610e98578160200160208202803683370190505b5090506000805b600054811015610f98576000808281548110610ebd57610ebd612acf565b60009182526020808320600590920290910180546001600160a01b031683526001808901909252604083206002810154928101549194509291610eff91612a0f565b905084158015610f0f5750600081115b15610f1957600194505b80826002016000828254610f2d91906129b6565b9250508190555080836004016000828254610f4891906129b6565b90915550508254610f63906001600160a01b03168983612240565b80868581518110610f7657610f76612acf565b6020026020010181815250505050508080610f9090612a7a565b915050610e9f565b5080610fce5760405162461bcd60e51b8152602060048201526005602482015264535244323360d81b6044820152606401610511565b336001600160a01b03167f28ee566bdecaf975c0979f4d09fecf91a9009ffe78523aef053a678134137b8b83604051611007919061290d565b60405180910390a250505050565b600554600160b01b900460ff1680156110385750600554600160a81b900460ff16155b801561104f57506002546001600160401b03164210155b61106b5760405162461bcd60e51b815260040161051190612978565b6000548251146110a55760405162461bcd60e51b815260206004820152600560248201526414d4910c4d60da1b6044820152606401610511565b6110ad61205e565b33600090815260016020526040812081549091906001600160401b038111156110d8576110d8612ae5565b604051908082528060200260200182016040528015611101578160200160208202803683370190505b5090506000805b60005481101561125857600080828154811061112657611126612acf565b60009182526020808320600590920290910180546001600160a01b03168352600180890190925260408320600281015492810154919450929161116891612a0f565b9050600089858151811061117e5761117e612acf565b60200260200101519050808210156111c05760405162461bcd60e51b8152602060048201526005602482015264535244313560d81b6044820152606401610511565b851580156111ce5750600081115b156111d857600195505b808360020160008282546111ec91906129b6565b925050819055508084600401600082825461120791906129b6565b90915550508354611222906001600160a01b03168a83612240565b8087868151811061123557611235612acf565b60200260200101818152505050505050808061125090612a7a565b915050611108565b508061128e5760405162461bcd60e51b815260206004820152600560248201526414d4910c8d60da1b6044820152606401610511565b336001600160a01b03167f28ee566bdecaf975c0979f4d09fecf91a9009ffe78523aef053a678134137b8b836040516112c7919061290d565b60405180910390a25050505050565b6001600160a01b03811660009081526001602052604081208154606092906001600160401b0381111561130b5761130b612ae5565b604051908082528060200260200182016040528015611334578160200160208202803683370190505b50905060005b6000548110156113ba5782600101600080838154811061135c5761135c612acf565b600091825260208083206005909202909101546001600160a01b03168352820192909252604001902060010154825183908390811061139d5761139d612acf565b6020908102919091010152806113b281612a7a565b91505061133a565b509392505050565b600554600160b01b900460ff1680156113e55750600554600160a81b900460ff16155b80156113fc57506002546001600160401b03164210155b801561141a5750600254600160401b90046001600160401b03164211155b61144e5760405162461bcd60e51b8152602060048201526005602482015264535244323160d81b6044820152606401610511565b600560009054906101000a90046001600160a01b03166001600160a01b031663bbb781cc6040518163ffffffff1660e01b8152600401602060405180830381600087803b15801561149e57600080fd5b505af11580156114b2573d6000803e3d6000fd5b505050506040513d601f19601f820116820180604052508101906114d69190612778565b1561150b5760405162461bcd60e51b8152602060048201526005602482015264535244323560d81b6044820152606401610511565b600081116115435760405162461bcd60e51b8152602060048201526005602482015264535244303960d81b6044820152606401610511565b60075415611592576007548160065461155c91906129b6565b11156115925760405162461bcd60e51b8152602060048201526005602482015264053524431360dc1b6044820152606401610511565b61159a61205e565b3360009081526001602052604081208054909183918391906115bd9084906129b6565b9250508190555081600660008282546115d691906129b6565b90915550506003546115f3906001600160a01b03163330856122a8565b60405182815233907f9e71bc8eea02a63969f509818f2dafb9254532904319f9dbda79b67bd34a5f3d90602001610bb2565b600554600160b01b900460ff1680156116485750600554600160a81b900460ff16155b801561165f57506002546001600160401b03164210155b61167b5760405162461bcd60e51b815260040161051190612978565b61168481610de6565b3360009081526001602052604090205461169d90610a02565b50565b6001600160a01b03811660009081526001602052604081208154606092906001600160401b038111156116d5576116d5612ae5565b6040519080825280602002602001820160405280156116fe578160200160208202803683370190505b50905060005b6000548110156113ba57600080828154811061172257611722612acf565b60009182526020808320600590920290910180546001600160a01b031683526001870190915260409091206002015484519192509084908490811061176957611769612acf565b6020908102919091010152508061177f81612a7a565b915050611704565b60008054606091906001600160401b038111156117a6576117a6612ae5565b6040519080825280602002602001820160405280156117cf578160200160208202803683370190505b50905060005b60005481101561184d57600081815481106117f2576117f2612acf565b600091825260209091206005909102015482516001600160a01b039091169083908390811061182357611823612acf565b6001600160a01b03909216602092830291909101909101528061184581612a7a565b9150506117d5565b50919050565b60008054606091906001600160401b0381111561187257611872612ae5565b60405190808252806020026020018201604052801561189b578160200160208202803683370190505b50600554909150600160b01b900460ff1615806118c257506002546001600160401b031642105b1561190c5760005b6000548110156119055760008282815181106118e8576118e8612acf565b6020908102919091010152806118fd81612a7a565b9150506118ca565b5092915050565b6001600160a01b0383166000908152600160205260408120600254909190611945904290600160401b90046001600160401b03166122e6565b60025490915060009061196890600160c01b90046001600160401b031683612a26565b6001600160401b0316905060005b600054811015611ab457600080828154811061199457611994612acf565b60009182526020808320600590920290910180546001600160a01b0316835260018801909152604090912060028201549192509084158015906119d957506000600654115b15611a34576002546006546119fe91600160801b90046001600160401b0316906129f0565b6001840154600160701b90611a1390886129f0565b611a1d91906129f0565b611a2791906129ce565b611a3190826129b6565b90505b8154600090600160701b90611a499084612a0f565b8954611a5591906129f0565b611a5f91906129ce565b905082600201548360010154611a759190612a0f565b611a7f90826129b6565b898681518110611a9157611a91612acf565b602002602001018181525050505050508080611aac90612a7a565b915050611976565b509295945050505050565b600554600160b01b900460ff168015611ae25750600554600160a81b900460ff16155b8015611af957506002546001600160401b03164210155b611b155760405162461bcd60e51b815260040161051190612978565b611b1d61205e565b600080546001600160401b03811115611b3857611b38612ae5565b604051908082528060200260200182016040528015611b61578160200160208202803683370190505b5090506000805b600054811015611cfa576000808281548110611b8657611b86612acf565b600091825260209091206002546005909202019150611bba90600160701b90600160801b90046001600160401b03166129f0565b81600101548260030154611bce91906129f0565b611bd891906129ce565b816004016000828254611beb91906129b6565b909155505060006003820181905560048201546001830154611c0d9190612a0f565b82546040516370a0823160e01b81523060048201526001600160a01b03909116906370a082319060240160206040518083038186803b158015611c4f57600080fd5b505afa158015611c63573d6000803e3d6000fd5b505050506040513d601f19601f82011682018060405250810190611c8791906127ae565b611c919190612a0f565b905083158015611ca15750600081115b15611cab57600193505b80858481518110611cbe57611cbe612acf565b60209081029190910101526004548254611ce5916001600160a01b03918216911683612240565b50508080611cf290612a7a565b915050611b68565b5080611d305760405162461bcd60e51b815260206004820152600560248201526429a922191960d91b6044820152606401610511565b7ff904fafa600a7e4e8039f3a5497d1b6016772e3060f87d3e40f911b315f00bd182604051611d5f919061290d565b60405180910390a15050565b6004546001600160a01b03163314611d955760405162461bcd60e51b815260040161051190612997565b600554600160b01b900460ff168015611db85750600554600160a81b900460ff16155b611dec5760405162461bcd60e51b8152602060048201526005602482015264535244313960d81b6044820152606401610511565b6002546001600160401b03164210611e2e5760405162461bcd60e51b81526020600482015260056024820152640a6a48860760db1b6044820152606401610511565b60005b600054811015611f10576000808281548110611e4f57611e4f612acf565b6000918252602090912060048054600590930290910180546040516370a0823160e01b81523093810193909352909350611efd926001600160a01b03908116929116906370a082319060240160206040518083038186803b158015611eb357600080fd5b505afa158015611ec7573d6000803e3d6000fd5b505050506040513d601f19601f82011682018060405250810190611eeb91906127ae565b83546001600160a01b03169190612240565b5080611f0881612a7a565b915050611e31565b506005805460ff60a81b1916600160a81b1790556040517f1afb0ae590df277bcb3a37f88612725bf1f7df4755792b1548a7efe77985ff7790600090a1565b6004546001600160a01b03163314611f795760405162461bcd60e51b815260040161051190612997565b6001600160a01b038116611fb75760405162461bcd60e51b815260206004820152600560248201526429a922189b60d91b6044820152606401610511565b6004546040516001600160a01b038084169216907f8be0079c531659141344cd1fd0a4f28419497f9722a3daafe3b4186f6b6457e090600090a3600480546001600160a01b0319166001600160a01b0392909216919091179055565b6000818154811061202357600080fd5b6000918252602090912060059091020180546001820154600283015460038401546004909401546001600160a01b0390931694509092909185565b60025460009061207f904290600160401b90046001600160401b03166122e6565b6002549091506000906120a290600160c01b90046001600160401b031683612a26565b3360009081526001602052604081206001600160401b039290921692505b6000548110156122145760008082815481106120de576120de612acf565b60009182526020808320600590920290910180546001600160a01b0316835260018601909152604090912090915084156121a75760065461214557612127600160701b866129f0565b82600301600082825461213a91906129b6565b909155506121a79050565b60025460065461216591600160801b90046001600160401b0316906129f0565b6001830154600160701b9061217a90886129f0565b61218491906129f0565b61218e91906129ce565b8260020160008282546121a191906129b6565b90915550505b80546002830154600091600160701b916121c19190612a0f565b86546121cd91906129f0565b6121d791906129ce565b905080156121f957808260010160008282546121f391906129b6565b90915550505b5060029091015490558061220c81612a7a565b9150506120c0565b5050600280546001600160401b03909316600160c01b026001600160c01b039093169290921790915550565b6040516001600160a01b0383166024820152604481018290526122a390849063a9059cbb60e01b906064015b60408051601f198184030181529190526020810180516001600160e01b03166001600160e01b0319909316929092179091526122fe565b505050565b6040516001600160a01b03808516602483015283166044820152606481018290526122e09085906323b872dd60e01b9060840161226c565b50505050565b60008183106122f557816122f7565b825b9392505050565b6000612353826040518060400160405280602081526020017f5361666545524332303a206c6f772d6c6576656c2063616c6c206661696c6564815250856001600160a01b03166123d09092919063ffffffff16565b8051909150156122a357808060200190518101906123719190612778565b6122a35760405162461bcd60e51b815260206004820152602a60248201527f5361666545524332303a204552433230206f7065726174696f6e20646964206e6044820152691bdd081cdd58d8d9595960b21b6064820152608401610511565b60606123df84846000856123e7565b949350505050565b6060824710156124485760405162461bcd60e51b815260206004820152602660248201527f416464726573733a20696e73756666696369656e742062616c616e636520666f6044820152651c8818d85b1b60d21b6064820152608401610511565b843b6124965760405162461bcd60e51b815260206004820152601d60248201527f416464726573733a2063616c6c20746f206e6f6e2d636f6e74726163740000006044820152606401610511565b600080866001600160a01b031685876040516124b291906127fd565b60006040518083038185875af1925050503d80600081146124ef576040519150601f19603f3d011682016040523d82523d6000602084013e6124f4565b606091505b509150915061250482828661250f565b979650505050505050565b6060831561251e5750816122f7565b82511561252e5782518084602001fd5b8160405162461bcd60e51b81526004016105119190612945565b80356001600160a01b038116811461255f57600080fd5b919050565b60008083601f84011261257657600080fd5b5081356001600160401b0381111561258d57600080fd5b6020830191508360208260051b85010111156125a857600080fd5b9250929050565b80356001600160401b038116811461255f57600080fd5b6000602082840312156125d857600080fd5b6122f782612548565b600080600080600080600080600060e08a8c0312156125ff57600080fd5b89356001600160401b038082111561261657600080fd5b6126228d838e01612564565b909b50995089915061263660208d01612548565b985060408c013591508082111561264c57600080fd5b506126598c828d01612564565b909750955061266c905060608b016125af565b935061267a60808b016125af565b925060a08a013561268a81612afb565b8092505060c08a013590509295985092959850929598565b600080604083850312156126b557600080fd5b82356001600160401b03808211156126cc57600080fd5b818501915085601f8301126126e057600080fd5b81356020828211156126f4576126f4612ae5565b8160051b604051601f19603f8301168101818110868211171561271957612719612ae5565b604052838152828101945085830182870184018b101561273857600080fd5b600096505b8487101561275b57803586526001969096019594830194830161273d565b50965061276b9050878201612548565b9450505050509250929050565b60006020828403121561278a57600080fd5b81516122f781612afb565b6000602082840312156127a757600080fd5b5035919050565b6000602082840312156127c057600080fd5b5051919050565b81835260006001600160fb1b038311156127e057600080fd5b8260051b8083602087013760009401602001938452509192915050565b6000825161280f818460208701612a4e565b9190910192915050565b60e0808252810189905260008a6101008301825b8c81101561285b576001600160a01b0361284684612548565b1682526020928301929091019060010161282d565b506001600160a01b038b166020850152838103604085015261287e818a8c6127c7565b9250505061289760608301876001600160401b03169052565b6001600160401b0394909416608082015291151560a083015260c0909101529695505050505050565b6020808252825182820181905260009190848201906040850190845b818110156129015783516001600160a01b0316835292840192918401916001016128dc565b50909695505050505050565b6020808252825182820181905260009190848201906040850190845b8181101561290157835183529284019291840191600101612929565b6020815260008251806020840152612964816040850160208701612a4e565b601f01601f19169190910160400192915050565b602080825260059082015264053524432360dc1b604082015260600190565b602080825260059082015264535244313760d81b604082015260600190565b600082198211156129c9576129c9612ab9565b500190565b6000826129eb57634e487b7160e01b600052601260045260246000fd5b500490565b6000816000190483118215151615612a0a57612a0a612ab9565b500290565b600082821015612a2157612a21612ab9565b500390565b60006001600160401b0383811690831681811015612a4657612a46612ab9565b039392505050565b60005b83811015612a69578181015183820152602001612a51565b838111156122e05750506000910152565b6000600019821415612a8e57612a8e612ab9565b5060010190565b600063ffffffff80831681811415612aaf57612aaf612ab9565b6001019392505050565b634e487b7160e01b600052601160045260246000fd5b634e487b7160e01b600052603260045260246000fd5b634e487b7160e01b600052604160045260246000fd5b801515811461169d57600080fdfea2646970667358221220067048714867e8b12565b8850ce519e2d2b23a6cb9f18a74b6ab868fed792f8864736f6c63430008070033",
  "immutableReferences": {},
  "source": "// SPDX-License-Identifier: GPL-3.0\n\npragma solidity ^0.8.4;\n\nimport \"@openzeppelin/contracts/utils/math/Math.sol\";\nimport \"@openzeppelin/contracts/token/ERC20/IERC20.sol\";\nimport \"@openzeppelin/contracts/token/ERC20/utils/SafeERC20.sol\";\nimport \"./interfaces/IERC20StakingRewardsDistributionFactory.sol\";\n\n/**\n * Errors codes:\n *\n * SRD01: invalid starting timestamp\n * SRD02: invalid time duration\n * SRD03: inconsistent reward token/amount\n * SRD04: 0 address as reward token\n * SRD05: no reward\n * SRD06: no funding\n * SRD07: 0 address as stakable token\n * SRD08: distribution already started\n * SRD09: tried to stake nothing\n * SRD10: staking cap hit\n * SRD11: tried to withdraw nothing\n * SRD12: funds locked until the distribution ends\n * SRD13: withdrawn amount greater than current stake\n * SRD14: inconsistent claimed amounts\n * SRD15: insufficient claimable amount\n * SRD16: 0 address owner\n * SRD17: caller not owner\n * SRD18: already initialized\n * SRD19: invalid state for cancel to be called\n * SRD20: not started\n * SRD21: already ended\n * SRD22: no rewards are recoverable\n * SRD23: no rewards are claimable while claiming all\n * SRD24: no rewards are claimable while manually claiming an arbitrary amount of rewards\n * SRD25: staking is currently paused\n */\ncontract ERC20StakingRewardsDistribution {\n    using SafeERC20 for IERC20;\n\n    uint224 constant MULTIPLIER = 2**112;\n\n    struct Reward {\n        address token;\n        uint256 amount;\n        uint256 perStakedToken;\n        uint256 recoverableSeconds;\n        uint256 claimed;\n    }\n\n    struct StakerRewardInfo {\n        uint256 consolidatedPerStakedToken;\n        uint256 earned;\n        uint256 claimed;\n    }\n\n    struct Staker {\n        uint256 stake;\n        mapping(address => StakerRewardInfo) rewardInfo;\n    }\n\n    Reward[] public rewards;\n    mapping(address => Staker) public stakers;\n    uint64 public startingTimestamp;\n    uint64 public endingTimestamp;\n    uint64 public secondsDuration;\n    uint64 public lastConsolidationTimestamp;\n    IERC20 public stakableToken;\n    address public owner;\n    address public factory;\n    bool public locked;\n    bool public canceled;\n    bool public initialized;\n    uint256 public totalStakedTokensAmount;\n    uint256 public stakingCap;\n\n    event OwnershipTransferred(\n        address indexed previousOwner,\n        address indexed newOwner\n    );\n    event Initialized(\n        address[] rewardsTokenAddresses,\n        address stakableTokenAddress,\n        uint256[] rewardsAmounts,\n        uint64 startingTimestamp,\n        uint64 endingTimestamp,\n        bool locked,\n        uint256 stakingCap\n    );\n    event Canceled();\n    event Staked(address indexed staker, uint256 amount);\n    event Withdrawn(address indexed withdrawer, uint256 amount);\n    event Claimed(address indexed claimer, uint256[] amounts);\n    event Recovered(uint256[] amounts);\n\n    function initialize(\n        address[] calldata _rewardTokenAddresses,\n        address _stakableTokenAddress,\n        uint256[] calldata _rewardAmounts,\n        uint64 _startingTimestamp,\n        uint64 _endingTimestamp,\n        bool _locked,\n        uint256 _stakingCap\n    ) external onlyUninitialized {\n        require(_startingTimestamp > block.timestamp, \"SRD01\");\n        require(_endingTimestamp > _startingTimestamp, \"SRD02\");\n        require(_rewardTokenAddresses.length == _rewardAmounts.length, \"SRD03\");\n\n        secondsDuration = _endingTimestamp - _startingTimestamp;\n        // Initializing reward tokens and amounts\n        for (uint32 _i = 0; _i < _rewardTokenAddresses.length; _i++) {\n            address _rewardTokenAddress = _rewardTokenAddresses[_i];\n            uint256 _rewardAmount = _rewardAmounts[_i];\n            require(_rewardTokenAddress != address(0), \"SRD04\");\n            require(_rewardAmount > 0, \"SRD05\");\n            IERC20 _rewardToken = IERC20(_rewardTokenAddress);\n            require(\n                _rewardToken.balanceOf(address(this)) >= _rewardAmount,\n                \"SRD06\"\n            );\n            rewards.push(\n                Reward({\n                    token: _rewardTokenAddress,\n                    amount: _rewardAmount,\n                    perStakedToken: 0,\n                    recoverableSeconds: 0,\n                    claimed: 0\n                })\n            );\n        }\n\n        require(_stakableTokenAddress != address(0), \"SRD07\");\n        stakableToken = IERC20(_stakableTokenAddress);\n\n        owner = msg.sender;\n        factory = msg.sender;\n        startingTimestamp = _startingTimestamp;\n        endingTimestamp = _endingTimestamp;\n        lastConsolidationTimestamp = _startingTimestamp;\n        locked = _locked;\n        stakingCap = _stakingCap;\n        initialized = true;\n        canceled = false;\n\n        emit Initialized(\n            _rewardTokenAddresses,\n            _stakableTokenAddress,\n            _rewardAmounts,\n            _startingTimestamp,\n            _endingTimestamp,\n            _locked,\n            _stakingCap\n        );\n    }\n\n    function cancel() external onlyOwner {\n        require(initialized && !canceled, \"SRD19\");\n        require(block.timestamp < startingTimestamp, \"SRD08\");\n        for (uint256 _i; _i < rewards.length; _i++) {\n            Reward storage _reward = rewards[_i];\n            IERC20(_reward.token).safeTransfer(\n                owner,\n                IERC20(_reward.token).balanceOf(address(this))\n            );\n        }\n        canceled = true;\n        emit Canceled();\n    }\n\n    function recoverUnassignedRewards() external onlyStarted {\n        consolidateReward();\n        uint256[] memory _recoveredUnassignedRewards =\n            new uint256[](rewards.length);\n        bool _atLeastOneNonZeroRecovery = false;\n        for (uint256 _i; _i < rewards.length; _i++) {\n            Reward storage _reward = rewards[_i];\n            // recoverable rewards are going to be recovered in this tx (if it does not revert),\n            // so we add them to the claimed rewards right now\n            _reward.claimed += ((_reward.recoverableSeconds * _reward.amount) /\n                (uint256(secondsDuration) * MULTIPLIER));\n            delete _reward.recoverableSeconds;\n            uint256 _recoverableRewards =\n                IERC20(_reward.token).balanceOf(address(this)) -\n                    (_reward.amount - _reward.claimed);\n            if (!_atLeastOneNonZeroRecovery && _recoverableRewards > 0)\n                _atLeastOneNonZeroRecovery = true;\n            _recoveredUnassignedRewards[_i] = _recoverableRewards;\n            IERC20(_reward.token).safeTransfer(owner, _recoverableRewards);\n        }\n        require(_atLeastOneNonZeroRecovery, \"SRD22\");\n        emit Recovered(_recoveredUnassignedRewards);\n    }\n\n    function stake(uint256 _amount) external onlyRunning {\n        require(\n            !IERC20StakingRewardsDistributionFactory(factory).stakingPaused(),\n            \"SRD25\"\n        );\n        require(_amount > 0, \"SRD09\");\n        if (stakingCap > 0) {\n            require(totalStakedTokensAmount + _amount <= stakingCap, \"SRD10\");\n        }\n        consolidateReward();\n        Staker storage _staker = stakers[msg.sender];\n        _staker.stake += _amount;\n        totalStakedTokensAmount += _amount;\n        stakableToken.safeTransferFrom(msg.sender, address(this), _amount);\n        emit Staked(msg.sender, _amount);\n    }\n\n    function withdraw(uint256 _amount) public onlyStarted {\n        require(_amount > 0, \"SRD11\");\n        if (locked) {\n            require(block.timestamp > endingTimestamp, \"SRD12\");\n        }\n        consolidateReward();\n        Staker storage _staker = stakers[msg.sender];\n        require(_staker.stake >= _amount, \"SRD13\");\n        _staker.stake -= _amount;\n        totalStakedTokensAmount -= _amount;\n        stakableToken.safeTransfer(msg.sender, _amount);\n        emit Withdrawn(msg.sender, _amount);\n    }\n\n    function claim(uint256[] memory _amounts, address _recipient)\n        external\n        onlyStarted\n    {\n        require(_amounts.length == rewards.length, \"SRD14\");\n        consolidateReward();\n        Staker storage _staker = stakers[msg.sender];\n        uint256[] memory _claimedRewards = new uint256[](rewards.length);\n        bool _atLeastOneNonZeroClaim = false;\n        for (uint256 _i; _i < rewards.length; _i++) {\n            Reward storage _reward = rewards[_i];\n            StakerRewardInfo storage _stakerRewardInfo =\n                _staker.rewardInfo[_reward.token];\n            uint256 _claimableReward =\n                _stakerRewardInfo.earned - _stakerRewardInfo.claimed;\n            uint256 _wantedAmount = _amounts[_i];\n            require(_claimableReward >= _wantedAmount, \"SRD15\");\n            if (!_atLeastOneNonZeroClaim && _wantedAmount > 0)\n                _atLeastOneNonZeroClaim = true;\n            _stakerRewardInfo.claimed += _wantedAmount;\n            _reward.claimed += _wantedAmount;\n            IERC20(_reward.token).safeTransfer(_recipient, _wantedAmount);\n            _claimedRewards[_i] = _wantedAmount;\n        }\n        require(_atLeastOneNonZeroClaim, \"SRD24\");\n        emit Claimed(msg.sender, _claimedRewards);\n    }\n\n    function claimAll(address _recipient) public onlyStarted {\n        consolidateReward();\n        Staker storage _staker = stakers[msg.sender];\n        uint256[] memory _claimedRewards = new uint256[](rewards.length);\n        bool _atLeastOneNonZeroClaim = false;\n        for (uint256 _i; _i < rewards.length; _i++) {\n            Reward storage _reward = rewards[_i];\n            StakerRewardInfo storage _stakerRewardInfo =\n                _staker.rewardInfo[_reward.token];\n            uint256 _claimableReward =\n                _stakerRewardInfo.earned - _stakerRewardInfo.claimed;\n            if (!_atLeastOneNonZeroClaim && _claimableReward > 0)\n                _atLeastOneNonZeroClaim = true;\n            _stakerRewardInfo.claimed += _claimableReward;\n            _reward.claimed += _claimableReward;\n            IERC20(_reward.token).safeTransfer(_recipient, _claimableReward);\n            _claimedRewards[_i] = _claimableReward;\n        }\n        require(_atLeastOneNonZeroClaim, \"SRD23\");\n        emit Claimed(msg.sender, _claimedRewards);\n    }\n\n    function exit(address _recipient) external onlyStarted {\n        claimAll(_recipient);\n        withdraw(stakers[msg.sender].stake);\n    }\n\n    function consolidateReward() private {\n        uint64 _consolidationTimestamp =\n            uint64(Math.min(block.timestamp, endingTimestamp));\n        uint256 _lastPeriodDuration =\n            uint256(_consolidationTimestamp - lastConsolidationTimestamp);\n        Staker storage _staker = stakers[msg.sender];\n        for (uint256 _i; _i < rewards.length; _i++) {\n            Reward storage _reward = rewards[_i];\n            StakerRewardInfo storage _stakerRewardInfo =\n                _staker.rewardInfo[_reward.token];\n            if (_lastPeriodDuration > 0) {\n                if (totalStakedTokensAmount == 0) {\n                    _reward.recoverableSeconds +=\n                        _lastPeriodDuration *\n                        MULTIPLIER;\n                    // no need to update the reward per staked token since in this period\n                    // there have been no staked tokens, so no reward has been given out to stakers\n                } else {\n                    _reward.perStakedToken += ((_lastPeriodDuration *\n                        _reward.amount *\n                        MULTIPLIER) /\n                        (totalStakedTokensAmount * secondsDuration));\n                }\n            }\n            uint256 _rewardSinceLastConsolidation =\n                (_staker.stake *\n                    (_reward.perStakedToken -\n                        _stakerRewardInfo.consolidatedPerStakedToken)) /\n                    MULTIPLIER;\n            if (_rewardSinceLastConsolidation > 0) {\n                _stakerRewardInfo.earned += _rewardSinceLastConsolidation;\n            }\n            _stakerRewardInfo.consolidatedPerStakedToken = _reward\n                .perStakedToken;\n        }\n        lastConsolidationTimestamp = _consolidationTimestamp;\n    }\n\n    function claimableRewards(address _account)\n        public\n        view\n        returns (uint256[] memory)\n    {\n        uint256[] memory _outstandingRewards = new uint256[](rewards.length);\n        if (!initialized || block.timestamp < startingTimestamp) {\n            for (uint256 _i; _i < rewards.length; _i++) {\n                _outstandingRewards[_i] = 0;\n            }\n            return _outstandingRewards;\n        }\n        Staker storage _staker = stakers[_account];\n        uint64 _consolidationTimestamp =\n            uint64(Math.min(block.timestamp, endingTimestamp));\n        uint256 _lastPeriodDuration =\n            uint256(_consolidationTimestamp - lastConsolidationTimestamp);\n        for (uint256 _i; _i < rewards.length; _i++) {\n            Reward storage _reward = rewards[_i];\n            StakerRewardInfo storage _stakerRewardInfo =\n                _staker.rewardInfo[_reward.token];\n            uint256 _localRewardPerStakedToken = _reward.perStakedToken;\n            if (_lastPeriodDuration > 0 && totalStakedTokensAmount > 0) {\n                _localRewardPerStakedToken += ((_lastPeriodDuration *\n                    _reward.amount *\n                    MULTIPLIER) / (totalStakedTokensAmount * secondsDuration));\n            }\n            uint256 _rewardSinceLastConsolidation =\n                (_staker.stake *\n                    (_localRewardPerStakedToken -\n                        _stakerRewardInfo.consolidatedPerStakedToken)) /\n                    MULTIPLIER;\n            _outstandingRewards[_i] =\n                _rewardSinceLastConsolidation +\n                (_stakerRewardInfo.earned - _stakerRewardInfo.claimed);\n        }\n        return _outstandingRewards;\n    }\n\n    function getRewardTokens() external view returns (address[] memory) {\n        address[] memory _rewardTokens = new address[](rewards.length);\n        for (uint256 _i = 0; _i < rewards.length; _i++) {\n            _rewardTokens[_i] = rewards[_i].token;\n        }\n        return _rewardTokens;\n    }\n\n    function rewardAmount(address _rewardToken)\n        external\n        view\n        returns (uint256)\n    {\n        for (uint256 _i = 0; _i < rewards.length; _i++) {\n            Reward storage _reward = rewards[_i];\n            if (_rewardToken == _reward.token) return _reward.amount;\n        }\n        return 0;\n    }\n\n    function stakedTokensOf(address _staker) external view returns (uint256) {\n        return stakers[_staker].stake;\n    }\n\n    function earnedRewardsOf(address _staker)\n        external\n        view\n        returns (uint256[] memory)\n    {\n        Staker storage _stakerFromStorage = stakers[_staker];\n        uint256[] memory _earnedRewards = new uint256[](rewards.length);\n        for (uint256 _i; _i < rewards.length; _i++) {\n            _earnedRewards[_i] = _stakerFromStorage.rewardInfo[\n                rewards[_i].token\n            ]\n                .earned;\n        }\n        return _earnedRewards;\n    }\n\n    function recoverableUnassignedReward(address _rewardToken)\n        external\n        view\n        returns (uint256)\n    {\n        for (uint256 _i = 0; _i < rewards.length; _i++) {\n            Reward storage _reward = rewards[_i];\n            if (_reward.token == _rewardToken) {\n                uint256 _nonRequiredFunds =\n                    _reward.claimed +\n                        ((_reward.recoverableSeconds * _reward.amount) /\n                            (uint256(secondsDuration) * MULTIPLIER));\n                return\n                    IERC20(_reward.token).balanceOf(address(this)) -\n                    (_reward.amount - _nonRequiredFunds);\n            }\n        }\n        return 0;\n    }\n\n    function getClaimedRewards(address _claimer)\n        external\n        view\n        returns (uint256[] memory)\n    {\n        Staker storage _staker = stakers[_claimer];\n        uint256[] memory _claimedRewards = new uint256[](rewards.length);\n        for (uint256 _i = 0; _i < rewards.length; _i++) {\n            Reward storage _reward = rewards[_i];\n            _claimedRewards[_i] = _staker.rewardInfo[_reward.token].claimed;\n        }\n        return _claimedRewards;\n    }\n\n    function renounceOwnership() public onlyOwner {\n        owner = address(0);\n        emit OwnershipTransferred(owner, address(0));\n    }\n\n    function transferOwnership(address _newOwner) public onlyOwner {\n        require(_newOwner != address(0), \"SRD16\");\n        emit OwnershipTransferred(owner, _newOwner);\n        owner = _newOwner;\n    }\n\n    modifier onlyOwner() {\n        require(owner == msg.sender, \"SRD17\");\n        _;\n    }\n\n    modifier onlyUninitialized() {\n        require(!initialized, \"SRD18\");\n        _;\n    }\n\n    modifier onlyStarted() {\n        require(\n            initialized && !canceled && block.timestamp >= startingTimestamp,\n            \"SRD20\"\n        );\n        _;\n    }\n\n    modifier onlyRunning() {\n        require(\n            initialized &&\n                !canceled &&\n                block.timestamp >= startingTimestamp &&\n                block.timestamp <= endingTimestamp,\n            \"SRD21\"\n        );\n        _;\n    }\n}\n",
  "sourcePath": "/home/luzzif/Projects/swapr-lp-staker/contracts/ERC20StakingRewardsDistribution.sol",
  "compiler": {
    "name": "solc",
    "version": "0.8.7+commit.e28d00a7.Emscripten.clang"
  },
  "schemaVersion": "3.3.3",
  "updatedAt": "2021-09-27T09:42:54.235Z",
  "devdoc": {
    "kind": "dev",
    "methods": {},
    "version": 1
  },
  "userdoc": {
    "kind": "user",
    "methods": {},
    "notice": "Errors codes: SRD01: invalid starting timestamp SRD02: invalid time duration SRD03: inconsistent reward token/amount SRD04: 0 address as reward token SRD05: no reward SRD06: no funding SRD07: 0 address as stakable token SRD08: distribution already started SRD09: tried to stake nothing SRD10: staking cap hit SRD11: tried to withdraw nothing SRD12: funds locked until the distribution ends SRD13: withdrawn amount greater than current stake SRD14: inconsistent claimed amounts SRD15: insufficient claimable amount SRD16: 0 address owner SRD17: caller not owner SRD18: already initialized SRD19: invalid state for cancel to be called SRD20: not started SRD21: already ended SRD22: no rewards are recoverable SRD23: no rewards are claimable while claiming all SRD24: no rewards are claimable while manually claiming an arbitrary amount of rewards SRD25: staking is currently paused",
    "version": 1
  }
}