{
  "contractName": "ERC20StakingRewardsDistribution",
  "abi": [
    {
      "anonymous": false,
      "inputs": [],
      "name": "Canceled",
      "type": "event"
    },
    {
      "anonymous": false,
      "inputs": [
        {
          "indexed": true,
          "internalType": "address",
          "name": "claimer",
          "type": "address"
        },
        {
          "indexed": false,
          "internalType": "uint256[]",
          "name": "amounts",
          "type": "uint256[]"
        }
      ],
      "name": "Claimed",
      "type": "event"
    },
    {
      "anonymous": false,
      "inputs": [
        {
          "indexed": false,
          "internalType": "address[]",
          "name": "rewardsTokenAddresses",
          "type": "address[]"
        },
        {
          "indexed": false,
          "internalType": "address",
          "name": "stakableTokenAddress",
          "type": "address"
        },
        {
          "indexed": false,
          "internalType": "uint256[]",
          "name": "rewardsAmounts",
          "type": "uint256[]"
        },
        {
          "indexed": false,
          "internalType": "uint64",
          "name": "startingTimestamp",
          "type": "uint64"
        },
        {
          "indexed": false,
          "internalType": "uint64",
          "name": "endingTimestamp",
          "type": "uint64"
        },
        {
          "indexed": false,
          "internalType": "bool",
          "name": "locked",
          "type": "bool"
        },
        {
          "indexed": false,
          "internalType": "uint256",
          "name": "stakingCap",
          "type": "uint256"
        }
      ],
      "name": "Initialized",
      "type": "event"
    },
    {
      "anonymous": false,
      "inputs": [
        {
          "indexed": true,
          "internalType": "address",
          "name": "previousOwner",
          "type": "address"
        },
        {
          "indexed": true,
          "internalType": "address",
          "name": "newOwner",
          "type": "address"
        }
      ],
      "name": "OwnershipTransferred",
      "type": "event"
    },
    {
      "anonymous": false,
      "inputs": [
        {
          "indexed": false,
          "internalType": "uint256[]",
          "name": "amounts",
          "type": "uint256[]"
        }
      ],
      "name": "Recovered",
      "type": "event"
    },
    {
      "anonymous": false,
      "inputs": [
        {
          "indexed": true,
          "internalType": "address",
          "name": "staker",
          "type": "address"
        },
        {
          "indexed": false,
          "internalType": "uint256",
          "name": "amount",
          "type": "uint256"
        }
      ],
      "name": "Staked",
      "type": "event"
    },
    {
      "anonymous": false,
      "inputs": [
        {
          "indexed": true,
          "internalType": "address",
          "name": "withdrawer",
          "type": "address"
        },
        {
          "indexed": false,
          "internalType": "uint256",
          "name": "amount",
          "type": "uint256"
        }
      ],
      "name": "Withdrawn",
      "type": "event"
    },
    {
      "inputs": [],
      "name": "canceled",
      "outputs": [
        {
          "internalType": "bool",
          "name": "",
          "type": "bool"
        }
      ],
      "stateMutability": "view",
      "type": "function"
    },
    {
      "inputs": [],
      "name": "endingTimestamp",
      "outputs": [
        {
          "internalType": "uint64",
          "name": "",
          "type": "uint64"
        }
      ],
      "stateMutability": "view",
      "type": "function"
    },
    {
      "inputs": [],
      "name": "initialized",
      "outputs": [
        {
          "internalType": "bool",
          "name": "",
          "type": "bool"
        }
      ],
      "stateMutability": "view",
      "type": "function"
    },
    {
      "inputs": [],
      "name": "lastConsolidationTimestamp",
      "outputs": [
        {
          "internalType": "uint64",
          "name": "",
          "type": "uint64"
        }
      ],
      "stateMutability": "view",
      "type": "function"
    },
    {
      "inputs": [],
      "name": "locked",
      "outputs": [
        {
          "internalType": "bool",
          "name": "",
          "type": "bool"
        }
      ],
      "stateMutability": "view",
      "type": "function"
    },
    {
      "inputs": [],
      "name": "owner",
      "outputs": [
        {
          "internalType": "address",
          "name": "",
          "type": "address"
        }
      ],
      "stateMutability": "view",
      "type": "function"
    },
    {
      "inputs": [
        {
          "internalType": "uint256",
          "name": "",
          "type": "uint256"
        }
      ],
      "name": "rewards",
      "outputs": [
        {
          "internalType": "address",
          "name": "token",
          "type": "address"
        },
        {
          "internalType": "uint256",
          "name": "amount",
          "type": "uint256"
        },
        {
          "internalType": "uint256",
          "name": "perStakedToken",
          "type": "uint256"
        },
        {
          "internalType": "uint256",
          "name": "recoverableSeconds",
          "type": "uint256"
        },
        {
          "internalType": "uint256",
          "name": "claimed",
          "type": "uint256"
        }
      ],
      "stateMutability": "view",
      "type": "function"
    },
    {
      "inputs": [],
      "name": "secondsDuration",
      "outputs": [
        {
          "internalType": "uint64",
          "name": "",
          "type": "uint64"
        }
      ],
      "stateMutability": "view",
      "type": "function"
    },
    {
      "inputs": [],
      "name": "stakableToken",
      "outputs": [
        {
          "internalType": "contract IERC20",
          "name": "",
          "type": "address"
        }
      ],
      "stateMutability": "view",
      "type": "function"
    },
    {
      "inputs": [],
      "name": "stakingCap",
      "outputs": [
        {
          "internalType": "uint256",
          "name": "",
          "type": "uint256"
        }
      ],
      "stateMutability": "view",
      "type": "function"
    },
    {
      "inputs": [],
      "name": "startingTimestamp",
      "outputs": [
        {
          "internalType": "uint64",
          "name": "",
          "type": "uint64"
        }
      ],
      "stateMutability": "view",
      "type": "function"
    },
    {
      "inputs": [],
      "name": "totalStakedTokensAmount",
      "outputs": [
        {
          "internalType": "uint256",
          "name": "",
          "type": "uint256"
        }
      ],
      "stateMutability": "view",
      "type": "function"
    },
    {
      "inputs": [
        {
          "internalType": "address[]",
          "name": "_rewardTokenAddresses",
          "type": "address[]"
        },
        {
          "internalType": "address",
          "name": "_stakableTokenAddress",
          "type": "address"
        },
        {
          "internalType": "uint256[]",
          "name": "_rewardAmounts",
          "type": "uint256[]"
        },
        {
          "internalType": "uint64",
          "name": "_startingTimestamp",
          "type": "uint64"
        },
        {
          "internalType": "uint64",
          "name": "_endingTimestamp",
          "type": "uint64"
        },
        {
          "internalType": "bool",
          "name": "_locked",
          "type": "bool"
        },
        {
          "internalType": "uint256",
          "name": "_stakingCap",
          "type": "uint256"
        }
      ],
      "name": "initialize",
      "outputs": [],
      "stateMutability": "nonpayable",
      "type": "function"
    },
    {
      "inputs": [],
      "name": "cancel",
      "outputs": [],
      "stateMutability": "nonpayable",
      "type": "function"
    },
    {
      "inputs": [],
      "name": "recoverUnassignedRewards",
      "outputs": [],
      "stateMutability": "nonpayable",
      "type": "function"
    },
    {
      "inputs": [
        {
          "internalType": "uint256",
          "name": "_amount",
          "type": "uint256"
        }
      ],
      "name": "stake",
      "outputs": [],
      "stateMutability": "nonpayable",
      "type": "function"
    },
    {
      "inputs": [
        {
          "internalType": "uint256",
          "name": "_amount",
          "type": "uint256"
        }
      ],
      "name": "withdraw",
      "outputs": [],
      "stateMutability": "nonpayable",
      "type": "function"
    },
    {
      "inputs": [
        {
          "internalType": "uint256[]",
          "name": "_amounts",
          "type": "uint256[]"
        },
        {
          "internalType": "address",
          "name": "_recipient",
          "type": "address"
        }
      ],
      "name": "claim",
      "outputs": [],
      "stateMutability": "nonpayable",
      "type": "function"
    },
    {
      "inputs": [
        {
          "internalType": "address",
          "name": "_recipient",
          "type": "address"
        }
      ],
      "name": "claimAll",
      "outputs": [],
      "stateMutability": "nonpayable",
      "type": "function"
    },
    {
      "inputs": [
        {
          "internalType": "address",
          "name": "_recipient",
          "type": "address"
        }
      ],
      "name": "exit",
      "outputs": [],
      "stateMutability": "nonpayable",
      "type": "function"
    },
    {
      "inputs": [],
      "name": "consolidateReward",
      "outputs": [],
      "stateMutability": "nonpayable",
      "type": "function"
    },
    {
      "inputs": [
        {
          "internalType": "address",
          "name": "_account",
          "type": "address"
        }
      ],
      "name": "claimableRewards",
      "outputs": [
        {
          "internalType": "uint256[]",
          "name": "",
          "type": "uint256[]"
        }
      ],
      "stateMutability": "view",
      "type": "function"
    },
    {
      "inputs": [],
      "name": "getRewardTokens",
      "outputs": [
        {
          "internalType": "address[]",
          "name": "",
          "type": "address[]"
        }
      ],
      "stateMutability": "view",
      "type": "function"
    },
    {
      "inputs": [
        {
          "internalType": "address",
          "name": "_rewardToken",
          "type": "address"
        }
      ],
      "name": "rewardAmount",
      "outputs": [
        {
          "internalType": "uint256",
          "name": "",
          "type": "uint256"
        }
      ],
      "stateMutability": "view",
      "type": "function"
    },
    {
      "inputs": [
        {
          "internalType": "address",
          "name": "_staker",
          "type": "address"
        }
      ],
      "name": "stakedTokensOf",
      "outputs": [
        {
          "internalType": "uint256",
          "name": "",
          "type": "uint256"
        }
      ],
      "stateMutability": "view",
      "type": "function"
    },
    {
      "inputs": [
        {
          "internalType": "address",
          "name": "_rewardToken",
          "type": "address"
        }
      ],
      "name": "recoverableUnassignedReward",
      "outputs": [
        {
          "internalType": "uint256",
          "name": "",
          "type": "uint256"
        }
      ],
      "stateMutability": "view",
      "type": "function"
    },
    {
      "inputs": [
        {
          "internalType": "address",
          "name": "_claimer",
          "type": "address"
        }
      ],
      "name": "getClaimedRewards",
      "outputs": [
        {
          "internalType": "uint256[]",
          "name": "",
          "type": "uint256[]"
        }
      ],
      "stateMutability": "view",
      "type": "function"
    },
    {
      "inputs": [],
      "name": "renounceOwnership",
      "outputs": [],
      "stateMutability": "nonpayable",
      "type": "function"
    },
    {
      "inputs": [
        {
          "internalType": "address",
          "name": "_newOwner",
          "type": "address"
        }
      ],
      "name": "transferOwnership",
      "outputs": [],
      "stateMutability": "nonpayable",
      "type": "function"
    }
  ],
  "bytecode": "0x608060405234801561001057600080fd5b506128bb806100206000396000f3fe608060405234801561001057600080fd5b50600436106101cf5760003560e01c80638c574b4811610104578063c10de300116100a2578063e644067d11610071578063e644067d14610417578063ea8a1af01461041f578063f2fde38b14610427578063f301af421461043a57600080fd5b8063c10de300146103c1578063c4f59f9b146103db578063cf309012146103f0578063dc01f60d1461040457600080fd5b8063ab08d4fc116100de578063ab08d4fc1461035c578063b41fa97914610385578063b42652e91461038e578063b9e35db0146103a157600080fd5b80638c574b48146103235780638da5cb5b14610336578063a694fc3a1461034957600080fd5b80635e5294b7116101715780636715dcb81161014b5780636715dcb8146102ed578063715018a6146102f557806377329f35146102fd578063887862721461031057600080fd5b80635e5294b71461028e5780635fa35023146102c0578063645a8a56146102da57600080fd5b80632e1a7d4d116101ad5780632e1a7d4d1461023d5780633b34ee50146102505780633f9942ff1461027157806344c370d31461028557600080fd5b8063158ef93e146101d45780631c96c3fb146101fd57806323a26e3614610228575b600080fd5b6004546101e890600160b01b900460ff1681565b60405190151581526020015b60405180910390f35b600354610210906001600160a01b031681565b6040516001600160a01b0390911681526020016101f4565b61023b610236366004612382565b61047f565b005b61023b61024b36600461252d565b6109b5565b61026361025e366004612368565b610b71565b6040519081526020016101f4565b6004546101e890600160a81b900460ff1681565b61026360065481565b6002546102a890600160401b90046001600160401b031681565b6040516001600160401b0390911681526020016101f4565b6002546102a890600160801b90046001600160401b031681565b6102636102e8366004612368565b610c20565b61023b610c96565b61023b610ec0565b61023b61030b366004612368565b610f29565b6002546102a8906001600160401b031681565b61023b610331366004612440565b6110f5565b600454610210906001600160a01b031681565b61023b61035736600461252d565b611361565b61026361036a366004612368565b6001600160a01b031660009081526001602052604090205490565b61026360055481565b61023b61039c366004612368565b611507565b6103b46103af366004612368565b611582565b6040516101f491906126a1565b6002546102a890600160c01b90046001600160401b031681565b6103e361169b565b6040516101f49190612654565b6004546101e890600160a01b900460ff1681565b6103b4610412366004612368565b611791565b61023b611a29565b61023b611cec565b61023b610435366004612368565b611ede565b61044d61044836600461252d565b611fa2565b604080516001600160a01b0390961686526020860194909452928401919091526060830152608082015260a0016101f4565b600454600160b01b900460ff16156104c65760405162461bcd60e51b81526020600482015260056024820152640a6a48862760db1b60448201526064015b60405180910390fd5b42846001600160401b0316116105065760405162461bcd60e51b8152602060048201526005602482015264535244303160d81b60448201526064016104bd565b836001600160401b0316836001600160401b03161161054f5760405162461bcd60e51b815260206004820152600560248201526429a922181960d91b60448201526064016104bd565b8785146105865760405162461bcd60e51b8152602060048201526005602482015264535244303360d81b60448201526064016104bd565b61059084846127b8565b600260106101000a8154816001600160401b0302191690836001600160401b0316021790555060005b63ffffffff81168911156108895760008a8a8363ffffffff168181106105ef57634e487b7160e01b600052603260045260246000fd5b90506020020160208101906106049190612368565b9050600088888463ffffffff1681811061062e57634e487b7160e01b600052603260045260246000fd5b60200291909101359150506001600160a01b0382166106775760405162461bcd60e51b815260206004820152600560248201526414d4910c0d60da1b60448201526064016104bd565b600081116106af5760405162461bcd60e51b8152602060048201526005602482015264535244303560d81b60448201526064016104bd565b6040516370a0823160e01b8152306004820152829082906001600160a01b038316906370a082319060240160206040518083038186803b1580156106f257600080fd5b505afa158015610706573d6000803e3d6000fd5b505050506040513d601f19601f8201168201806040525081019061072a9190612545565b10156107605760405162461bcd60e51b815260206004820152600560248201526429a922181b60d91b60448201526064016104bd565b506040805160a0810182526001600160a01b0393841681526020810192835260009181018281526060820183815260808301848152845460018101865594805292517f290decd9548b62a8d60345a988386fc84ba6bc95484008f6362f93160ef3e563600590950294850180546001600160a01b031916919097161790955592517f290decd9548b62a8d60345a988386fc84ba6bc95484008f6362f93160ef3e56483015591517f290decd9548b62a8d60345a988386fc84ba6bc95484008f6362f93160ef3e56582015591517f290decd9548b62a8d60345a988386fc84ba6bc95484008f6362f93160ef3e566830155517f290decd9548b62a8d60345a988386fc84ba6bc95484008f6362f93160ef3e567909101558061088181612827565b9150506105b9565b506001600160a01b0387166108c85760405162461bcd60e51b8152602060048201526005602482015264535244303760d81b60448201526064016104bd565b600380546001600160a01b0319166001600160a01b03891617905560048054600280546fffffffffffffffffffffffffffffffff19166001600160401b03888116918217600160401b91891691909102176001600160c01b0316600160c01b919091021790556006839055600160b01b6001600160a81b03199091163360ff60a01b191617600160a01b851515021761ffff60a81b19161790556040517f2c1fa4f0e3f1c67636ee0b3665bf3a04407a2c1332d4e3e99f941ee2b0b9daf4906109a2908b908b908b908b908b908b908b908b908b906125ad565b60405180910390a1505050505050505050565b600454600160b01b900460ff1680156109d85750600454600160a81b900460ff16155b80156109ef57506002546001600160401b03164210155b610a0b5760405162461bcd60e51b81526004016104bd9061270c565b60008111610a435760405162461bcd60e51b8152602060048201526005602482015264535244313160d81b60448201526064016104bd565b600454600160a01b900460ff1615610a9e57600254600160401b90046001600160401b03164211610a9e5760405162461bcd60e51b815260206004820152600560248201526429a922189960d91b60448201526064016104bd565b610aa6610c96565b3360009081526001602052604090208054821115610aee5760405162461bcd60e51b8152602060048201526005602482015264535244313360d81b60448201526064016104bd565b81816000016000828254610b0291906127a1565b925050819055508160056000828254610b1b91906127a1565b9091555050600354610b37906001600160a01b03163384611fed565b60405182815233907f7084f5476618d8e60b11ef0d7d3f06914655adb8793e28ff7f018d4c76d505d5906020015b60405180910390a25050565b6000805b600054811015610c17576000808281548110610ba157634e487b7160e01b600052603260045260246000fd5b6000918252602090912060059091020180549091506001600160a01b0385811691161415610c045760025460018201546003830154600160801b9092046001600160401b031691610bf29190612782565b610bfc9190612762565b949350505050565b5080610c0f8161280c565b915050610b75565b50600092915050565b6000805b600054811015610c17576000808281548110610c5057634e487b7160e01b600052603260045260246000fd5b6000918252602090912060059091020180549091506001600160a01b0385811691161415610c8357600101549392505050565b5080610c8e8161280c565b915050610c24565b600454600160b01b900460ff168015610cb95750600454600160a81b900460ff16155b8015610cd057506002546001600160401b03164210155b610cec5760405162461bcd60e51b81526004016104bd9061270c565b600254600090610d0d904290600160401b90046001600160401b0316612055565b600254909150600090610d3090600160c01b90046001600160401b0316836127b8565b3360009081526001602052604081206001600160401b039290921692505b600054811015610e94576000808281548110610d7a57634e487b7160e01b600052603260045260246000fd5b6000918252602080832060059283020180546001600160a01b03168452600187019091526040909220905491925090610dcc5784826003016000828254610dc1919061274a565b90915550610e2e9050565b600254600554610dec91600160801b90046001600160401b031690612782565b6001830154600160701b90610e019088612782565b610e0b9190612782565b610e159190612762565b826002016000828254610e28919061274a565b90915550505b80546002830154600091600160701b91610e4891906127a1565b8654610e549190612782565b610e5e9190612762565b905080826001016000828254610e74919061274a565b909155505050600290910154905580610e8c8161280c565b915050610d4e565b5050600280546001600160401b03909316600160c01b026001600160c01b039093169290921790915550565b6004546001600160a01b03163314610eea5760405162461bcd60e51b81526004016104bd9061272b565b600480546001600160a01b031916905560405160009081907f8be0079c531659141344cd1fd0a4f28419497f9722a3daafe3b4186f6b6457e0908290a3565b600454600160b01b900460ff168015610f4c5750600454600160a81b900460ff16155b8015610f6357506002546001600160401b03164210155b610f7f5760405162461bcd60e51b81526004016104bd9061270c565b610f87610c96565b33600090815260016020526040812081549091906001600160401b03811115610fc057634e487b7160e01b600052604160045260246000fd5b604051908082528060200260200182016040528015610fe9578160200160208202803683370190505b50905060005b6000548110156110ae57600080828154811061101b57634e487b7160e01b600052603260045260246000fd5b60009182526020808320600590920290910180546001600160a01b03168352600180880190925260408320600281015492810154919450929161105d916127a1565b905061106b8387838a61206d565b8085858151811061108c57634e487b7160e01b600052603260045260246000fd5b60200260200101818152505050505080806110a69061280c565b915050610fef565b50336001600160a01b03167f28ee566bdecaf975c0979f4d09fecf91a9009ffe78523aef053a678134137b8b826040516110e891906126a1565b60405180910390a2505050565b600454600160b01b900460ff1680156111185750600454600160a81b900460ff16155b801561112f57506002546001600160401b03164210155b61114b5760405162461bcd60e51b81526004016104bd9061270c565b6000548251146111855760405162461bcd60e51b815260206004820152600560248201526414d4910c4d60da1b60448201526064016104bd565b61118d610c96565b33600090815260016020526040812081549091906001600160401b038111156111c657634e487b7160e01b600052604160045260246000fd5b6040519080825280602002602001820160405280156111ef578160200160208202803683370190505b50905060005b60005481101561131957600080828154811061122157634e487b7160e01b600052603260045260246000fd5b60009182526020808320600590920290910180546001600160a01b031683526001808801909252604083206002810154928101549194509291611263916127a1565b9050600088858151811061128757634e487b7160e01b600052603260045260246000fd5b60200260200101519050808210156112c95760405162461bcd60e51b8152602060048201526005602482015264535244313560d81b60448201526064016104bd565b6112d58488838b61206d565b808686815181106112f657634e487b7160e01b600052603260045260246000fd5b6020026020010181815250505050505080806113119061280c565b9150506111f5565b50336001600160a01b03167f28ee566bdecaf975c0979f4d09fecf91a9009ffe78523aef053a678134137b8b8260405161135391906126a1565b60405180910390a250505050565b600454600160b01b900460ff1680156113845750600454600160a81b900460ff16155b801561139b57506002546001600160401b03164210155b80156113b95750600254600160401b90046001600160401b03164211155b6113ed5760405162461bcd60e51b8152602060048201526005602482015264535244323160d81b60448201526064016104bd565b600081116114255760405162461bcd60e51b8152602060048201526005602482015264535244303960d81b60448201526064016104bd565b60065415611474576006548160055461143e919061274a565b11156114745760405162461bcd60e51b8152602060048201526005602482015264053524431360dc1b60448201526064016104bd565b61147c610c96565b33600090815260016020526040812080549091839183919061149f90849061274a565b9250508190555081600560008282546114b8919061274a565b90915550506003546114d5906001600160a01b03163330856120d7565b60405182815233907f9e71bc8eea02a63969f509818f2dafb9254532904319f9dbda79b67bd34a5f3d90602001610b65565b600454600160b01b900460ff16801561152a5750600454600160a81b900460ff16155b801561154157506002546001600160401b03164210155b61155d5760405162461bcd60e51b81526004016104bd9061270c565b61156681610f29565b3360009081526001602052604090205461157f906109b5565b50565b6001600160a01b03811660009081526001602052604081208154606092906001600160401b038111156115c557634e487b7160e01b600052604160045260246000fd5b6040519080825280602002602001820160405280156115ee578160200160208202803683370190505b50905060005b60005481101561169357600080828154811061162057634e487b7160e01b600052603260045260246000fd5b60009182526020808320600590920290910180546001600160a01b031683526001870190915260409091206002015484519192509084908490811061167557634e487b7160e01b600052603260045260246000fd5b6020908102919091010152508061168b8161280c565b9150506115f4565b509392505050565b60008054606091906001600160401b038111156116c857634e487b7160e01b600052604160045260246000fd5b6040519080825280602002602001820160405280156116f1578160200160208202803683370190505b50905060005b60005481101561178b576000818154811061172257634e487b7160e01b600052603260045260246000fd5b600091825260209091206005909102015482516001600160a01b039091169083908390811061176157634e487b7160e01b600052603260045260246000fd5b6001600160a01b0390921660209283029190910190910152806117838161280c565b9150506116f7565b50919050565b60008054606091906001600160401b038111156117be57634e487b7160e01b600052604160045260246000fd5b6040519080825280602002602001820160405280156117e7578160200160208202803683370190505b50600454909150600160b01b900460ff16158061180e57506002546001600160401b031642105b156118665760005b60005481101561185f57600082828151811061184257634e487b7160e01b600052603260045260246000fd5b6020908102919091010152806118578161280c565b915050611816565b5092915050565b6001600160a01b038316600090815260016020526040812060025490919061189f904290600160401b90046001600160401b0316612055565b6002549091506000906118c290600160c01b90046001600160401b0316836127b8565b6001600160401b0316905060005b600054811015611a1e5760008082815481106118fc57634e487b7160e01b600052603260045260246000fd5b6000918252602080832060059283020180546001600160a01b0316845260018901909152604090922060028301549154929350911561198b5760025460055461195591600160801b90046001600160401b031690612782565b6001840154600160701b9061196a9088612782565b6119749190612782565b61197e9190612762565b611988908261274a565b90505b81546002840154600091600160701b916119a591906127a1565b89546119b19190612782565b6119bb9190612762565b9050826002015483600101546119d191906127a1565b6119db908261274a565b8986815181106119fb57634e487b7160e01b600052603260045260246000fd5b602002602001018181525050505050508080611a169061280c565b9150506118d0565b509295945050505050565b600454600160b01b900460ff168015611a4c5750600454600160a81b900460ff16155b8015611a6357506002546001600160401b03164210155b611a7f5760405162461bcd60e51b81526004016104bd9061270c565b611a87610c96565b600080546001600160401b03811115611ab057634e487b7160e01b600052604160045260246000fd5b604051908082528060200260200182016040528015611ad9578160200160208202803683370190505b5090506000805b600054811015611c89576000808281548110611b0c57634e487b7160e01b600052603260045260246000fd5b90600052602060002090600502019050600260109054906101000a90046001600160401b03166001600160401b031681600101548260030154611b4f9190612782565b611b599190612762565b816004016000828254611b6c919061274a565b909155505060006003820181905560048201546001830154611b8e91906127a1565b82546040516370a0823160e01b81523060048201526001600160a01b03909116906370a082319060240160206040518083038186803b158015611bd057600080fd5b505afa158015611be4573d6000803e3d6000fd5b505050506040513d601f19601f82011682018060405250810190611c089190612545565b611c1291906127a1565b9050600081118015611c22575083155b15611c2c57600193505b80858481518110611c4d57634e487b7160e01b600052603260045260246000fd5b60209081029190910101526004548254611c74916001600160a01b03918216911683611fed565b50508080611c819061280c565b915050611ae0565b5080611cb15760405162461bcd60e51b815260206004820152600060248201526044016104bd565b7ff904fafa600a7e4e8039f3a5497d1b6016772e3060f87d3e40f911b315f00bd182604051611ce091906126a1565b60405180910390a15050565b6004546001600160a01b03163314611d165760405162461bcd60e51b81526004016104bd9061272b565b600454600160b01b900460ff168015611d395750600454600160a81b900460ff16155b611d6d5760405162461bcd60e51b8152602060048201526005602482015264535244313960d81b60448201526064016104bd565b6002546001600160401b03164210611daf5760405162461bcd60e51b81526020600482015260056024820152640a6a48860760db1b60448201526064016104bd565b60005b600054811015611e9f576000808281548110611dde57634e487b7160e01b600052603260045260246000fd5b6000918252602090912060048054600590930290910180546040516370a0823160e01b81523093810193909352909350611e8c926001600160a01b03908116929116906370a082319060240160206040518083038186803b158015611e4257600080fd5b505afa158015611e56573d6000803e3d6000fd5b505050506040513d601f19601f82011682018060405250810190611e7a9190612545565b83546001600160a01b03169190611fed565b5080611e978161280c565b915050611db2565b506004805460ff60a81b1916600160a81b1790556040517f1afb0ae590df277bcb3a37f88612725bf1f7df4755792b1548a7efe77985ff7790600090a1565b6004546001600160a01b03163314611f085760405162461bcd60e51b81526004016104bd9061272b565b6001600160a01b038116611f465760405162461bcd60e51b815260206004820152600560248201526429a922189b60d91b60448201526064016104bd565b6004546040516001600160a01b038084169216907f8be0079c531659141344cd1fd0a4f28419497f9722a3daafe3b4186f6b6457e090600090a3600480546001600160a01b0319166001600160a01b0392909216919091179055565b60008181548110611fb257600080fd5b6000918252602090912060059091020180546001820154600283015460038401546004909401546001600160a01b0390931694509092909185565b6040516001600160a01b03831660248201526044810182905261205090849063a9059cbb60e01b906064015b60408051601f198184030181529190526020810180516001600160e01b03166001600160e01b03199093169290921790915261210f565b505050565b60008183106120645781612066565b825b9392505050565b83546001600160a01b031660009081526001840160205260408120600201805484929061209b90849061274a565b92505081905550818460040160008282546120b6919061274a565b909155505083546120d1906001600160a01b03168284611fed565b50505050565b6040516001600160a01b03808516602483015283166044820152606481018290526120d19085906323b872dd60e01b90608401612019565b6000612164826040518060400160405280602081526020017f5361666545524332303a206c6f772d6c6576656c2063616c6c206661696c6564815250856001600160a01b03166121e19092919063ffffffff16565b80519091501561205057808060200190518101906121829190612511565b6120505760405162461bcd60e51b815260206004820152602a60248201527f5361666545524332303a204552433230206f7065726174696f6e20646964206e6044820152691bdd081cdd58d8d9595960b21b60648201526084016104bd565b6060610bfc848460008585843b61223a5760405162461bcd60e51b815260206004820152601d60248201527f416464726573733a2063616c6c20746f206e6f6e2d636f6e747261637400000060448201526064016104bd565b600080866001600160a01b031685876040516122569190612591565b60006040518083038185875af1925050503d8060008114612293576040519150601f19603f3d011682016040523d82523d6000602084013e612298565b606091505b50915091506122a88282866122b3565b979650505050505050565b606083156122c2575081612066565b8251156122d25782518084602001fd5b8160405162461bcd60e51b81526004016104bd91906126d9565b80356001600160a01b038116811461230357600080fd5b919050565b60008083601f840112612319578081fd5b5081356001600160401b0381111561232f578182fd5b6020830191508360208260051b850101111561234a57600080fd5b9250929050565b80356001600160401b038116811461230357600080fd5b600060208284031215612379578081fd5b612066826122ec565b600080600080600080600080600060e08a8c03121561239f578485fd5b89356001600160401b03808211156123b5578687fd5b6123c18d838e01612308565b909b5099508991506123d560208d016122ec565b985060408c01359150808211156123ea578687fd5b506123f78c828d01612308565b909750955061240a905060608b01612351565b935061241860808b01612351565b925060a08a013561242881612877565b8092505060c08a013590509295985092959850929598565b60008060408385031215612452578182fd5b82356001600160401b0380821115612468578384fd5b818501915085601f83011261247b578384fd5b813560208282111561248f5761248f612861565b8160051b604051601f19603f830116810181811086821117156124b4576124b4612861565b604052838152828101945085830182870184018b10156124d2578889fd5b8896505b848710156124f45780358652600196909601959483019483016124d6565b50965061250490508782016122ec565b9450505050509250929050565b600060208284031215612522578081fd5b815161206681612877565b60006020828403121561253e578081fd5b5035919050565b600060208284031215612556578081fd5b5051919050565b81835260006001600160fb1b03831115612575578081fd5b8260051b80836020870137939093016020019283525090919050565b600082516125a38184602087016127e0565b9190910192915050565b60e0808252810189905260008a6101008301825b8c8110156125ef576001600160a01b036125da846122ec565b168252602092830192909101906001016125c1565b506001600160a01b038b1660208501528381036040850152612612818a8c61255d565b9250505061262b60608301876001600160401b03169052565b6001600160401b0394909416608082015291151560a083015260c0909101529695505050505050565b6020808252825182820181905260009190848201906040850190845b818110156126955783516001600160a01b031683529284019291840191600101612670565b50909695505050505050565b6020808252825182820181905260009190848201906040850190845b81811015612695578351835292840192918401916001016126bd565b60208152600082518060208401526126f88160408501602087016127e0565b601f01601f19169190910160400192915050565b602080825260059082015264053524432360dc1b604082015260600190565b602080825260059082015264535244313760d81b604082015260600190565b6000821982111561275d5761275d61284b565b500190565b60008261277d57634e487b7160e01b81526012600452602481fd5b500490565b600081600019048311821515161561279c5761279c61284b565b500290565b6000828210156127b3576127b361284b565b500390565b60006001600160401b03838116908316818110156127d8576127d861284b565b039392505050565b60005b838110156127fb5781810151838201526020016127e3565b838111156120d15750506000910152565b60006000198214156128205761282061284b565b5060010190565b600063ffffffff808316818114156128415761284161284b565b6001019392505050565b634e487b7160e01b600052601160045260246000fd5b634e487b7160e01b600052604160045260246000fd5b801515811461157f57600080fdfea26469706673582212207316d03f4fb630c33d20fbf62d1feda25bbd70fc260d2089924ff165ba39f97f64736f6c63430008040033",
  "immutableReferences": {},
  "source": "// SPDX-License-Identifier: GPL-3.0\n\npragma solidity ^0.8.4;\n\nimport \"@openzeppelin/contracts/utils/math/Math.sol\";\nimport \"@openzeppelin/contracts/token/ERC20/IERC20.sol\";\nimport \"@openzeppelin/contracts/token/ERC20/utils/SafeERC20.sol\";\n\n/**\n * Errors codes:\n *\n * SRD01: invalid starting timestamp\n * SRD02: invalid time duration\n * SRD03: inconsistent reward token/amount\n * SRD04: 0 address as reward token\n * SRD05: no reward\n * SRD06: no funding\n * SRD07: 0 address as stakable token\n * SRD08: distribution already started\n * SRD09: tried to stake nothing\n * SRD10: staking cap hit\n * SRD11: tried to withdraw nothing\n * SRD12: funds locked until the distribution ends\n * SRD13: withdrawn amount greater than current stake\n * SRD14: inconsistent claimed amounts\n * SRD15: insufficient claimable amount\n * SRD16: 0 address owner\n * SRD17: caller not owner\n * SRD18: already initialized\n * SRD19: invalid state for cancel to be called\n * SRD20: not started\n * SRD21: already ended\n */\ncontract ERC20StakingRewardsDistribution {\n    using SafeERC20 for IERC20;\n\n    uint224 constant MULTIPLIER = 2**112;\n\n    struct Reward {\n        address token;\n        uint256 amount;\n        uint256 perStakedToken;\n        uint256 recoverableSeconds;\n        uint256 claimed;\n    }\n\n    struct StakerRewardInfo {\n        uint256 consolidatedPerStakedToken;\n        uint256 earned;\n        uint256 claimed;\n    }\n\n    struct Staker {\n        uint256 stake;\n        mapping(address => StakerRewardInfo) rewardInfo;\n    }\n\n    Reward[] public rewards;\n    mapping(address => Staker) stakers;\n    uint64 public startingTimestamp;\n    uint64 public endingTimestamp;\n    uint64 public secondsDuration;\n    uint64 public lastConsolidationTimestamp;\n    IERC20 public stakableToken;\n    address public owner;\n    bool public locked;\n    bool public canceled;\n    bool public initialized;\n    uint256 public totalStakedTokensAmount;\n    uint256 public stakingCap;\n\n    event OwnershipTransferred(\n        address indexed previousOwner,\n        address indexed newOwner\n    );\n    event Initialized(\n        address[] rewardsTokenAddresses,\n        address stakableTokenAddress,\n        uint256[] rewardsAmounts,\n        uint64 startingTimestamp,\n        uint64 endingTimestamp,\n        bool locked,\n        uint256 stakingCap\n    );\n    event Canceled();\n    event Staked(address indexed staker, uint256 amount);\n    event Withdrawn(address indexed withdrawer, uint256 amount);\n    event Claimed(address indexed claimer, uint256[] amounts);\n    event Recovered(uint256[] amounts);\n\n    function initialize(\n        address[] calldata _rewardTokenAddresses,\n        address _stakableTokenAddress,\n        uint256[] calldata _rewardAmounts,\n        uint64 _startingTimestamp,\n        uint64 _endingTimestamp,\n        bool _locked,\n        uint256 _stakingCap\n    ) external onlyUninitialized {\n        require(_startingTimestamp > block.timestamp, \"SRD01\");\n        require(_endingTimestamp > _startingTimestamp, \"SRD02\");\n        require(_rewardTokenAddresses.length == _rewardAmounts.length, \"SRD03\");\n\n        secondsDuration = _endingTimestamp - _startingTimestamp;\n        // Initializing reward tokens and amounts\n        for (uint32 _i = 0; _i < _rewardTokenAddresses.length; _i++) {\n            address _rewardTokenAddress = _rewardTokenAddresses[_i];\n            uint256 _rewardAmount = _rewardAmounts[_i];\n            require(_rewardTokenAddress != address(0), \"SRD04\");\n            require(_rewardAmount > 0, \"SRD05\");\n            IERC20 _rewardToken = IERC20(_rewardTokenAddress);\n            require(\n                _rewardToken.balanceOf(address(this)) >= _rewardAmount,\n                \"SRD06\"\n            );\n            rewards.push(\n                Reward({\n                    token: _rewardTokenAddress,\n                    amount: _rewardAmount,\n                    perStakedToken: 0,\n                    recoverableSeconds: 0,\n                    claimed: 0\n                })\n            );\n        }\n\n        require(_stakableTokenAddress != address(0), \"SRD07\");\n        stakableToken = IERC20(_stakableTokenAddress);\n\n        owner = msg.sender;\n        startingTimestamp = _startingTimestamp;\n        endingTimestamp = _endingTimestamp;\n        lastConsolidationTimestamp = _startingTimestamp;\n        locked = _locked;\n        stakingCap = _stakingCap;\n        initialized = true;\n        canceled = false;\n\n        emit Initialized(\n            _rewardTokenAddresses,\n            _stakableTokenAddress,\n            _rewardAmounts,\n            _startingTimestamp,\n            _endingTimestamp,\n            _locked,\n            _stakingCap\n        );\n    }\n\n    function cancel() external onlyOwner {\n        require(initialized && !canceled, \"SRD19\");\n        require(block.timestamp < startingTimestamp, \"SRD08\");\n        for (uint256 _i; _i < rewards.length; _i++) {\n            Reward storage _reward = rewards[_i];\n            IERC20(_reward.token).safeTransfer(\n                owner,\n                IERC20(_reward.token).balanceOf(address(this))\n            );\n        }\n        canceled = true;\n        emit Canceled();\n    }\n\n    function recoverUnassignedRewards() external onlyStarted {\n        consolidateReward();\n        uint256[] memory _recoveredUnassignedRewards =\n            new uint256[](rewards.length);\n        bool _atLeastOneRecovery = false;\n        for (uint256 _i; _i < rewards.length; _i++) {\n            Reward storage _reward = rewards[_i];\n            // recoverable rewards are going to be recovered in this tx (if it does not revert),\n            // so we add them to the claimed rewards right now\n            _reward.claimed +=\n                (_reward.recoverableSeconds * _reward.amount) /\n                secondsDuration;\n            delete _reward.recoverableSeconds;\n            uint256 _recoverableRewards =\n                IERC20(_reward.token).balanceOf(address(this)) -\n                    (_reward.amount - _reward.claimed);\n            if (_recoverableRewards > 0 && !_atLeastOneRecovery)\n                _atLeastOneRecovery = true;\n            _recoveredUnassignedRewards[_i] = _recoverableRewards;\n            IERC20(_reward.token).safeTransfer(owner, _recoverableRewards);\n        }\n        require(_atLeastOneRecovery, \"\");\n        emit Recovered(_recoveredUnassignedRewards);\n    }\n\n    function stake(uint256 _amount) external onlyRunning {\n        require(_amount > 0, \"SRD09\");\n        if (stakingCap > 0) {\n            require(totalStakedTokensAmount + _amount <= stakingCap, \"SRD10\");\n        }\n        consolidateReward();\n        Staker storage _staker = stakers[msg.sender];\n        _staker.stake += _amount;\n        totalStakedTokensAmount += _amount;\n        stakableToken.safeTransferFrom(msg.sender, address(this), _amount);\n        emit Staked(msg.sender, _amount);\n    }\n\n    function withdraw(uint256 _amount) public onlyStarted {\n        require(_amount > 0, \"SRD11\");\n        if (locked) {\n            require(block.timestamp > endingTimestamp, \"SRD12\");\n        }\n        consolidateReward();\n        Staker storage _staker = stakers[msg.sender];\n        require(_staker.stake >= _amount, \"SRD13\");\n        _staker.stake -= _amount;\n        totalStakedTokensAmount -= _amount;\n        stakableToken.safeTransfer(msg.sender, _amount);\n        emit Withdrawn(msg.sender, _amount);\n    }\n\n    function claim(uint256[] memory _amounts, address _recipient)\n        external\n        onlyStarted\n    {\n        require(_amounts.length == rewards.length, \"SRD14\");\n        consolidateReward();\n        Staker storage _staker = stakers[msg.sender];\n        uint256[] memory _claimedRewards = new uint256[](rewards.length);\n        for (uint256 _i; _i < rewards.length; _i++) {\n            Reward storage _reward = rewards[_i];\n            StakerRewardInfo storage _stakerRewardInfo =\n                _staker.rewardInfo[_reward.token];\n            uint256 _claimableReward =\n                _stakerRewardInfo.earned - _stakerRewardInfo.claimed;\n            uint256 _wantedAmount = _amounts[_i];\n            require(_claimableReward >= _wantedAmount, \"SRD15\");\n            consolidateAndTransferClaim(\n                _reward,\n                _staker,\n                _wantedAmount,\n                _recipient\n            );\n            _claimedRewards[_i] = _wantedAmount;\n        }\n        emit Claimed(msg.sender, _claimedRewards);\n    }\n\n    function claimAll(address _recipient) public onlyStarted {\n        consolidateReward();\n        Staker storage _staker = stakers[msg.sender];\n        uint256[] memory _claimedRewards = new uint256[](rewards.length);\n        for (uint256 _i; _i < rewards.length; _i++) {\n            Reward storage _reward = rewards[_i];\n            StakerRewardInfo storage _stakerRewardInfo =\n                _staker.rewardInfo[_reward.token];\n            uint256 _claimableReward =\n                _stakerRewardInfo.earned - _stakerRewardInfo.claimed;\n            consolidateAndTransferClaim(\n                _reward,\n                _staker,\n                _claimableReward,\n                _recipient\n            );\n            _claimedRewards[_i] = _claimableReward;\n        }\n        emit Claimed(msg.sender, _claimedRewards);\n    }\n\n    function exit(address _recipient) external onlyStarted {\n        claimAll(_recipient);\n        withdraw(stakers[msg.sender].stake);\n    }\n\n    function consolidateAndTransferClaim(\n        Reward storage _reward,\n        Staker storage _staker,\n        uint256 _amount,\n        address _recipient\n    ) private {\n        _staker.rewardInfo[_reward.token].claimed += _amount;\n        _reward.claimed += _amount;\n        IERC20(_reward.token).safeTransfer(_recipient, _amount);\n    }\n\n    function consolidateReward() public onlyStarted {\n        uint64 _consolidationTimestamp =\n            uint64(Math.min(block.timestamp, endingTimestamp));\n        uint256 _lastPeriodDuration =\n            uint256(_consolidationTimestamp - lastConsolidationTimestamp);\n        Staker storage _staker = stakers[msg.sender];\n        for (uint256 _i; _i < rewards.length; _i++) {\n            Reward storage _reward = rewards[_i];\n            StakerRewardInfo storage _stakerRewardInfo =\n                _staker.rewardInfo[_reward.token];\n            if (totalStakedTokensAmount == 0) {\n                _reward.recoverableSeconds += _lastPeriodDuration;\n                // no need to update the reward per staked token since in this period\n                // there have been no staked tokens, so no reward has been given out to stakers\n            } else {\n                _reward.perStakedToken += ((_lastPeriodDuration *\n                    _reward.amount *\n                    MULTIPLIER) / (totalStakedTokensAmount * secondsDuration));\n            }\n            uint256 _rewardSinceLastConsolidation =\n                (_staker.stake *\n                    (_reward.perStakedToken -\n                        _stakerRewardInfo.consolidatedPerStakedToken)) /\n                    MULTIPLIER;\n            _stakerRewardInfo.earned += _rewardSinceLastConsolidation;\n            _stakerRewardInfo.consolidatedPerStakedToken = _reward\n                .perStakedToken;\n        }\n        lastConsolidationTimestamp = _consolidationTimestamp;\n    }\n\n    function claimableRewards(address _account)\n        public\n        view\n        returns (uint256[] memory)\n    {\n        uint256[] memory _outstandingRewards = new uint256[](rewards.length);\n        if (!initialized || block.timestamp < startingTimestamp) {\n            for (uint256 _i; _i < rewards.length; _i++) {\n                _outstandingRewards[_i] = 0;\n            }\n            return _outstandingRewards;\n        }\n        Staker storage _staker = stakers[_account];\n        uint64 _consolidationTimestamp =\n            uint64(Math.min(block.timestamp, endingTimestamp));\n        uint256 _lastPeriodDuration =\n            uint256(_consolidationTimestamp - lastConsolidationTimestamp);\n        for (uint256 _i; _i < rewards.length; _i++) {\n            Reward storage _reward = rewards[_i];\n            StakerRewardInfo storage _stakerRewardInfo =\n                _staker.rewardInfo[_reward.token];\n            uint256 _localRewardPerStakedToken = _reward.perStakedToken;\n            // only update reward per staked token if the last period had staked tokens\n            if (totalStakedTokensAmount > 0) {\n                _localRewardPerStakedToken += ((_lastPeriodDuration *\n                    _reward.amount *\n                    MULTIPLIER) / (totalStakedTokensAmount * secondsDuration));\n            }\n            // calculate outstanding reward since the last time the staker actively consolidated\n            uint256 _rewardSinceLastConsolidation =\n                (_staker.stake *\n                    (_reward.perStakedToken -\n                        _stakerRewardInfo.consolidatedPerStakedToken)) /\n                    MULTIPLIER;\n            _outstandingRewards[_i] =\n                _rewardSinceLastConsolidation +\n                (_stakerRewardInfo.earned - _stakerRewardInfo.claimed);\n        }\n        return _outstandingRewards;\n    }\n\n    function getRewardTokens() external view returns (address[] memory) {\n        address[] memory _rewardTokens = new address[](rewards.length);\n        for (uint256 _i = 0; _i < rewards.length; _i++) {\n            _rewardTokens[_i] = rewards[_i].token;\n        }\n        return _rewardTokens;\n    }\n\n    function rewardAmount(address _rewardToken)\n        external\n        view\n        returns (uint256)\n    {\n        for (uint256 _i = 0; _i < rewards.length; _i++) {\n            Reward storage _reward = rewards[_i];\n            if (_rewardToken == _reward.token) return _reward.amount;\n        }\n        return 0;\n    }\n\n    function stakedTokensOf(address _staker) external view returns (uint256) {\n        return stakers[_staker].stake;\n    }\n\n    function recoverableUnassignedReward(address _rewardToken)\n        external\n        view\n        returns (uint256)\n    {\n        for (uint256 _i = 0; _i < rewards.length; _i++) {\n            Reward storage _reward = rewards[_i];\n            if (_rewardToken == _reward.token)\n                return\n                    (_reward.recoverableSeconds * _reward.amount) /\n                    secondsDuration;\n        }\n        return 0;\n    }\n\n    function getClaimedRewards(address _claimer)\n        external\n        view\n        returns (uint256[] memory)\n    {\n        Staker storage _staker = stakers[_claimer];\n        uint256[] memory _claimedRewards = new uint256[](rewards.length);\n        for (uint256 _i = 0; _i < rewards.length; _i++) {\n            Reward storage _reward = rewards[_i];\n            _claimedRewards[_i] = _staker.rewardInfo[_reward.token].claimed;\n        }\n        return _claimedRewards;\n    }\n\n    function renounceOwnership() public onlyOwner {\n        owner = address(0);\n        emit OwnershipTransferred(owner, address(0));\n    }\n\n    function transferOwnership(address _newOwner) public onlyOwner {\n        require(_newOwner != address(0), \"SRD16\");\n        emit OwnershipTransferred(owner, _newOwner);\n        owner = _newOwner;\n    }\n\n    modifier onlyOwner() {\n        require(owner == msg.sender, \"SRD17\");\n        _;\n    }\n\n    modifier onlyUninitialized() {\n        require(!initialized, \"SRD18\");\n        _;\n    }\n\n    modifier onlyStarted() {\n        require(\n            initialized && !canceled && block.timestamp >= startingTimestamp,\n            \"SRD20\"\n        );\n        _;\n    }\n\n    modifier onlyRunning() {\n        require(\n            initialized &&\n                !canceled &&\n                block.timestamp >= startingTimestamp &&\n                block.timestamp <= endingTimestamp,\n            \"SRD21\"\n        );\n        _;\n    }\n}\n",
  "sourcePath": "/home/luzzif/Projects/swapr-lp-staker/contracts/ERC20StakingRewardsDistribution.sol",
  "compiler": {
    "name": "solc",
    "version": "0.8.4+commit.c7e474f2.Emscripten.clang"
  },
  "schemaVersion": "3.3.3",
  "updatedAt": "2021-05-08T16:55:00.319Z",
  "devdoc": {
    "kind": "dev",
    "methods": {},
    "version": 1
  },
  "userdoc": {
    "kind": "user",
    "methods": {},
    "notice": "Errors codes: SRD01: invalid starting timestamp SRD02: invalid time duration SRD03: inconsistent reward token/amount SRD04: 0 address as reward token SRD05: no reward SRD06: no funding SRD07: 0 address as stakable token SRD08: distribution already started SRD09: tried to stake nothing SRD10: staking cap hit SRD11: tried to withdraw nothing SRD12: funds locked until the distribution ends SRD13: withdrawn amount greater than current stake SRD14: inconsistent claimed amounts SRD15: insufficient claimable amount SRD16: 0 address owner SRD17: caller not owner SRD18: already initialized SRD19: invalid state for cancel to be called SRD20: not started SRD21: already ended",
    "version": 1
  }
}