{
  "contractName": "ERC20StakingRewardsDistribution",
  "abi": [
    {
      "anonymous": false,
      "inputs": [],
      "name": "Canceled",
      "type": "event"
    },
    {
      "anonymous": false,
      "inputs": [
        {
          "indexed": true,
          "internalType": "address",
          "name": "claimer",
          "type": "address"
        },
        {
          "indexed": false,
          "internalType": "uint256[]",
          "name": "amounts",
          "type": "uint256[]"
        }
      ],
      "name": "Claimed",
      "type": "event"
    },
    {
      "anonymous": false,
      "inputs": [
        {
          "indexed": false,
          "internalType": "address[]",
          "name": "rewardsTokenAddresses",
          "type": "address[]"
        },
        {
          "indexed": false,
          "internalType": "address",
          "name": "stakableTokenAddress",
          "type": "address"
        },
        {
          "indexed": false,
          "internalType": "uint256[]",
          "name": "rewardsAmounts",
          "type": "uint256[]"
        },
        {
          "indexed": false,
          "internalType": "uint64",
          "name": "startingTimestamp",
          "type": "uint64"
        },
        {
          "indexed": false,
          "internalType": "uint64",
          "name": "endingTimestamp",
          "type": "uint64"
        },
        {
          "indexed": false,
          "internalType": "bool",
          "name": "locked",
          "type": "bool"
        }
      ],
      "name": "Initialized",
      "type": "event"
    },
    {
      "anonymous": false,
      "inputs": [
        {
          "indexed": true,
          "internalType": "address",
          "name": "previousOwner",
          "type": "address"
        },
        {
          "indexed": true,
          "internalType": "address",
          "name": "newOwner",
          "type": "address"
        }
      ],
      "name": "OwnershipTransferred",
      "type": "event"
    },
    {
      "anonymous": false,
      "inputs": [
        {
          "indexed": false,
          "internalType": "uint256[]",
          "name": "amounts",
          "type": "uint256[]"
        }
      ],
      "name": "Recovered",
      "type": "event"
    },
    {
      "anonymous": false,
      "inputs": [
        {
          "indexed": true,
          "internalType": "address",
          "name": "staker",
          "type": "address"
        },
        {
          "indexed": false,
          "internalType": "uint256",
          "name": "amount",
          "type": "uint256"
        }
      ],
      "name": "Staked",
      "type": "event"
    },
    {
      "anonymous": false,
      "inputs": [
        {
          "indexed": true,
          "internalType": "address",
          "name": "withdrawer",
          "type": "address"
        },
        {
          "indexed": false,
          "internalType": "uint256",
          "name": "amount",
          "type": "uint256"
        }
      ],
      "name": "Withdrawn",
      "type": "event"
    },
    {
      "inputs": [
        {
          "internalType": "address",
          "name": "",
          "type": "address"
        },
        {
          "internalType": "address",
          "name": "",
          "type": "address"
        }
      ],
      "name": "claimedReward",
      "outputs": [
        {
          "internalType": "uint256",
          "name": "",
          "type": "uint256"
        }
      ],
      "stateMutability": "view",
      "type": "function"
    },
    {
      "inputs": [
        {
          "internalType": "address",
          "name": "",
          "type": "address"
        },
        {
          "internalType": "address",
          "name": "",
          "type": "address"
        }
      ],
      "name": "consolidatedRewardsPerStakedToken",
      "outputs": [
        {
          "internalType": "uint256",
          "name": "",
          "type": "uint256"
        }
      ],
      "stateMutability": "view",
      "type": "function"
    },
    {
      "inputs": [
        {
          "internalType": "address",
          "name": "",
          "type": "address"
        },
        {
          "internalType": "address",
          "name": "",
          "type": "address"
        }
      ],
      "name": "earnedRewards",
      "outputs": [
        {
          "internalType": "uint256",
          "name": "",
          "type": "uint256"
        }
      ],
      "stateMutability": "view",
      "type": "function"
    },
    {
      "inputs": [],
      "name": "endingTimestamp",
      "outputs": [
        {
          "internalType": "uint64",
          "name": "",
          "type": "uint64"
        }
      ],
      "stateMutability": "view",
      "type": "function"
    },
    {
      "inputs": [],
      "name": "initialized",
      "outputs": [
        {
          "internalType": "bool",
          "name": "",
          "type": "bool"
        }
      ],
      "stateMutability": "view",
      "type": "function"
    },
    {
      "inputs": [],
      "name": "lastConsolidationTimestamp",
      "outputs": [
        {
          "internalType": "uint64",
          "name": "",
          "type": "uint64"
        }
      ],
      "stateMutability": "view",
      "type": "function"
    },
    {
      "inputs": [],
      "name": "locked",
      "outputs": [
        {
          "internalType": "bool",
          "name": "",
          "type": "bool"
        }
      ],
      "stateMutability": "view",
      "type": "function"
    },
    {
      "inputs": [],
      "name": "owner",
      "outputs": [
        {
          "internalType": "address",
          "name": "",
          "type": "address"
        }
      ],
      "stateMutability": "view",
      "type": "function"
    },
    {
      "inputs": [
        {
          "internalType": "address",
          "name": "",
          "type": "address"
        }
      ],
      "name": "recoverableUnassignedReward",
      "outputs": [
        {
          "internalType": "uint256",
          "name": "",
          "type": "uint256"
        }
      ],
      "stateMutability": "view",
      "type": "function"
    },
    {
      "inputs": [],
      "name": "renounceOwnership",
      "outputs": [],
      "stateMutability": "nonpayable",
      "type": "function"
    },
    {
      "inputs": [
        {
          "internalType": "address",
          "name": "",
          "type": "address"
        }
      ],
      "name": "rewardAmount",
      "outputs": [
        {
          "internalType": "uint256",
          "name": "",
          "type": "uint256"
        }
      ],
      "stateMutability": "view",
      "type": "function"
    },
    {
      "inputs": [
        {
          "internalType": "address",
          "name": "",
          "type": "address"
        }
      ],
      "name": "rewardPerSecond",
      "outputs": [
        {
          "internalType": "uint256",
          "name": "",
          "type": "uint256"
        }
      ],
      "stateMutability": "view",
      "type": "function"
    },
    {
      "inputs": [
        {
          "internalType": "address",
          "name": "",
          "type": "address"
        }
      ],
      "name": "rewardPerStakedToken",
      "outputs": [
        {
          "internalType": "uint256",
          "name": "",
          "type": "uint256"
        }
      ],
      "stateMutability": "view",
      "type": "function"
    },
    {
      "inputs": [
        {
          "internalType": "address",
          "name": "",
          "type": "address"
        }
      ],
      "name": "rewardTokenMultiplier",
      "outputs": [
        {
          "internalType": "uint256",
          "name": "",
          "type": "uint256"
        }
      ],
      "stateMutability": "view",
      "type": "function"
    },
    {
      "inputs": [
        {
          "internalType": "uint256",
          "name": "",
          "type": "uint256"
        }
      ],
      "name": "rewardTokens",
      "outputs": [
        {
          "internalType": "contract ERC20",
          "name": "",
          "type": "address"
        }
      ],
      "stateMutability": "view",
      "type": "function"
    },
    {
      "inputs": [],
      "name": "stakableToken",
      "outputs": [
        {
          "internalType": "contract ERC20",
          "name": "",
          "type": "address"
        }
      ],
      "stateMutability": "view",
      "type": "function"
    },
    {
      "inputs": [
        {
          "internalType": "address",
          "name": "",
          "type": "address"
        }
      ],
      "name": "stakedTokenAmount",
      "outputs": [
        {
          "internalType": "uint256",
          "name": "",
          "type": "uint256"
        }
      ],
      "stateMutability": "view",
      "type": "function"
    },
    {
      "inputs": [
        {
          "internalType": "address",
          "name": "",
          "type": "address"
        }
      ],
      "name": "stakedTokensOf",
      "outputs": [
        {
          "internalType": "uint256",
          "name": "",
          "type": "uint256"
        }
      ],
      "stateMutability": "view",
      "type": "function"
    },
    {
      "inputs": [],
      "name": "startingTimestamp",
      "outputs": [
        {
          "internalType": "uint64",
          "name": "",
          "type": "uint64"
        }
      ],
      "stateMutability": "view",
      "type": "function"
    },
    {
      "inputs": [],
      "name": "totalStakedTokensAmount",
      "outputs": [
        {
          "internalType": "uint256",
          "name": "",
          "type": "uint256"
        }
      ],
      "stateMutability": "view",
      "type": "function"
    },
    {
      "inputs": [
        {
          "internalType": "address",
          "name": "newOwner",
          "type": "address"
        }
      ],
      "name": "transferOwnership",
      "outputs": [],
      "stateMutability": "nonpayable",
      "type": "function"
    },
    {
      "inputs": [],
      "name": "getRewardTokens",
      "outputs": [
        {
          "internalType": "contract ERC20[]",
          "name": "",
          "type": "address[]"
        }
      ],
      "stateMutability": "view",
      "type": "function"
    },
    {
      "inputs": [
        {
          "internalType": "address[]",
          "name": "_rewardTokenAddresses",
          "type": "address[]"
        },
        {
          "internalType": "address",
          "name": "_stakableTokenAddress",
          "type": "address"
        },
        {
          "internalType": "uint256[]",
          "name": "_rewardAmounts",
          "type": "uint256[]"
        },
        {
          "internalType": "uint64",
          "name": "_startingTimestamp",
          "type": "uint64"
        },
        {
          "internalType": "uint64",
          "name": "_endingTimestamp",
          "type": "uint64"
        },
        {
          "internalType": "bool",
          "name": "_locked",
          "type": "bool"
        }
      ],
      "name": "initialize",
      "outputs": [],
      "stateMutability": "nonpayable",
      "type": "function"
    },
    {
      "inputs": [],
      "name": "cancel",
      "outputs": [],
      "stateMutability": "nonpayable",
      "type": "function"
    },
    {
      "inputs": [],
      "name": "recoverUnassignedRewards",
      "outputs": [],
      "stateMutability": "nonpayable",
      "type": "function"
    },
    {
      "inputs": [
        {
          "internalType": "uint256",
          "name": "_amount",
          "type": "uint256"
        }
      ],
      "name": "stake",
      "outputs": [],
      "stateMutability": "nonpayable",
      "type": "function"
    },
    {
      "inputs": [
        {
          "internalType": "uint256",
          "name": "_amount",
          "type": "uint256"
        }
      ],
      "name": "withdraw",
      "outputs": [],
      "stateMutability": "nonpayable",
      "type": "function"
    },
    {
      "inputs": [],
      "name": "claim",
      "outputs": [],
      "stateMutability": "nonpayable",
      "type": "function"
    },
    {
      "inputs": [],
      "name": "consolidateReward",
      "outputs": [],
      "stateMutability": "nonpayable",
      "type": "function"
    }
  ],
  "bytecode": "0x608060405234801561001057600080fd5b50600061001b61006a565b600080546001600160a01b0319166001600160a01b0383169081178255604051929350917f8be0079c531659141344cd1fd0a4f28419497f9722a3daafe3b4186f6b6457e0908290a35061006e565b3390565b6128198061007d6000396000f3fe608060405234801561001057600080fd5b50600436106101cf5760003560e01c8063867b2f2711610104578063c03e7295116100a2578063e644067d11610071578063e644067d14610593578063e66d85be1461059b578063ea8a1af0146105c1578063f2fde38b146105c9576101cf565b8063c03e729514610441578063c10de3001461052b578063c4f59f9b14610533578063cf3090121461058b576101cf565b806398f81230116100de57806398f81230146103d0578063a694fc3a146103f6578063ab08d4fc14610413578063b41fa97914610439576101cf565b8063867b2f271461039a57806388786272146103c05780638da5cb5b146103c8576101cf565b80635e5294b711610171578063715018a61161014b578063715018a614610319578063728e4a671461032157806375b8dbf81461034f5780637bb7bed11461037d576101cf565b80635e5294b7146102c7578063645a8a56146102eb5780636715dcb814610311576101cf565b806334380a61116101ad57806334380a61146102335780633b34ee501461027357806348895a9c146102995780634e71d92d146102bf576101cf565b8063158ef93e146101d45780631c96c3fb146101f05780632e1a7d4d14610214575b600080fd5b6101dc6105ef565b604080519115158252519081900360200190f35b6101f86105ff565b604080516001600160a01b039092168252519081900360200190f35b6102316004803603602081101561022a57600080fd5b503561060e565b005b6102616004803603604081101561024957600080fd5b506001600160a01b0381358116916020013516610836565b60408051918252519081900360200190f35b6102616004803603602081101561028957600080fd5b50356001600160a01b0316610853565b610261600480360360208110156102af57600080fd5b50356001600160a01b0316610865565b610231610877565b6102cf610adf565b604080516001600160401b039092168252519081900360200190f35b6102616004803603602081101561030157600080fd5b50356001600160a01b0316610af5565b610231610b07565b610231610e65565b6102616004803603604081101561033757600080fd5b506001600160a01b0381358116916020013516610f07565b6102616004803603604081101561036557600080fd5b506001600160a01b0381358116916020013516610f24565b6101f86004803603602081101561039357600080fd5b5035610f41565b610261600480360360208110156103b057600080fd5b50356001600160a01b0316610f68565b6102cf610f7a565b6101f8610f89565b610261600480360360208110156103e657600080fd5b50356001600160a01b0316610f98565b6102316004803603602081101561040c57600080fd5b5035610faa565b6102616004803603602081101561042957600080fd5b50356001600160a01b0316611189565b61026161119b565b610231600480360360c081101561045757600080fd5b81019060208101813564010000000081111561047257600080fd5b82018360208201111561048457600080fd5b803590602001918460208302840111640100000000831117156104a657600080fd5b919390926001600160a01b03833516926040810190602001356401000000008111156104d157600080fd5b8201836020820111156104e357600080fd5b8035906020019184602083028401116401000000008311171561050557600080fd5b91935091506001600160401b0381358116916020810135909116906040013515156111a1565b6102cf6117f6565b61053b61180c565b60408051602080825283518183015283519192839290830191858101910280838360005b8381101561057757818101518382015260200161055f565b505050509050019250505060405180910390f35b6101dc61186e565b61023161187e565b610261600480360360208110156105b157600080fd5b50356001600160a01b0316611a76565b610231611a88565b610231600480360360208110156105df57600080fd5b50356001600160a01b0316611c4f565b600954600160881b900460ff1681565b6002546001600160a01b031681565b600954600160881b900460ff166106565760405162461bcd60e51b81526004018080602001828103825260308152602001806124cd6030913960400191505060405180910390fd5b600954600160881b900460ff16801561067a57506009546001600160401b03164210155b6106b55760405162461bcd60e51b815260040180806020018281038252602c815260200180612324602c913960400191505060405180910390fd5b600081116106f45760405162461bcd60e51b815260040180806020018281038252603a815260200180612350603a913960400191505060405180910390fd5b600954600160801b900460ff161561075657600954600160401b90046001600160401b031642116107565760405162461bcd60e51b81526004018080602001828103825260498152602001806126fd6049913960600191505060405180910390fd5b61075e610b07565b336000908152600b60205260409020548111156107ac5760405162461bcd60e51b815260040180806020018281038252604c8152602001806123f1604c913960600191505060405180910390fd5b336000908152600b60205260409020546107c69082611d47565b336000908152600b60205260409020556007546107e39082611d47565b6007556002546107fd906001600160a01b03163383611d92565b60408051828152905133917f7084f5476618d8e60b11ef0d7d3f06914655adb8793e28ff7f018d4c76d505d5919081900360200190a250565b600e60209081526000928352604080842090915290825290205481565b600a6020526000908152604090205481565b60036020526000908152604090205481565b600954600160881b900460ff166108bf5760405162461bcd60e51b81526004018080602001828103825260308152602001806124cd6030913960400191505060405180910390fd5b600954600160881b900460ff1680156108e357506009546001600160401b03164210155b61091e5760405162461bcd60e51b815260040180806020018281038252602c815260200180612324602c913960400191505060405180910390fd5b610926610b07565b6001546060906001600160401b038111801561094157600080fd5b5060405190808252806020026020018201604052801561096b578160200160208202803683370190505b50905060005b600154811015610a675760006001828154811061098a57fe5b600091825260208083209091015433808452600e835260408085206001600160a01b0390931680865292845280852054918552600d8452808520838652909352918320549093508392916109de9190611d47565b336000908152600e602090815260408083206001600160a01b0387168452909152902054909150610a0f9082611de9565b336000818152600e602090815260408083206001600160a01b038881168552925290912092909255610a449185169083611d92565b80858581518110610a5157fe5b6020908102919091010152505050600101610971565b50604080516020808252835181830152835133937f28ee566bdecaf975c0979f4d09fecf91a9009ffe78523aef053a678134137b8b93869390928392830191808601910280838360005b83811015610ac9578181015183820152602001610ab1565b505050509050019250505060405180910390a250565b600954600160401b90046001600160401b031681565b60046020526000908152604090205481565b600954600160881b900460ff16610b4f5760405162461bcd60e51b81526004018080602001828103825260308152602001806124cd6030913960400191505060405180910390fd5b600954600160881b900460ff168015610b7357506009546001600160401b03164210155b610bae5760405162461bcd60e51b815260040180806020018281038252602c815260200180612324602c913960400191505060405180910390fd5b600954600090610bcf904290600160401b90046001600160401b0316611e43565b600954909150600090610bf5906001600160401b0380851691600160901b900416611d47565b905060005b600154811015610e3657600060018281548110610c1357fe5b6000918252602090912001546007546001600160a01b039091169150610ca6576001600160a01b038116600090815260056020526040902054610c7a90610c5b908590611e59565b6001600160a01b0383166000908152600a602052604090205490611de9565b6001600160a01b0382166000908152600a60209081526040808320939093556008905290812055610d2d565b6007546001600160a01b038216600090815260036020908152604080832054600590925290912054610d1392610cf4929091610cee9190610ce8908990611e59565b90611e59565b90611eb2565b6001600160a01b03831660009081526008602052604090205490611de9565b6001600160a01b0382166000908152600860205260409020555b6001600160a01b038116600090815260086020526040812054610d51576000610db2565b6001600160a01b038216600081815260036020908152604080832054338452600c835281842094845293825280832054600890925290912054610db29291610cee91610d9c91611d47565b336000908152600b602052604090205490611e59565b336000908152600d602090815260408083206001600160a01b0387168452909152902054909150610de39082611de9565b336000818152600d602090815260408083206001600160a01b0397909716808452968252808320949094556008815283822054928252600c81528382209582529490945292209190915550600101610bfa565b5050600980546001600160401b03909216600160901b0267ffffffffffffffff60901b19909216919091179055565b610e6d611ef4565b6000546001600160a01b03908116911614610ebd576040805162461bcd60e51b81526020600482018190526024820152600080516020612560833981519152604482015290519081900360640190fd5b600080546040516001600160a01b03909116907f8be0079c531659141344cd1fd0a4f28419497f9722a3daafe3b4186f6b6457e0908390a3600080546001600160a01b0319169055565b600d60209081526000928352604080842090915290825290205481565b600c60209081526000928352604080842090915290825290205481565b60018181548110610f4e57fe5b6000918252602090912001546001600160a01b0316905081565b60056020526000908152604090205481565b6009546001600160401b031681565b6000546001600160a01b031690565b60086020526000908152604090205481565b600954600160881b900460ff16610ff25760405162461bcd60e51b81526004018080602001828103825260308152602001806124cd6030913960400191505060405180910390fd5b600954600160881b900460ff16801561101657506009546001600160401b03164210155b6110515760405162461bcd60e51b815260040180806020018281038252602c815260200180612324602c913960400191505060405180910390fd5b600954600160881b900460ff16801561107c5750600954600160401b90046001600160401b03164211155b6110b75760405162461bcd60e51b815260040180806020018281038252602e815260200180612694602e913960400191505060405180910390fd5b600081116110f65760405162461bcd60e51b81526004018080602001828103825260378152602001806126216037913960400191505060405180910390fd5b6110fe610b07565b336000908152600b60205260409020546111189082611de9565b336000908152600b60205260409020556007546111359082611de9565b600755600254611150906001600160a01b0316333084611ef8565b60408051828152905133917f9e71bc8eea02a63969f509818f2dafb9254532904319f9dbda79b67bd34a5f3d919081900360200190a250565b600b6020526000908152604090205481565b60075481565b6111a9611ef4565b6000546001600160a01b039081169116146111f9576040805162461bcd60e51b81526020600482018190526024820152600080516020612560833981519152604482015290519081900360640190fd5b600954600160881b900460ff16156112425760405162461bcd60e51b81526004018080602001828103825260348152602001806124996034913960400191505060405180910390fd5b42836001600160401b0316116112895760405162461bcd60e51b815260040180806020018281038252603b8152602001806126c2603b913960400191505060405180910390fd5b826001600160401b0316826001600160401b0316116112d95760405162461bcd60e51b815260040180806020018281038252603681526020018061243d6036913960400191505060405180910390fd5b8684146113175760405162461bcd60e51b81526004018080602001828103825260418152602001806123b06041913960600191505060405180910390fd5b6001600160401b038383031660005b63ffffffff81168911156116475760008a8a8363ffffffff1681811061134857fe5b905060200201356001600160a01b03169050600088888463ffffffff1681811061136e57fe5b60200291909101359150506001600160a01b0382166113be5760405162461bcd60e51b815260040180806020018281038252603a815260200180612580603a913960400191505060405180910390fd5b600081116113fd5760405162461bcd60e51b815260040180806020018281038252602a8152602001806125ba602a913960400191505060405180910390fd5b8381101561143c5760405162461bcd60e51b81526004018080602001828103825260498152602001806127706049913960600191505060405180910390fd5b604080516370a0823160e01b81523060048201529051839183916001600160a01b038416916370a08231916024808301926020929190829003018186803b15801561148657600080fd5b505afa15801561149a573d6000803e3d6000fd5b505050506040513d60208110156114b057600080fd5b505110156114ef5760405162461bcd60e51b815260040180806020018281038252602b8152602001806127b9602b913960400191505060405180910390fd5b6000816001600160a01b031663313ce5676040518163ffffffff1660e01b815260040160206040518083038186803b15801561152a57600080fd5b505afa15801561153e573d6000803e3d6000fd5b505050506040513d602081101561155457600080fd5b505160ff169050801580159061156b575060128111155b6115a65760405162461bcd60e51b815260040180806020018281038252604281526020018061251e6042913960600191505060405180910390fd5b600180548082019091557fb10e2d527612073b26eecdfd717e6a320cf44b4afac2b0732d9fcbe2b7fa0cf60180546001600160a01b0319166001600160a01b038481169190911790915584166000908152600360205260409020600a82900a90556116118387611eb2565b6001600160a01b039094166000908152600560209081526040808320969096556004905293909320919091555050600101611326565b506001600160a01b03871661168d5760405162461bcd60e51b815260040180806020018281038252603c815260200180612658603c913960400191505060405180910390fd5b600280546001600160a01b0319166001600160a01b03891690811790915560098054600160881b67ffffffffffffffff199091166001600160401b038881169182176fffffffffffffffff00000000000000001916600160401b9189169182021767ffffffffffffffff60901b1916600160901b83021760ff60801b1916600160801b8815159081029190911760ff60881b191693909317909355604080516020808201969096526060810192909252608082019390935260a081019190915260c080825281018b90527fe0447a394d11ec1fdc78a0ee3f2ce94c11fcfcf256a283544638f918f2df2800928c928c928c928c928c928c928c928c9291829182019060e08301908c908c0280828437600083820152601f01601f19169091018481038352888152602090810191508990890280828437600083820152604051601f909101601f19169092018290039c50909a5050505050505050505050a1505050505050505050565b600954600160901b90046001600160401b031681565b6060600180548060200260200160405190810160405280929190818152602001828054801561186457602002820191906000526020600020905b81546001600160a01b03168152600190910190602001808311611846575b5050505050905090565b600954600160801b900460ff1681565b600954600160881b900460ff166118c65760405162461bcd60e51b81526004018080602001828103825260308152602001806124cd6030913960400191505060405180910390fd5b600954600160881b900460ff1680156118ea57506009546001600160401b03164210155b6119255760405162461bcd60e51b815260040180806020018281038252602c815260200180612324602c913960400191505060405180910390fd5b61192d610b07565b6001546060816001600160401b038111801561194857600080fd5b50604051908082528060200260200182016040528015611972578160200160208202803683370190505b50905060005b828110156119fc5760006001828154811061198f57fe5b60009182526020808320909101546001600160a01b0316808352600a909152604082208054929055845190925081908590859081106119ca57fe5b6020026020010181815250506119f26119e1610f89565b6001600160a01b0384169083611d92565b5050600101611978565b507ff904fafa600a7e4e8039f3a5497d1b6016772e3060f87d3e40f911b315f00bd1816040518080602001828103825283818151815260200191508051906020019060200280838360005b83811015611a5f578181015183820152602001611a47565b505050509050019250505060405180910390a15050565b60066020526000908152604090205481565b600954600160881b900460ff16611ad05760405162461bcd60e51b81526004018080602001828103825260308152602001806124cd6030913960400191505060405180910390fd5b611ad8611ef4565b6000546001600160a01b03908116911614611b28576040805162461bcd60e51b81526020600482018190526024820152600080516020612560833981519152604482015290519081900360640190fd5b6009546001600160401b03164210611b715760405162461bcd60e51b815260040180806020018281038252603d8152602001806125e4603d913960400191505060405180910390fd5b60005b600154811015611bf757600060018281548110611b8d57fe5b60009182526020808320909101546001600160a01b03168083526004825260408084208054600385528286208690559085905560059093528320929092559091508190611bec611bdb610f89565b6001600160a01b0385169083611d92565b505050600101611b74565b50611c04600160006122e9565b600280546001600160a01b0319169055600980546001600160d01b03191690556040517f1afb0ae590df277bcb3a37f88612725bf1f7df4755792b1548a7efe77985ff7790600090a1565b611c57611ef4565b6000546001600160a01b03908116911614611ca7576040805162461bcd60e51b81526020600482018190526024820152600080516020612560833981519152604482015290519081900360640190fd5b6001600160a01b038116611cec5760405162461bcd60e51b815260040180806020018281038252602681526020018061238a6026913960400191505060405180910390fd5b600080546040516001600160a01b03808516939216917f8be0079c531659141344cd1fd0a4f28419497f9722a3daafe3b4186f6b6457e091a3600080546001600160a01b0319166001600160a01b0392909216919091179055565b6000611d8983836040518060400160405280601e81526020017f536166654d6174683a207375627472616374696f6e206f766572666c6f770000815250611f58565b90505b92915050565b604080516001600160a01b038416602482015260448082018490528251808303909101815260649091019091526020810180516001600160e01b031663a9059cbb60e01b179052611de4908490611ff4565b505050565b600082820183811015611d89576040805162461bcd60e51b815260206004820152601b60248201527f536166654d6174683a206164646974696f6e206f766572666c6f770000000000604482015290519081900360640190fd5b6000818310611e525781611d89565b5090919050565b600082611e6857506000611d8c565b82820282848281611e7557fe5b0414611d895760405162461bcd60e51b81526004018080602001828103825260218152602001806124fd6021913960400191505060405180910390fd5b6000611d8983836040518060400160405280601a81526020017f536166654d6174683a206469766973696f6e206279207a65726f0000000000008152506120a5565b3390565b604080516001600160a01b0380861660248301528416604482015260648082018490528251808303909101815260849091019091526020810180516001600160e01b03166323b872dd60e01b179052611f52908590611ff4565b50505050565b60008184841115611fe75760405162461bcd60e51b81526004018080602001828103825283818151815260200191508051906020019080838360005b83811015611fac578181015183820152602001611f94565b50505050905090810190601f168015611fd95780820380516001836020036101000a031916815260200191505b509250505060405180910390fd5b50508183035b9392505050565b6060612049826040518060400160405280602081526020017f5361666545524332303a206c6f772d6c6576656c2063616c6c206661696c6564815250856001600160a01b031661210a9092919063ffffffff16565b805190915015611de45780806020019051602081101561206857600080fd5b5051611de45760405162461bcd60e51b815260040180806020018281038252602a815260200180612746602a913960400191505060405180910390fd5b600081836120f45760405162461bcd60e51b8152602060048201818152835160248401528351909283926044909101919085019080838360008315611fac578181015183820152602001611f94565b50600083858161210057fe5b0495945050505050565b60606121198484600085612121565b949350505050565b6060824710156121625760405162461bcd60e51b81526004018080602001828103825260268152602001806124736026913960400191505060405180910390fd5b61216b8561227d565b6121bc576040805162461bcd60e51b815260206004820152601d60248201527f416464726573733a2063616c6c20746f206e6f6e2d636f6e7472616374000000604482015290519081900360640190fd5b60006060866001600160a01b031685876040518082805190602001908083835b602083106121fb5780518252601f1990920191602091820191016121dc565b6001836020036101000a03801982511681845116808217855250505050505090500191505060006040518083038185875af1925050503d806000811461225d576040519150601f19603f3d011682016040523d82523d6000602084013e612262565b606091505b5091509150612272828286612283565b979650505050505050565b3b151590565b60608315612292575081611fed565b8251156122a25782518084602001fd5b60405162461bcd60e51b8152602060048201818152845160248401528451859391928392604401919085019080838360008315611fac578181015183820152602001611f94565b5080546000825590600052602060002090810190612307919061230a565b50565b5b8082111561231f576000815560010161230b565b509056fe45524332305374616b696e6752657761726473446973747269627574696f6e3a206e6f74207374617274656445524332305374616b696e6752657761726473446973747269627574696f6e3a20747269656420746f207769746864726177206e6f7468696e674f776e61626c653a206e6577206f776e657220697320746865207a65726f206164647265737345524332305374616b696e6752657761726473446973747269627574696f6e3a20696e636f6e73697374656e742072657761726420746f6b656e2f616d6f756e7445524332305374616b696e6752657761726473446973747269627574696f6e3a2077697468647261776e20616d6f756e742067726561746572207468616e2063757272656e74207374616b6545524332305374616b696e6752657761726473446973747269627574696f6e3a20696e76616c69642074696d65206475726174696f6e416464726573733a20696e73756666696369656e742062616c616e636520666f722063616c6c45524332305374616b696e6752657761726473446973747269627574696f6e3a20616c726561647920696e697469616c697a656445524332305374616b696e6752657761726473446973747269627574696f6e3a206e6f7420696e697469616c697a6564536166654d6174683a206d756c7469706c69636174696f6e206f766572666c6f7745524332305374616b696e6752657761726473446973747269627574696f6e3a20696e76616c696420646563696d616c7320666f722072657761726420746f6b656e4f776e61626c653a2063616c6c6572206973206e6f7420746865206f776e657245524332305374616b696e6752657761726473446973747269627574696f6e3a203020616464726573732061732072657761726420746f6b656e45524332305374616b696e6752657761726473446973747269627574696f6e3a206e6f2072657761726445524332305374616b696e6752657761726473446973747269627574696f6e3a20646973747269627574696f6e20616c7265616479207374617274656445524332305374616b696e6752657761726473446973747269627574696f6e3a20747269656420746f207374616b65206e6f7468696e6745524332305374616b696e6752657761726473446973747269627574696f6e3a20302061646472657373206173207374616b61626c6520746f6b656e45524332305374616b696e6752657761726473446973747269627574696f6e3a20616c726561647920656e64656445524332305374616b696e6752657761726473446973747269627574696f6e3a20696e76616c6964207374617274696e672074696d657374616d7045524332305374616b696e6752657761726473446973747269627574696f6e3a2066756e6473206c6f636b656420756e74696c2074686520646973747269627574696f6e20656e64735361666545524332303a204552433230206f7065726174696f6e20646964206e6f74207375636365656445524332305374616b696e6752657761726473446973747269627574696f6e3a2072657761726420616d6f756e74206c657373207468616e207365636f6e6473206475726174696f6e45524332305374616b696e6752657761726473446973747269627574696f6e3a206e6f2066756e64696e67a2646970667358221220f6cfdf20752dba6a8305e3677be9c2be7eaa29c143978d52134b1dbd8b779d7c64736f6c634300060c0033",
  "immutableReferences": {},
  "source": "// SPDX-License-Identifier: GPL-3.0\n\npragma solidity ^0.6.12;\n\nimport \"@openzeppelin/contracts/math/SafeMath.sol\";\nimport \"@openzeppelin/contracts/math/Math.sol\";\nimport \"@openzeppelin/contracts/token/ERC20/ERC20.sol\";\nimport \"@openzeppelin/contracts/token/ERC20/SafeERC20.sol\";\nimport \"@openzeppelin/contracts/access/Ownable.sol\";\n\ncontract ERC20StakingRewardsDistribution is Ownable {\n    using SafeMath for uint256;\n    using SafeMath for uint64;\n    using SafeERC20 for ERC20;\n\n    ERC20[] public rewardTokens;\n    ERC20 public stakableToken;\n    mapping(address => uint256) public rewardTokenMultiplier;\n    mapping(address => uint256) public rewardAmount;\n    mapping(address => uint256) public rewardPerSecond;\n    mapping(address => uint256) public stakedTokenAmount;\n    uint256 public totalStakedTokensAmount;\n    mapping(address => uint256) public rewardPerStakedToken;\n    uint64 public startingTimestamp;\n    uint64 public endingTimestamp;\n    bool public locked;\n    bool public initialized;\n    uint64 public lastConsolidationTimestamp;\n    mapping(address => uint256) public recoverableUnassignedReward;\n\n    mapping(address => uint256) public stakedTokensOf;\n    mapping(address => mapping(address => uint256))\n        public consolidatedRewardsPerStakedToken;\n    mapping(address => mapping(address => uint256)) public earnedRewards;\n    mapping(address => mapping(address => uint256)) public claimedReward;\n\n    event Initialized(\n        address[] rewardsTokenAddresses,\n        address stakableTokenAddress,\n        uint256[] rewardsAmounts,\n        uint64 startingTimestamp,\n        uint64 endingTimestamp,\n        bool locked\n    );\n    event Canceled();\n    event Staked(address indexed staker, uint256 amount);\n    event Withdrawn(address indexed withdrawer, uint256 amount);\n    event Claimed(address indexed claimer, uint256[] amounts);\n    event Recovered(uint256[] amounts);\n\n    function getRewardTokens() external view returns (ERC20[] memory) {\n        return rewardTokens;\n    }\n\n    function initialize(\n        address[] calldata _rewardTokenAddresses,\n        address _stakableTokenAddress,\n        uint256[] calldata _rewardAmounts,\n        uint64 _startingTimestamp,\n        uint64 _endingTimestamp,\n        bool _locked\n    ) external onlyOwner onlyUninitialized {\n        require(\n            _startingTimestamp > block.timestamp,\n            \"ERC20StakingRewardsDistribution: invalid starting timestamp\"\n        );\n        require(\n            _endingTimestamp > _startingTimestamp,\n            \"ERC20StakingRewardsDistribution: invalid time duration\"\n        );\n        require(\n            _rewardTokenAddresses.length == _rewardAmounts.length,\n            \"ERC20StakingRewardsDistribution: inconsistent reward token/amount\"\n        );\n\n        uint256 _secondsDuration = _endingTimestamp - _startingTimestamp;\n        // Initializing reward tokens and amounts\n        for (uint32 _i = 0; _i < _rewardTokenAddresses.length; _i++) {\n            address _rewardTokenAddress = _rewardTokenAddresses[_i];\n            uint256 _rewardAmount = _rewardAmounts[_i];\n            require(\n                _rewardTokenAddress != address(0),\n                \"ERC20StakingRewardsDistribution: 0 address as reward token\"\n            );\n            require(\n                _rewardAmount > 0,\n                \"ERC20StakingRewardsDistribution: no reward\"\n            );\n            require(\n                _rewardAmount >= _secondsDuration,\n                \"ERC20StakingRewardsDistribution: reward amount less than seconds duration\"\n            );\n            ERC20 _rewardToken = ERC20(_rewardTokenAddress);\n            require(\n                _rewardToken.balanceOf(address(this)) >= _rewardAmount,\n                \"ERC20StakingRewardsDistribution: no funding\"\n            );\n            // avoid overflow down the road (when consolidating rewards)\n            // by constraining the reward token decimals to a maximum of 18\n            uint256 _rewardTokenDecimals = _rewardToken.decimals();\n            require(\n                _rewardTokenDecimals > 0 && _rewardTokenDecimals <= 18,\n                \"ERC20StakingRewardsDistribution: invalid decimals for reward token\"\n            );\n            rewardTokens.push(_rewardToken);\n            rewardTokenMultiplier[_rewardTokenAddress] =\n                uint256(10)**uint256(_rewardTokenDecimals);\n            rewardPerSecond[_rewardTokenAddress] = _rewardAmount.div(\n                _secondsDuration\n            );\n            rewardAmount[_rewardTokenAddress] = _rewardAmount;\n        }\n\n        require(\n            _stakableTokenAddress != address(0),\n            \"ERC20StakingRewardsDistribution: 0 address as stakable token\"\n        );\n        stakableToken = ERC20(_stakableTokenAddress);\n\n        startingTimestamp = _startingTimestamp;\n        endingTimestamp = _endingTimestamp;\n        lastConsolidationTimestamp = _startingTimestamp;\n        locked = _locked;\n\n        initialized = true;\n        emit Initialized(\n            _rewardTokenAddresses,\n            _stakableTokenAddress,\n            _rewardAmounts,\n            _startingTimestamp,\n            _endingTimestamp,\n            _locked\n        );\n    }\n\n    function cancel() external onlyInitialized onlyOwner {\n        require(\n            block.timestamp < startingTimestamp,\n            \"ERC20StakingRewardsDistribution: distribution already started\"\n        );\n        // resetting reward information (both tokens and amounts)\n        for (uint256 _i; _i < rewardTokens.length; _i++) {\n            ERC20 rewardToken = rewardTokens[_i];\n            address rewardTokenAddress = address(rewardToken);\n            uint256 _relatedRewardAmount = rewardAmount[rewardTokenAddress];\n            delete rewardTokenMultiplier[rewardTokenAddress];\n            delete rewardAmount[rewardTokenAddress];\n            delete rewardPerSecond[rewardTokenAddress];\n            rewardToken.safeTransfer(owner(), _relatedRewardAmount);\n        }\n        delete rewardTokens;\n        delete stakableToken;\n        startingTimestamp = 0;\n        endingTimestamp = 0;\n        lastConsolidationTimestamp = 0;\n        initialized = false;\n        locked = false;\n        emit Canceled();\n    }\n\n    function recoverUnassignedRewards() external onlyInitialized onlyStarted {\n        consolidateReward();\n        uint256 _numberOfRewardsTokens = rewardTokens.length;\n        uint256[] memory _recoveredUnassignedRewards =\n            new uint256[](_numberOfRewardsTokens);\n        for (uint256 _i; _i < _numberOfRewardsTokens; _i++) {\n            ERC20 _relatedRewardToken = rewardTokens[_i];\n\n            uint256 _relatedUnassignedReward =\n                recoverableUnassignedReward[address(_relatedRewardToken)];\n            delete recoverableUnassignedReward[address(_relatedRewardToken)];\n            _recoveredUnassignedRewards[_i] = _relatedUnassignedReward;\n            _relatedRewardToken.safeTransfer(owner(), _relatedUnassignedReward);\n        }\n        emit Recovered(_recoveredUnassignedRewards);\n    }\n\n    function stake(uint256 _amount)\n        external\n        onlyInitialized\n        onlyStarted\n        onlyRunning\n    {\n        require(\n            _amount > 0,\n            \"ERC20StakingRewardsDistribution: tried to stake nothing\"\n        );\n        consolidateReward();\n        stakedTokensOf[msg.sender] = stakedTokensOf[msg.sender].add(_amount);\n        totalStakedTokensAmount = totalStakedTokensAmount.add(_amount);\n        stakableToken.safeTransferFrom(msg.sender, address(this), _amount);\n        emit Staked(msg.sender, _amount);\n    }\n\n    function withdraw(uint256 _amount) external onlyInitialized onlyStarted {\n        require(\n            _amount > 0,\n            \"ERC20StakingRewardsDistribution: tried to withdraw nothing\"\n        );\n        if (locked) {\n            require(\n                block.timestamp > endingTimestamp,\n                \"ERC20StakingRewardsDistribution: funds locked until the distribution ends\"\n            );\n        }\n        consolidateReward();\n        require(\n            _amount <= stakedTokensOf[msg.sender],\n            \"ERC20StakingRewardsDistribution: withdrawn amount greater than current stake\"\n        );\n        stakedTokensOf[msg.sender] = stakedTokensOf[msg.sender].sub(_amount);\n        totalStakedTokensAmount = totalStakedTokensAmount.sub(_amount);\n        stakableToken.safeTransfer(msg.sender, _amount);\n        emit Withdrawn(msg.sender, _amount);\n    }\n\n    function claim() external onlyInitialized onlyStarted {\n        consolidateReward();\n        uint256[] memory _claimedRewards = new uint256[](rewardTokens.length);\n        for (uint256 _i; _i < rewardTokens.length; _i++) {\n            ERC20 _relatedRewardToken = rewardTokens[_i];\n            address _relatedRewardTokenAddress = address(_relatedRewardToken);\n            uint256 _claimableReward =\n                earnedRewards[msg.sender][_relatedRewardTokenAddress].sub(\n                    claimedReward[msg.sender][_relatedRewardTokenAddress]\n                );\n            claimedReward[msg.sender][\n                _relatedRewardTokenAddress\n            ] = claimedReward[msg.sender][_relatedRewardTokenAddress].add(\n                _claimableReward\n            );\n            _relatedRewardToken.safeTransfer(msg.sender, _claimableReward);\n            _claimedRewards[_i] = _claimableReward;\n        }\n        emit Claimed(msg.sender, _claimedRewards);\n    }\n\n    function consolidateReward() public onlyInitialized onlyStarted {\n        uint64 _consolidationTimestamp =\n            uint64(Math.min(block.timestamp, endingTimestamp));\n        uint256 _lastPeriodDuration =\n            uint256(_consolidationTimestamp.sub(lastConsolidationTimestamp));\n        for (uint256 _i; _i < rewardTokens.length; _i++) {\n            address _relatedRewardTokenAddress = address(rewardTokens[_i]);\n            if (totalStakedTokensAmount == 0) {\n                // If the current staked tokens amount is zero, there have been unassigned rewards in the last period.\n                // We add these unassigned rewards to the amount that can be claimed back by the contract's owner.\n                recoverableUnassignedReward[\n                    _relatedRewardTokenAddress\n                ] = recoverableUnassignedReward[_relatedRewardTokenAddress].add(\n                    _lastPeriodDuration.mul(\n                        rewardPerSecond[_relatedRewardTokenAddress]\n                    )\n                );\n                rewardPerStakedToken[_relatedRewardTokenAddress] = 0;\n            } else {\n                rewardPerStakedToken[\n                    _relatedRewardTokenAddress\n                ] = rewardPerStakedToken[_relatedRewardTokenAddress].add(\n                    _lastPeriodDuration\n                        .mul(rewardPerSecond[_relatedRewardTokenAddress])\n                        .mul(rewardTokenMultiplier[_relatedRewardTokenAddress])\n                        .div(totalStakedTokensAmount)\n                );\n            }\n            // avoids subtraction underflow. If the rewards per staked tokens are 0,\n            // the rewards in current period must be 0 by definition, no need to\n            // perform subtraction risking underflow.\n            uint256 _rewardInCurrentPeriod =\n                rewardPerStakedToken[_relatedRewardTokenAddress] > 0\n                    ? stakedTokensOf[msg.sender]\n                        .mul(\n                        rewardPerStakedToken[_relatedRewardTokenAddress].sub(\n                            consolidatedRewardsPerStakedToken[msg.sender][\n                                _relatedRewardTokenAddress\n                            ]\n                        )\n                    )\n                        .div(rewardTokenMultiplier[_relatedRewardTokenAddress])\n                    : 0;\n            earnedRewards[msg.sender][\n                _relatedRewardTokenAddress\n            ] = earnedRewards[msg.sender][_relatedRewardTokenAddress].add(\n                _rewardInCurrentPeriod\n            );\n            consolidatedRewardsPerStakedToken[msg.sender][\n                _relatedRewardTokenAddress\n            ] = rewardPerStakedToken[_relatedRewardTokenAddress];\n        }\n        lastConsolidationTimestamp = _consolidationTimestamp;\n    }\n\n    modifier onlyUninitialized() {\n        require(\n            !initialized,\n            \"ERC20StakingRewardsDistribution: already initialized\"\n        );\n        _;\n    }\n\n    modifier onlyInitialized() {\n        require(\n            initialized,\n            \"ERC20StakingRewardsDistribution: not initialized\"\n        );\n        _;\n    }\n\n    modifier onlyStarted() {\n        require(\n            initialized && block.timestamp >= startingTimestamp,\n            \"ERC20StakingRewardsDistribution: not started\"\n        );\n        _;\n    }\n\n    modifier onlyRunning() {\n        require(\n            initialized && block.timestamp <= endingTimestamp,\n            \"ERC20StakingRewardsDistribution: already ended\"\n        );\n        _;\n    }\n}\n",
  "sourcePath": "/home/luzzif/Projects/swapr-lp-staker/contracts/ERC20StakingRewardsDistribution.sol",
  "compiler": {
    "name": "solc",
    "version": "0.6.12+commit.27d51765.Emscripten.clang"
  },
  "schemaVersion": "3.3.3",
  "updatedAt": "2021-01-11T10:11:35.965Z",
  "devdoc": {
    "kind": "dev",
    "methods": {
      "owner()": {
        "details": "Returns the address of the current owner."
      },
      "renounceOwnership()": {
        "details": "Leaves the contract without owner. It will not be possible to call `onlyOwner` functions anymore. Can only be called by the current owner. NOTE: Renouncing ownership will leave the contract without an owner, thereby removing any functionality that is only available to the owner."
      },
      "transferOwnership(address)": {
        "details": "Transfers ownership of the contract to a new account (`newOwner`). Can only be called by the current owner."
      }
    },
    "version": 1
  },
  "userdoc": {
    "kind": "user",
    "methods": {},
    "version": 1
  }
}