{
  "contractName": "ERC20StakingRewardsDistributionFactory",
  "abi": [
    {
      "inputs": [
        {
          "internalType": "address",
          "name": "_implementation",
          "type": "address"
        }
      ],
      "stateMutability": "nonpayable",
      "type": "constructor"
    },
    {
      "anonymous": false,
      "inputs": [
        {
          "indexed": false,
          "internalType": "address",
          "name": "owner",
          "type": "address"
        },
        {
          "indexed": false,
          "internalType": "address",
          "name": "deployedAt",
          "type": "address"
        }
      ],
      "name": "DistributionCreated",
      "type": "event"
    },
    {
      "anonymous": false,
      "inputs": [
        {
          "indexed": true,
          "internalType": "address",
          "name": "previousOwner",
          "type": "address"
        },
        {
          "indexed": true,
          "internalType": "address",
          "name": "newOwner",
          "type": "address"
        }
      ],
      "name": "OwnershipTransferred",
      "type": "event"
    },
    {
      "inputs": [
        {
          "internalType": "uint256",
          "name": "",
          "type": "uint256"
        }
      ],
      "name": "distributions",
      "outputs": [
        {
          "internalType": "contract IERC20StakingRewardsDistribution",
          "name": "",
          "type": "address"
        }
      ],
      "stateMutability": "view",
      "type": "function"
    },
    {
      "inputs": [],
      "name": "implementation",
      "outputs": [
        {
          "internalType": "address",
          "name": "",
          "type": "address"
        }
      ],
      "stateMutability": "view",
      "type": "function"
    },
    {
      "inputs": [],
      "name": "owner",
      "outputs": [
        {
          "internalType": "address",
          "name": "",
          "type": "address"
        }
      ],
      "stateMutability": "view",
      "type": "function"
    },
    {
      "inputs": [],
      "name": "renounceOwnership",
      "outputs": [],
      "stateMutability": "nonpayable",
      "type": "function"
    },
    {
      "inputs": [],
      "name": "stakingPaused",
      "outputs": [
        {
          "internalType": "bool",
          "name": "",
          "type": "bool"
        }
      ],
      "stateMutability": "view",
      "type": "function"
    },
    {
      "inputs": [
        {
          "internalType": "address",
          "name": "newOwner",
          "type": "address"
        }
      ],
      "name": "transferOwnership",
      "outputs": [],
      "stateMutability": "nonpayable",
      "type": "function"
    },
    {
      "inputs": [
        {
          "internalType": "address",
          "name": "_implementation",
          "type": "address"
        }
      ],
      "name": "upgradeImplementation",
      "outputs": [],
      "stateMutability": "nonpayable",
      "type": "function"
    },
    {
      "inputs": [],
      "name": "pauseStaking",
      "outputs": [],
      "stateMutability": "nonpayable",
      "type": "function"
    },
    {
      "inputs": [],
      "name": "resumeStaking",
      "outputs": [],
      "stateMutability": "nonpayable",
      "type": "function"
    },
    {
      "inputs": [
        {
          "internalType": "address[]",
          "name": "_rewardTokenAddresses",
          "type": "address[]"
        },
        {
          "internalType": "address",
          "name": "_stakableTokenAddress",
          "type": "address"
        },
        {
          "internalType": "uint256[]",
          "name": "_rewardAmounts",
          "type": "uint256[]"
        },
        {
          "internalType": "uint64",
          "name": "_startingTimestamp",
          "type": "uint64"
        },
        {
          "internalType": "uint64",
          "name": "_endingTimestamp",
          "type": "uint64"
        },
        {
          "internalType": "bool",
          "name": "_locked",
          "type": "bool"
        },
        {
          "internalType": "uint256",
          "name": "_stakingCap",
          "type": "uint256"
        }
      ],
      "name": "createDistribution",
      "outputs": [],
      "stateMutability": "nonpayable",
      "type": "function"
    },
    {
      "inputs": [],
      "name": "getDistributionsAmount",
      "outputs": [
        {
          "internalType": "uint256",
          "name": "",
          "type": "uint256"
        }
      ],
      "stateMutability": "view",
      "type": "function"
    }
  ],
  "bytecode": "0x608060405234801561001057600080fd5b50604051610e14380380610e1483398101604081905261002f91610095565b600080546001600160a01b031916339081178255604051909182917f8be0079c531659141344cd1fd0a4f28419497f9722a3daafe3b4186f6b6457e0908290a350600180546001600160a01b0319166001600160a01b03929092169190911790556100c5565b6000602082840312156100a757600080fd5b81516001600160a01b03811681146100be57600080fd5b9392505050565b610d40806100d46000396000f3fe608060405234801561001057600080fd5b50600436106100a95760003560e01c806383f94db71161007157806383f94db7146101165780638da5cb5b14610129578063bbb781cc1461013a578063d5eeaef71461015e578063f2fde38b1461016f578063f999c5061461018257600080fd5b80632c8908ff146100ae5780634487d3df146100c35780635c60da1b146100f3578063715018a6146101065780637475f9131461010e575b600080fd5b6100c16100bc366004610a33565b61018a565b005b6100d66100d1366004610b12565b610377565b6040516001600160a01b0390911681526020015b60405180910390f35b6001546100d6906001600160a01b031681565b6100c16103a1565b6100c161041e565b6100c1610124366004610a18565b610498565b6000546001600160a01b03166100d6565b60015461014e90600160a01b900460ff1681565b60405190151581526020016100ea565b6002546040519081526020016100ea565b6100c161017d366004610a18565b6104e4565b6100c16105ce565b6001546000906101a2906001600160a01b031661064f565b905060005b898110156102175761020533838a8a858181106101c6576101c6610ce3565b905060200201358e8e868181106101df576101df610ce3565b90506020020160208101906101f49190610a18565b6001600160a01b03169291906106ec565b8061020f81610cba565b9150506101a7565b506040516311d1371b60e11b815281906001600160a01b038216906323a26e3690610256908e908e908e908e908e908e908e908e908e90600401610b7d565b600060405180830381600087803b15801561027057600080fd5b505af1158015610284573d6000803e3d6000fd5b505060405163f2fde38b60e01b81523360048201526001600160a01b038416925063f2fde38b9150602401600060405180830381600087803b1580156102c957600080fd5b505af11580156102dd573d6000803e3d6000fd5b5050600280546001810182556000919091527f405787fa12a823e0f2b7631cc41b3ba8828b3321ca811111fa75cd3aa3bb5ace0180546001600160a01b0319166001600160a01b0385169081179091556040805133815260208101929092527fc017437e795c074edadc242e8f0b868fb614ed8d2923b9a58cbc52799e8b9b27935001905060405180910390a15050505050505050505050565b6002818154811061038757600080fd5b6000918252602090912001546001600160a01b0316905081565b6000546001600160a01b031633146103d45760405162461bcd60e51b81526004016103cb90610c59565b60405180910390fd5b600080546040516001600160a01b03909116907f8be0079c531659141344cd1fd0a4f28419497f9722a3daafe3b4186f6b6457e0908390a3600080546001600160a01b0319169055565b6000546001600160a01b031633146104485760405162461bcd60e51b81526004016103cb90610c59565b600154600160a01b900460ff166104895760405162461bcd60e51b815260206004820152600560248201526429a923181960d91b60448201526064016103cb565b6001805460ff60a01b19169055565b6000546001600160a01b031633146104c25760405162461bcd60e51b81526004016103cb90610c59565b600180546001600160a01b0319166001600160a01b0392909216919091179055565b6000546001600160a01b0316331461050e5760405162461bcd60e51b81526004016103cb90610c59565b6001600160a01b0381166105735760405162461bcd60e51b815260206004820152602660248201527f4f776e61626c653a206e6577206f776e657220697320746865207a65726f206160448201526564647265737360d01b60648201526084016103cb565b600080546040516001600160a01b03808516939216917f8be0079c531659141344cd1fd0a4f28419497f9722a3daafe3b4186f6b6457e091a3600080546001600160a01b0319166001600160a01b0392909216919091179055565b6000546001600160a01b031633146105f85760405162461bcd60e51b81526004016103cb90610c59565b600154600160a01b900460ff161561063a5760405162461bcd60e51b8152602060048201526005602482015264535246303160d81b60448201526064016103cb565b6001805460ff60a01b1916600160a01b179055565b6000604051733d602d80600a3d3981f3363d3d373d3d3d363d7360601b81528260601b60148201526e5af43d82803e903d91602b57fd5bf360881b60288201526037816000f09150506001600160a01b0381166106e75760405162461bcd60e51b8152602060048201526016602482015275115490cc4c4d8dce8818dc99585d194819985a5b195960521b60448201526064016103cb565b919050565b604080516001600160a01b0385811660248301528416604482015260648082018490528251808303909101815260849091019091526020810180516001600160e01b03166323b872dd60e01b17905261074690859061074c565b50505050565b60006107a1826040518060400160405280602081526020017f5361666545524332303a206c6f772d6c6576656c2063616c6c206661696c6564815250856001600160a01b03166108239092919063ffffffff16565b80519091501561081e57808060200190518101906107bf9190610af5565b61081e5760405162461bcd60e51b815260206004820152602a60248201527f5361666545524332303a204552433230206f7065726174696f6e20646964206e6044820152691bdd081cdd58d8d9595960b21b60648201526084016103cb565b505050565b6060610832848460008561083c565b90505b9392505050565b60608247101561089d5760405162461bcd60e51b815260206004820152602660248201527f416464726573733a20696e73756666696369656e742062616c616e636520666f6044820152651c8818d85b1b60d21b60648201526084016103cb565b843b6108eb5760405162461bcd60e51b815260206004820152601d60248201527f416464726573733a2063616c6c20746f206e6f6e2d636f6e747261637400000060448201526064016103cb565b600080866001600160a01b031685876040516109079190610b61565b60006040518083038185875af1925050503d8060008114610944576040519150601f19603f3d011682016040523d82523d6000602084013e610949565b606091505b5091509150610959828286610964565b979650505050505050565b60608315610973575081610835565b8251156109835782518084602001fd5b8160405162461bcd60e51b81526004016103cb9190610c26565b80356001600160a01b03811681146106e757600080fd5b60008083601f8401126109c657600080fd5b50813567ffffffffffffffff8111156109de57600080fd5b6020830191508360208260051b85010111156109f957600080fd5b9250929050565b803567ffffffffffffffff811681146106e757600080fd5b600060208284031215610a2a57600080fd5b6108358261099d565b600080600080600080600080600060e08a8c031215610a5157600080fd5b893567ffffffffffffffff80821115610a6957600080fd5b610a758d838e016109b4565b909b509950899150610a8960208d0161099d565b985060408c0135915080821115610a9f57600080fd5b50610aac8c828d016109b4565b9097509550610abf905060608b01610a00565b9350610acd60808b01610a00565b925060a08a0135610add81610cf9565b8092505060c08a013590509295985092959850929598565b600060208284031215610b0757600080fd5b815161083581610cf9565b600060208284031215610b2457600080fd5b5035919050565b81835260006001600160fb1b03831115610b4457600080fd5b8260051b8083602087013760009401602001938452509192915050565b60008251610b73818460208701610c8e565b9190910192915050565b60e0808252810189905260008a6101008301825b8c811015610bbf576001600160a01b03610baa8461099d565b16825260209283019290910190600101610b91565b506001600160a01b038b1660208501528381036040850152610be2818a8c610b2b565b92505050610bfc606083018767ffffffffffffffff169052565b67ffffffffffffffff94909416608082015291151560a083015260c0909101529695505050505050565b6020815260008251806020840152610c45816040850160208701610c8e565b601f01601f19169190910160400192915050565b6020808252818101527f4f776e61626c653a2063616c6c6572206973206e6f7420746865206f776e6572604082015260600190565b60005b83811015610ca9578181015183820152602001610c91565b838111156107465750506000910152565b6000600019821415610cdc57634e487b7160e01b600052601160045260246000fd5b5060010190565b634e487b7160e01b600052603260045260246000fd5b8015158114610d0757600080fd5b5056fea2646970667358221220d771b477663e9ac240f850cf2cb9ab33ba63111efa9e403a51066ccc85c0d0fd64736f6c63430008070033",
  "immutableReferences": {},
  "source": "// SPDX-License-Identifier: GPL-3.0\n\npragma solidity ^0.8.4;\n\nimport \"@openzeppelin/contracts/token/ERC20/IERC20.sol\";\nimport \"@openzeppelin/contracts/token/ERC20/utils/SafeERC20.sol\";\nimport \"@openzeppelin/contracts/access/Ownable.sol\";\nimport \"@openzeppelin/contracts/proxy/Clones.sol\";\nimport \"./interfaces/IERC20StakingRewardsDistribution.sol\";\n\n/**\n * Errors codes:\n *\n * SRF01: cannot pause staking (already paused)\n * SRF02: cannot resume staking (already active)\n */\ncontract ERC20StakingRewardsDistributionFactory is Ownable {\n    using SafeERC20 for IERC20;\n\n    address public implementation;\n    bool public stakingPaused;\n    IERC20StakingRewardsDistribution[] public distributions;\n\n    event DistributionCreated(address owner, address deployedAt);\n\n    constructor(address _implementation) {\n        implementation = _implementation;\n    }\n\n    function upgradeImplementation(address _implementation) external onlyOwner {\n        implementation = _implementation;\n    }\n\n    function pauseStaking() external onlyOwner {\n        require(!stakingPaused, \"SRF01\");\n        stakingPaused = true;\n    }\n\n    function resumeStaking() external onlyOwner {\n        require(stakingPaused, \"SRF02\");\n        stakingPaused = false;\n    }\n\n    function createDistribution(\n        address[] calldata _rewardTokenAddresses,\n        address _stakableTokenAddress,\n        uint256[] calldata _rewardAmounts,\n        uint64 _startingTimestamp,\n        uint64 _endingTimestamp,\n        bool _locked,\n        uint256 _stakingCap\n    ) public virtual {\n        address _distributionProxy = Clones.clone(implementation);\n        for (uint256 _i; _i < _rewardTokenAddresses.length; _i++) {\n            IERC20(_rewardTokenAddresses[_i]).safeTransferFrom(\n                msg.sender,\n                _distributionProxy,\n                _rewardAmounts[_i]\n            );\n        }\n        IERC20StakingRewardsDistribution _distribution =\n            IERC20StakingRewardsDistribution(_distributionProxy);\n        _distribution.initialize(\n            _rewardTokenAddresses,\n            _stakableTokenAddress,\n            _rewardAmounts,\n            _startingTimestamp,\n            _endingTimestamp,\n            _locked,\n            _stakingCap\n        );\n        _distribution.transferOwnership(msg.sender);\n        distributions.push(_distribution);\n        emit DistributionCreated(msg.sender, address(_distribution));\n    }\n\n    function getDistributionsAmount() external view returns (uint256) {\n        return distributions.length;\n    }\n}\n",
  "sourcePath": "/home/luzzif/Projects/swapr-lp-staker/contracts/ERC20StakingRewardsDistributionFactory.sol",
  "compiler": {
    "name": "solc",
    "version": "0.8.7+commit.e28d00a7.Emscripten.clang"
  },
  "schemaVersion": "3.3.3",
  "updatedAt": "2021-09-27T09:42:54.271Z",
  "devdoc": {
    "kind": "dev",
    "methods": {
      "owner()": {
        "details": "Returns the address of the current owner."
      },
      "renounceOwnership()": {
        "details": "Leaves the contract without owner. It will not be possible to call `onlyOwner` functions anymore. Can only be called by the current owner. NOTE: Renouncing ownership will leave the contract without an owner, thereby removing any functionality that is only available to the owner."
      },
      "transferOwnership(address)": {
        "details": "Transfers ownership of the contract to a new account (`newOwner`). Can only be called by the current owner."
      }
    },
    "version": 1
  },
  "userdoc": {
    "kind": "user",
    "methods": {},
    "notice": "Errors codes: SRF01: cannot pause staking (already paused) SRF02: cannot resume staking (already active)",
    "version": 1
  }
}