{
  "contractName": "ERC20StakingRewardsDistribution",
  "abi": [
    {
      "anonymous": false,
      "inputs": [],
      "name": "Canceled",
      "type": "event"
    },
    {
      "anonymous": false,
      "inputs": [
        {
          "indexed": true,
          "internalType": "address",
          "name": "claimer",
          "type": "address"
        },
        {
          "indexed": false,
          "internalType": "uint256[]",
          "name": "amounts",
          "type": "uint256[]"
        }
      ],
      "name": "Claimed",
      "type": "event"
    },
    {
      "anonymous": false,
      "inputs": [
        {
          "indexed": false,
          "internalType": "address[]",
          "name": "rewardsTokenAddresses",
          "type": "address[]"
        },
        {
          "indexed": false,
          "internalType": "address",
          "name": "stakableTokenAddress",
          "type": "address"
        },
        {
          "indexed": false,
          "internalType": "uint256[]",
          "name": "rewardsAmounts",
          "type": "uint256[]"
        },
        {
          "indexed": false,
          "internalType": "uint64",
          "name": "startingTimestamp",
          "type": "uint64"
        },
        {
          "indexed": false,
          "internalType": "uint64",
          "name": "endingTimestamp",
          "type": "uint64"
        },
        {
          "indexed": false,
          "internalType": "bool",
          "name": "locked",
          "type": "bool"
        },
        {
          "indexed": false,
          "internalType": "uint256",
          "name": "stakingCap",
          "type": "uint256"
        }
      ],
      "name": "Initialized",
      "type": "event"
    },
    {
      "anonymous": false,
      "inputs": [
        {
          "indexed": true,
          "internalType": "address",
          "name": "previousOwner",
          "type": "address"
        },
        {
          "indexed": true,
          "internalType": "address",
          "name": "newOwner",
          "type": "address"
        }
      ],
      "name": "OwnershipTransferred",
      "type": "event"
    },
    {
      "anonymous": false,
      "inputs": [
        {
          "indexed": false,
          "internalType": "uint256[]",
          "name": "amounts",
          "type": "uint256[]"
        }
      ],
      "name": "Recovered",
      "type": "event"
    },
    {
      "anonymous": false,
      "inputs": [
        {
          "indexed": true,
          "internalType": "address",
          "name": "staker",
          "type": "address"
        },
        {
          "indexed": false,
          "internalType": "uint256",
          "name": "amount",
          "type": "uint256"
        }
      ],
      "name": "Staked",
      "type": "event"
    },
    {
      "anonymous": false,
      "inputs": [
        {
          "indexed": true,
          "internalType": "address",
          "name": "withdrawer",
          "type": "address"
        },
        {
          "indexed": false,
          "internalType": "uint256",
          "name": "amount",
          "type": "uint256"
        }
      ],
      "name": "Withdrawn",
      "type": "event"
    },
    {
      "inputs": [
        {
          "internalType": "address",
          "name": "",
          "type": "address"
        },
        {
          "internalType": "address",
          "name": "",
          "type": "address"
        }
      ],
      "name": "claimedReward",
      "outputs": [
        {
          "internalType": "uint256",
          "name": "",
          "type": "uint256"
        }
      ],
      "stateMutability": "view",
      "type": "function"
    },
    {
      "inputs": [
        {
          "internalType": "address",
          "name": "",
          "type": "address"
        },
        {
          "internalType": "address",
          "name": "",
          "type": "address"
        }
      ],
      "name": "consolidatedRewardsPerStakedToken",
      "outputs": [
        {
          "internalType": "uint256",
          "name": "",
          "type": "uint256"
        }
      ],
      "stateMutability": "view",
      "type": "function"
    },
    {
      "inputs": [
        {
          "internalType": "address",
          "name": "",
          "type": "address"
        },
        {
          "internalType": "address",
          "name": "",
          "type": "address"
        }
      ],
      "name": "earnedRewards",
      "outputs": [
        {
          "internalType": "uint256",
          "name": "",
          "type": "uint256"
        }
      ],
      "stateMutability": "view",
      "type": "function"
    },
    {
      "inputs": [],
      "name": "endingTimestamp",
      "outputs": [
        {
          "internalType": "uint64",
          "name": "",
          "type": "uint64"
        }
      ],
      "stateMutability": "view",
      "type": "function"
    },
    {
      "inputs": [],
      "name": "initialized",
      "outputs": [
        {
          "internalType": "bool",
          "name": "",
          "type": "bool"
        }
      ],
      "stateMutability": "view",
      "type": "function"
    },
    {
      "inputs": [],
      "name": "lastConsolidationTimestamp",
      "outputs": [
        {
          "internalType": "uint64",
          "name": "",
          "type": "uint64"
        }
      ],
      "stateMutability": "view",
      "type": "function"
    },
    {
      "inputs": [],
      "name": "locked",
      "outputs": [
        {
          "internalType": "bool",
          "name": "",
          "type": "bool"
        }
      ],
      "stateMutability": "view",
      "type": "function"
    },
    {
      "inputs": [],
      "name": "owner",
      "outputs": [
        {
          "internalType": "address",
          "name": "",
          "type": "address"
        }
      ],
      "stateMutability": "view",
      "type": "function"
    },
    {
      "inputs": [
        {
          "internalType": "uint256",
          "name": "",
          "type": "uint256"
        }
      ],
      "name": "rewards",
      "outputs": [
        {
          "internalType": "address",
          "name": "token",
          "type": "address"
        },
        {
          "internalType": "uint256",
          "name": "amount",
          "type": "uint256"
        },
        {
          "internalType": "uint256",
          "name": "perStakedToken",
          "type": "uint256"
        },
        {
          "internalType": "uint256",
          "name": "recoverable",
          "type": "uint256"
        },
        {
          "internalType": "uint256",
          "name": "claimed",
          "type": "uint256"
        }
      ],
      "stateMutability": "view",
      "type": "function"
    },
    {
      "inputs": [],
      "name": "secondsDuration",
      "outputs": [
        {
          "internalType": "uint64",
          "name": "",
          "type": "uint64"
        }
      ],
      "stateMutability": "view",
      "type": "function"
    },
    {
      "inputs": [],
      "name": "stakableToken",
      "outputs": [
        {
          "internalType": "contract IERC20",
          "name": "",
          "type": "address"
        }
      ],
      "stateMutability": "view",
      "type": "function"
    },
    {
      "inputs": [
        {
          "internalType": "address",
          "name": "",
          "type": "address"
        }
      ],
      "name": "stakedTokenAmount",
      "outputs": [
        {
          "internalType": "uint256",
          "name": "",
          "type": "uint256"
        }
      ],
      "stateMutability": "view",
      "type": "function"
    },
    {
      "inputs": [
        {
          "internalType": "address",
          "name": "",
          "type": "address"
        }
      ],
      "name": "stakedTokensOf",
      "outputs": [
        {
          "internalType": "uint256",
          "name": "",
          "type": "uint256"
        }
      ],
      "stateMutability": "view",
      "type": "function"
    },
    {
      "inputs": [],
      "name": "stakingCap",
      "outputs": [
        {
          "internalType": "uint256",
          "name": "",
          "type": "uint256"
        }
      ],
      "stateMutability": "view",
      "type": "function"
    },
    {
      "inputs": [],
      "name": "startingTimestamp",
      "outputs": [
        {
          "internalType": "uint64",
          "name": "",
          "type": "uint64"
        }
      ],
      "stateMutability": "view",
      "type": "function"
    },
    {
      "inputs": [],
      "name": "totalStakedTokensAmount",
      "outputs": [
        {
          "internalType": "uint256",
          "name": "",
          "type": "uint256"
        }
      ],
      "stateMutability": "view",
      "type": "function"
    },
    {
      "inputs": [],
      "name": "getRewardTokens",
      "outputs": [
        {
          "internalType": "address[]",
          "name": "",
          "type": "address[]"
        }
      ],
      "stateMutability": "view",
      "type": "function"
    },
    {
      "inputs": [
        {
          "internalType": "address",
          "name": "_claimer",
          "type": "address"
        }
      ],
      "name": "getClaimedRewards",
      "outputs": [
        {
          "internalType": "uint256[]",
          "name": "",
          "type": "uint256[]"
        }
      ],
      "stateMutability": "view",
      "type": "function"
    },
    {
      "inputs": [
        {
          "internalType": "address[]",
          "name": "_rewardTokenAddresses",
          "type": "address[]"
        },
        {
          "internalType": "address",
          "name": "_stakableTokenAddress",
          "type": "address"
        },
        {
          "internalType": "uint256[]",
          "name": "_rewardAmounts",
          "type": "uint256[]"
        },
        {
          "internalType": "uint64",
          "name": "_startingTimestamp",
          "type": "uint64"
        },
        {
          "internalType": "uint64",
          "name": "_endingTimestamp",
          "type": "uint64"
        },
        {
          "internalType": "bool",
          "name": "_locked",
          "type": "bool"
        },
        {
          "internalType": "uint256",
          "name": "_stakingCap",
          "type": "uint256"
        }
      ],
      "name": "initialize",
      "outputs": [],
      "stateMutability": "nonpayable",
      "type": "function"
    },
    {
      "inputs": [],
      "name": "cancel",
      "outputs": [],
      "stateMutability": "nonpayable",
      "type": "function"
    },
    {
      "inputs": [],
      "name": "recoverUnassignedRewards",
      "outputs": [],
      "stateMutability": "nonpayable",
      "type": "function"
    },
    {
      "inputs": [
        {
          "internalType": "uint256",
          "name": "_amount",
          "type": "uint256"
        }
      ],
      "name": "stake",
      "outputs": [],
      "stateMutability": "nonpayable",
      "type": "function"
    },
    {
      "inputs": [
        {
          "internalType": "uint256",
          "name": "_amount",
          "type": "uint256"
        }
      ],
      "name": "withdraw",
      "outputs": [],
      "stateMutability": "nonpayable",
      "type": "function"
    },
    {
      "inputs": [
        {
          "internalType": "uint256[]",
          "name": "_amounts",
          "type": "uint256[]"
        },
        {
          "internalType": "address",
          "name": "_recipient",
          "type": "address"
        }
      ],
      "name": "claim",
      "outputs": [],
      "stateMutability": "nonpayable",
      "type": "function"
    },
    {
      "inputs": [
        {
          "internalType": "address",
          "name": "_recipient",
          "type": "address"
        }
      ],
      "name": "claimAll",
      "outputs": [],
      "stateMutability": "nonpayable",
      "type": "function"
    },
    {
      "inputs": [
        {
          "internalType": "address",
          "name": "_recipient",
          "type": "address"
        }
      ],
      "name": "exit",
      "outputs": [],
      "stateMutability": "nonpayable",
      "type": "function"
    },
    {
      "inputs": [],
      "name": "consolidateReward",
      "outputs": [],
      "stateMutability": "nonpayable",
      "type": "function"
    },
    {
      "inputs": [
        {
          "internalType": "address",
          "name": "_staker",
          "type": "address"
        }
      ],
      "name": "claimableRewards",
      "outputs": [
        {
          "internalType": "uint256[]",
          "name": "",
          "type": "uint256[]"
        }
      ],
      "stateMutability": "view",
      "type": "function"
    },
    {
      "inputs": [],
      "name": "renounceOwnership",
      "outputs": [],
      "stateMutability": "nonpayable",
      "type": "function"
    },
    {
      "inputs": [
        {
          "internalType": "address",
          "name": "_newOwner",
          "type": "address"
        }
      ],
      "name": "transferOwnership",
      "outputs": [],
      "stateMutability": "nonpayable",
      "type": "function"
    }
  ],
  "bytecode": "0x608060405234801561001057600080fd5b506128f7806100206000396000f3fe608060405234801561001057600080fd5b50600436106101da5760003560e01c80638da5cb5b11610104578063c4f59f9b116100a2578063e66d85be11610071578063e66d85be1461045f578063ea8a1af01461047f578063f2fde38b14610487578063f301af421461049a57600080fd5b8063c4f59f9b1461041b578063cf30901214610430578063dc01f60d14610444578063e644067d1461045757600080fd5b8063b41fa979116100de578063b41fa979146103c7578063b42652e9146103d0578063b9e35db0146103e3578063c10de3001461040357600080fd5b80638da5cb5b14610381578063a694fc3a14610394578063ab08d4fc146103a757600080fd5b80635fa350231161017c57806375b8dbf81161014b57806375b8dbf81461031d57806377329f3514610348578063887862721461035b5780638c574b481461036e57600080fd5b80635fa35023146102c85780636715dcb8146102e2578063715018a6146102ea578063728e4a67146102f257600080fd5b80632e1a7d4d116101b85780632e1a7d4d1461024157806334380a611461025457806344c370d31461028d5780635e5294b71461029657600080fd5b8063158ef93e146101df5780631c96c3fb1461020157806323a26e361461022c575b600080fd5b6007546101ec9060ff1681565b60405190151581526020015b60405180910390f35b600254610214906001600160a01b031681565b6040516001600160a01b0390911681526020016101f8565b61023f61023a3660046123be565b6104df565b005b61023f61024f366004612569565b610a0d565b61027f61026236600461238c565b600b60209081526000928352604080842090915290825290205481565b6040519081526020016101f8565b61027f60065481565b6005546102b090600160401b90046001600160401b031681565b6040516001600160401b0390911681526020016101f8565b6005546102b090600160801b90046001600160401b031681565b61023f610bb5565b61023f610e78565b61027f61030036600461238c565b600a60209081526000928352604080842090915290825290205481565b61027f61032b36600461238c565b600960209081526000928352604080842090915290825290205481565b61023f610356366004612372565b610ede565b6005546102b0906001600160401b031681565b61023f61037c36600461247c565b61108f565b600054610214906001600160a01b031681565b61023f6103a2366004612569565b6112e0565b61027f6103b5366004612372565b60086020526000908152604090205481565b61027f60045481565b61023f6103de366004612372565b611464565b6103f66103f1366004612372565b6114ca565b6040516101f891906126dd565b6007546102b09061010090046001600160401b031681565b6104236115d6565b6040516101f89190612690565b6005546101ec90600160c01b900460ff1681565b6103f6610452366004612372565b6116cd565b61023f6119d1565b61027f61046d366004612372565b60036020526000908152604090205481565b61023f611c06565b61023f610495366004612372565b611e1b565b6104ad6104a8366004612569565b611ede565b604080516001600160a01b0390961686526020860194909452928401919091526060830152608082015260a0016101f8565b60075460ff161561051f5760405162461bcd60e51b81526020600482015260056024820152640a6a48862760db1b60448201526064015b60405180910390fd5b42846001600160401b03161161055f5760405162461bcd60e51b8152602060048201526005602482015264535244303160d81b6044820152606401610516565b836001600160401b0316836001600160401b0316116105a85760405162461bcd60e51b815260206004820152600560248201526429a922181960d91b6044820152606401610516565b8785146105df5760405162461bcd60e51b8152602060048201526005602482015264535244303360d81b6044820152606401610516565b6105e984846127f4565b600560106101000a8154816001600160401b0302191690836001600160401b0316021790555060005b63ffffffff81168911156108e25760008a8a8363ffffffff1681811061064857634e487b7160e01b600052603260045260246000fd5b905060200201602081019061065d9190612372565b9050600088888463ffffffff1681811061068757634e487b7160e01b600052603260045260246000fd5b60200291909101359150506001600160a01b0382166106d05760405162461bcd60e51b815260206004820152600560248201526414d4910c0d60da1b6044820152606401610516565b600081116107085760405162461bcd60e51b8152602060048201526005602482015264535244303560d81b6044820152606401610516565b6040516370a0823160e01b8152306004820152829082906001600160a01b038316906370a082319060240160206040518083038186803b15801561074b57600080fd5b505afa15801561075f573d6000803e3d6000fd5b505050506040513d601f19601f820116820180604052508101906107839190612581565b10156107b95760405162461bcd60e51b815260206004820152600560248201526429a922181b60d91b6044820152606401610516565b506040805160a0810182526001600160a01b0393841681526020810192835260009181018281526060820183815260808301848152600180548082018255955292517fb10e2d527612073b26eecdfd717e6a320cf44b4afac2b0732d9fcbe2b7fa0cf6600590950294850180546001600160a01b031916919097161790955592517fb10e2d527612073b26eecdfd717e6a320cf44b4afac2b0732d9fcbe2b7fa0cf783015591517fb10e2d527612073b26eecdfd717e6a320cf44b4afac2b0732d9fcbe2b7fa0cf882015591517fb10e2d527612073b26eecdfd717e6a320cf44b4afac2b0732d9fcbe2b7fa0cf9830155517fb10e2d527612073b26eecdfd717e6a320cf44b4afac2b0732d9fcbe2b7fa0cfa90910155806108da81612863565b915050610612565b506001600160a01b0387166109215760405162461bcd60e51b8152602060048201526005602482015264535244303760d81b6044820152606401610516565b600280546001600160a01b03199081166001600160a01b038a16179091556000805433921691909117905560058054600780546001600160401b038881166fffffffffffffffffffffffffffffffff199094168417600160401b918916919091021760ff60c01b1916600160c01b8715150217909355600684905568ffffffffffffffffff1990921661010090910260ff19161760011790556040517f2c1fa4f0e3f1c67636ee0b3665bf3a04407a2c1332d4e3e99f941ee2b0b9daf4906109fa908b908b908b908b908b908b908b908b908b906125e9565b60405180910390a1505050505050505050565b60075460ff168015610a2a57506005546001600160401b03164210155b610a465760405162461bcd60e51b815260040161051690612748565b60008111610a7e5760405162461bcd60e51b8152602060048201526005602482015264535244313160d81b6044820152606401610516565b600554600160c01b900460ff1615610ad957600554600160401b90046001600160401b03164211610ad95760405162461bcd60e51b815260206004820152600560248201526429a922189960d91b6044820152606401610516565b610ae1610bb5565b33600090815260086020526040902054811115610b285760405162461bcd60e51b8152602060048201526005602482015264535244313360d81b6044820152606401610516565b3360009081526008602052604081208054839290610b479084906127dd565b925050819055508060046000828254610b6091906127dd565b9091555050600254610b7c906001600160a01b03163383611f29565b60405181815233907f7084f5476618d8e60b11ef0d7d3f06914655adb8793e28ff7f018d4c76d505d5906020015b60405180910390a250565b60075460ff168015610bd257506005546001600160401b03164210155b610bee5760405162461bcd60e51b815260040161051690612748565b600554600090610c0f904290600160401b90046001600160401b0316611f91565b600754909150600090610c309061010090046001600160401b0316836127f4565b6001600160401b0316905060005b600154811015610e4d57600060018281548110610c6b57634e487b7160e01b600052603260045260246000fd5b9060005260206000209060050201905060045460001415610cfd576005546001820154600160801b9091046001600160401b031690610caa90856127be565b610cb4919061279e565b816003016000828254610cc79190612786565b909155505060006002820181905533815260096020908152604080832093546001600160a01b0316835292905290812055610e3b565b600554600454610d1d91600160801b90046001600160401b0316906127be565b6001820154600160701b90610d3290866127be565b610d3c91906127be565b610d46919061279e565b816002016000828254610d599190612786565b9091555050600080826002015411610d72576000610dcf565b33600090815260096020908152604080832085546001600160a01b031684529091529020546002830154600160701b91610dab916127dd565b33600090815260086020526040902054610dc591906127be565b610dcf919061279e565b336000908152600a6020908152604080832086546001600160a01b03168452909152812080549293508392909190610e08908490612786565b909155505050600281015433600090815260096020908152604080832094546001600160a01b0316835293905291909120555b80610e4581612848565b915050610c3e565b5050600780546001600160401b039092166101000268ffffffffffffffff0019909216919091179055565b6000546001600160a01b03163314610ea25760405162461bcd60e51b815260040161051690612767565b600080546001600160a01b031916815560405181907f8be0079c531659141344cd1fd0a4f28419497f9722a3daafe3b4186f6b6457e0908290a3565b60075460ff168015610efb57506005546001600160401b03164210155b610f175760405162461bcd60e51b815260040161051690612748565b610f1f610bb5565b6001546000906001600160401b03811115610f4a57634e487b7160e01b600052604160045260246000fd5b604051908082528060200260200182016040528015610f73578160200160208202803683370190505b50905060005b60015481101561104957600060018281548110610fa657634e487b7160e01b600052603260045260246000fd5b6000918252602080832033808552600b83526040808620600590950290920180546001600160a01b031680875294845282862054918652600a845282862094865293909252832054919350610ffa916127dd565b9050611007828287611fa9565b8084848151811061102857634e487b7160e01b600052603260045260246000fd5b6020026020010181815250505050808061104190612848565b915050610f79565b50336001600160a01b03167f28ee566bdecaf975c0979f4d09fecf91a9009ffe78523aef053a678134137b8b8260405161108391906126dd565b60405180910390a25050565b60075460ff1680156110ac57506005546001600160401b03164210155b6110c85760405162461bcd60e51b815260040161051690612748565b6001548251146111025760405162461bcd60e51b815260206004820152600560248201526414d4910c4d60da1b6044820152606401610516565b61110a610bb5565b6001546000906001600160401b0381111561113557634e487b7160e01b600052604160045260246000fd5b60405190808252806020026020018201604052801561115e578160200160208202803683370190505b50905060005b6001548110156112995760006001828154811061119157634e487b7160e01b600052603260045260246000fd5b6000918252602080832033808552600b83526040808620600590950290920180546001600160a01b031680875294845282862054918652600a8452828620948652939092528320549193506111e5916127dd565b9050600086848151811061120957634e487b7160e01b600052603260045260246000fd5b602002602001015190508082101561124b5760405162461bcd60e51b8152602060048201526005602482015264535244313560d81b6044820152606401610516565b611256838288611fa9565b8085858151811061127757634e487b7160e01b600052603260045260246000fd5b602002602001018181525050505050808061129190612848565b915050611164565b50336001600160a01b03167f28ee566bdecaf975c0979f4d09fecf91a9009ffe78523aef053a678134137b8b826040516112d391906126dd565b60405180910390a2505050565b60075460ff1680156112fd57506005546001600160401b03164210155b801561131b5750600554600160401b90046001600160401b03164211155b61134f5760405162461bcd60e51b8152602060048201526005602482015264535244323160d81b6044820152606401610516565b600081116113875760405162461bcd60e51b8152602060048201526005602482015264535244303960d81b6044820152606401610516565b600654156113d657600654816004546113a09190612786565b11156113d65760405162461bcd60e51b8152602060048201526005602482015264053524431360dc1b6044820152606401610516565b6113de610bb5565b336000908152600860205260409020546113f9908290612786565b33600090815260086020526040902055600454611417908290612786565b600455600254611432906001600160a01b0316333084612013565b60405181815233907f9e71bc8eea02a63969f509818f2dafb9254532904319f9dbda79b67bd34a5f3d90602001610baa565b60075460ff16801561148157506005546001600160401b03164210155b61149d5760405162461bcd60e51b815260040161051690612748565b6114a5610bb5565b6114ae81610ede565b336000908152600860205260409020546114c790610a0d565b50565b6001546060906000906001600160401b038111156114f857634e487b7160e01b600052604160045260246000fd5b604051908082528060200260200182016040528015611521578160200160208202803683370190505b50905060005b6001548110156115cf5760006001828154811061155457634e487b7160e01b600052603260045260246000fd5b600091825260208083206001600160a01b03808a168552600b8352604080862060059095029092018054909116855292909152909120548451919250908490849081106115b157634e487b7160e01b600052603260045260246000fd5b602090810291909101015250806115c781612848565b915050611527565b5092915050565b6001546060906000906001600160401b0381111561160457634e487b7160e01b600052604160045260246000fd5b60405190808252806020026020018201604052801561162d578160200160208202803683370190505b50905060005b6001548110156116c7576001818154811061165e57634e487b7160e01b600052603260045260246000fd5b600091825260209091206005909102015482516001600160a01b039091169083908390811061169d57634e487b7160e01b600052603260045260246000fd5b6001600160a01b0390921660209283029190910190910152806116bf81612848565b915050611633565b50919050565b6001546060906000906001600160401b038111156116fb57634e487b7160e01b600052604160045260246000fd5b604051908082528060200260200182016040528015611724578160200160208202803683370190505b5060075490915060ff16158061174457506005546001600160401b031642105b156117955760005b6001548110156115cf57600082828151811061177857634e487b7160e01b600052603260045260246000fd5b60209081029190910101528061178d81612848565b91505061174c565b6005546000906117b6904290600160401b90046001600160401b0316611f91565b6007549091506000906117d79061010090046001600160401b0316836127f4565b6001600160401b0316905060005b6001548110156119c75760006001828154811061181257634e487b7160e01b600052603260045260246000fd5b600091825260208083206005909202909101805460028201546001600160a01b038c8116808752600b865260408088209290941680885291865283872054908752600a865283872082885290955291909420549194509291611873916127dd565b87858151811061189357634e487b7160e01b600052603260045260246000fd5b60209081029190910101526004546118ae57506119b5915050565b6005546004546118ce91600160801b90046001600160401b0316906127be565b6001840154600160701b906118e390886127be565b6118ed91906127be565b6118f7919061279e565b6119019082612786565b90506000808211611913576000611976565b6001600160a01b03808b16600090815260096020908152604080832093871683529290522054600160701b9061194990846127dd565b6001600160a01b038c1660009081526008602052604090205461196c91906127be565b611976919061279e565b90508088868151811061199957634e487b7160e01b600052603260045260246000fd5b602002602001018181516119ad9190612786565b905250505050505b806119bf81612848565b9150506117e5565b5091949350505050565b60075460ff1680156119ee57506005546001600160401b03164210155b611a0a5760405162461bcd60e51b815260040161051690612748565b611a12610bb5565b6001546000906001600160401b03811115611a3d57634e487b7160e01b600052604160045260246000fd5b604051908082528060200260200182016040528015611a66578160200160208202803683370190505b50905060005b600154811015611bcb57600060018281548110611a9957634e487b7160e01b600052603260045260246000fd5b906000526020600020906005020190508060030154816004016000828254611ac19190612786565b9091555050600060038201819055600480830154600184015484546040516370a0823160e01b81523094810194909452919290916001600160a01b0316906370a082319060240160206040518083038186803b158015611b2057600080fd5b505afa158015611b34573d6000803e3d6000fd5b505050506040513d601f19601f82011682018060405250810190611b589190612581565b611b6291906127dd565b611b6c91906127dd565b905080848481518110611b8f57634e487b7160e01b600052603260045260246000fd5b60209081029190910101526000548254611bb6916001600160a01b03918216911683611f29565b50508080611bc390612848565b915050611a6c565b507ff904fafa600a7e4e8039f3a5497d1b6016772e3060f87d3e40f911b315f00bd181604051611bfb91906126dd565b60405180910390a150565b6000546001600160a01b03163314611c305760405162461bcd60e51b815260040161051690612767565b60075460ff16611c6a5760405162461bcd60e51b8152602060048201526005602482015264535244313960d81b6044820152606401610516565b6005546001600160401b03164210611cac5760405162461bcd60e51b81526020600482015260056024820152640a6a48860760db1b6044820152606401610516565b60005b600154811015611d9f57600060018281548110611cdc57634e487b7160e01b600052603260045260246000fd5b6000918252602082206005919091020160018101829055905481546040516370a0823160e01b8152306004820152929350611d8c926001600160a01b0392831692909116906370a082319060240160206040518083038186803b158015611d4257600080fd5b505afa158015611d56573d6000803e3d6000fd5b505050506040513d601f19601f82011682018060405250810190611d7a9190612581565b83546001600160a01b03169190611f29565b5080611d9781612848565b915050611caf565b50611dac6001600061229b565b600280546001600160a01b0319169055600580546007805468ffffffffffffffffff1916905578ff0000000000000000ffffffffffffffffffffffffffffffff191690556040517f1afb0ae590df277bcb3a37f88612725bf1f7df4755792b1548a7efe77985ff7790600090a1565b6000546001600160a01b03163314611e455760405162461bcd60e51b815260040161051690612767565b6001600160a01b038116611e835760405162461bcd60e51b815260206004820152600560248201526429a922189b60d91b6044820152606401610516565b600080546040516001600160a01b03808516939216917f8be0079c531659141344cd1fd0a4f28419497f9722a3daafe3b4186f6b6457e091a3600080546001600160a01b0319166001600160a01b0392909216919091179055565b60018181548110611eee57600080fd5b6000918252602090912060059091020180546001820154600283015460038401546004909401546001600160a01b0390931694509092909185565b6040516001600160a01b038316602482015260448101829052611f8c90849063a9059cbb60e01b906064015b60408051601f198184030181529190526020810180516001600160e01b03166001600160e01b031990931692909217909152612051565b505050565b6000818310611fa05781611fa2565b825b9392505050565b336000908152600b6020908152604080832086546001600160a01b0316845290915281208054849290611fdd908490612786565b9250508190555081836004016000828254611ff89190612786565b90915550508254611f8c906001600160a01b03168284611f29565b6040516001600160a01b038085166024830152831660448201526064810182905261204b9085906323b872dd60e01b90608401611f55565b50505050565b60006120a6826040518060400160405280602081526020017f5361666545524332303a206c6f772d6c6576656c2063616c6c206661696c6564815250856001600160a01b03166121239092919063ffffffff16565b805190915015611f8c57808060200190518101906120c4919061254d565b611f8c5760405162461bcd60e51b815260206004820152602a60248201527f5361666545524332303a204552433230206f7065726174696f6e20646964206e6044820152691bdd081cdd58d8d9595960b21b6064820152608401610516565b6060612132848460008561213a565b949350505050565b60608247101561219b5760405162461bcd60e51b815260206004820152602660248201527f416464726573733a20696e73756666696369656e742062616c616e636520666f6044820152651c8818d85b1b60d21b6064820152608401610516565b843b6121e95760405162461bcd60e51b815260206004820152601d60248201527f416464726573733a2063616c6c20746f206e6f6e2d636f6e74726163740000006044820152606401610516565b600080866001600160a01b0316858760405161220591906125cd565b60006040518083038185875af1925050503d8060008114612242576040519150601f19603f3d011682016040523d82523d6000602084013e612247565b606091505b5091509150612257828286612262565b979650505050505050565b60608315612271575081611fa2565b8251156122815782518084602001fd5b8160405162461bcd60e51b81526004016105169190612715565b50805460008255600502906000526020600020908101906114c791905b808211156122f25780546001600160a01b0319168155600060018201819055600282018190556003820181905560048201556005016122b8565b5090565b80356001600160a01b038116811461230d57600080fd5b919050565b60008083601f840112612323578081fd5b5081356001600160401b03811115612339578182fd5b6020830191508360208260051b850101111561235457600080fd5b9250929050565b80356001600160401b038116811461230d57600080fd5b600060208284031215612383578081fd5b611fa2826122f6565b6000806040838503121561239e578081fd5b6123a7836122f6565b91506123b5602084016122f6565b90509250929050565b600080600080600080600080600060e08a8c0312156123db578485fd5b89356001600160401b03808211156123f1578687fd5b6123fd8d838e01612312565b909b50995089915061241160208d016122f6565b985060408c0135915080821115612426578687fd5b506124338c828d01612312565b9097509550612446905060608b0161235b565b935061245460808b0161235b565b925060a08a0135612464816128b3565b8092505060c08a013590509295985092959850929598565b6000806040838503121561248e578182fd5b82356001600160401b03808211156124a4578384fd5b818501915085601f8301126124b7578384fd5b81356020828211156124cb576124cb61289d565b8160051b604051601f19603f830116810181811086821117156124f0576124f061289d565b604052838152828101945085830182870184018b101561250e578889fd5b8896505b84871015612530578035865260019690960195948301948301612512565b50965061254090508782016122f6565b9450505050509250929050565b60006020828403121561255e578081fd5b8151611fa2816128b3565b60006020828403121561257a578081fd5b5035919050565b600060208284031215612592578081fd5b5051919050565b81835260006001600160fb1b038311156125b1578081fd5b8260051b80836020870137939093016020019283525090919050565b600082516125df81846020870161281c565b9190910192915050565b60e0808252810189905260008a6101008301825b8c81101561262b576001600160a01b03612616846122f6565b168252602092830192909101906001016125fd565b506001600160a01b038b166020850152838103604085015261264e818a8c612599565b9250505061266760608301876001600160401b03169052565b6001600160401b0394909416608082015291151560a083015260c0909101529695505050505050565b6020808252825182820181905260009190848201906040850190845b818110156126d15783516001600160a01b0316835292840192918401916001016126ac565b50909695505050505050565b6020808252825182820181905260009190848201906040850190845b818110156126d1578351835292840192918401916001016126f9565b602081526000825180602084015261273481604085016020870161281c565b601f01601f19169190910160400192915050565b602080825260059082015264053524432360dc1b604082015260600190565b602080825260059082015264535244313760d81b604082015260600190565b6000821982111561279957612799612887565b500190565b6000826127b957634e487b7160e01b81526012600452602481fd5b500490565b60008160001904831182151516156127d8576127d8612887565b500290565b6000828210156127ef576127ef612887565b500390565b60006001600160401b038381169083168181101561281457612814612887565b039392505050565b60005b8381101561283757818101518382015260200161281f565b8381111561204b5750506000910152565b600060001982141561285c5761285c612887565b5060010190565b600063ffffffff8083168181141561287d5761287d612887565b6001019392505050565b634e487b7160e01b600052601160045260246000fd5b634e487b7160e01b600052604160045260246000fd5b80151581146114c757600080fdfea264697066735822122087e8c1598ddb3221ddfd35c5ba4d1cee6412d734a4e4e0ae32045777656c058864736f6c63430008040033",
  "immutableReferences": {},
  "source": "// SPDX-License-Identifier: GPL-3.0\n\npragma solidity ^0.8.4;\n\nimport \"@openzeppelin/contracts/utils/math/Math.sol\";\nimport \"@openzeppelin/contracts/token/ERC20/IERC20.sol\";\nimport \"@openzeppelin/contracts/token/ERC20/utils/SafeERC20.sol\";\n\n/**\n * Errors codes:\n *\n * SRD01: invalid starting timestamp\n * SRD02: invalid time duration\n * SRD03: inconsistent reward token/amount\n * SRD04: 0 address as reward token\n * SRD05: no reward\n * SRD06: no funding\n * SRD07: 0 address as stakable token\n * SRD08: distribution already started\n * SRD09: tried to stake nothing\n * SRD10: staking cap hit\n * SRD11: tried to withdraw nothing\n * SRD12: funds locked until the distribution ends\n * SRD13: withdrawn amount greater than current stake\n * SRD14: inconsistent claimed amounts\n * SRD15: insufficient claimable amount\n * SRD16: 0 address owner\n * SRD17: caller not owner\n * SRD18: already initialized\n * SRD19: not initialized\n * SRD20: not started\n * SRD21: already ended\n */\ncontract ERC20StakingRewardsDistribution {\n    using SafeERC20 for IERC20;\n\n    uint224 constant MULTIPLIER = 2**112;\n\n    struct Reward {\n        address token;\n        uint256 amount;\n        uint256 perStakedToken;\n        uint256 recoverable;\n        uint256 claimed;\n    }\n\n    address public owner;\n    Reward[] public rewards;\n    IERC20 public stakableToken;\n    mapping(address => uint256) public stakedTokenAmount;\n    uint256 public totalStakedTokensAmount;\n    uint64 public startingTimestamp;\n    uint64 public endingTimestamp;\n    uint64 public secondsDuration;\n    bool public locked;\n    uint256 public stakingCap;\n    bool public initialized;\n    uint64 public lastConsolidationTimestamp;\n\n    mapping(address => uint256) public stakedTokensOf;\n    mapping(address => mapping(address => uint256))\n        public consolidatedRewardsPerStakedToken;\n    mapping(address => mapping(address => uint256)) public earnedRewards;\n    mapping(address => mapping(address => uint256)) public claimedReward;\n\n    event OwnershipTransferred(\n        address indexed previousOwner,\n        address indexed newOwner\n    );\n    event Initialized(\n        address[] rewardsTokenAddresses,\n        address stakableTokenAddress,\n        uint256[] rewardsAmounts,\n        uint64 startingTimestamp,\n        uint64 endingTimestamp,\n        bool locked,\n        uint256 stakingCap\n    );\n    event Canceled();\n    event Staked(address indexed staker, uint256 amount);\n    event Withdrawn(address indexed withdrawer, uint256 amount);\n    event Claimed(address indexed claimer, uint256[] amounts);\n    event Recovered(uint256[] amounts);\n\n    function getRewardTokens() external view returns (address[] memory) {\n        address[] memory _rewardTokens = new address[](rewards.length);\n        for (uint256 _i = 0; _i < rewards.length; _i++) {\n            _rewardTokens[_i] = rewards[_i].token;\n        }\n        return _rewardTokens;\n    }\n\n    function getClaimedRewards(address _claimer)\n        external\n        view\n        returns (uint256[] memory)\n    {\n        uint256[] memory _claimedRewards = new uint256[](rewards.length);\n        for (uint256 _i = 0; _i < rewards.length; _i++) {\n            Reward storage _reward = rewards[_i];\n            _claimedRewards[_i] = claimedReward[_claimer][_reward.token];\n        }\n        return _claimedRewards;\n    }\n\n    function initialize(\n        address[] calldata _rewardTokenAddresses,\n        address _stakableTokenAddress,\n        uint256[] calldata _rewardAmounts,\n        uint64 _startingTimestamp,\n        uint64 _endingTimestamp,\n        bool _locked,\n        uint256 _stakingCap\n    ) external onlyUninitialized {\n        require(_startingTimestamp > block.timestamp, \"SRD01\");\n        require(_endingTimestamp > _startingTimestamp, \"SRD02\");\n        require(_rewardTokenAddresses.length == _rewardAmounts.length, \"SRD03\");\n\n        secondsDuration = _endingTimestamp - _startingTimestamp;\n        // Initializing reward tokens and amounts\n        for (uint32 _i = 0; _i < _rewardTokenAddresses.length; _i++) {\n            address _rewardTokenAddress = _rewardTokenAddresses[_i];\n            uint256 _rewardAmount = _rewardAmounts[_i];\n            require(_rewardTokenAddress != address(0), \"SRD04\");\n            require(_rewardAmount > 0, \"SRD05\");\n            IERC20 _rewardToken = IERC20(_rewardTokenAddress);\n            require(\n                _rewardToken.balanceOf(address(this)) >= _rewardAmount,\n                \"SRD06\"\n            );\n            rewards.push(\n                Reward({\n                    token: _rewardTokenAddress,\n                    amount: _rewardAmount,\n                    perStakedToken: 0,\n                    recoverable: 0,\n                    claimed: 0\n                })\n            );\n        }\n\n        require(_stakableTokenAddress != address(0), \"SRD07\");\n        stakableToken = IERC20(_stakableTokenAddress);\n\n        owner = msg.sender;\n        startingTimestamp = _startingTimestamp;\n        endingTimestamp = _endingTimestamp;\n        lastConsolidationTimestamp = _startingTimestamp;\n        locked = _locked;\n        stakingCap = _stakingCap;\n\n        initialized = true;\n        emit Initialized(\n            _rewardTokenAddresses,\n            _stakableTokenAddress,\n            _rewardAmounts,\n            _startingTimestamp,\n            _endingTimestamp,\n            _locked,\n            _stakingCap\n        );\n    }\n\n    function cancel() external onlyOwner {\n        require(initialized, \"SRD19\");\n        require(block.timestamp < startingTimestamp, \"SRD08\");\n        // resetting reward information (both tokens and amounts)\n        for (uint256 _i; _i < rewards.length; _i++) {\n            Reward storage _reward = rewards[_i];\n            delete _reward.amount;\n            IERC20(_reward.token).safeTransfer(\n                owner,\n                IERC20(_reward.token).balanceOf(address(this))\n            );\n        }\n        delete rewards;\n        delete stakableToken;\n        startingTimestamp = 0;\n        endingTimestamp = 0;\n        lastConsolidationTimestamp = 0;\n        initialized = false;\n        locked = false;\n        emit Canceled();\n    }\n\n    function recoverUnassignedRewards() external onlyStarted {\n        consolidateReward();\n        uint256[] memory _recoveredUnassignedRewards =\n            new uint256[](rewards.length);\n        for (uint256 _i; _i < rewards.length; _i++) {\n            Reward storage _reward = rewards[_i];\n            // recoverable rewards are going to be recovered in this tx (if it does not revert),\n            // so we add them to the claimed rewards right now\n            _reward.claimed += _reward.recoverable;\n            delete _reward.recoverable;\n            uint256 _recoverableRewards =\n                IERC20(_reward.token).balanceOf(address(this)) -\n                    _reward.amount -\n                    _reward.claimed;\n            _recoveredUnassignedRewards[_i] = _recoverableRewards;\n            IERC20(_reward.token).safeTransfer(owner, _recoverableRewards);\n        }\n        emit Recovered(_recoveredUnassignedRewards);\n    }\n\n    function stake(uint256 _amount) external onlyRunning {\n        require(_amount > 0, \"SRD09\");\n        if (stakingCap > 0) {\n            require(totalStakedTokensAmount + _amount <= stakingCap, \"SRD10\");\n        }\n        consolidateReward();\n        stakedTokensOf[msg.sender] = stakedTokensOf[msg.sender] + _amount;\n        totalStakedTokensAmount = totalStakedTokensAmount + _amount;\n        stakableToken.safeTransferFrom(msg.sender, address(this), _amount);\n        emit Staked(msg.sender, _amount);\n    }\n\n    function withdraw(uint256 _amount) public onlyStarted {\n        require(_amount > 0, \"SRD11\");\n        if (locked) {\n            require(block.timestamp > endingTimestamp, \"SRD12\");\n        }\n        consolidateReward();\n        require(_amount <= stakedTokensOf[msg.sender], \"SRD13\");\n        stakedTokensOf[msg.sender] -= _amount;\n        totalStakedTokensAmount -= _amount;\n        stakableToken.safeTransfer(msg.sender, _amount);\n        emit Withdrawn(msg.sender, _amount);\n    }\n\n    function claim(uint256[] memory _amounts, address _recipient)\n        external\n        onlyStarted\n    {\n        require(_amounts.length == rewards.length, \"SRD14\");\n        consolidateReward();\n        uint256[] memory _claimedRewards = new uint256[](rewards.length);\n        for (uint256 _i; _i < rewards.length; _i++) {\n            Reward storage _reward = rewards[_i];\n            uint256 _claimableReward =\n                earnedRewards[msg.sender][_reward.token] -\n                    claimedReward[msg.sender][_reward.token];\n            uint256 _wantedAmount = _amounts[_i];\n            require(_claimableReward >= _wantedAmount, \"SRD15\");\n            consolidateAndTransferClaim(_reward, _wantedAmount, _recipient);\n            _claimedRewards[_i] = _wantedAmount;\n        }\n        emit Claimed(msg.sender, _claimedRewards);\n    }\n\n    function claimAll(address _recipient) public onlyStarted {\n        consolidateReward();\n        uint256[] memory _claimedRewards = new uint256[](rewards.length);\n        for (uint256 _i; _i < rewards.length; _i++) {\n            Reward storage _reward = rewards[_i];\n            uint256 _claimableReward =\n                earnedRewards[msg.sender][_reward.token] -\n                    claimedReward[msg.sender][_reward.token];\n            consolidateAndTransferClaim(_reward, _claimableReward, _recipient);\n            _claimedRewards[_i] = _claimableReward;\n        }\n        emit Claimed(msg.sender, _claimedRewards);\n    }\n\n    function exit(address _recipient) external onlyStarted {\n        consolidateReward();\n        claimAll(_recipient);\n        withdraw(stakedTokensOf[msg.sender]);\n    }\n\n    function consolidateAndTransferClaim(\n        Reward storage _reward,\n        uint256 _amount,\n        address _recipient\n    ) private {\n        claimedReward[msg.sender][_reward.token] += _amount;\n        _reward.claimed += _amount;\n        IERC20(_reward.token).safeTransfer(_recipient, _amount);\n    }\n\n    function consolidateReward() public onlyStarted {\n        uint64 _consolidationTimestamp =\n            uint64(Math.min(block.timestamp, endingTimestamp));\n        uint256 _lastPeriodDuration =\n            uint256(_consolidationTimestamp - lastConsolidationTimestamp);\n        for (uint256 _i; _i < rewards.length; _i++) {\n            Reward storage _reward = rewards[_i];\n            if (totalStakedTokensAmount == 0) {\n                // If the current staked tokens amount is zero, there have been unassigned rewards in the last period.\n                // We add these unassigned rewards to the amount that can be claimed back by the contract's owner.\n                _reward.recoverable += ((_lastPeriodDuration * _reward.amount) /\n                    secondsDuration);\n                _reward.perStakedToken = 0;\n                consolidatedRewardsPerStakedToken[msg.sender][\n                    _reward.token\n                ] = 0;\n                continue;\n            } else {\n                _reward.perStakedToken += ((_lastPeriodDuration *\n                    _reward.amount *\n                    MULTIPLIER) / (totalStakedTokensAmount * secondsDuration));\n            }\n            uint256 _rewardInCurrentPeriod =\n                _reward.perStakedToken > 0\n                    ? (stakedTokensOf[msg.sender] *\n                        (_reward.perStakedToken -\n                            consolidatedRewardsPerStakedToken[msg.sender][\n                                _reward.token\n                            ])) / MULTIPLIER\n                    : 0;\n            earnedRewards[msg.sender][_reward.token] += _rewardInCurrentPeriod;\n            consolidatedRewardsPerStakedToken[msg.sender][\n                _reward.token\n            ] = _reward.perStakedToken;\n        }\n        lastConsolidationTimestamp = _consolidationTimestamp;\n    }\n\n    function claimableRewards(address _staker)\n        public\n        view\n        returns (uint256[] memory)\n    {\n        uint256[] memory _outstandingRewards = new uint256[](rewards.length);\n        if (!initialized || block.timestamp < startingTimestamp) {\n            for (uint256 _i; _i < rewards.length; _i++) {\n                _outstandingRewards[_i] = 0;\n            }\n            return _outstandingRewards;\n        }\n        uint64 _consolidationTimestamp =\n            uint64(Math.min(block.timestamp, endingTimestamp));\n        uint256 _lastPeriodDuration =\n            uint256(_consolidationTimestamp - lastConsolidationTimestamp);\n        for (uint256 _i; _i < rewards.length; _i++) {\n            Reward storage _reward = rewards[_i];\n            address _relatedRewardTokenAddress = _reward.token;\n            uint256 _localRewardPerStakedToken = _reward.perStakedToken;\n            _outstandingRewards[_i] =\n                earnedRewards[_staker][_reward.token] -\n                claimedReward[_staker][_reward.token];\n            if (totalStakedTokensAmount == 0) {\n                _localRewardPerStakedToken = 0;\n                // no rewards in the current period, skip rest of the calculations\n                continue;\n            } else {\n                _localRewardPerStakedToken += ((_lastPeriodDuration *\n                    _reward.amount *\n                    MULTIPLIER) / (totalStakedTokensAmount * secondsDuration));\n            }\n            uint256 _rewardsInTheCurrentPeriod =\n                _localRewardPerStakedToken > 0\n                    ? (stakedTokensOf[_staker] *\n                        (_localRewardPerStakedToken -\n                            consolidatedRewardsPerStakedToken[_staker][\n                                _relatedRewardTokenAddress\n                            ])) / MULTIPLIER\n                    : 0;\n            // the claimable reward basically is the one not yet consolidated in the current period plus any\n            // previously consolidated/earned but unclaimed reward\n            _outstandingRewards[_i] += _rewardsInTheCurrentPeriod;\n        }\n        return _outstandingRewards;\n    }\n\n    function renounceOwnership() public onlyOwner {\n        owner = address(0);\n        emit OwnershipTransferred(owner, address(0));\n    }\n\n    function transferOwnership(address _newOwner) public onlyOwner {\n        require(_newOwner != address(0), \"SRD16\");\n        emit OwnershipTransferred(owner, _newOwner);\n        owner = _newOwner;\n    }\n\n    modifier onlyOwner() {\n        require(owner == msg.sender, \"SRD17\");\n        _;\n    }\n\n    modifier onlyUninitialized() {\n        require(!initialized, \"SRD18\");\n        _;\n    }\n\n    modifier onlyStarted() {\n        require(initialized && block.timestamp >= startingTimestamp, \"SRD20\");\n        _;\n    }\n\n    modifier onlyRunning() {\n        require(\n            initialized &&\n                block.timestamp >= startingTimestamp &&\n                block.timestamp <= endingTimestamp,\n            \"SRD21\"\n        );\n        _;\n    }\n}\n",
  "sourcePath": "/home/luzzif/Projects/swapr-lp-staker/contracts/ERC20StakingRewardsDistribution.sol",
  "compiler": {
    "name": "solc",
    "version": "0.8.4+commit.c7e474f2.Emscripten.clang"
  },
  "schemaVersion": "3.3.3",
  "updatedAt": "2021-05-05T10:14:28.642Z",
  "devdoc": {
    "kind": "dev",
    "methods": {},
    "version": 1
  },
  "userdoc": {
    "kind": "user",
    "methods": {},
    "notice": "Errors codes: SRD01: invalid starting timestamp SRD02: invalid time duration SRD03: inconsistent reward token/amount SRD04: 0 address as reward token SRD05: no reward SRD06: no funding SRD07: 0 address as stakable token SRD08: distribution already started SRD09: tried to stake nothing SRD10: staking cap hit SRD11: tried to withdraw nothing SRD12: funds locked until the distribution ends SRD13: withdrawn amount greater than current stake SRD14: inconsistent claimed amounts SRD15: insufficient claimable amount SRD16: 0 address owner SRD17: caller not owner SRD18: already initialized SRD19: not initialized SRD20: not started SRD21: already ended",
    "version": 1
  }
}