{
  "contractName": "ERC20StakingRewardsDistribution",
  "abi": [
    {
      "anonymous": false,
      "inputs": [],
      "name": "Canceled",
      "type": "event"
    },
    {
      "anonymous": false,
      "inputs": [
        {
          "indexed": true,
          "internalType": "address",
          "name": "claimer",
          "type": "address"
        },
        {
          "indexed": false,
          "internalType": "uint256[]",
          "name": "amounts",
          "type": "uint256[]"
        }
      ],
      "name": "Claimed",
      "type": "event"
    },
    {
      "anonymous": false,
      "inputs": [
        {
          "indexed": false,
          "internalType": "address[]",
          "name": "rewardsTokenAddresses",
          "type": "address[]"
        },
        {
          "indexed": false,
          "internalType": "address",
          "name": "stakableTokenAddress",
          "type": "address"
        },
        {
          "indexed": false,
          "internalType": "uint256[]",
          "name": "rewardsAmounts",
          "type": "uint256[]"
        },
        {
          "indexed": false,
          "internalType": "uint64",
          "name": "startingTimestamp",
          "type": "uint64"
        },
        {
          "indexed": false,
          "internalType": "uint64",
          "name": "endingTimestamp",
          "type": "uint64"
        },
        {
          "indexed": false,
          "internalType": "bool",
          "name": "locked",
          "type": "bool"
        },
        {
          "indexed": false,
          "internalType": "uint256",
          "name": "stakingCap",
          "type": "uint256"
        }
      ],
      "name": "Initialized",
      "type": "event"
    },
    {
      "anonymous": false,
      "inputs": [
        {
          "indexed": true,
          "internalType": "address",
          "name": "previousOwner",
          "type": "address"
        },
        {
          "indexed": true,
          "internalType": "address",
          "name": "newOwner",
          "type": "address"
        }
      ],
      "name": "OwnershipTransferred",
      "type": "event"
    },
    {
      "anonymous": false,
      "inputs": [
        {
          "indexed": false,
          "internalType": "uint256[]",
          "name": "amounts",
          "type": "uint256[]"
        }
      ],
      "name": "Recovered",
      "type": "event"
    },
    {
      "anonymous": false,
      "inputs": [
        {
          "indexed": true,
          "internalType": "address",
          "name": "staker",
          "type": "address"
        },
        {
          "indexed": false,
          "internalType": "uint256",
          "name": "amount",
          "type": "uint256"
        }
      ],
      "name": "Staked",
      "type": "event"
    },
    {
      "anonymous": false,
      "inputs": [
        {
          "indexed": true,
          "internalType": "address",
          "name": "withdrawer",
          "type": "address"
        },
        {
          "indexed": false,
          "internalType": "uint256",
          "name": "amount",
          "type": "uint256"
        }
      ],
      "name": "Withdrawn",
      "type": "event"
    },
    {
      "inputs": [],
      "name": "canceled",
      "outputs": [
        {
          "internalType": "bool",
          "name": "",
          "type": "bool"
        }
      ],
      "stateMutability": "view",
      "type": "function"
    },
    {
      "inputs": [],
      "name": "endingTimestamp",
      "outputs": [
        {
          "internalType": "uint64",
          "name": "",
          "type": "uint64"
        }
      ],
      "stateMutability": "view",
      "type": "function"
    },
    {
      "inputs": [],
      "name": "initialized",
      "outputs": [
        {
          "internalType": "bool",
          "name": "",
          "type": "bool"
        }
      ],
      "stateMutability": "view",
      "type": "function"
    },
    {
      "inputs": [],
      "name": "lastConsolidationTimestamp",
      "outputs": [
        {
          "internalType": "uint64",
          "name": "",
          "type": "uint64"
        }
      ],
      "stateMutability": "view",
      "type": "function"
    },
    {
      "inputs": [],
      "name": "locked",
      "outputs": [
        {
          "internalType": "bool",
          "name": "",
          "type": "bool"
        }
      ],
      "stateMutability": "view",
      "type": "function"
    },
    {
      "inputs": [],
      "name": "owner",
      "outputs": [
        {
          "internalType": "address",
          "name": "",
          "type": "address"
        }
      ],
      "stateMutability": "view",
      "type": "function"
    },
    {
      "inputs": [
        {
          "internalType": "uint256",
          "name": "",
          "type": "uint256"
        }
      ],
      "name": "rewards",
      "outputs": [
        {
          "internalType": "address",
          "name": "token",
          "type": "address"
        },
        {
          "internalType": "uint256",
          "name": "amount",
          "type": "uint256"
        },
        {
          "internalType": "uint256",
          "name": "perStakedToken",
          "type": "uint256"
        },
        {
          "internalType": "uint256",
          "name": "recoverable",
          "type": "uint256"
        },
        {
          "internalType": "uint256",
          "name": "claimed",
          "type": "uint256"
        }
      ],
      "stateMutability": "view",
      "type": "function"
    },
    {
      "inputs": [],
      "name": "secondsDuration",
      "outputs": [
        {
          "internalType": "uint64",
          "name": "",
          "type": "uint64"
        }
      ],
      "stateMutability": "view",
      "type": "function"
    },
    {
      "inputs": [],
      "name": "stakableToken",
      "outputs": [
        {
          "internalType": "contract IERC20",
          "name": "",
          "type": "address"
        }
      ],
      "stateMutability": "view",
      "type": "function"
    },
    {
      "inputs": [],
      "name": "stakingCap",
      "outputs": [
        {
          "internalType": "uint256",
          "name": "",
          "type": "uint256"
        }
      ],
      "stateMutability": "view",
      "type": "function"
    },
    {
      "inputs": [],
      "name": "startingTimestamp",
      "outputs": [
        {
          "internalType": "uint64",
          "name": "",
          "type": "uint64"
        }
      ],
      "stateMutability": "view",
      "type": "function"
    },
    {
      "inputs": [],
      "name": "totalStakedTokensAmount",
      "outputs": [
        {
          "internalType": "uint256",
          "name": "",
          "type": "uint256"
        }
      ],
      "stateMutability": "view",
      "type": "function"
    },
    {
      "inputs": [
        {
          "internalType": "address[]",
          "name": "_rewardTokenAddresses",
          "type": "address[]"
        },
        {
          "internalType": "address",
          "name": "_stakableTokenAddress",
          "type": "address"
        },
        {
          "internalType": "uint256[]",
          "name": "_rewardAmounts",
          "type": "uint256[]"
        },
        {
          "internalType": "uint64",
          "name": "_startingTimestamp",
          "type": "uint64"
        },
        {
          "internalType": "uint64",
          "name": "_endingTimestamp",
          "type": "uint64"
        },
        {
          "internalType": "bool",
          "name": "_locked",
          "type": "bool"
        },
        {
          "internalType": "uint256",
          "name": "_stakingCap",
          "type": "uint256"
        }
      ],
      "name": "initialize",
      "outputs": [],
      "stateMutability": "nonpayable",
      "type": "function"
    },
    {
      "inputs": [],
      "name": "cancel",
      "outputs": [],
      "stateMutability": "nonpayable",
      "type": "function"
    },
    {
      "inputs": [],
      "name": "recoverUnassignedRewards",
      "outputs": [],
      "stateMutability": "nonpayable",
      "type": "function"
    },
    {
      "inputs": [
        {
          "internalType": "uint256",
          "name": "_amount",
          "type": "uint256"
        }
      ],
      "name": "stake",
      "outputs": [],
      "stateMutability": "nonpayable",
      "type": "function"
    },
    {
      "inputs": [
        {
          "internalType": "uint256",
          "name": "_amount",
          "type": "uint256"
        }
      ],
      "name": "withdraw",
      "outputs": [],
      "stateMutability": "nonpayable",
      "type": "function"
    },
    {
      "inputs": [
        {
          "internalType": "uint256[]",
          "name": "_amounts",
          "type": "uint256[]"
        },
        {
          "internalType": "address",
          "name": "_recipient",
          "type": "address"
        }
      ],
      "name": "claim",
      "outputs": [],
      "stateMutability": "nonpayable",
      "type": "function"
    },
    {
      "inputs": [
        {
          "internalType": "address",
          "name": "_recipient",
          "type": "address"
        }
      ],
      "name": "claimAll",
      "outputs": [],
      "stateMutability": "nonpayable",
      "type": "function"
    },
    {
      "inputs": [
        {
          "internalType": "address",
          "name": "_recipient",
          "type": "address"
        }
      ],
      "name": "exit",
      "outputs": [],
      "stateMutability": "nonpayable",
      "type": "function"
    },
    {
      "inputs": [],
      "name": "consolidateReward",
      "outputs": [],
      "stateMutability": "nonpayable",
      "type": "function"
    },
    {
      "inputs": [
        {
          "internalType": "address",
          "name": "_account",
          "type": "address"
        }
      ],
      "name": "claimableRewards",
      "outputs": [
        {
          "internalType": "uint256[]",
          "name": "",
          "type": "uint256[]"
        }
      ],
      "stateMutability": "view",
      "type": "function"
    },
    {
      "inputs": [],
      "name": "getRewardTokens",
      "outputs": [
        {
          "internalType": "address[]",
          "name": "",
          "type": "address[]"
        }
      ],
      "stateMutability": "view",
      "type": "function"
    },
    {
      "inputs": [
        {
          "internalType": "address",
          "name": "_rewardToken",
          "type": "address"
        }
      ],
      "name": "rewardAmount",
      "outputs": [
        {
          "internalType": "uint256",
          "name": "",
          "type": "uint256"
        }
      ],
      "stateMutability": "view",
      "type": "function"
    },
    {
      "inputs": [
        {
          "internalType": "address",
          "name": "_staker",
          "type": "address"
        }
      ],
      "name": "stakedTokensOf",
      "outputs": [
        {
          "internalType": "uint256",
          "name": "",
          "type": "uint256"
        }
      ],
      "stateMutability": "view",
      "type": "function"
    },
    {
      "inputs": [
        {
          "internalType": "address",
          "name": "_rewardToken",
          "type": "address"
        }
      ],
      "name": "recoverableUnassignedReward",
      "outputs": [
        {
          "internalType": "uint256",
          "name": "",
          "type": "uint256"
        }
      ],
      "stateMutability": "view",
      "type": "function"
    },
    {
      "inputs": [
        {
          "internalType": "address",
          "name": "_claimer",
          "type": "address"
        }
      ],
      "name": "getClaimedRewards",
      "outputs": [
        {
          "internalType": "uint256[]",
          "name": "",
          "type": "uint256[]"
        }
      ],
      "stateMutability": "view",
      "type": "function"
    },
    {
      "inputs": [],
      "name": "renounceOwnership",
      "outputs": [],
      "stateMutability": "nonpayable",
      "type": "function"
    },
    {
      "inputs": [
        {
          "internalType": "address",
          "name": "_newOwner",
          "type": "address"
        }
      ],
      "name": "transferOwnership",
      "outputs": [],
      "stateMutability": "nonpayable",
      "type": "function"
    }
  ],
  "bytecode": "0x608060405234801561001057600080fd5b506128fc806100206000396000f3fe608060405234801561001057600080fd5b50600436106101cf5760003560e01c80638c574b4811610104578063c10de300116100a2578063e644067d11610071578063e644067d14610417578063ea8a1af01461041f578063f2fde38b14610427578063f301af421461043a57600080fd5b8063c10de300146103c1578063c4f59f9b146103db578063cf309012146103f0578063dc01f60d1461040457600080fd5b8063ab08d4fc116100de578063ab08d4fc1461035c578063b41fa97914610385578063b42652e91461038e578063b9e35db0146103a157600080fd5b80638c574b48146103235780638da5cb5b14610336578063a694fc3a1461034957600080fd5b80635e5294b7116101715780636715dcb81161014b5780636715dcb8146102ed578063715018a6146102f557806377329f35146102fd578063887862721461031057600080fd5b80635e5294b71461028e5780635fa35023146102c0578063645a8a56146102da57600080fd5b80632e1a7d4d116101ad5780632e1a7d4d1461023d5780633b34ee50146102505780633f9942ff1461027157806344c370d31461028557600080fd5b8063158ef93e146101d45780631c96c3fb146101fd57806323a26e3614610228575b600080fd5b6004546101e890600160b01b900460ff1681565b60405190151581526020015b60405180910390f35b600354610210906001600160a01b031681565b6040516001600160a01b0390911681526020016101f4565b61023b6102363660046123c3565b61047f565b005b61023b61024b36600461256e565b6109b5565b61026361025e3660046123a9565b610b71565b6040519081526020016101f4565b6004546101e890600160a81b900460ff1681565b61026360065481565b6002546102a890600160401b90046001600160401b031681565b6040516001600160401b0390911681526020016101f4565b6002546102a890600160801b90046001600160401b031681565b6102636102e83660046123a9565b610bf0565b61023b610c66565b61023b610ef0565b61023b61030b3660046123a9565b610f59565b6002546102a8906001600160401b031681565b61023b610331366004612481565b611122565b600454610210906001600160a01b031681565b61023b61035736600461256e565b61138b565b61026361036a3660046123a9565b6001600160a01b031660009081526001602052604090205490565b61026360055481565b61023b61039c3660046123a9565b611531565b6103b46103af3660046123a9565b6115b4565b6040516101f491906126e2565b6002546102a890600160c01b90046001600160401b031681565b6103e36116cd565b6040516101f49190612695565b6004546101e890600160a01b900460ff1681565b6103b46104123660046123a9565b6117c3565b61023b611a76565b61023b611cc0565b61023b6104353660046123a9565b611eb2565b61044d61044836600461256e565b611f76565b604080516001600160a01b0390961686526020860194909452928401919091526060830152608082015260a0016101f4565b600454600160b01b900460ff16156104c65760405162461bcd60e51b81526020600482015260056024820152640a6a48862760db1b60448201526064015b60405180910390fd5b42846001600160401b0316116105065760405162461bcd60e51b8152602060048201526005602482015264535244303160d81b60448201526064016104bd565b836001600160401b0316836001600160401b03161161054f5760405162461bcd60e51b815260206004820152600560248201526429a922181960d91b60448201526064016104bd565b8785146105865760405162461bcd60e51b8152602060048201526005602482015264535244303360d81b60448201526064016104bd565b61059084846127f9565b600260106101000a8154816001600160401b0302191690836001600160401b0316021790555060005b63ffffffff81168911156108895760008a8a8363ffffffff168181106105ef57634e487b7160e01b600052603260045260246000fd5b905060200201602081019061060491906123a9565b9050600088888463ffffffff1681811061062e57634e487b7160e01b600052603260045260246000fd5b60200291909101359150506001600160a01b0382166106775760405162461bcd60e51b815260206004820152600560248201526414d4910c0d60da1b60448201526064016104bd565b600081116106af5760405162461bcd60e51b8152602060048201526005602482015264535244303560d81b60448201526064016104bd565b6040516370a0823160e01b8152306004820152829082906001600160a01b038316906370a082319060240160206040518083038186803b1580156106f257600080fd5b505afa158015610706573d6000803e3d6000fd5b505050506040513d601f19601f8201168201806040525081019061072a9190612586565b10156107605760405162461bcd60e51b815260206004820152600560248201526429a922181b60d91b60448201526064016104bd565b506040805160a0810182526001600160a01b0393841681526020810192835260009181018281526060820183815260808301848152845460018101865594805292517f290decd9548b62a8d60345a988386fc84ba6bc95484008f6362f93160ef3e563600590950294850180546001600160a01b031916919097161790955592517f290decd9548b62a8d60345a988386fc84ba6bc95484008f6362f93160ef3e56483015591517f290decd9548b62a8d60345a988386fc84ba6bc95484008f6362f93160ef3e56582015591517f290decd9548b62a8d60345a988386fc84ba6bc95484008f6362f93160ef3e566830155517f290decd9548b62a8d60345a988386fc84ba6bc95484008f6362f93160ef3e567909101558061088181612868565b9150506105b9565b506001600160a01b0387166108c85760405162461bcd60e51b8152602060048201526005602482015264535244303760d81b60448201526064016104bd565b600380546001600160a01b0319166001600160a01b03891617905560048054600280546fffffffffffffffffffffffffffffffff19166001600160401b03888116918217600160401b91891691909102176001600160c01b0316600160c01b919091021790556006839055600160b01b6001600160a81b03199091163360ff60a01b191617600160a01b851515021761ffff60a81b19161790556040517f2c1fa4f0e3f1c67636ee0b3665bf3a04407a2c1332d4e3e99f941ee2b0b9daf4906109a2908b908b908b908b908b908b908b908b908b906125ee565b60405180910390a1505050505050505050565b600454600160b01b900460ff1680156109d85750600454600160a81b900460ff16155b80156109ef57506002546001600160401b03164210155b610a0b5760405162461bcd60e51b81526004016104bd9061274d565b60008111610a435760405162461bcd60e51b8152602060048201526005602482015264535244313160d81b60448201526064016104bd565b600454600160a01b900460ff1615610a9e57600254600160401b90046001600160401b03164211610a9e5760405162461bcd60e51b815260206004820152600560248201526429a922189960d91b60448201526064016104bd565b610aa6610c66565b3360009081526001602052604090208054821115610aee5760405162461bcd60e51b8152602060048201526005602482015264535244313360d81b60448201526064016104bd565b81816000016000828254610b0291906127e2565b925050819055508160056000828254610b1b91906127e2565b9091555050600354610b37906001600160a01b03163384611fc1565b60405182815233907f7084f5476618d8e60b11ef0d7d3f06914655adb8793e28ff7f018d4c76d505d5906020015b60405180910390a25050565b6000805b600054811015610be7576000808281548110610ba157634e487b7160e01b600052603260045260246000fd5b6000918252602090912060059091020180549091506001600160a01b0385811691161415610bd457600301549392505050565b5080610bdf8161284d565b915050610b75565b50600092915050565b6000805b600054811015610be7576000808281548110610c2057634e487b7160e01b600052603260045260246000fd5b6000918252602090912060059091020180549091506001600160a01b0385811691161415610c5357600101549392505050565b5080610c5e8161284d565b915050610bf4565b600454600160b01b900460ff168015610c895750600454600160a81b900460ff16155b8015610ca057506002546001600160401b03164210155b610cbc5760405162461bcd60e51b81526004016104bd9061274d565b600254600090610cdd904290600160401b90046001600160401b0316612029565b600254909150600090610d0090600160c01b90046001600160401b0316836127f9565b3360009081526001602052604081206001600160401b039290921692505b600054811015610ec4576000808281548110610d4a57634e487b7160e01b600052603260045260246000fd5b9060005260206000209060050201905060055460001415610db1576002546001820154600160801b9091046001600160401b031690610d8990866127c3565b610d9391906127a3565b816003016000828254610da6919061278b565b90915550610e139050565b600254600554610dd191600160801b90046001600160401b0316906127c3565b6001820154600160701b90610de690876127c3565b610df091906127c3565b610dfa91906127a3565b816002016000828254610e0d919061278b565b90915550505b80546001600160a01b031660009081526001840160205260408120546002830154600160701b91610e43916127e2565b8554610e4f91906127c3565b610e5991906127a3565b82546001600160a01b031660009081526001808701602052604082200180549293508392909190610e8b90849061278b565b909155505050600281015490546001600160a01b0316600090815260018401602052604090205580610ebc8161284d565b915050610d1e565b5050600280546001600160401b03909316600160c01b026001600160c01b039093169290921790915550565b6004546001600160a01b03163314610f1a5760405162461bcd60e51b81526004016104bd9061276c565b600480546001600160a01b031916905560405160009081907f8be0079c531659141344cd1fd0a4f28419497f9722a3daafe3b4186f6b6457e0908290a3565b600454600160b01b900460ff168015610f7c5750600454600160a81b900460ff16155b8015610f9357506002546001600160401b03164210155b610faf5760405162461bcd60e51b81526004016104bd9061274d565b610fb7610c66565b33600090815260016020526040812081549091906001600160401b03811115610ff057634e487b7160e01b600052604160045260246000fd5b604051908082528060200260200182016040528015611019578160200160208202803683370190505b50905060005b6000548110156110db57600080828154811061104b57634e487b7160e01b600052603260045260246000fd5b60009182526020808320600590920290910180546001600160a01b03168352600180880190925260408320600281015492015490935061108b91906127e2565b905061109982868389612041565b808484815181106110ba57634e487b7160e01b600052603260045260246000fd5b602002602001018181525050505080806110d39061284d565b91505061101f565b50336001600160a01b03167f28ee566bdecaf975c0979f4d09fecf91a9009ffe78523aef053a678134137b8b8260405161111591906126e2565b60405180910390a2505050565b600454600160b01b900460ff1680156111455750600454600160a81b900460ff16155b801561115c57506002546001600160401b03164210155b6111785760405162461bcd60e51b81526004016104bd9061274d565b6000548251146111b25760405162461bcd60e51b815260206004820152600560248201526414d4910c4d60da1b60448201526064016104bd565b6111ba610c66565b33600090815260016020526040812081549091906001600160401b038111156111f357634e487b7160e01b600052604160045260246000fd5b60405190808252806020026020018201604052801561121c578160200160208202803683370190505b50905060005b60005481101561134357600080828154811061124e57634e487b7160e01b600052603260045260246000fd5b60009182526020808320600590920290910180546001600160a01b03168352600180880190925260408320600281015492015490935061128e91906127e2565b905060008784815181106112b257634e487b7160e01b600052603260045260246000fd5b60200260200101519050808210156112f45760405162461bcd60e51b8152602060048201526005602482015264535244313560d81b60448201526064016104bd565b6113008387838a612041565b8085858151811061132157634e487b7160e01b600052603260045260246000fd5b602002602001018181525050505050808061133b9061284d565b915050611222565b50336001600160a01b03167f28ee566bdecaf975c0979f4d09fecf91a9009ffe78523aef053a678134137b8b8260405161137d91906126e2565b60405180910390a250505050565b600454600160b01b900460ff1680156113ae5750600454600160a81b900460ff16155b80156113c557506002546001600160401b03164210155b80156113e35750600254600160401b90046001600160401b03164211155b6114175760405162461bcd60e51b8152602060048201526005602482015264535244323160d81b60448201526064016104bd565b6000811161144f5760405162461bcd60e51b8152602060048201526005602482015264535244303960d81b60448201526064016104bd565b6006541561149e5760065481600554611468919061278b565b111561149e5760405162461bcd60e51b8152602060048201526005602482015264053524431360dc1b60448201526064016104bd565b6114a6610c66565b3360009081526001602052604081208054909183918391906114c990849061278b565b9250508190555081600560008282546114e2919061278b565b90915550506003546114ff906001600160a01b03163330856120ab565b60405182815233907f9e71bc8eea02a63969f509818f2dafb9254532904319f9dbda79b67bd34a5f3d90602001610b65565b600454600160b01b900460ff1680156115545750600454600160a81b900460ff16155b801561156b57506002546001600160401b03164210155b6115875760405162461bcd60e51b81526004016104bd9061274d565b61158f610c66565b61159881610f59565b336000908152600160205260409020546115b1906109b5565b50565b6001600160a01b03811660009081526001602052604081208154606092906001600160401b038111156115f757634e487b7160e01b600052604160045260246000fd5b604051908082528060200260200182016040528015611620578160200160208202803683370190505b50905060005b6000548110156116c557600080828154811061165257634e487b7160e01b600052603260045260246000fd5b60009182526020808320600590920290910180546001600160a01b03168352600187019091526040909120600201548451919250908490849081106116a757634e487b7160e01b600052603260045260246000fd5b602090810291909101015250806116bd8161284d565b915050611626565b509392505050565b60008054606091906001600160401b038111156116fa57634e487b7160e01b600052604160045260246000fd5b604051908082528060200260200182016040528015611723578160200160208202803683370190505b50905060005b6000548110156117bd576000818154811061175457634e487b7160e01b600052603260045260246000fd5b600091825260209091206005909102015482516001600160a01b039091169083908390811061179357634e487b7160e01b600052603260045260246000fd5b6001600160a01b0390921660209283029190910190910152806117b58161284d565b915050611729565b50919050565b60008054606091906001600160401b038111156117f057634e487b7160e01b600052604160045260246000fd5b604051908082528060200260200182016040528015611819578160200160208202803683370190505b50600454909150600160b01b900460ff16158061184057506002546001600160401b031642105b156118985760005b60005481101561189157600082828151811061187457634e487b7160e01b600052603260045260246000fd5b6020908102919091010152806118898161284d565b915050611848565b5092915050565b6001600160a01b03831660009081526001602052604081206002549091906118d1904290600160401b90046001600160401b0316612029565b6002549091506000906118f490600160c01b90046001600160401b0316836127f9565b6001600160401b0316905060005b600054811015611a6b57600080828154811061192e57634e487b7160e01b600052603260045260246000fd5b90600052602060002090600502019050600081600201549050600060055411156119a85760025460055461197291600160801b90046001600160401b0316906127c3565b6001830154600160701b9061198790876127c3565b61199191906127c3565b61199b91906127a3565b6119a5908261278b565b90505b81546001600160a01b031660009081526001870160205260408120546002840154600160701b916119d8916127e2565b88546119e491906127c3565b6119ee91906127a3565b83546001600160a01b031660009081526001808a0160205260409091206002810154910154919250611a1f916127e2565b611a29908261278b565b888581518110611a4957634e487b7160e01b600052603260045260246000fd5b6020026020010181815250505050508080611a639061284d565b915050611902565b509295945050505050565b600454600160b01b900460ff168015611a995750600454600160a81b900460ff16155b8015611ab057506002546001600160401b03164210155b611acc5760405162461bcd60e51b81526004016104bd9061274d565b611ad4610c66565b600080546001600160401b03811115611afd57634e487b7160e01b600052604160045260246000fd5b604051908082528060200260200182016040528015611b26578160200160208202803683370190505b50905060005b600054811015611c85576000808281548110611b5857634e487b7160e01b600052603260045260246000fd5b906000526020600020906005020190508060030154816004016000828254611b80919061278b565b909155505060006003820181905560048201546001830154611ba291906127e2565b82546040516370a0823160e01b81523060048201526001600160a01b03909116906370a082319060240160206040518083038186803b158015611be457600080fd5b505afa158015611bf8573d6000803e3d6000fd5b505050506040513d601f19601f82011682018060405250810190611c1c9190612586565b611c2691906127e2565b905080848481518110611c4957634e487b7160e01b600052603260045260246000fd5b60209081029190910101526004548254611c70916001600160a01b03918216911683611fc1565b50508080611c7d9061284d565b915050611b2c565b507ff904fafa600a7e4e8039f3a5497d1b6016772e3060f87d3e40f911b315f00bd181604051611cb591906126e2565b60405180910390a150565b6004546001600160a01b03163314611cea5760405162461bcd60e51b81526004016104bd9061276c565b600454600160b01b900460ff168015611d0d5750600454600160a81b900460ff16155b611d415760405162461bcd60e51b8152602060048201526005602482015264535244313960d81b60448201526064016104bd565b6002546001600160401b03164210611d835760405162461bcd60e51b81526020600482015260056024820152640a6a48860760db1b60448201526064016104bd565b60005b600054811015611e73576000808281548110611db257634e487b7160e01b600052603260045260246000fd5b6000918252602090912060048054600590930290910180546040516370a0823160e01b81523093810193909352909350611e60926001600160a01b03908116929116906370a082319060240160206040518083038186803b158015611e1657600080fd5b505afa158015611e2a573d6000803e3d6000fd5b505050506040513d601f19601f82011682018060405250810190611e4e9190612586565b83546001600160a01b03169190611fc1565b5080611e6b8161284d565b915050611d86565b506004805460ff60a81b1916600160a81b1790556040517f1afb0ae590df277bcb3a37f88612725bf1f7df4755792b1548a7efe77985ff7790600090a1565b6004546001600160a01b03163314611edc5760405162461bcd60e51b81526004016104bd9061276c565b6001600160a01b038116611f1a5760405162461bcd60e51b815260206004820152600560248201526429a922189b60d91b60448201526064016104bd565b6004546040516001600160a01b038084169216907f8be0079c531659141344cd1fd0a4f28419497f9722a3daafe3b4186f6b6457e090600090a3600480546001600160a01b0319166001600160a01b0392909216919091179055565b60008181548110611f8657600080fd5b6000918252602090912060059091020180546001820154600283015460038401546004909401546001600160a01b0390931694509092909185565b6040516001600160a01b03831660248201526044810182905261202490849063a9059cbb60e01b906064015b60408051601f198184030181529190526020810180516001600160e01b03166001600160e01b0319909316929092179091526120e3565b505050565b6000818310612038578161203a565b825b9392505050565b83546001600160a01b031660009081526001840160205260408120600201805484929061206f90849061278b565b925050819055508184600401600082825461208a919061278b565b909155505083546120a5906001600160a01b03168284611fc1565b50505050565b6040516001600160a01b03808516602483015283166044820152606481018290526120a59085906323b872dd60e01b90608401611fed565b6000612138826040518060400160405280602081526020017f5361666545524332303a206c6f772d6c6576656c2063616c6c206661696c6564815250856001600160a01b03166121b59092919063ffffffff16565b80519091501561202457808060200190518101906121569190612552565b6120245760405162461bcd60e51b815260206004820152602a60248201527f5361666545524332303a204552433230206f7065726174696f6e20646964206e6044820152691bdd081cdd58d8d9595960b21b60648201526084016104bd565b60606121c484846000856121cc565b949350505050565b60608247101561222d5760405162461bcd60e51b815260206004820152602660248201527f416464726573733a20696e73756666696369656e742062616c616e636520666f6044820152651c8818d85b1b60d21b60648201526084016104bd565b843b61227b5760405162461bcd60e51b815260206004820152601d60248201527f416464726573733a2063616c6c20746f206e6f6e2d636f6e747261637400000060448201526064016104bd565b600080866001600160a01b0316858760405161229791906125d2565b60006040518083038185875af1925050503d80600081146122d4576040519150601f19603f3d011682016040523d82523d6000602084013e6122d9565b606091505b50915091506122e98282866122f4565b979650505050505050565b6060831561230357508161203a565b8251156123135782518084602001fd5b8160405162461bcd60e51b81526004016104bd919061271a565b80356001600160a01b038116811461234457600080fd5b919050565b60008083601f84011261235a578081fd5b5081356001600160401b03811115612370578182fd5b6020830191508360208260051b850101111561238b57600080fd5b9250929050565b80356001600160401b038116811461234457600080fd5b6000602082840312156123ba578081fd5b61203a8261232d565b600080600080600080600080600060e08a8c0312156123e0578485fd5b89356001600160401b03808211156123f6578687fd5b6124028d838e01612349565b909b50995089915061241660208d0161232d565b985060408c013591508082111561242b578687fd5b506124388c828d01612349565b909750955061244b905060608b01612392565b935061245960808b01612392565b925060a08a0135612469816128b8565b8092505060c08a013590509295985092959850929598565b60008060408385031215612493578182fd5b82356001600160401b03808211156124a9578384fd5b818501915085601f8301126124bc578384fd5b81356020828211156124d0576124d06128a2565b8160051b604051601f19603f830116810181811086821117156124f5576124f56128a2565b604052838152828101945085830182870184018b1015612513578889fd5b8896505b84871015612535578035865260019690960195948301948301612517565b509650612545905087820161232d565b9450505050509250929050565b600060208284031215612563578081fd5b815161203a816128b8565b60006020828403121561257f578081fd5b5035919050565b600060208284031215612597578081fd5b5051919050565b81835260006001600160fb1b038311156125b6578081fd5b8260051b80836020870137939093016020019283525090919050565b600082516125e4818460208701612821565b9190910192915050565b60e0808252810189905260008a6101008301825b8c811015612630576001600160a01b0361261b8461232d565b16825260209283019290910190600101612602565b506001600160a01b038b1660208501528381036040850152612653818a8c61259e565b9250505061266c60608301876001600160401b03169052565b6001600160401b0394909416608082015291151560a083015260c0909101529695505050505050565b6020808252825182820181905260009190848201906040850190845b818110156126d65783516001600160a01b0316835292840192918401916001016126b1565b50909695505050505050565b6020808252825182820181905260009190848201906040850190845b818110156126d6578351835292840192918401916001016126fe565b6020815260008251806020840152612739816040850160208701612821565b601f01601f19169190910160400192915050565b602080825260059082015264053524432360dc1b604082015260600190565b602080825260059082015264535244313760d81b604082015260600190565b6000821982111561279e5761279e61288c565b500190565b6000826127be57634e487b7160e01b81526012600452602481fd5b500490565b60008160001904831182151516156127dd576127dd61288c565b500290565b6000828210156127f4576127f461288c565b500390565b60006001600160401b03838116908316818110156128195761281961288c565b039392505050565b60005b8381101561283c578181015183820152602001612824565b838111156120a55750506000910152565b60006000198214156128615761286161288c565b5060010190565b600063ffffffff808316818114156128825761288261288c565b6001019392505050565b634e487b7160e01b600052601160045260246000fd5b634e487b7160e01b600052604160045260246000fd5b80151581146115b157600080fdfea26469706673582212206c0c9bb0aa0175873ade72d64ef6cbd882a40be90a7d97a866e586049f1a753764736f6c63430008040033",
  "immutableReferences": {},
  "source": "// SPDX-License-Identifier: GPL-3.0\n\npragma solidity ^0.8.4;\n\nimport \"@openzeppelin/contracts/utils/math/Math.sol\";\nimport \"@openzeppelin/contracts/token/ERC20/IERC20.sol\";\nimport \"@openzeppelin/contracts/token/ERC20/utils/SafeERC20.sol\";\n\n/**\n * Errors codes:\n *\n * SRD01: invalid starting timestamp\n * SRD02: invalid time duration\n * SRD03: inconsistent reward token/amount\n * SRD04: 0 address as reward token\n * SRD05: no reward\n * SRD06: no funding\n * SRD07: 0 address as stakable token\n * SRD08: distribution already started\n * SRD09: tried to stake nothing\n * SRD10: staking cap hit\n * SRD11: tried to withdraw nothing\n * SRD12: funds locked until the distribution ends\n * SRD13: withdrawn amount greater than current stake\n * SRD14: inconsistent claimed amounts\n * SRD15: insufficient claimable amount\n * SRD16: 0 address owner\n * SRD17: caller not owner\n * SRD18: already initialized\n * SRD19: invalid state for cancel to be called\n * SRD20: not started\n * SRD21: already ended\n */\ncontract ERC20StakingRewardsDistribution {\n    using SafeERC20 for IERC20;\n\n    uint224 constant MULTIPLIER = 2**112;\n\n    struct Reward {\n        address token;\n        uint256 amount;\n        uint256 perStakedToken;\n        uint256 recoverable;\n        uint256 claimed;\n    }\n\n    struct StakerRewardInfo {\n        uint256 consolidatedPerStakedToken;\n        uint256 earned;\n        uint256 claimed;\n    }\n\n    struct Staker {\n        uint256 stake;\n        mapping(address => StakerRewardInfo) rewardInfo;\n    }\n\n    Reward[] public rewards;\n    mapping(address => Staker) stakers;\n    uint64 public startingTimestamp;\n    uint64 public endingTimestamp;\n    uint64 public secondsDuration;\n    uint64 public lastConsolidationTimestamp;\n    IERC20 public stakableToken;\n    address public owner;\n    bool public locked;\n    bool public canceled;\n    bool public initialized;\n    uint256 public totalStakedTokensAmount;\n    uint256 public stakingCap;\n\n    event OwnershipTransferred(\n        address indexed previousOwner,\n        address indexed newOwner\n    );\n    event Initialized(\n        address[] rewardsTokenAddresses,\n        address stakableTokenAddress,\n        uint256[] rewardsAmounts,\n        uint64 startingTimestamp,\n        uint64 endingTimestamp,\n        bool locked,\n        uint256 stakingCap\n    );\n    event Canceled();\n    event Staked(address indexed staker, uint256 amount);\n    event Withdrawn(address indexed withdrawer, uint256 amount);\n    event Claimed(address indexed claimer, uint256[] amounts);\n    event Recovered(uint256[] amounts);\n\n    function initialize(\n        address[] calldata _rewardTokenAddresses,\n        address _stakableTokenAddress,\n        uint256[] calldata _rewardAmounts,\n        uint64 _startingTimestamp,\n        uint64 _endingTimestamp,\n        bool _locked,\n        uint256 _stakingCap\n    ) external onlyUninitialized {\n        require(_startingTimestamp > block.timestamp, \"SRD01\");\n        require(_endingTimestamp > _startingTimestamp, \"SRD02\");\n        require(_rewardTokenAddresses.length == _rewardAmounts.length, \"SRD03\");\n\n        secondsDuration = _endingTimestamp - _startingTimestamp;\n        // Initializing reward tokens and amounts\n        for (uint32 _i = 0; _i < _rewardTokenAddresses.length; _i++) {\n            address _rewardTokenAddress = _rewardTokenAddresses[_i];\n            uint256 _rewardAmount = _rewardAmounts[_i];\n            require(_rewardTokenAddress != address(0), \"SRD04\");\n            require(_rewardAmount > 0, \"SRD05\");\n            IERC20 _rewardToken = IERC20(_rewardTokenAddress);\n            require(\n                _rewardToken.balanceOf(address(this)) >= _rewardAmount,\n                \"SRD06\"\n            );\n            rewards.push(\n                Reward({\n                    token: _rewardTokenAddress,\n                    amount: _rewardAmount,\n                    perStakedToken: 0,\n                    recoverable: 0,\n                    claimed: 0\n                })\n            );\n        }\n\n        require(_stakableTokenAddress != address(0), \"SRD07\");\n        stakableToken = IERC20(_stakableTokenAddress);\n\n        owner = msg.sender;\n        startingTimestamp = _startingTimestamp;\n        endingTimestamp = _endingTimestamp;\n        lastConsolidationTimestamp = _startingTimestamp;\n        locked = _locked;\n        stakingCap = _stakingCap;\n        initialized = true;\n        canceled = false;\n\n        emit Initialized(\n            _rewardTokenAddresses,\n            _stakableTokenAddress,\n            _rewardAmounts,\n            _startingTimestamp,\n            _endingTimestamp,\n            _locked,\n            _stakingCap\n        );\n    }\n\n    function cancel() external onlyOwner {\n        require(initialized && !canceled, \"SRD19\");\n        require(block.timestamp < startingTimestamp, \"SRD08\");\n        for (uint256 _i; _i < rewards.length; _i++) {\n            Reward storage _reward = rewards[_i];\n            IERC20(_reward.token).safeTransfer(\n                owner,\n                IERC20(_reward.token).balanceOf(address(this))\n            );\n        }\n        canceled = true;\n        emit Canceled();\n    }\n\n    function recoverUnassignedRewards() external onlyStarted {\n        consolidateReward();\n        uint256[] memory _recoveredUnassignedRewards =\n            new uint256[](rewards.length);\n        for (uint256 _i; _i < rewards.length; _i++) {\n            Reward storage _reward = rewards[_i];\n            // recoverable rewards are going to be recovered in this tx (if it does not revert),\n            // so we add them to the claimed rewards right now\n            _reward.claimed += _reward.recoverable;\n            delete _reward.recoverable;\n            uint256 _recoverableRewards =\n                IERC20(_reward.token).balanceOf(address(this)) -\n                    (_reward.amount - _reward.claimed);\n            _recoveredUnassignedRewards[_i] = _recoverableRewards;\n            IERC20(_reward.token).safeTransfer(owner, _recoverableRewards);\n        }\n        emit Recovered(_recoveredUnassignedRewards);\n    }\n\n    function stake(uint256 _amount) external onlyRunning {\n        require(_amount > 0, \"SRD09\");\n        if (stakingCap > 0) {\n            require(totalStakedTokensAmount + _amount <= stakingCap, \"SRD10\");\n        }\n        consolidateReward();\n        Staker storage _staker = stakers[msg.sender];\n        _staker.stake += _amount;\n        totalStakedTokensAmount += _amount;\n        stakableToken.safeTransferFrom(msg.sender, address(this), _amount);\n        emit Staked(msg.sender, _amount);\n    }\n\n    function withdraw(uint256 _amount) public onlyStarted {\n        require(_amount > 0, \"SRD11\");\n        if (locked) {\n            require(block.timestamp > endingTimestamp, \"SRD12\");\n        }\n        consolidateReward();\n        Staker storage _staker = stakers[msg.sender];\n        require(_staker.stake >= _amount, \"SRD13\");\n        _staker.stake -= _amount;\n        totalStakedTokensAmount -= _amount;\n        stakableToken.safeTransfer(msg.sender, _amount);\n        emit Withdrawn(msg.sender, _amount);\n    }\n\n    function claim(uint256[] memory _amounts, address _recipient)\n        external\n        onlyStarted\n    {\n        require(_amounts.length == rewards.length, \"SRD14\");\n        consolidateReward();\n        Staker storage _staker = stakers[msg.sender];\n        uint256[] memory _claimedRewards = new uint256[](rewards.length);\n        for (uint256 _i; _i < rewards.length; _i++) {\n            Reward storage _reward = rewards[_i];\n            uint256 _claimableReward =\n                _staker.rewardInfo[_reward.token].earned -\n                    _staker.rewardInfo[_reward.token].claimed;\n            uint256 _wantedAmount = _amounts[_i];\n            require(_claimableReward >= _wantedAmount, \"SRD15\");\n            consolidateAndTransferClaim(\n                _reward,\n                _staker,\n                _wantedAmount,\n                _recipient\n            );\n            _claimedRewards[_i] = _wantedAmount;\n        }\n        emit Claimed(msg.sender, _claimedRewards);\n    }\n\n    function claimAll(address _recipient) public onlyStarted {\n        consolidateReward();\n        Staker storage _staker = stakers[msg.sender];\n        uint256[] memory _claimedRewards = new uint256[](rewards.length);\n        for (uint256 _i; _i < rewards.length; _i++) {\n            Reward storage _reward = rewards[_i];\n            uint256 _claimableReward =\n                _staker.rewardInfo[_reward.token].earned -\n                    _staker.rewardInfo[_reward.token].claimed;\n            consolidateAndTransferClaim(\n                _reward,\n                _staker,\n                _claimableReward,\n                _recipient\n            );\n            _claimedRewards[_i] = _claimableReward;\n        }\n        emit Claimed(msg.sender, _claimedRewards);\n    }\n\n    function exit(address _recipient) external onlyStarted {\n        consolidateReward();\n        claimAll(_recipient);\n        withdraw(stakers[msg.sender].stake);\n    }\n\n    function consolidateAndTransferClaim(\n        Reward storage _reward,\n        Staker storage _staker,\n        uint256 _amount,\n        address _recipient\n    ) private {\n        _staker.rewardInfo[_reward.token].claimed += _amount;\n        _reward.claimed += _amount;\n        IERC20(_reward.token).safeTransfer(_recipient, _amount);\n    }\n\n    function consolidateReward() public onlyStarted {\n        uint64 _consolidationTimestamp =\n            uint64(Math.min(block.timestamp, endingTimestamp));\n        uint256 _lastPeriodDuration =\n            uint256(_consolidationTimestamp - lastConsolidationTimestamp);\n        Staker storage _staker = stakers[msg.sender];\n        for (uint256 _i; _i < rewards.length; _i++) {\n            Reward storage _reward = rewards[_i];\n            if (totalStakedTokensAmount == 0) {\n                _reward.recoverable += ((_lastPeriodDuration * _reward.amount) /\n                    secondsDuration);\n                // no need to update the reward per staked token since in this period\n                // there have been no staked tokens, so no reward has been given out to stakers\n            } else {\n                _reward.perStakedToken += ((_lastPeriodDuration *\n                    _reward.amount *\n                    MULTIPLIER) / (totalStakedTokensAmount * secondsDuration));\n            }\n            uint256 _rewardSinceLastConsolidation =\n                (_staker.stake *\n                    (_reward.perStakedToken -\n                        _staker.rewardInfo[_reward.token]\n                            .consolidatedPerStakedToken)) / MULTIPLIER;\n            _staker.rewardInfo[_reward.token]\n                .earned += _rewardSinceLastConsolidation;\n            _staker.rewardInfo[_reward.token]\n                .consolidatedPerStakedToken = _reward.perStakedToken;\n        }\n        lastConsolidationTimestamp = _consolidationTimestamp;\n    }\n\n    function claimableRewards(address _account)\n        public\n        view\n        returns (uint256[] memory)\n    {\n        uint256[] memory _outstandingRewards = new uint256[](rewards.length);\n        if (!initialized || block.timestamp < startingTimestamp) {\n            for (uint256 _i; _i < rewards.length; _i++) {\n                _outstandingRewards[_i] = 0;\n            }\n            return _outstandingRewards;\n        }\n        Staker storage _staker = stakers[_account];\n        uint64 _consolidationTimestamp =\n            uint64(Math.min(block.timestamp, endingTimestamp));\n        uint256 _lastPeriodDuration =\n            uint256(_consolidationTimestamp - lastConsolidationTimestamp);\n        for (uint256 _i; _i < rewards.length; _i++) {\n            Reward storage _reward = rewards[_i];\n            uint256 _localRewardPerStakedToken = _reward.perStakedToken;\n            // only update reward per staked token if the last period had staked tokens\n            if (totalStakedTokensAmount > 0) {\n                _localRewardPerStakedToken += ((_lastPeriodDuration *\n                    _reward.amount *\n                    MULTIPLIER) / (totalStakedTokensAmount * secondsDuration));\n            }\n            // calculate outstanding reward since the last time the staker actively consolidated\n            uint256 _rewardSinceLastConsolidation =\n                (_staker.stake *\n                    (_reward.perStakedToken -\n                        _staker.rewardInfo[_reward.token]\n                            .consolidatedPerStakedToken)) / MULTIPLIER;\n            _outstandingRewards[_i] =\n                _rewardSinceLastConsolidation +\n                (_staker.rewardInfo[_reward.token].earned -\n                    _staker.rewardInfo[_reward.token].claimed);\n        }\n        return _outstandingRewards;\n    }\n\n    function getRewardTokens() external view returns (address[] memory) {\n        address[] memory _rewardTokens = new address[](rewards.length);\n        for (uint256 _i = 0; _i < rewards.length; _i++) {\n            _rewardTokens[_i] = rewards[_i].token;\n        }\n        return _rewardTokens;\n    }\n\n    function rewardAmount(address _rewardToken)\n        external\n        view\n        returns (uint256)\n    {\n        for (uint256 _i = 0; _i < rewards.length; _i++) {\n            Reward storage _reward = rewards[_i];\n            if (_rewardToken == _reward.token) return _reward.amount;\n        }\n        return 0;\n    }\n\n    function stakedTokensOf(address _staker) external view returns (uint256) {\n        return stakers[_staker].stake;\n    }\n\n    function recoverableUnassignedReward(address _rewardToken)\n        external\n        view\n        returns (uint256)\n    {\n        for (uint256 _i = 0; _i < rewards.length; _i++) {\n            Reward storage _reward = rewards[_i];\n            if (_rewardToken == _reward.token) return _reward.recoverable;\n        }\n        return 0;\n    }\n\n    function getClaimedRewards(address _claimer)\n        external\n        view\n        returns (uint256[] memory)\n    {\n        Staker storage _staker = stakers[_claimer];\n        uint256[] memory _claimedRewards = new uint256[](rewards.length);\n        for (uint256 _i = 0; _i < rewards.length; _i++) {\n            Reward storage _reward = rewards[_i];\n            _claimedRewards[_i] = _staker.rewardInfo[_reward.token].claimed;\n        }\n        return _claimedRewards;\n    }\n\n    function renounceOwnership() public onlyOwner {\n        owner = address(0);\n        emit OwnershipTransferred(owner, address(0));\n    }\n\n    function transferOwnership(address _newOwner) public onlyOwner {\n        require(_newOwner != address(0), \"SRD16\");\n        emit OwnershipTransferred(owner, _newOwner);\n        owner = _newOwner;\n    }\n\n    modifier onlyOwner() {\n        require(owner == msg.sender, \"SRD17\");\n        _;\n    }\n\n    modifier onlyUninitialized() {\n        require(!initialized, \"SRD18\");\n        _;\n    }\n\n    modifier onlyStarted() {\n        require(\n            initialized && !canceled && block.timestamp >= startingTimestamp,\n            \"SRD20\"\n        );\n        _;\n    }\n\n    modifier onlyRunning() {\n        require(\n            initialized &&\n                !canceled &&\n                block.timestamp >= startingTimestamp &&\n                block.timestamp <= endingTimestamp,\n            \"SRD21\"\n        );\n        _;\n    }\n}\n",
  "sourcePath": "/home/luzzif/Projects/swapr-lp-staker/contracts/ERC20StakingRewardsDistribution.sol",
  "compiler": {
    "name": "solc",
    "version": "0.8.4+commit.c7e474f2.Emscripten.clang"
  },
  "schemaVersion": "3.3.3",
  "updatedAt": "2021-05-07T10:05:10.864Z",
  "devdoc": {
    "kind": "dev",
    "methods": {},
    "version": 1
  },
  "userdoc": {
    "kind": "user",
    "methods": {},
    "notice": "Errors codes: SRD01: invalid starting timestamp SRD02: invalid time duration SRD03: inconsistent reward token/amount SRD04: 0 address as reward token SRD05: no reward SRD06: no funding SRD07: 0 address as stakable token SRD08: distribution already started SRD09: tried to stake nothing SRD10: staking cap hit SRD11: tried to withdraw nothing SRD12: funds locked until the distribution ends SRD13: withdrawn amount greater than current stake SRD14: inconsistent claimed amounts SRD15: insufficient claimable amount SRD16: 0 address owner SRD17: caller not owner SRD18: already initialized SRD19: invalid state for cancel to be called SRD20: not started SRD21: already ended",
    "version": 1
  }
}