{
  "contractName": "ERC20StakingRewardsDistribution",
  "abi": [
    {
      "anonymous": false,
      "inputs": [],
      "name": "Canceled",
      "type": "event"
    },
    {
      "anonymous": false,
      "inputs": [
        {
          "indexed": true,
          "internalType": "address",
          "name": "claimer",
          "type": "address"
        },
        {
          "indexed": false,
          "internalType": "uint256[]",
          "name": "amounts",
          "type": "uint256[]"
        }
      ],
      "name": "Claimed",
      "type": "event"
    },
    {
      "anonymous": false,
      "inputs": [
        {
          "indexed": false,
          "internalType": "address[]",
          "name": "rewardsTokenAddresses",
          "type": "address[]"
        },
        {
          "indexed": false,
          "internalType": "address",
          "name": "stakableTokenAddress",
          "type": "address"
        },
        {
          "indexed": false,
          "internalType": "uint256[]",
          "name": "rewardsAmounts",
          "type": "uint256[]"
        },
        {
          "indexed": false,
          "internalType": "uint64",
          "name": "startingTimestamp",
          "type": "uint64"
        },
        {
          "indexed": false,
          "internalType": "uint64",
          "name": "endingTimestamp",
          "type": "uint64"
        },
        {
          "indexed": false,
          "internalType": "bool",
          "name": "locked",
          "type": "bool"
        }
      ],
      "name": "Initialized",
      "type": "event"
    },
    {
      "anonymous": false,
      "inputs": [
        {
          "indexed": true,
          "internalType": "address",
          "name": "previousOwner",
          "type": "address"
        },
        {
          "indexed": true,
          "internalType": "address",
          "name": "newOwner",
          "type": "address"
        }
      ],
      "name": "OwnershipTransferred",
      "type": "event"
    },
    {
      "anonymous": false,
      "inputs": [
        {
          "indexed": false,
          "internalType": "uint256[]",
          "name": "amounts",
          "type": "uint256[]"
        }
      ],
      "name": "Recovered",
      "type": "event"
    },
    {
      "anonymous": false,
      "inputs": [
        {
          "indexed": true,
          "internalType": "address",
          "name": "staker",
          "type": "address"
        },
        {
          "indexed": false,
          "internalType": "uint256",
          "name": "amount",
          "type": "uint256"
        }
      ],
      "name": "Staked",
      "type": "event"
    },
    {
      "anonymous": false,
      "inputs": [
        {
          "indexed": true,
          "internalType": "address",
          "name": "withdrawer",
          "type": "address"
        },
        {
          "indexed": false,
          "internalType": "uint256",
          "name": "amount",
          "type": "uint256"
        }
      ],
      "name": "Withdrawn",
      "type": "event"
    },
    {
      "inputs": [
        {
          "internalType": "address",
          "name": "",
          "type": "address"
        },
        {
          "internalType": "address",
          "name": "",
          "type": "address"
        }
      ],
      "name": "claimedReward",
      "outputs": [
        {
          "internalType": "uint256",
          "name": "",
          "type": "uint256"
        }
      ],
      "stateMutability": "view",
      "type": "function"
    },
    {
      "inputs": [
        {
          "internalType": "address",
          "name": "",
          "type": "address"
        },
        {
          "internalType": "address",
          "name": "",
          "type": "address"
        }
      ],
      "name": "consolidatedRewardsPerStakedToken",
      "outputs": [
        {
          "internalType": "uint256",
          "name": "",
          "type": "uint256"
        }
      ],
      "stateMutability": "view",
      "type": "function"
    },
    {
      "inputs": [
        {
          "internalType": "address",
          "name": "",
          "type": "address"
        },
        {
          "internalType": "address",
          "name": "",
          "type": "address"
        }
      ],
      "name": "earnedRewards",
      "outputs": [
        {
          "internalType": "uint256",
          "name": "",
          "type": "uint256"
        }
      ],
      "stateMutability": "view",
      "type": "function"
    },
    {
      "inputs": [],
      "name": "endingTimestamp",
      "outputs": [
        {
          "internalType": "uint64",
          "name": "",
          "type": "uint64"
        }
      ],
      "stateMutability": "view",
      "type": "function"
    },
    {
      "inputs": [],
      "name": "initialized",
      "outputs": [
        {
          "internalType": "bool",
          "name": "",
          "type": "bool"
        }
      ],
      "stateMutability": "view",
      "type": "function"
    },
    {
      "inputs": [],
      "name": "lastConsolidationTimestamp",
      "outputs": [
        {
          "internalType": "uint64",
          "name": "",
          "type": "uint64"
        }
      ],
      "stateMutability": "view",
      "type": "function"
    },
    {
      "inputs": [],
      "name": "locked",
      "outputs": [
        {
          "internalType": "bool",
          "name": "",
          "type": "bool"
        }
      ],
      "stateMutability": "view",
      "type": "function"
    },
    {
      "inputs": [],
      "name": "owner",
      "outputs": [
        {
          "internalType": "address",
          "name": "",
          "type": "address"
        }
      ],
      "stateMutability": "view",
      "type": "function"
    },
    {
      "inputs": [
        {
          "internalType": "address",
          "name": "",
          "type": "address"
        }
      ],
      "name": "recoverableUnassignedReward",
      "outputs": [
        {
          "internalType": "uint256",
          "name": "",
          "type": "uint256"
        }
      ],
      "stateMutability": "view",
      "type": "function"
    },
    {
      "inputs": [],
      "name": "renounceOwnership",
      "outputs": [],
      "stateMutability": "nonpayable",
      "type": "function"
    },
    {
      "inputs": [
        {
          "internalType": "address",
          "name": "",
          "type": "address"
        }
      ],
      "name": "rewardAmount",
      "outputs": [
        {
          "internalType": "uint256",
          "name": "",
          "type": "uint256"
        }
      ],
      "stateMutability": "view",
      "type": "function"
    },
    {
      "inputs": [
        {
          "internalType": "address",
          "name": "",
          "type": "address"
        }
      ],
      "name": "rewardPerSecond",
      "outputs": [
        {
          "internalType": "uint256",
          "name": "",
          "type": "uint256"
        }
      ],
      "stateMutability": "view",
      "type": "function"
    },
    {
      "inputs": [
        {
          "internalType": "address",
          "name": "",
          "type": "address"
        }
      ],
      "name": "rewardPerStakedToken",
      "outputs": [
        {
          "internalType": "uint256",
          "name": "",
          "type": "uint256"
        }
      ],
      "stateMutability": "view",
      "type": "function"
    },
    {
      "inputs": [
        {
          "internalType": "uint256",
          "name": "",
          "type": "uint256"
        }
      ],
      "name": "rewardTokens",
      "outputs": [
        {
          "internalType": "contract ERC20",
          "name": "",
          "type": "address"
        }
      ],
      "stateMutability": "view",
      "type": "function"
    },
    {
      "inputs": [],
      "name": "stakableToken",
      "outputs": [
        {
          "internalType": "contract ERC20",
          "name": "",
          "type": "address"
        }
      ],
      "stateMutability": "view",
      "type": "function"
    },
    {
      "inputs": [
        {
          "internalType": "address",
          "name": "",
          "type": "address"
        }
      ],
      "name": "stakedTokenAmount",
      "outputs": [
        {
          "internalType": "uint256",
          "name": "",
          "type": "uint256"
        }
      ],
      "stateMutability": "view",
      "type": "function"
    },
    {
      "inputs": [
        {
          "internalType": "address",
          "name": "",
          "type": "address"
        }
      ],
      "name": "stakedTokensOf",
      "outputs": [
        {
          "internalType": "uint256",
          "name": "",
          "type": "uint256"
        }
      ],
      "stateMutability": "view",
      "type": "function"
    },
    {
      "inputs": [],
      "name": "startingTimestamp",
      "outputs": [
        {
          "internalType": "uint64",
          "name": "",
          "type": "uint64"
        }
      ],
      "stateMutability": "view",
      "type": "function"
    },
    {
      "inputs": [],
      "name": "totalStakedTokensAmount",
      "outputs": [
        {
          "internalType": "uint256",
          "name": "",
          "type": "uint256"
        }
      ],
      "stateMutability": "view",
      "type": "function"
    },
    {
      "inputs": [
        {
          "internalType": "address",
          "name": "newOwner",
          "type": "address"
        }
      ],
      "name": "transferOwnership",
      "outputs": [],
      "stateMutability": "nonpayable",
      "type": "function"
    },
    {
      "inputs": [],
      "name": "getRewardTokens",
      "outputs": [
        {
          "internalType": "contract ERC20[]",
          "name": "",
          "type": "address[]"
        }
      ],
      "stateMutability": "view",
      "type": "function"
    },
    {
      "inputs": [
        {
          "internalType": "address[]",
          "name": "_rewardTokenAddresses",
          "type": "address[]"
        },
        {
          "internalType": "address",
          "name": "_stakableTokenAddress",
          "type": "address"
        },
        {
          "internalType": "uint256[]",
          "name": "_rewardAmounts",
          "type": "uint256[]"
        },
        {
          "internalType": "uint64",
          "name": "_startingTimestamp",
          "type": "uint64"
        },
        {
          "internalType": "uint64",
          "name": "_endingTimestamp",
          "type": "uint64"
        },
        {
          "internalType": "bool",
          "name": "_locked",
          "type": "bool"
        }
      ],
      "name": "initialize",
      "outputs": [],
      "stateMutability": "nonpayable",
      "type": "function"
    },
    {
      "inputs": [],
      "name": "cancel",
      "outputs": [],
      "stateMutability": "nonpayable",
      "type": "function"
    },
    {
      "inputs": [],
      "name": "recoverUnassignedRewards",
      "outputs": [],
      "stateMutability": "nonpayable",
      "type": "function"
    },
    {
      "inputs": [
        {
          "internalType": "uint256",
          "name": "_amount",
          "type": "uint256"
        }
      ],
      "name": "stake",
      "outputs": [],
      "stateMutability": "nonpayable",
      "type": "function"
    },
    {
      "inputs": [
        {
          "internalType": "uint256",
          "name": "_amount",
          "type": "uint256"
        }
      ],
      "name": "withdraw",
      "outputs": [],
      "stateMutability": "nonpayable",
      "type": "function"
    },
    {
      "inputs": [],
      "name": "claim",
      "outputs": [],
      "stateMutability": "nonpayable",
      "type": "function"
    },
    {
      "inputs": [],
      "name": "consolidateReward",
      "outputs": [],
      "stateMutability": "nonpayable",
      "type": "function"
    }
  ],
  "bytecode": "0x608060405234801561001057600080fd5b50600061001b61006a565b600080546001600160a01b0319166001600160a01b0383169081178255604051929350917f8be0079c531659141344cd1fd0a4f28419497f9722a3daafe3b4186f6b6457e0908290a35061006e565b3390565b61270d8061007d6000396000f3fe608060405234801561001057600080fd5b50600436106101c45760003560e01c806388786272116100f9578063c10de30011610097578063e644067d11610071578063e644067d14610562578063e66d85be1461056a578063ea8a1af014610590578063f2fde38b14610598576101c4565b8063c10de300146104fa578063c4f59f9b14610502578063cf3090121461055a576101c4565b8063a694fc3a116100d3578063a694fc3a146103c5578063ab08d4fc146103e2578063b41fa97914610408578063c03e729514610410576101c4565b8063887862721461038f5780638da5cb5b1461039757806398f812301461039f576101c4565b8063645a8a5611610166578063728e4a6711610140578063728e4a67146102f057806375b8dbf81461031e5780637bb7bed11461034c578063867b2f2714610369576101c4565b8063645a8a56146102ba5780636715dcb8146102e0578063715018a6146102e8576101c4565b806334380a61116101a257806334380a61146102285780633b34ee50146102685780634e71d92d1461028e5780635e5294b714610296576101c4565b8063158ef93e146101c95780631c96c3fb146101e55780632e1a7d4d14610209575b600080fd5b6101d16105be565b604080519115158252519081900360200190f35b6101ed6105ce565b604080516001600160a01b039092168252519081900360200190f35b6102266004803603602081101561021f57600080fd5b50356105dd565b005b6102566004803603604081101561023e57600080fd5b506001600160a01b0381358116916020013516610805565b60408051918252519081900360200190f35b6102566004803603602081101561027e57600080fd5b50356001600160a01b0316610822565b610226610834565b61029e610a9c565b604080516001600160401b039092168252519081900360200190f35b610256600480360360208110156102d057600080fd5b50356001600160a01b0316610ab2565b610226610ac4565b610226610e0a565b6102566004803603604081101561030657600080fd5b506001600160a01b0381358116916020013516610eac565b6102566004803603604081101561033457600080fd5b506001600160a01b0381358116916020013516610ec9565b6101ed6004803603602081101561036257600080fd5b5035610ee6565b6102566004803603602081101561037f57600080fd5b50356001600160a01b0316610f0d565b61029e610f1f565b6101ed610f2e565b610256600480360360208110156103b557600080fd5b50356001600160a01b0316610f3d565b610226600480360360208110156103db57600080fd5b5035610f4f565b610256600480360360208110156103f857600080fd5b50356001600160a01b031661112e565b610256611140565b610226600480360360c081101561042657600080fd5b81019060208101813564010000000081111561044157600080fd5b82018360208201111561045357600080fd5b8035906020019184602083028401116401000000008311171561047557600080fd5b919390926001600160a01b03833516926040810190602001356401000000008111156104a057600080fd5b8201836020820111156104b257600080fd5b803590602001918460208302840111640100000000831117156104d457600080fd5b91935091506001600160401b038135811691602081013590911690604001351515611146565b61029e61167f565b61050a611695565b60408051602080825283518183015283519192839290830191858101910280838360005b8381101561054657818101518382015260200161052e565b505050509050019250505060405180910390f35b6101d16116f7565b610226611707565b6102566004803603602081101561058057600080fd5b50356001600160a01b03166118ff565b610226611911565b610226600480360360208110156105ae57600080fd5b50356001600160a01b0316611ace565b600854600160881b900460ff1681565b6002546001600160a01b031681565b600854600160881b900460ff166106255760405162461bcd60e51b81526004018080602001828103825260308152602001806124036030913960400191505060405180910390fd5b600854600160881b900460ff16801561064957506008546001600160401b03164210155b6106845760405162461bcd60e51b815260040180806020018281038252602c81526020018061225a602c913960400191505060405180910390fd5b600081116106c35760405162461bcd60e51b815260040180806020018281038252603a815260200180612286603a913960400191505060405180910390fd5b600854600160801b900460ff161561072557600854600160401b90046001600160401b031642116107255760405162461bcd60e51b81526004018080602001828103825260498152602001806125f16049913960600191505060405180910390fd5b61072d610ac4565b336000908152600a602052604090205481111561077b5760405162461bcd60e51b815260040180806020018281038252604c815260200180612327604c913960600191505060405180910390fd5b336000908152600a60205260409020546107959082611bc6565b336000908152600a60205260409020556006546107b29082611bc6565b6006556002546107cc906001600160a01b03163383611c11565b60408051828152905133917f7084f5476618d8e60b11ef0d7d3f06914655adb8793e28ff7f018d4c76d505d5919081900360200190a250565b600d60209081526000928352604080842090915290825290205481565b60096020526000908152604090205481565b600854600160881b900460ff1661087c5760405162461bcd60e51b81526004018080602001828103825260308152602001806124036030913960400191505060405180910390fd5b600854600160881b900460ff1680156108a057506008546001600160401b03164210155b6108db5760405162461bcd60e51b815260040180806020018281038252602c81526020018061225a602c913960400191505060405180910390fd5b6108e3610ac4565b6001546060906001600160401b03811180156108fe57600080fd5b50604051908082528060200260200182016040528015610928578160200160208202803683370190505b50905060005b600154811015610a245760006001828154811061094757fe5b600091825260208083209091015433808452600d835260408085206001600160a01b0390931680865292845280852054918552600c84528085208386529093529183205490935083929161099b9190611bc6565b336000908152600d602090815260408083206001600160a01b03871684529091529020549091506109cc9082611c68565b336000818152600d602090815260408083206001600160a01b038881168552925290912092909255610a019185169083611c11565b80858581518110610a0e57fe5b602090810291909101015250505060010161092e565b50604080516020808252835181830152835133937f28ee566bdecaf975c0979f4d09fecf91a9009ffe78523aef053a678134137b8b93869390928392830191808601910280838360005b83811015610a86578181015183820152602001610a6e565b505050509050019250505060405180910390a250565b600854600160401b90046001600160401b031681565b60036020526000908152604090205481565b600854600160881b900460ff16610b0c5760405162461bcd60e51b81526004018080602001828103825260308152602001806124036030913960400191505060405180910390fd5b600854600160881b900460ff168015610b3057506008546001600160401b03164210155b610b6b5760405162461bcd60e51b815260040180806020018281038252602c81526020018061225a602c913960400191505060405180910390fd5b600854600090610b8c904290600160401b90046001600160401b0316611cc2565b600854909150600090610bb2906001600160401b0380851691600160901b900416611bc6565b905060005b600154811015610ddb57600060018281548110610bd057fe5b6000918252602090912001546006546001600160a01b039091169150610c63576001600160a01b038116600090815260046020526040902054610c3790610c18908590611cd8565b6001600160a01b03831660009081526009602052604090205490611c68565b6001600160a01b0382166000908152600960209081526040808320939093556007905290812055610ce2565b6001600160a01b038116600090815260046020526040902054610cc890610ca090610c9b90610c93908790611cd8565b600654611d31565b611dce565b6001600160a01b038316600090815260076020526040902054906001600160c01b0316611c68565b6001600160a01b0382166000908152600760205260409020555b6001600160a01b038116600090815260076020526040812054610d06576000610d57565b336000908152600b602090815260408083206001600160a01b0386168452825280832054600790925290912054610d5791610d419190611bc6565b336000908152600a602052604090205490611cd8565b336000908152600c602090815260408083206001600160a01b0387168452909152902054909150610d889082611c68565b336000818152600c602090815260408083206001600160a01b0397909716808452968252808320949094556007815283822054928252600b81528382209582529490945292209190915550600101610bb7565b5050600880546001600160401b03909216600160901b0267ffffffffffffffff60901b19909216919091179055565b610e12611dd5565b6000546001600160a01b03908116911614610e62576040805162461bcd60e51b81526020600482018190526024820152600080516020612454833981519152604482015290519081900360640190fd5b600080546040516001600160a01b03909116907f8be0079c531659141344cd1fd0a4f28419497f9722a3daafe3b4186f6b6457e0908390a3600080546001600160a01b0319169055565b600c60209081526000928352604080842090915290825290205481565b600b60209081526000928352604080842090915290825290205481565b60018181548110610ef357fe5b6000918252602090912001546001600160a01b0316905081565b60046020526000908152604090205481565b6008546001600160401b031681565b6000546001600160a01b031690565b60076020526000908152604090205481565b600854600160881b900460ff16610f975760405162461bcd60e51b81526004018080602001828103825260308152602001806124036030913960400191505060405180910390fd5b600854600160881b900460ff168015610fbb57506008546001600160401b03164210155b610ff65760405162461bcd60e51b815260040180806020018281038252602c81526020018061225a602c913960400191505060405180910390fd5b600854600160881b900460ff1680156110215750600854600160401b90046001600160401b03164211155b61105c5760405162461bcd60e51b815260040180806020018281038252602e815260200180612588602e913960400191505060405180910390fd5b6000811161109b5760405162461bcd60e51b81526004018080602001828103825260378152602001806125156037913960400191505060405180910390fd5b6110a3610ac4565b336000908152600a60205260409020546110bd9082611c68565b336000908152600a60205260409020556006546110da9082611c68565b6006556002546110f5906001600160a01b0316333084611dd9565b60408051828152905133917f9e71bc8eea02a63969f509818f2dafb9254532904319f9dbda79b67bd34a5f3d919081900360200190a250565b600a6020526000908152604090205481565b60065481565b61114e611dd5565b6000546001600160a01b0390811691161461119e576040805162461bcd60e51b81526020600482018190526024820152600080516020612454833981519152604482015290519081900360640190fd5b600854600160881b900460ff16156111e75760405162461bcd60e51b81526004018080602001828103825260348152602001806123cf6034913960400191505060405180910390fd5b42836001600160401b03161161122e5760405162461bcd60e51b815260040180806020018281038252603b8152602001806125b6603b913960400191505060405180910390fd5b826001600160401b0316826001600160401b03161161127e5760405162461bcd60e51b81526004018080602001828103825260368152602001806123736036913960400191505060405180910390fd5b8684146112bc5760405162461bcd60e51b81526004018080602001828103825260418152602001806122e66041913960600191505060405180910390fd5b6001600160401b038383031660005b63ffffffff81168911156114d05760008a8a8363ffffffff168181106112ed57fe5b905060200201356001600160a01b03169050600088888463ffffffff1681811061131357fe5b60200291909101359150506001600160a01b0382166113635760405162461bcd60e51b815260040180806020018281038252603a815260200180612474603a913960400191505060405180910390fd5b600081116113a25760405162461bcd60e51b815260040180806020018281038252602a8152602001806124ae602a913960400191505060405180910390fd5b838110156113e15760405162461bcd60e51b81526004018080602001828103825260498152602001806126646049913960600191505060405180910390fd5b604080516370a0823160e01b81523060048201529051839183916001600160a01b038416916370a08231916024808301926020929190829003018186803b15801561142b57600080fd5b505afa15801561143f573d6000803e3d6000fd5b505050506040513d602081101561145557600080fd5b505110156114945760405162461bcd60e51b815260040180806020018281038252602b8152602001806126ad602b913960400191505060405180910390fd5b61149e8286611e39565b6001600160a01b03909316600090815260046020908152604080832095909555600390529290922055506001016112cb565b506001600160a01b0387166115165760405162461bcd60e51b815260040180806020018281038252603c81526020018061254c603c913960400191505060405180910390fd5b600280546001600160a01b0319166001600160a01b03891690811790915560088054600160881b67ffffffffffffffff199091166001600160401b038881169182176fffffffffffffffff00000000000000001916600160401b9189169182021767ffffffffffffffff60901b1916600160901b83021760ff60801b1916600160801b8815159081029190911760ff60881b191693909317909355604080516020808201969096526060810192909252608082019390935260a081019190915260c080825281018b90527fe0447a394d11ec1fdc78a0ee3f2ce94c11fcfcf256a283544638f918f2df2800928c928c928c928c928c928c928c928c9291829182019060e08301908c908c0280828437600083820152601f01601f19169091018481038352888152602090810191508990890280828437600083820152604051601f909101601f19169092018290039c50909a5050505050505050505050a1505050505050505050565b600854600160901b90046001600160401b031681565b606060018054806020026020016040519081016040528092919081815260200182805480156116ed57602002820191906000526020600020905b81546001600160a01b031681526001909101906020018083116116cf575b5050505050905090565b600854600160801b900460ff1681565b600854600160881b900460ff1661174f5760405162461bcd60e51b81526004018080602001828103825260308152602001806124036030913960400191505060405180910390fd5b600854600160881b900460ff16801561177357506008546001600160401b03164210155b6117ae5760405162461bcd60e51b815260040180806020018281038252602c81526020018061225a602c913960400191505060405180910390fd5b6117b6610ac4565b6001546060816001600160401b03811180156117d157600080fd5b506040519080825280602002602001820160405280156117fb578160200160208202803683370190505b50905060005b828110156118855760006001828154811061181857fe5b60009182526020808320909101546001600160a01b031680835260099091526040822080549290558451909250819085908590811061185357fe5b60200260200101818152505061187b61186a610f2e565b6001600160a01b0384169083611c11565b5050600101611801565b507ff904fafa600a7e4e8039f3a5497d1b6016772e3060f87d3e40f911b315f00bd1816040518080602001828103825283818151815260200191508051906020019060200280838360005b838110156118e85781810151838201526020016118d0565b505050509050019250505060405180910390a15050565b60056020526000908152604090205481565b600854600160881b900460ff166119595760405162461bcd60e51b81526004018080602001828103825260308152602001806124036030913960400191505060405180910390fd5b611961611dd5565b6000546001600160a01b039081169116146119b1576040805162461bcd60e51b81526020600482018190526024820152600080516020612454833981519152604482015290519081900360640190fd5b6008546001600160401b031642106119fa5760405162461bcd60e51b815260040180806020018281038252603d8152602001806124d8603d913960400191505060405180910390fd5b60005b600154811015611a7657600060018281548110611a1657fe5b60009182526020808320909101546001600160a01b031680835260038252604080842080549085905560049093528320929092559091508190611a6b611a5a610f2e565b6001600160a01b0385169083611c11565b5050506001016119fd565b50611a836001600061220c565b600280546001600160a01b0319169055600880546001600160d01b03191690556040517f1afb0ae590df277bcb3a37f88612725bf1f7df4755792b1548a7efe77985ff7790600090a1565b611ad6611dd5565b6000546001600160a01b03908116911614611b26576040805162461bcd60e51b81526020600482018190526024820152600080516020612454833981519152604482015290519081900360640190fd5b6001600160a01b038116611b6b5760405162461bcd60e51b81526004018080602001828103825260268152602001806122c06026913960400191505060405180910390fd5b600080546040516001600160a01b03808516939216917f8be0079c531659141344cd1fd0a4f28419497f9722a3daafe3b4186f6b6457e091a3600080546001600160a01b0319166001600160a01b0392909216919091179055565b6000611c0883836040518060400160405280601e81526020017f536166654d6174683a207375627472616374696f6e206f766572666c6f770000815250611e7b565b90505b92915050565b604080516001600160a01b038416602482015260448082018490528251808303909101815260649091019091526020810180516001600160e01b031663a9059cbb60e01b179052611c63908490611f17565b505050565b600082820183811015611c08576040805162461bcd60e51b815260206004820152601b60248201527f536166654d6174683a206164646974696f6e206f766572666c6f770000000000604482015290519081900360640190fd5b6000818310611cd15781611c08565b5090919050565b600082611ce757506000611c0b565b82820282848281611cf457fe5b0414611c085760405162461bcd60e51b81526004018080602001828103825260218152602001806124336021913960400191505060405180910390fd5b611d3961222d565b6000826001600160c01b031611611d97576040805162461bcd60e51b815260206004820152601760248201527f4669786564506f696e743a204449565f42595f5a45524f000000000000000000604482015290519081900360640190fd5b6040518060200160405280836001600160c01b0316604060ff16866001600160c01b0316901b81611dc457fe5b0490529392505050565b5160401c90565b3390565b604080516001600160a01b0380861660248301528416604482015260648082018490528251808303909101815260849091019091526020810180516001600160e01b03166323b872dd60e01b179052611e33908590611f17565b50505050565b6000611c0883836040518060400160405280601a81526020017f536166654d6174683a206469766973696f6e206279207a65726f000000000000815250611fc8565b60008184841115611f0a5760405162461bcd60e51b81526004018080602001828103825283818151815260200191508051906020019080838360005b83811015611ecf578181015183820152602001611eb7565b50505050905090810190601f168015611efc5780820380516001836020036101000a031916815260200191505b509250505060405180910390fd5b50508183035b9392505050565b6060611f6c826040518060400160405280602081526020017f5361666545524332303a206c6f772d6c6576656c2063616c6c206661696c6564815250856001600160a01b031661202d9092919063ffffffff16565b805190915015611c6357808060200190516020811015611f8b57600080fd5b5051611c635760405162461bcd60e51b815260040180806020018281038252602a81526020018061263a602a913960400191505060405180910390fd5b600081836120175760405162461bcd60e51b8152602060048201818152835160248401528351909283926044909101919085019080838360008315611ecf578181015183820152602001611eb7565b50600083858161202357fe5b0495945050505050565b606061203c8484600085612044565b949350505050565b6060824710156120855760405162461bcd60e51b81526004018080602001828103825260268152602001806123a96026913960400191505060405180910390fd5b61208e856121a0565b6120df576040805162461bcd60e51b815260206004820152601d60248201527f416464726573733a2063616c6c20746f206e6f6e2d636f6e7472616374000000604482015290519081900360640190fd5b60006060866001600160a01b031685876040518082805190602001908083835b6020831061211e5780518252601f1990920191602091820191016120ff565b6001836020036101000a03801982511681845116808217855250505050505090500191505060006040518083038185875af1925050503d8060008114612180576040519150601f19603f3d011682016040523d82523d6000602084013e612185565b606091505b50915091506121958282866121a6565b979650505050505050565b3b151590565b606083156121b5575081611f10565b8251156121c55782518084602001fd5b60405162461bcd60e51b8152602060048201818152845160248401528451859391928392604401919085019080838360008315611ecf578181015183820152602001611eb7565b508054600082559060005260206000209081019061222a9190612240565b50565b6040518060200160405280600081525090565b5b808211156122555760008155600101612241565b509056fe45524332305374616b696e6752657761726473446973747269627574696f6e3a206e6f74207374617274656445524332305374616b696e6752657761726473446973747269627574696f6e3a20747269656420746f207769746864726177206e6f7468696e674f776e61626c653a206e6577206f776e657220697320746865207a65726f206164647265737345524332305374616b696e6752657761726473446973747269627574696f6e3a20696e636f6e73697374656e742072657761726420746f6b656e2f616d6f756e7445524332305374616b696e6752657761726473446973747269627574696f6e3a2077697468647261776e20616d6f756e742067726561746572207468616e2063757272656e74207374616b6545524332305374616b696e6752657761726473446973747269627574696f6e3a20696e76616c69642074696d65206475726174696f6e416464726573733a20696e73756666696369656e742062616c616e636520666f722063616c6c45524332305374616b696e6752657761726473446973747269627574696f6e3a20616c726561647920696e697469616c697a656445524332305374616b696e6752657761726473446973747269627574696f6e3a206e6f7420696e697469616c697a6564536166654d6174683a206d756c7469706c69636174696f6e206f766572666c6f774f776e61626c653a2063616c6c6572206973206e6f7420746865206f776e657245524332305374616b696e6752657761726473446973747269627574696f6e3a203020616464726573732061732072657761726420746f6b656e45524332305374616b696e6752657761726473446973747269627574696f6e3a206e6f2072657761726445524332305374616b696e6752657761726473446973747269627574696f6e3a20646973747269627574696f6e20616c7265616479207374617274656445524332305374616b696e6752657761726473446973747269627574696f6e3a20747269656420746f207374616b65206e6f7468696e6745524332305374616b696e6752657761726473446973747269627574696f6e3a20302061646472657373206173207374616b61626c6520746f6b656e45524332305374616b696e6752657761726473446973747269627574696f6e3a20616c726561647920656e64656445524332305374616b696e6752657761726473446973747269627574696f6e3a20696e76616c6964207374617274696e672074696d657374616d7045524332305374616b696e6752657761726473446973747269627574696f6e3a2066756e6473206c6f636b656420756e74696c2074686520646973747269627574696f6e20656e64735361666545524332303a204552433230206f7065726174696f6e20646964206e6f74207375636365656445524332305374616b696e6752657761726473446973747269627574696f6e3a2072657761726420616d6f756e74206c657373207468616e207365636f6e6473206475726174696f6e45524332305374616b696e6752657761726473446973747269627574696f6e3a206e6f2066756e64696e67a2646970667358221220b7ebfb17ab1e4d3dff4cdd07790fae757c9692467595111cfa46804a730a8abe64736f6c634300060c0033",
  "immutableReferences": {},
  "source": "// SPDX-License-Identifier: GPL-3.0\n\npragma solidity ^0.6.12;\n\nimport \"@openzeppelin/contracts/math/SafeMath.sol\";\nimport \"@openzeppelin/contracts/math/Math.sol\";\nimport \"@openzeppelin/contracts/token/ERC20/ERC20.sol\";\nimport \"@openzeppelin/contracts/token/ERC20/SafeERC20.sol\";\nimport \"@openzeppelin/contracts/access/Ownable.sol\";\nimport \"solidity-fixedpoint/contracts/FixedPoint.sol\";\n\ncontract ERC20StakingRewardsDistribution is Ownable {\n    using SafeMath for uint256;\n    using SafeMath for uint64;\n    using SafeERC20 for ERC20;\n\n    ERC20[] public rewardTokens;\n    ERC20 public stakableToken;\n    mapping(address => uint256) public rewardAmount;\n    mapping(address => uint256) public rewardPerSecond;\n    mapping(address => uint256) public stakedTokenAmount;\n    uint256 public totalStakedTokensAmount;\n    mapping(address => uint256) public rewardPerStakedToken;\n    uint64 public startingTimestamp;\n    uint64 public endingTimestamp;\n    bool public locked;\n    bool public initialized;\n    uint64 public lastConsolidationTimestamp;\n    mapping(address => uint256) public recoverableUnassignedReward;\n\n    mapping(address => uint256) public stakedTokensOf;\n    mapping(address => mapping(address => uint256))\n        public consolidatedRewardsPerStakedToken;\n    mapping(address => mapping(address => uint256)) public earnedRewards;\n    mapping(address => mapping(address => uint256)) public claimedReward;\n\n    event Initialized(\n        address[] rewardsTokenAddresses,\n        address stakableTokenAddress,\n        uint256[] rewardsAmounts,\n        uint64 startingTimestamp,\n        uint64 endingTimestamp,\n        bool locked\n    );\n    event Canceled();\n    event Staked(address indexed staker, uint256 amount);\n    event Withdrawn(address indexed withdrawer, uint256 amount);\n    event Claimed(address indexed claimer, uint256[] amounts);\n    event Recovered(uint256[] amounts);\n\n    function getRewardTokens() external view returns (ERC20[] memory) {\n        return rewardTokens;\n    }\n\n    function initialize(\n        address[] calldata _rewardTokenAddresses,\n        address _stakableTokenAddress,\n        uint256[] calldata _rewardAmounts,\n        uint64 _startingTimestamp,\n        uint64 _endingTimestamp,\n        bool _locked\n    ) external onlyOwner onlyUninitialized {\n        require(\n            _startingTimestamp > block.timestamp,\n            \"ERC20StakingRewardsDistribution: invalid starting timestamp\"\n        );\n        require(\n            _endingTimestamp > _startingTimestamp,\n            \"ERC20StakingRewardsDistribution: invalid time duration\"\n        );\n        require(\n            _rewardTokenAddresses.length == _rewardAmounts.length,\n            \"ERC20StakingRewardsDistribution: inconsistent reward token/amount\"\n        );\n\n        uint256 _secondsDuration = _endingTimestamp - _startingTimestamp;\n        // Initializing reward tokens and amounts\n        for (uint32 _i = 0; _i < _rewardTokenAddresses.length; _i++) {\n            address _rewardTokenAddress = _rewardTokenAddresses[_i];\n            uint256 _rewardAmount = _rewardAmounts[_i];\n            require(\n                _rewardTokenAddress != address(0),\n                \"ERC20StakingRewardsDistribution: 0 address as reward token\"\n            );\n            require(\n                _rewardAmount > 0,\n                \"ERC20StakingRewardsDistribution: no reward\"\n            );\n            require(\n                _rewardAmount >= _secondsDuration,\n                \"ERC20StakingRewardsDistribution: reward amount less than seconds duration\"\n            );\n            ERC20 _rewardToken = ERC20(_rewardTokenAddress);\n            require(\n                _rewardToken.balanceOf(address(this)) >= _rewardAmount,\n                \"ERC20StakingRewardsDistribution: no funding\"\n            );\n            rewardPerSecond[_rewardTokenAddress] = _rewardAmount.div(\n                _secondsDuration\n            );\n            rewardAmount[_rewardTokenAddress] = _rewardAmount;\n        }\n\n        require(\n            _stakableTokenAddress != address(0),\n            \"ERC20StakingRewardsDistribution: 0 address as stakable token\"\n        );\n        stakableToken = ERC20(_stakableTokenAddress);\n\n        startingTimestamp = _startingTimestamp;\n        endingTimestamp = _endingTimestamp;\n        lastConsolidationTimestamp = _startingTimestamp;\n        locked = _locked;\n\n        initialized = true;\n        emit Initialized(\n            _rewardTokenAddresses,\n            _stakableTokenAddress,\n            _rewardAmounts,\n            _startingTimestamp,\n            _endingTimestamp,\n            _locked\n        );\n    }\n\n    function cancel() external onlyInitialized onlyOwner {\n        require(\n            block.timestamp < startingTimestamp,\n            \"ERC20StakingRewardsDistribution: distribution already started\"\n        );\n        // resetting reward information (both tokens and amounts)\n        for (uint256 _i; _i < rewardTokens.length; _i++) {\n            ERC20 rewardToken = rewardTokens[_i];\n            address rewardTokenAddress = address(rewardToken);\n            uint256 _relatedRewardAmount = rewardAmount[rewardTokenAddress];\n            delete rewardAmount[rewardTokenAddress];\n            delete rewardPerSecond[rewardTokenAddress];\n            rewardToken.safeTransfer(owner(), _relatedRewardAmount);\n        }\n        delete rewardTokens;\n        delete stakableToken;\n        startingTimestamp = 0;\n        endingTimestamp = 0;\n        lastConsolidationTimestamp = 0;\n        initialized = false;\n        locked = false;\n        emit Canceled();\n    }\n\n    function recoverUnassignedRewards() external onlyInitialized onlyStarted {\n        consolidateReward();\n        uint256 _numberOfRewardsTokens = rewardTokens.length;\n        uint256[] memory _recoveredUnassignedRewards =\n            new uint256[](_numberOfRewardsTokens);\n        for (uint256 _i; _i < _numberOfRewardsTokens; _i++) {\n            ERC20 _relatedRewardToken = rewardTokens[_i];\n\n            uint256 _relatedUnassignedReward =\n                recoverableUnassignedReward[address(_relatedRewardToken)];\n            delete recoverableUnassignedReward[address(_relatedRewardToken)];\n            _recoveredUnassignedRewards[_i] = _relatedUnassignedReward;\n            _relatedRewardToken.safeTransfer(owner(), _relatedUnassignedReward);\n        }\n        emit Recovered(_recoveredUnassignedRewards);\n    }\n\n    function stake(uint256 _amount)\n        external\n        onlyInitialized\n        onlyStarted\n        onlyRunning\n    {\n        require(\n            _amount > 0,\n            \"ERC20StakingRewardsDistribution: tried to stake nothing\"\n        );\n        consolidateReward();\n        stakedTokensOf[msg.sender] = stakedTokensOf[msg.sender].add(_amount);\n        totalStakedTokensAmount = totalStakedTokensAmount.add(_amount);\n        stakableToken.safeTransferFrom(msg.sender, address(this), _amount);\n        emit Staked(msg.sender, _amount);\n    }\n\n    function withdraw(uint256 _amount) external onlyInitialized onlyStarted {\n        require(\n            _amount > 0,\n            \"ERC20StakingRewardsDistribution: tried to withdraw nothing\"\n        );\n        if (locked) {\n            require(\n                block.timestamp > endingTimestamp,\n                \"ERC20StakingRewardsDistribution: funds locked until the distribution ends\"\n            );\n        }\n        consolidateReward();\n        require(\n            _amount <= stakedTokensOf[msg.sender],\n            \"ERC20StakingRewardsDistribution: withdrawn amount greater than current stake\"\n        );\n        stakedTokensOf[msg.sender] = stakedTokensOf[msg.sender].sub(_amount);\n        totalStakedTokensAmount = totalStakedTokensAmount.sub(_amount);\n        stakableToken.safeTransfer(msg.sender, _amount);\n        emit Withdrawn(msg.sender, _amount);\n    }\n\n    function claim() external onlyInitialized onlyStarted {\n        consolidateReward();\n        uint256[] memory _claimedRewards = new uint256[](rewardTokens.length);\n        for (uint256 _i; _i < rewardTokens.length; _i++) {\n            ERC20 _relatedRewardToken = rewardTokens[_i];\n            address _relatedRewardTokenAddress = address(_relatedRewardToken);\n            uint256 _claimableReward =\n                earnedRewards[msg.sender][_relatedRewardTokenAddress].sub(\n                    claimedReward[msg.sender][_relatedRewardTokenAddress]\n                );\n            claimedReward[msg.sender][\n                _relatedRewardTokenAddress\n            ] = claimedReward[msg.sender][_relatedRewardTokenAddress].add(\n                _claimableReward\n            );\n            _relatedRewardToken.safeTransfer(msg.sender, _claimableReward);\n            _claimedRewards[_i] = _claimableReward;\n        }\n        emit Claimed(msg.sender, _claimedRewards);\n    }\n\n    function consolidateReward() public onlyInitialized onlyStarted {\n        uint64 _consolidationTimestamp =\n            uint64(Math.min(block.timestamp, endingTimestamp));\n        uint256 _lastPeriodDuration =\n            uint256(_consolidationTimestamp.sub(lastConsolidationTimestamp));\n        for (uint256 _i; _i < rewardTokens.length; _i++) {\n            address _relatedRewardTokenAddress = address(rewardTokens[_i]);\n            if (totalStakedTokensAmount == 0) {\n                // If the current staked tokens amount is zero, there have been unassigned rewards in the last period.\n                // We add these unassigned rewards to the amount that can be claimed back by the contract's owner.\n                recoverableUnassignedReward[\n                    _relatedRewardTokenAddress\n                ] = recoverableUnassignedReward[_relatedRewardTokenAddress].add(\n                    _lastPeriodDuration.mul(\n                        rewardPerSecond[_relatedRewardTokenAddress]\n                    )\n                );\n                rewardPerStakedToken[_relatedRewardTokenAddress] = 0;\n            } else {\n                rewardPerStakedToken[\n                    _relatedRewardTokenAddress\n                ] = rewardPerStakedToken[_relatedRewardTokenAddress].add(\n                    FixedPoint.decode(\n                        FixedPoint.fraction(\n                            uint192(\n                                _lastPeriodDuration.mul(\n                                    rewardPerSecond[_relatedRewardTokenAddress]\n                                )\n                            ),\n                            uint192(totalStakedTokensAmount)\n                        )\n                    )\n                );\n            }\n            // avoids subtraction underflow. If the rewards per staked tokens are 0,\n            // the rewards in current period must be 0 by definition, no need to\n            // perform subtraction risking underflow.\n            uint256 _rewardInCurrentPeriod =\n                rewardPerStakedToken[_relatedRewardTokenAddress] > 0\n                    ? stakedTokensOf[msg.sender].mul(\n                        rewardPerStakedToken[_relatedRewardTokenAddress].sub(\n                            consolidatedRewardsPerStakedToken[msg.sender][\n                                _relatedRewardTokenAddress\n                            ]\n                        )\n                    )\n                    : 0;\n            earnedRewards[msg.sender][\n                _relatedRewardTokenAddress\n            ] = earnedRewards[msg.sender][_relatedRewardTokenAddress].add(\n                _rewardInCurrentPeriod\n            );\n            consolidatedRewardsPerStakedToken[msg.sender][\n                _relatedRewardTokenAddress\n            ] = rewardPerStakedToken[_relatedRewardTokenAddress];\n        }\n        lastConsolidationTimestamp = _consolidationTimestamp;\n    }\n\n    modifier onlyUninitialized() {\n        require(\n            !initialized,\n            \"ERC20StakingRewardsDistribution: already initialized\"\n        );\n        _;\n    }\n\n    modifier onlyInitialized() {\n        require(\n            initialized,\n            \"ERC20StakingRewardsDistribution: not initialized\"\n        );\n        _;\n    }\n\n    modifier onlyStarted() {\n        require(\n            initialized && block.timestamp >= startingTimestamp,\n            \"ERC20StakingRewardsDistribution: not started\"\n        );\n        _;\n    }\n\n    modifier onlyRunning() {\n        require(\n            initialized && block.timestamp <= endingTimestamp,\n            \"ERC20StakingRewardsDistribution: already ended\"\n        );\n        _;\n    }\n}\n",
  "sourcePath": "/home/luzzif/Projects/swapr-lp-staker/contracts/ERC20StakingRewardsDistribution.sol",
  "compiler": {
    "name": "solc",
    "version": "0.6.12+commit.27d51765.Emscripten.clang"
  },
  "schemaVersion": "3.3.3",
  "updatedAt": "2021-01-19T20:23:28.325Z",
  "devdoc": {
    "kind": "dev",
    "methods": {
      "owner()": {
        "details": "Returns the address of the current owner."
      },
      "renounceOwnership()": {
        "details": "Leaves the contract without owner. It will not be possible to call `onlyOwner` functions anymore. Can only be called by the current owner. NOTE: Renouncing ownership will leave the contract without an owner, thereby removing any functionality that is only available to the owner."
      },
      "transferOwnership(address)": {
        "details": "Transfers ownership of the contract to a new account (`newOwner`). Can only be called by the current owner."
      }
    },
    "version": 1
  },
  "userdoc": {
    "kind": "user",
    "methods": {},
    "version": 1
  }
}