{
  "contractName": "ERC20StakingRewardsDistribution",
  "abi": [
    {
      "anonymous": false,
      "inputs": [],
      "name": "Canceled",
      "type": "event"
    },
    {
      "anonymous": false,
      "inputs": [
        {
          "indexed": true,
          "internalType": "address",
          "name": "claimer",
          "type": "address"
        },
        {
          "indexed": false,
          "internalType": "uint256[]",
          "name": "amounts",
          "type": "uint256[]"
        }
      ],
      "name": "Claimed",
      "type": "event"
    },
    {
      "anonymous": false,
      "inputs": [
        {
          "indexed": false,
          "internalType": "address[]",
          "name": "rewardsTokenAddresses",
          "type": "address[]"
        },
        {
          "indexed": false,
          "internalType": "address",
          "name": "stakableTokenAddress",
          "type": "address"
        },
        {
          "indexed": false,
          "internalType": "uint256[]",
          "name": "rewardsAmounts",
          "type": "uint256[]"
        },
        {
          "indexed": false,
          "internalType": "uint64",
          "name": "startingTimestamp",
          "type": "uint64"
        },
        {
          "indexed": false,
          "internalType": "uint64",
          "name": "endingTimestamp",
          "type": "uint64"
        },
        {
          "indexed": false,
          "internalType": "bool",
          "name": "locked",
          "type": "bool"
        }
      ],
      "name": "Initialized",
      "type": "event"
    },
    {
      "anonymous": false,
      "inputs": [
        {
          "indexed": true,
          "internalType": "address",
          "name": "previousOwner",
          "type": "address"
        },
        {
          "indexed": true,
          "internalType": "address",
          "name": "newOwner",
          "type": "address"
        }
      ],
      "name": "OwnershipTransferred",
      "type": "event"
    },
    {
      "anonymous": false,
      "inputs": [
        {
          "indexed": false,
          "internalType": "uint256[]",
          "name": "amounts",
          "type": "uint256[]"
        }
      ],
      "name": "Recovered",
      "type": "event"
    },
    {
      "anonymous": false,
      "inputs": [
        {
          "indexed": true,
          "internalType": "address",
          "name": "staker",
          "type": "address"
        },
        {
          "indexed": false,
          "internalType": "uint256",
          "name": "amount",
          "type": "uint256"
        }
      ],
      "name": "Staked",
      "type": "event"
    },
    {
      "anonymous": false,
      "inputs": [
        {
          "indexed": true,
          "internalType": "address",
          "name": "withdrawer",
          "type": "address"
        },
        {
          "indexed": false,
          "internalType": "uint256",
          "name": "amount",
          "type": "uint256"
        }
      ],
      "name": "Withdrawn",
      "type": "event"
    },
    {
      "inputs": [
        {
          "internalType": "address",
          "name": "",
          "type": "address"
        },
        {
          "internalType": "address",
          "name": "",
          "type": "address"
        }
      ],
      "name": "claimedReward",
      "outputs": [
        {
          "internalType": "uint256",
          "name": "",
          "type": "uint256"
        }
      ],
      "stateMutability": "view",
      "type": "function"
    },
    {
      "inputs": [
        {
          "internalType": "address",
          "name": "",
          "type": "address"
        },
        {
          "internalType": "address",
          "name": "",
          "type": "address"
        }
      ],
      "name": "consolidatedRewardsPerStakedToken",
      "outputs": [
        {
          "internalType": "uint256",
          "name": "",
          "type": "uint256"
        }
      ],
      "stateMutability": "view",
      "type": "function"
    },
    {
      "inputs": [
        {
          "internalType": "address",
          "name": "",
          "type": "address"
        },
        {
          "internalType": "address",
          "name": "",
          "type": "address"
        }
      ],
      "name": "earnedRewards",
      "outputs": [
        {
          "internalType": "uint256",
          "name": "",
          "type": "uint256"
        }
      ],
      "stateMutability": "view",
      "type": "function"
    },
    {
      "inputs": [],
      "name": "endingTimestamp",
      "outputs": [
        {
          "internalType": "uint64",
          "name": "",
          "type": "uint64"
        }
      ],
      "stateMutability": "view",
      "type": "function"
    },
    {
      "inputs": [],
      "name": "initialized",
      "outputs": [
        {
          "internalType": "bool",
          "name": "",
          "type": "bool"
        }
      ],
      "stateMutability": "view",
      "type": "function"
    },
    {
      "inputs": [],
      "name": "lastConsolidationTimestamp",
      "outputs": [
        {
          "internalType": "uint64",
          "name": "",
          "type": "uint64"
        }
      ],
      "stateMutability": "view",
      "type": "function"
    },
    {
      "inputs": [],
      "name": "locked",
      "outputs": [
        {
          "internalType": "bool",
          "name": "",
          "type": "bool"
        }
      ],
      "stateMutability": "view",
      "type": "function"
    },
    {
      "inputs": [],
      "name": "owner",
      "outputs": [
        {
          "internalType": "address",
          "name": "",
          "type": "address"
        }
      ],
      "stateMutability": "view",
      "type": "function"
    },
    {
      "inputs": [
        {
          "internalType": "address",
          "name": "",
          "type": "address"
        }
      ],
      "name": "recoverableUnassignedReward",
      "outputs": [
        {
          "internalType": "uint256",
          "name": "",
          "type": "uint256"
        }
      ],
      "stateMutability": "view",
      "type": "function"
    },
    {
      "inputs": [],
      "name": "renounceOwnership",
      "outputs": [],
      "stateMutability": "nonpayable",
      "type": "function"
    },
    {
      "inputs": [
        {
          "internalType": "address",
          "name": "",
          "type": "address"
        }
      ],
      "name": "rewardAmount",
      "outputs": [
        {
          "internalType": "uint256",
          "name": "",
          "type": "uint256"
        }
      ],
      "stateMutability": "view",
      "type": "function"
    },
    {
      "inputs": [
        {
          "internalType": "address",
          "name": "",
          "type": "address"
        }
      ],
      "name": "rewardPerStakedToken",
      "outputs": [
        {
          "internalType": "uint256",
          "name": "",
          "type": "uint256"
        }
      ],
      "stateMutability": "view",
      "type": "function"
    },
    {
      "inputs": [
        {
          "internalType": "uint256",
          "name": "",
          "type": "uint256"
        }
      ],
      "name": "rewardTokens",
      "outputs": [
        {
          "internalType": "contract ERC20",
          "name": "",
          "type": "address"
        }
      ],
      "stateMutability": "view",
      "type": "function"
    },
    {
      "inputs": [],
      "name": "secondsDuration",
      "outputs": [
        {
          "internalType": "uint64",
          "name": "",
          "type": "uint64"
        }
      ],
      "stateMutability": "view",
      "type": "function"
    },
    {
      "inputs": [],
      "name": "stakableToken",
      "outputs": [
        {
          "internalType": "contract ERC20",
          "name": "",
          "type": "address"
        }
      ],
      "stateMutability": "view",
      "type": "function"
    },
    {
      "inputs": [
        {
          "internalType": "address",
          "name": "",
          "type": "address"
        }
      ],
      "name": "stakedTokenAmount",
      "outputs": [
        {
          "internalType": "uint256",
          "name": "",
          "type": "uint256"
        }
      ],
      "stateMutability": "view",
      "type": "function"
    },
    {
      "inputs": [
        {
          "internalType": "address",
          "name": "",
          "type": "address"
        }
      ],
      "name": "stakedTokensOf",
      "outputs": [
        {
          "internalType": "uint256",
          "name": "",
          "type": "uint256"
        }
      ],
      "stateMutability": "view",
      "type": "function"
    },
    {
      "inputs": [],
      "name": "startingTimestamp",
      "outputs": [
        {
          "internalType": "uint64",
          "name": "",
          "type": "uint64"
        }
      ],
      "stateMutability": "view",
      "type": "function"
    },
    {
      "inputs": [
        {
          "internalType": "address",
          "name": "",
          "type": "address"
        }
      ],
      "name": "totalClaimedRewards",
      "outputs": [
        {
          "internalType": "uint256",
          "name": "",
          "type": "uint256"
        }
      ],
      "stateMutability": "view",
      "type": "function"
    },
    {
      "inputs": [],
      "name": "totalStakedTokensAmount",
      "outputs": [
        {
          "internalType": "uint256",
          "name": "",
          "type": "uint256"
        }
      ],
      "stateMutability": "view",
      "type": "function"
    },
    {
      "inputs": [
        {
          "internalType": "address",
          "name": "newOwner",
          "type": "address"
        }
      ],
      "name": "transferOwnership",
      "outputs": [],
      "stateMutability": "nonpayable",
      "type": "function"
    },
    {
      "inputs": [
        {
          "internalType": "address",
          "name": "_claimer",
          "type": "address"
        }
      ],
      "name": "getClaimedRewards",
      "outputs": [
        {
          "internalType": "uint256[]",
          "name": "",
          "type": "uint256[]"
        }
      ],
      "stateMutability": "view",
      "type": "function"
    },
    {
      "inputs": [
        {
          "internalType": "address[]",
          "name": "_rewardTokenAddresses",
          "type": "address[]"
        },
        {
          "internalType": "address",
          "name": "_stakableTokenAddress",
          "type": "address"
        },
        {
          "internalType": "uint256[]",
          "name": "_rewardAmounts",
          "type": "uint256[]"
        },
        {
          "internalType": "uint64",
          "name": "_startingTimestamp",
          "type": "uint64"
        },
        {
          "internalType": "uint64",
          "name": "_endingTimestamp",
          "type": "uint64"
        },
        {
          "internalType": "bool",
          "name": "_locked",
          "type": "bool"
        }
      ],
      "name": "initialize",
      "outputs": [],
      "stateMutability": "nonpayable",
      "type": "function"
    },
    {
      "inputs": [],
      "name": "cancel",
      "outputs": [],
      "stateMutability": "nonpayable",
      "type": "function"
    },
    {
      "inputs": [],
      "name": "recoverUnassignedRewards",
      "outputs": [],
      "stateMutability": "nonpayable",
      "type": "function"
    },
    {
      "inputs": [
        {
          "internalType": "uint256",
          "name": "_amount",
          "type": "uint256"
        }
      ],
      "name": "stake",
      "outputs": [],
      "stateMutability": "nonpayable",
      "type": "function"
    },
    {
      "inputs": [
        {
          "internalType": "uint256",
          "name": "_amount",
          "type": "uint256"
        }
      ],
      "name": "withdraw",
      "outputs": [],
      "stateMutability": "nonpayable",
      "type": "function"
    },
    {
      "inputs": [
        {
          "internalType": "uint256[]",
          "name": "_amounts",
          "type": "uint256[]"
        },
        {
          "internalType": "address",
          "name": "_recipient",
          "type": "address"
        }
      ],
      "name": "claim",
      "outputs": [],
      "stateMutability": "nonpayable",
      "type": "function"
    },
    {
      "inputs": [
        {
          "internalType": "address",
          "name": "_recipient",
          "type": "address"
        }
      ],
      "name": "claimAll",
      "outputs": [],
      "stateMutability": "nonpayable",
      "type": "function"
    },
    {
      "inputs": [],
      "name": "consolidateReward",
      "outputs": [],
      "stateMutability": "nonpayable",
      "type": "function"
    },
    {
      "inputs": [
        {
          "internalType": "address",
          "name": "_staker",
          "type": "address"
        }
      ],
      "name": "getClaimableRewards",
      "outputs": [
        {
          "internalType": "uint256[]",
          "name": "",
          "type": "uint256[]"
        }
      ],
      "stateMutability": "view",
      "type": "function"
    }
  ],
  "bytecode": "0x608060405234801561001057600080fd5b50600061001b61006a565b600080546001600160a01b0319166001600160a01b0383169081178255604051929350917f8be0079c531659141344cd1fd0a4f28419497f9722a3daafe3b4186f6b6457e0908290a35061006e565b3390565b612f72806200007e6000396000f3fe608060405234801561001057600080fd5b50600436106101e55760003560e01c8063887862721161010f578063b9e35db0116100a2578063e644067d11610071578063e644067d1461069b578063e66d85be146106a3578063ea8a1af0146106c9578063f2fde38b146106d1576101e5565b8063b9e35db01461057b578063c03e7295146105a1578063c10de3001461068b578063cf30901214610693576101e5565b8063a110b93f116100de578063a110b93f1461050a578063a694fc3a14610530578063ab08d4fc1461054d578063b41fa97914610573576101e5565b806388786272146104265780638c574b481461042e5780638da5cb5b146104dc57806398f81230146104e4576101e5565b80635fa3502311610187578063728e4a6711610156578063728e4a671461038757806375b8dbf8146103b557806377329f35146103e35780637bb7bed114610409576101e5565b80635fa3502314610349578063645a8a56146103515780636715dcb814610377578063715018a61461037f576101e5565b8063308e401e116101c3578063308e401e1461024957806334380a61146102bf5780633b34ee50146102ff5780635e5294b714610325576101e5565b8063158ef93e146101ea5780631c96c3fb146102065780632e1a7d4d1461022a575b600080fd5b6101f26106f7565b604080519115158252519081900360200190f35b61020e610707565b604080516001600160a01b039092168252519081900360200190f35b6102476004803603602081101561024057600080fd5b5035610716565b005b61026f6004803603602081101561025f57600080fd5b50356001600160a01b031661093e565b60408051602080825283518183015283519192839290830191858101910280838360005b838110156102ab578181015183820152602001610293565b505050509050019250505060405180910390f35b6102ed600480360360408110156102d557600080fd5b506001600160a01b0381358116916020013516610c21565b60408051918252519081900360200190f35b6102ed6004803603602081101561031557600080fd5b50356001600160a01b0316610c3e565b61032d610c50565b604080516001600160401b039092168252519081900360200190f35b61032d610c66565b6102ed6004803603602081101561036757600080fd5b50356001600160a01b0316610c7c565b610247610c8e565b610247610ff5565b6102ed6004803603604081101561039d57600080fd5b506001600160a01b0381358116916020013516611097565b6102ed600480360360408110156103cb57600080fd5b506001600160a01b03813581169160200135166110b4565b610247600480360360208110156103f957600080fd5b50356001600160a01b03166110d1565b61020e6004803603602081101561041f57600080fd5b50356112e1565b61032d611308565b6102476004803603604081101561044457600080fd5b81019060208101813564010000000081111561045f57600080fd5b82018360208201111561047157600080fd5b8035906020019184602083028401116401000000008311171561049357600080fd5b919080806020026020016040519081016040528093929190818152602001838360200280828437600092019190915250929550505090356001600160a01b031691506113179050565b61020e6115c5565b6102ed600480360360208110156104fa57600080fd5b50356001600160a01b03166115d4565b6102ed6004803603602081101561052057600080fd5b50356001600160a01b03166115e6565b6102476004803603602081101561054657600080fd5b50356115f8565b6102ed6004803603602081101561056357600080fd5b50356001600160a01b03166117d7565b6102ed6117e9565b61026f6004803603602081101561059157600080fd5b50356001600160a01b03166117ef565b610247600480360360c08110156105b757600080fd5b8101906020810181356401000000008111156105d257600080fd5b8201836020820111156105e457600080fd5b8035906020019184602083028401116401000000008311171561060657600080fd5b919390926001600160a01b038335169260408101906020013564010000000081111561063157600080fd5b82018360208201111561064357600080fd5b8035906020019184602083028401116401000000008311171561066557600080fd5b91935091506001600160401b0381358116916020810135909116906040013515156118bc565b61032d611de7565b6101f2611df6565b610247611e06565b6102ed600480360360208110156106b957600080fd5b50356001600160a01b03166120d9565b6102476120eb565b610247600480360360208110156106e757600080fd5b50356001600160a01b031661232c565b600754600160c81b900460ff1681565b6002546001600160a01b031681565b600754600160c81b900460ff1661075e5760405162461bcd60e51b8152600401808060200182810382526030815260200180612cb16030913960400191505060405180910390fd5b600754600160c81b900460ff16801561078257506007546001600160401b03164210155b6107bd5760405162461bcd60e51b815260040180806020018281038252602c815260200180612aca602c913960400191505060405180910390fd5b600081116107fc5760405162461bcd60e51b815260040180806020018281038252603a815260200180612af6603a913960400191505060405180910390fd5b600754600160c01b900460ff161561085e57600754600160401b90046001600160401b0316421161085e5760405162461bcd60e51b8152600401808060200182810382526049815260200180612e9f6049913960600191505060405180910390fd5b610866610c8e565b336000908152600b60205260409020548111156108b45760405162461bcd60e51b815260040180806020018281038252604c815260200180612bd5604c913960600191505060405180910390fd5b336000908152600b60205260409020546108ce9082612424565b336000908152600b60205260409020556005546108eb9082612424565b600555600254610905906001600160a01b0316338361246f565b60408051828152905133917f7084f5476618d8e60b11ef0d7d3f06914655adb8793e28ff7f018d4c76d505d5919081900360200190a250565b600754606090600160c81b900460ff166109895760405162461bcd60e51b8152600401808060200182810382526030815260200180612cb16030913960400191505060405180910390fd5b600754600160c81b900460ff1680156109ad57506007546001600160401b03164210155b6109e85760405162461bcd60e51b815260040180806020018281038252602c815260200180612aca602c913960400191505060405180910390fd5b600754600090610a09904290600160401b90046001600160401b03166124c6565b600854909150600090610a28906001600160401b038085169116612424565b6001549091506060906001600160401b0381118015610a4657600080fd5b50604051908082528060200260200182016040528015610a70578160200160208202803683370190505b50905060005b600154811015610c1857600060018281548110610a8f57fe5b60009182526020808320909101546001600160a01b0316808352600690915260409091205460055491925090610ac757506000610b32565b600754600554610b2f91610b2891610aee91600160801b90046001600160401b03166124dc565b6001600160a01b038516600090815260036020526040902054610b2290600160701b90610b1c908b906124dc565b906124dc565b90612535565b8290612577565b90505b6000808211610b42576000610ba0565b6001600160a01b03808a166000908152600c6020908152604080832093871683529290522054610ba090600160701b90610b2290610b81908690612424565b6001600160a01b038d166000908152600b6020526040902054906124dc565b6001600160a01b03808b166000818152600e6020908152604080832094891680845294825280832054938352600d82528083209483529390529190912054919250610bf691610bf0908490612577565b90612424565b858581518110610c0257fe5b6020908102919091010152505050600101610a76565b50505050919050565b600e60209081526000928352604080842090915290825290205481565b60096020526000908152604090205481565b600754600160401b90046001600160401b031681565b600754600160801b90046001600160401b031681565b60036020526000908152604090205481565b600754600160c81b900460ff16610cd65760405162461bcd60e51b8152600401808060200182810382526030815260200180612cb16030913960400191505060405180910390fd5b600754600160c81b900460ff168015610cfa57506007546001600160401b03164210155b610d355760405162461bcd60e51b815260040180806020018281038252602c815260200180612aca602c913960400191505060405180910390fd5b600754600090610d56904290600160401b90046001600160401b03166124c6565b600854909150600090610d75906001600160401b038085169116612424565b905060005b600154811015610fd057600060018281548110610d9357fe5b6000918252602090912001546005546001600160a01b039091169150610e3f576007546001600160a01b038216600090815260036020526040902054610e1391610df491600160801b9091046001600160401b031690610b229087906124dc565b6001600160a01b03831660009081526009602052604090205490612577565b6001600160a01b0382166000908152600960209081526040808320939093556006905290812055610ecd565b600754600554610eb391610e9491610e6691600160801b90046001600160401b03166124dc565b6001600160a01b038416600090815260036020526040902054610b2290600160701b90610b1c9089906124dc565b6001600160a01b03831660009081526006602052604090205490612577565b6001600160a01b0382166000908152600660205260409020555b6001600160a01b038116600090815260066020526040812054610ef1576000610f4c565b336000908152600c602090815260408083206001600160a01b0386168452825280832054600690925290912054610f4c91600160701b91610b2291610f369190612424565b336000908152600b6020526040902054906124dc565b336000908152600d602090815260408083206001600160a01b0387168452909152902054909150610f7d9082612577565b336000818152600d602090815260408083206001600160a01b0397909716808452968252808320949094556006815283822054928252600c81528382209582529490945292209190915550600101610d7a565b50506008805467ffffffffffffffff19166001600160401b0392909216919091179055565b610ffd6125d1565b6000546001600160a01b0390811691161461104d576040805162461bcd60e51b81526020600482018190526024820152600080516020612d02833981519152604482015290519081900360640190fd5b600080546040516001600160a01b03909116907f8be0079c531659141344cd1fd0a4f28419497f9722a3daafe3b4186f6b6457e0908390a3600080546001600160a01b0319169055565b600d60209081526000928352604080842090915290825290205481565b600c60209081526000928352604080842090915290825290205481565b600754600160c81b900460ff166111195760405162461bcd60e51b8152600401808060200182810382526030815260200180612cb16030913960400191505060405180910390fd5b600754600160c81b900460ff16801561113d57506007546001600160401b03164210155b6111785760405162461bcd60e51b815260040180806020018281038252602c815260200180612aca602c913960400191505060405180910390fd5b611180610c8e565b6001546060906001600160401b038111801561119b57600080fd5b506040519080825280602002602001820160405280156111c5578160200160208202803683370190505b50905060005b600154811015611268576000600182815481106111e457fe5b600091825260208083209091015433808452600e835260408085206001600160a01b0390931680865292845280852054918552600d8452808520838652909352918320549093508392916112389190612424565b90506112458382886125d5565b8085858151811061125257fe5b60209081029190910101525050506001016111cb565b50604080516020808252835181830152835133937f28ee566bdecaf975c0979f4d09fecf91a9009ffe78523aef053a678134137b8b93869390928392830191808601910280838360005b838110156112ca5781810151838201526020016112b2565b505050509050019250505060405180910390a25050565b600181815481106112ee57fe5b6000918252602090912001546001600160a01b0316905081565b6007546001600160401b031681565b600754600160c81b900460ff1661135f5760405162461bcd60e51b8152600401808060200182810382526030815260200180612cb16030913960400191505060405180910390fd5b600754600160c81b900460ff16801561138357506007546001600160401b03164210155b6113be5760405162461bcd60e51b815260040180806020018281038252602c815260200180612aca602c913960400191505060405180910390fd5b6001548251146113ff5760405162461bcd60e51b815260040180806020018281038252603d815260200180612a8d603d913960400191505060405180910390fd5b611407610c8e565b6001546060906001600160401b038111801561142257600080fd5b5060405190808252806020026020018201604052801561144c578160200160208202803683370190505b50905060005b60015481101561154b5760006001828154811061146b57fe5b600091825260208083209091015433808452600e835260408085206001600160a01b0390931680865292845280852054918552600d8452808520838652909352918320549093508392916114bf9190612424565b905060008785815181106114cf57fe5b60200260200101519050808210156115185760405162461bcd60e51b815260040180806020018281038252603e815260200180612b30603e913960400191505060405180910390fd5b6115238482896125d5565b8086868151811061153057fe5b60209081029190910101525050600190920191506114529050565b50604080516020808252835181830152835133937f28ee566bdecaf975c0979f4d09fecf91a9009ffe78523aef053a678134137b8b93869390928392830191808601910280838360005b838110156115ad578181015183820152602001611595565b505050509050019250505060405180910390a2505050565b6000546001600160a01b031690565b60066020526000908152604090205481565b600a6020526000908152604090205481565b600754600160c81b900460ff166116405760405162461bcd60e51b8152600401808060200182810382526030815260200180612cb16030913960400191505060405180910390fd5b600754600160c81b900460ff16801561166457506007546001600160401b03164210155b61169f5760405162461bcd60e51b815260040180806020018281038252602c815260200180612aca602c913960400191505060405180910390fd5b600754600160c81b900460ff1680156116ca5750600754600160401b90046001600160401b03164211155b6117055760405162461bcd60e51b815260040180806020018281038252602e815260200180612e36602e913960400191505060405180910390fd5b600081116117445760405162461bcd60e51b8152600401808060200182810382526037815260200180612dc36037913960400191505060405180910390fd5b61174c610c8e565b336000908152600b60205260409020546117669082612577565b336000908152600b60205260409020556005546117839082612577565b60055560025461179e906001600160a01b0316333084612661565b60408051828152905133917f9e71bc8eea02a63969f509818f2dafb9254532904319f9dbda79b67bd34a5f3d919081900360200190a250565b600b6020526000908152604090205481565b60055481565b60015460609081906001600160401b038111801561180c57600080fd5b50604051908082528060200260200182016040528015611836578160200160208202803683370190505b50905060005b6001548110156118b5576001600160a01b0384166000908152600e60205260408120600180549192918490811061186f57fe5b60009182526020808320909101546001600160a01b0316835282019290925260400190205482518390839081106118a257fe5b602090810291909101015260010161183c565b5092915050565b6118c46125d1565b6000546001600160a01b03908116911614611914576040805162461bcd60e51b81526020600482018190526024820152600080516020612d02833981519152604482015290519081900360640190fd5b600754600160c81b900460ff161561195d5760405162461bcd60e51b8152600401808060200182810382526034815260200180612c7d6034913960400191505060405180910390fd5b42836001600160401b0316116119a45760405162461bcd60e51b815260040180806020018281038252603b815260200180612e64603b913960400191505060405180910390fd5b826001600160401b0316826001600160401b0316116119f45760405162461bcd60e51b8152600401808060200182810382526036815260200180612c216036913960400191505060405180910390fd5b868414611a325760405162461bcd60e51b8152600401808060200182810382526041815260200180612b946041913960600191505060405180910390fd5b6007805467ffffffffffffffff60801b1916600160801b8585036001600160401b03160217905560005b63ffffffff8116881115611c4257600089898363ffffffff16818110611a7e57fe5b905060200201356001600160a01b03169050600087878463ffffffff16818110611aa457fe5b60200291909101359150506001600160a01b038216611af45760405162461bcd60e51b815260040180806020018281038252603a815260200180612d22603a913960400191505060405180910390fd5b60008111611b335760405162461bcd60e51b815260040180806020018281038252602a815260200180612d5c602a913960400191505060405180910390fd5b604080516370a0823160e01b81523060048201529051839183916001600160a01b038416916370a08231916024808301926020929190829003018186803b158015611b7d57600080fd5b505afa158015611b91573d6000803e3d6000fd5b505050506040513d6020811015611ba757600080fd5b50511015611be65760405162461bcd60e51b815260040180806020018281038252602b815260200180612f12602b913960400191505060405180910390fd5b6001805480820182557fb10e2d527612073b26eecdfd717e6a320cf44b4afac2b0732d9fcbe2b7fa0cf60180546001600160a01b0319166001600160a01b03938416179055921660009081526003602052604090205501611a5c565b506001600160a01b038616611c885760405162461bcd60e51b815260040180806020018281038252603c815260200180612dfa603c913960400191505060405180910390fd5b600280546001600160a01b0319166001600160a01b03881690811790915560078054600880546001600160401b0388811667ffffffffffffffff199283168117909355600160c81b9190931682176fffffffffffffffff00000000000000001916600160401b9388169384021760ff60c01b1916600160c01b8715159081029190911760ff60c81b191691909117909355604080516020808201969096526060810192909252608082019290925260a081019290925260c080835282018a90527fe0447a394d11ec1fdc78a0ee3f2ce94c11fcfcf256a283544638f918f2df2800928b928b928b928b928b928b928b928b929091829182019060e08301908c908c0280828437600083820152601f01601f19169091018481038352888152602090810191508990890280828437600083820152604051601f909101601f19169092018290039c50909a5050505050505050505050a15050505050505050565b6008546001600160401b031681565b600754600160c01b900460ff1681565b600754600160c81b900460ff16611e4e5760405162461bcd60e51b8152600401808060200182810382526030815260200180612cb16030913960400191505060405180910390fd5b600754600160c81b900460ff168015611e7257506007546001600160401b03164210155b611ead5760405162461bcd60e51b815260040180806020018281038252602c815260200180612aca602c913960400191505060405180910390fd5b611eb5610c8e565b6001546060816001600160401b0381118015611ed057600080fd5b50604051908082528060200260200182016040528015611efa578160200160208202803683370190505b50905060005b8281101561205f57600060018281548110611f1757fe5b60009182526020808320909101546001600160a01b031680835260098252604080842054600a909352909220549192508291611f5291612577565b6001600160a01b0382166000908152600a6020908152604080832084905560039091528120549091611f849190612424565b6001600160a01b03808416600090815260096020908152604080832083905580516370a0823160e01b815230600482015290519495509193612018938693908916926370a0823192602480840193829003018186803b158015611fe657600080fd5b505afa158015611ffa573d6000803e3d6000fd5b505050506040513d602081101561201057600080fd5b505190612424565b90508086868151811061202757fe5b60200260200101818152505061204f61203e6115c5565b6001600160a01b038616908361246f565b505060019092019150611f009050565b507ff904fafa600a7e4e8039f3a5497d1b6016772e3060f87d3e40f911b315f00bd1816040518080602001828103825283818151815260200191508051906020019060200280838360005b838110156120c25781810151838201526020016120aa565b505050509050019250505060405180910390a15050565b60046020526000908152604090205481565b600754600160c81b900460ff166121335760405162461bcd60e51b8152600401808060200182810382526030815260200180612cb16030913960400191505060405180910390fd5b61213b6125d1565b6000546001600160a01b0390811691161461218b576040805162461bcd60e51b81526020600482018190526024820152600080516020612d02833981519152604482015290519081900360640190fd5b6007546001600160401b031642106121d45760405162461bcd60e51b815260040180806020018281038252603d815260200180612d86603d913960400191505060405180910390fd5b60005b6001548110156122b0576000600182815481106121f057fe5b60009182526020808320909101546001600160a01b03168083526003909152604082209190915590506122a76122246115c5565b604080516370a0823160e01b815230600482015290516001600160a01b038516916370a08231916024808301926020929190829003018186803b15801561226a57600080fd5b505afa15801561227e573d6000803e3d6000fd5b505050506040513d602081101561229457600080fd5b50516001600160a01b038416919061246f565b506001016121d7565b506122bd60016000612a52565b600280546001600160a01b0319169055600780546008805467ffffffffffffffff1916905579ffff0000000000000000ffffffffffffffffffffffffffffffff191690556040517f1afb0ae590df277bcb3a37f88612725bf1f7df4755792b1548a7efe77985ff7790600090a1565b6123346125d1565b6000546001600160a01b03908116911614612384576040805162461bcd60e51b81526020600482018190526024820152600080516020612d02833981519152604482015290519081900360640190fd5b6001600160a01b0381166123c95760405162461bcd60e51b8152600401808060200182810382526026815260200180612b6e6026913960400191505060405180910390fd5b600080546040516001600160a01b03808516939216917f8be0079c531659141344cd1fd0a4f28419497f9722a3daafe3b4186f6b6457e091a3600080546001600160a01b0319166001600160a01b0392909216919091179055565b600061246683836040518060400160405280601e81526020017f536166654d6174683a207375627472616374696f6e206f766572666c6f7700008152506126c1565b90505b92915050565b604080516001600160a01b038416602482015260448082018490528251808303909101815260649091019091526020810180516001600160e01b031663a9059cbb60e01b1790526124c190849061275d565b505050565b60008183106124d55781612466565b5090919050565b6000826124eb57506000612469565b828202828482816124f857fe5b04146124665760405162461bcd60e51b8152600401808060200182810382526021815260200180612ce16021913960400191505060405180910390fd5b600061246683836040518060400160405280601a81526020017f536166654d6174683a206469766973696f6e206279207a65726f00000000000081525061280e565b600082820183811015612466576040805162461bcd60e51b815260206004820152601b60248201527f536166654d6174683a206164646974696f6e206f766572666c6f770000000000604482015290519081900360640190fd5b3390565b336000908152600e602090815260408083206001600160a01b03871684529091529020546126039083612577565b336000908152600e602090815260408083206001600160a01b0388168452825280832093909355600a9052205461263a9083612577565b6001600160a01b0384166000818152600a60205260409020919091556124c190828461246f565b604080516001600160a01b0380861660248301528416604482015260648082018490528251808303909101815260849091019091526020810180516001600160e01b03166323b872dd60e01b1790526126bb90859061275d565b50505050565b600081848411156127505760405162461bcd60e51b81526004018080602001828103825283818151815260200191508051906020019080838360005b838110156127155781810151838201526020016126fd565b50505050905090810190601f1680156127425780820380516001836020036101000a031916815260200191505b509250505060405180910390fd5b50508183035b9392505050565b60606127b2826040518060400160405280602081526020017f5361666545524332303a206c6f772d6c6576656c2063616c6c206661696c6564815250856001600160a01b03166128739092919063ffffffff16565b8051909150156124c1578080602001905160208110156127d157600080fd5b50516124c15760405162461bcd60e51b815260040180806020018281038252602a815260200180612ee8602a913960400191505060405180910390fd5b6000818361285d5760405162461bcd60e51b81526020600482018181528351602484015283519092839260449091019190850190808383600083156127155781810151838201526020016126fd565b50600083858161286957fe5b0495945050505050565b6060612882848460008561288a565b949350505050565b6060824710156128cb5760405162461bcd60e51b8152600401808060200182810382526026815260200180612c576026913960400191505060405180910390fd5b6128d4856129e6565b612925576040805162461bcd60e51b815260206004820152601d60248201527f416464726573733a2063616c6c20746f206e6f6e2d636f6e7472616374000000604482015290519081900360640190fd5b60006060866001600160a01b031685876040518082805190602001908083835b602083106129645780518252601f199092019160209182019101612945565b6001836020036101000a03801982511681845116808217855250505050505090500191505060006040518083038185875af1925050503d80600081146129c6576040519150601f19603f3d011682016040523d82523d6000602084013e6129cb565b606091505b50915091506129db8282866129ec565b979650505050505050565b3b151590565b606083156129fb575081612756565b825115612a0b5782518084602001fd5b60405162461bcd60e51b81526020600482018181528451602484015284518593919283926044019190850190808383600083156127155781810151838201526020016126fd565b5080546000825590600052602060002090810190612a709190612a73565b50565b5b80821115612a885760008155600101612a74565b509056fe45524332305374616b696e6752657761726473446973747269627574696f6e3a20696e636f6e73697374656e7420636c61696d656420616d6f756e747345524332305374616b696e6752657761726473446973747269627574696f6e3a206e6f74207374617274656445524332305374616b696e6752657761726473446973747269627574696f6e3a20747269656420746f207769746864726177206e6f7468696e6745524332305374616b696e6752657761726473446973747269627574696f6e3a20696e73756666696369656e7420636c61696d61626c6520616d6f756e744f776e61626c653a206e6577206f776e657220697320746865207a65726f206164647265737345524332305374616b696e6752657761726473446973747269627574696f6e3a20696e636f6e73697374656e742072657761726420746f6b656e2f616d6f756e7445524332305374616b696e6752657761726473446973747269627574696f6e3a2077697468647261776e20616d6f756e742067726561746572207468616e2063757272656e74207374616b6545524332305374616b696e6752657761726473446973747269627574696f6e3a20696e76616c69642074696d65206475726174696f6e416464726573733a20696e73756666696369656e742062616c616e636520666f722063616c6c45524332305374616b696e6752657761726473446973747269627574696f6e3a20616c726561647920696e697469616c697a656445524332305374616b696e6752657761726473446973747269627574696f6e3a206e6f7420696e697469616c697a6564536166654d6174683a206d756c7469706c69636174696f6e206f766572666c6f774f776e61626c653a2063616c6c6572206973206e6f7420746865206f776e657245524332305374616b696e6752657761726473446973747269627574696f6e3a203020616464726573732061732072657761726420746f6b656e45524332305374616b696e6752657761726473446973747269627574696f6e3a206e6f2072657761726445524332305374616b696e6752657761726473446973747269627574696f6e3a20646973747269627574696f6e20616c7265616479207374617274656445524332305374616b696e6752657761726473446973747269627574696f6e3a20747269656420746f207374616b65206e6f7468696e6745524332305374616b696e6752657761726473446973747269627574696f6e3a20302061646472657373206173207374616b61626c6520746f6b656e45524332305374616b696e6752657761726473446973747269627574696f6e3a20616c726561647920656e64656445524332305374616b696e6752657761726473446973747269627574696f6e3a20696e76616c6964207374617274696e672074696d657374616d7045524332305374616b696e6752657761726473446973747269627574696f6e3a2066756e6473206c6f636b656420756e74696c2074686520646973747269627574696f6e20656e64735361666545524332303a204552433230206f7065726174696f6e20646964206e6f74207375636365656445524332305374616b696e6752657761726473446973747269627574696f6e3a206e6f2066756e64696e67a2646970667358221220b212793b1cc46f7a7dd9a84e43a3afda75cd688be6894a22985753253b997e8364736f6c634300060c0033",
  "immutableReferences": {},
  "source": "// SPDX-License-Identifier: GPL-3.0\n\npragma solidity ^0.6.12;\n\nimport \"@openzeppelin/contracts/math/SafeMath.sol\";\nimport \"@openzeppelin/contracts/math/Math.sol\";\nimport \"@openzeppelin/contracts/token/ERC20/ERC20.sol\";\nimport \"@openzeppelin/contracts/token/ERC20/SafeERC20.sol\";\nimport \"@openzeppelin/contracts/access/Ownable.sol\";\n\ncontract ERC20StakingRewardsDistribution is Ownable {\n    using SafeMath for uint256;\n    using SafeMath for uint64;\n    using SafeERC20 for ERC20;\n\n    uint224 constant MULTIPLIER = 2**112;\n\n    ERC20[] public rewardTokens;\n    ERC20 public stakableToken;\n    mapping(address => uint256) public rewardAmount;\n    mapping(address => uint256) public stakedTokenAmount;\n    uint256 public totalStakedTokensAmount;\n    mapping(address => uint256) public rewardPerStakedToken;\n    uint64 public startingTimestamp;\n    uint64 public endingTimestamp;\n    uint64 public secondsDuration;\n    bool public locked;\n    bool public initialized;\n    uint64 public lastConsolidationTimestamp;\n    mapping(address => uint256) public recoverableUnassignedReward;\n    mapping(address => uint256) public totalClaimedRewards;\n\n    mapping(address => uint256) public stakedTokensOf;\n    mapping(address => mapping(address => uint256))\n        public consolidatedRewardsPerStakedToken;\n    mapping(address => mapping(address => uint256)) public earnedRewards;\n    mapping(address => mapping(address => uint256)) public claimedReward;\n\n    event Initialized(\n        address[] rewardsTokenAddresses,\n        address stakableTokenAddress,\n        uint256[] rewardsAmounts,\n        uint64 startingTimestamp,\n        uint64 endingTimestamp,\n        bool locked\n    );\n    event Canceled();\n    event Staked(address indexed staker, uint256 amount);\n    event Withdrawn(address indexed withdrawer, uint256 amount);\n    event Claimed(address indexed claimer, uint256[] amounts);\n    event Recovered(uint256[] amounts);\n\n    function getClaimedRewards(address _claimer)\n        external\n        view\n        returns (uint256[] memory)\n    {\n        uint256[] memory _claimedRewards = new uint256[](rewardTokens.length);\n        for (uint256 _i = 0; _i < rewardTokens.length; _i++) {\n            _claimedRewards[_i] = claimedReward[_claimer][\n                address(rewardTokens[_i])\n            ];\n        }\n        return _claimedRewards;\n    }\n\n    function initialize(\n        address[] calldata _rewardTokenAddresses,\n        address _stakableTokenAddress,\n        uint256[] calldata _rewardAmounts,\n        uint64 _startingTimestamp,\n        uint64 _endingTimestamp,\n        bool _locked\n    ) external onlyOwner onlyUninitialized {\n        require(\n            _startingTimestamp > block.timestamp,\n            \"ERC20StakingRewardsDistribution: invalid starting timestamp\"\n        );\n        require(\n            _endingTimestamp > _startingTimestamp,\n            \"ERC20StakingRewardsDistribution: invalid time duration\"\n        );\n        require(\n            _rewardTokenAddresses.length == _rewardAmounts.length,\n            \"ERC20StakingRewardsDistribution: inconsistent reward token/amount\"\n        );\n\n        secondsDuration = _endingTimestamp - _startingTimestamp;\n        // Initializing reward tokens and amounts\n        for (uint32 _i = 0; _i < _rewardTokenAddresses.length; _i++) {\n            address _rewardTokenAddress = _rewardTokenAddresses[_i];\n            uint256 _rewardAmount = _rewardAmounts[_i];\n            require(\n                _rewardTokenAddress != address(0),\n                \"ERC20StakingRewardsDistribution: 0 address as reward token\"\n            );\n            require(\n                _rewardAmount > 0,\n                \"ERC20StakingRewardsDistribution: no reward\"\n            );\n            ERC20 _rewardToken = ERC20(_rewardTokenAddress);\n            require(\n                _rewardToken.balanceOf(address(this)) >= _rewardAmount,\n                \"ERC20StakingRewardsDistribution: no funding\"\n            );\n            rewardTokens.push(_rewardToken);\n            rewardAmount[_rewardTokenAddress] = _rewardAmount;\n        }\n\n        require(\n            _stakableTokenAddress != address(0),\n            \"ERC20StakingRewardsDistribution: 0 address as stakable token\"\n        );\n        stakableToken = ERC20(_stakableTokenAddress);\n\n        startingTimestamp = _startingTimestamp;\n        endingTimestamp = _endingTimestamp;\n        lastConsolidationTimestamp = _startingTimestamp;\n        locked = _locked;\n\n        initialized = true;\n        emit Initialized(\n            _rewardTokenAddresses,\n            _stakableTokenAddress,\n            _rewardAmounts,\n            _startingTimestamp,\n            _endingTimestamp,\n            _locked\n        );\n    }\n\n    function cancel() external onlyInitialized onlyOwner {\n        require(\n            block.timestamp < startingTimestamp,\n            \"ERC20StakingRewardsDistribution: distribution already started\"\n        );\n        // resetting reward information (both tokens and amounts)\n        for (uint256 _i; _i < rewardTokens.length; _i++) {\n            ERC20 _rewardToken = rewardTokens[_i];\n            delete rewardAmount[address(_rewardToken)];\n            _rewardToken.safeTransfer(\n                owner(),\n                _rewardToken.balanceOf(address(this))\n            );\n        }\n        delete rewardTokens;\n        delete stakableToken;\n        startingTimestamp = 0;\n        endingTimestamp = 0;\n        lastConsolidationTimestamp = 0;\n        initialized = false;\n        locked = false;\n        emit Canceled();\n    }\n\n    function recoverUnassignedRewards() external onlyInitialized onlyStarted {\n        consolidateReward();\n        uint256 _numberOfRewardsTokens = rewardTokens.length;\n        uint256[] memory _recoveredUnassignedRewards =\n            new uint256[](_numberOfRewardsTokens);\n        for (uint256 _i; _i < _numberOfRewardsTokens; _i++) {\n            ERC20 _relatedRewardToken = rewardTokens[_i];\n            address _relatedRewardTokenAddress = address(_relatedRewardToken);\n            // recoverable rewards are going to be recovered in this tx (if it does not revert),\n            // so we add them to the claimed rewards right now\n            totalClaimedRewards[\n                _relatedRewardTokenAddress\n            ] = totalClaimedRewards[_relatedRewardTokenAddress].add(\n                recoverableUnassignedReward[_relatedRewardTokenAddress]\n            );\n            uint256 _requiredFunding =\n                rewardAmount[_relatedRewardTokenAddress].sub(\n                    totalClaimedRewards[_relatedRewardTokenAddress]\n                );\n            delete recoverableUnassignedReward[_relatedRewardTokenAddress];\n            uint256 _recoverableRewards =\n                _relatedRewardToken.balanceOf(address(this)).sub(\n                    _requiredFunding\n                );\n            _recoveredUnassignedRewards[_i] = _recoverableRewards;\n            _relatedRewardToken.safeTransfer(owner(), _recoverableRewards);\n        }\n        emit Recovered(_recoveredUnassignedRewards);\n    }\n\n    function stake(uint256 _amount)\n        external\n        onlyInitialized\n        onlyStarted\n        onlyRunning\n    {\n        require(\n            _amount > 0,\n            \"ERC20StakingRewardsDistribution: tried to stake nothing\"\n        );\n        consolidateReward();\n        stakedTokensOf[msg.sender] = stakedTokensOf[msg.sender].add(_amount);\n        totalStakedTokensAmount = totalStakedTokensAmount.add(_amount);\n        stakableToken.safeTransferFrom(msg.sender, address(this), _amount);\n        emit Staked(msg.sender, _amount);\n    }\n\n    function withdraw(uint256 _amount) external onlyInitialized onlyStarted {\n        require(\n            _amount > 0,\n            \"ERC20StakingRewardsDistribution: tried to withdraw nothing\"\n        );\n        if (locked) {\n            require(\n                block.timestamp > endingTimestamp,\n                \"ERC20StakingRewardsDistribution: funds locked until the distribution ends\"\n            );\n        }\n        consolidateReward();\n        require(\n            _amount <= stakedTokensOf[msg.sender],\n            \"ERC20StakingRewardsDistribution: withdrawn amount greater than current stake\"\n        );\n        stakedTokensOf[msg.sender] = stakedTokensOf[msg.sender].sub(_amount);\n        totalStakedTokensAmount = totalStakedTokensAmount.sub(_amount);\n        stakableToken.safeTransfer(msg.sender, _amount);\n        emit Withdrawn(msg.sender, _amount);\n    }\n\n    function claim(uint256[] memory _amounts, address _recipient)\n        external\n        onlyInitialized\n        onlyStarted\n    {\n        require(\n            _amounts.length == rewardTokens.length,\n            \"ERC20StakingRewardsDistribution: inconsistent claimed amounts\"\n        );\n        consolidateReward();\n        uint256[] memory _claimedRewards = new uint256[](rewardTokens.length);\n        for (uint256 _i; _i < rewardTokens.length; _i++) {\n            ERC20 _relatedRewardToken = rewardTokens[_i];\n            address _relatedRewardTokenAddress = address(_relatedRewardToken);\n            uint256 _claimableReward =\n                earnedRewards[msg.sender][_relatedRewardTokenAddress].sub(\n                    claimedReward[msg.sender][_relatedRewardTokenAddress]\n                );\n            uint256 _wantedAmount = _amounts[_i];\n            require(\n                _claimableReward >= _wantedAmount,\n                \"ERC20StakingRewardsDistribution: insufficient claimable amount\"\n            );\n            consolidateAndTransferClaim(\n                _relatedRewardToken,\n                _wantedAmount,\n                _recipient\n            );\n            _claimedRewards[_i] = _wantedAmount;\n        }\n        emit Claimed(msg.sender, _claimedRewards);\n    }\n\n    function claimAll(address _recipient) external onlyInitialized onlyStarted {\n        consolidateReward();\n        uint256[] memory _claimedRewards = new uint256[](rewardTokens.length);\n        for (uint256 _i; _i < rewardTokens.length; _i++) {\n            ERC20 _relatedRewardToken = rewardTokens[_i];\n            address _relatedRewardTokenAddress = address(_relatedRewardToken);\n            uint256 _claimableReward =\n                earnedRewards[msg.sender][_relatedRewardTokenAddress].sub(\n                    claimedReward[msg.sender][_relatedRewardTokenAddress]\n                );\n            consolidateAndTransferClaim(\n                _relatedRewardToken,\n                _claimableReward,\n                _recipient\n            );\n            _claimedRewards[_i] = _claimableReward;\n        }\n        emit Claimed(msg.sender, _claimedRewards);\n    }\n\n    function consolidateAndTransferClaim(\n        ERC20 _rewardToken,\n        uint256 _amount,\n        address _recipient\n    ) private {\n        claimedReward[msg.sender][address(_rewardToken)] = claimedReward[\n            msg.sender\n        ][address(_rewardToken)]\n            .add(_amount);\n        totalClaimedRewards[address(_rewardToken)] = totalClaimedRewards[\n            address(_rewardToken)\n        ]\n            .add(_amount);\n        _rewardToken.safeTransfer(_recipient, _amount);\n    }\n\n    function consolidateReward() public onlyInitialized onlyStarted {\n        uint64 _consolidationTimestamp =\n            uint64(Math.min(block.timestamp, endingTimestamp));\n        uint256 _lastPeriodDuration =\n            uint256(_consolidationTimestamp.sub(lastConsolidationTimestamp));\n        for (uint256 _i; _i < rewardTokens.length; _i++) {\n            address _relatedRewardTokenAddress = address(rewardTokens[_i]);\n            if (totalStakedTokensAmount == 0) {\n                // If the current staked tokens amount is zero, there have been unassigned rewards in the last period.\n                // We add these unassigned rewards to the amount that can be claimed back by the contract's owner.\n                recoverableUnassignedReward[\n                    _relatedRewardTokenAddress\n                ] = recoverableUnassignedReward[_relatedRewardTokenAddress].add(\n                    _lastPeriodDuration\n                        .mul(rewardAmount[_relatedRewardTokenAddress])\n                        .div(secondsDuration)\n                );\n                rewardPerStakedToken[_relatedRewardTokenAddress] = 0;\n            } else {\n                rewardPerStakedToken[\n                    _relatedRewardTokenAddress\n                ] = rewardPerStakedToken[_relatedRewardTokenAddress].add(\n                    _lastPeriodDuration\n                        .mul(rewardAmount[_relatedRewardTokenAddress])\n                        .mul(MULTIPLIER)\n                        .div(totalStakedTokensAmount.mul(secondsDuration))\n                );\n            }\n            // avoids subtraction underflow. If the rewards per staked tokens are 0,\n            // the rewards in current period must be 0 by definition, no need to\n            // perform subtraction risking underflow.\n            uint256 _rewardInCurrentPeriod =\n                rewardPerStakedToken[_relatedRewardTokenAddress] > 0\n                    ? stakedTokensOf[msg.sender]\n                        .mul(\n                        rewardPerStakedToken[_relatedRewardTokenAddress].sub(\n                            consolidatedRewardsPerStakedToken[msg.sender][\n                                _relatedRewardTokenAddress\n                            ]\n                        )\n                    )\n                        .div(MULTIPLIER)\n                    : 0;\n            earnedRewards[msg.sender][\n                _relatedRewardTokenAddress\n            ] = earnedRewards[msg.sender][_relatedRewardTokenAddress].add(\n                _rewardInCurrentPeriod\n            );\n            consolidatedRewardsPerStakedToken[msg.sender][\n                _relatedRewardTokenAddress\n            ] = rewardPerStakedToken[_relatedRewardTokenAddress];\n        }\n        lastConsolidationTimestamp = _consolidationTimestamp;\n    }\n\n    function getClaimableRewards(address _staker)\n        public\n        view\n        onlyInitialized\n        onlyStarted\n        returns (uint256[] memory)\n    {\n        uint64 _consolidationTimestamp =\n            uint64(Math.min(block.timestamp, endingTimestamp));\n        uint256 _lastPeriodDuration =\n            uint256(_consolidationTimestamp.sub(lastConsolidationTimestamp));\n        uint256[] memory _outstandingRewards =\n            new uint256[](rewardTokens.length);\n        for (uint256 _i; _i < rewardTokens.length; _i++) {\n            address _relatedRewardTokenAddress = address(rewardTokens[_i]);\n            uint256 _localRewardPerStakedToken =\n                rewardPerStakedToken[_relatedRewardTokenAddress];\n            if (totalStakedTokensAmount == 0) {\n                _localRewardPerStakedToken = 0;\n            } else {\n                _localRewardPerStakedToken = _localRewardPerStakedToken.add(\n                    _lastPeriodDuration\n                        .mul(rewardAmount[_relatedRewardTokenAddress])\n                        .mul(MULTIPLIER)\n                        .div(totalStakedTokensAmount.mul(secondsDuration))\n                );\n            }\n            uint256 _rewardsInTheCurrentPeriod =\n                _localRewardPerStakedToken > 0\n                    ? stakedTokensOf[_staker]\n                        .mul(\n                        _localRewardPerStakedToken.sub(\n                            consolidatedRewardsPerStakedToken[_staker][\n                                _relatedRewardTokenAddress\n                            ]\n                        )\n                    )\n                        .div(MULTIPLIER)\n                    : 0;\n            // the claimable reward basically is the one not yet consolidated in the current period plus any previously consolidated, unclaimed reward\n            _outstandingRewards[_i] = _rewardsInTheCurrentPeriod\n                .add(earnedRewards[_staker][_relatedRewardTokenAddress])\n                .sub(claimedReward[_staker][_relatedRewardTokenAddress]);\n        }\n    }\n\n    modifier onlyUninitialized() {\n        require(\n            !initialized,\n            \"ERC20StakingRewardsDistribution: already initialized\"\n        );\n        _;\n    }\n\n    modifier onlyInitialized() {\n        require(\n            initialized,\n            \"ERC20StakingRewardsDistribution: not initialized\"\n        );\n        _;\n    }\n\n    modifier onlyStarted() {\n        require(\n            initialized && block.timestamp >= startingTimestamp,\n            \"ERC20StakingRewardsDistribution: not started\"\n        );\n        _;\n    }\n\n    modifier onlyRunning() {\n        require(\n            initialized && block.timestamp <= endingTimestamp,\n            \"ERC20StakingRewardsDistribution: already ended\"\n        );\n        _;\n    }\n}\n",
  "sourcePath": "/home/luzzif/Projects/swapr-lp-staker/contracts/ERC20StakingRewardsDistribution.sol",
  "compiler": {
    "name": "solc",
    "version": "0.6.12+commit.27d51765.Emscripten.clang"
  },
  "schemaVersion": "3.3.3",
  "updatedAt": "2021-03-11T12:07:44.754Z",
  "devdoc": {
    "kind": "dev",
    "methods": {
      "owner()": {
        "details": "Returns the address of the current owner."
      },
      "renounceOwnership()": {
        "details": "Leaves the contract without owner. It will not be possible to call `onlyOwner` functions anymore. Can only be called by the current owner. NOTE: Renouncing ownership will leave the contract without an owner, thereby removing any functionality that is only available to the owner."
      },
      "transferOwnership(address)": {
        "details": "Transfers ownership of the contract to a new account (`newOwner`). Can only be called by the current owner."
      }
    },
    "version": 1
  },
  "userdoc": {
    "kind": "user",
    "methods": {},
    "version": 1
  }
}