{
  "contractName": "ERC20StakingRewardsDistribution",
  "abi": [
    {
      "anonymous": false,
      "inputs": [],
      "name": "Canceled",
      "type": "event"
    },
    {
      "anonymous": false,
      "inputs": [
        {
          "indexed": true,
          "internalType": "address",
          "name": "claimer",
          "type": "address"
        },
        {
          "indexed": false,
          "internalType": "uint256[]",
          "name": "amounts",
          "type": "uint256[]"
        }
      ],
      "name": "Claimed",
      "type": "event"
    },
    {
      "anonymous": false,
      "inputs": [
        {
          "indexed": false,
          "internalType": "address[]",
          "name": "rewardsTokenAddresses",
          "type": "address[]"
        },
        {
          "indexed": false,
          "internalType": "address",
          "name": "stakableTokenAddress",
          "type": "address"
        },
        {
          "indexed": false,
          "internalType": "uint256[]",
          "name": "rewardsAmounts",
          "type": "uint256[]"
        },
        {
          "indexed": false,
          "internalType": "uint64",
          "name": "startingTimestamp",
          "type": "uint64"
        },
        {
          "indexed": false,
          "internalType": "uint64",
          "name": "endingTimestamp",
          "type": "uint64"
        },
        {
          "indexed": false,
          "internalType": "bool",
          "name": "locked",
          "type": "bool"
        },
        {
          "indexed": false,
          "internalType": "uint256",
          "name": "stakingCap",
          "type": "uint256"
        }
      ],
      "name": "Initialized",
      "type": "event"
    },
    {
      "anonymous": false,
      "inputs": [
        {
          "indexed": true,
          "internalType": "address",
          "name": "previousOwner",
          "type": "address"
        },
        {
          "indexed": true,
          "internalType": "address",
          "name": "newOwner",
          "type": "address"
        }
      ],
      "name": "OwnershipTransferred",
      "type": "event"
    },
    {
      "anonymous": false,
      "inputs": [
        {
          "indexed": false,
          "internalType": "uint256[]",
          "name": "amounts",
          "type": "uint256[]"
        }
      ],
      "name": "Recovered",
      "type": "event"
    },
    {
      "anonymous": false,
      "inputs": [
        {
          "indexed": true,
          "internalType": "address",
          "name": "staker",
          "type": "address"
        },
        {
          "indexed": false,
          "internalType": "uint256",
          "name": "amount",
          "type": "uint256"
        }
      ],
      "name": "Staked",
      "type": "event"
    },
    {
      "anonymous": false,
      "inputs": [
        {
          "indexed": true,
          "internalType": "address",
          "name": "withdrawer",
          "type": "address"
        },
        {
          "indexed": false,
          "internalType": "uint256",
          "name": "amount",
          "type": "uint256"
        }
      ],
      "name": "Withdrawn",
      "type": "event"
    },
    {
      "inputs": [],
      "name": "endingTimestamp",
      "outputs": [
        {
          "internalType": "uint64",
          "name": "",
          "type": "uint64"
        }
      ],
      "stateMutability": "view",
      "type": "function"
    },
    {
      "inputs": [],
      "name": "initialized",
      "outputs": [
        {
          "internalType": "bool",
          "name": "",
          "type": "bool"
        }
      ],
      "stateMutability": "view",
      "type": "function"
    },
    {
      "inputs": [],
      "name": "lastConsolidationTimestamp",
      "outputs": [
        {
          "internalType": "uint64",
          "name": "",
          "type": "uint64"
        }
      ],
      "stateMutability": "view",
      "type": "function"
    },
    {
      "inputs": [],
      "name": "locked",
      "outputs": [
        {
          "internalType": "bool",
          "name": "",
          "type": "bool"
        }
      ],
      "stateMutability": "view",
      "type": "function"
    },
    {
      "inputs": [],
      "name": "owner",
      "outputs": [
        {
          "internalType": "address",
          "name": "",
          "type": "address"
        }
      ],
      "stateMutability": "view",
      "type": "function"
    },
    {
      "inputs": [
        {
          "internalType": "uint256",
          "name": "",
          "type": "uint256"
        }
      ],
      "name": "rewards",
      "outputs": [
        {
          "internalType": "address",
          "name": "token",
          "type": "address"
        },
        {
          "internalType": "uint256",
          "name": "amount",
          "type": "uint256"
        },
        {
          "internalType": "uint256",
          "name": "perStakedToken",
          "type": "uint256"
        },
        {
          "internalType": "uint256",
          "name": "recoverable",
          "type": "uint256"
        },
        {
          "internalType": "uint256",
          "name": "claimed",
          "type": "uint256"
        }
      ],
      "stateMutability": "view",
      "type": "function"
    },
    {
      "inputs": [],
      "name": "secondsDuration",
      "outputs": [
        {
          "internalType": "uint64",
          "name": "",
          "type": "uint64"
        }
      ],
      "stateMutability": "view",
      "type": "function"
    },
    {
      "inputs": [],
      "name": "stakableToken",
      "outputs": [
        {
          "internalType": "contract IERC20",
          "name": "",
          "type": "address"
        }
      ],
      "stateMutability": "view",
      "type": "function"
    },
    {
      "inputs": [],
      "name": "stakingCap",
      "outputs": [
        {
          "internalType": "uint256",
          "name": "",
          "type": "uint256"
        }
      ],
      "stateMutability": "view",
      "type": "function"
    },
    {
      "inputs": [],
      "name": "startingTimestamp",
      "outputs": [
        {
          "internalType": "uint64",
          "name": "",
          "type": "uint64"
        }
      ],
      "stateMutability": "view",
      "type": "function"
    },
    {
      "inputs": [],
      "name": "totalStakedTokensAmount",
      "outputs": [
        {
          "internalType": "uint256",
          "name": "",
          "type": "uint256"
        }
      ],
      "stateMutability": "view",
      "type": "function"
    },
    {
      "inputs": [],
      "name": "getRewardTokens",
      "outputs": [
        {
          "internalType": "address[]",
          "name": "",
          "type": "address[]"
        }
      ],
      "stateMutability": "view",
      "type": "function"
    },
    {
      "inputs": [
        {
          "internalType": "address",
          "name": "_rewardToken",
          "type": "address"
        }
      ],
      "name": "rewardAmount",
      "outputs": [
        {
          "internalType": "uint256",
          "name": "",
          "type": "uint256"
        }
      ],
      "stateMutability": "view",
      "type": "function"
    },
    {
      "inputs": [
        {
          "internalType": "address",
          "name": "_staker",
          "type": "address"
        }
      ],
      "name": "stakedTokensOf",
      "outputs": [
        {
          "internalType": "uint256",
          "name": "",
          "type": "uint256"
        }
      ],
      "stateMutability": "view",
      "type": "function"
    },
    {
      "inputs": [
        {
          "internalType": "address",
          "name": "_rewardToken",
          "type": "address"
        }
      ],
      "name": "recoverableUnassignedReward",
      "outputs": [
        {
          "internalType": "uint256",
          "name": "",
          "type": "uint256"
        }
      ],
      "stateMutability": "view",
      "type": "function"
    },
    {
      "inputs": [
        {
          "internalType": "address",
          "name": "_claimer",
          "type": "address"
        }
      ],
      "name": "getClaimedRewards",
      "outputs": [
        {
          "internalType": "uint256[]",
          "name": "",
          "type": "uint256[]"
        }
      ],
      "stateMutability": "view",
      "type": "function"
    },
    {
      "inputs": [
        {
          "internalType": "address[]",
          "name": "_rewardTokenAddresses",
          "type": "address[]"
        },
        {
          "internalType": "address",
          "name": "_stakableTokenAddress",
          "type": "address"
        },
        {
          "internalType": "uint256[]",
          "name": "_rewardAmounts",
          "type": "uint256[]"
        },
        {
          "internalType": "uint64",
          "name": "_startingTimestamp",
          "type": "uint64"
        },
        {
          "internalType": "uint64",
          "name": "_endingTimestamp",
          "type": "uint64"
        },
        {
          "internalType": "bool",
          "name": "_locked",
          "type": "bool"
        },
        {
          "internalType": "uint256",
          "name": "_stakingCap",
          "type": "uint256"
        }
      ],
      "name": "initialize",
      "outputs": [],
      "stateMutability": "nonpayable",
      "type": "function"
    },
    {
      "inputs": [],
      "name": "cancel",
      "outputs": [],
      "stateMutability": "nonpayable",
      "type": "function"
    },
    {
      "inputs": [],
      "name": "recoverUnassignedRewards",
      "outputs": [],
      "stateMutability": "nonpayable",
      "type": "function"
    },
    {
      "inputs": [
        {
          "internalType": "uint256",
          "name": "_amount",
          "type": "uint256"
        }
      ],
      "name": "stake",
      "outputs": [],
      "stateMutability": "nonpayable",
      "type": "function"
    },
    {
      "inputs": [
        {
          "internalType": "uint256",
          "name": "_amount",
          "type": "uint256"
        }
      ],
      "name": "withdraw",
      "outputs": [],
      "stateMutability": "nonpayable",
      "type": "function"
    },
    {
      "inputs": [
        {
          "internalType": "uint256[]",
          "name": "_amounts",
          "type": "uint256[]"
        },
        {
          "internalType": "address",
          "name": "_recipient",
          "type": "address"
        }
      ],
      "name": "claim",
      "outputs": [],
      "stateMutability": "nonpayable",
      "type": "function"
    },
    {
      "inputs": [
        {
          "internalType": "address",
          "name": "_recipient",
          "type": "address"
        }
      ],
      "name": "claimAll",
      "outputs": [],
      "stateMutability": "nonpayable",
      "type": "function"
    },
    {
      "inputs": [
        {
          "internalType": "address",
          "name": "_recipient",
          "type": "address"
        }
      ],
      "name": "exit",
      "outputs": [],
      "stateMutability": "nonpayable",
      "type": "function"
    },
    {
      "inputs": [],
      "name": "consolidateReward",
      "outputs": [],
      "stateMutability": "nonpayable",
      "type": "function"
    },
    {
      "inputs": [
        {
          "internalType": "address",
          "name": "_account",
          "type": "address"
        }
      ],
      "name": "claimableRewards",
      "outputs": [
        {
          "internalType": "uint256[]",
          "name": "",
          "type": "uint256[]"
        }
      ],
      "stateMutability": "view",
      "type": "function"
    },
    {
      "inputs": [],
      "name": "renounceOwnership",
      "outputs": [],
      "stateMutability": "nonpayable",
      "type": "function"
    },
    {
      "inputs": [
        {
          "internalType": "address",
          "name": "_newOwner",
          "type": "address"
        }
      ],
      "name": "transferOwnership",
      "outputs": [],
      "stateMutability": "nonpayable",
      "type": "function"
    }
  ],
  "bytecode": "0x608060405234801561001057600080fd5b506128b3806100206000396000f3fe608060405234801561001057600080fd5b50600436106101c45760003560e01c80638da5cb5b116100f9578063c4f59f9b11610097578063e644067d11610071578063e644067d146103ef578063ea8a1af0146103f7578063f2fde38b146103ff578063f301af421461041257600080fd5b8063c4f59f9b146103b3578063cf309012146103c8578063dc01f60d146103dc57600080fd5b8063b41fa979116100d3578063b41fa9791461035f578063b42652e914610368578063b9e35db01461037b578063c10de3001461039b57600080fd5b80638da5cb5b14610310578063a694fc3a14610323578063ab08d4fc1461033657600080fd5b80635fa3502311610166578063715018a611610140578063715018a6146102cf57806377329f35146102d757806388786272146102ea5780638c574b48146102fd57600080fd5b80635fa350231461029a578063645a8a56146102b45780636715dcb8146102c757600080fd5b80632e1a7d4d116101a25780632e1a7d4d1461022b5780633b34ee501461023e57806344c370d31461025f5780635e5294b71461026857600080fd5b8063158ef93e146101c95780631c96c3fb146101eb57806323a26e3614610216575b600080fd5b6006546101d69060ff1681565b60405190151581526020015b60405180910390f35b6002546101fe906001600160a01b031681565b6040516001600160a01b0390911681526020016101e2565b61022961022436600461237a565b610457565b005b610229610239366004612525565b610985565b61025161024c366004612360565b610aeb565b6040519081526020016101e2565b61025160055481565b60045461028290600160401b90046001600160401b031681565b6040516001600160401b0390911681526020016101e2565b60045461028290600160801b90046001600160401b031681565b6102516102c2366004612360565b610b6b565b610229610be2565b610229610e82565b6102296102e5366004612360565b610ee8565b600454610282906001600160401b031681565b61022961030b366004612438565b611098565b6000546101fe906001600160a01b031681565b610229610331366004612525565b6112e8565b610251610344366004612360565b6001600160a01b031660009081526007602052604090205490565b61025160035481565b610229610376366004612360565b611471565b61038e610389366004612360565b6114d7565b6040516101e29190612699565b6006546102829061010090046001600160401b031681565b6103bb6115ef565b6040516101e2919061264c565b6004546101d690600160c01b900460ff1681565b61038e6103ea366004612360565b6116e6565b6102296119cd565b610229611bfd565b61022961040d366004612360565b611e12565b610425610420366004612525565b611ed5565b604080516001600160a01b0390961686526020860194909452928401919091526060830152608082015260a0016101e2565b60065460ff16156104975760405162461bcd60e51b81526020600482015260056024820152640a6a48862760db1b60448201526064015b60405180910390fd5b42846001600160401b0316116104d75760405162461bcd60e51b8152602060048201526005602482015264535244303160d81b604482015260640161048e565b836001600160401b0316836001600160401b0316116105205760405162461bcd60e51b815260206004820152600560248201526429a922181960d91b604482015260640161048e565b8785146105575760405162461bcd60e51b8152602060048201526005602482015264535244303360d81b604482015260640161048e565b61056184846127b0565b600460106101000a8154816001600160401b0302191690836001600160401b0316021790555060005b63ffffffff811689111561085a5760008a8a8363ffffffff168181106105c057634e487b7160e01b600052603260045260246000fd5b90506020020160208101906105d59190612360565b9050600088888463ffffffff168181106105ff57634e487b7160e01b600052603260045260246000fd5b60200291909101359150506001600160a01b0382166106485760405162461bcd60e51b815260206004820152600560248201526414d4910c0d60da1b604482015260640161048e565b600081116106805760405162461bcd60e51b8152602060048201526005602482015264535244303560d81b604482015260640161048e565b6040516370a0823160e01b8152306004820152829082906001600160a01b038316906370a082319060240160206040518083038186803b1580156106c357600080fd5b505afa1580156106d7573d6000803e3d6000fd5b505050506040513d601f19601f820116820180604052508101906106fb919061253d565b10156107315760405162461bcd60e51b815260206004820152600560248201526429a922181b60d91b604482015260640161048e565b506040805160a0810182526001600160a01b0393841681526020810192835260009181018281526060820183815260808301848152600180548082018255955292517fb10e2d527612073b26eecdfd717e6a320cf44b4afac2b0732d9fcbe2b7fa0cf6600590950294850180546001600160a01b031916919097161790955592517fb10e2d527612073b26eecdfd717e6a320cf44b4afac2b0732d9fcbe2b7fa0cf783015591517fb10e2d527612073b26eecdfd717e6a320cf44b4afac2b0732d9fcbe2b7fa0cf882015591517fb10e2d527612073b26eecdfd717e6a320cf44b4afac2b0732d9fcbe2b7fa0cf9830155517fb10e2d527612073b26eecdfd717e6a320cf44b4afac2b0732d9fcbe2b7fa0cfa90910155806108528161281f565b91505061058a565b506001600160a01b0387166108995760405162461bcd60e51b8152602060048201526005602482015264535244303760d81b604482015260640161048e565b600280546001600160a01b03199081166001600160a01b038a16179091556000805433921691909117905560048054600680546001600160401b038881166fffffffffffffffffffffffffffffffff199094168417600160401b918916919091021760ff60c01b1916600160c01b8715150217909355600584905568ffffffffffffffffff1990921661010090910260ff19161760011790556040517f2c1fa4f0e3f1c67636ee0b3665bf3a04407a2c1332d4e3e99f941ee2b0b9daf490610972908b908b908b908b908b908b908b908b908b906125a5565b60405180910390a1505050505050505050565b60065460ff1680156109a257506004546001600160401b03164210155b6109be5760405162461bcd60e51b815260040161048e90612704565b600081116109f65760405162461bcd60e51b8152602060048201526005602482015264535244313160d81b604482015260640161048e565b600454600160c01b900460ff1615610a5157600454600160401b90046001600160401b03164211610a515760405162461bcd60e51b815260206004820152600560248201526429a922189960d91b604482015260640161048e565b610a59610be2565b336000908152600760205260408120805490918391839190610a7c908490612799565b925050819055508160036000828254610a959190612799565b9091555050600254610ab1906001600160a01b03163384611f20565b60405182815233907f7084f5476618d8e60b11ef0d7d3f06914655adb8793e28ff7f018d4c76d505d5906020015b60405180910390a25050565b6000805b600154811015610b6257600060018281548110610b1c57634e487b7160e01b600052603260045260246000fd5b6000918252602090912060059091020180549091506001600160a01b0385811691161415610b4f57600301549392505050565b5080610b5a81612804565b915050610aef565b50600092915050565b6000805b600154811015610b6257600060018281548110610b9c57634e487b7160e01b600052603260045260246000fd5b6000918252602090912060059091020180549091506001600160a01b0385811691161415610bcf57600101549392505050565b5080610bda81612804565b915050610b6f565b60065460ff168015610bff57506004546001600160401b03164210155b610c1b5760405162461bcd60e51b815260040161048e90612704565b600454600090610c3c904290600160401b90046001600160401b0316611f88565b600654909150600090610c5d9061010090046001600160401b0316836127b0565b3360009081526007602052604081206001600160401b039290921692505b600154811015610e5557600060018281548110610ca857634e487b7160e01b600052603260045260246000fd5b9060005260206000209060050201905060035460001415610d30576004546001820154600160801b9091046001600160401b031690610ce7908661277a565b610cf1919061275a565b816003016000828254610d049190612742565b909155505060006002820181905590546001600160a01b03168152600183016020526040812055610e43565b600454600354610d5091600160801b90046001600160401b03169061277a565b6001820154600160701b90610d65908761277a565b610d6f919061277a565b610d79919061275a565b816002016000828254610d8c9190612742565b9091555050600080826002015411610da5576000610deb565b81546001600160a01b031660009081526001850160205260409020546002830154600160701b91610dd591612799565b8554610de1919061277a565b610deb919061275a565b82546001600160a01b03166000908152600286016020526040812080549293508392909190610e1b908490612742565b909155505050600281015490546001600160a01b031660009081526001840160205260409020555b80610e4d81612804565b915050610c7b565b5050600680546001600160401b039093166101000268ffffffffffffffff00199093169290921790915550565b6000546001600160a01b03163314610eac5760405162461bcd60e51b815260040161048e90612723565b600080546001600160a01b031916815560405181907f8be0079c531659141344cd1fd0a4f28419497f9722a3daafe3b4186f6b6457e0908290a3565b60065460ff168015610f0557506004546001600160401b03164210155b610f215760405162461bcd60e51b815260040161048e90612704565b610f29610be2565b3360009081526007602052604081206001549091906001600160401b03811115610f6357634e487b7160e01b600052604160045260246000fd5b604051908082528060200260200182016040528015610f8c578160200160208202803683370190505b50905060005b60015481101561105157600060018281548110610fbf57634e487b7160e01b600052603260045260246000fd5b60009182526020808320600590920290910180546001600160a01b03168352600387018252604080842054600289019093528320549093506110019190612799565b905061100f82868389611fa0565b8084848151811061103057634e487b7160e01b600052603260045260246000fd5b6020026020010181815250505050808061104990612804565b915050610f92565b50336001600160a01b03167f28ee566bdecaf975c0979f4d09fecf91a9009ffe78523aef053a678134137b8b8260405161108b9190612699565b60405180910390a2505050565b60065460ff1680156110b557506004546001600160401b03164210155b6110d15760405162461bcd60e51b815260040161048e90612704565b60015482511461110b5760405162461bcd60e51b815260206004820152600560248201526414d4910c4d60da1b604482015260640161048e565b611113610be2565b3360009081526007602052604081206001549091906001600160401b0381111561114d57634e487b7160e01b600052604160045260246000fd5b604051908082528060200260200182016040528015611176578160200160208202803683370190505b50905060005b6001548110156112a0576000600182815481106111a957634e487b7160e01b600052603260045260246000fd5b60009182526020808320600590920290910180546001600160a01b03168352600387018252604080842054600289019093528320549093506111eb9190612799565b9050600087848151811061120f57634e487b7160e01b600052603260045260246000fd5b60200260200101519050808210156112515760405162461bcd60e51b8152602060048201526005602482015264535244313560d81b604482015260640161048e565b61125d8387838a611fa0565b8085858151811061127e57634e487b7160e01b600052603260045260246000fd5b602002602001018181525050505050808061129890612804565b91505061117c565b50336001600160a01b03167f28ee566bdecaf975c0979f4d09fecf91a9009ffe78523aef053a678134137b8b826040516112da9190612699565b60405180910390a250505050565b60065460ff16801561130557506004546001600160401b03164210155b80156113235750600454600160401b90046001600160401b03164211155b6113575760405162461bcd60e51b8152602060048201526005602482015264535244323160d81b604482015260640161048e565b6000811161138f5760405162461bcd60e51b8152602060048201526005602482015264535244303960d81b604482015260640161048e565b600554156113de57600554816003546113a89190612742565b11156113de5760405162461bcd60e51b8152602060048201526005602482015264053524431360dc1b604482015260640161048e565b6113e6610be2565b336000908152600760205260408120805490918391839190611409908490612742565b9250508190555081600360008282546114229190612742565b909155505060025461143f906001600160a01b0316333085612007565b60405182815233907f9e71bc8eea02a63969f509818f2dafb9254532904319f9dbda79b67bd34a5f3d90602001610adf565b60065460ff16801561148e57506004546001600160401b03164210155b6114aa5760405162461bcd60e51b815260040161048e90612704565b6114b2610be2565b6114bb81610ee8565b336000908152600760205260409020546114d490610985565b50565b6001600160a01b0381166000908152600760205260408120600154606092906001600160401b0381111561151b57634e487b7160e01b600052604160045260246000fd5b604051908082528060200260200182016040528015611544578160200160208202803683370190505b50905060005b6001548110156115e75760006001828154811061157757634e487b7160e01b600052603260045260246000fd5b60009182526020808320600590920290910180546001600160a01b03168352600387019091526040909120548451919250908490849081106115c957634e487b7160e01b600052603260045260246000fd5b602090810291909101015250806115df81612804565b91505061154a565b509392505050565b6001546060906000906001600160401b0381111561161d57634e487b7160e01b600052604160045260246000fd5b604051908082528060200260200182016040528015611646578160200160208202803683370190505b50905060005b6001548110156116e0576001818154811061167757634e487b7160e01b600052603260045260246000fd5b600091825260209091206005909102015482516001600160a01b03909116908390839081106116b657634e487b7160e01b600052603260045260246000fd5b6001600160a01b0390921660209283029190910190910152806116d881612804565b91505061164c565b50919050565b6001546060906000906001600160401b0381111561171457634e487b7160e01b600052604160045260246000fd5b60405190808252806020026020018201604052801561173d578160200160208202803683370190505b5060065490915060ff16158061175d57506004546001600160401b031642105b156117b55760005b6001548110156117ae57600082828151811061179157634e487b7160e01b600052603260045260246000fd5b6020908102919091010152806117a681612804565b915050611765565b5092915050565b6001600160a01b03831660009081526007602052604081206004549091906117ee904290600160401b90046001600160401b0316611f88565b60065490915060009061180f9061010090046001600160401b0316836127b0565b6001600160401b0316905060005b6001548110156119c25760006001828154811061184a57634e487b7160e01b600052603260045260246000fd5b6000918252602080832060026005909302018281015481546001600160a01b0316855260038a018352604080862054948b019093529190932054929350916118929190612799565b8784815181106118b257634e487b7160e01b600052603260045260246000fd5b60209081029190910101526003546118cb5750506119b0565b6004546003546118eb91600160801b90046001600160401b03169061277a565b6001830154600160701b90611900908761277a565b61190a919061277a565b611914919061275a565b61191e9082612742565b90506000808211611930576000611972565b82546001600160a01b03166000908152600188016020526040902054600160701b9061195c9084612799565b8854611968919061277a565b611972919061275a565b90508088858151811061199557634e487b7160e01b600052603260045260246000fd5b602002602001018181516119a99190612742565b9052505050505b806119ba81612804565b91505061181d565b509295945050505050565b60065460ff1680156119ea57506004546001600160401b03164210155b611a065760405162461bcd60e51b815260040161048e90612704565b611a0e610be2565b6001546000906001600160401b03811115611a3957634e487b7160e01b600052604160045260246000fd5b604051908082528060200260200182016040528015611a62578160200160208202803683370190505b50905060005b600154811015611bc257600060018281548110611a9557634e487b7160e01b600052603260045260246000fd5b906000526020600020906005020190508060030154816004016000828254611abd9190612742565b909155505060006003820181905560048201546001830154611adf9190612799565b82546040516370a0823160e01b81523060048201526001600160a01b03909116906370a082319060240160206040518083038186803b158015611b2157600080fd5b505afa158015611b35573d6000803e3d6000fd5b505050506040513d601f19601f82011682018060405250810190611b59919061253d565b611b639190612799565b905080848481518110611b8657634e487b7160e01b600052603260045260246000fd5b60209081029190910101526000548254611bad916001600160a01b03918216911683611f20565b50508080611bba90612804565b915050611a68565b507ff904fafa600a7e4e8039f3a5497d1b6016772e3060f87d3e40f911b315f00bd181604051611bf29190612699565b60405180910390a150565b6000546001600160a01b03163314611c275760405162461bcd60e51b815260040161048e90612723565b60065460ff16611c615760405162461bcd60e51b8152602060048201526005602482015264535244313960d81b604482015260640161048e565b6004546001600160401b03164210611ca35760405162461bcd60e51b81526020600482015260056024820152640a6a48860760db1b604482015260640161048e565b60005b600154811015611d9657600060018281548110611cd357634e487b7160e01b600052603260045260246000fd5b6000918252602082206005919091020160018101829055905481546040516370a0823160e01b8152306004820152929350611d83926001600160a01b0392831692909116906370a082319060240160206040518083038186803b158015611d3957600080fd5b505afa158015611d4d573d6000803e3d6000fd5b505050506040513d601f19601f82011682018060405250810190611d71919061253d565b83546001600160a01b03169190611f20565b5080611d8e81612804565b915050611ca6565b50611da360016000612289565b600280546001600160a01b0319169055600480546006805468ffffffffffffffffff1916905578ff0000000000000000ffffffffffffffffffffffffffffffff191690556040517f1afb0ae590df277bcb3a37f88612725bf1f7df4755792b1548a7efe77985ff7790600090a1565b6000546001600160a01b03163314611e3c5760405162461bcd60e51b815260040161048e90612723565b6001600160a01b038116611e7a5760405162461bcd60e51b815260206004820152600560248201526429a922189b60d91b604482015260640161048e565b600080546040516001600160a01b03808516939216917f8be0079c531659141344cd1fd0a4f28419497f9722a3daafe3b4186f6b6457e091a3600080546001600160a01b0319166001600160a01b0392909216919091179055565b60018181548110611ee557600080fd5b6000918252602090912060059091020180546001820154600283015460038401546004909401546001600160a01b0390931694509092909185565b6040516001600160a01b038316602482015260448101829052611f8390849063a9059cbb60e01b906064015b60408051601f198184030181529190526020810180516001600160e01b03166001600160e01b03199093169290921790915261203f565b505050565b6000818310611f975781611f99565b825b9392505050565b83546001600160a01b0316600090815260038401602052604081208054849290611fcb908490612742565b9250508190555081846004016000828254611fe69190612742565b90915550508354612001906001600160a01b03168284611f20565b50505050565b6040516001600160a01b03808516602483015283166044820152606481018290526120019085906323b872dd60e01b90608401611f4c565b6000612094826040518060400160405280602081526020017f5361666545524332303a206c6f772d6c6576656c2063616c6c206661696c6564815250856001600160a01b03166121119092919063ffffffff16565b805190915015611f8357808060200190518101906120b29190612509565b611f835760405162461bcd60e51b815260206004820152602a60248201527f5361666545524332303a204552433230206f7065726174696f6e20646964206e6044820152691bdd081cdd58d8d9595960b21b606482015260840161048e565b60606121208484600085612128565b949350505050565b6060824710156121895760405162461bcd60e51b815260206004820152602660248201527f416464726573733a20696e73756666696369656e742062616c616e636520666f6044820152651c8818d85b1b60d21b606482015260840161048e565b843b6121d75760405162461bcd60e51b815260206004820152601d60248201527f416464726573733a2063616c6c20746f206e6f6e2d636f6e7472616374000000604482015260640161048e565b600080866001600160a01b031685876040516121f39190612589565b60006040518083038185875af1925050503d8060008114612230576040519150601f19603f3d011682016040523d82523d6000602084013e612235565b606091505b5091509150612245828286612250565b979650505050505050565b6060831561225f575081611f99565b82511561226f5782518084602001fd5b8160405162461bcd60e51b815260040161048e91906126d1565b50805460008255600502906000526020600020908101906114d491905b808211156122e05780546001600160a01b0319168155600060018201819055600282018190556003820181905560048201556005016122a6565b5090565b80356001600160a01b03811681146122fb57600080fd5b919050565b60008083601f840112612311578081fd5b5081356001600160401b03811115612327578182fd5b6020830191508360208260051b850101111561234257600080fd5b9250929050565b80356001600160401b03811681146122fb57600080fd5b600060208284031215612371578081fd5b611f99826122e4565b600080600080600080600080600060e08a8c031215612397578485fd5b89356001600160401b03808211156123ad578687fd5b6123b98d838e01612300565b909b5099508991506123cd60208d016122e4565b985060408c01359150808211156123e2578687fd5b506123ef8c828d01612300565b9097509550612402905060608b01612349565b935061241060808b01612349565b925060a08a01356124208161286f565b8092505060c08a013590509295985092959850929598565b6000806040838503121561244a578182fd5b82356001600160401b0380821115612460578384fd5b818501915085601f830112612473578384fd5b813560208282111561248757612487612859565b8160051b604051601f19603f830116810181811086821117156124ac576124ac612859565b604052838152828101945085830182870184018b10156124ca578889fd5b8896505b848710156124ec5780358652600196909601959483019483016124ce565b5096506124fc90508782016122e4565b9450505050509250929050565b60006020828403121561251a578081fd5b8151611f998161286f565b600060208284031215612536578081fd5b5035919050565b60006020828403121561254e578081fd5b5051919050565b81835260006001600160fb1b0383111561256d578081fd5b8260051b80836020870137939093016020019283525090919050565b6000825161259b8184602087016127d8565b9190910192915050565b60e0808252810189905260008a6101008301825b8c8110156125e7576001600160a01b036125d2846122e4565b168252602092830192909101906001016125b9565b506001600160a01b038b166020850152838103604085015261260a818a8c612555565b9250505061262360608301876001600160401b03169052565b6001600160401b0394909416608082015291151560a083015260c0909101529695505050505050565b6020808252825182820181905260009190848201906040850190845b8181101561268d5783516001600160a01b031683529284019291840191600101612668565b50909695505050505050565b6020808252825182820181905260009190848201906040850190845b8181101561268d578351835292840192918401916001016126b5565b60208152600082518060208401526126f08160408501602087016127d8565b601f01601f19169190910160400192915050565b602080825260059082015264053524432360dc1b604082015260600190565b602080825260059082015264535244313760d81b604082015260600190565b6000821982111561275557612755612843565b500190565b60008261277557634e487b7160e01b81526012600452602481fd5b500490565b600081600019048311821515161561279457612794612843565b500290565b6000828210156127ab576127ab612843565b500390565b60006001600160401b03838116908316818110156127d0576127d0612843565b039392505050565b60005b838110156127f35781810151838201526020016127db565b838111156120015750506000910152565b600060001982141561281857612818612843565b5060010190565b600063ffffffff8083168181141561283957612839612843565b6001019392505050565b634e487b7160e01b600052601160045260246000fd5b634e487b7160e01b600052604160045260246000fd5b80151581146114d457600080fdfea264697066735822122071d029b101023d3e015b4656b4f344f5a83bbbe56d1ca274147e9b0efbb7186964736f6c63430008040033",
  "immutableReferences": {},
  "source": "// SPDX-License-Identifier: GPL-3.0\n\npragma solidity ^0.8.4;\n\nimport \"@openzeppelin/contracts/utils/math/Math.sol\";\nimport \"@openzeppelin/contracts/token/ERC20/IERC20.sol\";\nimport \"@openzeppelin/contracts/token/ERC20/utils/SafeERC20.sol\";\n\n/**\n * Errors codes:\n *\n * SRD01: invalid starting timestamp\n * SRD02: invalid time duration\n * SRD03: inconsistent reward token/amount\n * SRD04: 0 address as reward token\n * SRD05: no reward\n * SRD06: no funding\n * SRD07: 0 address as stakable token\n * SRD08: distribution already started\n * SRD09: tried to stake nothing\n * SRD10: staking cap hit\n * SRD11: tried to withdraw nothing\n * SRD12: funds locked until the distribution ends\n * SRD13: withdrawn amount greater than current stake\n * SRD14: inconsistent claimed amounts\n * SRD15: insufficient claimable amount\n * SRD16: 0 address owner\n * SRD17: caller not owner\n * SRD18: already initialized\n * SRD19: not initialized\n * SRD20: not started\n * SRD21: already ended\n */\ncontract ERC20StakingRewardsDistribution {\n    using SafeERC20 for IERC20;\n\n    uint224 constant MULTIPLIER = 2**112;\n\n    struct Reward {\n        address token;\n        uint256 amount;\n        uint256 perStakedToken;\n        uint256 recoverable;\n        uint256 claimed;\n    }\n\n    struct Staker {\n        uint256 stake;\n        mapping(address => uint256) consolidatedPerStakedToken;\n        mapping(address => uint256) earned;\n        mapping(address => uint256) claimed;\n    }\n\n    address public owner;\n    Reward[] public rewards;\n    IERC20 public stakableToken;\n    uint256 public totalStakedTokensAmount;\n    uint64 public startingTimestamp;\n    uint64 public endingTimestamp;\n    uint64 public secondsDuration;\n    bool public locked;\n    uint256 public stakingCap;\n    bool public initialized;\n    uint64 public lastConsolidationTimestamp;\n    mapping(address => Staker) stakers;\n\n    event OwnershipTransferred(\n        address indexed previousOwner,\n        address indexed newOwner\n    );\n    event Initialized(\n        address[] rewardsTokenAddresses,\n        address stakableTokenAddress,\n        uint256[] rewardsAmounts,\n        uint64 startingTimestamp,\n        uint64 endingTimestamp,\n        bool locked,\n        uint256 stakingCap\n    );\n    event Canceled();\n    event Staked(address indexed staker, uint256 amount);\n    event Withdrawn(address indexed withdrawer, uint256 amount);\n    event Claimed(address indexed claimer, uint256[] amounts);\n    event Recovered(uint256[] amounts);\n\n    function getRewardTokens() external view returns (address[] memory) {\n        address[] memory _rewardTokens = new address[](rewards.length);\n        for (uint256 _i = 0; _i < rewards.length; _i++) {\n            _rewardTokens[_i] = rewards[_i].token;\n        }\n        return _rewardTokens;\n    }\n\n    function rewardAmount(address _rewardToken)\n        external\n        view\n        returns (uint256)\n    {\n        for (uint256 _i = 0; _i < rewards.length; _i++) {\n            Reward storage _reward = rewards[_i];\n            if (_rewardToken == _reward.token) return _reward.amount;\n        }\n        return 0;\n    }\n\n    function stakedTokensOf(address _staker) external view returns (uint256) {\n        return stakers[_staker].stake;\n    }\n\n    function recoverableUnassignedReward(address _rewardToken)\n        external\n        view\n        returns (uint256)\n    {\n        for (uint256 _i = 0; _i < rewards.length; _i++) {\n            Reward storage _reward = rewards[_i];\n            if (_rewardToken == _reward.token) return _reward.recoverable;\n        }\n        return 0;\n    }\n\n    function getClaimedRewards(address _claimer)\n        external\n        view\n        returns (uint256[] memory)\n    {\n        Staker storage _staker = stakers[_claimer];\n        uint256[] memory _claimedRewards = new uint256[](rewards.length);\n        for (uint256 _i = 0; _i < rewards.length; _i++) {\n            Reward storage _reward = rewards[_i];\n            _claimedRewards[_i] = _staker.claimed[_reward.token];\n        }\n        return _claimedRewards;\n    }\n\n    function initialize(\n        address[] calldata _rewardTokenAddresses,\n        address _stakableTokenAddress,\n        uint256[] calldata _rewardAmounts,\n        uint64 _startingTimestamp,\n        uint64 _endingTimestamp,\n        bool _locked,\n        uint256 _stakingCap\n    ) external onlyUninitialized {\n        require(_startingTimestamp > block.timestamp, \"SRD01\");\n        require(_endingTimestamp > _startingTimestamp, \"SRD02\");\n        require(_rewardTokenAddresses.length == _rewardAmounts.length, \"SRD03\");\n\n        secondsDuration = _endingTimestamp - _startingTimestamp;\n        // Initializing reward tokens and amounts\n        for (uint32 _i = 0; _i < _rewardTokenAddresses.length; _i++) {\n            address _rewardTokenAddress = _rewardTokenAddresses[_i];\n            uint256 _rewardAmount = _rewardAmounts[_i];\n            require(_rewardTokenAddress != address(0), \"SRD04\");\n            require(_rewardAmount > 0, \"SRD05\");\n            IERC20 _rewardToken = IERC20(_rewardTokenAddress);\n            require(\n                _rewardToken.balanceOf(address(this)) >= _rewardAmount,\n                \"SRD06\"\n            );\n            rewards.push(\n                Reward({\n                    token: _rewardTokenAddress,\n                    amount: _rewardAmount,\n                    perStakedToken: 0,\n                    recoverable: 0,\n                    claimed: 0\n                })\n            );\n        }\n\n        require(_stakableTokenAddress != address(0), \"SRD07\");\n        stakableToken = IERC20(_stakableTokenAddress);\n\n        owner = msg.sender;\n        startingTimestamp = _startingTimestamp;\n        endingTimestamp = _endingTimestamp;\n        lastConsolidationTimestamp = _startingTimestamp;\n        locked = _locked;\n        stakingCap = _stakingCap;\n\n        initialized = true;\n        emit Initialized(\n            _rewardTokenAddresses,\n            _stakableTokenAddress,\n            _rewardAmounts,\n            _startingTimestamp,\n            _endingTimestamp,\n            _locked,\n            _stakingCap\n        );\n    }\n\n    function cancel() external onlyOwner {\n        require(initialized, \"SRD19\");\n        require(block.timestamp < startingTimestamp, \"SRD08\");\n        // resetting reward information (both tokens and amounts)\n        for (uint256 _i; _i < rewards.length; _i++) {\n            Reward storage _reward = rewards[_i];\n            delete _reward.amount;\n            IERC20(_reward.token).safeTransfer(\n                owner,\n                IERC20(_reward.token).balanceOf(address(this))\n            );\n        }\n        delete rewards;\n        delete stakableToken;\n        startingTimestamp = 0;\n        endingTimestamp = 0;\n        lastConsolidationTimestamp = 0;\n        initialized = false;\n        locked = false;\n        emit Canceled();\n    }\n\n    function recoverUnassignedRewards() external onlyStarted {\n        consolidateReward();\n        uint256[] memory _recoveredUnassignedRewards =\n            new uint256[](rewards.length);\n        for (uint256 _i; _i < rewards.length; _i++) {\n            Reward storage _reward = rewards[_i];\n            // recoverable rewards are going to be recovered in this tx (if it does not revert),\n            // so we add them to the claimed rewards right now\n            _reward.claimed += _reward.recoverable;\n            delete _reward.recoverable;\n            uint256 _recoverableRewards =\n                IERC20(_reward.token).balanceOf(address(this)) -\n                    (_reward.amount - _reward.claimed);\n            _recoveredUnassignedRewards[_i] = _recoverableRewards;\n            IERC20(_reward.token).safeTransfer(owner, _recoverableRewards);\n        }\n        emit Recovered(_recoveredUnassignedRewards);\n    }\n\n    function stake(uint256 _amount) external onlyRunning {\n        require(_amount > 0, \"SRD09\");\n        if (stakingCap > 0) {\n            require(totalStakedTokensAmount + _amount <= stakingCap, \"SRD10\");\n        }\n        consolidateReward();\n        Staker storage _staker = stakers[msg.sender];\n        _staker.stake += _amount;\n        totalStakedTokensAmount += _amount;\n        stakableToken.safeTransferFrom(msg.sender, address(this), _amount);\n        emit Staked(msg.sender, _amount);\n    }\n\n    function withdraw(uint256 _amount) public onlyStarted {\n        require(_amount > 0, \"SRD11\");\n        if (locked) {\n            require(block.timestamp > endingTimestamp, \"SRD12\");\n        }\n        consolidateReward();\n        Staker storage _staker = stakers[msg.sender];\n        // underflows if _amount > _staker.stake, no need for explicit check\n        _staker.stake -= _amount;\n        totalStakedTokensAmount -= _amount;\n        stakableToken.safeTransfer(msg.sender, _amount);\n        emit Withdrawn(msg.sender, _amount);\n    }\n\n    function claim(uint256[] memory _amounts, address _recipient)\n        external\n        onlyStarted\n    {\n        require(_amounts.length == rewards.length, \"SRD14\");\n        consolidateReward();\n        Staker storage _staker = stakers[msg.sender];\n        uint256[] memory _claimedRewards = new uint256[](rewards.length);\n        for (uint256 _i; _i < rewards.length; _i++) {\n            Reward storage _reward = rewards[_i];\n            uint256 _claimableReward =\n                _staker.earned[_reward.token] - _staker.claimed[_reward.token];\n            uint256 _wantedAmount = _amounts[_i];\n            require(_claimableReward >= _wantedAmount, \"SRD15\");\n            consolidateAndTransferClaim(\n                _reward,\n                _staker,\n                _wantedAmount,\n                _recipient\n            );\n            _claimedRewards[_i] = _wantedAmount;\n        }\n        emit Claimed(msg.sender, _claimedRewards);\n    }\n\n    function claimAll(address _recipient) public onlyStarted {\n        consolidateReward();\n        Staker storage _staker = stakers[msg.sender];\n        uint256[] memory _claimedRewards = new uint256[](rewards.length);\n        for (uint256 _i; _i < rewards.length; _i++) {\n            Reward storage _reward = rewards[_i];\n            uint256 _claimableReward =\n                _staker.earned[_reward.token] - _staker.claimed[_reward.token];\n            consolidateAndTransferClaim(\n                _reward,\n                _staker,\n                _claimableReward,\n                _recipient\n            );\n            _claimedRewards[_i] = _claimableReward;\n        }\n        emit Claimed(msg.sender, _claimedRewards);\n    }\n\n    function exit(address _recipient) external onlyStarted {\n        consolidateReward();\n        claimAll(_recipient);\n        withdraw(stakers[msg.sender].stake);\n    }\n\n    function consolidateAndTransferClaim(\n        Reward storage _reward,\n        Staker storage _staker,\n        uint256 _amount,\n        address _recipient\n    ) private {\n        _staker.claimed[_reward.token] += _amount;\n        _reward.claimed += _amount;\n        IERC20(_reward.token).safeTransfer(_recipient, _amount);\n    }\n\n    function consolidateReward() public onlyStarted {\n        uint64 _consolidationTimestamp =\n            uint64(Math.min(block.timestamp, endingTimestamp));\n        uint256 _lastPeriodDuration =\n            uint256(_consolidationTimestamp - lastConsolidationTimestamp);\n        Staker storage _staker = stakers[msg.sender];\n        for (uint256 _i; _i < rewards.length; _i++) {\n            Reward storage _reward = rewards[_i];\n            if (totalStakedTokensAmount == 0) {\n                // If the current staked tokens amount is zero, there have been unassigned rewards in the last period.\n                // We add these unassigned rewards to the amount that can be claimed back by the contract's owner.\n                _reward.recoverable += ((_lastPeriodDuration * _reward.amount) /\n                    secondsDuration);\n                _reward.perStakedToken = 0;\n                _staker.consolidatedPerStakedToken[_reward.token] = 0;\n                continue;\n            } else {\n                _reward.perStakedToken += ((_lastPeriodDuration *\n                    _reward.amount *\n                    MULTIPLIER) / (totalStakedTokensAmount * secondsDuration));\n            }\n            uint256 _rewardInCurrentPeriod =\n                _reward.perStakedToken > 0\n                    ? (_staker.stake *\n                        (_reward.perStakedToken -\n                            _staker.consolidatedPerStakedToken[\n                                _reward.token\n                            ])) / MULTIPLIER\n                    : 0;\n            _staker.earned[_reward.token] += _rewardInCurrentPeriod;\n            _staker.consolidatedPerStakedToken[_reward.token] = _reward\n                .perStakedToken;\n        }\n        lastConsolidationTimestamp = _consolidationTimestamp;\n    }\n\n    function claimableRewards(address _account)\n        public\n        view\n        returns (uint256[] memory)\n    {\n        uint256[] memory _outstandingRewards = new uint256[](rewards.length);\n        if (!initialized || block.timestamp < startingTimestamp) {\n            for (uint256 _i; _i < rewards.length; _i++) {\n                _outstandingRewards[_i] = 0;\n            }\n            return _outstandingRewards;\n        }\n        Staker storage _staker = stakers[_account];\n        uint64 _consolidationTimestamp =\n            uint64(Math.min(block.timestamp, endingTimestamp));\n        uint256 _lastPeriodDuration =\n            uint256(_consolidationTimestamp - lastConsolidationTimestamp);\n        for (uint256 _i; _i < rewards.length; _i++) {\n            Reward storage _reward = rewards[_i];\n            uint256 _localRewardPerStakedToken = _reward.perStakedToken;\n            _outstandingRewards[_i] =\n                _staker.earned[_reward.token] -\n                _staker.claimed[_reward.token];\n            if (totalStakedTokensAmount == 0) {\n                // no rewards in the current period, skip rest of the calculations\n                continue;\n            } else {\n                _localRewardPerStakedToken += ((_lastPeriodDuration *\n                    _reward.amount *\n                    MULTIPLIER) / (totalStakedTokensAmount * secondsDuration));\n            }\n            uint256 _rewardsInTheCurrentPeriod =\n                _localRewardPerStakedToken > 0\n                    ? (_staker.stake *\n                        (_localRewardPerStakedToken -\n                            _staker.consolidatedPerStakedToken[\n                                _reward.token\n                            ])) / MULTIPLIER\n                    : 0;\n            // the claimable reward basically is the one not yet consolidated in the current period plus any\n            // previously consolidated/earned but unclaimed reward\n            _outstandingRewards[_i] += _rewardsInTheCurrentPeriod;\n        }\n        return _outstandingRewards;\n    }\n\n    function renounceOwnership() public onlyOwner {\n        owner = address(0);\n        emit OwnershipTransferred(owner, address(0));\n    }\n\n    function transferOwnership(address _newOwner) public onlyOwner {\n        require(_newOwner != address(0), \"SRD16\");\n        emit OwnershipTransferred(owner, _newOwner);\n        owner = _newOwner;\n    }\n\n    modifier onlyOwner() {\n        require(owner == msg.sender, \"SRD17\");\n        _;\n    }\n\n    modifier onlyUninitialized() {\n        require(!initialized, \"SRD18\");\n        _;\n    }\n\n    modifier onlyStarted() {\n        require(initialized && block.timestamp >= startingTimestamp, \"SRD20\");\n        _;\n    }\n\n    modifier onlyRunning() {\n        require(\n            initialized &&\n                block.timestamp >= startingTimestamp &&\n                block.timestamp <= endingTimestamp,\n            \"SRD21\"\n        );\n        _;\n    }\n}\n",
  "sourcePath": "/home/luzzif/Projects/swapr-lp-staker/contracts/ERC20StakingRewardsDistribution.sol",
  "compiler": {
    "name": "solc",
    "version": "0.8.4+commit.c7e474f2.Emscripten.clang"
  },
  "schemaVersion": "3.3.3",
  "updatedAt": "2021-05-05T11:03:19.994Z",
  "devdoc": {
    "kind": "dev",
    "methods": {},
    "version": 1
  },
  "userdoc": {
    "kind": "user",
    "methods": {},
    "notice": "Errors codes: SRD01: invalid starting timestamp SRD02: invalid time duration SRD03: inconsistent reward token/amount SRD04: 0 address as reward token SRD05: no reward SRD06: no funding SRD07: 0 address as stakable token SRD08: distribution already started SRD09: tried to stake nothing SRD10: staking cap hit SRD11: tried to withdraw nothing SRD12: funds locked until the distribution ends SRD13: withdrawn amount greater than current stake SRD14: inconsistent claimed amounts SRD15: insufficient claimable amount SRD16: 0 address owner SRD17: caller not owner SRD18: already initialized SRD19: not initialized SRD20: not started SRD21: already ended",
    "version": 1
  }
}