{
  "contractName": "ERC20StakingRewardsDistributionFactory",
  "abi": [
    {
      "inputs": [
        {
          "internalType": "address",
          "name": "_implementation",
          "type": "address"
        }
      ],
      "stateMutability": "nonpayable",
      "type": "constructor"
    },
    {
      "anonymous": false,
      "inputs": [
        {
          "indexed": false,
          "internalType": "address",
          "name": "owner",
          "type": "address"
        },
        {
          "indexed": false,
          "internalType": "address",
          "name": "deployedAt",
          "type": "address"
        }
      ],
      "name": "DistributionCreated",
      "type": "event"
    },
    {
      "anonymous": false,
      "inputs": [
        {
          "indexed": true,
          "internalType": "address",
          "name": "previousOwner",
          "type": "address"
        },
        {
          "indexed": true,
          "internalType": "address",
          "name": "newOwner",
          "type": "address"
        }
      ],
      "name": "OwnershipTransferred",
      "type": "event"
    },
    {
      "anonymous": false,
      "inputs": [
        {
          "indexed": true,
          "internalType": "address",
          "name": "implementation",
          "type": "address"
        }
      ],
      "name": "Upgraded",
      "type": "event"
    },
    {
      "inputs": [
        {
          "internalType": "uint256",
          "name": "",
          "type": "uint256"
        }
      ],
      "name": "distributions",
      "outputs": [
        {
          "internalType": "contract ERC20StakingRewardsDistribution",
          "name": "",
          "type": "address"
        }
      ],
      "stateMutability": "view",
      "type": "function"
    },
    {
      "inputs": [],
      "name": "implementation",
      "outputs": [
        {
          "internalType": "address",
          "name": "",
          "type": "address"
        }
      ],
      "stateMutability": "view",
      "type": "function"
    },
    {
      "inputs": [],
      "name": "owner",
      "outputs": [
        {
          "internalType": "address",
          "name": "",
          "type": "address"
        }
      ],
      "stateMutability": "view",
      "type": "function"
    },
    {
      "inputs": [],
      "name": "renounceOwnership",
      "outputs": [],
      "stateMutability": "nonpayable",
      "type": "function"
    },
    {
      "inputs": [
        {
          "internalType": "address",
          "name": "newOwner",
          "type": "address"
        }
      ],
      "name": "transferOwnership",
      "outputs": [],
      "stateMutability": "nonpayable",
      "type": "function"
    },
    {
      "inputs": [
        {
          "internalType": "address",
          "name": "newImplementation",
          "type": "address"
        }
      ],
      "name": "upgradeTo",
      "outputs": [],
      "stateMutability": "nonpayable",
      "type": "function"
    },
    {
      "inputs": [
        {
          "internalType": "address[]",
          "name": "_rewardTokenAddresses",
          "type": "address[]"
        },
        {
          "internalType": "address",
          "name": "_stakableTokenAddress",
          "type": "address"
        },
        {
          "internalType": "uint256[]",
          "name": "_rewardAmounts",
          "type": "uint256[]"
        },
        {
          "internalType": "uint64",
          "name": "_startingTimestamp",
          "type": "uint64"
        },
        {
          "internalType": "uint64",
          "name": "_endingTimestamp",
          "type": "uint64"
        },
        {
          "internalType": "bool",
          "name": "_locked",
          "type": "bool"
        },
        {
          "internalType": "uint256",
          "name": "_stakingCap",
          "type": "uint256"
        }
      ],
      "name": "createDistribution",
      "outputs": [],
      "stateMutability": "nonpayable",
      "type": "function"
    },
    {
      "inputs": [],
      "name": "getDistributionsAmount",
      "outputs": [
        {
          "internalType": "uint256",
          "name": "",
          "type": "uint256"
        }
      ],
      "stateMutability": "view",
      "type": "function"
    }
  ],
  "bytecode": "0x608060405234801561001057600080fd5b5060405161174638038061174683398101604081905261002f91610131565b600080546001600160a01b031916339081178255604051839282917f8be0079c531659141344cd1fd0a4f28419497f9722a3daafe3b4186f6b6457e0908290a35061007981610080565b505061015f565b6100938161012b60201b6105b01760201c565b6101095760405162461bcd60e51b815260206004820152603360248201527f5570677261646561626c65426561636f6e3a20696d706c656d656e746174696f60448201527f6e206973206e6f74206120636f6e747261637400000000000000000000000000606482015260840160405180910390fd5b600180546001600160a01b0319166001600160a01b0392909216919091179055565b3b151590565b600060208284031215610142578081fd5b81516001600160a01b0381168114610158578182fd5b9392505050565b6115d88061016e6000396000f3fe60806040523480156200001157600080fd5b5060043610620000945760003560e01c8063715018a61162000063578063715018a6146200010f5780638da5cb5b1462000119578063d5eeaef7146200012b578063f2fde38b146200013d5762000094565b80632c8908ff14620000995780633659cfe614620000b25780634487d3df14620000c95780635c60da1b14620000fd575b600080fd5b620000b0620000aa366004620009ce565b62000154565b005b620000b0620000c3366004620009b1565b620003a7565b620000e0620000da36600462000abb565b6200041f565b6040516001600160a01b0390911681526020015b60405180910390f35b6001546001600160a01b0316620000e0565b620000b06200044a565b6000546001600160a01b0316620000e0565b600254604051908152602001620000f4565b620000b06200014e366004620009b1565b620004c1565b60003060405180602001604052806000815250604051620001759062000925565b6200018292919062000b55565b604051809103906000f0801580156200019f573d6000803e3d6000fd5b50905060005b8981101562000241576000888883818110620001d157634e487b7160e01b600052603260045260246000fd5b9050602002013590506200022b3384838f8f878181106200020257634e487b7160e01b600052603260045260246000fd5b9050602002016020810190620002199190620009b1565b6001600160a01b0316929190620005ba565b5080620002388162000ca4565b915050620001a5565b506040516311d1371b60e11b815281906001600160a01b038216906323a26e369062000282908e908e908e908e908e908e908e908e908e9060040162000b7b565b600060405180830381600087803b1580156200029d57600080fd5b505af1158015620002b2573d6000803e3d6000fd5b505060405163f2fde38b60e01b81523360048201526001600160a01b038416925063f2fde38b9150602401600060405180830381600087803b158015620002f857600080fd5b505af11580156200030d573d6000803e3d6000fd5b5050600280546001810182556000919091527f405787fa12a823e0f2b7631cc41b3ba8828b3321ca811111fa75cd3aa3bb5ace0180546001600160a01b0319166001600160a01b0385169081179091556040805133815260208101929092527fc017437e795c074edadc242e8f0b868fb614ed8d2923b9a58cbc52799e8b9b27935001905060405180910390a15050505050505050505050565b6000546001600160a01b03163314620003dd5760405162461bcd60e51b8152600401620003d49062000c40565b60405180910390fd5b620003e8816200061c565b6040516001600160a01b038216907fbc7cd75a20ee27fd9adebab32041f755214dbc6bffa90cc0225b39da2e5c2d3b90600090a250565b600281815481106200043057600080fd5b6000918252602090912001546001600160a01b0316905081565b6000546001600160a01b03163314620004775760405162461bcd60e51b8152600401620003d49062000c40565b600080546040516001600160a01b03909116907f8be0079c531659141344cd1fd0a4f28419497f9722a3daafe3b4186f6b6457e0908390a3600080546001600160a01b0319169055565b6000546001600160a01b03163314620004ee5760405162461bcd60e51b8152600401620003d49062000c40565b6001600160a01b038116620005555760405162461bcd60e51b815260206004820152602660248201527f4f776e61626c653a206e6577206f776e657220697320746865207a65726f206160448201526564647265737360d01b6064820152608401620003d4565b600080546040516001600160a01b03808516939216917f8be0079c531659141344cd1fd0a4f28419497f9722a3daafe3b4186f6b6457e091a3600080546001600160a01b0319166001600160a01b0392909216919091179055565b803b15155b919050565b604080516001600160a01b0385811660248301528416604482015260648082018490528251808303909101815260849091019091526020810180516001600160e01b03166323b872dd60e01b17905262000616908590620006b3565b50505050565b6200062781620005b0565b620006915760405162461bcd60e51b815260206004820152603360248201527f5570677261646561626c65426561636f6e3a20696d706c656d656e746174696f6044820152721b881a5cc81b9bdd08184818dbdb9d1c9858dd606a1b6064820152608401620003d4565b600180546001600160a01b0319166001600160a01b0392909216919091179055565b60006200070a826040518060400160405280602081526020017f5361666545524332303a206c6f772d6c6576656c2063616c6c206661696c6564815250856001600160a01b0316620007919092919063ffffffff16565b8051909150156200078c57808060200190518101906200072b919062000a9c565b6200078c5760405162461bcd60e51b815260206004820152602a60248201527f5361666545524332303a204552433230206f7065726174696f6e20646964206e6044820152691bdd081cdd58d8d9595960b21b6064820152608401620003d4565b505050565b6060620007a28484600085620007ac565b90505b9392505050565b6060824710156200080f5760405162461bcd60e51b815260206004820152602660248201527f416464726573733a20696e73756666696369656e742062616c616e636520666f6044820152651c8818d85b1b60d21b6064820152608401620003d4565b6200081a85620005b0565b620008685760405162461bcd60e51b815260206004820152601d60248201527f416464726573733a2063616c6c20746f206e6f6e2d636f6e74726163740000006044820152606401620003d4565b600080866001600160a01b0316858760405162000886919062000b37565b60006040518083038185875af1925050503d8060008114620008c5576040519150601f19603f3d011682016040523d82523d6000602084013e620008ca565b606091505b5091509150620008dc828286620008e7565b979650505050505050565b60608315620008f8575081620007a5565b825115620009095782518084602001fd5b8160405162461bcd60e51b8152600401620003d4919062000c2b565b6108c48062000cdf83390190565b80356001600160a01b0381168114620005b557600080fd5b60008083601f8401126200095d578182fd5b50813567ffffffffffffffff81111562000975578182fd5b6020830191508360208260051b85010111156200099157600080fd5b9250929050565b803567ffffffffffffffff81168114620005b557600080fd5b600060208284031215620009c3578081fd5b620007a58262000933565b600080600080600080600080600060e08a8c031215620009ec578485fd5b893567ffffffffffffffff8082111562000a04578687fd5b62000a128d838e016200094b565b909b50995089915062000a2860208d0162000933565b985060408c013591508082111562000a3e578687fd5b5062000a4d8c828d016200094b565b909750955062000a62905060608b0162000998565b935062000a7260808b0162000998565b925060a08a013562000a848162000ccc565b8092505060c08a013590509295985092959850929598565b60006020828403121562000aae578081fd5b8151620007a58162000ccc565b60006020828403121562000acd578081fd5b5035919050565b81835260006001600160fb1b0383111562000aed578081fd5b8260051b80836020870137939093016020019283525090919050565b6000815180845262000b2381602086016020860162000c75565b601f01601f19169290920160200192915050565b6000825162000b4b81846020870162000c75565b9190910192915050565b6001600160a01b0383168152604060208201819052600090620007a29083018462000b09565b60e0808252810189905260008a6101008301825b8c81101562000bc1576001600160a01b0362000bab8462000933565b1682526020928301929091019060010162000b8f565b506001600160a01b038b166020850152838103604085015262000be6818a8c62000ad4565b9250505062000c01606083018767ffffffffffffffff169052565b67ffffffffffffffff94909416608082015291151560a083015260c0909101529695505050505050565b600060208252620007a5602083018462000b09565b6020808252818101527f4f776e61626c653a2063616c6c6572206973206e6f7420746865206f776e6572604082015260600190565b60005b8381101562000c9257818101518382015260200162000c78565b83811115620006165750506000910152565b600060001982141562000cc557634e487b7160e01b81526011600452602481fd5b5060010190565b801515811462000cdb57600080fd5b5056fe60806040526040516108c43803806108c483398101604081905261002291610422565b61004d60017fa3f0ad74e5423aebfd80d3ef4346578335a9a72aeaee59ff6cb3582b35133d5161052d565b6000805160206108838339815191521461007757634e487b7160e01b600052600160045260246000fd5b6100818282610088565b5050610592565b61009b8261024360201b6100291760201c565b6100fa5760405162461bcd60e51b815260206004820152602560248201527f426561636f6e50726f78793a20626561636f6e206973206e6f74206120636f6e6044820152641d1c9858dd60da1b60648201526084015b60405180910390fd5b61017d826001600160a01b0316635c60da1b6040518163ffffffff1660e01b815260040160206040518083038186803b15801561013657600080fd5b505afa15801561014a573d6000803e3d6000fd5b505050506040513d601f19601f8201168201806040525081019061016e9190610408565b61024360201b6100291760201c565b6101ef5760405162461bcd60e51b815260206004820152603460248201527f426561636f6e50726f78793a20626561636f6e20696d706c656d656e7461746960448201527f6f6e206973206e6f74206120636f6e747261637400000000000000000000000060648201526084016100f1565b60008051602061088383398151915282815581511561023e5761023c61021361024d565b836040518060600160405280602181526020016108a3602191396102da60201b61002f1760201c565b505b505050565b803b15155b919050565b60006102656000805160206108838339815191525490565b6001600160a01b0316635c60da1b6040518163ffffffff1660e01b815260040160206040518083038186803b15801561029d57600080fd5b505afa1580156102b1573d6000803e3d6000fd5b505050506040513d601f19601f820116820180604052508101906102d59190610408565b905090565b60606102e584610243565b6103405760405162461bcd60e51b815260206004820152602660248201527f416464726573733a2064656c65676174652063616c6c20746f206e6f6e2d636f6044820152651b9d1c9858dd60d21b60648201526084016100f1565b600080856001600160a01b03168560405161035b91906104de565b600060405180830381855af49150503d8060008114610396576040519150601f19603f3d011682016040523d82523d6000602084013e61039b565b606091505b5090925090506103ac8282866103b8565b925050505b9392505050565b606083156103c75750816103b1565b8251156103d75782518084602001fd5b8160405162461bcd60e51b81526004016100f191906104fa565b80516001600160a01b038116811461024857600080fd5b600060208284031215610419578081fd5b6103b1826103f1565b60008060408385031215610434578081fd5b61043d836103f1565b60208401519092506001600160401b0380821115610459578283fd5b818501915085601f83011261046c578283fd5b81518181111561047e5761047e61057c565b604051601f8201601f19908116603f011681019083821181831017156104a6576104a661057c565b816040528281528860208487010111156104be578586fd5b6104cf836020830160208801610550565b80955050505050509250929050565b600082516104f0818460208701610550565b9190910192915050565b6000602082528251806020840152610519816040850160208701610550565b601f01601f19169190910160400192915050565b60008282101561054b57634e487b7160e01b81526011600452602481fd5b500390565b60005b8381101561056b578181015183820152602001610553565b8381111561023c5750506000910152565b634e487b7160e01b600052604160045260246000fd5b6102e2806105a16000396000f3fe60806040523661001357610011610017565b005b6100115b61002761002261010a565b6101a9565b565b3b151590565b6060833b6100935760405162461bcd60e51b815260206004820152602660248201527f416464726573733a2064656c65676174652063616c6c20746f206e6f6e2d636f6044820152651b9d1c9858dd60d21b60648201526084015b60405180910390fd5b600080856001600160a01b0316856040516100ae919061022d565b600060405180830381855af49150503d80600081146100e9576040519150601f19603f3d011682016040523d82523d6000602084013e6100ee565b606091505b50915091506100fe8282866101cd565b925050505b9392505050565b60006101347fa3f0ad74e5423aebfd80d3ef4346578335a9a72aeaee59ff6cb3582b35133d505490565b6001600160a01b0316635c60da1b6040518163ffffffff1660e01b815260040160206040518083038186803b15801561016c57600080fd5b505afa158015610180573d6000803e3d6000fd5b505050506040513d601f19601f820116820180604052508101906101a49190610206565b905090565b3660008037600080366000845af43d6000803e8080156101c8573d6000f35b3d6000fd5b606083156101dc575081610103565b8251156101ec5782518084602001fd5b8160405162461bcd60e51b815260040161008a9190610249565b600060208284031215610217578081fd5b81516001600160a01b0381168114610103578182fd5b6000825161023f81846020870161027c565b9190910192915050565b600060208252825180602084015261026881604085016020870161027c565b601f01601f19169190910160400192915050565b60005b8381101561029757818101518382015260200161027f565b838111156102a6576000848401525b5050505056fea2646970667358221220700f52a3063316a34565d21e2be5936b3b400772aa1c58b2ea7e04b487c7e86c64736f6c63430008030033a3f0ad74e5423aebfd80d3ef4346578335a9a72aeaee59ff6cb3582b35133d50426561636f6e50726f78793a2066756e6374696f6e2063616c6c206661696c6564a264697066735822122099d153cd5785c43b0a0e653a9cf70ceab95ac2c4897d9e975cca21b224b1dca964736f6c63430008030033",
  "immutableReferences": {},
  "source": "// SPDX-License-Identifier: GPL-3.0\n\npragma solidity ^0.8.0;\n\nimport \"@openzeppelin/contracts/token/ERC20/ERC20.sol\";\nimport \"@openzeppelin/contracts/token/ERC20/utils/SafeERC20.sol\";\nimport \"@openzeppelin/contracts/proxy/beacon/UpgradeableBeacon.sol\";\nimport \"@openzeppelin/contracts/proxy/beacon/BeaconProxy.sol\";\nimport \"./ERC20StakingRewardsDistribution.sol\";\n\ncontract ERC20StakingRewardsDistributionFactory is UpgradeableBeacon {\n    using SafeERC20 for ERC20;\n\n    ERC20StakingRewardsDistribution[] public distributions;\n\n    event DistributionCreated(address owner, address deployedAt);\n\n    constructor(address _implementation) UpgradeableBeacon(_implementation) {}\n\n    function createDistribution(\n        address[] calldata _rewardTokenAddresses,\n        address _stakableTokenAddress,\n        uint256[] calldata _rewardAmounts,\n        uint64 _startingTimestamp,\n        uint64 _endingTimestamp,\n        bool _locked,\n        uint256 _stakingCap\n    ) public virtual {\n        BeaconProxy _distributionProxy =\n            new BeaconProxy(address(this), bytes(\"\"));\n        for (uint256 _i; _i < _rewardTokenAddresses.length; _i++) {\n            uint256 _relatedAmount = _rewardAmounts[_i];\n            ERC20(_rewardTokenAddresses[_i]).safeTransferFrom(\n                msg.sender,\n                address(_distributionProxy),\n                _relatedAmount\n            );\n        }\n        ERC20StakingRewardsDistribution _distribution =\n            ERC20StakingRewardsDistribution(address(_distributionProxy));\n        _distribution.initialize(\n            _rewardTokenAddresses,\n            _stakableTokenAddress,\n            _rewardAmounts,\n            _startingTimestamp,\n            _endingTimestamp,\n            _locked,\n            _stakingCap\n        );\n        _distribution.transferOwnership(msg.sender);\n        distributions.push(_distribution);\n        emit DistributionCreated(msg.sender, address(_distribution));\n    }\n\n    function getDistributionsAmount() external view returns (uint256) {\n        return distributions.length;\n    }\n}\n",
  "sourcePath": "/home/luzzif/Projects/swapr-lp-staker/contracts/ERC20StakingRewardsDistributionFactory.sol",
  "compiler": {
    "name": "solc",
    "version": "0.8.3+commit.8d00100c.Emscripten.clang"
  },
  "schemaVersion": "3.3.3",
  "updatedAt": "2021-04-15T12:36:31.528Z",
  "devdoc": {
    "kind": "dev",
    "methods": {
      "implementation()": {
        "details": "Returns the current implementation address."
      },
      "owner()": {
        "details": "Returns the address of the current owner."
      },
      "renounceOwnership()": {
        "details": "Leaves the contract without owner. It will not be possible to call `onlyOwner` functions anymore. Can only be called by the current owner. NOTE: Renouncing ownership will leave the contract without an owner, thereby removing any functionality that is only available to the owner."
      },
      "transferOwnership(address)": {
        "details": "Transfers ownership of the contract to a new account (`newOwner`). Can only be called by the current owner."
      },
      "upgradeTo(address)": {
        "details": "Upgrades the beacon to a new implementation. Emits an {Upgraded} event. Requirements: - msg.sender must be the owner of the contract. - `newImplementation` must be a contract."
      }
    },
    "version": 1
  },
  "userdoc": {
    "kind": "user",
    "methods": {},
    "version": 1
  }
}