{
  "contractName": "ERC20StakingRewardsDistributionFuzzer",
  "abi": [
    {
      "inputs": [],
      "stateMutability": "nonpayable",
      "type": "constructor"
    },
    {
      "anonymous": false,
      "inputs": [],
      "name": "AssertionFailed",
      "type": "event"
    },
    {
      "inputs": [
        {
          "internalType": "uint256",
          "name": "_amount",
          "type": "uint256"
        }
      ],
      "name": "stake",
      "outputs": [],
      "stateMutability": "nonpayable",
      "type": "function"
    }
  ],
  "bytecode": "0x60806040523480156200001157600080fd5b5060405162000020906200075c565b6040808252600e908201526d52657761726420746f6b656e203160901b6060820152608060208201819052600490820152635257443160e01b60a082015260c001604051809103906000f0801580156200007e573d6000803e3d6000fd5b50600280546001600160a01b0319166001600160a01b0392909216919091179055604051620000ad906200075c565b6040808252600e908201526d2932bbb0b932103a37b5b2b7101960911b606082015260806020820181905260049082015263292ba21960e11b60a082015260c001604051809103906000f0801580156200010b573d6000803e3d6000fd5b50600380546001600160a01b0319166001600160a01b03929092169190911790556040516200013a906200075c565b6040808252600e908201526d29ba30b5b0b13632903a37b5b2b760911b60608201526080602082018190526003908201526253544b60e81b60a082015260c001604051809103906000f08015801562000197573d6000803e3d6000fd5b50600480546001600160a01b0319166001600160a01b0392909216919091179055604051600090620001c9906200076a565b604051809103906000f080158015620001e6573d6000803e3d6000fd5b509050600081604051620001fa9062000778565b6001600160a01b039091168152602001604051809103906000f08015801562000227573d6000803e3d6000fd5b506040805160028082526060820183529293506000929091602083019080368337019050509050670de0b6b3a7640000816000815181106200026d576200026d620008f9565b602002602001018181525050671bc16d674ec8000081600181518110620002985762000298620008f9565b602090810291909101015260025481516001600160a01b039091169063095ea7b39084908490600090620002d057620002d0620008f9565b60200260200101516040518363ffffffff1660e01b81526004016200030a9291906001600160a01b03929092168252602082015260400190565b602060405180830381600087803b1580156200032557600080fd5b505af11580156200033a573d6000803e3d6000fd5b505050506040513d601f19601f8201168201806040525081019062000360919062000794565b5060035481516001600160a01b039091169063095ea7b390849084906001908110620003905762000390620008f9565b60200260200101516040518363ffffffff1660e01b8152600401620003ca9291906001600160a01b03929092168252602082015260400190565b602060405180830381600087803b158015620003e557600080fd5b505af1158015620003fa573d6000803e3d6000fd5b505050506040513d601f19601f8201168201806040525081019062000420919062000794565b50604080516002808252606082018352600092602083019080368337505060025482519293506001600160a01b031691839150600090620004655762000465620008f9565b6001600160a01b039283166020918202929092010152600354825191169082906001908110620004995762000499620008f9565b6001600160a01b03928316602091820292909201015260045484821691632c8908ff918491168542620004cf81612710620008d2565b6000806040518863ffffffff1660e01b8152600401620004f6979695949392919062000827565b600060405180830381600087803b1580156200051157600080fd5b505af115801562000526573d6000803e3d6000fd5b5050604051634487d3df60e01b8152600060048201526001600160a01b0386169250634487d3df915060240160206040518083038186803b1580156200056b57600080fd5b505afa15801562000580573d6000803e3d6000fd5b505050506040513d601f19601f82011682018060405250810190620005a69190620007bf565b600080546001600160a01b0319166001600160a01b039283169081179091556004805460405163095ea7b360e01b81529182019290925269021e19e0c9bab2400000602482015291169063095ea7b390604401602060405180830381600087803b1580156200061457600080fd5b505af115801562000629573d6000803e3d6000fd5b505050506040513d601f19601f820116820180604052508101906200064f919062000794565b506000546004546040516001600160a01b039283169290911690620006749062000786565b6001600160a01b03928316815291166020820152604001604051809103906000f080158015620006a8573d6000803e3d6000fd5b50600180546001600160a01b0319166001600160a01b039283169081179091556004805460405163a9059cbb60e01b81529182019290925268056bc75e2d63100000602482015291169063a9059cbb90604401602060405180830381600087803b1580156200071657600080fd5b505af11580156200072b573d6000803e3d6000fd5b505050506040513d601f19601f8201168201806040525081019062000751919062000794565b50505050506200090f565b610b828062000e3d83390190565b612b5f80620019bf83390190565b610e14806200451e83390190565b610545806200533283390190565b600060208284031215620007a757600080fd5b81518015158114620007b857600080fd5b9392505050565b600060208284031215620007d257600080fd5b81516001600160a01b0381168114620007b857600080fd5b600081518084526020808501945080840160005b838110156200081c57815187529582019590820190600101620007fe565b509495945050505050565b60e08082528851908201819052600090602090610100840190828c01845b828110156200086c5781516001600160a01b03168452928401929084019060010162000845565b5050506001600160a01b038a1684830152838103604085015262000891818a620007ea565b92505050620008ab60608301876001600160401b03169052565b6001600160401b0394909416608082015291151560a083015260c090910152949350505050565b60008219821115620008f457634e487b7160e01b600052601160045260246000fd5b500190565b634e487b7160e01b600052603260045260246000fd5b61051e806200091f6000396000f3fe608060405234801561001057600080fd5b506004361061002b5760003560e01c8063a694fc3a14610030575b600080fd5b61004361003e366004610471565b610045565b005b600480546040516370a0823160e01b815230928101929092526000916001600160a01b03909116906370a082319060240160206040518083038186803b15801561008e57600080fd5b505afa1580156100a2573d6000803e3d6000fd5b505050506040513d601f19601f820116820180604052508101906100c6919061048a565b905060008060009054906101000a90046001600160a01b03166001600160a01b031663b41fa9796040518163ffffffff1660e01b815260040160206040518083038186803b15801561011757600080fd5b505afa15801561012b573d6000803e3d6000fd5b505050506040513d601f19601f8201168201806040525081019061014f919061048a565b60008054604051632ac2353f60e21b815230600482015292935090916001600160a01b039091169063ab08d4fc9060240160206040518083038186803b15801561019857600080fd5b505afa1580156101ac573d6000803e3d6000fd5b505050506040513d601f19601f820116820180604052508101906101d0919061048a565b60005460405163534a7e1d60e11b8152600481018790529192506001600160a01b03169063a694fc3a90602401600060405180830381600087803b15801561021757600080fd5b505af115801561022b573d6000803e3d6000fd5b5050600480546040516370a0823160e01b81523092810192909252600093506001600160a01b031691506370a082319060240160206040518083038186803b15801561027657600080fd5b505afa15801561028a573d6000803e3d6000fd5b505050506040513d601f19601f820116820180604052508101906102ae919061048a565b905060008060009054906101000a90046001600160a01b03166001600160a01b031663b41fa9796040518163ffffffff1660e01b815260040160206040518083038186803b1580156102ff57600080fd5b505afa158015610313573d6000803e3d6000fd5b505050506040513d601f19601f82011682018060405250810190610337919061048a565b60008054604051632ac2353f60e21b815230600482015292935090916001600160a01b039091169063ab08d4fc9060240160206040518083038186803b15801561038057600080fd5b505afa158015610394573d6000803e3d6000fd5b505050506040513d601f19601f820116820180604052508101906103b8919061048a565b9050826103c588886104bb565b146103f4576040517ff92d4a94d1d5014696dcfc65a0a061af97608eebd7fea0519ff4fdbca71bae9f90600090a15b816103ff88876104a3565b1461042e576040517ff92d4a94d1d5014696dcfc65a0a061af97608eebd7fea0519ff4fdbca71bae9f90600090a15b8061043988866104a3565b14610468576040517ff92d4a94d1d5014696dcfc65a0a061af97608eebd7fea0519ff4fdbca71bae9f90600090a15b50505050505050565b60006020828403121561048357600080fd5b5035919050565b60006020828403121561049c57600080fd5b5051919050565b600082198211156104b6576104b66104d2565b500190565b6000828210156104cd576104cd6104d2565b500390565b634e487b7160e01b600052601160045260246000fdfea26469706673582212205d69c47c79011e523661f42720681b6415c161238c9338d4c3436833d838519964736f6c6343000807003360806040523480156200001157600080fd5b5060405162000b8238038062000b828339810160408190526200003491620001c5565b81516200004990600390602085019062000068565b5080516200005f90600490602084019062000068565b50505062000282565b82805462000076906200022f565b90600052602060002090601f0160209004810192826200009a5760008555620000e5565b82601f10620000b557805160ff1916838001178555620000e5565b82800160010185558215620000e5579182015b82811115620000e5578251825591602001919060010190620000c8565b50620000f3929150620000f7565b5090565b5b80821115620000f35760008155600101620000f8565b600082601f8301126200012057600080fd5b81516001600160401b03808211156200013d576200013d6200026c565b604051601f8301601f19908116603f011681019082821181831017156200016857620001686200026c565b816040528381526020925086838588010111156200018557600080fd5b600091505b83821015620001a957858201830151818301840152908201906200018a565b83821115620001bb5760008385830101525b9695505050505050565b60008060408385031215620001d957600080fd5b82516001600160401b0380821115620001f157600080fd5b620001ff868387016200010e565b935060208501519150808211156200021657600080fd5b5062000225858286016200010e565b9150509250929050565b600181811c908216806200024457607f821691505b602082108114156200026657634e487b7160e01b600052602260045260246000fd5b50919050565b634e487b7160e01b600052604160045260246000fd5b6108f080620002926000396000f3fe608060405234801561001057600080fd5b50600436106100a95760003560e01c80633950935111610071578063395093511461012357806370a082311461013657806395d89b411461015f578063a457c2d714610167578063a9059cbb1461017a578063dd62ed3e1461018d57600080fd5b806306fdde03146100ae578063095ea7b3146100cc57806318160ddd146100ef57806323b872dd14610101578063313ce56714610114575b600080fd5b6100b66101c6565b6040516100c391906107e5565b60405180910390f35b6100df6100da3660046107bb565b610258565b60405190151581526020016100c3565b6002545b6040519081526020016100c3565b6100df61010f36600461077f565b61026e565b604051601281526020016100c3565b6100df6101313660046107bb565b610324565b6100f361014436600461072a565b6001600160a01b031660009081526020819052604090205490565b6100b661035b565b6100df6101753660046107bb565b61036a565b6100df6101883660046107bb565b610405565b6100f361019b36600461074c565b6001600160a01b03918216600090815260016020908152604080832093909416825291909152205490565b6060600380546101d590610869565b80601f016020809104026020016040519081016040528092919081815260200182805461020190610869565b801561024e5780601f106102235761010080835404028352916020019161024e565b820191906000526020600020905b81548152906001019060200180831161023157829003601f168201915b5050505050905090565b6000610265338484610412565b50600192915050565b600061027b848484610536565b6001600160a01b0384166000908152600160209081526040808320338452909152902054828110156103055760405162461bcd60e51b815260206004820152602860248201527f45524332303a207472616e7366657220616d6f756e74206578636565647320616044820152676c6c6f77616e636560c01b60648201526084015b60405180910390fd5b61031985336103148685610852565b610412565b506001949350505050565b3360008181526001602090815260408083206001600160a01b0387168452909152812054909161026591859061031490869061083a565b6060600480546101d590610869565b3360009081526001602090815260408083206001600160a01b0386168452909152812054828110156103ec5760405162461bcd60e51b815260206004820152602560248201527f45524332303a2064656372656173656420616c6c6f77616e63652062656c6f77604482015264207a65726f60d81b60648201526084016102fc565b6103fb33856103148685610852565b5060019392505050565b6000610265338484610536565b6001600160a01b0383166104745760405162461bcd60e51b8152602060048201526024808201527f45524332303a20617070726f76652066726f6d20746865207a65726f206164646044820152637265737360e01b60648201526084016102fc565b6001600160a01b0382166104d55760405162461bcd60e51b815260206004820152602260248201527f45524332303a20617070726f766520746f20746865207a65726f206164647265604482015261737360f01b60648201526084016102fc565b6001600160a01b0383811660008181526001602090815260408083209487168084529482529182902085905590518481527f8c5be1e5ebec7d5bd14f71427d1e84f3dd0314c0f7b2291e5b200ac8c7c3b925910160405180910390a3505050565b6001600160a01b03831661059a5760405162461bcd60e51b815260206004820152602560248201527f45524332303a207472616e736665722066726f6d20746865207a65726f206164604482015264647265737360d81b60648201526084016102fc565b6001600160a01b0382166105fc5760405162461bcd60e51b815260206004820152602360248201527f45524332303a207472616e7366657220746f20746865207a65726f206164647260448201526265737360e81b60648201526084016102fc565b6001600160a01b038316600090815260208190526040902054818110156106745760405162461bcd60e51b815260206004820152602660248201527f45524332303a207472616e7366657220616d6f756e7420657863656564732062604482015265616c616e636560d01b60648201526084016102fc565b61067e8282610852565b6001600160a01b0380861660009081526020819052604080822093909355908516815290812080548492906106b490849061083a565b92505081905550826001600160a01b0316846001600160a01b03167fddf252ad1be2c89b69c2b068fc378daa952ba7f163c4a11628f55a4df523b3ef8460405161070091815260200190565b60405180910390a350505050565b80356001600160a01b038116811461072557600080fd5b919050565b60006020828403121561073c57600080fd5b6107458261070e565b9392505050565b6000806040838503121561075f57600080fd5b6107688361070e565b91506107766020840161070e565b90509250929050565b60008060006060848603121561079457600080fd5b61079d8461070e565b92506107ab6020850161070e565b9150604084013590509250925092565b600080604083850312156107ce57600080fd5b6107d78361070e565b946020939093013593505050565b600060208083528351808285015260005b81811015610812578581018301518582016040015282016107f6565b81811115610824576000604083870101525b50601f01601f1916929092016040019392505050565b6000821982111561084d5761084d6108a4565b500190565b600082821015610864576108646108a4565b500390565b600181811c9082168061087d57607f821691505b6020821081141561089e57634e487b7160e01b600052602260045260246000fd5b50919050565b634e487b7160e01b600052601160045260246000fdfea26469706673582212205954fae4db67dc518be77b20699a8b8b53d445b7784a55ffd4be48ae0593167864736f6c63430008070033608060405234801561001057600080fd5b50612b3f806100206000396000f3fe608060405234801561001057600080fd5b50600436106101e55760003560e01c80639168ae721161010f578063c45a0155116100a2578063e644067d11610071578063e644067d1461046b578063ea8a1af014610473578063f2fde38b1461047b578063f301af421461048e57600080fd5b8063c45a01551461041c578063c4f59f9b1461042f578063cf30901214610444578063dc01f60d1461045857600080fd5b8063b41fa979116100de578063b41fa979146103d3578063b42652e9146103dc578063b9e35db0146103ef578063c10de3001461040257600080fd5b80639168ae72146103575780639322776e14610377578063a694fc3a14610397578063ab08d4fc146103aa57600080fd5b80635e5294b71161018757806377329f351161015657806377329f351461030b578063887862721461031e5780638c574b48146103315780638da5cb5b1461034457600080fd5b80635e5294b7146102a45780635fa35023146102d6578063645a8a56146102f0578063715018a61461030357600080fd5b80632e1a7d4d116101c35780632e1a7d4d146102535780633b34ee50146102665780633f9942ff1461028757806344c370d31461029b57600080fd5b8063158ef93e146101ea5780631c96c3fb1461021357806323a26e361461023e575b600080fd5b6005546101fe90600160b01b900460ff1681565b60405190151581526020015b60405180910390f35b600354610226906001600160a01b031681565b6040516001600160a01b03909116815260200161020a565b61025161024c3660046125e1565b6104d3565b005b610251610261366004612795565b610a02565b6102796102743660046125c6565b610bbe565b60405190815260200161020a565b6005546101fe90600160a81b900460ff1681565b61027960075481565b6002546102be90600160401b90046001600160401b031681565b6040516001600160401b03909116815260200161020a565b6002546102be90600160801b90046001600160401b031681565b6102796102fe3660046125c6565b610d15565b610251610d7d565b6102516103193660046125c6565b610de6565b6002546102be906001600160401b031681565b61025161033f3660046126a2565b611015565b600454610226906001600160a01b031681565b6102796103653660046125c6565b60016020526000908152604090205481565b61038a6103853660046125c6565b6112d6565b60405161020a919061290d565b6102516103a5366004612795565b6113c2565b6102796103b83660046125c6565b6001600160a01b031660009081526001602052604090205490565b61027960065481565b6102516103ea3660046125c6565b611625565b61038a6103fd3660046125c6565b6116a0565b6002546102be90600160c01b90046001600160401b031681565b600554610226906001600160a01b031681565b610437611787565b60405161020a91906128c0565b6005546101fe90600160a01b900460ff1681565b61038a6104663660046125c6565b611853565b610251611abf565b610251611d6b565b6102516104893660046125c6565b611f4f565b6104a161049c366004612795565b612013565b604080516001600160a01b0390961686526020860194909452928401919091526060830152608082015260a00161020a565b600554600160b01b900460ff161561051a5760405162461bcd60e51b81526020600482015260056024820152640a6a48862760db1b60448201526064015b60405180910390fd5b42846001600160401b03161161055a5760405162461bcd60e51b8152602060048201526005602482015264535244303160d81b6044820152606401610511565b836001600160401b0316836001600160401b0316116105a35760405162461bcd60e51b815260206004820152600560248201526429a922181960d91b6044820152606401610511565b8785146105da5760405162461bcd60e51b8152602060048201526005602482015264535244303360d81b6044820152606401610511565b6105e48484612a26565b600260106101000a8154816001600160401b0302191690836001600160401b0316021790555060005b63ffffffff81168911156108c15760008a8a8363ffffffff1681811061063557610635612acf565b905060200201602081019061064a91906125c6565b9050600088888463ffffffff1681811061066657610666612acf565b60200291909101359150506001600160a01b0382166106af5760405162461bcd60e51b815260206004820152600560248201526414d4910c0d60da1b6044820152606401610511565b600081116106e75760405162461bcd60e51b8152602060048201526005602482015264535244303560d81b6044820152606401610511565b6040516370a0823160e01b8152306004820152829082906001600160a01b038316906370a082319060240160206040518083038186803b15801561072a57600080fd5b505afa15801561073e573d6000803e3d6000fd5b505050506040513d601f19601f8201168201806040525081019061076291906127ae565b10156107985760405162461bcd60e51b815260206004820152600560248201526429a922181b60d91b6044820152606401610511565b506040805160a0810182526001600160a01b0393841681526020810192835260009181018281526060820183815260808301848152845460018101865594805292517f290decd9548b62a8d60345a988386fc84ba6bc95484008f6362f93160ef3e563600590950294850180546001600160a01b031916919097161790955592517f290decd9548b62a8d60345a988386fc84ba6bc95484008f6362f93160ef3e56483015591517f290decd9548b62a8d60345a988386fc84ba6bc95484008f6362f93160ef3e56582015591517f290decd9548b62a8d60345a988386fc84ba6bc95484008f6362f93160ef3e566830155517f290decd9548b62a8d60345a988386fc84ba6bc95484008f6362f93160ef3e56790910155806108b981612a95565b91505061060d565b506001600160a01b0387166109005760405162461bcd60e51b8152602060048201526005602482015264535244303760d81b6044820152606401610511565b600380546001600160a01b03199081166001600160a01b038a1617909155600480543392168217905560058054600280546fffffffffffffffffffffffffffffffff19166001600160401b03898116918217600160401b918a1691909102176001600160c01b0316600160c01b919091021790556007849055600160b01b6001600160a81b031990911660ff60a01b1990931692909217600160a01b851515021761ffff60a81b19169190911790556040517f2c1fa4f0e3f1c67636ee0b3665bf3a04407a2c1332d4e3e99f941ee2b0b9daf4906109ef908b908b908b908b908b908b908b908b908b90612819565b60405180910390a1505050505050505050565b600554600160b01b900460ff168015610a255750600554600160a81b900460ff16155b8015610a3c57506002546001600160401b03164210155b610a585760405162461bcd60e51b815260040161051190612978565b60008111610a905760405162461bcd60e51b8152602060048201526005602482015264535244313160d81b6044820152606401610511565b600554600160a01b900460ff1615610aeb57600254600160401b90046001600160401b03164211610aeb5760405162461bcd60e51b815260206004820152600560248201526429a922189960d91b6044820152606401610511565b610af361205e565b3360009081526001602052604090208054821115610b3b5760405162461bcd60e51b8152602060048201526005602482015264535244313360d81b6044820152606401610511565b81816000016000828254610b4f9190612a0f565b925050819055508160066000828254610b689190612a0f565b9091555050600354610b84906001600160a01b03163384612240565b60405182815233907f7084f5476618d8e60b11ef0d7d3f06914655adb8793e28ff7f018d4c76d505d5906020015b60405180910390a25050565b6000805b600054811015610d0c576000808281548110610be057610be0612acf565b6000918252602090912060059091020180549091506001600160a01b0385811691161415610cf957600254600090610c2d90600160701b90600160801b90046001600160401b03166129f0565b82600101548360030154610c4191906129f0565b610c4b91906129ce565b8260040154610c5a91906129b6565b9050808260010154610c6c9190612a0f565b82546040516370a0823160e01b81523060048201526001600160a01b03909116906370a082319060240160206040518083038186803b158015610cae57600080fd5b505afa158015610cc2573d6000803e3d6000fd5b505050506040513d601f19601f82011682018060405250810190610ce691906127ae565b610cf09190612a0f565b95945050505050565b5080610d0481612a7a565b915050610bc2565b50600092915050565b6000805b600054811015610d0c576000808281548110610d3757610d37612acf565b6000918252602090912060059091020180549091506001600160a01b0385811691161415610d6a57600101549392505050565b5080610d7581612a7a565b915050610d19565b6004546001600160a01b03163314610da75760405162461bcd60e51b815260040161051190612997565b600480546001600160a01b031916905560405160009081907f8be0079c531659141344cd1fd0a4f28419497f9722a3daafe3b4186f6b6457e0908290a3565b600554600160b01b900460ff168015610e095750600554600160a81b900460ff16155b8015610e2057506002546001600160401b03164210155b610e3c5760405162461bcd60e51b815260040161051190612978565b610e4461205e565b33600090815260016020526040812081549091906001600160401b03811115610e6f57610e6f612ae5565b604051908082528060200260200182016040528015610e98578160200160208202803683370190505b5090506000805b600054811015610f98576000808281548110610ebd57610ebd612acf565b60009182526020808320600590920290910180546001600160a01b031683526001808901909252604083206002810154928101549194509291610eff91612a0f565b905084158015610f0f5750600081115b15610f1957600194505b80826002016000828254610f2d91906129b6565b9250508190555080836004016000828254610f4891906129b6565b90915550508254610f63906001600160a01b03168983612240565b80868581518110610f7657610f76612acf565b6020026020010181815250505050508080610f9090612a7a565b915050610e9f565b5080610fce5760405162461bcd60e51b8152602060048201526005602482015264535244323360d81b6044820152606401610511565b336001600160a01b03167f28ee566bdecaf975c0979f4d09fecf91a9009ffe78523aef053a678134137b8b83604051611007919061290d565b60405180910390a250505050565b600554600160b01b900460ff1680156110385750600554600160a81b900460ff16155b801561104f57506002546001600160401b03164210155b61106b5760405162461bcd60e51b815260040161051190612978565b6000548251146110a55760405162461bcd60e51b815260206004820152600560248201526414d4910c4d60da1b6044820152606401610511565b6110ad61205e565b33600090815260016020526040812081549091906001600160401b038111156110d8576110d8612ae5565b604051908082528060200260200182016040528015611101578160200160208202803683370190505b5090506000805b60005481101561125857600080828154811061112657611126612acf565b60009182526020808320600590920290910180546001600160a01b03168352600180890190925260408320600281015492810154919450929161116891612a0f565b9050600089858151811061117e5761117e612acf565b60200260200101519050808210156111c05760405162461bcd60e51b8152602060048201526005602482015264535244313560d81b6044820152606401610511565b851580156111ce5750600081115b156111d857600195505b808360020160008282546111ec91906129b6565b925050819055508084600401600082825461120791906129b6565b90915550508354611222906001600160a01b03168a83612240565b8087868151811061123557611235612acf565b60200260200101818152505050505050808061125090612a7a565b915050611108565b508061128e5760405162461bcd60e51b815260206004820152600560248201526414d4910c8d60da1b6044820152606401610511565b336001600160a01b03167f28ee566bdecaf975c0979f4d09fecf91a9009ffe78523aef053a678134137b8b836040516112c7919061290d565b60405180910390a25050505050565b6001600160a01b03811660009081526001602052604081208154606092906001600160401b0381111561130b5761130b612ae5565b604051908082528060200260200182016040528015611334578160200160208202803683370190505b50905060005b6000548110156113ba5782600101600080838154811061135c5761135c612acf565b600091825260208083206005909202909101546001600160a01b03168352820192909252604001902060010154825183908390811061139d5761139d612acf565b6020908102919091010152806113b281612a7a565b91505061133a565b509392505050565b600554600160b01b900460ff1680156113e55750600554600160a81b900460ff16155b80156113fc57506002546001600160401b03164210155b801561141a5750600254600160401b90046001600160401b03164211155b61144e5760405162461bcd60e51b8152602060048201526005602482015264535244323160d81b6044820152606401610511565b600560009054906101000a90046001600160a01b03166001600160a01b031663bbb781cc6040518163ffffffff1660e01b8152600401602060405180830381600087803b15801561149e57600080fd5b505af11580156114b2573d6000803e3d6000fd5b505050506040513d601f19601f820116820180604052508101906114d69190612778565b1561150b5760405162461bcd60e51b8152602060048201526005602482015264535244323560d81b6044820152606401610511565b600081116115435760405162461bcd60e51b8152602060048201526005602482015264535244303960d81b6044820152606401610511565b60075415611592576007548160065461155c91906129b6565b11156115925760405162461bcd60e51b8152602060048201526005602482015264053524431360dc1b6044820152606401610511565b61159a61205e565b3360009081526001602052604081208054909183918391906115bd9084906129b6565b9250508190555081600660008282546115d691906129b6565b90915550506003546115f3906001600160a01b03163330856122a8565b60405182815233907f9e71bc8eea02a63969f509818f2dafb9254532904319f9dbda79b67bd34a5f3d90602001610bb2565b600554600160b01b900460ff1680156116485750600554600160a81b900460ff16155b801561165f57506002546001600160401b03164210155b61167b5760405162461bcd60e51b815260040161051190612978565b61168481610de6565b3360009081526001602052604090205461169d90610a02565b50565b6001600160a01b03811660009081526001602052604081208154606092906001600160401b038111156116d5576116d5612ae5565b6040519080825280602002602001820160405280156116fe578160200160208202803683370190505b50905060005b6000548110156113ba57600080828154811061172257611722612acf565b60009182526020808320600590920290910180546001600160a01b031683526001870190915260409091206002015484519192509084908490811061176957611769612acf565b6020908102919091010152508061177f81612a7a565b915050611704565b60008054606091906001600160401b038111156117a6576117a6612ae5565b6040519080825280602002602001820160405280156117cf578160200160208202803683370190505b50905060005b60005481101561184d57600081815481106117f2576117f2612acf565b600091825260209091206005909102015482516001600160a01b039091169083908390811061182357611823612acf565b6001600160a01b03909216602092830291909101909101528061184581612a7a565b9150506117d5565b50919050565b60008054606091906001600160401b0381111561187257611872612ae5565b60405190808252806020026020018201604052801561189b578160200160208202803683370190505b50600554909150600160b01b900460ff1615806118c257506002546001600160401b031642105b1561190c5760005b6000548110156119055760008282815181106118e8576118e8612acf565b6020908102919091010152806118fd81612a7a565b9150506118ca565b5092915050565b6001600160a01b0383166000908152600160205260408120600254909190611945904290600160401b90046001600160401b03166122e6565b60025490915060009061196890600160c01b90046001600160401b031683612a26565b6001600160401b0316905060005b600054811015611ab457600080828154811061199457611994612acf565b60009182526020808320600590920290910180546001600160a01b0316835260018801909152604090912060028201549192509084158015906119d957506000600654115b15611a34576002546006546119fe91600160801b90046001600160401b0316906129f0565b6001840154600160701b90611a1390886129f0565b611a1d91906129f0565b611a2791906129ce565b611a3190826129b6565b90505b8154600090600160701b90611a499084612a0f565b8954611a5591906129f0565b611a5f91906129ce565b905082600201548360010154611a759190612a0f565b611a7f90826129b6565b898681518110611a9157611a91612acf565b602002602001018181525050505050508080611aac90612a7a565b915050611976565b509295945050505050565b600554600160b01b900460ff168015611ae25750600554600160a81b900460ff16155b8015611af957506002546001600160401b03164210155b611b155760405162461bcd60e51b815260040161051190612978565b611b1d61205e565b600080546001600160401b03811115611b3857611b38612ae5565b604051908082528060200260200182016040528015611b61578160200160208202803683370190505b5090506000805b600054811015611cfa576000808281548110611b8657611b86612acf565b600091825260209091206002546005909202019150611bba90600160701b90600160801b90046001600160401b03166129f0565b81600101548260030154611bce91906129f0565b611bd891906129ce565b816004016000828254611beb91906129b6565b909155505060006003820181905560048201546001830154611c0d9190612a0f565b82546040516370a0823160e01b81523060048201526001600160a01b03909116906370a082319060240160206040518083038186803b158015611c4f57600080fd5b505afa158015611c63573d6000803e3d6000fd5b505050506040513d601f19601f82011682018060405250810190611c8791906127ae565b611c919190612a0f565b905083158015611ca15750600081115b15611cab57600193505b80858481518110611cbe57611cbe612acf565b60209081029190910101526004548254611ce5916001600160a01b03918216911683612240565b50508080611cf290612a7a565b915050611b68565b5080611d305760405162461bcd60e51b815260206004820152600560248201526429a922191960d91b6044820152606401610511565b7ff904fafa600a7e4e8039f3a5497d1b6016772e3060f87d3e40f911b315f00bd182604051611d5f919061290d565b60405180910390a15050565b6004546001600160a01b03163314611d955760405162461bcd60e51b815260040161051190612997565b600554600160b01b900460ff168015611db85750600554600160a81b900460ff16155b611dec5760405162461bcd60e51b8152602060048201526005602482015264535244313960d81b6044820152606401610511565b6002546001600160401b03164210611e2e5760405162461bcd60e51b81526020600482015260056024820152640a6a48860760db1b6044820152606401610511565b60005b600054811015611f10576000808281548110611e4f57611e4f612acf565b6000918252602090912060048054600590930290910180546040516370a0823160e01b81523093810193909352909350611efd926001600160a01b03908116929116906370a082319060240160206040518083038186803b158015611eb357600080fd5b505afa158015611ec7573d6000803e3d6000fd5b505050506040513d601f19601f82011682018060405250810190611eeb91906127ae565b83546001600160a01b03169190612240565b5080611f0881612a7a565b915050611e31565b506005805460ff60a81b1916600160a81b1790556040517f1afb0ae590df277bcb3a37f88612725bf1f7df4755792b1548a7efe77985ff7790600090a1565b6004546001600160a01b03163314611f795760405162461bcd60e51b815260040161051190612997565b6001600160a01b038116611fb75760405162461bcd60e51b815260206004820152600560248201526429a922189b60d91b6044820152606401610511565b6004546040516001600160a01b038084169216907f8be0079c531659141344cd1fd0a4f28419497f9722a3daafe3b4186f6b6457e090600090a3600480546001600160a01b0319166001600160a01b0392909216919091179055565b6000818154811061202357600080fd5b6000918252602090912060059091020180546001820154600283015460038401546004909401546001600160a01b0390931694509092909185565b60025460009061207f904290600160401b90046001600160401b03166122e6565b6002549091506000906120a290600160c01b90046001600160401b031683612a26565b3360009081526001602052604081206001600160401b039290921692505b6000548110156122145760008082815481106120de576120de612acf565b60009182526020808320600590920290910180546001600160a01b0316835260018601909152604090912090915084156121a75760065461214557612127600160701b866129f0565b82600301600082825461213a91906129b6565b909155506121a79050565b60025460065461216591600160801b90046001600160401b0316906129f0565b6001830154600160701b9061217a90886129f0565b61218491906129f0565b61218e91906129ce565b8260020160008282546121a191906129b6565b90915550505b80546002830154600091600160701b916121c19190612a0f565b86546121cd91906129f0565b6121d791906129ce565b905080156121f957808260010160008282546121f391906129b6565b90915550505b5060029091015490558061220c81612a7a565b9150506120c0565b5050600280546001600160401b03909316600160c01b026001600160c01b039093169290921790915550565b6040516001600160a01b0383166024820152604481018290526122a390849063a9059cbb60e01b906064015b60408051601f198184030181529190526020810180516001600160e01b03166001600160e01b0319909316929092179091526122fe565b505050565b6040516001600160a01b03808516602483015283166044820152606481018290526122e09085906323b872dd60e01b9060840161226c565b50505050565b60008183106122f557816122f7565b825b9392505050565b6000612353826040518060400160405280602081526020017f5361666545524332303a206c6f772d6c6576656c2063616c6c206661696c6564815250856001600160a01b03166123d09092919063ffffffff16565b8051909150156122a357808060200190518101906123719190612778565b6122a35760405162461bcd60e51b815260206004820152602a60248201527f5361666545524332303a204552433230206f7065726174696f6e20646964206e6044820152691bdd081cdd58d8d9595960b21b6064820152608401610511565b60606123df84846000856123e7565b949350505050565b6060824710156124485760405162461bcd60e51b815260206004820152602660248201527f416464726573733a20696e73756666696369656e742062616c616e636520666f6044820152651c8818d85b1b60d21b6064820152608401610511565b843b6124965760405162461bcd60e51b815260206004820152601d60248201527f416464726573733a2063616c6c20746f206e6f6e2d636f6e74726163740000006044820152606401610511565b600080866001600160a01b031685876040516124b291906127fd565b60006040518083038185875af1925050503d80600081146124ef576040519150601f19603f3d011682016040523d82523d6000602084013e6124f4565b606091505b509150915061250482828661250f565b979650505050505050565b6060831561251e5750816122f7565b82511561252e5782518084602001fd5b8160405162461bcd60e51b81526004016105119190612945565b80356001600160a01b038116811461255f57600080fd5b919050565b60008083601f84011261257657600080fd5b5081356001600160401b0381111561258d57600080fd5b6020830191508360208260051b85010111156125a857600080fd5b9250929050565b80356001600160401b038116811461255f57600080fd5b6000602082840312156125d857600080fd5b6122f782612548565b600080600080600080600080600060e08a8c0312156125ff57600080fd5b89356001600160401b038082111561261657600080fd5b6126228d838e01612564565b909b50995089915061263660208d01612548565b985060408c013591508082111561264c57600080fd5b506126598c828d01612564565b909750955061266c905060608b016125af565b935061267a60808b016125af565b925060a08a013561268a81612afb565b8092505060c08a013590509295985092959850929598565b600080604083850312156126b557600080fd5b82356001600160401b03808211156126cc57600080fd5b818501915085601f8301126126e057600080fd5b81356020828211156126f4576126f4612ae5565b8160051b604051601f19603f8301168101818110868211171561271957612719612ae5565b604052838152828101945085830182870184018b101561273857600080fd5b600096505b8487101561275b57803586526001969096019594830194830161273d565b50965061276b9050878201612548565b9450505050509250929050565b60006020828403121561278a57600080fd5b81516122f781612afb565b6000602082840312156127a757600080fd5b5035919050565b6000602082840312156127c057600080fd5b5051919050565b81835260006001600160fb1b038311156127e057600080fd5b8260051b8083602087013760009401602001938452509192915050565b6000825161280f818460208701612a4e565b9190910192915050565b60e0808252810189905260008a6101008301825b8c81101561285b576001600160a01b0361284684612548565b1682526020928301929091019060010161282d565b506001600160a01b038b166020850152838103604085015261287e818a8c6127c7565b9250505061289760608301876001600160401b03169052565b6001600160401b0394909416608082015291151560a083015260c0909101529695505050505050565b6020808252825182820181905260009190848201906040850190845b818110156129015783516001600160a01b0316835292840192918401916001016128dc565b50909695505050505050565b6020808252825182820181905260009190848201906040850190845b8181101561290157835183529284019291840191600101612929565b6020815260008251806020840152612964816040850160208701612a4e565b601f01601f19169190910160400192915050565b602080825260059082015264053524432360dc1b604082015260600190565b602080825260059082015264535244313760d81b604082015260600190565b600082198211156129c9576129c9612ab9565b500190565b6000826129eb57634e487b7160e01b600052601260045260246000fd5b500490565b6000816000190483118215151615612a0a57612a0a612ab9565b500290565b600082821015612a2157612a21612ab9565b500390565b60006001600160401b0383811690831681811015612a4657612a46612ab9565b039392505050565b60005b83811015612a69578181015183820152602001612a51565b838111156122e05750506000910152565b6000600019821415612a8e57612a8e612ab9565b5060010190565b600063ffffffff80831681811415612aaf57612aaf612ab9565b6001019392505050565b634e487b7160e01b600052601160045260246000fd5b634e487b7160e01b600052603260045260246000fd5b634e487b7160e01b600052604160045260246000fd5b801515811461169d57600080fdfea2646970667358221220067048714867e8b12565b8850ce519e2d2b23a6cb9f18a74b6ab868fed792f8864736f6c63430008070033608060405234801561001057600080fd5b50604051610e14380380610e1483398101604081905261002f91610095565b600080546001600160a01b031916339081178255604051909182917f8be0079c531659141344cd1fd0a4f28419497f9722a3daafe3b4186f6b6457e0908290a350600180546001600160a01b0319166001600160a01b03929092169190911790556100c5565b6000602082840312156100a757600080fd5b81516001600160a01b03811681146100be57600080fd5b9392505050565b610d40806100d46000396000f3fe608060405234801561001057600080fd5b50600436106100a95760003560e01c806383f94db71161007157806383f94db7146101165780638da5cb5b14610129578063bbb781cc1461013a578063d5eeaef71461015e578063f2fde38b1461016f578063f999c5061461018257600080fd5b80632c8908ff146100ae5780634487d3df146100c35780635c60da1b146100f3578063715018a6146101065780637475f9131461010e575b600080fd5b6100c16100bc366004610a33565b61018a565b005b6100d66100d1366004610b12565b610377565b6040516001600160a01b0390911681526020015b60405180910390f35b6001546100d6906001600160a01b031681565b6100c16103a1565b6100c161041e565b6100c1610124366004610a18565b610498565b6000546001600160a01b03166100d6565b60015461014e90600160a01b900460ff1681565b60405190151581526020016100ea565b6002546040519081526020016100ea565b6100c161017d366004610a18565b6104e4565b6100c16105ce565b6001546000906101a2906001600160a01b031661064f565b905060005b898110156102175761020533838a8a858181106101c6576101c6610ce3565b905060200201358e8e868181106101df576101df610ce3565b90506020020160208101906101f49190610a18565b6001600160a01b03169291906106ec565b8061020f81610cba565b9150506101a7565b506040516311d1371b60e11b815281906001600160a01b038216906323a26e3690610256908e908e908e908e908e908e908e908e908e90600401610b7d565b600060405180830381600087803b15801561027057600080fd5b505af1158015610284573d6000803e3d6000fd5b505060405163f2fde38b60e01b81523360048201526001600160a01b038416925063f2fde38b9150602401600060405180830381600087803b1580156102c957600080fd5b505af11580156102dd573d6000803e3d6000fd5b5050600280546001810182556000919091527f405787fa12a823e0f2b7631cc41b3ba8828b3321ca811111fa75cd3aa3bb5ace0180546001600160a01b0319166001600160a01b0385169081179091556040805133815260208101929092527fc017437e795c074edadc242e8f0b868fb614ed8d2923b9a58cbc52799e8b9b27935001905060405180910390a15050505050505050505050565b6002818154811061038757600080fd5b6000918252602090912001546001600160a01b0316905081565b6000546001600160a01b031633146103d45760405162461bcd60e51b81526004016103cb90610c59565b60405180910390fd5b600080546040516001600160a01b03909116907f8be0079c531659141344cd1fd0a4f28419497f9722a3daafe3b4186f6b6457e0908390a3600080546001600160a01b0319169055565b6000546001600160a01b031633146104485760405162461bcd60e51b81526004016103cb90610c59565b600154600160a01b900460ff166104895760405162461bcd60e51b815260206004820152600560248201526429a923181960d91b60448201526064016103cb565b6001805460ff60a01b19169055565b6000546001600160a01b031633146104c25760405162461bcd60e51b81526004016103cb90610c59565b600180546001600160a01b0319166001600160a01b0392909216919091179055565b6000546001600160a01b0316331461050e5760405162461bcd60e51b81526004016103cb90610c59565b6001600160a01b0381166105735760405162461bcd60e51b815260206004820152602660248201527f4f776e61626c653a206e6577206f776e657220697320746865207a65726f206160448201526564647265737360d01b60648201526084016103cb565b600080546040516001600160a01b03808516939216917f8be0079c531659141344cd1fd0a4f28419497f9722a3daafe3b4186f6b6457e091a3600080546001600160a01b0319166001600160a01b0392909216919091179055565b6000546001600160a01b031633146105f85760405162461bcd60e51b81526004016103cb90610c59565b600154600160a01b900460ff161561063a5760405162461bcd60e51b8152602060048201526005602482015264535246303160d81b60448201526064016103cb565b6001805460ff60a01b1916600160a01b179055565b6000604051733d602d80600a3d3981f3363d3d373d3d3d363d7360601b81528260601b60148201526e5af43d82803e903d91602b57fd5bf360881b60288201526037816000f09150506001600160a01b0381166106e75760405162461bcd60e51b8152602060048201526016602482015275115490cc4c4d8dce8818dc99585d194819985a5b195960521b60448201526064016103cb565b919050565b604080516001600160a01b0385811660248301528416604482015260648082018490528251808303909101815260849091019091526020810180516001600160e01b03166323b872dd60e01b17905261074690859061074c565b50505050565b60006107a1826040518060400160405280602081526020017f5361666545524332303a206c6f772d6c6576656c2063616c6c206661696c6564815250856001600160a01b03166108239092919063ffffffff16565b80519091501561081e57808060200190518101906107bf9190610af5565b61081e5760405162461bcd60e51b815260206004820152602a60248201527f5361666545524332303a204552433230206f7065726174696f6e20646964206e6044820152691bdd081cdd58d8d9595960b21b60648201526084016103cb565b505050565b6060610832848460008561083c565b90505b9392505050565b60608247101561089d5760405162461bcd60e51b815260206004820152602660248201527f416464726573733a20696e73756666696369656e742062616c616e636520666f6044820152651c8818d85b1b60d21b60648201526084016103cb565b843b6108eb5760405162461bcd60e51b815260206004820152601d60248201527f416464726573733a2063616c6c20746f206e6f6e2d636f6e747261637400000060448201526064016103cb565b600080866001600160a01b031685876040516109079190610b61565b60006040518083038185875af1925050503d8060008114610944576040519150601f19603f3d011682016040523d82523d6000602084013e610949565b606091505b5091509150610959828286610964565b979650505050505050565b60608315610973575081610835565b8251156109835782518084602001fd5b8160405162461bcd60e51b81526004016103cb9190610c26565b80356001600160a01b03811681146106e757600080fd5b60008083601f8401126109c657600080fd5b50813567ffffffffffffffff8111156109de57600080fd5b6020830191508360208260051b85010111156109f957600080fd5b9250929050565b803567ffffffffffffffff811681146106e757600080fd5b600060208284031215610a2a57600080fd5b6108358261099d565b600080600080600080600080600060e08a8c031215610a5157600080fd5b893567ffffffffffffffff80821115610a6957600080fd5b610a758d838e016109b4565b909b509950899150610a8960208d0161099d565b985060408c0135915080821115610a9f57600080fd5b50610aac8c828d016109b4565b9097509550610abf905060608b01610a00565b9350610acd60808b01610a00565b925060a08a0135610add81610cf9565b8092505060c08a013590509295985092959850929598565b600060208284031215610b0757600080fd5b815161083581610cf9565b600060208284031215610b2457600080fd5b5035919050565b81835260006001600160fb1b03831115610b4457600080fd5b8260051b8083602087013760009401602001938452509192915050565b60008251610b73818460208701610c8e565b9190910192915050565b60e0808252810189905260008a6101008301825b8c811015610bbf576001600160a01b03610baa8461099d565b16825260209283019290910190600101610b91565b506001600160a01b038b1660208501528381036040850152610be2818a8c610b2b565b92505050610bfc606083018767ffffffffffffffff169052565b67ffffffffffffffff94909416608082015291151560a083015260c0909101529695505050505050565b6020815260008251806020840152610c45816040850160208701610c8e565b601f01601f19169190910160400192915050565b6020808252818101527f4f776e61626c653a2063616c6c6572206973206e6f7420746865206f776e6572604082015260600190565b60005b83811015610ca9578181015183820152602001610c91565b838111156107465750506000910152565b6000600019821415610cdc57634e487b7160e01b600052601160045260246000fd5b5060010190565b634e487b7160e01b600052603260045260246000fd5b8015158114610d0757600080fd5b5056fea2646970667358221220d771b477663e9ac240f850cf2cb9ab33ba63111efa9e403a51066ccc85c0d0fd64736f6c63430008070033608060405234801561001057600080fd5b5060405161054538038061054583398101604081905261002f916100fc565b600080546001600160a01b03199081166001600160a01b038581169182179093556001805490921692841692831790915560405163095ea7b360e01b81526004810191909152600019602482015263095ea7b390604401602060405180830381600087803b1580156100a057600080fd5b505af11580156100b4573d6000803e3d6000fd5b505050506040513d601f19601f820116820180604052508101906100d8919061012f565b505050610158565b80516001600160a01b03811681146100f757600080fd5b919050565b6000806040838503121561010f57600080fd5b610118836100e0565b9150610126602084016100e0565b90509250929050565b60006020828403121561014157600080fd5b8151801515811461015157600080fd5b9392505050565b6103de806101676000396000f3fe608060405234801561001057600080fd5b50600436106100625760003560e01c80632e1a7d4d146100675780636ba4c1381461007c578063a694fc3a1461008f578063d1058e59146100a2578063e644067d146100aa578063ea8a1af0146100b2575b600080fd5b61007a610075366004610325565b6100ba565b005b61007a61008a366004610260565b61011c565b61007a61009d366004610325565b61014e565b61007a61017f565b61007a6101de565b61007a61021f565b600054604051632e1a7d4d60e01b8152600481018390526001600160a01b0390911690632e1a7d4d906024015b600060405180830381600087803b15801561010157600080fd5b505af1158015610115573d6000803e3d6000fd5b5050505050565b60005460405163118ae96960e31b81526001600160a01b0390911690638c574b48906100e7908490309060040161033e565b60005460405163534a7e1d60e11b8152600481018390526001600160a01b039091169063a694fc3a906024016100e7565b6000546040516377329f3560e01b81523060048201526001600160a01b03909116906377329f3590602401600060405180830381600087803b1580156101c457600080fd5b505af11580156101d8573d6000803e3d6000fd5b50505050565b600080546040805163e644067d60e01b815290516001600160a01b039092169263e644067d9260048084019382900301818387803b1580156101c457600080fd5b6000805460408051630ea8a1af60e41b815290516001600160a01b039092169263ea8a1af09260048084019382900301818387803b1580156101c457600080fd5b6000602080838503121561027357600080fd5b823567ffffffffffffffff8082111561028b57600080fd5b818501915085601f83011261029f57600080fd5b8135818111156102b1576102b1610392565b8060051b604051601f19603f830116810181811085821117156102d6576102d6610392565b604052828152858101935084860182860187018a10156102f557600080fd5b600095505b838610156103185780358552600195909501949386019386016102fa565b5098975050505050505050565b60006020828403121561033757600080fd5b5035919050565b604080825283519082018190526000906020906060840190828701845b828110156103775781518452928401929084019060010161035b565b5050506001600160a01b039490941692019190915250919050565b634e487b7160e01b600052604160045260246000fdfea2646970667358221220abe952aa29ef1322391f29bc59d7b7243b74f5271cdd21381f4223aebf81519d64736f6c63430008070033",
  "immutableReferences": {},
  "source": "pragma solidity ^0.8.4;\n\nimport \"../ERC20StakingRewardsDistribution.sol\";\nimport \"../interfaces/IERC20StakingRewardsDistribution.sol\";\nimport \"../ERC20StakingRewardsDistributionFactory.sol\";\nimport \"@openzeppelin/contracts/token/ERC20/IERC20.sol\";\nimport \"@openzeppelin/contracts/token/ERC20/ERC20.sol\";\n\ncontract MockUser {\n    IERC20StakingRewardsDistribution internal distribution;\n    address internal stakingToken;\n\n    constructor(address _distribution, address _stakingToken) {\n        distribution = IERC20StakingRewardsDistribution(_distribution);\n        stakingToken = _stakingToken;\n        // Approve staking tokens to distribution\n        IERC20(_stakingToken).approve(_distribution, type(uint256).max);\n    }\n\n    function stake(uint256 _amount) public {\n        distribution.stake(_amount);\n    }\n\n    function withdraw(uint256 _amount) public {\n        distribution.withdraw(_amount);\n    }\n\n    function claim(uint256[] memory _amounts) public {\n        distribution.claim(_amounts, address(this));\n    }\n\n    function claimAll() public {\n        distribution.claimAll(address(this));\n    }\n\n    function cancel() public {\n        distribution.cancel();\n    }\n\n    function recoverUnassignedRewards() public {\n        distribution.recoverUnassignedRewards();\n    }\n}\n\ncontract ERC20StakingRewardsDistributionFuzzer {\n    ERC20StakingRewardsDistribution internal distribution;\n    MockUser internal mockUser;\n\n    IERC20 rewardToken1;\n    IERC20 rewardToken2;\n    IERC20 stakableToken;\n\n    event AssertionFailed();\n\n    constructor() {\n        rewardToken1 = new ERC20(\"Reward token 1\", \"RWD1\");\n        rewardToken2 = new ERC20(\"Reward token 2\", \"RWD2\");\n        stakableToken = new ERC20(\"Stakable token\", \"STK\");\n\n        ERC20StakingRewardsDistribution _implementation =\n            new ERC20StakingRewardsDistribution();\n        ERC20StakingRewardsDistributionFactory factory =\n            new ERC20StakingRewardsDistributionFactory(\n                address(_implementation)\n            );\n\n        uint256[] memory _rewardAmounts = new uint256[](2);\n        _rewardAmounts[0] = 1 ether;\n        _rewardAmounts[1] = 2 ether;\n        rewardToken1.approve(address(factory), _rewardAmounts[0]);\n        rewardToken2.approve(address(factory), _rewardAmounts[1]);\n\n        address[] memory _rewardTokens = new address[](2);\n        _rewardTokens[0] = address(rewardToken1);\n        _rewardTokens[1] = address(rewardToken2);\n        factory.createDistribution(\n            _rewardTokens,\n            address(stakableToken),\n            _rewardAmounts,\n            uint64(block.timestamp),\n            uint64(block.timestamp + 10000),\n            false,\n            0\n        );\n\n        distribution = ERC20StakingRewardsDistribution(\n            address(factory.distributions(0))\n        );\n        stakableToken.approve(address(distribution), 10000 ether);\n        mockUser = new MockUser(address(distribution), address(stakableToken));\n        stakableToken.transfer(address(mockUser), 100 * 10**18);\n    }\n\n    // Test stake function\n    function stake(uint256 _amount) public {\n        uint256 _stakerTokenBalanceBefore =\n            stakableToken.balanceOf(address(this));\n        uint256 _totalStakedBefore = distribution.totalStakedTokensAmount();\n        uint256 _stakedTokensBefore =\n            distribution.stakedTokensOf(address(this));\n\n        distribution.stake(_amount);\n\n        uint256 _stakerTokenBalanceAfter =\n            stakableToken.balanceOf(address(this));\n        uint256 _totalStakedAfter = distribution.totalStakedTokensAmount();\n        uint256 _stakedTokensAfter = distribution.stakedTokensOf(address(this));\n\n        // staker token balance decreased by amount\n        if (_stakerTokenBalanceBefore - _amount != _stakerTokenBalanceAfter) {\n            emit AssertionFailed();\n        }\n\n        // total staked increased by amount\n        if (_totalStakedBefore + _amount != _totalStakedAfter) {\n            emit AssertionFailed();\n        }\n\n        // staked tokens increased by amount\n        if (_stakedTokensBefore + _amount != _stakedTokensAfter) {\n            emit AssertionFailed();\n        }\n    }\n    /* \n    // Test stake function as user\n    function stakeAsUser(uint256 amount) public {\n        uint256 stakerTokenBalanceBefore = token3.balanceOf(address(mockUser));\n        uint256 totalStakedBefore = distribution.totalStakedTokensAmount();\n        uint256 stakedTokensBefore =\n            distribution.stakedTokensOf(address(mockUser));\n        mockUser.stake(amount);\n        uint256 stakerTokenBalanceAfter = token3.balanceOf(address(mockUser));\n        uint256 totalStakedAfter = distribution.totalStakedTokensAmount();\n        uint256 stakedTokensAfter =\n            distribution.stakedTokensOf(address(mockUser));\n\n        // Assert that staker token balance decreases by amount\n        if (stakerTokenBalanceBefore - amount != stakerTokenBalanceAfter) {\n            emit AssertionFailed();\n        }\n        // Assert that total staked increases by amount\n        if (totalStakedBefore + amount != totalStakedAfter) {\n            emit AssertionFailed();\n        }\n        // Assert that staked tokens increases by amount\n        if (stakedTokensBefore + amount != stakedTokensAfter) {\n            emit AssertionFailed();\n        }\n    }\n\n    // Test withdraw function\n    function withdraw(uint256 amount) public {\n        uint256 stakerTokenBalanceBefore = token3.balanceOf(address(this));\n        uint256 totalStakedBefore = distribution.totalStakedTokensAmount();\n        uint256 stakedTokensBefore = distribution.stakedTokensOf(address(this));\n        distribution.withdraw(amount);\n        uint256 stakerTokenBalanceAfter = token3.balanceOf(address(this));\n        uint256 totalStakedAfter = distribution.totalStakedTokensAmount();\n        uint256 stakedTokensAfter = distribution.stakedTokensOf(address(this));\n\n        // Assert that staker token balance increases by amount\n        if (stakerTokenBalanceBefore + amount != stakerTokenBalanceAfter) {\n            emit AssertionFailed();\n        }\n        // Assert that total staked decreases by amount\n        if (totalStakedBefore - amount != totalStakedAfter) {\n            emit AssertionFailed();\n        }\n        // Assert that staked tokens decreases by amount\n        if (stakedTokensBefore - amount != stakedTokensAfter) {\n            emit AssertionFailed();\n        }\n    }\n\n    // Test withdraw function as user\n    function withdrawAsUser(uint256 amount) public {\n        uint256 stakerTokenBalanceBefore = token3.balanceOf(address(mockUser));\n        uint256 totalStakedBefore = distribution.totalStakedTokensAmount();\n        uint256 stakedTokensBefore =\n            distribution.stakedTokensOf(address(mockUser));\n        mockUser.withdraw(amount);\n        uint256 stakerTokenBalanceAfter = token3.balanceOf(address(mockUser));\n        uint256 totalStakedAfter = distribution.totalStakedTokensAmount();\n        uint256 stakedTokensAfter =\n            distribution.stakedTokensOf(address(mockUser));\n\n        // Assert that staker token balance increases by amount\n        if (stakerTokenBalanceBefore + amount != stakerTokenBalanceAfter) {\n            emit AssertionFailed();\n        }\n        // Assert that total staked decreases by amount\n        if (totalStakedBefore - amount != totalStakedAfter) {\n            emit AssertionFailed();\n        }\n        // Assert that staked tokens decreases by amount\n        if (stakedTokensBefore - amount != stakedTokensAfter) {\n            emit AssertionFailed();\n        }\n    }\n\n    // Test claim function\n    function claim(uint256[] memory amounts) public {\n        uint256 rewardBalancesBefore1 = token1.balanceOf(address(this));\n        uint256 rewardBalancesBefore2 = token2.balanceOf(address(this));\n        distribution.claim(amounts, address(this));\n        uint256 rewardBalancesAfter1 = token1.balanceOf(address(this));\n        uint256 rewardBalancesAfter2 = token2.balanceOf(address(this));\n\n        // Assert that reward token balances are increasing at least by expected amounts\n        if (rewardBalancesBefore1 + amounts[0] > rewardBalancesAfter1) {\n            emit AssertionFailed();\n        }\n        if (rewardBalancesBefore2 + amounts[1] > rewardBalancesAfter2) {\n            emit AssertionFailed();\n        }\n    }\n\n    // Test claim function as user\n    function claimAsUser(uint256[] memory amounts) public {\n        uint256 rewardBalancesBefore1 = token1.balanceOf(address(mockUser));\n        uint256 rewardBalancesBefore2 = token2.balanceOf(address(mockUser));\n        mockUser.claim(amounts);\n        uint256 rewardBalancesAfter1 = token1.balanceOf(address(mockUser));\n        uint256 rewardBalancesAfter2 = token2.balanceOf(address(mockUser));\n\n        // Assert that reward token balances are increasing at least by expected amounts\n        if (rewardBalancesBefore1 + amounts[0] > rewardBalancesAfter1) {\n            emit AssertionFailed();\n        }\n        if (rewardBalancesBefore2 + amounts[1] > rewardBalancesAfter2) {\n            emit AssertionFailed();\n        }\n    }\n\n    // Test claimAll function\n    function claimAll() public {\n        uint256[] memory claimableRewards =\n            distribution.claimableRewards(address(this));\n\n        uint256 rewardBalancesBefore1 = token1.balanceOf(address(this));\n        uint256 rewardBalancesBefore2 = token2.balanceOf(address(this));\n        distribution.claimAll(address(this));\n        uint256 rewardBalancesAfter1 = token1.balanceOf(address(this));\n        uint256 rewardBalancesAfter2 = token2.balanceOf(address(this));\n\n        // Assert that reward token balances are increasing at least by expected amounts - 1 wei rounding buffer\n        if (\n            (rewardBalancesBefore1 + claimableRewards[0]) >\n            (rewardBalancesAfter1 + 1)\n        ) {\n            emit AssertionFailed();\n        }\n        if (\n            (rewardBalancesBefore2 + claimableRewards[1]) >\n            (rewardBalancesAfter2 + 1)\n        ) {\n            emit AssertionFailed();\n        }\n    }\n\n    // Test claimAll function as user\n    function claimAllAsUser() public {\n        uint256[] memory claimableRewards =\n            distribution.claimableRewards(address(mockUser));\n\n        uint256 rewardBalancesBefore1 = token1.balanceOf(address(mockUser));\n        uint256 rewardBalancesBefore2 = token2.balanceOf(address(mockUser));\n        mockUser.claimAll();\n        uint256 rewardBalancesAfter1 = token1.balanceOf(address(mockUser));\n        uint256 rewardBalancesAfter2 = token2.balanceOf(address(mockUser));\n\n        // Assert that reward token balances are increasing at least by expected amounts - 1 wei rounding buffer\n        if (\n            (rewardBalancesBefore1 + claimableRewards[0]) >\n            (rewardBalancesAfter1 + 1)\n        ) {\n            emit AssertionFailed();\n        }\n        if (\n            (rewardBalancesBefore2 + claimableRewards[1]) >\n            (rewardBalancesAfter2 + 1)\n        ) {\n            emit AssertionFailed();\n        }\n    }\n\n    // Test cancel function\n    function cancel() public {\n        distribution.cancel();\n\n        // Assert revert since after startingTimestamp\n        emit AssertionFailed();\n    }\n\n    // Test cancel function as user\n    function cancelAsUser() public {\n        mockUser.cancel();\n\n        // Assert revert since after startingTimestamp\n        emit AssertionFailed();\n    }\n\n    // Test addRewards function\n    function addRewards(uint256 seed, uint256 amount) public {\n        address rewardToken;\n        if (seed % 2 == 0) {\n            rewardToken = address(token1);\n        } else {\n            rewardToken = address(token2);\n        }\n        uint256 distributionRewardAmountBefore =\n            distribution.rewardAmount(rewardToken);\n        uint256 distributionRewardBalanceBefore =\n            IERC20(rewardToken).balanceOf(address(distribution));\n        distribution.addRewards(rewardToken, amount);\n        uint256 distributionRewardAmountAfter =\n            distribution.rewardAmount(rewardToken);\n        uint256 distributionRewardBalanceAfter =\n            IERC20(rewardToken).balanceOf(address(distribution));\n\n        // Assert that tracked reward amount is correctly increased\n        if (\n            distributionRewardAmountBefore + amount !=\n            distributionRewardAmountAfter\n        ) {\n            emit AssertionFailed();\n        }\n        // Assert that distribution reward balance is properly increased\n        if (\n            distributionRewardBalanceBefore + amount !=\n            distributionRewardBalanceAfter\n        ) {\n            emit AssertionFailed();\n        }\n    }\n\n    // Test addRewards function as user\n    function addRewardsAsUser(uint256 seed, uint256 amount) public {\n        address rewardToken;\n        if (seed % 2 == 0) {\n            rewardToken = address(token1);\n        } else {\n            rewardToken = address(token2);\n        }\n        uint256 distributionRewardAmountBefore =\n            distribution.rewardAmount(rewardToken);\n        uint256 distributionRewardBalanceBefore =\n            IERC20(rewardToken).balanceOf(address(distribution));\n        mockUser.addRewards(rewardToken, amount);\n        uint256 distributionRewardAmountAfter =\n            distribution.rewardAmount(rewardToken);\n        uint256 distributionRewardBalanceAfter =\n            IERC20(rewardToken).balanceOf(address(distribution));\n\n        // Assert that tracked reward amount is correctly increased\n        if (\n            distributionRewardAmountBefore + amount !=\n            distributionRewardAmountAfter\n        ) {\n            emit AssertionFailed();\n        }\n        // Assert that distribution reward balance is properly increased\n        if (\n            distributionRewardBalanceBefore + amount !=\n            distributionRewardBalanceAfter\n        ) {\n            emit AssertionFailed();\n        }\n    }\n\n    // Test recoverUnassignedRewards function\n    function recoverUnassignedRewards() public {\n        uint256 recoverableRewards1 =\n            distribution.recoverableUnassignedReward(address(token1));\n        uint256 recoverableRewards2 =\n            distribution.recoverableUnassignedReward(address(token2));\n        uint256 ownerRewardBalancesBefore1 = token1.balanceOf(address(this));\n        uint256 ownerRewardBalancesBefore2 = token2.balanceOf(address(this));\n\n        distribution.recoverUnassignedRewards();\n\n        uint256 ownerRewardBalancesAfter1 = token1.balanceOf(address(this));\n        uint256 ownerRewardBalancesAfter2 = token2.balanceOf(address(this));\n\n        // Assert owner balances increase by at least expected amount\n        if (\n            (ownerRewardBalancesBefore1 + recoverableRewards1) >\n            ownerRewardBalancesAfter1\n        ) {\n            emit AssertionFailed();\n        }\n        if (\n            (ownerRewardBalancesBefore2 + recoverableRewards2) >\n            ownerRewardBalancesAfter2\n        ) {\n            emit AssertionFailed();\n        }\n    }\n\n    // Test recoverUnassignedRewardsAsUser function\n    function recoverUnassignedRewardsAsUser() public {\n        uint256 recoverableRewards1 =\n            distribution.recoverableUnassignedReward(address(token1));\n        uint256 recoverableRewards2 =\n            distribution.recoverableUnassignedReward(address(token2));\n        uint256 ownerRewardBalancesBefore1 = token1.balanceOf(address(this));\n        uint256 ownerRewardBalancesBefore2 = token2.balanceOf(address(this));\n\n        mockUser.recoverUnassignedRewards();\n\n        uint256 ownerRewardBalancesAfter1 = token1.balanceOf(address(this));\n        uint256 ownerRewardBalancesAfter2 = token2.balanceOf(address(this));\n\n        // Assert owner balances increase by at least expected amount\n        if (\n            (ownerRewardBalancesBefore1 + recoverableRewards1) >\n            ownerRewardBalancesAfter1\n        ) {\n            emit AssertionFailed();\n        }\n        if (\n            (ownerRewardBalancesBefore2 + recoverableRewards2) >\n            ownerRewardBalancesAfter2\n        ) {\n            emit AssertionFailed();\n        }\n    } */\n}\n",
  "sourcePath": "/home/luzzif/Projects/swapr-lp-staker/contracts/fuzzing/ERC20StakingRewardsDistributionFuzzer.sol",
  "compiler": {
    "name": "solc",
    "version": "0.8.7+commit.e28d00a7.Emscripten.clang"
  },
  "schemaVersion": "3.3.3",
  "updatedAt": "2021-09-27T09:42:54.276Z",
  "devdoc": {
    "kind": "dev",
    "methods": {},
    "version": 1
  },
  "userdoc": {
    "kind": "user",
    "methods": {},
    "version": 1
  }
}