{
  "contractName": "ERC20StakingRewardsDistributionFactory",
  "abi": [
    {
      "inputs": [
        {
          "internalType": "address",
          "name": "_implementation",
          "type": "address"
        }
      ],
      "stateMutability": "nonpayable",
      "type": "constructor"
    },
    {
      "anonymous": false,
      "inputs": [
        {
          "indexed": false,
          "internalType": "address",
          "name": "owner",
          "type": "address"
        },
        {
          "indexed": false,
          "internalType": "address",
          "name": "deployedAt",
          "type": "address"
        }
      ],
      "name": "DistributionCreated",
      "type": "event"
    },
    {
      "anonymous": false,
      "inputs": [
        {
          "indexed": true,
          "internalType": "address",
          "name": "previousOwner",
          "type": "address"
        },
        {
          "indexed": true,
          "internalType": "address",
          "name": "newOwner",
          "type": "address"
        }
      ],
      "name": "OwnershipTransferred",
      "type": "event"
    },
    {
      "inputs": [
        {
          "internalType": "uint256",
          "name": "",
          "type": "uint256"
        }
      ],
      "name": "distributions",
      "outputs": [
        {
          "internalType": "contract IERC20StakingRewardsDistribution",
          "name": "",
          "type": "address"
        }
      ],
      "stateMutability": "view",
      "type": "function"
    },
    {
      "inputs": [],
      "name": "implementation",
      "outputs": [
        {
          "internalType": "address",
          "name": "",
          "type": "address"
        }
      ],
      "stateMutability": "view",
      "type": "function"
    },
    {
      "inputs": [],
      "name": "owner",
      "outputs": [
        {
          "internalType": "address",
          "name": "",
          "type": "address"
        }
      ],
      "stateMutability": "view",
      "type": "function"
    },
    {
      "inputs": [],
      "name": "renounceOwnership",
      "outputs": [],
      "stateMutability": "nonpayable",
      "type": "function"
    },
    {
      "inputs": [
        {
          "internalType": "address",
          "name": "newOwner",
          "type": "address"
        }
      ],
      "name": "transferOwnership",
      "outputs": [],
      "stateMutability": "nonpayable",
      "type": "function"
    },
    {
      "inputs": [
        {
          "internalType": "address",
          "name": "_implementation",
          "type": "address"
        }
      ],
      "name": "upgradeImplementation",
      "outputs": [],
      "stateMutability": "nonpayable",
      "type": "function"
    },
    {
      "inputs": [
        {
          "internalType": "address[]",
          "name": "_rewardTokenAddresses",
          "type": "address[]"
        },
        {
          "internalType": "address",
          "name": "_stakableTokenAddress",
          "type": "address"
        },
        {
          "internalType": "uint256[]",
          "name": "_rewardAmounts",
          "type": "uint256[]"
        },
        {
          "internalType": "uint64",
          "name": "_startingTimestamp",
          "type": "uint64"
        },
        {
          "internalType": "uint64",
          "name": "_endingTimestamp",
          "type": "uint64"
        },
        {
          "internalType": "bool",
          "name": "_locked",
          "type": "bool"
        },
        {
          "internalType": "uint256",
          "name": "_stakingCap",
          "type": "uint256"
        }
      ],
      "name": "createDistribution",
      "outputs": [],
      "stateMutability": "nonpayable",
      "type": "function"
    },
    {
      "inputs": [],
      "name": "getDistributionsAmount",
      "outputs": [
        {
          "internalType": "uint256",
          "name": "",
          "type": "uint256"
        }
      ],
      "stateMutability": "view",
      "type": "function"
    }
  ],
  "bytecode": "0x608060405234801561001057600080fd5b50604051610cc2380380610cc283398101604081905261002f91610095565b600080546001600160a01b031916339081178255604051909182917f8be0079c531659141344cd1fd0a4f28419497f9722a3daafe3b4186f6b6457e0908290a350600180546001600160a01b0319166001600160a01b03929092169190911790556100c3565b6000602082840312156100a6578081fd5b81516001600160a01b03811681146100bc578182fd5b9392505050565b610bf0806100d26000396000f3fe608060405234801561001057600080fd5b50600436106100885760003560e01c806383f94db71161005b57806383f94db7146100ed5780638da5cb5b14610100578063d5eeaef714610111578063f2fde38b1461012257600080fd5b80632c8908ff1461008d5780634487d3df146100a25780635c60da1b146100d2578063715018a6146100e5575b600080fd5b6100a061009b366004610902565b610135565b005b6100b56100b03660046109dd565b610344565b6040516001600160a01b0390911681526020015b60405180910390f35b6001546100b5906001600160a01b031681565b6100a061036e565b6100a06100fb3660046108e8565b6103eb565b6000546001600160a01b03166100b5565b6002546040519081526020016100c9565b6100a06101303660046108e8565b610437565b60015460009061014d906001600160a01b0316610521565b905060005b898110156101e457600088888381811061017c57634e487b7160e01b600052603260045260246000fd5b9050602002013590506101d13384838f8f878181106101ab57634e487b7160e01b600052603260045260246000fd5b90506020020160208101906101c091906108e8565b6001600160a01b03169291906105be565b50806101dc81610b82565b915050610152565b506040516311d1371b60e11b815281906001600160a01b038216906323a26e3690610223908e908e908e908e908e908e908e908e908e90600401610a45565b600060405180830381600087803b15801561023d57600080fd5b505af1158015610251573d6000803e3d6000fd5b505060405163f2fde38b60e01b81523360048201526001600160a01b038416925063f2fde38b9150602401600060405180830381600087803b15801561029657600080fd5b505af11580156102aa573d6000803e3d6000fd5b5050600280546001810182556000919091527f405787fa12a823e0f2b7631cc41b3ba8828b3321ca811111fa75cd3aa3bb5ace0180546001600160a01b0319166001600160a01b0385169081179091556040805133815260208101929092527fc017437e795c074edadc242e8f0b868fb614ed8d2923b9a58cbc52799e8b9b27935001905060405180910390a15050505050505050505050565b6002818154811061035457600080fd5b6000918252602090912001546001600160a01b0316905081565b6000546001600160a01b031633146103a15760405162461bcd60e51b815260040161039890610b21565b60405180910390fd5b600080546040516001600160a01b03909116907f8be0079c531659141344cd1fd0a4f28419497f9722a3daafe3b4186f6b6457e0908390a3600080546001600160a01b0319169055565b6000546001600160a01b031633146104155760405162461bcd60e51b815260040161039890610b21565b600180546001600160a01b0319166001600160a01b0392909216919091179055565b6000546001600160a01b031633146104615760405162461bcd60e51b815260040161039890610b21565b6001600160a01b0381166104c65760405162461bcd60e51b815260206004820152602660248201527f4f776e61626c653a206e6577206f776e657220697320746865207a65726f206160448201526564647265737360d01b6064820152608401610398565b600080546040516001600160a01b03808516939216917f8be0079c531659141344cd1fd0a4f28419497f9722a3daafe3b4186f6b6457e091a3600080546001600160a01b0319166001600160a01b0392909216919091179055565b6000604051733d602d80600a3d3981f3363d3d373d3d3d363d7360601b81528260601b60148201526e5af43d82803e903d91602b57fd5bf360881b60288201526037816000f09150506001600160a01b0381166105b95760405162461bcd60e51b8152602060048201526016602482015275115490cc4c4d8dce8818dc99585d194819985a5b195960521b6044820152606401610398565b919050565b604080516001600160a01b0385811660248301528416604482015260648082018490528251808303909101815260849091019091526020810180516001600160e01b03166323b872dd60e01b17905261061890859061061e565b50505050565b6000610673826040518060400160405280602081526020017f5361666545524332303a206c6f772d6c6576656c2063616c6c206661696c6564815250856001600160a01b03166106f59092919063ffffffff16565b8051909150156106f0578080602001905181019061069191906109c1565b6106f05760405162461bcd60e51b815260206004820152602a60248201527f5361666545524332303a204552433230206f7065726174696f6e20646964206e6044820152691bdd081cdd58d8d9595960b21b6064820152608401610398565b505050565b6060610704848460008561070e565b90505b9392505050565b60608247101561076f5760405162461bcd60e51b815260206004820152602660248201527f416464726573733a20696e73756666696369656e742062616c616e636520666f6044820152651c8818d85b1b60d21b6064820152608401610398565b843b6107bd5760405162461bcd60e51b815260206004820152601d60248201527f416464726573733a2063616c6c20746f206e6f6e2d636f6e74726163740000006044820152606401610398565b600080866001600160a01b031685876040516107d99190610a29565b60006040518083038185875af1925050503d8060008114610816576040519150601f19603f3d011682016040523d82523d6000602084013e61081b565b606091505b509150915061082b828286610836565b979650505050505050565b60608315610845575081610707565b8251156108555782518084602001fd5b8160405162461bcd60e51b81526004016103989190610aee565b80356001600160a01b03811681146105b957600080fd5b60008083601f840112610897578182fd5b50813567ffffffffffffffff8111156108ae578182fd5b6020830191508360208260051b85010111156108c957600080fd5b9250929050565b803567ffffffffffffffff811681146105b957600080fd5b6000602082840312156108f9578081fd5b6107078261086f565b600080600080600080600080600060e08a8c03121561091f578485fd5b893567ffffffffffffffff80821115610936578687fd5b6109428d838e01610886565b909b50995089915061095660208d0161086f565b985060408c013591508082111561096b578687fd5b506109788c828d01610886565b909750955061098b905060608b016108d0565b935061099960808b016108d0565b925060a08a01356109a981610ba9565b8092505060c08a013590509295985092959850929598565b6000602082840312156109d2578081fd5b815161070781610ba9565b6000602082840312156109ee578081fd5b5035919050565b81835260006001600160fb1b03831115610a0d578081fd5b8260051b80836020870137939093016020019283525090919050565b60008251610a3b818460208701610b56565b9190910192915050565b60e0808252810189905260008a6101008301825b8c811015610a87576001600160a01b03610a728461086f565b16825260209283019290910190600101610a59565b506001600160a01b038b1660208501528381036040850152610aaa818a8c6109f5565b92505050610ac4606083018767ffffffffffffffff169052565b67ffffffffffffffff94909416608082015291151560a083015260c0909101529695505050505050565b6020815260008251806020840152610b0d816040850160208701610b56565b601f01601f19169190910160400192915050565b6020808252818101527f4f776e61626c653a2063616c6c6572206973206e6f7420746865206f776e6572604082015260600190565b60005b83811015610b71578181015183820152602001610b59565b838111156106185750506000910152565b6000600019821415610ba257634e487b7160e01b81526011600452602481fd5b5060010190565b8015158114610bb757600080fd5b5056fea26469706673582212203842cb6962023777fab4f0f75ddb90239b28a5b8266c96347d080e6c6c8744f064736f6c63430008040033",
  "immutableReferences": {},
  "source": "// SPDX-License-Identifier: GPL-3.0\n\npragma solidity ^0.8.4;\n\nimport \"@openzeppelin/contracts/token/ERC20/IERC20.sol\";\nimport \"@openzeppelin/contracts/token/ERC20/utils/SafeERC20.sol\";\nimport \"@openzeppelin/contracts/access/Ownable.sol\";\nimport \"@openzeppelin/contracts/proxy/Clones.sol\";\nimport \"./interfaces/IERC20StakingRewardsDistribution.sol\";\n\ncontract ERC20StakingRewardsDistributionFactory is Ownable {\n    using SafeERC20 for IERC20;\n\n    address public implementation;\n    IERC20StakingRewardsDistribution[] public distributions;\n\n    event DistributionCreated(address owner, address deployedAt);\n\n    constructor(address _implementation) {\n        implementation = _implementation;\n    }\n\n    function upgradeImplementation(address _implementation) external onlyOwner {\n        implementation = _implementation;\n    }\n\n    function createDistribution(\n        address[] calldata _rewardTokenAddresses,\n        address _stakableTokenAddress,\n        uint256[] calldata _rewardAmounts,\n        uint64 _startingTimestamp,\n        uint64 _endingTimestamp,\n        bool _locked,\n        uint256 _stakingCap\n    ) public virtual {\n        address _distributionProxy = Clones.clone(implementation);\n        for (uint256 _i; _i < _rewardTokenAddresses.length; _i++) {\n            uint256 _relatedAmount = _rewardAmounts[_i];\n            IERC20(_rewardTokenAddresses[_i]).safeTransferFrom(\n                msg.sender,\n                address(_distributionProxy),\n                _relatedAmount\n            );\n        }\n        IERC20StakingRewardsDistribution _distribution =\n            IERC20StakingRewardsDistribution(_distributionProxy);\n        _distribution.initialize(\n            _rewardTokenAddresses,\n            _stakableTokenAddress,\n            _rewardAmounts,\n            _startingTimestamp,\n            _endingTimestamp,\n            _locked,\n            _stakingCap\n        );\n        _distribution.transferOwnership(msg.sender);\n        distributions.push(_distribution);\n        emit DistributionCreated(msg.sender, address(_distribution));\n    }\n\n    function getDistributionsAmount() external view returns (uint256) {\n        return distributions.length;\n    }\n}\n",
  "sourcePath": "/home/luzzif/Projects/swapr-lp-staker/contracts/ERC20StakingRewardsDistributionFactory.sol",
  "compiler": {
    "name": "solc",
    "version": "0.8.4+commit.c7e474f2.Emscripten.clang"
  },
  "schemaVersion": "3.3.3",
  "updatedAt": "2021-05-05T09:08:40.143Z",
  "devdoc": {
    "kind": "dev",
    "methods": {
      "owner()": {
        "details": "Returns the address of the current owner."
      },
      "renounceOwnership()": {
        "details": "Leaves the contract without owner. It will not be possible to call `onlyOwner` functions anymore. Can only be called by the current owner. NOTE: Renouncing ownership will leave the contract without an owner, thereby removing any functionality that is only available to the owner."
      },
      "transferOwnership(address)": {
        "details": "Transfers ownership of the contract to a new account (`newOwner`). Can only be called by the current owner."
      }
    },
    "version": 1
  },
  "userdoc": {
    "kind": "user",
    "methods": {},
    "version": 1
  }
}