{
  "contractName": "MockUser",
  "abi": [
    {
      "inputs": [
        {
          "internalType": "address",
          "name": "_distribution",
          "type": "address"
        },
        {
          "internalType": "address",
          "name": "_stakingToken",
          "type": "address"
        }
      ],
      "stateMutability": "nonpayable",
      "type": "constructor"
    },
    {
      "inputs": [
        {
          "internalType": "uint256",
          "name": "_amount",
          "type": "uint256"
        }
      ],
      "name": "stake",
      "outputs": [],
      "stateMutability": "nonpayable",
      "type": "function"
    },
    {
      "inputs": [
        {
          "internalType": "uint256",
          "name": "_amount",
          "type": "uint256"
        }
      ],
      "name": "withdraw",
      "outputs": [],
      "stateMutability": "nonpayable",
      "type": "function"
    },
    {
      "inputs": [
        {
          "internalType": "uint256[]",
          "name": "_amounts",
          "type": "uint256[]"
        }
      ],
      "name": "claim",
      "outputs": [],
      "stateMutability": "nonpayable",
      "type": "function"
    },
    {
      "inputs": [],
      "name": "claimAll",
      "outputs": [],
      "stateMutability": "nonpayable",
      "type": "function"
    },
    {
      "inputs": [],
      "name": "cancel",
      "outputs": [],
      "stateMutability": "nonpayable",
      "type": "function"
    },
    {
      "inputs": [],
      "name": "recoverUnassignedRewards",
      "outputs": [],
      "stateMutability": "nonpayable",
      "type": "function"
    }
  ],
  "bytecode": "0x608060405234801561001057600080fd5b5060405161054538038061054583398101604081905261002f916100fc565b600080546001600160a01b03199081166001600160a01b038581169182179093556001805490921692841692831790915560405163095ea7b360e01b81526004810191909152600019602482015263095ea7b390604401602060405180830381600087803b1580156100a057600080fd5b505af11580156100b4573d6000803e3d6000fd5b505050506040513d601f19601f820116820180604052508101906100d8919061012f565b505050610158565b80516001600160a01b03811681146100f757600080fd5b919050565b6000806040838503121561010f57600080fd5b610118836100e0565b9150610126602084016100e0565b90509250929050565b60006020828403121561014157600080fd5b8151801515811461015157600080fd5b9392505050565b6103de806101676000396000f3fe608060405234801561001057600080fd5b50600436106100625760003560e01c80632e1a7d4d146100675780636ba4c1381461007c578063a694fc3a1461008f578063d1058e59146100a2578063e644067d146100aa578063ea8a1af0146100b2575b600080fd5b61007a610075366004610325565b6100ba565b005b61007a61008a366004610260565b61011c565b61007a61009d366004610325565b61014e565b61007a61017f565b61007a6101de565b61007a61021f565b600054604051632e1a7d4d60e01b8152600481018390526001600160a01b0390911690632e1a7d4d906024015b600060405180830381600087803b15801561010157600080fd5b505af1158015610115573d6000803e3d6000fd5b5050505050565b60005460405163118ae96960e31b81526001600160a01b0390911690638c574b48906100e7908490309060040161033e565b60005460405163534a7e1d60e11b8152600481018390526001600160a01b039091169063a694fc3a906024016100e7565b6000546040516377329f3560e01b81523060048201526001600160a01b03909116906377329f3590602401600060405180830381600087803b1580156101c457600080fd5b505af11580156101d8573d6000803e3d6000fd5b50505050565b600080546040805163e644067d60e01b815290516001600160a01b039092169263e644067d9260048084019382900301818387803b1580156101c457600080fd5b6000805460408051630ea8a1af60e41b815290516001600160a01b039092169263ea8a1af09260048084019382900301818387803b1580156101c457600080fd5b6000602080838503121561027357600080fd5b823567ffffffffffffffff8082111561028b57600080fd5b818501915085601f83011261029f57600080fd5b8135818111156102b1576102b1610392565b8060051b604051601f19603f830116810181811085821117156102d6576102d6610392565b604052828152858101935084860182860187018a10156102f557600080fd5b600095505b838610156103185780358552600195909501949386019386016102fa565b5098975050505050505050565b60006020828403121561033757600080fd5b5035919050565b604080825283519082018190526000906020906060840190828701845b828110156103775781518452928401929084019060010161035b565b5050506001600160a01b039490941692019190915250919050565b634e487b7160e01b600052604160045260246000fdfea2646970667358221220abe952aa29ef1322391f29bc59d7b7243b74f5271cdd21381f4223aebf81519d64736f6c63430008070033",
  "immutableReferences": {},
  "source": "pragma solidity ^0.8.4;\n\nimport \"../ERC20StakingRewardsDistribution.sol\";\nimport \"../interfaces/IERC20StakingRewardsDistribution.sol\";\nimport \"../ERC20StakingRewardsDistributionFactory.sol\";\nimport \"@openzeppelin/contracts/token/ERC20/IERC20.sol\";\nimport \"@openzeppelin/contracts/token/ERC20/ERC20.sol\";\n\ncontract MockUser {\n    IERC20StakingRewardsDistribution internal distribution;\n    address internal stakingToken;\n\n    constructor(address _distribution, address _stakingToken) {\n        distribution = IERC20StakingRewardsDistribution(_distribution);\n        stakingToken = _stakingToken;\n        // Approve staking tokens to distribution\n        IERC20(_stakingToken).approve(_distribution, type(uint256).max);\n    }\n\n    function stake(uint256 _amount) public {\n        distribution.stake(_amount);\n    }\n\n    function withdraw(uint256 _amount) public {\n        distribution.withdraw(_amount);\n    }\n\n    function claim(uint256[] memory _amounts) public {\n        distribution.claim(_amounts, address(this));\n    }\n\n    function claimAll() public {\n        distribution.claimAll(address(this));\n    }\n\n    function cancel() public {\n        distribution.cancel();\n    }\n\n    function recoverUnassignedRewards() public {\n        distribution.recoverUnassignedRewards();\n    }\n}\n\ncontract ERC20StakingRewardsDistributionFuzzer {\n    ERC20StakingRewardsDistribution internal distribution;\n    MockUser internal mockUser;\n\n    IERC20 rewardToken1;\n    IERC20 rewardToken2;\n    IERC20 stakableToken;\n\n    event AssertionFailed();\n\n    constructor() {\n        rewardToken1 = new ERC20(\"Reward token 1\", \"RWD1\");\n        rewardToken2 = new ERC20(\"Reward token 2\", \"RWD2\");\n        stakableToken = new ERC20(\"Stakable token\", \"STK\");\n\n        ERC20StakingRewardsDistribution _implementation =\n            new ERC20StakingRewardsDistribution();\n        ERC20StakingRewardsDistributionFactory factory =\n            new ERC20StakingRewardsDistributionFactory(\n                address(_implementation)\n            );\n\n        uint256[] memory _rewardAmounts = new uint256[](2);\n        _rewardAmounts[0] = 1 ether;\n        _rewardAmounts[1] = 2 ether;\n        rewardToken1.approve(address(factory), _rewardAmounts[0]);\n        rewardToken2.approve(address(factory), _rewardAmounts[1]);\n\n        address[] memory _rewardTokens = new address[](2);\n        _rewardTokens[0] = address(rewardToken1);\n        _rewardTokens[1] = address(rewardToken2);\n        factory.createDistribution(\n            _rewardTokens,\n            address(stakableToken),\n            _rewardAmounts,\n            uint64(block.timestamp),\n            uint64(block.timestamp + 10000),\n            false,\n            0\n        );\n\n        distribution = ERC20StakingRewardsDistribution(\n            address(factory.distributions(0))\n        );\n        stakableToken.approve(address(distribution), 10000 ether);\n        mockUser = new MockUser(address(distribution), address(stakableToken));\n        stakableToken.transfer(address(mockUser), 100 * 10**18);\n    }\n\n    // Test stake function\n    function stake(uint256 _amount) public {\n        uint256 _stakerTokenBalanceBefore =\n            stakableToken.balanceOf(address(this));\n        uint256 _totalStakedBefore = distribution.totalStakedTokensAmount();\n        uint256 _stakedTokensBefore =\n            distribution.stakedTokensOf(address(this));\n\n        distribution.stake(_amount);\n\n        uint256 _stakerTokenBalanceAfter =\n            stakableToken.balanceOf(address(this));\n        uint256 _totalStakedAfter = distribution.totalStakedTokensAmount();\n        uint256 _stakedTokensAfter = distribution.stakedTokensOf(address(this));\n\n        // staker token balance decreased by amount\n        if (_stakerTokenBalanceBefore - _amount != _stakerTokenBalanceAfter) {\n            emit AssertionFailed();\n        }\n\n        // total staked increased by amount\n        if (_totalStakedBefore + _amount != _totalStakedAfter) {\n            emit AssertionFailed();\n        }\n\n        // staked tokens increased by amount\n        if (_stakedTokensBefore + _amount != _stakedTokensAfter) {\n            emit AssertionFailed();\n        }\n    }\n    /* \n    // Test stake function as user\n    function stakeAsUser(uint256 amount) public {\n        uint256 stakerTokenBalanceBefore = token3.balanceOf(address(mockUser));\n        uint256 totalStakedBefore = distribution.totalStakedTokensAmount();\n        uint256 stakedTokensBefore =\n            distribution.stakedTokensOf(address(mockUser));\n        mockUser.stake(amount);\n        uint256 stakerTokenBalanceAfter = token3.balanceOf(address(mockUser));\n        uint256 totalStakedAfter = distribution.totalStakedTokensAmount();\n        uint256 stakedTokensAfter =\n            distribution.stakedTokensOf(address(mockUser));\n\n        // Assert that staker token balance decreases by amount\n        if (stakerTokenBalanceBefore - amount != stakerTokenBalanceAfter) {\n            emit AssertionFailed();\n        }\n        // Assert that total staked increases by amount\n        if (totalStakedBefore + amount != totalStakedAfter) {\n            emit AssertionFailed();\n        }\n        // Assert that staked tokens increases by amount\n        if (stakedTokensBefore + amount != stakedTokensAfter) {\n            emit AssertionFailed();\n        }\n    }\n\n    // Test withdraw function\n    function withdraw(uint256 amount) public {\n        uint256 stakerTokenBalanceBefore = token3.balanceOf(address(this));\n        uint256 totalStakedBefore = distribution.totalStakedTokensAmount();\n        uint256 stakedTokensBefore = distribution.stakedTokensOf(address(this));\n        distribution.withdraw(amount);\n        uint256 stakerTokenBalanceAfter = token3.balanceOf(address(this));\n        uint256 totalStakedAfter = distribution.totalStakedTokensAmount();\n        uint256 stakedTokensAfter = distribution.stakedTokensOf(address(this));\n\n        // Assert that staker token balance increases by amount\n        if (stakerTokenBalanceBefore + amount != stakerTokenBalanceAfter) {\n            emit AssertionFailed();\n        }\n        // Assert that total staked decreases by amount\n        if (totalStakedBefore - amount != totalStakedAfter) {\n            emit AssertionFailed();\n        }\n        // Assert that staked tokens decreases by amount\n        if (stakedTokensBefore - amount != stakedTokensAfter) {\n            emit AssertionFailed();\n        }\n    }\n\n    // Test withdraw function as user\n    function withdrawAsUser(uint256 amount) public {\n        uint256 stakerTokenBalanceBefore = token3.balanceOf(address(mockUser));\n        uint256 totalStakedBefore = distribution.totalStakedTokensAmount();\n        uint256 stakedTokensBefore =\n            distribution.stakedTokensOf(address(mockUser));\n        mockUser.withdraw(amount);\n        uint256 stakerTokenBalanceAfter = token3.balanceOf(address(mockUser));\n        uint256 totalStakedAfter = distribution.totalStakedTokensAmount();\n        uint256 stakedTokensAfter =\n            distribution.stakedTokensOf(address(mockUser));\n\n        // Assert that staker token balance increases by amount\n        if (stakerTokenBalanceBefore + amount != stakerTokenBalanceAfter) {\n            emit AssertionFailed();\n        }\n        // Assert that total staked decreases by amount\n        if (totalStakedBefore - amount != totalStakedAfter) {\n            emit AssertionFailed();\n        }\n        // Assert that staked tokens decreases by amount\n        if (stakedTokensBefore - amount != stakedTokensAfter) {\n            emit AssertionFailed();\n        }\n    }\n\n    // Test claim function\n    function claim(uint256[] memory amounts) public {\n        uint256 rewardBalancesBefore1 = token1.balanceOf(address(this));\n        uint256 rewardBalancesBefore2 = token2.balanceOf(address(this));\n        distribution.claim(amounts, address(this));\n        uint256 rewardBalancesAfter1 = token1.balanceOf(address(this));\n        uint256 rewardBalancesAfter2 = token2.balanceOf(address(this));\n\n        // Assert that reward token balances are increasing at least by expected amounts\n        if (rewardBalancesBefore1 + amounts[0] > rewardBalancesAfter1) {\n            emit AssertionFailed();\n        }\n        if (rewardBalancesBefore2 + amounts[1] > rewardBalancesAfter2) {\n            emit AssertionFailed();\n        }\n    }\n\n    // Test claim function as user\n    function claimAsUser(uint256[] memory amounts) public {\n        uint256 rewardBalancesBefore1 = token1.balanceOf(address(mockUser));\n        uint256 rewardBalancesBefore2 = token2.balanceOf(address(mockUser));\n        mockUser.claim(amounts);\n        uint256 rewardBalancesAfter1 = token1.balanceOf(address(mockUser));\n        uint256 rewardBalancesAfter2 = token2.balanceOf(address(mockUser));\n\n        // Assert that reward token balances are increasing at least by expected amounts\n        if (rewardBalancesBefore1 + amounts[0] > rewardBalancesAfter1) {\n            emit AssertionFailed();\n        }\n        if (rewardBalancesBefore2 + amounts[1] > rewardBalancesAfter2) {\n            emit AssertionFailed();\n        }\n    }\n\n    // Test claimAll function\n    function claimAll() public {\n        uint256[] memory claimableRewards =\n            distribution.claimableRewards(address(this));\n\n        uint256 rewardBalancesBefore1 = token1.balanceOf(address(this));\n        uint256 rewardBalancesBefore2 = token2.balanceOf(address(this));\n        distribution.claimAll(address(this));\n        uint256 rewardBalancesAfter1 = token1.balanceOf(address(this));\n        uint256 rewardBalancesAfter2 = token2.balanceOf(address(this));\n\n        // Assert that reward token balances are increasing at least by expected amounts - 1 wei rounding buffer\n        if (\n            (rewardBalancesBefore1 + claimableRewards[0]) >\n            (rewardBalancesAfter1 + 1)\n        ) {\n            emit AssertionFailed();\n        }\n        if (\n            (rewardBalancesBefore2 + claimableRewards[1]) >\n            (rewardBalancesAfter2 + 1)\n        ) {\n            emit AssertionFailed();\n        }\n    }\n\n    // Test claimAll function as user\n    function claimAllAsUser() public {\n        uint256[] memory claimableRewards =\n            distribution.claimableRewards(address(mockUser));\n\n        uint256 rewardBalancesBefore1 = token1.balanceOf(address(mockUser));\n        uint256 rewardBalancesBefore2 = token2.balanceOf(address(mockUser));\n        mockUser.claimAll();\n        uint256 rewardBalancesAfter1 = token1.balanceOf(address(mockUser));\n        uint256 rewardBalancesAfter2 = token2.balanceOf(address(mockUser));\n\n        // Assert that reward token balances are increasing at least by expected amounts - 1 wei rounding buffer\n        if (\n            (rewardBalancesBefore1 + claimableRewards[0]) >\n            (rewardBalancesAfter1 + 1)\n        ) {\n            emit AssertionFailed();\n        }\n        if (\n            (rewardBalancesBefore2 + claimableRewards[1]) >\n            (rewardBalancesAfter2 + 1)\n        ) {\n            emit AssertionFailed();\n        }\n    }\n\n    // Test cancel function\n    function cancel() public {\n        distribution.cancel();\n\n        // Assert revert since after startingTimestamp\n        emit AssertionFailed();\n    }\n\n    // Test cancel function as user\n    function cancelAsUser() public {\n        mockUser.cancel();\n\n        // Assert revert since after startingTimestamp\n        emit AssertionFailed();\n    }\n\n    // Test addRewards function\n    function addRewards(uint256 seed, uint256 amount) public {\n        address rewardToken;\n        if (seed % 2 == 0) {\n            rewardToken = address(token1);\n        } else {\n            rewardToken = address(token2);\n        }\n        uint256 distributionRewardAmountBefore =\n            distribution.rewardAmount(rewardToken);\n        uint256 distributionRewardBalanceBefore =\n            IERC20(rewardToken).balanceOf(address(distribution));\n        distribution.addRewards(rewardToken, amount);\n        uint256 distributionRewardAmountAfter =\n            distribution.rewardAmount(rewardToken);\n        uint256 distributionRewardBalanceAfter =\n            IERC20(rewardToken).balanceOf(address(distribution));\n\n        // Assert that tracked reward amount is correctly increased\n        if (\n            distributionRewardAmountBefore + amount !=\n            distributionRewardAmountAfter\n        ) {\n            emit AssertionFailed();\n        }\n        // Assert that distribution reward balance is properly increased\n        if (\n            distributionRewardBalanceBefore + amount !=\n            distributionRewardBalanceAfter\n        ) {\n            emit AssertionFailed();\n        }\n    }\n\n    // Test addRewards function as user\n    function addRewardsAsUser(uint256 seed, uint256 amount) public {\n        address rewardToken;\n        if (seed % 2 == 0) {\n            rewardToken = address(token1);\n        } else {\n            rewardToken = address(token2);\n        }\n        uint256 distributionRewardAmountBefore =\n            distribution.rewardAmount(rewardToken);\n        uint256 distributionRewardBalanceBefore =\n            IERC20(rewardToken).balanceOf(address(distribution));\n        mockUser.addRewards(rewardToken, amount);\n        uint256 distributionRewardAmountAfter =\n            distribution.rewardAmount(rewardToken);\n        uint256 distributionRewardBalanceAfter =\n            IERC20(rewardToken).balanceOf(address(distribution));\n\n        // Assert that tracked reward amount is correctly increased\n        if (\n            distributionRewardAmountBefore + amount !=\n            distributionRewardAmountAfter\n        ) {\n            emit AssertionFailed();\n        }\n        // Assert that distribution reward balance is properly increased\n        if (\n            distributionRewardBalanceBefore + amount !=\n            distributionRewardBalanceAfter\n        ) {\n            emit AssertionFailed();\n        }\n    }\n\n    // Test recoverUnassignedRewards function\n    function recoverUnassignedRewards() public {\n        uint256 recoverableRewards1 =\n            distribution.recoverableUnassignedReward(address(token1));\n        uint256 recoverableRewards2 =\n            distribution.recoverableUnassignedReward(address(token2));\n        uint256 ownerRewardBalancesBefore1 = token1.balanceOf(address(this));\n        uint256 ownerRewardBalancesBefore2 = token2.balanceOf(address(this));\n\n        distribution.recoverUnassignedRewards();\n\n        uint256 ownerRewardBalancesAfter1 = token1.balanceOf(address(this));\n        uint256 ownerRewardBalancesAfter2 = token2.balanceOf(address(this));\n\n        // Assert owner balances increase by at least expected amount\n        if (\n            (ownerRewardBalancesBefore1 + recoverableRewards1) >\n            ownerRewardBalancesAfter1\n        ) {\n            emit AssertionFailed();\n        }\n        if (\n            (ownerRewardBalancesBefore2 + recoverableRewards2) >\n            ownerRewardBalancesAfter2\n        ) {\n            emit AssertionFailed();\n        }\n    }\n\n    // Test recoverUnassignedRewardsAsUser function\n    function recoverUnassignedRewardsAsUser() public {\n        uint256 recoverableRewards1 =\n            distribution.recoverableUnassignedReward(address(token1));\n        uint256 recoverableRewards2 =\n            distribution.recoverableUnassignedReward(address(token2));\n        uint256 ownerRewardBalancesBefore1 = token1.balanceOf(address(this));\n        uint256 ownerRewardBalancesBefore2 = token2.balanceOf(address(this));\n\n        mockUser.recoverUnassignedRewards();\n\n        uint256 ownerRewardBalancesAfter1 = token1.balanceOf(address(this));\n        uint256 ownerRewardBalancesAfter2 = token2.balanceOf(address(this));\n\n        // Assert owner balances increase by at least expected amount\n        if (\n            (ownerRewardBalancesBefore1 + recoverableRewards1) >\n            ownerRewardBalancesAfter1\n        ) {\n            emit AssertionFailed();\n        }\n        if (\n            (ownerRewardBalancesBefore2 + recoverableRewards2) >\n            ownerRewardBalancesAfter2\n        ) {\n            emit AssertionFailed();\n        }\n    } */\n}\n",
  "sourcePath": "/home/luzzif/Projects/swapr-lp-staker/contracts/fuzzing/ERC20StakingRewardsDistributionFuzzer.sol",
  "compiler": {
    "name": "solc",
    "version": "0.8.7+commit.e28d00a7.Emscripten.clang"
  },
  "schemaVersion": "3.3.3",
  "updatedAt": "2021-09-27T09:42:54.285Z",
  "devdoc": {
    "kind": "dev",
    "methods": {},
    "version": 1
  },
  "userdoc": {
    "kind": "user",
    "methods": {},
    "version": 1
  }
}