{
  "contractName": "UpgradedERC20StakingRewardsDistribution",
  "abi": [
    {
      "anonymous": false,
      "inputs": [],
      "name": "Canceled",
      "type": "event"
    },
    {
      "anonymous": false,
      "inputs": [
        {
          "indexed": true,
          "internalType": "address",
          "name": "claimer",
          "type": "address"
        },
        {
          "indexed": false,
          "internalType": "uint256[]",
          "name": "amounts",
          "type": "uint256[]"
        }
      ],
      "name": "Claimed",
      "type": "event"
    },
    {
      "anonymous": false,
      "inputs": [
        {
          "indexed": false,
          "internalType": "address[]",
          "name": "rewardsTokenAddresses",
          "type": "address[]"
        },
        {
          "indexed": false,
          "internalType": "address",
          "name": "stakableTokenAddress",
          "type": "address"
        },
        {
          "indexed": false,
          "internalType": "uint256[]",
          "name": "rewardsAmounts",
          "type": "uint256[]"
        },
        {
          "indexed": false,
          "internalType": "uint64",
          "name": "startingTimestamp",
          "type": "uint64"
        },
        {
          "indexed": false,
          "internalType": "uint64",
          "name": "endingTimestamp",
          "type": "uint64"
        },
        {
          "indexed": false,
          "internalType": "bool",
          "name": "locked",
          "type": "bool"
        },
        {
          "indexed": false,
          "internalType": "uint256",
          "name": "stakingCap",
          "type": "uint256"
        }
      ],
      "name": "Initialized",
      "type": "event"
    },
    {
      "anonymous": false,
      "inputs": [
        {
          "indexed": true,
          "internalType": "address",
          "name": "previousOwner",
          "type": "address"
        },
        {
          "indexed": true,
          "internalType": "address",
          "name": "newOwner",
          "type": "address"
        }
      ],
      "name": "OwnershipTransferred",
      "type": "event"
    },
    {
      "anonymous": false,
      "inputs": [
        {
          "indexed": false,
          "internalType": "uint256[]",
          "name": "amounts",
          "type": "uint256[]"
        }
      ],
      "name": "Recovered",
      "type": "event"
    },
    {
      "anonymous": false,
      "inputs": [
        {
          "indexed": true,
          "internalType": "address",
          "name": "staker",
          "type": "address"
        },
        {
          "indexed": false,
          "internalType": "uint256",
          "name": "amount",
          "type": "uint256"
        }
      ],
      "name": "Staked",
      "type": "event"
    },
    {
      "anonymous": false,
      "inputs": [
        {
          "indexed": true,
          "internalType": "address",
          "name": "withdrawer",
          "type": "address"
        },
        {
          "indexed": false,
          "internalType": "uint256",
          "name": "amount",
          "type": "uint256"
        }
      ],
      "name": "Withdrawn",
      "type": "event"
    },
    {
      "inputs": [],
      "name": "cancel",
      "outputs": [],
      "stateMutability": "nonpayable",
      "type": "function"
    },
    {
      "inputs": [
        {
          "internalType": "uint256[]",
          "name": "_amounts",
          "type": "uint256[]"
        },
        {
          "internalType": "address",
          "name": "_recipient",
          "type": "address"
        }
      ],
      "name": "claim",
      "outputs": [],
      "stateMutability": "nonpayable",
      "type": "function"
    },
    {
      "inputs": [
        {
          "internalType": "address",
          "name": "_recipient",
          "type": "address"
        }
      ],
      "name": "claimAll",
      "outputs": [],
      "stateMutability": "nonpayable",
      "type": "function"
    },
    {
      "inputs": [
        {
          "internalType": "address",
          "name": "_staker",
          "type": "address"
        }
      ],
      "name": "claimableRewards",
      "outputs": [
        {
          "internalType": "uint256[]",
          "name": "",
          "type": "uint256[]"
        }
      ],
      "stateMutability": "view",
      "type": "function"
    },
    {
      "inputs": [
        {
          "internalType": "address",
          "name": "",
          "type": "address"
        },
        {
          "internalType": "address",
          "name": "",
          "type": "address"
        }
      ],
      "name": "claimedReward",
      "outputs": [
        {
          "internalType": "uint256",
          "name": "",
          "type": "uint256"
        }
      ],
      "stateMutability": "view",
      "type": "function"
    },
    {
      "inputs": [],
      "name": "consolidateReward",
      "outputs": [],
      "stateMutability": "nonpayable",
      "type": "function"
    },
    {
      "inputs": [
        {
          "internalType": "address",
          "name": "",
          "type": "address"
        },
        {
          "internalType": "address",
          "name": "",
          "type": "address"
        }
      ],
      "name": "consolidatedRewardsPerStakedToken",
      "outputs": [
        {
          "internalType": "uint256",
          "name": "",
          "type": "uint256"
        }
      ],
      "stateMutability": "view",
      "type": "function"
    },
    {
      "inputs": [
        {
          "internalType": "address",
          "name": "",
          "type": "address"
        },
        {
          "internalType": "address",
          "name": "",
          "type": "address"
        }
      ],
      "name": "earnedRewards",
      "outputs": [
        {
          "internalType": "uint256",
          "name": "",
          "type": "uint256"
        }
      ],
      "stateMutability": "view",
      "type": "function"
    },
    {
      "inputs": [],
      "name": "endingTimestamp",
      "outputs": [
        {
          "internalType": "uint64",
          "name": "",
          "type": "uint64"
        }
      ],
      "stateMutability": "view",
      "type": "function"
    },
    {
      "inputs": [
        {
          "internalType": "address",
          "name": "_recipient",
          "type": "address"
        }
      ],
      "name": "exit",
      "outputs": [],
      "stateMutability": "nonpayable",
      "type": "function"
    },
    {
      "inputs": [
        {
          "internalType": "address",
          "name": "_claimer",
          "type": "address"
        }
      ],
      "name": "getClaimedRewards",
      "outputs": [
        {
          "internalType": "uint256[]",
          "name": "",
          "type": "uint256[]"
        }
      ],
      "stateMutability": "view",
      "type": "function"
    },
    {
      "inputs": [],
      "name": "getRewardTokens",
      "outputs": [
        {
          "internalType": "contract IERC20[]",
          "name": "",
          "type": "address[]"
        }
      ],
      "stateMutability": "view",
      "type": "function"
    },
    {
      "inputs": [
        {
          "internalType": "address[]",
          "name": "_rewardTokenAddresses",
          "type": "address[]"
        },
        {
          "internalType": "address",
          "name": "_stakableTokenAddress",
          "type": "address"
        },
        {
          "internalType": "uint256[]",
          "name": "_rewardAmounts",
          "type": "uint256[]"
        },
        {
          "internalType": "uint64",
          "name": "_startingTimestamp",
          "type": "uint64"
        },
        {
          "internalType": "uint64",
          "name": "_endingTimestamp",
          "type": "uint64"
        },
        {
          "internalType": "bool",
          "name": "_locked",
          "type": "bool"
        },
        {
          "internalType": "uint256",
          "name": "_stakingCap",
          "type": "uint256"
        }
      ],
      "name": "initialize",
      "outputs": [],
      "stateMutability": "nonpayable",
      "type": "function"
    },
    {
      "inputs": [],
      "name": "initialized",
      "outputs": [
        {
          "internalType": "bool",
          "name": "",
          "type": "bool"
        }
      ],
      "stateMutability": "view",
      "type": "function"
    },
    {
      "inputs": [],
      "name": "lastConsolidationTimestamp",
      "outputs": [
        {
          "internalType": "uint64",
          "name": "",
          "type": "uint64"
        }
      ],
      "stateMutability": "view",
      "type": "function"
    },
    {
      "inputs": [],
      "name": "locked",
      "outputs": [
        {
          "internalType": "bool",
          "name": "",
          "type": "bool"
        }
      ],
      "stateMutability": "view",
      "type": "function"
    },
    {
      "inputs": [],
      "name": "owner",
      "outputs": [
        {
          "internalType": "address",
          "name": "",
          "type": "address"
        }
      ],
      "stateMutability": "view",
      "type": "function"
    },
    {
      "inputs": [],
      "name": "recoverUnassignedRewards",
      "outputs": [],
      "stateMutability": "nonpayable",
      "type": "function"
    },
    {
      "inputs": [
        {
          "internalType": "address",
          "name": "",
          "type": "address"
        }
      ],
      "name": "recoverableUnassignedReward",
      "outputs": [
        {
          "internalType": "uint256",
          "name": "",
          "type": "uint256"
        }
      ],
      "stateMutability": "view",
      "type": "function"
    },
    {
      "inputs": [],
      "name": "renounceOwnership",
      "outputs": [],
      "stateMutability": "nonpayable",
      "type": "function"
    },
    {
      "inputs": [
        {
          "internalType": "address",
          "name": "",
          "type": "address"
        }
      ],
      "name": "rewardAmount",
      "outputs": [
        {
          "internalType": "uint256",
          "name": "",
          "type": "uint256"
        }
      ],
      "stateMutability": "view",
      "type": "function"
    },
    {
      "inputs": [
        {
          "internalType": "address",
          "name": "",
          "type": "address"
        }
      ],
      "name": "rewardPerStakedToken",
      "outputs": [
        {
          "internalType": "uint256",
          "name": "",
          "type": "uint256"
        }
      ],
      "stateMutability": "view",
      "type": "function"
    },
    {
      "inputs": [
        {
          "internalType": "uint256",
          "name": "",
          "type": "uint256"
        }
      ],
      "name": "rewardTokens",
      "outputs": [
        {
          "internalType": "contract IERC20",
          "name": "",
          "type": "address"
        }
      ],
      "stateMutability": "view",
      "type": "function"
    },
    {
      "inputs": [],
      "name": "secondsDuration",
      "outputs": [
        {
          "internalType": "uint64",
          "name": "",
          "type": "uint64"
        }
      ],
      "stateMutability": "view",
      "type": "function"
    },
    {
      "inputs": [],
      "name": "stakableToken",
      "outputs": [
        {
          "internalType": "contract IERC20",
          "name": "",
          "type": "address"
        }
      ],
      "stateMutability": "view",
      "type": "function"
    },
    {
      "inputs": [
        {
          "internalType": "uint256",
          "name": "_amount",
          "type": "uint256"
        }
      ],
      "name": "stake",
      "outputs": [],
      "stateMutability": "nonpayable",
      "type": "function"
    },
    {
      "inputs": [
        {
          "internalType": "address",
          "name": "",
          "type": "address"
        }
      ],
      "name": "stakedTokenAmount",
      "outputs": [
        {
          "internalType": "uint256",
          "name": "",
          "type": "uint256"
        }
      ],
      "stateMutability": "view",
      "type": "function"
    },
    {
      "inputs": [
        {
          "internalType": "address",
          "name": "",
          "type": "address"
        }
      ],
      "name": "stakedTokensOf",
      "outputs": [
        {
          "internalType": "uint256",
          "name": "",
          "type": "uint256"
        }
      ],
      "stateMutability": "view",
      "type": "function"
    },
    {
      "inputs": [],
      "name": "stakingCap",
      "outputs": [
        {
          "internalType": "uint256",
          "name": "",
          "type": "uint256"
        }
      ],
      "stateMutability": "view",
      "type": "function"
    },
    {
      "inputs": [],
      "name": "startingTimestamp",
      "outputs": [
        {
          "internalType": "uint64",
          "name": "",
          "type": "uint64"
        }
      ],
      "stateMutability": "view",
      "type": "function"
    },
    {
      "inputs": [
        {
          "internalType": "address",
          "name": "",
          "type": "address"
        }
      ],
      "name": "totalClaimedRewards",
      "outputs": [
        {
          "internalType": "uint256",
          "name": "",
          "type": "uint256"
        }
      ],
      "stateMutability": "view",
      "type": "function"
    },
    {
      "inputs": [],
      "name": "totalStakedTokensAmount",
      "outputs": [
        {
          "internalType": "uint256",
          "name": "",
          "type": "uint256"
        }
      ],
      "stateMutability": "view",
      "type": "function"
    },
    {
      "inputs": [
        {
          "internalType": "address",
          "name": "_newOwner",
          "type": "address"
        }
      ],
      "name": "transferOwnership",
      "outputs": [],
      "stateMutability": "nonpayable",
      "type": "function"
    },
    {
      "inputs": [
        {
          "internalType": "uint256",
          "name": "_amount",
          "type": "uint256"
        }
      ],
      "name": "withdraw",
      "outputs": [],
      "stateMutability": "nonpayable",
      "type": "function"
    },
    {
      "inputs": [],
      "name": "isUpgraded",
      "outputs": [
        {
          "internalType": "bool",
          "name": "",
          "type": "bool"
        }
      ],
      "stateMutability": "pure",
      "type": "function"
    }
  ],
  "bytecode": "0x608060405234801561001057600080fd5b50612d32806100206000396000f3fe608060405234801561001057600080fd5b50600436106102115760003560e01c80638878627211610125578063b9e35db0116100ad578063dc01f60d1161007c578063dc01f60d14610515578063e644067d14610528578063e66d85be14610530578063ea8a1af014610550578063f2fde38b1461055857600080fd5b8063b9e35db0146104b4578063c10de300146104d4578063c4f59f9b146104ec578063cf3090121461050157600080fd5b8063a110b93f116100f4578063a110b93f14610445578063a694fc3a14610465578063ab08d4fc14610478578063b41fa97914610498578063b42652e9146104a157600080fd5b806388786272146103ec5780638c574b48146103ff5780638da5cb5b1461041257806398f812301461042557600080fd5b80635e5294b7116101a8578063715018a611610177578063715018a614610368578063728e4a671461037057806375b8dbf81461039b57806377329f35146103c65780637bb7bed1146103d957600080fd5b80635e5294b7146102f45780635fa3502314610326578063645a8a56146103405780636715dcb81461036057600080fd5b806334380a61116101e457806334380a611461028b5780633b34ee50146102c457806342c80fc9146102e457806344c370d3146102eb57600080fd5b8063158ef93e146102165780631c96c3fb1461023857806323a26e36146102635780632e1a7d4d14610278575b600080fd5b6009546102239060ff1681565b60405190151581526020015b60405180910390f35b60025461024b906001600160a01b031681565b6040516001600160a01b03909116815260200161022f565b610276610271366004612760565b61056b565b005b61027661028636600461290b565b610b10565b6102b661029936600461272e565b600f60209081526000928352604080842090915290825290205481565b60405190815260200161022f565b6102b66102d2366004612714565b600a6020526000908152604090205481565b6001610223565b6102b660085481565b60075461030e90600160401b90046001600160401b031681565b6040516001600160401b03909116815260200161022f565b60075461030e90600160801b90046001600160401b031681565b6102b661034e366004612714565b60036020526000908152604090205481565b610276610d84565b6102766110e5565b6102b661037e36600461272e565b600e60209081526000928352604080842090915290825290205481565b6102b66103a936600461272e565b600d60209081526000928352604080842090915290825290205481565b6102766103d4366004612714565b61114b565b61024b6103e736600461290b565b61131e565b60075461030e906001600160401b031681565b61027661040d36600461281e565b611348565b60005461024b906001600160a01b031681565b6102b6610433366004612714565b60066020526000908152604090205481565b6102b6610453366004612714565b600b6020526000908152604090205481565b61027661047336600461290b565b611613565b6102b6610486366004612714565b600c6020526000908152604090205481565b6102b660055481565b6102766104af366004612714565b611843565b6104c76104c2366004612714565b6118cb565b60405161022f9190612a7f565b60095461030e9061010090046001600160401b031681565b6104f46119da565b60405161022f9190612a32565b60075461022390600160c01b900460ff1681565b6104c7610523366004612714565b611a3c565b610276611d38565b6102b661053e366004612714565b60046020526000908152604090205481565b610276611fc2565b610276610566366004612714565b6121ee565b60095460ff16156105ce5760405162461bcd60e51b81526020600482015260346024820152600080516020612cdd83398151915260448201527308185b1c9958591e481a5b9a5d1a585b1a5e995960621b60648201526084015b60405180910390fd5b42846001600160401b03161161063a5760405162461bcd60e51b815260206004820152603b6024820152600080516020612cdd83398151915260448201527f20696e76616c6964207374617274696e672074696d657374616d70000000000060648201526084016105c5565b836001600160401b0316836001600160401b0316116106a85760405162461bcd60e51b81526020600482015260366024820152600080516020612cdd8339815191526044820152751034b73b30b634b2103a34b6b290323ab930ba34b7b760511b60648201526084016105c5565b8785146107155760405162461bcd60e51b81526020600482015260416024820152600080516020612cdd83398151915260448201527f20696e636f6e73697374656e742072657761726420746f6b656e2f616d6f756e6064820152601d60fa1b608482015260a4016105c5565b61071f8484612c0f565b600760106101000a8154816001600160401b0302191690836001600160401b0316021790555060005b63ffffffff81168911156109b95760008a8a8363ffffffff1681811061077e57634e487b7160e01b600052603260045260246000fd5b90506020020160208101906107939190612714565b9050600088888463ffffffff168181106107bd57634e487b7160e01b600052603260045260246000fd5b60200291909101359150506001600160a01b0382166108325760405162461bcd60e51b815260206004820152603a6024820152600080516020612cdd83398151915260448201527f203020616464726573732061732072657761726420746f6b656e00000000000060648201526084016105c5565b600081116108835760405162461bcd60e51b815260206004820152602a6024820152600080516020612cdd833981519152604482015269081b9bc81c995dd85c9960b21b60648201526084016105c5565b6040516370a0823160e01b8152306004820152829082906001600160a01b038316906370a082319060240160206040518083038186803b1580156108c657600080fd5b505afa1580156108da573d6000803e3d6000fd5b505050506040513d601f19601f820116820180604052508101906108fe9190612923565b101561094e5760405162461bcd60e51b815260206004820152602b6024820152600080516020612cdd83398151915260448201526a206e6f2066756e64696e6760a81b60648201526084016105c5565b600180548082019091557fb10e2d527612073b26eecdfd717e6a320cf44b4afac2b0732d9fcbe2b7fa0cf60180546001600160a01b0319166001600160a01b0392831617905591909116600090815260036020526040902055806109b181612c7e565b915050610748565b506001600160a01b038716610a245760405162461bcd60e51b815260206004820152603c6024820152600080516020612cdd83398151915260448201527f20302061646472657373206173207374616b61626c6520746f6b656e0000000060648201526084016105c5565b600280546001600160a01b03199081166001600160a01b038a16179091556000805433921691909117905560078054600980546001600160401b038881166fffffffffffffffffffffffffffffffff199094168417600160401b918916919091021760ff60c01b1916600160c01b8715150217909355600884905568ffffffffffffffffff1990921661010090910260ff19161760011790556040517f2c1fa4f0e3f1c67636ee0b3665bf3a04407a2c1332d4e3e99f941ee2b0b9daf490610afd908b908b908b908b908b908b908b908b908b9061298b565b60405180910390a1505050505050505050565b60095460ff16610b325760405162461bcd60e51b81526004016105c590612b63565b60095460ff168015610b4f57506007546001600160401b03164210155b610b6b5760405162461bcd60e51b81526004016105c590612aea565b60008111610bcf5760405162461bcd60e51b815260206004820152603a6024820152600080516020612cdd83398151915260448201527f20747269656420746f207769746864726177206e6f7468696e6700000000000060648201526084016105c5565b600754600160c01b900460ff1615610c6857600754600160401b90046001600160401b03164211610c685760405162461bcd60e51b81526020600482015260496024820152600080516020612cdd83398151915260448201527f2066756e6473206c6f636b656420756e74696c2074686520646973747269627560648201526874696f6e20656e647360b81b608482015260a4016105c5565b610c70610d84565b336000908152600c6020526040902054811115610cf85760405162461bcd60e51b815260206004820152604c6024820152600080516020612cdd83398151915260448201527f2077697468647261776e20616d6f756e742067726561746572207468616e206360648201526b757272656e74207374616b6560a01b608482015260a4016105c5565b336000908152600c6020526040902054610d13908290612bf8565b336000908152600c6020526040902055600554610d31908290612bf8565b600555600254610d4b906001600160a01b031633836122d0565b60405181815233907f7084f5476618d8e60b11ef0d7d3f06914655adb8793e28ff7f018d4c76d505d5906020015b60405180910390a250565b60095460ff16610da65760405162461bcd60e51b81526004016105c590612b63565b60095460ff168015610dc357506007546001600160401b03164210155b610ddf5760405162461bcd60e51b81526004016105c590612aea565b600754600090610e00904290600160401b90046001600160401b0316612338565b600954909150600090610e219061010090046001600160401b031683612c0f565b6001600160401b0316905060005b6001548110156110ba57600060018281548110610e5c57634e487b7160e01b600052603260045260246000fd5b6000918252602090912001546005546001600160a01b039091169150610f0d576007546001600160a01b038216600090815260036020526040902054600160801b9091046001600160401b031690610eb49085612bd9565b610ebe9190612bb9565b6001600160a01b0382166000908152600a6020526040902054610ee19190612ba1565b6001600160a01b0382166000908152600a60209081526040808320939093556006905290812055610fa7565b600754600554610f2d91600160801b90046001600160401b031690612bd9565b6001600160a01b038216600090815260036020526040902054600160701b90610f569086612bd9565b610f609190612bd9565b610f6a9190612bb9565b6001600160a01b038216600090815260066020526040902054610f8d9190612ba1565b6001600160a01b0382166000908152600660205260409020555b6001600160a01b038116600090815260066020526040812054610fcb57600061102b565b336000908152600d602090815260408083206001600160a01b0386168452825280832054600690925290912054600160701b9161100791612bf8565b336000908152600c60205260409020546110219190612bd9565b61102b9190612bb9565b336000908152600e602090815260408083206001600160a01b038716845290915290205490915061105d908290612ba1565b336000818152600e602090815260408083206001600160a01b0397909716808452968252808320949094556006815283822054928252600d81528382209582529490945292209190915550806110b281612c63565b915050610e2f565b5050600980546001600160401b039092166101000268ffffffffffffffff0019909216919091179055565b6000546001600160a01b0316331461110f5760405162461bcd60e51b81526004016105c590612b24565b600080546001600160a01b031916815560405181907f8be0079c531659141344cd1fd0a4f28419497f9722a3daafe3b4186f6b6457e0908290a3565b60095460ff1661116d5760405162461bcd60e51b81526004016105c590612b63565b60095460ff16801561118a57506007546001600160401b03164210155b6111a65760405162461bcd60e51b81526004016105c590612aea565b6111ae610d84565b6001546000906001600160401b038111156111d957634e487b7160e01b600052604160045260246000fd5b604051908082528060200260200182016040528015611202578160200160208202803683370190505b50905060005b6001548110156112d85760006001828154811061123557634e487b7160e01b600052603260045260246000fd5b600091825260208083209091015433808452600f835260408085206001600160a01b0390931680865292845280852054918552600e84528085208386529093529183205490935083929161128891612bf8565b9050611295838288612350565b808585815181106112b657634e487b7160e01b600052603260045260246000fd5b60200260200101818152505050505080806112d090612c63565b915050611208565b50336001600160a01b03167f28ee566bdecaf975c0979f4d09fecf91a9009ffe78523aef053a678134137b8b826040516113129190612a7f565b60405180910390a25050565b6001818154811061132e57600080fd5b6000918252602090912001546001600160a01b0316905081565b60095460ff1661136a5760405162461bcd60e51b81526004016105c590612b63565b60095460ff16801561138757506007546001600160401b03164210155b6113a35760405162461bcd60e51b81526004016105c590612aea565b6001548251146114095760405162461bcd60e51b815260206004820152603d6024820152600080516020612cdd83398151915260448201527f20696e636f6e73697374656e7420636c61696d656420616d6f756e747300000060648201526084016105c5565b611411610d84565b6001546000906001600160401b0381111561143c57634e487b7160e01b600052604160045260246000fd5b604051908082528060200260200182016040528015611465578160200160208202803683370190505b50905060005b6001548110156115cc5760006001828154811061149857634e487b7160e01b600052603260045260246000fd5b600091825260208083209091015433808452600f835260408085206001600160a01b0390931680865292845280852054918552600e8452808520838652909352918320549093508392916114eb91612bf8565b9050600087858151811061150f57634e487b7160e01b600052603260045260246000fd5b602002602001015190508082101561157d5760405162461bcd60e51b815260206004820152603e6024820152600080516020612cdd83398151915260448201527f20696e73756666696369656e7420636c61696d61626c6520616d6f756e74000060648201526084016105c5565b611588848289612350565b808686815181106115a957634e487b7160e01b600052603260045260246000fd5b6020026020010181815250505050505080806115c490612c63565b91505061146b565b50336001600160a01b03167f28ee566bdecaf975c0979f4d09fecf91a9009ffe78523aef053a678134137b8b826040516116069190612a7f565b60405180910390a2505050565b60095460ff166116355760405162461bcd60e51b81526004016105c590612b63565b60095460ff16801561165257506007546001600160401b03164210155b61166e5760405162461bcd60e51b81526004016105c590612aea565b60095460ff1680156116925750600754600160401b90046001600160401b03164211155b6116e35760405162461bcd60e51b815260206004820152602e6024820152600080516020612cdd83398151915260448201526d08185b1c9958591e48195b99195960921b60648201526084016105c5565b600081116117475760405162461bcd60e51b81526020600482015260376024820152600080516020612cdd83398151915260448201527f20747269656420746f207374616b65206e6f7468696e6700000000000000000060648201526084016105c5565b600854156117b557600854816005546117609190612ba1565b11156117b55760405162461bcd60e51b81526020600482015260306024820152600080516020612cdd83398151915260448201526f081cdd185ada5b99c818d85c081a1a5d60821b60648201526084016105c5565b6117bd610d84565b336000908152600c60205260409020546117d8908290612ba1565b336000908152600c60205260409020556005546117f6908290612ba1565b600555600254611811906001600160a01b03163330846123de565b60405181815233907f9e71bc8eea02a63969f509818f2dafb9254532904319f9dbda79b67bd34a5f3d90602001610d79565b60095460ff166118655760405162461bcd60e51b81526004016105c590612b63565b60095460ff16801561188257506007546001600160401b03164210155b61189e5760405162461bcd60e51b81526004016105c590612aea565b6118a6610d84565b6118af8161114b565b336000908152600c60205260409020546118c890610b10565b50565b6001546060906000906001600160401b038111156118f957634e487b7160e01b600052604160045260246000fd5b604051908082528060200260200182016040528015611922578160200160208202803683370190505b50905060005b6001548110156119d3576001600160a01b0384166000908152600f60205260408120600180549192918490811061196f57634e487b7160e01b600052603260045260246000fd5b60009182526020808320909101546001600160a01b0316835282019290925260400190205482518390839081106119b657634e487b7160e01b600052603260045260246000fd5b6020908102919091010152806119cb81612c63565b915050611928565b5092915050565b60606001805480602002602001604051908101604052809291908181526020018280548015611a3257602002820191906000526020600020905b81546001600160a01b03168152600190910190602001808311611a14575b5050505050905090565b6001546060906000906001600160401b03811115611a6a57634e487b7160e01b600052604160045260246000fd5b604051908082528060200260200182016040528015611a93578160200160208202803683370190505b5060095490915060ff161580611ab357506007546001600160401b031642105b15611b045760005b6001548110156119d3576000828281518110611ae757634e487b7160e01b600052603260045260246000fd5b602090810291909101015280611afc81612c63565b915050611abb565b600754600090611b25904290600160401b90046001600160401b0316612338565b600954909150600090611b469061010090046001600160401b031683612c0f565b6001600160401b0316905060005b600154811015611d2e57600060018281548110611b8157634e487b7160e01b600052603260045260246000fd5b60009182526020808320909101546001600160a01b0316808352600690915260409091205460055491925090611bb957506000611c23565b600754600554611bd991600160801b90046001600160401b031690612bd9565b6001600160a01b038316600090815260036020526040902054600160701b90611c029087612bd9565b611c0c9190612bd9565b611c169190612bb9565b611c209082612ba1565b90505b6000808211611c33576000611c96565b6001600160a01b03808a166000908152600d6020908152604080832093871683529290522054600160701b90611c699084612bf8565b6001600160a01b038b166000908152600c6020526040902054611c8c9190612bd9565b611c969190612bb9565b6001600160a01b03808b166000818152600f6020908152604080832094891680845294825280832054938352600e8252808320948352939052919091205491925090611ce29083612ba1565b611cec9190612bf8565b878581518110611d0c57634e487b7160e01b600052603260045260246000fd5b6020026020010181815250505050508080611d2690612c63565b915050611b54565b5091949350505050565b60095460ff16611d5a5760405162461bcd60e51b81526004016105c590612b63565b60095460ff168015611d7757506007546001600160401b03164210155b611d935760405162461bcd60e51b81526004016105c590612aea565b611d9b610d84565b6001546000816001600160401b03811115611dc657634e487b7160e01b600052604160045260246000fd5b604051908082528060200260200182016040528015611def578160200160208202803683370190505b50905060005b82811015611f8657600060018281548110611e2057634e487b7160e01b600052603260045260246000fd5b60009182526020808320909101546001600160a01b0316808352600a8252604080842054600b909352909220549192508291611e5c9190612ba1565b6001600160a01b0382166000908152600b6020908152604080832084905560039091528120549091611e8d91612bf8565b6001600160a01b038381166000908152600a6020526040808220829055516370a0823160e01b81523060048201529293509183918616906370a082319060240160206040518083038186803b158015611ee557600080fd5b505afa158015611ef9573d6000803e3d6000fd5b505050506040513d601f19601f82011682018060405250810190611f1d9190612923565b611f279190612bf8565b905080868681518110611f4a57634e487b7160e01b600052603260045260246000fd5b6020908102919091010152600054611f6f906001600160a01b038681169116836122d0565b505050508080611f7e90612c63565b915050611df5565b507ff904fafa600a7e4e8039f3a5497d1b6016772e3060f87d3e40f911b315f00bd181604051611fb69190612a7f565b60405180910390a15050565b60095460ff16611fe45760405162461bcd60e51b81526004016105c590612b63565b6000546001600160a01b0316331461200e5760405162461bcd60e51b81526004016105c590612b24565b6007546001600160401b0316421061207c5760405162461bcd60e51b815260206004820152603d6024820152600080516020612cdd83398151915260448201527f20646973747269627574696f6e20616c7265616479207374617274656400000060648201526084016105c5565b60005b600154811015612172576000600182815481106120ac57634e487b7160e01b600052603260045260246000fd5b6000918252602080832091909101546001600160a01b0390811680845260039092526040808420849055925492516370a0823160e01b815230600482015291935061215f92169083906370a082319060240160206040518083038186803b15801561211657600080fd5b505afa15801561212a573d6000803e3d6000fd5b505050506040513d601f19601f8201168201806040525081019061214e9190612923565b6001600160a01b03841691906122d0565b508061216a81612c63565b91505061207f565b5061217f60016000612666565b600280546001600160a01b0319169055600780546009805468ffffffffffffffffff1916905578ff0000000000000000ffffffffffffffffffffffffffffffff191690556040517f1afb0ae590df277bcb3a37f88612725bf1f7df4755792b1548a7efe77985ff7790600090a1565b6000546001600160a01b031633146122185760405162461bcd60e51b81526004016105c590612b24565b6001600160a01b0381166122755760405162461bcd60e51b81526020600482015260306024820152600080516020612cdd83398151915260448201526f101816b0b2323932b9b99037bbb732b960811b60648201526084016105c5565b600080546040516001600160a01b03808516939216917f8be0079c531659141344cd1fd0a4f28419497f9722a3daafe3b4186f6b6457e091a3600080546001600160a01b0319166001600160a01b0392909216919091179055565b6040516001600160a01b03831660248201526044810182905261233390849063a9059cbb60e01b906064015b60408051601f198184030181529190526020810180516001600160e01b03166001600160e01b03199093169290921790915261241c565b505050565b60008183106123475781612349565b825b9392505050565b336000908152600f602090815260408083206001600160a01b038716845290915290205461237f908390612ba1565b336000908152600f602090815260408083206001600160a01b0388168452825280832093909355600b905220546123b7908390612ba1565b6001600160a01b0384166000818152600b60205260409020919091556123339082846122d0565b6040516001600160a01b03808516602483015283166044820152606481018290526124169085906323b872dd60e01b906084016122fc565b50505050565b6000612471826040518060400160405280602081526020017f5361666545524332303a206c6f772d6c6576656c2063616c6c206661696c6564815250856001600160a01b03166124ee9092919063ffffffff16565b805190915015612333578080602001905181019061248f91906128ef565b6123335760405162461bcd60e51b815260206004820152602a60248201527f5361666545524332303a204552433230206f7065726174696f6e20646964206e6044820152691bdd081cdd58d8d9595960b21b60648201526084016105c5565b60606124fd8484600085612505565b949350505050565b6060824710156125665760405162461bcd60e51b815260206004820152602660248201527f416464726573733a20696e73756666696369656e742062616c616e636520666f6044820152651c8818d85b1b60d21b60648201526084016105c5565b843b6125b45760405162461bcd60e51b815260206004820152601d60248201527f416464726573733a2063616c6c20746f206e6f6e2d636f6e747261637400000060448201526064016105c5565b600080866001600160a01b031685876040516125d0919061296f565b60006040518083038185875af1925050503d806000811461260d576040519150601f19603f3d011682016040523d82523d6000602084013e612612565b606091505b509150915061262282828661262d565b979650505050505050565b6060831561263c575081612349565b82511561264c5782518084602001fd5b8160405162461bcd60e51b81526004016105c59190612ab7565b50805460008255906000526020600020908101906118c891905b808211156126945760008155600101612680565b5090565b80356001600160a01b03811681146126af57600080fd5b919050565b60008083601f8401126126c5578081fd5b5081356001600160401b038111156126db578182fd5b6020830191508360208260051b85010111156126f657600080fd5b9250929050565b80356001600160401b03811681146126af57600080fd5b600060208284031215612725578081fd5b61234982612698565b60008060408385031215612740578081fd5b61274983612698565b915061275760208401612698565b90509250929050565b600080600080600080600080600060e08a8c03121561277d578485fd5b89356001600160401b0380821115612793578687fd5b61279f8d838e016126b4565b909b5099508991506127b360208d01612698565b985060408c01359150808211156127c8578687fd5b506127d58c828d016126b4565b90975095506127e8905060608b016126fd565b93506127f660808b016126fd565b925060a08a013561280681612cce565b8092505060c08a013590509295985092959850929598565b60008060408385031215612830578182fd5b82356001600160401b0380821115612846578384fd5b818501915085601f830112612859578384fd5b813560208282111561286d5761286d612cb8565b8160051b604051601f19603f8301168101818110868211171561289257612892612cb8565b604052838152828101945085830182870184018b10156128b0578889fd5b8896505b848710156128d25780358652600196909601959483019483016128b4565b5096506128e29050878201612698565b9450505050509250929050565b600060208284031215612900578081fd5b815161234981612cce565b60006020828403121561291c578081fd5b5035919050565b600060208284031215612934578081fd5b5051919050565b81835260006001600160fb1b03831115612953578081fd5b8260051b80836020870137939093016020019283525090919050565b60008251612981818460208701612c37565b9190910192915050565b60e0808252810189905260008a6101008301825b8c8110156129cd576001600160a01b036129b884612698565b1682526020928301929091019060010161299f565b506001600160a01b038b16602085015283810360408501526129f0818a8c61293b565b92505050612a0960608301876001600160401b03169052565b6001600160401b0394909416608082015291151560a083015260c0909101529695505050505050565b6020808252825182820181905260009190848201906040850190845b81811015612a735783516001600160a01b031683529284019291840191600101612a4e565b50909695505050505050565b6020808252825182820181905260009190848201906040850190845b81811015612a7357835183529284019291840191600101612a9b565b6020815260008251806020840152612ad6816040850160208701612c37565b601f01601f19169190910160400192915050565b6020808252602c90820152600080516020612cdd83398151915260408201526b081b9bdd081cdd185c9d195960a21b606082015260800190565b6020808252603190820152600080516020612cdd8339815191526040820152701031b0b63632b9103737ba1037bbb732b960791b606082015260800190565b6020808252603090820152600080516020612cdd83398151915260408201526f081b9bdd081a5b9a5d1a585b1a5e995960821b606082015260800190565b60008219821115612bb457612bb4612ca2565b500190565b600082612bd457634e487b7160e01b81526012600452602481fd5b500490565b6000816000190483118215151615612bf357612bf3612ca2565b500290565b600082821015612c0a57612c0a612ca2565b500390565b60006001600160401b0383811690831681811015612c2f57612c2f612ca2565b039392505050565b60005b83811015612c52578181015183820152602001612c3a565b838111156124165750506000910152565b6000600019821415612c7757612c77612ca2565b5060010190565b600063ffffffff80831681811415612c9857612c98612ca2565b6001019392505050565b634e487b7160e01b600052601160045260246000fd5b634e487b7160e01b600052604160045260246000fd5b80151581146118c857600080fdfe45524332305374616b696e6752657761726473446973747269627574696f6e3aa264697066735822122088a700fda2b699345aafe63bfb8bc9be8d91efa610f426114863277fba6bd9bf64736f6c63430008040033",
  "immutableReferences": {},
  "source": "//SPDX-License-Identifier: GPL-3.0\n\npragma solidity ^0.8.0;\n\nimport \"@openzeppelin/contracts/token/ERC20/presets/ERC20PresetMinterPauser.sol\";\nimport \"../ERC20StakingRewardsDistribution.sol\";\n\ncontract FirstRewardERC20 is ERC20PresetMinterPauser {\n    constructor() ERC20PresetMinterPauser(\"First reward\", \"RWD1\") {}\n}\n\ncontract SecondRewardERC20 is ERC20PresetMinterPauser {\n    constructor() ERC20PresetMinterPauser(\"Second reward\", \"RWD2\") {}\n}\n\ncontract FirstStakableERC20 is ERC20PresetMinterPauser {\n    constructor() ERC20PresetMinterPauser(\"First stakable\", \"STK1\") {}\n}\n\ncontract SecondStakableERC20 is ERC20PresetMinterPauser {\n    constructor() ERC20PresetMinterPauser(\"Second stakable\", \"STK2\") {}\n}\n\ncontract UpgradedERC20StakingRewardsDistribution is\n    ERC20StakingRewardsDistribution\n{\n    function isUpgraded() external pure returns (bool) {\n        return true;\n    }\n}\n",
  "sourcePath": "/home/luzzif/Projects/swapr-lp-staker/contracts/test/TestDependencies.sol",
  "compiler": {
    "name": "solc",
    "version": "0.8.4+commit.c7e474f2.Emscripten.clang"
  },
  "schemaVersion": "3.3.3",
  "updatedAt": "2021-05-04T10:15:57.853Z",
  "devdoc": {
    "kind": "dev",
    "methods": {},
    "version": 1
  },
  "userdoc": {
    "kind": "user",
    "methods": {},
    "version": 1
  }
}