{
  "contractName": "UpgradedERC20StakingRewardsDistribution",
  "abi": [
    {
      "anonymous": false,
      "inputs": [],
      "name": "Canceled",
      "type": "event"
    },
    {
      "anonymous": false,
      "inputs": [
        {
          "indexed": true,
          "internalType": "address",
          "name": "claimer",
          "type": "address"
        },
        {
          "indexed": false,
          "internalType": "uint256[]",
          "name": "amounts",
          "type": "uint256[]"
        }
      ],
      "name": "Claimed",
      "type": "event"
    },
    {
      "anonymous": false,
      "inputs": [
        {
          "indexed": false,
          "internalType": "address[]",
          "name": "rewardsTokenAddresses",
          "type": "address[]"
        },
        {
          "indexed": false,
          "internalType": "address",
          "name": "stakableTokenAddress",
          "type": "address"
        },
        {
          "indexed": false,
          "internalType": "uint256[]",
          "name": "rewardsAmounts",
          "type": "uint256[]"
        },
        {
          "indexed": false,
          "internalType": "uint64",
          "name": "startingTimestamp",
          "type": "uint64"
        },
        {
          "indexed": false,
          "internalType": "uint64",
          "name": "endingTimestamp",
          "type": "uint64"
        },
        {
          "indexed": false,
          "internalType": "bool",
          "name": "locked",
          "type": "bool"
        },
        {
          "indexed": false,
          "internalType": "uint256",
          "name": "stakingCap",
          "type": "uint256"
        }
      ],
      "name": "Initialized",
      "type": "event"
    },
    {
      "anonymous": false,
      "inputs": [
        {
          "indexed": true,
          "internalType": "address",
          "name": "previousOwner",
          "type": "address"
        },
        {
          "indexed": true,
          "internalType": "address",
          "name": "newOwner",
          "type": "address"
        }
      ],
      "name": "OwnershipTransferred",
      "type": "event"
    },
    {
      "anonymous": false,
      "inputs": [
        {
          "indexed": false,
          "internalType": "uint256[]",
          "name": "amounts",
          "type": "uint256[]"
        }
      ],
      "name": "Recovered",
      "type": "event"
    },
    {
      "anonymous": false,
      "inputs": [
        {
          "indexed": true,
          "internalType": "address",
          "name": "staker",
          "type": "address"
        },
        {
          "indexed": false,
          "internalType": "uint256",
          "name": "amount",
          "type": "uint256"
        }
      ],
      "name": "Staked",
      "type": "event"
    },
    {
      "anonymous": false,
      "inputs": [
        {
          "indexed": true,
          "internalType": "address",
          "name": "withdrawer",
          "type": "address"
        },
        {
          "indexed": false,
          "internalType": "uint256",
          "name": "amount",
          "type": "uint256"
        }
      ],
      "name": "Withdrawn",
      "type": "event"
    },
    {
      "inputs": [],
      "name": "cancel",
      "outputs": [],
      "stateMutability": "nonpayable",
      "type": "function"
    },
    {
      "inputs": [
        {
          "internalType": "uint256[]",
          "name": "_amounts",
          "type": "uint256[]"
        },
        {
          "internalType": "address",
          "name": "_recipient",
          "type": "address"
        }
      ],
      "name": "claim",
      "outputs": [],
      "stateMutability": "nonpayable",
      "type": "function"
    },
    {
      "inputs": [
        {
          "internalType": "address",
          "name": "_recipient",
          "type": "address"
        }
      ],
      "name": "claimAll",
      "outputs": [],
      "stateMutability": "nonpayable",
      "type": "function"
    },
    {
      "inputs": [
        {
          "internalType": "address",
          "name": "_account",
          "type": "address"
        }
      ],
      "name": "claimableRewards",
      "outputs": [
        {
          "internalType": "uint256[]",
          "name": "",
          "type": "uint256[]"
        }
      ],
      "stateMutability": "view",
      "type": "function"
    },
    {
      "inputs": [],
      "name": "consolidateReward",
      "outputs": [],
      "stateMutability": "nonpayable",
      "type": "function"
    },
    {
      "inputs": [],
      "name": "endingTimestamp",
      "outputs": [
        {
          "internalType": "uint64",
          "name": "",
          "type": "uint64"
        }
      ],
      "stateMutability": "view",
      "type": "function"
    },
    {
      "inputs": [
        {
          "internalType": "address",
          "name": "_recipient",
          "type": "address"
        }
      ],
      "name": "exit",
      "outputs": [],
      "stateMutability": "nonpayable",
      "type": "function"
    },
    {
      "inputs": [
        {
          "internalType": "address",
          "name": "_claimer",
          "type": "address"
        }
      ],
      "name": "getClaimedRewards",
      "outputs": [
        {
          "internalType": "uint256[]",
          "name": "",
          "type": "uint256[]"
        }
      ],
      "stateMutability": "view",
      "type": "function"
    },
    {
      "inputs": [],
      "name": "getRewardTokens",
      "outputs": [
        {
          "internalType": "address[]",
          "name": "",
          "type": "address[]"
        }
      ],
      "stateMutability": "view",
      "type": "function"
    },
    {
      "inputs": [
        {
          "internalType": "address[]",
          "name": "_rewardTokenAddresses",
          "type": "address[]"
        },
        {
          "internalType": "address",
          "name": "_stakableTokenAddress",
          "type": "address"
        },
        {
          "internalType": "uint256[]",
          "name": "_rewardAmounts",
          "type": "uint256[]"
        },
        {
          "internalType": "uint64",
          "name": "_startingTimestamp",
          "type": "uint64"
        },
        {
          "internalType": "uint64",
          "name": "_endingTimestamp",
          "type": "uint64"
        },
        {
          "internalType": "bool",
          "name": "_locked",
          "type": "bool"
        },
        {
          "internalType": "uint256",
          "name": "_stakingCap",
          "type": "uint256"
        }
      ],
      "name": "initialize",
      "outputs": [],
      "stateMutability": "nonpayable",
      "type": "function"
    },
    {
      "inputs": [],
      "name": "initialized",
      "outputs": [
        {
          "internalType": "bool",
          "name": "",
          "type": "bool"
        }
      ],
      "stateMutability": "view",
      "type": "function"
    },
    {
      "inputs": [],
      "name": "lastConsolidationTimestamp",
      "outputs": [
        {
          "internalType": "uint64",
          "name": "",
          "type": "uint64"
        }
      ],
      "stateMutability": "view",
      "type": "function"
    },
    {
      "inputs": [],
      "name": "locked",
      "outputs": [
        {
          "internalType": "bool",
          "name": "",
          "type": "bool"
        }
      ],
      "stateMutability": "view",
      "type": "function"
    },
    {
      "inputs": [],
      "name": "owner",
      "outputs": [
        {
          "internalType": "address",
          "name": "",
          "type": "address"
        }
      ],
      "stateMutability": "view",
      "type": "function"
    },
    {
      "inputs": [],
      "name": "recoverUnassignedRewards",
      "outputs": [],
      "stateMutability": "nonpayable",
      "type": "function"
    },
    {
      "inputs": [
        {
          "internalType": "address",
          "name": "_rewardToken",
          "type": "address"
        }
      ],
      "name": "recoverableUnassignedReward",
      "outputs": [
        {
          "internalType": "uint256",
          "name": "",
          "type": "uint256"
        }
      ],
      "stateMutability": "view",
      "type": "function"
    },
    {
      "inputs": [],
      "name": "renounceOwnership",
      "outputs": [],
      "stateMutability": "nonpayable",
      "type": "function"
    },
    {
      "inputs": [
        {
          "internalType": "address",
          "name": "_rewardToken",
          "type": "address"
        }
      ],
      "name": "rewardAmount",
      "outputs": [
        {
          "internalType": "uint256",
          "name": "",
          "type": "uint256"
        }
      ],
      "stateMutability": "view",
      "type": "function"
    },
    {
      "inputs": [
        {
          "internalType": "uint256",
          "name": "",
          "type": "uint256"
        }
      ],
      "name": "rewards",
      "outputs": [
        {
          "internalType": "address",
          "name": "token",
          "type": "address"
        },
        {
          "internalType": "uint256",
          "name": "amount",
          "type": "uint256"
        },
        {
          "internalType": "uint256",
          "name": "perStakedToken",
          "type": "uint256"
        },
        {
          "internalType": "uint256",
          "name": "recoverable",
          "type": "uint256"
        },
        {
          "internalType": "uint256",
          "name": "claimed",
          "type": "uint256"
        }
      ],
      "stateMutability": "view",
      "type": "function"
    },
    {
      "inputs": [],
      "name": "secondsDuration",
      "outputs": [
        {
          "internalType": "uint64",
          "name": "",
          "type": "uint64"
        }
      ],
      "stateMutability": "view",
      "type": "function"
    },
    {
      "inputs": [],
      "name": "stakableToken",
      "outputs": [
        {
          "internalType": "contract IERC20",
          "name": "",
          "type": "address"
        }
      ],
      "stateMutability": "view",
      "type": "function"
    },
    {
      "inputs": [
        {
          "internalType": "uint256",
          "name": "_amount",
          "type": "uint256"
        }
      ],
      "name": "stake",
      "outputs": [],
      "stateMutability": "nonpayable",
      "type": "function"
    },
    {
      "inputs": [
        {
          "internalType": "address",
          "name": "_staker",
          "type": "address"
        }
      ],
      "name": "stakedTokensOf",
      "outputs": [
        {
          "internalType": "uint256",
          "name": "",
          "type": "uint256"
        }
      ],
      "stateMutability": "view",
      "type": "function"
    },
    {
      "inputs": [],
      "name": "stakingCap",
      "outputs": [
        {
          "internalType": "uint256",
          "name": "",
          "type": "uint256"
        }
      ],
      "stateMutability": "view",
      "type": "function"
    },
    {
      "inputs": [],
      "name": "startingTimestamp",
      "outputs": [
        {
          "internalType": "uint64",
          "name": "",
          "type": "uint64"
        }
      ],
      "stateMutability": "view",
      "type": "function"
    },
    {
      "inputs": [],
      "name": "totalStakedTokensAmount",
      "outputs": [
        {
          "internalType": "uint256",
          "name": "",
          "type": "uint256"
        }
      ],
      "stateMutability": "view",
      "type": "function"
    },
    {
      "inputs": [
        {
          "internalType": "address",
          "name": "_newOwner",
          "type": "address"
        }
      ],
      "name": "transferOwnership",
      "outputs": [],
      "stateMutability": "nonpayable",
      "type": "function"
    },
    {
      "inputs": [
        {
          "internalType": "uint256",
          "name": "_amount",
          "type": "uint256"
        }
      ],
      "name": "withdraw",
      "outputs": [],
      "stateMutability": "nonpayable",
      "type": "function"
    },
    {
      "inputs": [],
      "name": "isUpgraded",
      "outputs": [
        {
          "internalType": "bool",
          "name": "",
          "type": "bool"
        }
      ],
      "stateMutability": "pure",
      "type": "function"
    }
  ],
  "bytecode": "0x608060405234801561001057600080fd5b506128c5806100206000396000f3fe608060405234801561001057600080fd5b50600436106101cf5760003560e01c80638c574b4811610104578063c10de300116100a2578063e644067d11610071578063e644067d14610401578063ea8a1af014610409578063f2fde38b14610411578063f301af421461042457600080fd5b8063c10de300146103ad578063c4f59f9b146103c5578063cf309012146103da578063dc01f60d146103ee57600080fd5b8063ab08d4fc116100de578063ab08d4fc14610348578063b41fa97914610371578063b42652e91461037a578063b9e35db01461038d57600080fd5b80638c574b481461030f5780638da5cb5b14610322578063a694fc3a1461033557600080fd5b80635e5294b7116101715780636715dcb81161014b5780636715dcb8146102d9578063715018a6146102e157806377329f35146102e957806388786272146102fc57600080fd5b80635e5294b71461027a5780635fa35023146102ac578063645a8a56146102c657600080fd5b80632e1a7d4d116101ad5780632e1a7d4d146102365780633b34ee501461024957806342c80fc91461026a57806344c370d31461027157600080fd5b8063158ef93e146101d45780631c96c3fb146101f657806323a26e3614610221575b600080fd5b6006546101e19060ff1681565b60405190151581526020015b60405180910390f35b600254610209906001600160a01b031681565b6040516001600160a01b0390911681526020016101ed565b61023461022f36600461238c565b610469565b005b610234610244366004612537565b610997565b61025c610257366004612372565b610afd565b6040519081526020016101ed565b60016101e1565b61025c60055481565b60045461029490600160401b90046001600160401b031681565b6040516001600160401b0390911681526020016101ed565b60045461029490600160801b90046001600160401b031681565b61025c6102d4366004612372565b610b7d565b610234610bf4565b610234610e94565b6102346102f7366004612372565b610efa565b600454610294906001600160401b031681565b61023461031d36600461244a565b6110aa565b600054610209906001600160a01b031681565b610234610343366004612537565b6112fa565b61025c610356366004612372565b6001600160a01b031660009081526007602052604090205490565b61025c60035481565b610234610388366004612372565b611483565b6103a061039b366004612372565b6114e9565b6040516101ed91906126ab565b6006546102949061010090046001600160401b031681565b6103cd611601565b6040516101ed919061265e565b6004546101e190600160c01b900460ff1681565b6103a06103fc366004612372565b6116f8565b6102346119df565b610234611c0f565b61023461041f366004612372565b611e24565b610437610432366004612537565b611ee7565b604080516001600160a01b0390961686526020860194909452928401919091526060830152608082015260a0016101ed565b60065460ff16156104a95760405162461bcd60e51b81526020600482015260056024820152640a6a48862760db1b60448201526064015b60405180910390fd5b42846001600160401b0316116104e95760405162461bcd60e51b8152602060048201526005602482015264535244303160d81b60448201526064016104a0565b836001600160401b0316836001600160401b0316116105325760405162461bcd60e51b815260206004820152600560248201526429a922181960d91b60448201526064016104a0565b8785146105695760405162461bcd60e51b8152602060048201526005602482015264535244303360d81b60448201526064016104a0565b61057384846127c2565b600460106101000a8154816001600160401b0302191690836001600160401b0316021790555060005b63ffffffff811689111561086c5760008a8a8363ffffffff168181106105d257634e487b7160e01b600052603260045260246000fd5b90506020020160208101906105e79190612372565b9050600088888463ffffffff1681811061061157634e487b7160e01b600052603260045260246000fd5b60200291909101359150506001600160a01b03821661065a5760405162461bcd60e51b815260206004820152600560248201526414d4910c0d60da1b60448201526064016104a0565b600081116106925760405162461bcd60e51b8152602060048201526005602482015264535244303560d81b60448201526064016104a0565b6040516370a0823160e01b8152306004820152829082906001600160a01b038316906370a082319060240160206040518083038186803b1580156106d557600080fd5b505afa1580156106e9573d6000803e3d6000fd5b505050506040513d601f19601f8201168201806040525081019061070d919061254f565b10156107435760405162461bcd60e51b815260206004820152600560248201526429a922181b60d91b60448201526064016104a0565b506040805160a0810182526001600160a01b0393841681526020810192835260009181018281526060820183815260808301848152600180548082018255955292517fb10e2d527612073b26eecdfd717e6a320cf44b4afac2b0732d9fcbe2b7fa0cf6600590950294850180546001600160a01b031916919097161790955592517fb10e2d527612073b26eecdfd717e6a320cf44b4afac2b0732d9fcbe2b7fa0cf783015591517fb10e2d527612073b26eecdfd717e6a320cf44b4afac2b0732d9fcbe2b7fa0cf882015591517fb10e2d527612073b26eecdfd717e6a320cf44b4afac2b0732d9fcbe2b7fa0cf9830155517fb10e2d527612073b26eecdfd717e6a320cf44b4afac2b0732d9fcbe2b7fa0cfa909101558061086481612831565b91505061059c565b506001600160a01b0387166108ab5760405162461bcd60e51b8152602060048201526005602482015264535244303760d81b60448201526064016104a0565b600280546001600160a01b03199081166001600160a01b038a16179091556000805433921691909117905560048054600680546001600160401b038881166fffffffffffffffffffffffffffffffff199094168417600160401b918916919091021760ff60c01b1916600160c01b8715150217909355600584905568ffffffffffffffffff1990921661010090910260ff19161760011790556040517f2c1fa4f0e3f1c67636ee0b3665bf3a04407a2c1332d4e3e99f941ee2b0b9daf490610984908b908b908b908b908b908b908b908b908b906125b7565b60405180910390a1505050505050505050565b60065460ff1680156109b457506004546001600160401b03164210155b6109d05760405162461bcd60e51b81526004016104a090612716565b60008111610a085760405162461bcd60e51b8152602060048201526005602482015264535244313160d81b60448201526064016104a0565b600454600160c01b900460ff1615610a6357600454600160401b90046001600160401b03164211610a635760405162461bcd60e51b815260206004820152600560248201526429a922189960d91b60448201526064016104a0565b610a6b610bf4565b336000908152600760205260408120805490918391839190610a8e9084906127ab565b925050819055508160036000828254610aa791906127ab565b9091555050600254610ac3906001600160a01b03163384611f32565b60405182815233907f7084f5476618d8e60b11ef0d7d3f06914655adb8793e28ff7f018d4c76d505d5906020015b60405180910390a25050565b6000805b600154811015610b7457600060018281548110610b2e57634e487b7160e01b600052603260045260246000fd5b6000918252602090912060059091020180549091506001600160a01b0385811691161415610b6157600301549392505050565b5080610b6c81612816565b915050610b01565b50600092915050565b6000805b600154811015610b7457600060018281548110610bae57634e487b7160e01b600052603260045260246000fd5b6000918252602090912060059091020180549091506001600160a01b0385811691161415610be157600101549392505050565b5080610bec81612816565b915050610b81565b60065460ff168015610c1157506004546001600160401b03164210155b610c2d5760405162461bcd60e51b81526004016104a090612716565b600454600090610c4e904290600160401b90046001600160401b0316611f9a565b600654909150600090610c6f9061010090046001600160401b0316836127c2565b3360009081526007602052604081206001600160401b039290921692505b600154811015610e6757600060018281548110610cba57634e487b7160e01b600052603260045260246000fd5b9060005260206000209060050201905060035460001415610d42576004546001820154600160801b9091046001600160401b031690610cf9908661278c565b610d03919061276c565b816003016000828254610d169190612754565b909155505060006002820181905590546001600160a01b03168152600183016020526040812055610e55565b600454600354610d6291600160801b90046001600160401b03169061278c565b6001820154600160701b90610d77908761278c565b610d81919061278c565b610d8b919061276c565b816002016000828254610d9e9190612754565b9091555050600080826002015411610db7576000610dfd565b81546001600160a01b031660009081526001850160205260409020546002830154600160701b91610de7916127ab565b8554610df3919061278c565b610dfd919061276c565b82546001600160a01b03166000908152600286016020526040812080549293508392909190610e2d908490612754565b909155505050600281015490546001600160a01b031660009081526001840160205260409020555b80610e5f81612816565b915050610c8d565b5050600680546001600160401b039093166101000268ffffffffffffffff00199093169290921790915550565b6000546001600160a01b03163314610ebe5760405162461bcd60e51b81526004016104a090612735565b600080546001600160a01b031916815560405181907f8be0079c531659141344cd1fd0a4f28419497f9722a3daafe3b4186f6b6457e0908290a3565b60065460ff168015610f1757506004546001600160401b03164210155b610f335760405162461bcd60e51b81526004016104a090612716565b610f3b610bf4565b3360009081526007602052604081206001549091906001600160401b03811115610f7557634e487b7160e01b600052604160045260246000fd5b604051908082528060200260200182016040528015610f9e578160200160208202803683370190505b50905060005b60015481101561106357600060018281548110610fd157634e487b7160e01b600052603260045260246000fd5b60009182526020808320600590920290910180546001600160a01b031683526003870182526040808420546002890190935283205490935061101391906127ab565b905061102182868389611fb2565b8084848151811061104257634e487b7160e01b600052603260045260246000fd5b6020026020010181815250505050808061105b90612816565b915050610fa4565b50336001600160a01b03167f28ee566bdecaf975c0979f4d09fecf91a9009ffe78523aef053a678134137b8b8260405161109d91906126ab565b60405180910390a2505050565b60065460ff1680156110c757506004546001600160401b03164210155b6110e35760405162461bcd60e51b81526004016104a090612716565b60015482511461111d5760405162461bcd60e51b815260206004820152600560248201526414d4910c4d60da1b60448201526064016104a0565b611125610bf4565b3360009081526007602052604081206001549091906001600160401b0381111561115f57634e487b7160e01b600052604160045260246000fd5b604051908082528060200260200182016040528015611188578160200160208202803683370190505b50905060005b6001548110156112b2576000600182815481106111bb57634e487b7160e01b600052603260045260246000fd5b60009182526020808320600590920290910180546001600160a01b03168352600387018252604080842054600289019093528320549093506111fd91906127ab565b9050600087848151811061122157634e487b7160e01b600052603260045260246000fd5b60200260200101519050808210156112635760405162461bcd60e51b8152602060048201526005602482015264535244313560d81b60448201526064016104a0565b61126f8387838a611fb2565b8085858151811061129057634e487b7160e01b600052603260045260246000fd5b60200260200101818152505050505080806112aa90612816565b91505061118e565b50336001600160a01b03167f28ee566bdecaf975c0979f4d09fecf91a9009ffe78523aef053a678134137b8b826040516112ec91906126ab565b60405180910390a250505050565b60065460ff16801561131757506004546001600160401b03164210155b80156113355750600454600160401b90046001600160401b03164211155b6113695760405162461bcd60e51b8152602060048201526005602482015264535244323160d81b60448201526064016104a0565b600081116113a15760405162461bcd60e51b8152602060048201526005602482015264535244303960d81b60448201526064016104a0565b600554156113f057600554816003546113ba9190612754565b11156113f05760405162461bcd60e51b8152602060048201526005602482015264053524431360dc1b60448201526064016104a0565b6113f8610bf4565b33600090815260076020526040812080549091839183919061141b908490612754565b9250508190555081600360008282546114349190612754565b9091555050600254611451906001600160a01b0316333085612019565b60405182815233907f9e71bc8eea02a63969f509818f2dafb9254532904319f9dbda79b67bd34a5f3d90602001610af1565b60065460ff1680156114a057506004546001600160401b03164210155b6114bc5760405162461bcd60e51b81526004016104a090612716565b6114c4610bf4565b6114cd81610efa565b336000908152600760205260409020546114e690610997565b50565b6001600160a01b0381166000908152600760205260408120600154606092906001600160401b0381111561152d57634e487b7160e01b600052604160045260246000fd5b604051908082528060200260200182016040528015611556578160200160208202803683370190505b50905060005b6001548110156115f95760006001828154811061158957634e487b7160e01b600052603260045260246000fd5b60009182526020808320600590920290910180546001600160a01b03168352600387019091526040909120548451919250908490849081106115db57634e487b7160e01b600052603260045260246000fd5b602090810291909101015250806115f181612816565b91505061155c565b509392505050565b6001546060906000906001600160401b0381111561162f57634e487b7160e01b600052604160045260246000fd5b604051908082528060200260200182016040528015611658578160200160208202803683370190505b50905060005b6001548110156116f2576001818154811061168957634e487b7160e01b600052603260045260246000fd5b600091825260209091206005909102015482516001600160a01b03909116908390839081106116c857634e487b7160e01b600052603260045260246000fd5b6001600160a01b0390921660209283029190910190910152806116ea81612816565b91505061165e565b50919050565b6001546060906000906001600160401b0381111561172657634e487b7160e01b600052604160045260246000fd5b60405190808252806020026020018201604052801561174f578160200160208202803683370190505b5060065490915060ff16158061176f57506004546001600160401b031642105b156117c75760005b6001548110156117c05760008282815181106117a357634e487b7160e01b600052603260045260246000fd5b6020908102919091010152806117b881612816565b915050611777565b5092915050565b6001600160a01b0383166000908152600760205260408120600454909190611800904290600160401b90046001600160401b0316611f9a565b6006549091506000906118219061010090046001600160401b0316836127c2565b6001600160401b0316905060005b6001548110156119d45760006001828154811061185c57634e487b7160e01b600052603260045260246000fd5b6000918252602080832060026005909302018281015481546001600160a01b0316855260038a018352604080862054948b019093529190932054929350916118a491906127ab565b8784815181106118c457634e487b7160e01b600052603260045260246000fd5b60209081029190910101526003546118dd5750506119c2565b6004546003546118fd91600160801b90046001600160401b03169061278c565b6001830154600160701b90611912908761278c565b61191c919061278c565b611926919061276c565b6119309082612754565b90506000808211611942576000611984565b82546001600160a01b03166000908152600188016020526040902054600160701b9061196e90846127ab565b885461197a919061278c565b611984919061276c565b9050808885815181106119a757634e487b7160e01b600052603260045260246000fd5b602002602001018181516119bb9190612754565b9052505050505b806119cc81612816565b91505061182f565b509295945050505050565b60065460ff1680156119fc57506004546001600160401b03164210155b611a185760405162461bcd60e51b81526004016104a090612716565b611a20610bf4565b6001546000906001600160401b03811115611a4b57634e487b7160e01b600052604160045260246000fd5b604051908082528060200260200182016040528015611a74578160200160208202803683370190505b50905060005b600154811015611bd457600060018281548110611aa757634e487b7160e01b600052603260045260246000fd5b906000526020600020906005020190508060030154816004016000828254611acf9190612754565b909155505060006003820181905560048201546001830154611af191906127ab565b82546040516370a0823160e01b81523060048201526001600160a01b03909116906370a082319060240160206040518083038186803b158015611b3357600080fd5b505afa158015611b47573d6000803e3d6000fd5b505050506040513d601f19601f82011682018060405250810190611b6b919061254f565b611b7591906127ab565b905080848481518110611b9857634e487b7160e01b600052603260045260246000fd5b60209081029190910101526000548254611bbf916001600160a01b03918216911683611f32565b50508080611bcc90612816565b915050611a7a565b507ff904fafa600a7e4e8039f3a5497d1b6016772e3060f87d3e40f911b315f00bd181604051611c0491906126ab565b60405180910390a150565b6000546001600160a01b03163314611c395760405162461bcd60e51b81526004016104a090612735565b60065460ff16611c735760405162461bcd60e51b8152602060048201526005602482015264535244313960d81b60448201526064016104a0565b6004546001600160401b03164210611cb55760405162461bcd60e51b81526020600482015260056024820152640a6a48860760db1b60448201526064016104a0565b60005b600154811015611da857600060018281548110611ce557634e487b7160e01b600052603260045260246000fd5b6000918252602082206005919091020160018101829055905481546040516370a0823160e01b8152306004820152929350611d95926001600160a01b0392831692909116906370a082319060240160206040518083038186803b158015611d4b57600080fd5b505afa158015611d5f573d6000803e3d6000fd5b505050506040513d601f19601f82011682018060405250810190611d83919061254f565b83546001600160a01b03169190611f32565b5080611da081612816565b915050611cb8565b50611db56001600061229b565b600280546001600160a01b0319169055600480546006805468ffffffffffffffffff1916905578ff0000000000000000ffffffffffffffffffffffffffffffff191690556040517f1afb0ae590df277bcb3a37f88612725bf1f7df4755792b1548a7efe77985ff7790600090a1565b6000546001600160a01b03163314611e4e5760405162461bcd60e51b81526004016104a090612735565b6001600160a01b038116611e8c5760405162461bcd60e51b815260206004820152600560248201526429a922189b60d91b60448201526064016104a0565b600080546040516001600160a01b03808516939216917f8be0079c531659141344cd1fd0a4f28419497f9722a3daafe3b4186f6b6457e091a3600080546001600160a01b0319166001600160a01b0392909216919091179055565b60018181548110611ef757600080fd5b6000918252602090912060059091020180546001820154600283015460038401546004909401546001600160a01b0390931694509092909185565b6040516001600160a01b038316602482015260448101829052611f9590849063a9059cbb60e01b906064015b60408051601f198184030181529190526020810180516001600160e01b03166001600160e01b031990931692909217909152612051565b505050565b6000818310611fa95781611fab565b825b9392505050565b83546001600160a01b0316600090815260038401602052604081208054849290611fdd908490612754565b9250508190555081846004016000828254611ff89190612754565b90915550508354612013906001600160a01b03168284611f32565b50505050565b6040516001600160a01b03808516602483015283166044820152606481018290526120139085906323b872dd60e01b90608401611f5e565b60006120a6826040518060400160405280602081526020017f5361666545524332303a206c6f772d6c6576656c2063616c6c206661696c6564815250856001600160a01b03166121239092919063ffffffff16565b805190915015611f9557808060200190518101906120c4919061251b565b611f955760405162461bcd60e51b815260206004820152602a60248201527f5361666545524332303a204552433230206f7065726174696f6e20646964206e6044820152691bdd081cdd58d8d9595960b21b60648201526084016104a0565b6060612132848460008561213a565b949350505050565b60608247101561219b5760405162461bcd60e51b815260206004820152602660248201527f416464726573733a20696e73756666696369656e742062616c616e636520666f6044820152651c8818d85b1b60d21b60648201526084016104a0565b843b6121e95760405162461bcd60e51b815260206004820152601d60248201527f416464726573733a2063616c6c20746f206e6f6e2d636f6e747261637400000060448201526064016104a0565b600080866001600160a01b03168587604051612205919061259b565b60006040518083038185875af1925050503d8060008114612242576040519150601f19603f3d011682016040523d82523d6000602084013e612247565b606091505b5091509150612257828286612262565b979650505050505050565b60608315612271575081611fab565b8251156122815782518084602001fd5b8160405162461bcd60e51b81526004016104a091906126e3565b50805460008255600502906000526020600020908101906114e691905b808211156122f25780546001600160a01b0319168155600060018201819055600282018190556003820181905560048201556005016122b8565b5090565b80356001600160a01b038116811461230d57600080fd5b919050565b60008083601f840112612323578081fd5b5081356001600160401b03811115612339578182fd5b6020830191508360208260051b850101111561235457600080fd5b9250929050565b80356001600160401b038116811461230d57600080fd5b600060208284031215612383578081fd5b611fab826122f6565b600080600080600080600080600060e08a8c0312156123a9578485fd5b89356001600160401b03808211156123bf578687fd5b6123cb8d838e01612312565b909b5099508991506123df60208d016122f6565b985060408c01359150808211156123f4578687fd5b506124018c828d01612312565b9097509550612414905060608b0161235b565b935061242260808b0161235b565b925060a08a013561243281612881565b8092505060c08a013590509295985092959850929598565b6000806040838503121561245c578182fd5b82356001600160401b0380821115612472578384fd5b818501915085601f830112612485578384fd5b81356020828211156124995761249961286b565b8160051b604051601f19603f830116810181811086821117156124be576124be61286b565b604052838152828101945085830182870184018b10156124dc578889fd5b8896505b848710156124fe5780358652600196909601959483019483016124e0565b50965061250e90508782016122f6565b9450505050509250929050565b60006020828403121561252c578081fd5b8151611fab81612881565b600060208284031215612548578081fd5b5035919050565b600060208284031215612560578081fd5b5051919050565b81835260006001600160fb1b0383111561257f578081fd5b8260051b80836020870137939093016020019283525090919050565b600082516125ad8184602087016127ea565b9190910192915050565b60e0808252810189905260008a6101008301825b8c8110156125f9576001600160a01b036125e4846122f6565b168252602092830192909101906001016125cb565b506001600160a01b038b166020850152838103604085015261261c818a8c612567565b9250505061263560608301876001600160401b03169052565b6001600160401b0394909416608082015291151560a083015260c0909101529695505050505050565b6020808252825182820181905260009190848201906040850190845b8181101561269f5783516001600160a01b03168352928401929184019160010161267a565b50909695505050505050565b6020808252825182820181905260009190848201906040850190845b8181101561269f578351835292840192918401916001016126c7565b60208152600082518060208401526127028160408501602087016127ea565b601f01601f19169190910160400192915050565b602080825260059082015264053524432360dc1b604082015260600190565b602080825260059082015264535244313760d81b604082015260600190565b6000821982111561276757612767612855565b500190565b60008261278757634e487b7160e01b81526012600452602481fd5b500490565b60008160001904831182151516156127a6576127a6612855565b500290565b6000828210156127bd576127bd612855565b500390565b60006001600160401b03838116908316818110156127e2576127e2612855565b039392505050565b60005b838110156128055781810151838201526020016127ed565b838111156120135750506000910152565b600060001982141561282a5761282a612855565b5060010190565b600063ffffffff8083168181141561284b5761284b612855565b6001019392505050565b634e487b7160e01b600052601160045260246000fd5b634e487b7160e01b600052604160045260246000fd5b80151581146114e657600080fdfea2646970667358221220c080113e5aa7163d07592d8a28270980b13521caa7ed77adf37dcef5d525b66e64736f6c63430008040033",
  "immutableReferences": {},
  "source": "//SPDX-License-Identifier: GPL-3.0\n\npragma solidity ^0.8.0;\n\nimport \"@openzeppelin/contracts/token/ERC20/presets/ERC20PresetMinterPauser.sol\";\nimport \"../ERC20StakingRewardsDistribution.sol\";\n\ncontract FirstRewardERC20 is ERC20PresetMinterPauser {\n    constructor() ERC20PresetMinterPauser(\"First reward\", \"RWD1\") {}\n}\n\ncontract SecondRewardERC20 is ERC20PresetMinterPauser {\n    constructor() ERC20PresetMinterPauser(\"Second reward\", \"RWD2\") {}\n}\n\ncontract FirstStakableERC20 is ERC20PresetMinterPauser {\n    constructor() ERC20PresetMinterPauser(\"First stakable\", \"STK1\") {}\n}\n\ncontract SecondStakableERC20 is ERC20PresetMinterPauser {\n    constructor() ERC20PresetMinterPauser(\"Second stakable\", \"STK2\") {}\n}\n\ncontract UpgradedERC20StakingRewardsDistribution is\n    ERC20StakingRewardsDistribution\n{\n    function isUpgraded() external pure returns (bool) {\n        return true;\n    }\n}\n",
  "sourcePath": "/home/luzzif/Projects/swapr-lp-staker/contracts/test/TestDependencies.sol",
  "compiler": {
    "name": "solc",
    "version": "0.8.4+commit.c7e474f2.Emscripten.clang"
  },
  "schemaVersion": "3.3.3",
  "updatedAt": "2021-05-05T11:03:20.092Z",
  "devdoc": {
    "kind": "dev",
    "methods": {},
    "version": 1
  },
  "userdoc": {
    "kind": "user",
    "methods": {},
    "version": 1
  }
}