{
  "contractName": "UpgradedERC20StakingRewardsDistribution",
  "abi": [
    {
      "anonymous": false,
      "inputs": [],
      "name": "Canceled",
      "type": "event"
    },
    {
      "anonymous": false,
      "inputs": [
        {
          "indexed": true,
          "internalType": "address",
          "name": "claimer",
          "type": "address"
        },
        {
          "indexed": false,
          "internalType": "uint256[]",
          "name": "amounts",
          "type": "uint256[]"
        }
      ],
      "name": "Claimed",
      "type": "event"
    },
    {
      "anonymous": false,
      "inputs": [
        {
          "indexed": false,
          "internalType": "address[]",
          "name": "rewardsTokenAddresses",
          "type": "address[]"
        },
        {
          "indexed": false,
          "internalType": "address",
          "name": "stakableTokenAddress",
          "type": "address"
        },
        {
          "indexed": false,
          "internalType": "uint256[]",
          "name": "rewardsAmounts",
          "type": "uint256[]"
        },
        {
          "indexed": false,
          "internalType": "uint64",
          "name": "startingTimestamp",
          "type": "uint64"
        },
        {
          "indexed": false,
          "internalType": "uint64",
          "name": "endingTimestamp",
          "type": "uint64"
        },
        {
          "indexed": false,
          "internalType": "bool",
          "name": "locked",
          "type": "bool"
        },
        {
          "indexed": false,
          "internalType": "uint256",
          "name": "stakingCap",
          "type": "uint256"
        }
      ],
      "name": "Initialized",
      "type": "event"
    },
    {
      "anonymous": false,
      "inputs": [
        {
          "indexed": true,
          "internalType": "address",
          "name": "previousOwner",
          "type": "address"
        },
        {
          "indexed": true,
          "internalType": "address",
          "name": "newOwner",
          "type": "address"
        }
      ],
      "name": "OwnershipTransferred",
      "type": "event"
    },
    {
      "anonymous": false,
      "inputs": [
        {
          "indexed": false,
          "internalType": "uint256[]",
          "name": "amounts",
          "type": "uint256[]"
        }
      ],
      "name": "Recovered",
      "type": "event"
    },
    {
      "anonymous": false,
      "inputs": [
        {
          "indexed": true,
          "internalType": "address",
          "name": "staker",
          "type": "address"
        },
        {
          "indexed": false,
          "internalType": "uint256",
          "name": "amount",
          "type": "uint256"
        }
      ],
      "name": "Staked",
      "type": "event"
    },
    {
      "anonymous": false,
      "inputs": [
        {
          "indexed": true,
          "internalType": "address",
          "name": "withdrawer",
          "type": "address"
        },
        {
          "indexed": false,
          "internalType": "uint256",
          "name": "amount",
          "type": "uint256"
        }
      ],
      "name": "Withdrawn",
      "type": "event"
    },
    {
      "inputs": [],
      "name": "cancel",
      "outputs": [],
      "stateMutability": "nonpayable",
      "type": "function"
    },
    {
      "inputs": [],
      "name": "canceled",
      "outputs": [
        {
          "internalType": "bool",
          "name": "",
          "type": "bool"
        }
      ],
      "stateMutability": "view",
      "type": "function"
    },
    {
      "inputs": [
        {
          "internalType": "uint256[]",
          "name": "_amounts",
          "type": "uint256[]"
        },
        {
          "internalType": "address",
          "name": "_recipient",
          "type": "address"
        }
      ],
      "name": "claim",
      "outputs": [],
      "stateMutability": "nonpayable",
      "type": "function"
    },
    {
      "inputs": [
        {
          "internalType": "address",
          "name": "_recipient",
          "type": "address"
        }
      ],
      "name": "claimAll",
      "outputs": [],
      "stateMutability": "nonpayable",
      "type": "function"
    },
    {
      "inputs": [
        {
          "internalType": "address",
          "name": "_account",
          "type": "address"
        }
      ],
      "name": "claimableRewards",
      "outputs": [
        {
          "internalType": "uint256[]",
          "name": "",
          "type": "uint256[]"
        }
      ],
      "stateMutability": "view",
      "type": "function"
    },
    {
      "inputs": [],
      "name": "consolidateReward",
      "outputs": [],
      "stateMutability": "nonpayable",
      "type": "function"
    },
    {
      "inputs": [],
      "name": "endingTimestamp",
      "outputs": [
        {
          "internalType": "uint64",
          "name": "",
          "type": "uint64"
        }
      ],
      "stateMutability": "view",
      "type": "function"
    },
    {
      "inputs": [
        {
          "internalType": "address",
          "name": "_recipient",
          "type": "address"
        }
      ],
      "name": "exit",
      "outputs": [],
      "stateMutability": "nonpayable",
      "type": "function"
    },
    {
      "inputs": [
        {
          "internalType": "address",
          "name": "_claimer",
          "type": "address"
        }
      ],
      "name": "getClaimedRewards",
      "outputs": [
        {
          "internalType": "uint256[]",
          "name": "",
          "type": "uint256[]"
        }
      ],
      "stateMutability": "view",
      "type": "function"
    },
    {
      "inputs": [],
      "name": "getRewardTokens",
      "outputs": [
        {
          "internalType": "address[]",
          "name": "",
          "type": "address[]"
        }
      ],
      "stateMutability": "view",
      "type": "function"
    },
    {
      "inputs": [
        {
          "internalType": "address[]",
          "name": "_rewardTokenAddresses",
          "type": "address[]"
        },
        {
          "internalType": "address",
          "name": "_stakableTokenAddress",
          "type": "address"
        },
        {
          "internalType": "uint256[]",
          "name": "_rewardAmounts",
          "type": "uint256[]"
        },
        {
          "internalType": "uint64",
          "name": "_startingTimestamp",
          "type": "uint64"
        },
        {
          "internalType": "uint64",
          "name": "_endingTimestamp",
          "type": "uint64"
        },
        {
          "internalType": "bool",
          "name": "_locked",
          "type": "bool"
        },
        {
          "internalType": "uint256",
          "name": "_stakingCap",
          "type": "uint256"
        }
      ],
      "name": "initialize",
      "outputs": [],
      "stateMutability": "nonpayable",
      "type": "function"
    },
    {
      "inputs": [],
      "name": "initialized",
      "outputs": [
        {
          "internalType": "bool",
          "name": "",
          "type": "bool"
        }
      ],
      "stateMutability": "view",
      "type": "function"
    },
    {
      "inputs": [],
      "name": "lastConsolidationTimestamp",
      "outputs": [
        {
          "internalType": "uint64",
          "name": "",
          "type": "uint64"
        }
      ],
      "stateMutability": "view",
      "type": "function"
    },
    {
      "inputs": [],
      "name": "locked",
      "outputs": [
        {
          "internalType": "bool",
          "name": "",
          "type": "bool"
        }
      ],
      "stateMutability": "view",
      "type": "function"
    },
    {
      "inputs": [],
      "name": "owner",
      "outputs": [
        {
          "internalType": "address",
          "name": "",
          "type": "address"
        }
      ],
      "stateMutability": "view",
      "type": "function"
    },
    {
      "inputs": [],
      "name": "recoverUnassignedRewards",
      "outputs": [],
      "stateMutability": "nonpayable",
      "type": "function"
    },
    {
      "inputs": [
        {
          "internalType": "address",
          "name": "_rewardToken",
          "type": "address"
        }
      ],
      "name": "recoverableUnassignedReward",
      "outputs": [
        {
          "internalType": "uint256",
          "name": "",
          "type": "uint256"
        }
      ],
      "stateMutability": "view",
      "type": "function"
    },
    {
      "inputs": [],
      "name": "renounceOwnership",
      "outputs": [],
      "stateMutability": "nonpayable",
      "type": "function"
    },
    {
      "inputs": [
        {
          "internalType": "address",
          "name": "_rewardToken",
          "type": "address"
        }
      ],
      "name": "rewardAmount",
      "outputs": [
        {
          "internalType": "uint256",
          "name": "",
          "type": "uint256"
        }
      ],
      "stateMutability": "view",
      "type": "function"
    },
    {
      "inputs": [
        {
          "internalType": "uint256",
          "name": "",
          "type": "uint256"
        }
      ],
      "name": "rewards",
      "outputs": [
        {
          "internalType": "address",
          "name": "token",
          "type": "address"
        },
        {
          "internalType": "uint256",
          "name": "amount",
          "type": "uint256"
        },
        {
          "internalType": "uint256",
          "name": "perStakedToken",
          "type": "uint256"
        },
        {
          "internalType": "uint256",
          "name": "recoverableSeconds",
          "type": "uint256"
        },
        {
          "internalType": "uint256",
          "name": "claimed",
          "type": "uint256"
        }
      ],
      "stateMutability": "view",
      "type": "function"
    },
    {
      "inputs": [],
      "name": "secondsDuration",
      "outputs": [
        {
          "internalType": "uint64",
          "name": "",
          "type": "uint64"
        }
      ],
      "stateMutability": "view",
      "type": "function"
    },
    {
      "inputs": [],
      "name": "stakableToken",
      "outputs": [
        {
          "internalType": "contract IERC20",
          "name": "",
          "type": "address"
        }
      ],
      "stateMutability": "view",
      "type": "function"
    },
    {
      "inputs": [
        {
          "internalType": "uint256",
          "name": "_amount",
          "type": "uint256"
        }
      ],
      "name": "stake",
      "outputs": [],
      "stateMutability": "nonpayable",
      "type": "function"
    },
    {
      "inputs": [
        {
          "internalType": "address",
          "name": "_staker",
          "type": "address"
        }
      ],
      "name": "stakedTokensOf",
      "outputs": [
        {
          "internalType": "uint256",
          "name": "",
          "type": "uint256"
        }
      ],
      "stateMutability": "view",
      "type": "function"
    },
    {
      "inputs": [],
      "name": "stakingCap",
      "outputs": [
        {
          "internalType": "uint256",
          "name": "",
          "type": "uint256"
        }
      ],
      "stateMutability": "view",
      "type": "function"
    },
    {
      "inputs": [],
      "name": "startingTimestamp",
      "outputs": [
        {
          "internalType": "uint64",
          "name": "",
          "type": "uint64"
        }
      ],
      "stateMutability": "view",
      "type": "function"
    },
    {
      "inputs": [],
      "name": "totalStakedTokensAmount",
      "outputs": [
        {
          "internalType": "uint256",
          "name": "",
          "type": "uint256"
        }
      ],
      "stateMutability": "view",
      "type": "function"
    },
    {
      "inputs": [
        {
          "internalType": "address",
          "name": "_newOwner",
          "type": "address"
        }
      ],
      "name": "transferOwnership",
      "outputs": [],
      "stateMutability": "nonpayable",
      "type": "function"
    },
    {
      "inputs": [
        {
          "internalType": "uint256",
          "name": "_amount",
          "type": "uint256"
        }
      ],
      "name": "withdraw",
      "outputs": [],
      "stateMutability": "nonpayable",
      "type": "function"
    },
    {
      "inputs": [],
      "name": "isUpgraded",
      "outputs": [
        {
          "internalType": "bool",
          "name": "",
          "type": "bool"
        }
      ],
      "stateMutability": "pure",
      "type": "function"
    }
  ],
  "bytecode": "0x608060405234801561001057600080fd5b506128cd806100206000396000f3fe608060405234801561001057600080fd5b50600436106101da5760003560e01c80638c574b4811610104578063c10de300116100a2578063e644067d11610071578063e644067d14610429578063ea8a1af014610431578063f2fde38b14610439578063f301af421461044c57600080fd5b8063c10de300146103d3578063c4f59f9b146103ed578063cf30901214610402578063dc01f60d1461041657600080fd5b8063ab08d4fc116100de578063ab08d4fc1461036e578063b41fa97914610397578063b42652e9146103a0578063b9e35db0146103b357600080fd5b80638c574b48146103355780638da5cb5b14610348578063a694fc3a1461035b57600080fd5b806344c370d31161017c5780636715dcb81161014b5780636715dcb8146102ff578063715018a61461030757806377329f351461030f578063887862721461032257600080fd5b806344c370d3146102975780635e5294b7146102a05780635fa35023146102d2578063645a8a56146102ec57600080fd5b80632e1a7d4d116101b85780632e1a7d4d146102485780633b34ee501461025b5780633f9942ff1461027c57806342c80fc91461029057600080fd5b8063158ef93e146101df5780631c96c3fb1461020857806323a26e3614610233575b600080fd5b6004546101f390600160b01b900460ff1681565b60405190151581526020015b60405180910390f35b60035461021b906001600160a01b031681565b6040516001600160a01b0390911681526020016101ff565b610246610241366004612394565b610491565b005b61024661025636600461253f565b6109c7565b61026e61026936600461237a565b610b83565b6040519081526020016101ff565b6004546101f390600160a81b900460ff1681565b60016101f3565b61026e60065481565b6002546102ba90600160401b90046001600160401b031681565b6040516001600160401b0390911681526020016101ff565b6002546102ba90600160801b90046001600160401b031681565b61026e6102fa36600461237a565b610c32565b610246610ca8565b610246610ed2565b61024661031d36600461237a565b610f3b565b6002546102ba906001600160401b031681565b610246610343366004612452565b611107565b60045461021b906001600160a01b031681565b61024661036936600461253f565b611373565b61026e61037c36600461237a565b6001600160a01b031660009081526001602052604090205490565b61026e60055481565b6102466103ae36600461237a565b611519565b6103c66103c136600461237a565b611594565b6040516101ff91906126b3565b6002546102ba90600160c01b90046001600160401b031681565b6103f56116ad565b6040516101ff9190612666565b6004546101f390600160a01b900460ff1681565b6103c661042436600461237a565b6117a3565b610246611a3b565b610246611cfe565b61024661044736600461237a565b611ef0565b61045f61045a36600461253f565b611fb4565b604080516001600160a01b0390961686526020860194909452928401919091526060830152608082015260a0016101ff565b600454600160b01b900460ff16156104d85760405162461bcd60e51b81526020600482015260056024820152640a6a48862760db1b60448201526064015b60405180910390fd5b42846001600160401b0316116105185760405162461bcd60e51b8152602060048201526005602482015264535244303160d81b60448201526064016104cf565b836001600160401b0316836001600160401b0316116105615760405162461bcd60e51b815260206004820152600560248201526429a922181960d91b60448201526064016104cf565b8785146105985760405162461bcd60e51b8152602060048201526005602482015264535244303360d81b60448201526064016104cf565b6105a284846127ca565b600260106101000a8154816001600160401b0302191690836001600160401b0316021790555060005b63ffffffff811689111561089b5760008a8a8363ffffffff1681811061060157634e487b7160e01b600052603260045260246000fd5b9050602002016020810190610616919061237a565b9050600088888463ffffffff1681811061064057634e487b7160e01b600052603260045260246000fd5b60200291909101359150506001600160a01b0382166106895760405162461bcd60e51b815260206004820152600560248201526414d4910c0d60da1b60448201526064016104cf565b600081116106c15760405162461bcd60e51b8152602060048201526005602482015264535244303560d81b60448201526064016104cf565b6040516370a0823160e01b8152306004820152829082906001600160a01b038316906370a082319060240160206040518083038186803b15801561070457600080fd5b505afa158015610718573d6000803e3d6000fd5b505050506040513d601f19601f8201168201806040525081019061073c9190612557565b10156107725760405162461bcd60e51b815260206004820152600560248201526429a922181b60d91b60448201526064016104cf565b506040805160a0810182526001600160a01b0393841681526020810192835260009181018281526060820183815260808301848152845460018101865594805292517f290decd9548b62a8d60345a988386fc84ba6bc95484008f6362f93160ef3e563600590950294850180546001600160a01b031916919097161790955592517f290decd9548b62a8d60345a988386fc84ba6bc95484008f6362f93160ef3e56483015591517f290decd9548b62a8d60345a988386fc84ba6bc95484008f6362f93160ef3e56582015591517f290decd9548b62a8d60345a988386fc84ba6bc95484008f6362f93160ef3e566830155517f290decd9548b62a8d60345a988386fc84ba6bc95484008f6362f93160ef3e567909101558061089381612839565b9150506105cb565b506001600160a01b0387166108da5760405162461bcd60e51b8152602060048201526005602482015264535244303760d81b60448201526064016104cf565b600380546001600160a01b0319166001600160a01b03891617905560048054600280546fffffffffffffffffffffffffffffffff19166001600160401b03888116918217600160401b91891691909102176001600160c01b0316600160c01b919091021790556006839055600160b01b6001600160a81b03199091163360ff60a01b191617600160a01b851515021761ffff60a81b19161790556040517f2c1fa4f0e3f1c67636ee0b3665bf3a04407a2c1332d4e3e99f941ee2b0b9daf4906109b4908b908b908b908b908b908b908b908b908b906125bf565b60405180910390a1505050505050505050565b600454600160b01b900460ff1680156109ea5750600454600160a81b900460ff16155b8015610a0157506002546001600160401b03164210155b610a1d5760405162461bcd60e51b81526004016104cf9061271e565b60008111610a555760405162461bcd60e51b8152602060048201526005602482015264535244313160d81b60448201526064016104cf565b600454600160a01b900460ff1615610ab057600254600160401b90046001600160401b03164211610ab05760405162461bcd60e51b815260206004820152600560248201526429a922189960d91b60448201526064016104cf565b610ab8610ca8565b3360009081526001602052604090208054821115610b005760405162461bcd60e51b8152602060048201526005602482015264535244313360d81b60448201526064016104cf565b81816000016000828254610b1491906127b3565b925050819055508160056000828254610b2d91906127b3565b9091555050600354610b49906001600160a01b03163384611fff565b60405182815233907f7084f5476618d8e60b11ef0d7d3f06914655adb8793e28ff7f018d4c76d505d5906020015b60405180910390a25050565b6000805b600054811015610c29576000808281548110610bb357634e487b7160e01b600052603260045260246000fd5b6000918252602090912060059091020180549091506001600160a01b0385811691161415610c165760025460018201546003830154600160801b9092046001600160401b031691610c049190612794565b610c0e9190612774565b949350505050565b5080610c218161281e565b915050610b87565b50600092915050565b6000805b600054811015610c29576000808281548110610c6257634e487b7160e01b600052603260045260246000fd5b6000918252602090912060059091020180549091506001600160a01b0385811691161415610c9557600101549392505050565b5080610ca08161281e565b915050610c36565b600454600160b01b900460ff168015610ccb5750600454600160a81b900460ff16155b8015610ce257506002546001600160401b03164210155b610cfe5760405162461bcd60e51b81526004016104cf9061271e565b600254600090610d1f904290600160401b90046001600160401b0316612067565b600254909150600090610d4290600160c01b90046001600160401b0316836127ca565b3360009081526001602052604081206001600160401b039290921692505b600054811015610ea6576000808281548110610d8c57634e487b7160e01b600052603260045260246000fd5b6000918252602080832060059283020180546001600160a01b03168452600187019091526040909220905491925090610dde5784826003016000828254610dd3919061275c565b90915550610e409050565b600254600554610dfe91600160801b90046001600160401b031690612794565b6001830154600160701b90610e139088612794565b610e1d9190612794565b610e279190612774565b826002016000828254610e3a919061275c565b90915550505b80546002830154600091600160701b91610e5a91906127b3565b8654610e669190612794565b610e709190612774565b905080826001016000828254610e86919061275c565b909155505050600290910154905580610e9e8161281e565b915050610d60565b5050600280546001600160401b03909316600160c01b026001600160c01b039093169290921790915550565b6004546001600160a01b03163314610efc5760405162461bcd60e51b81526004016104cf9061273d565b600480546001600160a01b031916905560405160009081907f8be0079c531659141344cd1fd0a4f28419497f9722a3daafe3b4186f6b6457e0908290a3565b600454600160b01b900460ff168015610f5e5750600454600160a81b900460ff16155b8015610f7557506002546001600160401b03164210155b610f915760405162461bcd60e51b81526004016104cf9061271e565b610f99610ca8565b33600090815260016020526040812081549091906001600160401b03811115610fd257634e487b7160e01b600052604160045260246000fd5b604051908082528060200260200182016040528015610ffb578160200160208202803683370190505b50905060005b6000548110156110c057600080828154811061102d57634e487b7160e01b600052603260045260246000fd5b60009182526020808320600590920290910180546001600160a01b03168352600180880190925260408320600281015492810154919450929161106f916127b3565b905061107d8387838a61207f565b8085858151811061109e57634e487b7160e01b600052603260045260246000fd5b60200260200101818152505050505080806110b89061281e565b915050611001565b50336001600160a01b03167f28ee566bdecaf975c0979f4d09fecf91a9009ffe78523aef053a678134137b8b826040516110fa91906126b3565b60405180910390a2505050565b600454600160b01b900460ff16801561112a5750600454600160a81b900460ff16155b801561114157506002546001600160401b03164210155b61115d5760405162461bcd60e51b81526004016104cf9061271e565b6000548251146111975760405162461bcd60e51b815260206004820152600560248201526414d4910c4d60da1b60448201526064016104cf565b61119f610ca8565b33600090815260016020526040812081549091906001600160401b038111156111d857634e487b7160e01b600052604160045260246000fd5b604051908082528060200260200182016040528015611201578160200160208202803683370190505b50905060005b60005481101561132b57600080828154811061123357634e487b7160e01b600052603260045260246000fd5b60009182526020808320600590920290910180546001600160a01b031683526001808801909252604083206002810154928101549194509291611275916127b3565b9050600088858151811061129957634e487b7160e01b600052603260045260246000fd5b60200260200101519050808210156112db5760405162461bcd60e51b8152602060048201526005602482015264535244313560d81b60448201526064016104cf565b6112e78488838b61207f565b8086868151811061130857634e487b7160e01b600052603260045260246000fd5b6020026020010181815250505050505080806113239061281e565b915050611207565b50336001600160a01b03167f28ee566bdecaf975c0979f4d09fecf91a9009ffe78523aef053a678134137b8b8260405161136591906126b3565b60405180910390a250505050565b600454600160b01b900460ff1680156113965750600454600160a81b900460ff16155b80156113ad57506002546001600160401b03164210155b80156113cb5750600254600160401b90046001600160401b03164211155b6113ff5760405162461bcd60e51b8152602060048201526005602482015264535244323160d81b60448201526064016104cf565b600081116114375760405162461bcd60e51b8152602060048201526005602482015264535244303960d81b60448201526064016104cf565b600654156114865760065481600554611450919061275c565b11156114865760405162461bcd60e51b8152602060048201526005602482015264053524431360dc1b60448201526064016104cf565b61148e610ca8565b3360009081526001602052604081208054909183918391906114b190849061275c565b9250508190555081600560008282546114ca919061275c565b90915550506003546114e7906001600160a01b03163330856120e9565b60405182815233907f9e71bc8eea02a63969f509818f2dafb9254532904319f9dbda79b67bd34a5f3d90602001610b77565b600454600160b01b900460ff16801561153c5750600454600160a81b900460ff16155b801561155357506002546001600160401b03164210155b61156f5760405162461bcd60e51b81526004016104cf9061271e565b61157881610f3b565b33600090815260016020526040902054611591906109c7565b50565b6001600160a01b03811660009081526001602052604081208154606092906001600160401b038111156115d757634e487b7160e01b600052604160045260246000fd5b604051908082528060200260200182016040528015611600578160200160208202803683370190505b50905060005b6000548110156116a557600080828154811061163257634e487b7160e01b600052603260045260246000fd5b60009182526020808320600590920290910180546001600160a01b031683526001870190915260409091206002015484519192509084908490811061168757634e487b7160e01b600052603260045260246000fd5b6020908102919091010152508061169d8161281e565b915050611606565b509392505050565b60008054606091906001600160401b038111156116da57634e487b7160e01b600052604160045260246000fd5b604051908082528060200260200182016040528015611703578160200160208202803683370190505b50905060005b60005481101561179d576000818154811061173457634e487b7160e01b600052603260045260246000fd5b600091825260209091206005909102015482516001600160a01b039091169083908390811061177357634e487b7160e01b600052603260045260246000fd5b6001600160a01b0390921660209283029190910190910152806117958161281e565b915050611709565b50919050565b60008054606091906001600160401b038111156117d057634e487b7160e01b600052604160045260246000fd5b6040519080825280602002602001820160405280156117f9578160200160208202803683370190505b50600454909150600160b01b900460ff16158061182057506002546001600160401b031642105b156118785760005b60005481101561187157600082828151811061185457634e487b7160e01b600052603260045260246000fd5b6020908102919091010152806118698161281e565b915050611828565b5092915050565b6001600160a01b03831660009081526001602052604081206002549091906118b1904290600160401b90046001600160401b0316612067565b6002549091506000906118d490600160c01b90046001600160401b0316836127ca565b6001600160401b0316905060005b600054811015611a3057600080828154811061190e57634e487b7160e01b600052603260045260246000fd5b6000918252602080832060059283020180546001600160a01b0316845260018901909152604090922060028301549154929350911561199d5760025460055461196791600160801b90046001600160401b031690612794565b6001840154600160701b9061197c9088612794565b6119869190612794565b6119909190612774565b61199a908261275c565b90505b81546002840154600091600160701b916119b791906127b3565b89546119c39190612794565b6119cd9190612774565b9050826002015483600101546119e391906127b3565b6119ed908261275c565b898681518110611a0d57634e487b7160e01b600052603260045260246000fd5b602002602001018181525050505050508080611a289061281e565b9150506118e2565b509295945050505050565b600454600160b01b900460ff168015611a5e5750600454600160a81b900460ff16155b8015611a7557506002546001600160401b03164210155b611a915760405162461bcd60e51b81526004016104cf9061271e565b611a99610ca8565b600080546001600160401b03811115611ac257634e487b7160e01b600052604160045260246000fd5b604051908082528060200260200182016040528015611aeb578160200160208202803683370190505b5090506000805b600054811015611c9b576000808281548110611b1e57634e487b7160e01b600052603260045260246000fd5b90600052602060002090600502019050600260109054906101000a90046001600160401b03166001600160401b031681600101548260030154611b619190612794565b611b6b9190612774565b816004016000828254611b7e919061275c565b909155505060006003820181905560048201546001830154611ba091906127b3565b82546040516370a0823160e01b81523060048201526001600160a01b03909116906370a082319060240160206040518083038186803b158015611be257600080fd5b505afa158015611bf6573d6000803e3d6000fd5b505050506040513d601f19601f82011682018060405250810190611c1a9190612557565b611c2491906127b3565b9050600081118015611c34575083155b15611c3e57600193505b80858481518110611c5f57634e487b7160e01b600052603260045260246000fd5b60209081029190910101526004548254611c86916001600160a01b03918216911683611fff565b50508080611c939061281e565b915050611af2565b5080611cc35760405162461bcd60e51b815260206004820152600060248201526044016104cf565b7ff904fafa600a7e4e8039f3a5497d1b6016772e3060f87d3e40f911b315f00bd182604051611cf291906126b3565b60405180910390a15050565b6004546001600160a01b03163314611d285760405162461bcd60e51b81526004016104cf9061273d565b600454600160b01b900460ff168015611d4b5750600454600160a81b900460ff16155b611d7f5760405162461bcd60e51b8152602060048201526005602482015264535244313960d81b60448201526064016104cf565b6002546001600160401b03164210611dc15760405162461bcd60e51b81526020600482015260056024820152640a6a48860760db1b60448201526064016104cf565b60005b600054811015611eb1576000808281548110611df057634e487b7160e01b600052603260045260246000fd5b6000918252602090912060048054600590930290910180546040516370a0823160e01b81523093810193909352909350611e9e926001600160a01b03908116929116906370a082319060240160206040518083038186803b158015611e5457600080fd5b505afa158015611e68573d6000803e3d6000fd5b505050506040513d601f19601f82011682018060405250810190611e8c9190612557565b83546001600160a01b03169190611fff565b5080611ea98161281e565b915050611dc4565b506004805460ff60a81b1916600160a81b1790556040517f1afb0ae590df277bcb3a37f88612725bf1f7df4755792b1548a7efe77985ff7790600090a1565b6004546001600160a01b03163314611f1a5760405162461bcd60e51b81526004016104cf9061273d565b6001600160a01b038116611f585760405162461bcd60e51b815260206004820152600560248201526429a922189b60d91b60448201526064016104cf565b6004546040516001600160a01b038084169216907f8be0079c531659141344cd1fd0a4f28419497f9722a3daafe3b4186f6b6457e090600090a3600480546001600160a01b0319166001600160a01b0392909216919091179055565b60008181548110611fc457600080fd5b6000918252602090912060059091020180546001820154600283015460038401546004909401546001600160a01b0390931694509092909185565b6040516001600160a01b03831660248201526044810182905261206290849063a9059cbb60e01b906064015b60408051601f198184030181529190526020810180516001600160e01b03166001600160e01b031990931692909217909152612121565b505050565b60008183106120765781612078565b825b9392505050565b83546001600160a01b03166000908152600184016020526040812060020180548492906120ad90849061275c565b92505081905550818460040160008282546120c8919061275c565b909155505083546120e3906001600160a01b03168284611fff565b50505050565b6040516001600160a01b03808516602483015283166044820152606481018290526120e39085906323b872dd60e01b9060840161202b565b6000612176826040518060400160405280602081526020017f5361666545524332303a206c6f772d6c6576656c2063616c6c206661696c6564815250856001600160a01b03166121f39092919063ffffffff16565b80519091501561206257808060200190518101906121949190612523565b6120625760405162461bcd60e51b815260206004820152602a60248201527f5361666545524332303a204552433230206f7065726174696f6e20646964206e6044820152691bdd081cdd58d8d9595960b21b60648201526084016104cf565b6060610c0e848460008585843b61224c5760405162461bcd60e51b815260206004820152601d60248201527f416464726573733a2063616c6c20746f206e6f6e2d636f6e747261637400000060448201526064016104cf565b600080866001600160a01b0316858760405161226891906125a3565b60006040518083038185875af1925050503d80600081146122a5576040519150601f19603f3d011682016040523d82523d6000602084013e6122aa565b606091505b50915091506122ba8282866122c5565b979650505050505050565b606083156122d4575081612078565b8251156122e45782518084602001fd5b8160405162461bcd60e51b81526004016104cf91906126eb565b80356001600160a01b038116811461231557600080fd5b919050565b60008083601f84011261232b578081fd5b5081356001600160401b03811115612341578182fd5b6020830191508360208260051b850101111561235c57600080fd5b9250929050565b80356001600160401b038116811461231557600080fd5b60006020828403121561238b578081fd5b612078826122fe565b600080600080600080600080600060e08a8c0312156123b1578485fd5b89356001600160401b03808211156123c7578687fd5b6123d38d838e0161231a565b909b5099508991506123e760208d016122fe565b985060408c01359150808211156123fc578687fd5b506124098c828d0161231a565b909750955061241c905060608b01612363565b935061242a60808b01612363565b925060a08a013561243a81612889565b8092505060c08a013590509295985092959850929598565b60008060408385031215612464578182fd5b82356001600160401b038082111561247a578384fd5b818501915085601f83011261248d578384fd5b81356020828211156124a1576124a1612873565b8160051b604051601f19603f830116810181811086821117156124c6576124c6612873565b604052838152828101945085830182870184018b10156124e4578889fd5b8896505b848710156125065780358652600196909601959483019483016124e8565b50965061251690508782016122fe565b9450505050509250929050565b600060208284031215612534578081fd5b815161207881612889565b600060208284031215612550578081fd5b5035919050565b600060208284031215612568578081fd5b5051919050565b81835260006001600160fb1b03831115612587578081fd5b8260051b80836020870137939093016020019283525090919050565b600082516125b58184602087016127f2565b9190910192915050565b60e0808252810189905260008a6101008301825b8c811015612601576001600160a01b036125ec846122fe565b168252602092830192909101906001016125d3565b506001600160a01b038b1660208501528381036040850152612624818a8c61256f565b9250505061263d60608301876001600160401b03169052565b6001600160401b0394909416608082015291151560a083015260c0909101529695505050505050565b6020808252825182820181905260009190848201906040850190845b818110156126a75783516001600160a01b031683529284019291840191600101612682565b50909695505050505050565b6020808252825182820181905260009190848201906040850190845b818110156126a7578351835292840192918401916001016126cf565b602081526000825180602084015261270a8160408501602087016127f2565b601f01601f19169190910160400192915050565b602080825260059082015264053524432360dc1b604082015260600190565b602080825260059082015264535244313760d81b604082015260600190565b6000821982111561276f5761276f61285d565b500190565b60008261278f57634e487b7160e01b81526012600452602481fd5b500490565b60008160001904831182151516156127ae576127ae61285d565b500290565b6000828210156127c5576127c561285d565b500390565b60006001600160401b03838116908316818110156127ea576127ea61285d565b039392505050565b60005b8381101561280d5781810151838201526020016127f5565b838111156120e35750506000910152565b60006000198214156128325761283261285d565b5060010190565b600063ffffffff808316818114156128535761285361285d565b6001019392505050565b634e487b7160e01b600052601160045260246000fd5b634e487b7160e01b600052604160045260246000fd5b801515811461159157600080fdfea264697066735822122066595a2abb3fc91ce0d3cec796772d8862de63ea638df018cd0fbf74fb91236564736f6c63430008040033",
  "immutableReferences": {},
  "source": "//SPDX-License-Identifier: GPL-3.0\n\npragma solidity ^0.8.0;\n\nimport \"@openzeppelin/contracts/token/ERC20/presets/ERC20PresetMinterPauser.sol\";\nimport \"../ERC20StakingRewardsDistribution.sol\";\n\ncontract FirstRewardERC20 is ERC20PresetMinterPauser {\n    constructor() ERC20PresetMinterPauser(\"First reward\", \"RWD1\") {}\n}\n\ncontract SecondRewardERC20 is ERC20PresetMinterPauser {\n    constructor() ERC20PresetMinterPauser(\"Second reward\", \"RWD2\") {}\n}\n\ncontract FirstStakableERC20 is ERC20PresetMinterPauser {\n    constructor() ERC20PresetMinterPauser(\"First stakable\", \"STK1\") {}\n}\n\ncontract SecondStakableERC20 is ERC20PresetMinterPauser {\n    constructor() ERC20PresetMinterPauser(\"Second stakable\", \"STK2\") {}\n}\n\ncontract UpgradedERC20StakingRewardsDistribution is\n    ERC20StakingRewardsDistribution\n{\n    function isUpgraded() external pure returns (bool) {\n        return true;\n    }\n}\n",
  "sourcePath": "/home/luzzif/Projects/swapr-lp-staker/contracts/test/TestDependencies.sol",
  "compiler": {
    "name": "solc",
    "version": "0.8.4+commit.c7e474f2.Emscripten.clang"
  },
  "schemaVersion": "3.3.3",
  "updatedAt": "2021-05-08T16:55:00.396Z",
  "devdoc": {
    "kind": "dev",
    "methods": {},
    "version": 1
  },
  "userdoc": {
    "kind": "user",
    "methods": {},
    "version": 1
  }
}