{
  "contractName": "UpgradedERC20StakingRewardsDistribution",
  "abi": [
    {
      "anonymous": false,
      "inputs": [],
      "name": "Canceled",
      "type": "event"
    },
    {
      "anonymous": false,
      "inputs": [
        {
          "indexed": true,
          "internalType": "address",
          "name": "claimer",
          "type": "address"
        },
        {
          "indexed": false,
          "internalType": "uint256[]",
          "name": "amounts",
          "type": "uint256[]"
        }
      ],
      "name": "Claimed",
      "type": "event"
    },
    {
      "anonymous": false,
      "inputs": [
        {
          "indexed": false,
          "internalType": "address[]",
          "name": "rewardsTokenAddresses",
          "type": "address[]"
        },
        {
          "indexed": false,
          "internalType": "address",
          "name": "stakableTokenAddress",
          "type": "address"
        },
        {
          "indexed": false,
          "internalType": "uint256[]",
          "name": "rewardsAmounts",
          "type": "uint256[]"
        },
        {
          "indexed": false,
          "internalType": "uint64",
          "name": "startingTimestamp",
          "type": "uint64"
        },
        {
          "indexed": false,
          "internalType": "uint64",
          "name": "endingTimestamp",
          "type": "uint64"
        },
        {
          "indexed": false,
          "internalType": "bool",
          "name": "locked",
          "type": "bool"
        },
        {
          "indexed": false,
          "internalType": "uint256",
          "name": "stakingCap",
          "type": "uint256"
        }
      ],
      "name": "Initialized",
      "type": "event"
    },
    {
      "anonymous": false,
      "inputs": [
        {
          "indexed": true,
          "internalType": "address",
          "name": "previousOwner",
          "type": "address"
        },
        {
          "indexed": true,
          "internalType": "address",
          "name": "newOwner",
          "type": "address"
        }
      ],
      "name": "OwnershipTransferred",
      "type": "event"
    },
    {
      "anonymous": false,
      "inputs": [
        {
          "indexed": false,
          "internalType": "uint256[]",
          "name": "amounts",
          "type": "uint256[]"
        }
      ],
      "name": "Recovered",
      "type": "event"
    },
    {
      "anonymous": false,
      "inputs": [
        {
          "indexed": true,
          "internalType": "address",
          "name": "staker",
          "type": "address"
        },
        {
          "indexed": false,
          "internalType": "uint256",
          "name": "amount",
          "type": "uint256"
        }
      ],
      "name": "Staked",
      "type": "event"
    },
    {
      "anonymous": false,
      "inputs": [
        {
          "indexed": true,
          "internalType": "address",
          "name": "withdrawer",
          "type": "address"
        },
        {
          "indexed": false,
          "internalType": "uint256",
          "name": "amount",
          "type": "uint256"
        }
      ],
      "name": "Withdrawn",
      "type": "event"
    },
    {
      "inputs": [],
      "name": "cancel",
      "outputs": [],
      "stateMutability": "nonpayable",
      "type": "function"
    },
    {
      "inputs": [
        {
          "internalType": "uint256[]",
          "name": "_amounts",
          "type": "uint256[]"
        },
        {
          "internalType": "address",
          "name": "_recipient",
          "type": "address"
        }
      ],
      "name": "claim",
      "outputs": [],
      "stateMutability": "nonpayable",
      "type": "function"
    },
    {
      "inputs": [
        {
          "internalType": "address",
          "name": "_recipient",
          "type": "address"
        }
      ],
      "name": "claimAll",
      "outputs": [],
      "stateMutability": "nonpayable",
      "type": "function"
    },
    {
      "inputs": [
        {
          "internalType": "address",
          "name": "_staker",
          "type": "address"
        }
      ],
      "name": "claimableRewards",
      "outputs": [
        {
          "internalType": "uint256[]",
          "name": "",
          "type": "uint256[]"
        }
      ],
      "stateMutability": "view",
      "type": "function"
    },
    {
      "inputs": [
        {
          "internalType": "address",
          "name": "",
          "type": "address"
        },
        {
          "internalType": "address",
          "name": "",
          "type": "address"
        }
      ],
      "name": "claimedReward",
      "outputs": [
        {
          "internalType": "uint256",
          "name": "",
          "type": "uint256"
        }
      ],
      "stateMutability": "view",
      "type": "function"
    },
    {
      "inputs": [],
      "name": "consolidateReward",
      "outputs": [],
      "stateMutability": "nonpayable",
      "type": "function"
    },
    {
      "inputs": [
        {
          "internalType": "address",
          "name": "",
          "type": "address"
        },
        {
          "internalType": "address",
          "name": "",
          "type": "address"
        }
      ],
      "name": "consolidatedRewardsPerStakedToken",
      "outputs": [
        {
          "internalType": "uint256",
          "name": "",
          "type": "uint256"
        }
      ],
      "stateMutability": "view",
      "type": "function"
    },
    {
      "inputs": [
        {
          "internalType": "address",
          "name": "",
          "type": "address"
        },
        {
          "internalType": "address",
          "name": "",
          "type": "address"
        }
      ],
      "name": "earnedRewards",
      "outputs": [
        {
          "internalType": "uint256",
          "name": "",
          "type": "uint256"
        }
      ],
      "stateMutability": "view",
      "type": "function"
    },
    {
      "inputs": [],
      "name": "endingTimestamp",
      "outputs": [
        {
          "internalType": "uint64",
          "name": "",
          "type": "uint64"
        }
      ],
      "stateMutability": "view",
      "type": "function"
    },
    {
      "inputs": [
        {
          "internalType": "address",
          "name": "_recipient",
          "type": "address"
        }
      ],
      "name": "exit",
      "outputs": [],
      "stateMutability": "nonpayable",
      "type": "function"
    },
    {
      "inputs": [
        {
          "internalType": "address",
          "name": "_claimer",
          "type": "address"
        }
      ],
      "name": "getClaimedRewards",
      "outputs": [
        {
          "internalType": "uint256[]",
          "name": "",
          "type": "uint256[]"
        }
      ],
      "stateMutability": "view",
      "type": "function"
    },
    {
      "inputs": [],
      "name": "getRewardTokens",
      "outputs": [
        {
          "internalType": "contract IERC20[]",
          "name": "",
          "type": "address[]"
        }
      ],
      "stateMutability": "view",
      "type": "function"
    },
    {
      "inputs": [
        {
          "internalType": "address[]",
          "name": "_rewardTokenAddresses",
          "type": "address[]"
        },
        {
          "internalType": "address",
          "name": "_stakableTokenAddress",
          "type": "address"
        },
        {
          "internalType": "uint256[]",
          "name": "_rewardAmounts",
          "type": "uint256[]"
        },
        {
          "internalType": "uint64",
          "name": "_startingTimestamp",
          "type": "uint64"
        },
        {
          "internalType": "uint64",
          "name": "_endingTimestamp",
          "type": "uint64"
        },
        {
          "internalType": "bool",
          "name": "_locked",
          "type": "bool"
        },
        {
          "internalType": "uint256",
          "name": "_stakingCap",
          "type": "uint256"
        }
      ],
      "name": "initialize",
      "outputs": [],
      "stateMutability": "nonpayable",
      "type": "function"
    },
    {
      "inputs": [],
      "name": "initialized",
      "outputs": [
        {
          "internalType": "bool",
          "name": "",
          "type": "bool"
        }
      ],
      "stateMutability": "view",
      "type": "function"
    },
    {
      "inputs": [],
      "name": "lastConsolidationTimestamp",
      "outputs": [
        {
          "internalType": "uint64",
          "name": "",
          "type": "uint64"
        }
      ],
      "stateMutability": "view",
      "type": "function"
    },
    {
      "inputs": [],
      "name": "locked",
      "outputs": [
        {
          "internalType": "bool",
          "name": "",
          "type": "bool"
        }
      ],
      "stateMutability": "view",
      "type": "function"
    },
    {
      "inputs": [],
      "name": "owner",
      "outputs": [
        {
          "internalType": "address",
          "name": "",
          "type": "address"
        }
      ],
      "stateMutability": "view",
      "type": "function"
    },
    {
      "inputs": [],
      "name": "recoverUnassignedRewards",
      "outputs": [],
      "stateMutability": "nonpayable",
      "type": "function"
    },
    {
      "inputs": [
        {
          "internalType": "address",
          "name": "",
          "type": "address"
        }
      ],
      "name": "recoverableUnassignedReward",
      "outputs": [
        {
          "internalType": "uint256",
          "name": "",
          "type": "uint256"
        }
      ],
      "stateMutability": "view",
      "type": "function"
    },
    {
      "inputs": [],
      "name": "renounceOwnership",
      "outputs": [],
      "stateMutability": "nonpayable",
      "type": "function"
    },
    {
      "inputs": [
        {
          "internalType": "address",
          "name": "",
          "type": "address"
        }
      ],
      "name": "rewardAmount",
      "outputs": [
        {
          "internalType": "uint256",
          "name": "",
          "type": "uint256"
        }
      ],
      "stateMutability": "view",
      "type": "function"
    },
    {
      "inputs": [
        {
          "internalType": "address",
          "name": "",
          "type": "address"
        }
      ],
      "name": "rewardPerStakedToken",
      "outputs": [
        {
          "internalType": "uint256",
          "name": "",
          "type": "uint256"
        }
      ],
      "stateMutability": "view",
      "type": "function"
    },
    {
      "inputs": [
        {
          "internalType": "uint256",
          "name": "",
          "type": "uint256"
        }
      ],
      "name": "rewardTokens",
      "outputs": [
        {
          "internalType": "contract IERC20",
          "name": "",
          "type": "address"
        }
      ],
      "stateMutability": "view",
      "type": "function"
    },
    {
      "inputs": [],
      "name": "secondsDuration",
      "outputs": [
        {
          "internalType": "uint64",
          "name": "",
          "type": "uint64"
        }
      ],
      "stateMutability": "view",
      "type": "function"
    },
    {
      "inputs": [],
      "name": "stakableToken",
      "outputs": [
        {
          "internalType": "contract IERC20",
          "name": "",
          "type": "address"
        }
      ],
      "stateMutability": "view",
      "type": "function"
    },
    {
      "inputs": [
        {
          "internalType": "uint256",
          "name": "_amount",
          "type": "uint256"
        }
      ],
      "name": "stake",
      "outputs": [],
      "stateMutability": "nonpayable",
      "type": "function"
    },
    {
      "inputs": [
        {
          "internalType": "address",
          "name": "",
          "type": "address"
        }
      ],
      "name": "stakedTokenAmount",
      "outputs": [
        {
          "internalType": "uint256",
          "name": "",
          "type": "uint256"
        }
      ],
      "stateMutability": "view",
      "type": "function"
    },
    {
      "inputs": [
        {
          "internalType": "address",
          "name": "",
          "type": "address"
        }
      ],
      "name": "stakedTokensOf",
      "outputs": [
        {
          "internalType": "uint256",
          "name": "",
          "type": "uint256"
        }
      ],
      "stateMutability": "view",
      "type": "function"
    },
    {
      "inputs": [],
      "name": "stakingCap",
      "outputs": [
        {
          "internalType": "uint256",
          "name": "",
          "type": "uint256"
        }
      ],
      "stateMutability": "view",
      "type": "function"
    },
    {
      "inputs": [],
      "name": "startingTimestamp",
      "outputs": [
        {
          "internalType": "uint64",
          "name": "",
          "type": "uint64"
        }
      ],
      "stateMutability": "view",
      "type": "function"
    },
    {
      "inputs": [
        {
          "internalType": "address",
          "name": "",
          "type": "address"
        }
      ],
      "name": "totalClaimedRewards",
      "outputs": [
        {
          "internalType": "uint256",
          "name": "",
          "type": "uint256"
        }
      ],
      "stateMutability": "view",
      "type": "function"
    },
    {
      "inputs": [],
      "name": "totalStakedTokensAmount",
      "outputs": [
        {
          "internalType": "uint256",
          "name": "",
          "type": "uint256"
        }
      ],
      "stateMutability": "view",
      "type": "function"
    },
    {
      "inputs": [
        {
          "internalType": "address",
          "name": "_newOwner",
          "type": "address"
        }
      ],
      "name": "transferOwnership",
      "outputs": [],
      "stateMutability": "nonpayable",
      "type": "function"
    },
    {
      "inputs": [
        {
          "internalType": "uint256",
          "name": "_amount",
          "type": "uint256"
        }
      ],
      "name": "withdraw",
      "outputs": [],
      "stateMutability": "nonpayable",
      "type": "function"
    },
    {
      "inputs": [],
      "name": "isUpgraded",
      "outputs": [
        {
          "internalType": "bool",
          "name": "",
          "type": "bool"
        }
      ],
      "stateMutability": "pure",
      "type": "function"
    }
  ],
  "bytecode": "0x608060405234801561001057600080fd5b50612885806100206000396000f3fe608060405234801561001057600080fd5b50600436106102115760003560e01c80638878627211610125578063b9e35db0116100ad578063dc01f60d1161007c578063dc01f60d14610515578063e644067d14610528578063e66d85be14610530578063ea8a1af014610550578063f2fde38b1461055857600080fd5b8063b9e35db0146104b4578063c10de300146104d4578063c4f59f9b146104ec578063cf3090121461050157600080fd5b8063a110b93f116100f4578063a110b93f14610445578063a694fc3a14610465578063ab08d4fc14610478578063b41fa97914610498578063b42652e9146104a157600080fd5b806388786272146103ec5780638c574b48146103ff5780638da5cb5b1461041257806398f812301461042557600080fd5b80635e5294b7116101a8578063715018a611610177578063715018a614610368578063728e4a671461037057806375b8dbf81461039b57806377329f35146103c65780637bb7bed1146103d957600080fd5b80635e5294b7146102f45780635fa3502314610326578063645a8a56146103405780636715dcb81461036057600080fd5b806334380a61116101e457806334380a611461028b5780633b34ee50146102c457806342c80fc9146102e457806344c370d3146102eb57600080fd5b8063158ef93e146102165780631c96c3fb1461023857806323a26e36146102635780632e1a7d4d14610278575b600080fd5b6009546102239060ff1681565b60405190151581526020015b60405180910390f35b60025461024b906001600160a01b031681565b6040516001600160a01b03909116815260200161022f565b61027661027136600461234c565b61056b565b005b6102766102863660046124f7565b6109db565b6102b661029936600461231a565b600f60209081526000928352604080842090915290825290205481565b60405190815260200161022f565b6102b66102d2366004612300565b600a6020526000908152604090205481565b6001610223565b6102b660085481565b60075461030e90600160401b90046001600160401b031681565b6040516001600160401b03909116815260200161022f565b60075461030e90600160801b90046001600160401b031681565b6102b661034e366004612300565b60036020526000908152604090205481565b610276610b83565b610276610e9f565b6102b661037e36600461231a565b600e60209081526000928352604080842090915290825290205481565b6102b66103a936600461231a565b600d60209081526000928352604080842090915290825290205481565b6102766103d4366004612300565b610f05565b61024b6103e73660046124f7565b6110b6565b60075461030e906001600160401b031681565b61027661040d36600461240a565b6110e0565b60005461024b906001600160a01b031681565b6102b6610433366004612300565b60066020526000908152604090205481565b6102b6610453366004612300565b600b6020526000908152604090205481565b6102766104733660046124f7565b611331565b6102b6610486366004612300565b600c6020526000908152604090205481565b6102b660055481565b6102766104af366004612300565b6114b5565b6104c76104c2366004612300565b61151b565b60405161022f919061266b565b60095461030e9061010090046001600160401b031681565b6104f461162a565b60405161022f919061261e565b60075461022390600160c01b900460ff1681565b6104c7610523366004612300565b61168c565b610276611988565b6102b661053e366004612300565b60046020526000908152604090205481565b610276611bf5565b610276610566366004612300565b611e0d565b60095460ff16156105ab5760405162461bcd60e51b81526020600482015260056024820152640a6a48862760db1b60448201526064015b60405180910390fd5b42846001600160401b0316116105eb5760405162461bcd60e51b8152602060048201526005602482015264535244303160d81b60448201526064016105a2565b836001600160401b0316836001600160401b0316116106345760405162461bcd60e51b815260206004820152600560248201526429a922181960d91b60448201526064016105a2565b87851461066b5760405162461bcd60e51b8152602060048201526005602482015264535244303360d81b60448201526064016105a2565b6106758484612782565b600760106101000a8154816001600160401b0302191690836001600160401b0316021790555060005b63ffffffff81168911156108b05760008a8a8363ffffffff168181106106d457634e487b7160e01b600052603260045260246000fd5b90506020020160208101906106e99190612300565b9050600088888463ffffffff1681811061071357634e487b7160e01b600052603260045260246000fd5b60200291909101359150506001600160a01b03821661075c5760405162461bcd60e51b815260206004820152600560248201526414d4910c0d60da1b60448201526064016105a2565b600081116107945760405162461bcd60e51b8152602060048201526005602482015264535244303560d81b60448201526064016105a2565b6040516370a0823160e01b8152306004820152829082906001600160a01b038316906370a082319060240160206040518083038186803b1580156107d757600080fd5b505afa1580156107eb573d6000803e3d6000fd5b505050506040513d601f19601f8201168201806040525081019061080f919061250f565b10156108455760405162461bcd60e51b815260206004820152600560248201526429a922181b60d91b60448201526064016105a2565b600180548082019091557fb10e2d527612073b26eecdfd717e6a320cf44b4afac2b0732d9fcbe2b7fa0cf60180546001600160a01b0319166001600160a01b0392831617905591909116600090815260036020526040902055806108a8816127f1565b91505061069e565b506001600160a01b0387166108ef5760405162461bcd60e51b8152602060048201526005602482015264535244303760d81b60448201526064016105a2565b600280546001600160a01b03199081166001600160a01b038a16179091556000805433921691909117905560078054600980546001600160401b038881166fffffffffffffffffffffffffffffffff199094168417600160401b918916919091021760ff60c01b1916600160c01b8715150217909355600884905568ffffffffffffffffff1990921661010090910260ff19161760011790556040517f2c1fa4f0e3f1c67636ee0b3665bf3a04407a2c1332d4e3e99f941ee2b0b9daf4906109c8908b908b908b908b908b908b908b908b908b90612577565b60405180910390a1505050505050505050565b60095460ff1680156109f857506007546001600160401b03164210155b610a145760405162461bcd60e51b81526004016105a2906126d6565b60008111610a4c5760405162461bcd60e51b8152602060048201526005602482015264535244313160d81b60448201526064016105a2565b600754600160c01b900460ff1615610aa757600754600160401b90046001600160401b03164211610aa75760405162461bcd60e51b815260206004820152600560248201526429a922189960d91b60448201526064016105a2565b610aaf610b83565b336000908152600c6020526040902054811115610af65760405162461bcd60e51b8152602060048201526005602482015264535244313360d81b60448201526064016105a2565b336000908152600c602052604081208054839290610b1590849061276b565b925050819055508060056000828254610b2e919061276b565b9091555050600254610b4a906001600160a01b03163383611ed0565b60405181815233907f7084f5476618d8e60b11ef0d7d3f06914655adb8793e28ff7f018d4c76d505d5906020015b60405180910390a250565b60095460ff168015610ba057506007546001600160401b03164210155b610bbc5760405162461bcd60e51b81526004016105a2906126d6565b600754600090610bdd904290600160401b90046001600160401b0316611f38565b600954909150600090610bfe9061010090046001600160401b031683612782565b6001600160401b0316905060005b600154811015610e7457600060018281548110610c3957634e487b7160e01b600052603260045260246000fd5b6000918252602090912001546005546001600160a01b039091169150610ce6576007546001600160a01b038216600090815260036020526040902054600160801b9091046001600160401b031690610c91908561274c565b610c9b919061272c565b6001600160a01b0382166000908152600a602052604081208054909190610cc3908490612714565b90915550506001600160a01b038116600090815260066020526040812055610d71565b600754600554610d0691600160801b90046001600160401b03169061274c565b6001600160a01b038216600090815260036020526040902054600160701b90610d2f908661274c565b610d39919061274c565b610d43919061272c565b6001600160a01b03821660009081526006602052604081208054909190610d6b908490612714565b90915550505b6001600160a01b038116600090815260066020526040812054610d95576000610df5565b336000908152600d602090815260408083206001600160a01b0386168452825280832054600690925290912054600160701b91610dd19161276b565b336000908152600c6020526040902054610deb919061274c565b610df5919061272c565b336000908152600e602090815260408083206001600160a01b0387168452909152812080549293508392909190610e2d908490612714565b9091555050506001600160a01b0316600081815260066020908152604080832054338452600d83528184209484529390915290205580610e6c816127d6565b915050610c0c565b5050600980546001600160401b039092166101000268ffffffffffffffff0019909216919091179055565b6000546001600160a01b03163314610ec95760405162461bcd60e51b81526004016105a2906126f5565b600080546001600160a01b031916815560405181907f8be0079c531659141344cd1fd0a4f28419497f9722a3daafe3b4186f6b6457e0908290a3565b60095460ff168015610f2257506007546001600160401b03164210155b610f3e5760405162461bcd60e51b81526004016105a2906126d6565b610f46610b83565b6001546000906001600160401b03811115610f7157634e487b7160e01b600052604160045260246000fd5b604051908082528060200260200182016040528015610f9a578160200160208202803683370190505b50905060005b60015481101561107057600060018281548110610fcd57634e487b7160e01b600052603260045260246000fd5b600091825260208083209091015433808452600f835260408085206001600160a01b0390931680865292845280852054918552600e8452808520838652909352918320549093508392916110209161276b565b905061102d838288611f50565b8085858151811061104e57634e487b7160e01b600052603260045260246000fd5b6020026020010181815250505050508080611068906127d6565b915050610fa0565b50336001600160a01b03167f28ee566bdecaf975c0979f4d09fecf91a9009ffe78523aef053a678134137b8b826040516110aa919061266b565b60405180910390a25050565b600181815481106110c657600080fd5b6000918252602090912001546001600160a01b0316905081565b60095460ff1680156110fd57506007546001600160401b03164210155b6111195760405162461bcd60e51b81526004016105a2906126d6565b6001548251146111535760405162461bcd60e51b815260206004820152600560248201526414d4910c4d60da1b60448201526064016105a2565b61115b610b83565b6001546000906001600160401b0381111561118657634e487b7160e01b600052604160045260246000fd5b6040519080825280602002602001820160405280156111af578160200160208202803683370190505b50905060005b6001548110156112ea576000600182815481106111e257634e487b7160e01b600052603260045260246000fd5b600091825260208083209091015433808452600f835260408085206001600160a01b0390931680865292845280852054918552600e8452808520838652909352918320549093508392916112359161276b565b9050600087858151811061125957634e487b7160e01b600052603260045260246000fd5b602002602001015190508082101561129b5760405162461bcd60e51b8152602060048201526005602482015264535244313560d81b60448201526064016105a2565b6112a6848289611f50565b808686815181106112c757634e487b7160e01b600052603260045260246000fd5b6020026020010181815250505050505080806112e2906127d6565b9150506111b5565b50336001600160a01b03167f28ee566bdecaf975c0979f4d09fecf91a9009ffe78523aef053a678134137b8b82604051611324919061266b565b60405180910390a2505050565b60095460ff16801561134e57506007546001600160401b03164210155b801561136c5750600754600160401b90046001600160401b03164211155b6113a05760405162461bcd60e51b8152602060048201526005602482015264535244323160d81b60448201526064016105a2565b600081116113d85760405162461bcd60e51b8152602060048201526005602482015264535244303960d81b60448201526064016105a2565b6008541561142757600854816005546113f19190612714565b11156114275760405162461bcd60e51b8152602060048201526005602482015264053524431360dc1b60448201526064016105a2565b61142f610b83565b336000908152600c602052604090205461144a908290612714565b336000908152600c6020526040902055600554611468908290612714565b600555600254611483906001600160a01b0316333084611fca565b60405181815233907f9e71bc8eea02a63969f509818f2dafb9254532904319f9dbda79b67bd34a5f3d90602001610b78565b60095460ff1680156114d257506007546001600160401b03164210155b6114ee5760405162461bcd60e51b81526004016105a2906126d6565b6114f6610b83565b6114ff81610f05565b336000908152600c6020526040902054611518906109db565b50565b6001546060906000906001600160401b0381111561154957634e487b7160e01b600052604160045260246000fd5b604051908082528060200260200182016040528015611572578160200160208202803683370190505b50905060005b600154811015611623576001600160a01b0384166000908152600f6020526040812060018054919291849081106115bf57634e487b7160e01b600052603260045260246000fd5b60009182526020808320909101546001600160a01b03168352820192909252604001902054825183908390811061160657634e487b7160e01b600052603260045260246000fd5b60209081029190910101528061161b816127d6565b915050611578565b5092915050565b6060600180548060200260200160405190810160405280929190818152602001828054801561168257602002820191906000526020600020905b81546001600160a01b03168152600190910190602001808311611664575b5050505050905090565b6001546060906000906001600160401b038111156116ba57634e487b7160e01b600052604160045260246000fd5b6040519080825280602002602001820160405280156116e3578160200160208202803683370190505b5060095490915060ff16158061170357506007546001600160401b031642105b156117545760005b60015481101561162357600082828151811061173757634e487b7160e01b600052603260045260246000fd5b60209081029190910101528061174c816127d6565b91505061170b565b600754600090611775904290600160401b90046001600160401b0316611f38565b6009549091506000906117969061010090046001600160401b031683612782565b6001600160401b0316905060005b60015481101561197e576000600182815481106117d157634e487b7160e01b600052603260045260246000fd5b60009182526020808320909101546001600160a01b031680835260069091526040909120546005549192509061180957506000611873565b60075460055461182991600160801b90046001600160401b03169061274c565b6001600160a01b038316600090815260036020526040902054600160701b90611852908761274c565b61185c919061274c565b611866919061272c565b6118709082612714565b90505b60008082116118835760006118e6565b6001600160a01b03808a166000908152600d6020908152604080832093871683529290522054600160701b906118b9908461276b565b6001600160a01b038b166000908152600c60205260409020546118dc919061274c565b6118e6919061272c565b6001600160a01b03808b166000818152600f6020908152604080832094891680845294825280832054938352600e82528083209483529390529190912054919250906119329083612714565b61193c919061276b565b87858151811061195c57634e487b7160e01b600052603260045260246000fd5b6020026020010181815250505050508080611976906127d6565b9150506117a4565b5091949350505050565b60095460ff1680156119a557506007546001600160401b03164210155b6119c15760405162461bcd60e51b81526004016105a2906126d6565b6119c9610b83565b6001546000816001600160401b038111156119f457634e487b7160e01b600052604160045260246000fd5b604051908082528060200260200182016040528015611a1d578160200160208202803683370190505b50905060005b82811015611bb957600060018281548110611a4e57634e487b7160e01b600052603260045260246000fd5b60009182526020808320909101546001600160a01b0316808352600a8252604080842054600b9093528320805491945084939091611a8d908490612714565b90915550506001600160a01b0381166000908152600b60209081526040808320546003909252822054611ac0919061276b565b6001600160a01b038381166000908152600a6020526040808220829055516370a0823160e01b81523060048201529293509183918616906370a082319060240160206040518083038186803b158015611b1857600080fd5b505afa158015611b2c573d6000803e3d6000fd5b505050506040513d601f19601f82011682018060405250810190611b50919061250f565b611b5a919061276b565b905080868681518110611b7d57634e487b7160e01b600052603260045260246000fd5b6020908102919091010152600054611ba2906001600160a01b03868116911683611ed0565b505050508080611bb1906127d6565b915050611a23565b507ff904fafa600a7e4e8039f3a5497d1b6016772e3060f87d3e40f911b315f00bd181604051611be9919061266b565b60405180910390a15050565b6000546001600160a01b03163314611c1f5760405162461bcd60e51b81526004016105a2906126f5565b60095460ff16611c595760405162461bcd60e51b8152602060048201526005602482015264535244313960d81b60448201526064016105a2565b6007546001600160401b03164210611c9b5760405162461bcd60e51b81526020600482015260056024820152640a6a48860760db1b60448201526064016105a2565b60005b600154811015611d9157600060018281548110611ccb57634e487b7160e01b600052603260045260246000fd5b6000918252602080832091909101546001600160a01b0390811680845260039092526040808420849055925492516370a0823160e01b8152306004820152919350611d7e92169083906370a082319060240160206040518083038186803b158015611d3557600080fd5b505afa158015611d49573d6000803e3d6000fd5b505050506040513d601f19601f82011682018060405250810190611d6d919061250f565b6001600160a01b0384169190611ed0565b5080611d89816127d6565b915050611c9e565b50611d9e60016000612252565b600280546001600160a01b0319169055600780546009805468ffffffffffffffffff1916905578ff0000000000000000ffffffffffffffffffffffffffffffff191690556040517f1afb0ae590df277bcb3a37f88612725bf1f7df4755792b1548a7efe77985ff7790600090a1565b6000546001600160a01b03163314611e375760405162461bcd60e51b81526004016105a2906126f5565b6001600160a01b038116611e755760405162461bcd60e51b815260206004820152600560248201526429a922189b60d91b60448201526064016105a2565b600080546040516001600160a01b03808516939216917f8be0079c531659141344cd1fd0a4f28419497f9722a3daafe3b4186f6b6457e091a3600080546001600160a01b0319166001600160a01b0392909216919091179055565b6040516001600160a01b038316602482015260448101829052611f3390849063a9059cbb60e01b906064015b60408051601f198184030181529190526020810180516001600160e01b03166001600160e01b031990931692909217909152612008565b505050565b6000818310611f475781611f49565b825b9392505050565b336000908152600f602090815260408083206001600160a01b038716845290915281208054849290611f83908490612714565b90915550506001600160a01b0383166000908152600b602052604081208054849290611fb0908490612714565b90915550611f3390506001600160a01b0384168284611ed0565b6040516001600160a01b03808516602483015283166044820152606481018290526120029085906323b872dd60e01b90608401611efc565b50505050565b600061205d826040518060400160405280602081526020017f5361666545524332303a206c6f772d6c6576656c2063616c6c206661696c6564815250856001600160a01b03166120da9092919063ffffffff16565b805190915015611f33578080602001905181019061207b91906124db565b611f335760405162461bcd60e51b815260206004820152602a60248201527f5361666545524332303a204552433230206f7065726174696f6e20646964206e6044820152691bdd081cdd58d8d9595960b21b60648201526084016105a2565b60606120e984846000856120f1565b949350505050565b6060824710156121525760405162461bcd60e51b815260206004820152602660248201527f416464726573733a20696e73756666696369656e742062616c616e636520666f6044820152651c8818d85b1b60d21b60648201526084016105a2565b843b6121a05760405162461bcd60e51b815260206004820152601d60248201527f416464726573733a2063616c6c20746f206e6f6e2d636f6e747261637400000060448201526064016105a2565b600080866001600160a01b031685876040516121bc919061255b565b60006040518083038185875af1925050503d80600081146121f9576040519150601f19603f3d011682016040523d82523d6000602084013e6121fe565b606091505b509150915061220e828286612219565b979650505050505050565b60608315612228575081611f49565b8251156122385782518084602001fd5b8160405162461bcd60e51b81526004016105a291906126a3565b508054600082559060005260206000209081019061151891905b80821115612280576000815560010161226c565b5090565b80356001600160a01b038116811461229b57600080fd5b919050565b60008083601f8401126122b1578081fd5b5081356001600160401b038111156122c7578182fd5b6020830191508360208260051b85010111156122e257600080fd5b9250929050565b80356001600160401b038116811461229b57600080fd5b600060208284031215612311578081fd5b611f4982612284565b6000806040838503121561232c578081fd5b61233583612284565b915061234360208401612284565b90509250929050565b600080600080600080600080600060e08a8c031215612369578485fd5b89356001600160401b038082111561237f578687fd5b61238b8d838e016122a0565b909b50995089915061239f60208d01612284565b985060408c01359150808211156123b4578687fd5b506123c18c828d016122a0565b90975095506123d4905060608b016122e9565b93506123e260808b016122e9565b925060a08a01356123f281612841565b8092505060c08a013590509295985092959850929598565b6000806040838503121561241c578182fd5b82356001600160401b0380821115612432578384fd5b818501915085601f830112612445578384fd5b81356020828211156124595761245961282b565b8160051b604051601f19603f8301168101818110868211171561247e5761247e61282b565b604052838152828101945085830182870184018b101561249c578889fd5b8896505b848710156124be5780358652600196909601959483019483016124a0565b5096506124ce9050878201612284565b9450505050509250929050565b6000602082840312156124ec578081fd5b8151611f4981612841565b600060208284031215612508578081fd5b5035919050565b600060208284031215612520578081fd5b5051919050565b81835260006001600160fb1b0383111561253f578081fd5b8260051b80836020870137939093016020019283525090919050565b6000825161256d8184602087016127aa565b9190910192915050565b60e0808252810189905260008a6101008301825b8c8110156125b9576001600160a01b036125a484612284565b1682526020928301929091019060010161258b565b506001600160a01b038b16602085015283810360408501526125dc818a8c612527565b925050506125f560608301876001600160401b03169052565b6001600160401b0394909416608082015291151560a083015260c0909101529695505050505050565b6020808252825182820181905260009190848201906040850190845b8181101561265f5783516001600160a01b03168352928401929184019160010161263a565b50909695505050505050565b6020808252825182820181905260009190848201906040850190845b8181101561265f57835183529284019291840191600101612687565b60208152600082518060208401526126c28160408501602087016127aa565b601f01601f19169190910160400192915050565b602080825260059082015264053524432360dc1b604082015260600190565b602080825260059082015264535244313760d81b604082015260600190565b6000821982111561272757612727612815565b500190565b60008261274757634e487b7160e01b81526012600452602481fd5b500490565b600081600019048311821515161561276657612766612815565b500290565b60008282101561277d5761277d612815565b500390565b60006001600160401b03838116908316818110156127a2576127a2612815565b039392505050565b60005b838110156127c55781810151838201526020016127ad565b838111156120025750506000910152565b60006000198214156127ea576127ea612815565b5060010190565b600063ffffffff8083168181141561280b5761280b612815565b6001019392505050565b634e487b7160e01b600052601160045260246000fd5b634e487b7160e01b600052604160045260246000fd5b801515811461151857600080fdfea264697066735822122082ad1b78d34dce2ea6a841520523931be78d47b46f4684ad1c0359bbf383dcce64736f6c63430008040033",
  "immutableReferences": {},
  "source": "//SPDX-License-Identifier: GPL-3.0\n\npragma solidity ^0.8.0;\n\nimport \"@openzeppelin/contracts/token/ERC20/presets/ERC20PresetMinterPauser.sol\";\nimport \"../ERC20StakingRewardsDistribution.sol\";\n\ncontract FirstRewardERC20 is ERC20PresetMinterPauser {\n    constructor() ERC20PresetMinterPauser(\"First reward\", \"RWD1\") {}\n}\n\ncontract SecondRewardERC20 is ERC20PresetMinterPauser {\n    constructor() ERC20PresetMinterPauser(\"Second reward\", \"RWD2\") {}\n}\n\ncontract FirstStakableERC20 is ERC20PresetMinterPauser {\n    constructor() ERC20PresetMinterPauser(\"First stakable\", \"STK1\") {}\n}\n\ncontract SecondStakableERC20 is ERC20PresetMinterPauser {\n    constructor() ERC20PresetMinterPauser(\"Second stakable\", \"STK2\") {}\n}\n\ncontract UpgradedERC20StakingRewardsDistribution is\n    ERC20StakingRewardsDistribution\n{\n    function isUpgraded() external pure returns (bool) {\n        return true;\n    }\n}\n",
  "sourcePath": "/home/luzzif/Projects/swapr-lp-staker/contracts/test/TestDependencies.sol",
  "compiler": {
    "name": "solc",
    "version": "0.8.4+commit.c7e474f2.Emscripten.clang"
  },
  "schemaVersion": "3.3.3",
  "updatedAt": "2021-05-05T09:12:24.378Z",
  "devdoc": {
    "kind": "dev",
    "methods": {},
    "version": 1
  },
  "userdoc": {
    "kind": "user",
    "methods": {},
    "version": 1
  }
}