{
  "contractName": "UpgradedERC20StakingRewardsDistribution",
  "abi": [
    {
      "anonymous": false,
      "inputs": [],
      "name": "Canceled",
      "type": "event"
    },
    {
      "anonymous": false,
      "inputs": [
        {
          "indexed": true,
          "internalType": "address",
          "name": "claimer",
          "type": "address"
        },
        {
          "indexed": false,
          "internalType": "uint256[]",
          "name": "amounts",
          "type": "uint256[]"
        }
      ],
      "name": "Claimed",
      "type": "event"
    },
    {
      "anonymous": false,
      "inputs": [
        {
          "indexed": false,
          "internalType": "address[]",
          "name": "rewardsTokenAddresses",
          "type": "address[]"
        },
        {
          "indexed": false,
          "internalType": "address",
          "name": "stakableTokenAddress",
          "type": "address"
        },
        {
          "indexed": false,
          "internalType": "uint256[]",
          "name": "rewardsAmounts",
          "type": "uint256[]"
        },
        {
          "indexed": false,
          "internalType": "uint64",
          "name": "startingTimestamp",
          "type": "uint64"
        },
        {
          "indexed": false,
          "internalType": "uint64",
          "name": "endingTimestamp",
          "type": "uint64"
        },
        {
          "indexed": false,
          "internalType": "bool",
          "name": "locked",
          "type": "bool"
        },
        {
          "indexed": false,
          "internalType": "uint256",
          "name": "stakingCap",
          "type": "uint256"
        }
      ],
      "name": "Initialized",
      "type": "event"
    },
    {
      "anonymous": false,
      "inputs": [
        {
          "indexed": true,
          "internalType": "address",
          "name": "previousOwner",
          "type": "address"
        },
        {
          "indexed": true,
          "internalType": "address",
          "name": "newOwner",
          "type": "address"
        }
      ],
      "name": "OwnershipTransferred",
      "type": "event"
    },
    {
      "anonymous": false,
      "inputs": [
        {
          "indexed": false,
          "internalType": "uint256[]",
          "name": "amounts",
          "type": "uint256[]"
        }
      ],
      "name": "Recovered",
      "type": "event"
    },
    {
      "anonymous": false,
      "inputs": [
        {
          "indexed": true,
          "internalType": "address",
          "name": "staker",
          "type": "address"
        },
        {
          "indexed": false,
          "internalType": "uint256",
          "name": "amount",
          "type": "uint256"
        }
      ],
      "name": "Staked",
      "type": "event"
    },
    {
      "anonymous": false,
      "inputs": [
        {
          "indexed": true,
          "internalType": "address",
          "name": "withdrawer",
          "type": "address"
        },
        {
          "indexed": false,
          "internalType": "uint256",
          "name": "amount",
          "type": "uint256"
        }
      ],
      "name": "Withdrawn",
      "type": "event"
    },
    {
      "inputs": [],
      "name": "cancel",
      "outputs": [],
      "stateMutability": "nonpayable",
      "type": "function"
    },
    {
      "inputs": [],
      "name": "canceled",
      "outputs": [
        {
          "internalType": "bool",
          "name": "",
          "type": "bool"
        }
      ],
      "stateMutability": "view",
      "type": "function"
    },
    {
      "inputs": [
        {
          "internalType": "uint256[]",
          "name": "_amounts",
          "type": "uint256[]"
        },
        {
          "internalType": "address",
          "name": "_recipient",
          "type": "address"
        }
      ],
      "name": "claim",
      "outputs": [],
      "stateMutability": "nonpayable",
      "type": "function"
    },
    {
      "inputs": [
        {
          "internalType": "address",
          "name": "_recipient",
          "type": "address"
        }
      ],
      "name": "claimAll",
      "outputs": [],
      "stateMutability": "nonpayable",
      "type": "function"
    },
    {
      "inputs": [
        {
          "internalType": "address",
          "name": "_account",
          "type": "address"
        }
      ],
      "name": "claimableRewards",
      "outputs": [
        {
          "internalType": "uint256[]",
          "name": "",
          "type": "uint256[]"
        }
      ],
      "stateMutability": "view",
      "type": "function"
    },
    {
      "inputs": [
        {
          "internalType": "address",
          "name": "_staker",
          "type": "address"
        }
      ],
      "name": "earnedRewardsOf",
      "outputs": [
        {
          "internalType": "uint256[]",
          "name": "",
          "type": "uint256[]"
        }
      ],
      "stateMutability": "view",
      "type": "function"
    },
    {
      "inputs": [],
      "name": "endingTimestamp",
      "outputs": [
        {
          "internalType": "uint64",
          "name": "",
          "type": "uint64"
        }
      ],
      "stateMutability": "view",
      "type": "function"
    },
    {
      "inputs": [
        {
          "internalType": "address",
          "name": "_recipient",
          "type": "address"
        }
      ],
      "name": "exit",
      "outputs": [],
      "stateMutability": "nonpayable",
      "type": "function"
    },
    {
      "inputs": [],
      "name": "factory",
      "outputs": [
        {
          "internalType": "address",
          "name": "",
          "type": "address"
        }
      ],
      "stateMutability": "view",
      "type": "function"
    },
    {
      "inputs": [
        {
          "internalType": "address",
          "name": "_claimer",
          "type": "address"
        }
      ],
      "name": "getClaimedRewards",
      "outputs": [
        {
          "internalType": "uint256[]",
          "name": "",
          "type": "uint256[]"
        }
      ],
      "stateMutability": "view",
      "type": "function"
    },
    {
      "inputs": [],
      "name": "getRewardTokens",
      "outputs": [
        {
          "internalType": "address[]",
          "name": "",
          "type": "address[]"
        }
      ],
      "stateMutability": "view",
      "type": "function"
    },
    {
      "inputs": [
        {
          "internalType": "address[]",
          "name": "_rewardTokenAddresses",
          "type": "address[]"
        },
        {
          "internalType": "address",
          "name": "_stakableTokenAddress",
          "type": "address"
        },
        {
          "internalType": "uint256[]",
          "name": "_rewardAmounts",
          "type": "uint256[]"
        },
        {
          "internalType": "uint64",
          "name": "_startingTimestamp",
          "type": "uint64"
        },
        {
          "internalType": "uint64",
          "name": "_endingTimestamp",
          "type": "uint64"
        },
        {
          "internalType": "bool",
          "name": "_locked",
          "type": "bool"
        },
        {
          "internalType": "uint256",
          "name": "_stakingCap",
          "type": "uint256"
        }
      ],
      "name": "initialize",
      "outputs": [],
      "stateMutability": "nonpayable",
      "type": "function"
    },
    {
      "inputs": [],
      "name": "initialized",
      "outputs": [
        {
          "internalType": "bool",
          "name": "",
          "type": "bool"
        }
      ],
      "stateMutability": "view",
      "type": "function"
    },
    {
      "inputs": [],
      "name": "lastConsolidationTimestamp",
      "outputs": [
        {
          "internalType": "uint64",
          "name": "",
          "type": "uint64"
        }
      ],
      "stateMutability": "view",
      "type": "function"
    },
    {
      "inputs": [],
      "name": "locked",
      "outputs": [
        {
          "internalType": "bool",
          "name": "",
          "type": "bool"
        }
      ],
      "stateMutability": "view",
      "type": "function"
    },
    {
      "inputs": [],
      "name": "owner",
      "outputs": [
        {
          "internalType": "address",
          "name": "",
          "type": "address"
        }
      ],
      "stateMutability": "view",
      "type": "function"
    },
    {
      "inputs": [],
      "name": "recoverUnassignedRewards",
      "outputs": [],
      "stateMutability": "nonpayable",
      "type": "function"
    },
    {
      "inputs": [
        {
          "internalType": "address",
          "name": "_rewardToken",
          "type": "address"
        }
      ],
      "name": "recoverableUnassignedReward",
      "outputs": [
        {
          "internalType": "uint256",
          "name": "",
          "type": "uint256"
        }
      ],
      "stateMutability": "view",
      "type": "function"
    },
    {
      "inputs": [],
      "name": "renounceOwnership",
      "outputs": [],
      "stateMutability": "nonpayable",
      "type": "function"
    },
    {
      "inputs": [
        {
          "internalType": "address",
          "name": "_rewardToken",
          "type": "address"
        }
      ],
      "name": "rewardAmount",
      "outputs": [
        {
          "internalType": "uint256",
          "name": "",
          "type": "uint256"
        }
      ],
      "stateMutability": "view",
      "type": "function"
    },
    {
      "inputs": [
        {
          "internalType": "uint256",
          "name": "",
          "type": "uint256"
        }
      ],
      "name": "rewards",
      "outputs": [
        {
          "internalType": "address",
          "name": "token",
          "type": "address"
        },
        {
          "internalType": "uint256",
          "name": "amount",
          "type": "uint256"
        },
        {
          "internalType": "uint256",
          "name": "perStakedToken",
          "type": "uint256"
        },
        {
          "internalType": "uint256",
          "name": "recoverableSeconds",
          "type": "uint256"
        },
        {
          "internalType": "uint256",
          "name": "claimed",
          "type": "uint256"
        }
      ],
      "stateMutability": "view",
      "type": "function"
    },
    {
      "inputs": [],
      "name": "secondsDuration",
      "outputs": [
        {
          "internalType": "uint64",
          "name": "",
          "type": "uint64"
        }
      ],
      "stateMutability": "view",
      "type": "function"
    },
    {
      "inputs": [],
      "name": "stakableToken",
      "outputs": [
        {
          "internalType": "contract IERC20",
          "name": "",
          "type": "address"
        }
      ],
      "stateMutability": "view",
      "type": "function"
    },
    {
      "inputs": [
        {
          "internalType": "uint256",
          "name": "_amount",
          "type": "uint256"
        }
      ],
      "name": "stake",
      "outputs": [],
      "stateMutability": "nonpayable",
      "type": "function"
    },
    {
      "inputs": [
        {
          "internalType": "address",
          "name": "_staker",
          "type": "address"
        }
      ],
      "name": "stakedTokensOf",
      "outputs": [
        {
          "internalType": "uint256",
          "name": "",
          "type": "uint256"
        }
      ],
      "stateMutability": "view",
      "type": "function"
    },
    {
      "inputs": [
        {
          "internalType": "address",
          "name": "",
          "type": "address"
        }
      ],
      "name": "stakers",
      "outputs": [
        {
          "internalType": "uint256",
          "name": "stake",
          "type": "uint256"
        }
      ],
      "stateMutability": "view",
      "type": "function"
    },
    {
      "inputs": [],
      "name": "stakingCap",
      "outputs": [
        {
          "internalType": "uint256",
          "name": "",
          "type": "uint256"
        }
      ],
      "stateMutability": "view",
      "type": "function"
    },
    {
      "inputs": [],
      "name": "startingTimestamp",
      "outputs": [
        {
          "internalType": "uint64",
          "name": "",
          "type": "uint64"
        }
      ],
      "stateMutability": "view",
      "type": "function"
    },
    {
      "inputs": [],
      "name": "totalStakedTokensAmount",
      "outputs": [
        {
          "internalType": "uint256",
          "name": "",
          "type": "uint256"
        }
      ],
      "stateMutability": "view",
      "type": "function"
    },
    {
      "inputs": [
        {
          "internalType": "address",
          "name": "_newOwner",
          "type": "address"
        }
      ],
      "name": "transferOwnership",
      "outputs": [],
      "stateMutability": "nonpayable",
      "type": "function"
    },
    {
      "inputs": [
        {
          "internalType": "uint256",
          "name": "_amount",
          "type": "uint256"
        }
      ],
      "name": "withdraw",
      "outputs": [],
      "stateMutability": "nonpayable",
      "type": "function"
    },
    {
      "inputs": [],
      "name": "isUpgraded",
      "outputs": [
        {
          "internalType": "bool",
          "name": "",
          "type": "bool"
        }
      ],
      "stateMutability": "pure",
      "type": "function"
    }
  ],
  "bytecode": "0x608060405234801561001057600080fd5b50612b51806100206000396000f3fe608060405234801561001057600080fd5b50600436106101f05760003560e01c80639168ae721161010f578063c45a0155116100a2578063e644067d11610071578063e644067d1461047d578063ea8a1af014610485578063f2fde38b1461048d578063f301af42146104a057600080fd5b8063c45a01551461042e578063c4f59f9b14610441578063cf30901214610456578063dc01f60d1461046a57600080fd5b8063b41fa979116100de578063b41fa979146103e5578063b42652e9146103ee578063b9e35db014610401578063c10de3001461041457600080fd5b80639168ae72146103695780639322776e14610389578063a694fc3a146103a9578063ab08d4fc146103bc57600080fd5b80635e5294b71161018757806377329f351161015657806377329f351461031d57806388786272146103305780638c574b48146103435780638da5cb5b1461035657600080fd5b80635e5294b7146102b65780635fa35023146102e8578063645a8a5614610302578063715018a61461031557600080fd5b80633b34ee50116101c35780633b34ee50146102715780633f9942ff1461029257806342c80fc9146102a657806344c370d3146102ad57600080fd5b8063158ef93e146101f55780631c96c3fb1461021e57806323a26e36146102495780632e1a7d4d1461025e575b600080fd5b60055461020990600160b01b900460ff1681565b60405190151581526020015b60405180910390f35b600354610231906001600160a01b031681565b6040516001600160a01b039091168152602001610215565b61025c6102573660046125f3565b6104e5565b005b61025c61026c3660046127a7565b610a14565b61028461027f3660046125d8565b610bd0565b604051908152602001610215565b60055461020990600160a81b900460ff1681565b6001610209565b61028460075481565b6002546102d090600160401b90046001600160401b031681565b6040516001600160401b039091168152602001610215565b6002546102d090600160801b90046001600160401b031681565b6102846103103660046125d8565b610d27565b61025c610d8f565b61025c61032b3660046125d8565b610df8565b6002546102d0906001600160401b031681565b61025c6103513660046126b4565b611027565b600454610231906001600160a01b031681565b6102846103773660046125d8565b60016020526000908152604090205481565b61039c6103973660046125d8565b6112e8565b604051610215919061291f565b61025c6103b73660046127a7565b6113d4565b6102846103ca3660046125d8565b6001600160a01b031660009081526001602052604090205490565b61028460065481565b61025c6103fc3660046125d8565b611637565b61039c61040f3660046125d8565b6116b2565b6002546102d090600160c01b90046001600160401b031681565b600554610231906001600160a01b031681565b610449611799565b60405161021591906128d2565b60055461020990600160a01b900460ff1681565b61039c6104783660046125d8565b611865565b61025c611ad1565b61025c611d7d565b61025c61049b3660046125d8565b611f61565b6104b36104ae3660046127a7565b612025565b604080516001600160a01b0390961686526020860194909452928401919091526060830152608082015260a001610215565b600554600160b01b900460ff161561052c5760405162461bcd60e51b81526020600482015260056024820152640a6a48862760db1b60448201526064015b60405180910390fd5b42846001600160401b03161161056c5760405162461bcd60e51b8152602060048201526005602482015264535244303160d81b6044820152606401610523565b836001600160401b0316836001600160401b0316116105b55760405162461bcd60e51b815260206004820152600560248201526429a922181960d91b6044820152606401610523565b8785146105ec5760405162461bcd60e51b8152602060048201526005602482015264535244303360d81b6044820152606401610523565b6105f68484612a38565b600260106101000a8154816001600160401b0302191690836001600160401b0316021790555060005b63ffffffff81168911156108d35760008a8a8363ffffffff1681811061064757610647612ae1565b905060200201602081019061065c91906125d8565b9050600088888463ffffffff1681811061067857610678612ae1565b60200291909101359150506001600160a01b0382166106c15760405162461bcd60e51b815260206004820152600560248201526414d4910c0d60da1b6044820152606401610523565b600081116106f95760405162461bcd60e51b8152602060048201526005602482015264535244303560d81b6044820152606401610523565b6040516370a0823160e01b8152306004820152829082906001600160a01b038316906370a082319060240160206040518083038186803b15801561073c57600080fd5b505afa158015610750573d6000803e3d6000fd5b505050506040513d601f19601f8201168201806040525081019061077491906127c0565b10156107aa5760405162461bcd60e51b815260206004820152600560248201526429a922181b60d91b6044820152606401610523565b506040805160a0810182526001600160a01b0393841681526020810192835260009181018281526060820183815260808301848152845460018101865594805292517f290decd9548b62a8d60345a988386fc84ba6bc95484008f6362f93160ef3e563600590950294850180546001600160a01b031916919097161790955592517f290decd9548b62a8d60345a988386fc84ba6bc95484008f6362f93160ef3e56483015591517f290decd9548b62a8d60345a988386fc84ba6bc95484008f6362f93160ef3e56582015591517f290decd9548b62a8d60345a988386fc84ba6bc95484008f6362f93160ef3e566830155517f290decd9548b62a8d60345a988386fc84ba6bc95484008f6362f93160ef3e56790910155806108cb81612aa7565b91505061061f565b506001600160a01b0387166109125760405162461bcd60e51b8152602060048201526005602482015264535244303760d81b6044820152606401610523565b600380546001600160a01b03199081166001600160a01b038a1617909155600480543392168217905560058054600280546fffffffffffffffffffffffffffffffff19166001600160401b03898116918217600160401b918a1691909102176001600160c01b0316600160c01b919091021790556007849055600160b01b6001600160a81b031990911660ff60a01b1990931692909217600160a01b851515021761ffff60a81b19169190911790556040517f2c1fa4f0e3f1c67636ee0b3665bf3a04407a2c1332d4e3e99f941ee2b0b9daf490610a01908b908b908b908b908b908b908b908b908b9061282b565b60405180910390a1505050505050505050565b600554600160b01b900460ff168015610a375750600554600160a81b900460ff16155b8015610a4e57506002546001600160401b03164210155b610a6a5760405162461bcd60e51b81526004016105239061298a565b60008111610aa25760405162461bcd60e51b8152602060048201526005602482015264535244313160d81b6044820152606401610523565b600554600160a01b900460ff1615610afd57600254600160401b90046001600160401b03164211610afd5760405162461bcd60e51b815260206004820152600560248201526429a922189960d91b6044820152606401610523565b610b05612070565b3360009081526001602052604090208054821115610b4d5760405162461bcd60e51b8152602060048201526005602482015264535244313360d81b6044820152606401610523565b81816000016000828254610b619190612a21565b925050819055508160066000828254610b7a9190612a21565b9091555050600354610b96906001600160a01b03163384612252565b60405182815233907f7084f5476618d8e60b11ef0d7d3f06914655adb8793e28ff7f018d4c76d505d5906020015b60405180910390a25050565b6000805b600054811015610d1e576000808281548110610bf257610bf2612ae1565b6000918252602090912060059091020180549091506001600160a01b0385811691161415610d0b57600254600090610c3f90600160701b90600160801b90046001600160401b0316612a02565b82600101548360030154610c539190612a02565b610c5d91906129e0565b8260040154610c6c91906129c8565b9050808260010154610c7e9190612a21565b82546040516370a0823160e01b81523060048201526001600160a01b03909116906370a082319060240160206040518083038186803b158015610cc057600080fd5b505afa158015610cd4573d6000803e3d6000fd5b505050506040513d601f19601f82011682018060405250810190610cf891906127c0565b610d029190612a21565b95945050505050565b5080610d1681612a8c565b915050610bd4565b50600092915050565b6000805b600054811015610d1e576000808281548110610d4957610d49612ae1565b6000918252602090912060059091020180549091506001600160a01b0385811691161415610d7c57600101549392505050565b5080610d8781612a8c565b915050610d2b565b6004546001600160a01b03163314610db95760405162461bcd60e51b8152600401610523906129a9565b600480546001600160a01b031916905560405160009081907f8be0079c531659141344cd1fd0a4f28419497f9722a3daafe3b4186f6b6457e0908290a3565b600554600160b01b900460ff168015610e1b5750600554600160a81b900460ff16155b8015610e3257506002546001600160401b03164210155b610e4e5760405162461bcd60e51b81526004016105239061298a565b610e56612070565b33600090815260016020526040812081549091906001600160401b03811115610e8157610e81612af7565b604051908082528060200260200182016040528015610eaa578160200160208202803683370190505b5090506000805b600054811015610faa576000808281548110610ecf57610ecf612ae1565b60009182526020808320600590920290910180546001600160a01b031683526001808901909252604083206002810154928101549194509291610f1191612a21565b905084158015610f215750600081115b15610f2b57600194505b80826002016000828254610f3f91906129c8565b9250508190555080836004016000828254610f5a91906129c8565b90915550508254610f75906001600160a01b03168983612252565b80868581518110610f8857610f88612ae1565b6020026020010181815250505050508080610fa290612a8c565b915050610eb1565b5080610fe05760405162461bcd60e51b8152602060048201526005602482015264535244323360d81b6044820152606401610523565b336001600160a01b03167f28ee566bdecaf975c0979f4d09fecf91a9009ffe78523aef053a678134137b8b83604051611019919061291f565b60405180910390a250505050565b600554600160b01b900460ff16801561104a5750600554600160a81b900460ff16155b801561106157506002546001600160401b03164210155b61107d5760405162461bcd60e51b81526004016105239061298a565b6000548251146110b75760405162461bcd60e51b815260206004820152600560248201526414d4910c4d60da1b6044820152606401610523565b6110bf612070565b33600090815260016020526040812081549091906001600160401b038111156110ea576110ea612af7565b604051908082528060200260200182016040528015611113578160200160208202803683370190505b5090506000805b60005481101561126a57600080828154811061113857611138612ae1565b60009182526020808320600590920290910180546001600160a01b03168352600180890190925260408320600281015492810154919450929161117a91612a21565b9050600089858151811061119057611190612ae1565b60200260200101519050808210156111d25760405162461bcd60e51b8152602060048201526005602482015264535244313560d81b6044820152606401610523565b851580156111e05750600081115b156111ea57600195505b808360020160008282546111fe91906129c8565b925050819055508084600401600082825461121991906129c8565b90915550508354611234906001600160a01b03168a83612252565b8087868151811061124757611247612ae1565b60200260200101818152505050505050808061126290612a8c565b91505061111a565b50806112a05760405162461bcd60e51b815260206004820152600560248201526414d4910c8d60da1b6044820152606401610523565b336001600160a01b03167f28ee566bdecaf975c0979f4d09fecf91a9009ffe78523aef053a678134137b8b836040516112d9919061291f565b60405180910390a25050505050565b6001600160a01b03811660009081526001602052604081208154606092906001600160401b0381111561131d5761131d612af7565b604051908082528060200260200182016040528015611346578160200160208202803683370190505b50905060005b6000548110156113cc5782600101600080838154811061136e5761136e612ae1565b600091825260208083206005909202909101546001600160a01b0316835282019290925260400190206001015482518390839081106113af576113af612ae1565b6020908102919091010152806113c481612a8c565b91505061134c565b509392505050565b600554600160b01b900460ff1680156113f75750600554600160a81b900460ff16155b801561140e57506002546001600160401b03164210155b801561142c5750600254600160401b90046001600160401b03164211155b6114605760405162461bcd60e51b8152602060048201526005602482015264535244323160d81b6044820152606401610523565b600560009054906101000a90046001600160a01b03166001600160a01b031663bbb781cc6040518163ffffffff1660e01b8152600401602060405180830381600087803b1580156114b057600080fd5b505af11580156114c4573d6000803e3d6000fd5b505050506040513d601f19601f820116820180604052508101906114e8919061278a565b1561151d5760405162461bcd60e51b8152602060048201526005602482015264535244323560d81b6044820152606401610523565b600081116115555760405162461bcd60e51b8152602060048201526005602482015264535244303960d81b6044820152606401610523565b600754156115a4576007548160065461156e91906129c8565b11156115a45760405162461bcd60e51b8152602060048201526005602482015264053524431360dc1b6044820152606401610523565b6115ac612070565b3360009081526001602052604081208054909183918391906115cf9084906129c8565b9250508190555081600660008282546115e891906129c8565b9091555050600354611605906001600160a01b03163330856122ba565b60405182815233907f9e71bc8eea02a63969f509818f2dafb9254532904319f9dbda79b67bd34a5f3d90602001610bc4565b600554600160b01b900460ff16801561165a5750600554600160a81b900460ff16155b801561167157506002546001600160401b03164210155b61168d5760405162461bcd60e51b81526004016105239061298a565b61169681610df8565b336000908152600160205260409020546116af90610a14565b50565b6001600160a01b03811660009081526001602052604081208154606092906001600160401b038111156116e7576116e7612af7565b604051908082528060200260200182016040528015611710578160200160208202803683370190505b50905060005b6000548110156113cc57600080828154811061173457611734612ae1565b60009182526020808320600590920290910180546001600160a01b031683526001870190915260409091206002015484519192509084908490811061177b5761177b612ae1565b6020908102919091010152508061179181612a8c565b915050611716565b60008054606091906001600160401b038111156117b8576117b8612af7565b6040519080825280602002602001820160405280156117e1578160200160208202803683370190505b50905060005b60005481101561185f576000818154811061180457611804612ae1565b600091825260209091206005909102015482516001600160a01b039091169083908390811061183557611835612ae1565b6001600160a01b03909216602092830291909101909101528061185781612a8c565b9150506117e7565b50919050565b60008054606091906001600160401b0381111561188457611884612af7565b6040519080825280602002602001820160405280156118ad578160200160208202803683370190505b50600554909150600160b01b900460ff1615806118d457506002546001600160401b031642105b1561191e5760005b6000548110156119175760008282815181106118fa576118fa612ae1565b60209081029190910101528061190f81612a8c565b9150506118dc565b5092915050565b6001600160a01b0383166000908152600160205260408120600254909190611957904290600160401b90046001600160401b03166122f8565b60025490915060009061197a90600160c01b90046001600160401b031683612a38565b6001600160401b0316905060005b600054811015611ac65760008082815481106119a6576119a6612ae1565b60009182526020808320600590920290910180546001600160a01b0316835260018801909152604090912060028201549192509084158015906119eb57506000600654115b15611a4657600254600654611a1091600160801b90046001600160401b031690612a02565b6001840154600160701b90611a259088612a02565b611a2f9190612a02565b611a3991906129e0565b611a4390826129c8565b90505b8154600090600160701b90611a5b9084612a21565b8954611a679190612a02565b611a7191906129e0565b905082600201548360010154611a879190612a21565b611a9190826129c8565b898681518110611aa357611aa3612ae1565b602002602001018181525050505050508080611abe90612a8c565b915050611988565b509295945050505050565b600554600160b01b900460ff168015611af45750600554600160a81b900460ff16155b8015611b0b57506002546001600160401b03164210155b611b275760405162461bcd60e51b81526004016105239061298a565b611b2f612070565b600080546001600160401b03811115611b4a57611b4a612af7565b604051908082528060200260200182016040528015611b73578160200160208202803683370190505b5090506000805b600054811015611d0c576000808281548110611b9857611b98612ae1565b600091825260209091206002546005909202019150611bcc90600160701b90600160801b90046001600160401b0316612a02565b81600101548260030154611be09190612a02565b611bea91906129e0565b816004016000828254611bfd91906129c8565b909155505060006003820181905560048201546001830154611c1f9190612a21565b82546040516370a0823160e01b81523060048201526001600160a01b03909116906370a082319060240160206040518083038186803b158015611c6157600080fd5b505afa158015611c75573d6000803e3d6000fd5b505050506040513d601f19601f82011682018060405250810190611c9991906127c0565b611ca39190612a21565b905083158015611cb35750600081115b15611cbd57600193505b80858481518110611cd057611cd0612ae1565b60209081029190910101526004548254611cf7916001600160a01b03918216911683612252565b50508080611d0490612a8c565b915050611b7a565b5080611d425760405162461bcd60e51b815260206004820152600560248201526429a922191960d91b6044820152606401610523565b7ff904fafa600a7e4e8039f3a5497d1b6016772e3060f87d3e40f911b315f00bd182604051611d71919061291f565b60405180910390a15050565b6004546001600160a01b03163314611da75760405162461bcd60e51b8152600401610523906129a9565b600554600160b01b900460ff168015611dca5750600554600160a81b900460ff16155b611dfe5760405162461bcd60e51b8152602060048201526005602482015264535244313960d81b6044820152606401610523565b6002546001600160401b03164210611e405760405162461bcd60e51b81526020600482015260056024820152640a6a48860760db1b6044820152606401610523565b60005b600054811015611f22576000808281548110611e6157611e61612ae1565b6000918252602090912060048054600590930290910180546040516370a0823160e01b81523093810193909352909350611f0f926001600160a01b03908116929116906370a082319060240160206040518083038186803b158015611ec557600080fd5b505afa158015611ed9573d6000803e3d6000fd5b505050506040513d601f19601f82011682018060405250810190611efd91906127c0565b83546001600160a01b03169190612252565b5080611f1a81612a8c565b915050611e43565b506005805460ff60a81b1916600160a81b1790556040517f1afb0ae590df277bcb3a37f88612725bf1f7df4755792b1548a7efe77985ff7790600090a1565b6004546001600160a01b03163314611f8b5760405162461bcd60e51b8152600401610523906129a9565b6001600160a01b038116611fc95760405162461bcd60e51b815260206004820152600560248201526429a922189b60d91b6044820152606401610523565b6004546040516001600160a01b038084169216907f8be0079c531659141344cd1fd0a4f28419497f9722a3daafe3b4186f6b6457e090600090a3600480546001600160a01b0319166001600160a01b0392909216919091179055565b6000818154811061203557600080fd5b6000918252602090912060059091020180546001820154600283015460038401546004909401546001600160a01b0390931694509092909185565b600254600090612091904290600160401b90046001600160401b03166122f8565b6002549091506000906120b490600160c01b90046001600160401b031683612a38565b3360009081526001602052604081206001600160401b039290921692505b6000548110156122265760008082815481106120f0576120f0612ae1565b60009182526020808320600590920290910180546001600160a01b0316835260018601909152604090912090915084156121b95760065461215757612139600160701b86612a02565b82600301600082825461214c91906129c8565b909155506121b99050565b60025460065461217791600160801b90046001600160401b031690612a02565b6001830154600160701b9061218c9088612a02565b6121969190612a02565b6121a091906129e0565b8260020160008282546121b391906129c8565b90915550505b80546002830154600091600160701b916121d39190612a21565b86546121df9190612a02565b6121e991906129e0565b9050801561220b578082600101600082825461220591906129c8565b90915550505b5060029091015490558061221e81612a8c565b9150506120d2565b5050600280546001600160401b03909316600160c01b026001600160c01b039093169290921790915550565b6040516001600160a01b0383166024820152604481018290526122b590849063a9059cbb60e01b906064015b60408051601f198184030181529190526020810180516001600160e01b03166001600160e01b031990931692909217909152612310565b505050565b6040516001600160a01b03808516602483015283166044820152606481018290526122f29085906323b872dd60e01b9060840161227e565b50505050565b60008183106123075781612309565b825b9392505050565b6000612365826040518060400160405280602081526020017f5361666545524332303a206c6f772d6c6576656c2063616c6c206661696c6564815250856001600160a01b03166123e29092919063ffffffff16565b8051909150156122b55780806020019051810190612383919061278a565b6122b55760405162461bcd60e51b815260206004820152602a60248201527f5361666545524332303a204552433230206f7065726174696f6e20646964206e6044820152691bdd081cdd58d8d9595960b21b6064820152608401610523565b60606123f184846000856123f9565b949350505050565b60608247101561245a5760405162461bcd60e51b815260206004820152602660248201527f416464726573733a20696e73756666696369656e742062616c616e636520666f6044820152651c8818d85b1b60d21b6064820152608401610523565b843b6124a85760405162461bcd60e51b815260206004820152601d60248201527f416464726573733a2063616c6c20746f206e6f6e2d636f6e74726163740000006044820152606401610523565b600080866001600160a01b031685876040516124c4919061280f565b60006040518083038185875af1925050503d8060008114612501576040519150601f19603f3d011682016040523d82523d6000602084013e612506565b606091505b5091509150612516828286612521565b979650505050505050565b60608315612530575081612309565b8251156125405782518084602001fd5b8160405162461bcd60e51b81526004016105239190612957565b80356001600160a01b038116811461257157600080fd5b919050565b60008083601f84011261258857600080fd5b5081356001600160401b0381111561259f57600080fd5b6020830191508360208260051b85010111156125ba57600080fd5b9250929050565b80356001600160401b038116811461257157600080fd5b6000602082840312156125ea57600080fd5b6123098261255a565b600080600080600080600080600060e08a8c03121561261157600080fd5b89356001600160401b038082111561262857600080fd5b6126348d838e01612576565b909b50995089915061264860208d0161255a565b985060408c013591508082111561265e57600080fd5b5061266b8c828d01612576565b909750955061267e905060608b016125c1565b935061268c60808b016125c1565b925060a08a013561269c81612b0d565b8092505060c08a013590509295985092959850929598565b600080604083850312156126c757600080fd5b82356001600160401b03808211156126de57600080fd5b818501915085601f8301126126f257600080fd5b813560208282111561270657612706612af7565b8160051b604051601f19603f8301168101818110868211171561272b5761272b612af7565b604052838152828101945085830182870184018b101561274a57600080fd5b600096505b8487101561276d57803586526001969096019594830194830161274f565b50965061277d905087820161255a565b9450505050509250929050565b60006020828403121561279c57600080fd5b815161230981612b0d565b6000602082840312156127b957600080fd5b5035919050565b6000602082840312156127d257600080fd5b5051919050565b81835260006001600160fb1b038311156127f257600080fd5b8260051b8083602087013760009401602001938452509192915050565b60008251612821818460208701612a60565b9190910192915050565b60e0808252810189905260008a6101008301825b8c81101561286d576001600160a01b036128588461255a565b1682526020928301929091019060010161283f565b506001600160a01b038b1660208501528381036040850152612890818a8c6127d9565b925050506128a960608301876001600160401b03169052565b6001600160401b0394909416608082015291151560a083015260c0909101529695505050505050565b6020808252825182820181905260009190848201906040850190845b818110156129135783516001600160a01b0316835292840192918401916001016128ee565b50909695505050505050565b6020808252825182820181905260009190848201906040850190845b818110156129135783518352928401929184019160010161293b565b6020815260008251806020840152612976816040850160208701612a60565b601f01601f19169190910160400192915050565b602080825260059082015264053524432360dc1b604082015260600190565b602080825260059082015264535244313760d81b604082015260600190565b600082198211156129db576129db612acb565b500190565b6000826129fd57634e487b7160e01b600052601260045260246000fd5b500490565b6000816000190483118215151615612a1c57612a1c612acb565b500290565b600082821015612a3357612a33612acb565b500390565b60006001600160401b0383811690831681811015612a5857612a58612acb565b039392505050565b60005b83811015612a7b578181015183820152602001612a63565b838111156122f25750506000910152565b6000600019821415612aa057612aa0612acb565b5060010190565b600063ffffffff80831681811415612ac157612ac1612acb565b6001019392505050565b634e487b7160e01b600052601160045260246000fd5b634e487b7160e01b600052603260045260246000fd5b634e487b7160e01b600052604160045260246000fd5b80151581146116af57600080fdfea264697066735822122003691b6530ae422039150a7b003c7fbec48a1e918b682069cc7d131e4f6a445a64736f6c63430008070033",
  "immutableReferences": {},
  "source": "//SPDX-License-Identifier: GPL-3.0\n\npragma solidity ^0.8.0;\n\nimport \"@openzeppelin/contracts/token/ERC20/presets/ERC20PresetMinterPauser.sol\";\nimport \"../ERC20StakingRewardsDistribution.sol\";\n\ncontract FirstRewardERC20 is ERC20PresetMinterPauser {\n    constructor() ERC20PresetMinterPauser(\"First reward\", \"RWD1\") {}\n}\n\ncontract SecondRewardERC20 is ERC20PresetMinterPauser {\n    constructor() ERC20PresetMinterPauser(\"Second reward\", \"RWD2\") {}\n}\n\ncontract ZeroDecimalsRewardERC20 is ERC20PresetMinterPauser {\n    constructor() ERC20PresetMinterPauser(\"Zero decimals reward\", \"ZDRWD\") {}\n\n    function decimals() public pure override returns (uint8) {\n        return 0;\n    }\n}\n\ncontract FirstStakableERC20 is ERC20PresetMinterPauser {\n    constructor() ERC20PresetMinterPauser(\"First stakable\", \"STK1\") {}\n}\n\ncontract SecondStakableERC20 is ERC20PresetMinterPauser {\n    constructor() ERC20PresetMinterPauser(\"Second stakable\", \"STK2\") {}\n}\n\ncontract UpgradedERC20StakingRewardsDistribution is\n    ERC20StakingRewardsDistribution\n{\n    function isUpgraded() external pure returns (bool) {\n        return true;\n    }\n}\n",
  "sourcePath": "/home/luzzif/Projects/swapr-lp-staker/contracts/test/TestDependencies.sol",
  "compiler": {
    "name": "solc",
    "version": "0.8.7+commit.e28d00a7.Emscripten.clang"
  },
  "schemaVersion": "3.3.3",
  "updatedAt": "2021-09-27T09:42:54.330Z",
  "devdoc": {
    "kind": "dev",
    "methods": {},
    "version": 1
  },
  "userdoc": {
    "kind": "user",
    "methods": {},
    "version": 1
  }
}