{
  "contractName": "UpgradedERC20StakingRewardsDistribution",
  "abi": [
    {
      "anonymous": false,
      "inputs": [],
      "name": "Canceled",
      "type": "event"
    },
    {
      "anonymous": false,
      "inputs": [
        {
          "indexed": true,
          "internalType": "address",
          "name": "claimer",
          "type": "address"
        },
        {
          "indexed": false,
          "internalType": "uint256[]",
          "name": "amounts",
          "type": "uint256[]"
        }
      ],
      "name": "Claimed",
      "type": "event"
    },
    {
      "anonymous": false,
      "inputs": [
        {
          "indexed": false,
          "internalType": "address[]",
          "name": "rewardsTokenAddresses",
          "type": "address[]"
        },
        {
          "indexed": false,
          "internalType": "address",
          "name": "stakableTokenAddress",
          "type": "address"
        },
        {
          "indexed": false,
          "internalType": "uint256[]",
          "name": "rewardsAmounts",
          "type": "uint256[]"
        },
        {
          "indexed": false,
          "internalType": "uint64",
          "name": "startingTimestamp",
          "type": "uint64"
        },
        {
          "indexed": false,
          "internalType": "uint64",
          "name": "endingTimestamp",
          "type": "uint64"
        },
        {
          "indexed": false,
          "internalType": "bool",
          "name": "locked",
          "type": "bool"
        },
        {
          "indexed": false,
          "internalType": "uint256",
          "name": "stakingCap",
          "type": "uint256"
        }
      ],
      "name": "Initialized",
      "type": "event"
    },
    {
      "anonymous": false,
      "inputs": [
        {
          "indexed": true,
          "internalType": "address",
          "name": "previousOwner",
          "type": "address"
        },
        {
          "indexed": true,
          "internalType": "address",
          "name": "newOwner",
          "type": "address"
        }
      ],
      "name": "OwnershipTransferred",
      "type": "event"
    },
    {
      "anonymous": false,
      "inputs": [
        {
          "indexed": false,
          "internalType": "uint256[]",
          "name": "amounts",
          "type": "uint256[]"
        }
      ],
      "name": "Recovered",
      "type": "event"
    },
    {
      "anonymous": false,
      "inputs": [
        {
          "indexed": true,
          "internalType": "address",
          "name": "staker",
          "type": "address"
        },
        {
          "indexed": false,
          "internalType": "uint256",
          "name": "amount",
          "type": "uint256"
        }
      ],
      "name": "Staked",
      "type": "event"
    },
    {
      "anonymous": false,
      "inputs": [
        {
          "indexed": true,
          "internalType": "address",
          "name": "withdrawer",
          "type": "address"
        },
        {
          "indexed": false,
          "internalType": "uint256",
          "name": "amount",
          "type": "uint256"
        }
      ],
      "name": "Withdrawn",
      "type": "event"
    },
    {
      "inputs": [],
      "name": "cancel",
      "outputs": [],
      "stateMutability": "nonpayable",
      "type": "function"
    },
    {
      "inputs": [
        {
          "internalType": "uint256[]",
          "name": "_amounts",
          "type": "uint256[]"
        },
        {
          "internalType": "address",
          "name": "_recipient",
          "type": "address"
        }
      ],
      "name": "claim",
      "outputs": [],
      "stateMutability": "nonpayable",
      "type": "function"
    },
    {
      "inputs": [
        {
          "internalType": "address",
          "name": "_recipient",
          "type": "address"
        }
      ],
      "name": "claimAll",
      "outputs": [],
      "stateMutability": "nonpayable",
      "type": "function"
    },
    {
      "inputs": [
        {
          "internalType": "address",
          "name": "_staker",
          "type": "address"
        }
      ],
      "name": "claimableRewards",
      "outputs": [
        {
          "internalType": "uint256[]",
          "name": "",
          "type": "uint256[]"
        }
      ],
      "stateMutability": "view",
      "type": "function"
    },
    {
      "inputs": [
        {
          "internalType": "address",
          "name": "",
          "type": "address"
        },
        {
          "internalType": "address",
          "name": "",
          "type": "address"
        }
      ],
      "name": "claimedReward",
      "outputs": [
        {
          "internalType": "uint256",
          "name": "",
          "type": "uint256"
        }
      ],
      "stateMutability": "view",
      "type": "function"
    },
    {
      "inputs": [],
      "name": "consolidateReward",
      "outputs": [],
      "stateMutability": "nonpayable",
      "type": "function"
    },
    {
      "inputs": [
        {
          "internalType": "address",
          "name": "",
          "type": "address"
        },
        {
          "internalType": "address",
          "name": "",
          "type": "address"
        }
      ],
      "name": "consolidatedRewardsPerStakedToken",
      "outputs": [
        {
          "internalType": "uint256",
          "name": "",
          "type": "uint256"
        }
      ],
      "stateMutability": "view",
      "type": "function"
    },
    {
      "inputs": [
        {
          "internalType": "address",
          "name": "",
          "type": "address"
        },
        {
          "internalType": "address",
          "name": "",
          "type": "address"
        }
      ],
      "name": "earnedRewards",
      "outputs": [
        {
          "internalType": "uint256",
          "name": "",
          "type": "uint256"
        }
      ],
      "stateMutability": "view",
      "type": "function"
    },
    {
      "inputs": [],
      "name": "endingTimestamp",
      "outputs": [
        {
          "internalType": "uint64",
          "name": "",
          "type": "uint64"
        }
      ],
      "stateMutability": "view",
      "type": "function"
    },
    {
      "inputs": [
        {
          "internalType": "address",
          "name": "_recipient",
          "type": "address"
        }
      ],
      "name": "exit",
      "outputs": [],
      "stateMutability": "nonpayable",
      "type": "function"
    },
    {
      "inputs": [
        {
          "internalType": "address",
          "name": "_claimer",
          "type": "address"
        }
      ],
      "name": "getClaimedRewards",
      "outputs": [
        {
          "internalType": "uint256[]",
          "name": "",
          "type": "uint256[]"
        }
      ],
      "stateMutability": "view",
      "type": "function"
    },
    {
      "inputs": [],
      "name": "getRewardTokens",
      "outputs": [
        {
          "internalType": "address[]",
          "name": "",
          "type": "address[]"
        }
      ],
      "stateMutability": "view",
      "type": "function"
    },
    {
      "inputs": [
        {
          "internalType": "address[]",
          "name": "_rewardTokenAddresses",
          "type": "address[]"
        },
        {
          "internalType": "address",
          "name": "_stakableTokenAddress",
          "type": "address"
        },
        {
          "internalType": "uint256[]",
          "name": "_rewardAmounts",
          "type": "uint256[]"
        },
        {
          "internalType": "uint64",
          "name": "_startingTimestamp",
          "type": "uint64"
        },
        {
          "internalType": "uint64",
          "name": "_endingTimestamp",
          "type": "uint64"
        },
        {
          "internalType": "bool",
          "name": "_locked",
          "type": "bool"
        },
        {
          "internalType": "uint256",
          "name": "_stakingCap",
          "type": "uint256"
        }
      ],
      "name": "initialize",
      "outputs": [],
      "stateMutability": "nonpayable",
      "type": "function"
    },
    {
      "inputs": [],
      "name": "initialized",
      "outputs": [
        {
          "internalType": "bool",
          "name": "",
          "type": "bool"
        }
      ],
      "stateMutability": "view",
      "type": "function"
    },
    {
      "inputs": [],
      "name": "lastConsolidationTimestamp",
      "outputs": [
        {
          "internalType": "uint64",
          "name": "",
          "type": "uint64"
        }
      ],
      "stateMutability": "view",
      "type": "function"
    },
    {
      "inputs": [],
      "name": "locked",
      "outputs": [
        {
          "internalType": "bool",
          "name": "",
          "type": "bool"
        }
      ],
      "stateMutability": "view",
      "type": "function"
    },
    {
      "inputs": [],
      "name": "owner",
      "outputs": [
        {
          "internalType": "address",
          "name": "",
          "type": "address"
        }
      ],
      "stateMutability": "view",
      "type": "function"
    },
    {
      "inputs": [],
      "name": "recoverUnassignedRewards",
      "outputs": [],
      "stateMutability": "nonpayable",
      "type": "function"
    },
    {
      "inputs": [],
      "name": "renounceOwnership",
      "outputs": [],
      "stateMutability": "nonpayable",
      "type": "function"
    },
    {
      "inputs": [
        {
          "internalType": "uint256",
          "name": "",
          "type": "uint256"
        }
      ],
      "name": "rewards",
      "outputs": [
        {
          "internalType": "address",
          "name": "token",
          "type": "address"
        },
        {
          "internalType": "uint256",
          "name": "amount",
          "type": "uint256"
        },
        {
          "internalType": "uint256",
          "name": "perStakedToken",
          "type": "uint256"
        },
        {
          "internalType": "uint256",
          "name": "recoverable",
          "type": "uint256"
        },
        {
          "internalType": "uint256",
          "name": "claimed",
          "type": "uint256"
        }
      ],
      "stateMutability": "view",
      "type": "function"
    },
    {
      "inputs": [],
      "name": "secondsDuration",
      "outputs": [
        {
          "internalType": "uint64",
          "name": "",
          "type": "uint64"
        }
      ],
      "stateMutability": "view",
      "type": "function"
    },
    {
      "inputs": [],
      "name": "stakableToken",
      "outputs": [
        {
          "internalType": "contract IERC20",
          "name": "",
          "type": "address"
        }
      ],
      "stateMutability": "view",
      "type": "function"
    },
    {
      "inputs": [
        {
          "internalType": "uint256",
          "name": "_amount",
          "type": "uint256"
        }
      ],
      "name": "stake",
      "outputs": [],
      "stateMutability": "nonpayable",
      "type": "function"
    },
    {
      "inputs": [
        {
          "internalType": "address",
          "name": "",
          "type": "address"
        }
      ],
      "name": "stakedTokenAmount",
      "outputs": [
        {
          "internalType": "uint256",
          "name": "",
          "type": "uint256"
        }
      ],
      "stateMutability": "view",
      "type": "function"
    },
    {
      "inputs": [
        {
          "internalType": "address",
          "name": "",
          "type": "address"
        }
      ],
      "name": "stakedTokensOf",
      "outputs": [
        {
          "internalType": "uint256",
          "name": "",
          "type": "uint256"
        }
      ],
      "stateMutability": "view",
      "type": "function"
    },
    {
      "inputs": [],
      "name": "stakingCap",
      "outputs": [
        {
          "internalType": "uint256",
          "name": "",
          "type": "uint256"
        }
      ],
      "stateMutability": "view",
      "type": "function"
    },
    {
      "inputs": [],
      "name": "startingTimestamp",
      "outputs": [
        {
          "internalType": "uint64",
          "name": "",
          "type": "uint64"
        }
      ],
      "stateMutability": "view",
      "type": "function"
    },
    {
      "inputs": [],
      "name": "totalStakedTokensAmount",
      "outputs": [
        {
          "internalType": "uint256",
          "name": "",
          "type": "uint256"
        }
      ],
      "stateMutability": "view",
      "type": "function"
    },
    {
      "inputs": [
        {
          "internalType": "address",
          "name": "_newOwner",
          "type": "address"
        }
      ],
      "name": "transferOwnership",
      "outputs": [],
      "stateMutability": "nonpayable",
      "type": "function"
    },
    {
      "inputs": [
        {
          "internalType": "uint256",
          "name": "_amount",
          "type": "uint256"
        }
      ],
      "name": "withdraw",
      "outputs": [],
      "stateMutability": "nonpayable",
      "type": "function"
    },
    {
      "inputs": [],
      "name": "isUpgraded",
      "outputs": [
        {
          "internalType": "bool",
          "name": "",
          "type": "bool"
        }
      ],
      "stateMutability": "pure",
      "type": "function"
    }
  ],
  "bytecode": "0x608060405234801561001057600080fd5b50612909806100206000396000f3fe608060405234801561001057600080fd5b50600436106101e55760003560e01c80638c574b481161010f578063c4f59f9b116100a2578063e66d85be11610071578063e66d85be14610471578063ea8a1af014610491578063f2fde38b14610499578063f301af42146104ac57600080fd5b8063c4f59f9b1461042d578063cf30901214610442578063dc01f60d14610456578063e644067d1461046957600080fd5b8063b41fa979116100de578063b41fa979146103d9578063b42652e9146103e2578063b9e35db0146103f5578063c10de3001461041557600080fd5b80638c574b48146103805780638da5cb5b14610393578063a694fc3a146103a6578063ab08d4fc146103b957600080fd5b80635e5294b711610187578063728e4a6711610156578063728e4a671461030457806375b8dbf81461032f57806377329f351461035a578063887862721461036d57600080fd5b80635e5294b7146102a85780635fa35023146102da5780636715dcb8146102f4578063715018a6146102fc57600080fd5b80632e1a7d4d116101c35780632e1a7d4d1461024c57806334380a611461025f57806342c80fc91461029857806344c370d31461029f57600080fd5b8063158ef93e146101ea5780631c96c3fb1461020c57806323a26e3614610237575b600080fd5b6007546101f79060ff1681565b60405190151581526020015b60405180910390f35b60025461021f906001600160a01b031681565b6040516001600160a01b039091168152602001610203565b61024a6102453660046123d0565b6104f1565b005b61024a61025a36600461257b565b610a1f565b61028a61026d36600461239e565b600b60209081526000928352604080842090915290825290205481565b604051908152602001610203565b60016101f7565b61028a60065481565b6005546102c290600160401b90046001600160401b031681565b6040516001600160401b039091168152602001610203565b6005546102c290600160801b90046001600160401b031681565b61024a610bc7565b61024a610e8a565b61028a61031236600461239e565b600a60209081526000928352604080842090915290825290205481565b61028a61033d36600461239e565b600960209081526000928352604080842090915290825290205481565b61024a610368366004612384565b610ef0565b6005546102c2906001600160401b031681565b61024a61038e36600461248e565b6110a1565b60005461021f906001600160a01b031681565b61024a6103b436600461257b565b6112f2565b61028a6103c7366004612384565b60086020526000908152604090205481565b61028a60045481565b61024a6103f0366004612384565b611476565b610408610403366004612384565b6114dc565b60405161020391906126ef565b6007546102c29061010090046001600160401b031681565b6104356115e8565b60405161020391906126a2565b6005546101f790600160c01b900460ff1681565b610408610464366004612384565b6116df565b61024a6119e3565b61028a61047f366004612384565b60036020526000908152604090205481565b61024a611c18565b61024a6104a7366004612384565b611e2d565b6104bf6104ba36600461257b565b611ef0565b604080516001600160a01b0390961686526020860194909452928401919091526060830152608082015260a001610203565b60075460ff16156105315760405162461bcd60e51b81526020600482015260056024820152640a6a48862760db1b60448201526064015b60405180910390fd5b42846001600160401b0316116105715760405162461bcd60e51b8152602060048201526005602482015264535244303160d81b6044820152606401610528565b836001600160401b0316836001600160401b0316116105ba5760405162461bcd60e51b815260206004820152600560248201526429a922181960d91b6044820152606401610528565b8785146105f15760405162461bcd60e51b8152602060048201526005602482015264535244303360d81b6044820152606401610528565b6105fb8484612806565b600560106101000a8154816001600160401b0302191690836001600160401b0316021790555060005b63ffffffff81168911156108f45760008a8a8363ffffffff1681811061065a57634e487b7160e01b600052603260045260246000fd5b905060200201602081019061066f9190612384565b9050600088888463ffffffff1681811061069957634e487b7160e01b600052603260045260246000fd5b60200291909101359150506001600160a01b0382166106e25760405162461bcd60e51b815260206004820152600560248201526414d4910c0d60da1b6044820152606401610528565b6000811161071a5760405162461bcd60e51b8152602060048201526005602482015264535244303560d81b6044820152606401610528565b6040516370a0823160e01b8152306004820152829082906001600160a01b038316906370a082319060240160206040518083038186803b15801561075d57600080fd5b505afa158015610771573d6000803e3d6000fd5b505050506040513d601f19601f820116820180604052508101906107959190612593565b10156107cb5760405162461bcd60e51b815260206004820152600560248201526429a922181b60d91b6044820152606401610528565b506040805160a0810182526001600160a01b0393841681526020810192835260009181018281526060820183815260808301848152600180548082018255955292517fb10e2d527612073b26eecdfd717e6a320cf44b4afac2b0732d9fcbe2b7fa0cf6600590950294850180546001600160a01b031916919097161790955592517fb10e2d527612073b26eecdfd717e6a320cf44b4afac2b0732d9fcbe2b7fa0cf783015591517fb10e2d527612073b26eecdfd717e6a320cf44b4afac2b0732d9fcbe2b7fa0cf882015591517fb10e2d527612073b26eecdfd717e6a320cf44b4afac2b0732d9fcbe2b7fa0cf9830155517fb10e2d527612073b26eecdfd717e6a320cf44b4afac2b0732d9fcbe2b7fa0cfa90910155806108ec81612875565b915050610624565b506001600160a01b0387166109335760405162461bcd60e51b8152602060048201526005602482015264535244303760d81b6044820152606401610528565b600280546001600160a01b03199081166001600160a01b038a16179091556000805433921691909117905560058054600780546001600160401b038881166fffffffffffffffffffffffffffffffff199094168417600160401b918916919091021760ff60c01b1916600160c01b8715150217909355600684905568ffffffffffffffffff1990921661010090910260ff19161760011790556040517f2c1fa4f0e3f1c67636ee0b3665bf3a04407a2c1332d4e3e99f941ee2b0b9daf490610a0c908b908b908b908b908b908b908b908b908b906125fb565b60405180910390a1505050505050505050565b60075460ff168015610a3c57506005546001600160401b03164210155b610a585760405162461bcd60e51b81526004016105289061275a565b60008111610a905760405162461bcd60e51b8152602060048201526005602482015264535244313160d81b6044820152606401610528565b600554600160c01b900460ff1615610aeb57600554600160401b90046001600160401b03164211610aeb5760405162461bcd60e51b815260206004820152600560248201526429a922189960d91b6044820152606401610528565b610af3610bc7565b33600090815260086020526040902054811115610b3a5760405162461bcd60e51b8152602060048201526005602482015264535244313360d81b6044820152606401610528565b3360009081526008602052604081208054839290610b599084906127ef565b925050819055508060046000828254610b7291906127ef565b9091555050600254610b8e906001600160a01b03163383611f3b565b60405181815233907f7084f5476618d8e60b11ef0d7d3f06914655adb8793e28ff7f018d4c76d505d5906020015b60405180910390a250565b60075460ff168015610be457506005546001600160401b03164210155b610c005760405162461bcd60e51b81526004016105289061275a565b600554600090610c21904290600160401b90046001600160401b0316611fa3565b600754909150600090610c429061010090046001600160401b031683612806565b6001600160401b0316905060005b600154811015610e5f57600060018281548110610c7d57634e487b7160e01b600052603260045260246000fd5b9060005260206000209060050201905060045460001415610d0f576005546001820154600160801b9091046001600160401b031690610cbc90856127d0565b610cc691906127b0565b816003016000828254610cd99190612798565b909155505060006002820181905533815260096020908152604080832093546001600160a01b0316835292905290812055610e4d565b600554600454610d2f91600160801b90046001600160401b0316906127d0565b6001820154600160701b90610d4490866127d0565b610d4e91906127d0565b610d5891906127b0565b816002016000828254610d6b9190612798565b9091555050600080826002015411610d84576000610de1565b33600090815260096020908152604080832085546001600160a01b031684529091529020546002830154600160701b91610dbd916127ef565b33600090815260086020526040902054610dd791906127d0565b610de191906127b0565b336000908152600a6020908152604080832086546001600160a01b03168452909152812080549293508392909190610e1a908490612798565b909155505050600281015433600090815260096020908152604080832094546001600160a01b0316835293905291909120555b80610e578161285a565b915050610c50565b5050600780546001600160401b039092166101000268ffffffffffffffff0019909216919091179055565b6000546001600160a01b03163314610eb45760405162461bcd60e51b815260040161052890612779565b600080546001600160a01b031916815560405181907f8be0079c531659141344cd1fd0a4f28419497f9722a3daafe3b4186f6b6457e0908290a3565b60075460ff168015610f0d57506005546001600160401b03164210155b610f295760405162461bcd60e51b81526004016105289061275a565b610f31610bc7565b6001546000906001600160401b03811115610f5c57634e487b7160e01b600052604160045260246000fd5b604051908082528060200260200182016040528015610f85578160200160208202803683370190505b50905060005b60015481101561105b57600060018281548110610fb857634e487b7160e01b600052603260045260246000fd5b6000918252602080832033808552600b83526040808620600590950290920180546001600160a01b031680875294845282862054918652600a84528286209486529390925283205491935061100c916127ef565b9050611019828287611fbb565b8084848151811061103a57634e487b7160e01b600052603260045260246000fd5b602002602001018181525050505080806110539061285a565b915050610f8b565b50336001600160a01b03167f28ee566bdecaf975c0979f4d09fecf91a9009ffe78523aef053a678134137b8b8260405161109591906126ef565b60405180910390a25050565b60075460ff1680156110be57506005546001600160401b03164210155b6110da5760405162461bcd60e51b81526004016105289061275a565b6001548251146111145760405162461bcd60e51b815260206004820152600560248201526414d4910c4d60da1b6044820152606401610528565b61111c610bc7565b6001546000906001600160401b0381111561114757634e487b7160e01b600052604160045260246000fd5b604051908082528060200260200182016040528015611170578160200160208202803683370190505b50905060005b6001548110156112ab576000600182815481106111a357634e487b7160e01b600052603260045260246000fd5b6000918252602080832033808552600b83526040808620600590950290920180546001600160a01b031680875294845282862054918652600a8452828620948652939092528320549193506111f7916127ef565b9050600086848151811061121b57634e487b7160e01b600052603260045260246000fd5b602002602001015190508082101561125d5760405162461bcd60e51b8152602060048201526005602482015264535244313560d81b6044820152606401610528565b611268838288611fbb565b8085858151811061128957634e487b7160e01b600052603260045260246000fd5b60200260200101818152505050505080806112a39061285a565b915050611176565b50336001600160a01b03167f28ee566bdecaf975c0979f4d09fecf91a9009ffe78523aef053a678134137b8b826040516112e591906126ef565b60405180910390a2505050565b60075460ff16801561130f57506005546001600160401b03164210155b801561132d5750600554600160401b90046001600160401b03164211155b6113615760405162461bcd60e51b8152602060048201526005602482015264535244323160d81b6044820152606401610528565b600081116113995760405162461bcd60e51b8152602060048201526005602482015264535244303960d81b6044820152606401610528565b600654156113e857600654816004546113b29190612798565b11156113e85760405162461bcd60e51b8152602060048201526005602482015264053524431360dc1b6044820152606401610528565b6113f0610bc7565b3360009081526008602052604090205461140b908290612798565b33600090815260086020526040902055600454611429908290612798565b600455600254611444906001600160a01b0316333084612025565b60405181815233907f9e71bc8eea02a63969f509818f2dafb9254532904319f9dbda79b67bd34a5f3d90602001610bbc565b60075460ff16801561149357506005546001600160401b03164210155b6114af5760405162461bcd60e51b81526004016105289061275a565b6114b7610bc7565b6114c081610ef0565b336000908152600860205260409020546114d990610a1f565b50565b6001546060906000906001600160401b0381111561150a57634e487b7160e01b600052604160045260246000fd5b604051908082528060200260200182016040528015611533578160200160208202803683370190505b50905060005b6001548110156115e15760006001828154811061156657634e487b7160e01b600052603260045260246000fd5b600091825260208083206001600160a01b03808a168552600b8352604080862060059095029092018054909116855292909152909120548451919250908490849081106115c357634e487b7160e01b600052603260045260246000fd5b602090810291909101015250806115d98161285a565b915050611539565b5092915050565b6001546060906000906001600160401b0381111561161657634e487b7160e01b600052604160045260246000fd5b60405190808252806020026020018201604052801561163f578160200160208202803683370190505b50905060005b6001548110156116d9576001818154811061167057634e487b7160e01b600052603260045260246000fd5b600091825260209091206005909102015482516001600160a01b03909116908390839081106116af57634e487b7160e01b600052603260045260246000fd5b6001600160a01b0390921660209283029190910190910152806116d18161285a565b915050611645565b50919050565b6001546060906000906001600160401b0381111561170d57634e487b7160e01b600052604160045260246000fd5b604051908082528060200260200182016040528015611736578160200160208202803683370190505b5060075490915060ff16158061175657506005546001600160401b031642105b156117a75760005b6001548110156115e157600082828151811061178a57634e487b7160e01b600052603260045260246000fd5b60209081029190910101528061179f8161285a565b91505061175e565b6005546000906117c8904290600160401b90046001600160401b0316611fa3565b6007549091506000906117e99061010090046001600160401b031683612806565b6001600160401b0316905060005b6001548110156119d95760006001828154811061182457634e487b7160e01b600052603260045260246000fd5b600091825260208083206005909202909101805460028201546001600160a01b038c8116808752600b865260408088209290941680885291865283872054908752600a865283872082885290955291909420549194509291611885916127ef565b8785815181106118a557634e487b7160e01b600052603260045260246000fd5b60209081029190910101526004546118c057506119c7915050565b6005546004546118e091600160801b90046001600160401b0316906127d0565b6001840154600160701b906118f590886127d0565b6118ff91906127d0565b61190991906127b0565b6119139082612798565b90506000808211611925576000611988565b6001600160a01b03808b16600090815260096020908152604080832093871683529290522054600160701b9061195b90846127ef565b6001600160a01b038c1660009081526008602052604090205461197e91906127d0565b61198891906127b0565b9050808886815181106119ab57634e487b7160e01b600052603260045260246000fd5b602002602001018181516119bf9190612798565b905250505050505b806119d18161285a565b9150506117f7565b5091949350505050565b60075460ff168015611a0057506005546001600160401b03164210155b611a1c5760405162461bcd60e51b81526004016105289061275a565b611a24610bc7565b6001546000906001600160401b03811115611a4f57634e487b7160e01b600052604160045260246000fd5b604051908082528060200260200182016040528015611a78578160200160208202803683370190505b50905060005b600154811015611bdd57600060018281548110611aab57634e487b7160e01b600052603260045260246000fd5b906000526020600020906005020190508060030154816004016000828254611ad39190612798565b9091555050600060038201819055600480830154600184015484546040516370a0823160e01b81523094810194909452919290916001600160a01b0316906370a082319060240160206040518083038186803b158015611b3257600080fd5b505afa158015611b46573d6000803e3d6000fd5b505050506040513d601f19601f82011682018060405250810190611b6a9190612593565b611b7491906127ef565b611b7e91906127ef565b905080848481518110611ba157634e487b7160e01b600052603260045260246000fd5b60209081029190910101526000548254611bc8916001600160a01b03918216911683611f3b565b50508080611bd59061285a565b915050611a7e565b507ff904fafa600a7e4e8039f3a5497d1b6016772e3060f87d3e40f911b315f00bd181604051611c0d91906126ef565b60405180910390a150565b6000546001600160a01b03163314611c425760405162461bcd60e51b815260040161052890612779565b60075460ff16611c7c5760405162461bcd60e51b8152602060048201526005602482015264535244313960d81b6044820152606401610528565b6005546001600160401b03164210611cbe5760405162461bcd60e51b81526020600482015260056024820152640a6a48860760db1b6044820152606401610528565b60005b600154811015611db157600060018281548110611cee57634e487b7160e01b600052603260045260246000fd5b6000918252602082206005919091020160018101829055905481546040516370a0823160e01b8152306004820152929350611d9e926001600160a01b0392831692909116906370a082319060240160206040518083038186803b158015611d5457600080fd5b505afa158015611d68573d6000803e3d6000fd5b505050506040513d601f19601f82011682018060405250810190611d8c9190612593565b83546001600160a01b03169190611f3b565b5080611da98161285a565b915050611cc1565b50611dbe600160006122ad565b600280546001600160a01b0319169055600580546007805468ffffffffffffffffff1916905578ff0000000000000000ffffffffffffffffffffffffffffffff191690556040517f1afb0ae590df277bcb3a37f88612725bf1f7df4755792b1548a7efe77985ff7790600090a1565b6000546001600160a01b03163314611e575760405162461bcd60e51b815260040161052890612779565b6001600160a01b038116611e955760405162461bcd60e51b815260206004820152600560248201526429a922189b60d91b6044820152606401610528565b600080546040516001600160a01b03808516939216917f8be0079c531659141344cd1fd0a4f28419497f9722a3daafe3b4186f6b6457e091a3600080546001600160a01b0319166001600160a01b0392909216919091179055565b60018181548110611f0057600080fd5b6000918252602090912060059091020180546001820154600283015460038401546004909401546001600160a01b0390931694509092909185565b6040516001600160a01b038316602482015260448101829052611f9e90849063a9059cbb60e01b906064015b60408051601f198184030181529190526020810180516001600160e01b03166001600160e01b031990931692909217909152612063565b505050565b6000818310611fb25781611fb4565b825b9392505050565b336000908152600b6020908152604080832086546001600160a01b0316845290915281208054849290611fef908490612798565b925050819055508183600401600082825461200a9190612798565b90915550508254611f9e906001600160a01b03168284611f3b565b6040516001600160a01b038085166024830152831660448201526064810182905261205d9085906323b872dd60e01b90608401611f67565b50505050565b60006120b8826040518060400160405280602081526020017f5361666545524332303a206c6f772d6c6576656c2063616c6c206661696c6564815250856001600160a01b03166121359092919063ffffffff16565b805190915015611f9e57808060200190518101906120d6919061255f565b611f9e5760405162461bcd60e51b815260206004820152602a60248201527f5361666545524332303a204552433230206f7065726174696f6e20646964206e6044820152691bdd081cdd58d8d9595960b21b6064820152608401610528565b6060612144848460008561214c565b949350505050565b6060824710156121ad5760405162461bcd60e51b815260206004820152602660248201527f416464726573733a20696e73756666696369656e742062616c616e636520666f6044820152651c8818d85b1b60d21b6064820152608401610528565b843b6121fb5760405162461bcd60e51b815260206004820152601d60248201527f416464726573733a2063616c6c20746f206e6f6e2d636f6e74726163740000006044820152606401610528565b600080866001600160a01b0316858760405161221791906125df565b60006040518083038185875af1925050503d8060008114612254576040519150601f19603f3d011682016040523d82523d6000602084013e612259565b606091505b5091509150612269828286612274565b979650505050505050565b60608315612283575081611fb4565b8251156122935782518084602001fd5b8160405162461bcd60e51b81526004016105289190612727565b50805460008255600502906000526020600020908101906114d991905b808211156123045780546001600160a01b0319168155600060018201819055600282018190556003820181905560048201556005016122ca565b5090565b80356001600160a01b038116811461231f57600080fd5b919050565b60008083601f840112612335578081fd5b5081356001600160401b0381111561234b578182fd5b6020830191508360208260051b850101111561236657600080fd5b9250929050565b80356001600160401b038116811461231f57600080fd5b600060208284031215612395578081fd5b611fb482612308565b600080604083850312156123b0578081fd5b6123b983612308565b91506123c760208401612308565b90509250929050565b600080600080600080600080600060e08a8c0312156123ed578485fd5b89356001600160401b0380821115612403578687fd5b61240f8d838e01612324565b909b50995089915061242360208d01612308565b985060408c0135915080821115612438578687fd5b506124458c828d01612324565b9097509550612458905060608b0161236d565b935061246660808b0161236d565b925060a08a0135612476816128c5565b8092505060c08a013590509295985092959850929598565b600080604083850312156124a0578182fd5b82356001600160401b03808211156124b6578384fd5b818501915085601f8301126124c9578384fd5b81356020828211156124dd576124dd6128af565b8160051b604051601f19603f83011681018181108682111715612502576125026128af565b604052838152828101945085830182870184018b1015612520578889fd5b8896505b84871015612542578035865260019690960195948301948301612524565b5096506125529050878201612308565b9450505050509250929050565b600060208284031215612570578081fd5b8151611fb4816128c5565b60006020828403121561258c578081fd5b5035919050565b6000602082840312156125a4578081fd5b5051919050565b81835260006001600160fb1b038311156125c3578081fd5b8260051b80836020870137939093016020019283525090919050565b600082516125f181846020870161282e565b9190910192915050565b60e0808252810189905260008a6101008301825b8c81101561263d576001600160a01b0361262884612308565b1682526020928301929091019060010161260f565b506001600160a01b038b1660208501528381036040850152612660818a8c6125ab565b9250505061267960608301876001600160401b03169052565b6001600160401b0394909416608082015291151560a083015260c0909101529695505050505050565b6020808252825182820181905260009190848201906040850190845b818110156126e35783516001600160a01b0316835292840192918401916001016126be565b50909695505050505050565b6020808252825182820181905260009190848201906040850190845b818110156126e35783518352928401929184019160010161270b565b602081526000825180602084015261274681604085016020870161282e565b601f01601f19169190910160400192915050565b602080825260059082015264053524432360dc1b604082015260600190565b602080825260059082015264535244313760d81b604082015260600190565b600082198211156127ab576127ab612899565b500190565b6000826127cb57634e487b7160e01b81526012600452602481fd5b500490565b60008160001904831182151516156127ea576127ea612899565b500290565b60008282101561280157612801612899565b500390565b60006001600160401b038381169083168181101561282657612826612899565b039392505050565b60005b83811015612849578181015183820152602001612831565b8381111561205d5750506000910152565b600060001982141561286e5761286e612899565b5060010190565b600063ffffffff8083168181141561288f5761288f612899565b6001019392505050565b634e487b7160e01b600052601160045260246000fd5b634e487b7160e01b600052604160045260246000fd5b80151581146114d957600080fdfea2646970667358221220e9137df3da46ab8881b15ced9316d21a979c783fe15389b5453450904241a87d64736f6c63430008040033",
  "immutableReferences": {},
  "source": "//SPDX-License-Identifier: GPL-3.0\n\npragma solidity ^0.8.0;\n\nimport \"@openzeppelin/contracts/token/ERC20/presets/ERC20PresetMinterPauser.sol\";\nimport \"../ERC20StakingRewardsDistribution.sol\";\n\ncontract FirstRewardERC20 is ERC20PresetMinterPauser {\n    constructor() ERC20PresetMinterPauser(\"First reward\", \"RWD1\") {}\n}\n\ncontract SecondRewardERC20 is ERC20PresetMinterPauser {\n    constructor() ERC20PresetMinterPauser(\"Second reward\", \"RWD2\") {}\n}\n\ncontract FirstStakableERC20 is ERC20PresetMinterPauser {\n    constructor() ERC20PresetMinterPauser(\"First stakable\", \"STK1\") {}\n}\n\ncontract SecondStakableERC20 is ERC20PresetMinterPauser {\n    constructor() ERC20PresetMinterPauser(\"Second stakable\", \"STK2\") {}\n}\n\ncontract UpgradedERC20StakingRewardsDistribution is\n    ERC20StakingRewardsDistribution\n{\n    function isUpgraded() external pure returns (bool) {\n        return true;\n    }\n}\n",
  "sourcePath": "/home/luzzif/Projects/swapr-lp-staker/contracts/test/TestDependencies.sol",
  "compiler": {
    "name": "solc",
    "version": "0.8.4+commit.c7e474f2.Emscripten.clang"
  },
  "schemaVersion": "3.3.3",
  "updatedAt": "2021-05-05T10:14:28.737Z",
  "devdoc": {
    "kind": "dev",
    "methods": {},
    "version": 1
  },
  "userdoc": {
    "kind": "user",
    "methods": {},
    "version": 1
  }
}