{
  "contractName": "UpgradedERC20StakingRewardsDistribution",
  "abi": [
    {
      "anonymous": false,
      "inputs": [],
      "name": "Canceled",
      "type": "event"
    },
    {
      "anonymous": false,
      "inputs": [
        {
          "indexed": true,
          "internalType": "address",
          "name": "claimer",
          "type": "address"
        },
        {
          "indexed": false,
          "internalType": "uint256[]",
          "name": "amounts",
          "type": "uint256[]"
        }
      ],
      "name": "Claimed",
      "type": "event"
    },
    {
      "anonymous": false,
      "inputs": [
        {
          "indexed": false,
          "internalType": "address[]",
          "name": "rewardsTokenAddresses",
          "type": "address[]"
        },
        {
          "indexed": false,
          "internalType": "address",
          "name": "stakableTokenAddress",
          "type": "address"
        },
        {
          "indexed": false,
          "internalType": "uint256[]",
          "name": "rewardsAmounts",
          "type": "uint256[]"
        },
        {
          "indexed": false,
          "internalType": "uint64",
          "name": "startingTimestamp",
          "type": "uint64"
        },
        {
          "indexed": false,
          "internalType": "uint64",
          "name": "endingTimestamp",
          "type": "uint64"
        },
        {
          "indexed": false,
          "internalType": "bool",
          "name": "locked",
          "type": "bool"
        },
        {
          "indexed": false,
          "internalType": "uint256",
          "name": "stakingCap",
          "type": "uint256"
        }
      ],
      "name": "Initialized",
      "type": "event"
    },
    {
      "anonymous": false,
      "inputs": [
        {
          "indexed": true,
          "internalType": "address",
          "name": "previousOwner",
          "type": "address"
        },
        {
          "indexed": true,
          "internalType": "address",
          "name": "newOwner",
          "type": "address"
        }
      ],
      "name": "OwnershipTransferred",
      "type": "event"
    },
    {
      "anonymous": false,
      "inputs": [
        {
          "indexed": false,
          "internalType": "uint256[]",
          "name": "amounts",
          "type": "uint256[]"
        }
      ],
      "name": "Recovered",
      "type": "event"
    },
    {
      "anonymous": false,
      "inputs": [
        {
          "indexed": true,
          "internalType": "address",
          "name": "staker",
          "type": "address"
        },
        {
          "indexed": false,
          "internalType": "uint256",
          "name": "amount",
          "type": "uint256"
        }
      ],
      "name": "Staked",
      "type": "event"
    },
    {
      "anonymous": false,
      "inputs": [
        {
          "indexed": true,
          "internalType": "address",
          "name": "withdrawer",
          "type": "address"
        },
        {
          "indexed": false,
          "internalType": "uint256",
          "name": "amount",
          "type": "uint256"
        }
      ],
      "name": "Withdrawn",
      "type": "event"
    },
    {
      "inputs": [],
      "name": "cancel",
      "outputs": [],
      "stateMutability": "nonpayable",
      "type": "function"
    },
    {
      "inputs": [],
      "name": "canceled",
      "outputs": [
        {
          "internalType": "bool",
          "name": "",
          "type": "bool"
        }
      ],
      "stateMutability": "view",
      "type": "function"
    },
    {
      "inputs": [
        {
          "internalType": "uint256[]",
          "name": "_amounts",
          "type": "uint256[]"
        },
        {
          "internalType": "address",
          "name": "_recipient",
          "type": "address"
        }
      ],
      "name": "claim",
      "outputs": [],
      "stateMutability": "nonpayable",
      "type": "function"
    },
    {
      "inputs": [
        {
          "internalType": "address",
          "name": "_recipient",
          "type": "address"
        }
      ],
      "name": "claimAll",
      "outputs": [],
      "stateMutability": "nonpayable",
      "type": "function"
    },
    {
      "inputs": [
        {
          "internalType": "address",
          "name": "_account",
          "type": "address"
        }
      ],
      "name": "claimableRewards",
      "outputs": [
        {
          "internalType": "uint256[]",
          "name": "",
          "type": "uint256[]"
        }
      ],
      "stateMutability": "view",
      "type": "function"
    },
    {
      "inputs": [],
      "name": "consolidateReward",
      "outputs": [],
      "stateMutability": "nonpayable",
      "type": "function"
    },
    {
      "inputs": [],
      "name": "endingTimestamp",
      "outputs": [
        {
          "internalType": "uint64",
          "name": "",
          "type": "uint64"
        }
      ],
      "stateMutability": "view",
      "type": "function"
    },
    {
      "inputs": [
        {
          "internalType": "address",
          "name": "_recipient",
          "type": "address"
        }
      ],
      "name": "exit",
      "outputs": [],
      "stateMutability": "nonpayable",
      "type": "function"
    },
    {
      "inputs": [
        {
          "internalType": "address",
          "name": "_claimer",
          "type": "address"
        }
      ],
      "name": "getClaimedRewards",
      "outputs": [
        {
          "internalType": "uint256[]",
          "name": "",
          "type": "uint256[]"
        }
      ],
      "stateMutability": "view",
      "type": "function"
    },
    {
      "inputs": [],
      "name": "getRewardTokens",
      "outputs": [
        {
          "internalType": "address[]",
          "name": "",
          "type": "address[]"
        }
      ],
      "stateMutability": "view",
      "type": "function"
    },
    {
      "inputs": [
        {
          "internalType": "address[]",
          "name": "_rewardTokenAddresses",
          "type": "address[]"
        },
        {
          "internalType": "address",
          "name": "_stakableTokenAddress",
          "type": "address"
        },
        {
          "internalType": "uint256[]",
          "name": "_rewardAmounts",
          "type": "uint256[]"
        },
        {
          "internalType": "uint64",
          "name": "_startingTimestamp",
          "type": "uint64"
        },
        {
          "internalType": "uint64",
          "name": "_endingTimestamp",
          "type": "uint64"
        },
        {
          "internalType": "bool",
          "name": "_locked",
          "type": "bool"
        },
        {
          "internalType": "uint256",
          "name": "_stakingCap",
          "type": "uint256"
        }
      ],
      "name": "initialize",
      "outputs": [],
      "stateMutability": "nonpayable",
      "type": "function"
    },
    {
      "inputs": [],
      "name": "initialized",
      "outputs": [
        {
          "internalType": "bool",
          "name": "",
          "type": "bool"
        }
      ],
      "stateMutability": "view",
      "type": "function"
    },
    {
      "inputs": [],
      "name": "lastConsolidationTimestamp",
      "outputs": [
        {
          "internalType": "uint64",
          "name": "",
          "type": "uint64"
        }
      ],
      "stateMutability": "view",
      "type": "function"
    },
    {
      "inputs": [],
      "name": "locked",
      "outputs": [
        {
          "internalType": "bool",
          "name": "",
          "type": "bool"
        }
      ],
      "stateMutability": "view",
      "type": "function"
    },
    {
      "inputs": [],
      "name": "owner",
      "outputs": [
        {
          "internalType": "address",
          "name": "",
          "type": "address"
        }
      ],
      "stateMutability": "view",
      "type": "function"
    },
    {
      "inputs": [],
      "name": "recoverUnassignedRewards",
      "outputs": [],
      "stateMutability": "nonpayable",
      "type": "function"
    },
    {
      "inputs": [
        {
          "internalType": "address",
          "name": "_rewardToken",
          "type": "address"
        }
      ],
      "name": "recoverableUnassignedReward",
      "outputs": [
        {
          "internalType": "uint256",
          "name": "",
          "type": "uint256"
        }
      ],
      "stateMutability": "view",
      "type": "function"
    },
    {
      "inputs": [],
      "name": "renounceOwnership",
      "outputs": [],
      "stateMutability": "nonpayable",
      "type": "function"
    },
    {
      "inputs": [
        {
          "internalType": "address",
          "name": "_rewardToken",
          "type": "address"
        }
      ],
      "name": "rewardAmount",
      "outputs": [
        {
          "internalType": "uint256",
          "name": "",
          "type": "uint256"
        }
      ],
      "stateMutability": "view",
      "type": "function"
    },
    {
      "inputs": [
        {
          "internalType": "uint256",
          "name": "",
          "type": "uint256"
        }
      ],
      "name": "rewards",
      "outputs": [
        {
          "internalType": "address",
          "name": "token",
          "type": "address"
        },
        {
          "internalType": "uint256",
          "name": "amount",
          "type": "uint256"
        },
        {
          "internalType": "uint256",
          "name": "perStakedToken",
          "type": "uint256"
        },
        {
          "internalType": "uint256",
          "name": "recoverable",
          "type": "uint256"
        },
        {
          "internalType": "uint256",
          "name": "claimed",
          "type": "uint256"
        }
      ],
      "stateMutability": "view",
      "type": "function"
    },
    {
      "inputs": [],
      "name": "secondsDuration",
      "outputs": [
        {
          "internalType": "uint64",
          "name": "",
          "type": "uint64"
        }
      ],
      "stateMutability": "view",
      "type": "function"
    },
    {
      "inputs": [],
      "name": "stakableToken",
      "outputs": [
        {
          "internalType": "contract IERC20",
          "name": "",
          "type": "address"
        }
      ],
      "stateMutability": "view",
      "type": "function"
    },
    {
      "inputs": [
        {
          "internalType": "uint256",
          "name": "_amount",
          "type": "uint256"
        }
      ],
      "name": "stake",
      "outputs": [],
      "stateMutability": "nonpayable",
      "type": "function"
    },
    {
      "inputs": [
        {
          "internalType": "address",
          "name": "_staker",
          "type": "address"
        }
      ],
      "name": "stakedTokensOf",
      "outputs": [
        {
          "internalType": "uint256",
          "name": "",
          "type": "uint256"
        }
      ],
      "stateMutability": "view",
      "type": "function"
    },
    {
      "inputs": [],
      "name": "stakingCap",
      "outputs": [
        {
          "internalType": "uint256",
          "name": "",
          "type": "uint256"
        }
      ],
      "stateMutability": "view",
      "type": "function"
    },
    {
      "inputs": [],
      "name": "startingTimestamp",
      "outputs": [
        {
          "internalType": "uint64",
          "name": "",
          "type": "uint64"
        }
      ],
      "stateMutability": "view",
      "type": "function"
    },
    {
      "inputs": [],
      "name": "totalStakedTokensAmount",
      "outputs": [
        {
          "internalType": "uint256",
          "name": "",
          "type": "uint256"
        }
      ],
      "stateMutability": "view",
      "type": "function"
    },
    {
      "inputs": [
        {
          "internalType": "address",
          "name": "_newOwner",
          "type": "address"
        }
      ],
      "name": "transferOwnership",
      "outputs": [],
      "stateMutability": "nonpayable",
      "type": "function"
    },
    {
      "inputs": [
        {
          "internalType": "uint256",
          "name": "_amount",
          "type": "uint256"
        }
      ],
      "name": "withdraw",
      "outputs": [],
      "stateMutability": "nonpayable",
      "type": "function"
    },
    {
      "inputs": [],
      "name": "isUpgraded",
      "outputs": [
        {
          "internalType": "bool",
          "name": "",
          "type": "bool"
        }
      ],
      "stateMutability": "pure",
      "type": "function"
    }
  ],
  "bytecode": "0x608060405234801561001057600080fd5b506129c0806100206000396000f3fe608060405234801561001057600080fd5b50600436106101da5760003560e01c80638c574b4811610104578063c10de300116100a2578063e644067d11610071578063e644067d14610429578063ea8a1af014610431578063f2fde38b14610439578063f301af421461044c57600080fd5b8063c10de300146103d3578063c4f59f9b146103ed578063cf30901214610402578063dc01f60d1461041657600080fd5b8063ab08d4fc116100de578063ab08d4fc1461036e578063b41fa97914610397578063b42652e9146103a0578063b9e35db0146103b357600080fd5b80638c574b48146103355780638da5cb5b14610348578063a694fc3a1461035b57600080fd5b806344c370d31161017c5780636715dcb81161014b5780636715dcb8146102ff578063715018a61461030757806377329f351461030f578063887862721461032257600080fd5b806344c370d3146102975780635e5294b7146102a05780635fa35023146102d2578063645a8a56146102ec57600080fd5b80632e1a7d4d116101b85780632e1a7d4d146102485780633b34ee501461025b5780633f9942ff1461027c57806342c80fc91461029057600080fd5b8063158ef93e146101df5780631c96c3fb1461020857806323a26e3614610233575b600080fd5b6004546101f390600160b01b900460ff1681565b60405190151581526020015b60405180910390f35b60035461021b906001600160a01b031681565b6040516001600160a01b0390911681526020016101ff565b610246610241366004612487565b610491565b005b610246610256366004612632565b6109c7565b61026e61026936600461246d565b610b83565b6040519081526020016101ff565b6004546101f390600160a81b900460ff1681565b60016101f3565b61026e60065481565b6002546102ba90600160401b90046001600160401b031681565b6040516001600160401b0390911681526020016101ff565b6002546102ba90600160801b90046001600160401b031681565b61026e6102fa36600461246d565b610c02565b610246610c78565b610246610f7b565b61024661031d36600461246d565b610fe4565b6002546102ba906001600160401b031681565b610246610343366004612545565b6111af565b60045461021b906001600160a01b031681565b610246610369366004612632565b61141a565b61026e61037c36600461246d565b6001600160a01b031660009081526001602052604090205490565b61026e60055481565b6102466103ae36600461246d565b6115c0565b6103c66103c136600461246d565b611643565b6040516101ff91906127a6565b6002546102ba90600160c01b90046001600160401b031681565b6103f5611759565b6040516101ff9190612759565b6004546101f390600160a01b900460ff1681565b6103c661042436600461246d565b61184f565b610246611b3d565b610246611d87565b61024661044736600461246d565b611f7f565b61045f61045a366004612632565b612043565b604080516001600160a01b0390961686526020860194909452928401919091526060830152608082015260a0016101ff565b600454600160b01b900460ff16156104d85760405162461bcd60e51b81526020600482015260056024820152640a6a48862760db1b60448201526064015b60405180910390fd5b42846001600160401b0316116105185760405162461bcd60e51b8152602060048201526005602482015264535244303160d81b60448201526064016104cf565b836001600160401b0316836001600160401b0316116105615760405162461bcd60e51b815260206004820152600560248201526429a922181960d91b60448201526064016104cf565b8785146105985760405162461bcd60e51b8152602060048201526005602482015264535244303360d81b60448201526064016104cf565b6105a284846128bd565b600260106101000a8154816001600160401b0302191690836001600160401b0316021790555060005b63ffffffff811689111561089b5760008a8a8363ffffffff1681811061060157634e487b7160e01b600052603260045260246000fd5b9050602002016020810190610616919061246d565b9050600088888463ffffffff1681811061064057634e487b7160e01b600052603260045260246000fd5b60200291909101359150506001600160a01b0382166106895760405162461bcd60e51b815260206004820152600560248201526414d4910c0d60da1b60448201526064016104cf565b600081116106c15760405162461bcd60e51b8152602060048201526005602482015264535244303560d81b60448201526064016104cf565b6040516370a0823160e01b8152306004820152829082906001600160a01b038316906370a082319060240160206040518083038186803b15801561070457600080fd5b505afa158015610718573d6000803e3d6000fd5b505050506040513d601f19601f8201168201806040525081019061073c919061264a565b10156107725760405162461bcd60e51b815260206004820152600560248201526429a922181b60d91b60448201526064016104cf565b506040805160a0810182526001600160a01b0393841681526020810192835260009181018281526060820183815260808301848152845460018101865594805292517f290decd9548b62a8d60345a988386fc84ba6bc95484008f6362f93160ef3e563600590950294850180546001600160a01b031916919097161790955592517f290decd9548b62a8d60345a988386fc84ba6bc95484008f6362f93160ef3e56483015591517f290decd9548b62a8d60345a988386fc84ba6bc95484008f6362f93160ef3e56582015591517f290decd9548b62a8d60345a988386fc84ba6bc95484008f6362f93160ef3e566830155517f290decd9548b62a8d60345a988386fc84ba6bc95484008f6362f93160ef3e56790910155806108938161292c565b9150506105cb565b506001600160a01b0387166108da5760405162461bcd60e51b8152602060048201526005602482015264535244303760d81b60448201526064016104cf565b600380546001600160a01b0319166001600160a01b03891617905560048054600280546fffffffffffffffffffffffffffffffff19166001600160401b03888116918217600160401b91891691909102176001600160c01b0316600160c01b919091021790556006839055600160b01b6001600160a81b03199091163360ff60a01b191617600160a01b851515021761ffff60a81b19161790556040517f2c1fa4f0e3f1c67636ee0b3665bf3a04407a2c1332d4e3e99f941ee2b0b9daf4906109b4908b908b908b908b908b908b908b908b908b906126b2565b60405180910390a1505050505050505050565b600454600160b01b900460ff1680156109ea5750600454600160a81b900460ff16155b8015610a0157506002546001600160401b03164210155b610a1d5760405162461bcd60e51b81526004016104cf90612811565b60008111610a555760405162461bcd60e51b8152602060048201526005602482015264535244313160d81b60448201526064016104cf565b600454600160a01b900460ff1615610ab057600254600160401b90046001600160401b03164211610ab05760405162461bcd60e51b815260206004820152600560248201526429a922189960d91b60448201526064016104cf565b610ab8610c78565b3360009081526001602052604090208054821115610b005760405162461bcd60e51b8152602060048201526005602482015264535244313360d81b60448201526064016104cf565b81816000016000828254610b1491906128a6565b925050819055508160056000828254610b2d91906128a6565b9091555050600354610b49906001600160a01b0316338461208e565b60405182815233907f7084f5476618d8e60b11ef0d7d3f06914655adb8793e28ff7f018d4c76d505d5906020015b60405180910390a25050565b6000805b600054811015610bf9576000808281548110610bb357634e487b7160e01b600052603260045260246000fd5b6000918252602090912060059091020180549091506001600160a01b0385811691161415610be657600301549392505050565b5080610bf181612911565b915050610b87565b50600092915050565b6000805b600054811015610bf9576000808281548110610c3257634e487b7160e01b600052603260045260246000fd5b6000918252602090912060059091020180549091506001600160a01b0385811691161415610c6557600101549392505050565b5080610c7081612911565b915050610c06565b600454600160b01b900460ff168015610c9b5750600454600160a81b900460ff16155b8015610cb257506002546001600160401b03164210155b610cce5760405162461bcd60e51b81526004016104cf90612811565b600254600090610cef904290600160401b90046001600160401b03166120f6565b600254909150600090610d1290600160c01b90046001600160401b0316836128bd565b600280546001600160401b03858116600160c01b026001600160c01b039092169190911790915533600090815260016020526040902060055492909116925090610e205760005b600054811015610e1a576000808281548110610d8557634e487b7160e01b600052603260045260246000fd5b90600052602060002090600502019050600260109054906101000a90046001600160401b03166001600160401b0316816001015485610dc49190612887565b610dce9190612867565b816003016000828254610de1919061284f565b909155505060006002820181905590546001600160a01b0316815260018301602052604081205580610e1281612911565b915050610d59565b50505050565b60005b600054811015610e1a576000808281548110610e4f57634e487b7160e01b600052603260045260246000fd5b90600052602060002090600502019050600260109054906101000a90046001600160401b03166001600160401b0316600554610e8b9190612887565b6001820154600160701b90610ea09087612887565b610eaa9190612887565b610eb49190612867565b816002016000828254610ec7919061284f565b909155505080546001600160a01b031660009081526001840160205260408120546002830154600160701b91610efc916128a6565b8554610f089190612887565b610f129190612867565b82546001600160a01b03166000908152600286016020526040812080549293508392909190610f4290849061284f565b909155505050600281015490546001600160a01b0316600090815260018401602052604090205580610f7381612911565b915050610e23565b6004546001600160a01b03163314610fa55760405162461bcd60e51b81526004016104cf90612830565b600480546001600160a01b031916905560405160009081907f8be0079c531659141344cd1fd0a4f28419497f9722a3daafe3b4186f6b6457e0908290a3565b600454600160b01b900460ff1680156110075750600454600160a81b900460ff16155b801561101e57506002546001600160401b03164210155b61103a5760405162461bcd60e51b81526004016104cf90612811565b611042610c78565b33600090815260016020526040812081549091906001600160401b0381111561107b57634e487b7160e01b600052604160045260246000fd5b6040519080825280602002602001820160405280156110a4578160200160208202803683370190505b50905060005b6000548110156111685760008082815481106110d657634e487b7160e01b600052603260045260246000fd5b60009182526020808320600590920290910180546001600160a01b031683526003870182526040808420546002890190935283205490935061111891906128a6565b90506111268286838961210e565b8084848151811061114757634e487b7160e01b600052603260045260246000fd5b6020026020010181815250505050808061116090612911565b9150506110aa565b50336001600160a01b03167f28ee566bdecaf975c0979f4d09fecf91a9009ffe78523aef053a678134137b8b826040516111a291906127a6565b60405180910390a2505050565b600454600160b01b900460ff1680156111d25750600454600160a81b900460ff16155b80156111e957506002546001600160401b03164210155b6112055760405162461bcd60e51b81526004016104cf90612811565b60005482511461123f5760405162461bcd60e51b815260206004820152600560248201526414d4910c4d60da1b60448201526064016104cf565b611247610c78565b33600090815260016020526040812081549091906001600160401b0381111561128057634e487b7160e01b600052604160045260246000fd5b6040519080825280602002602001820160405280156112a9578160200160208202803683370190505b50905060005b6000548110156113d25760008082815481106112db57634e487b7160e01b600052603260045260246000fd5b60009182526020808320600590920290910180546001600160a01b031683526003870182526040808420546002890190935283205490935061131d91906128a6565b9050600087848151811061134157634e487b7160e01b600052603260045260246000fd5b60200260200101519050808210156113835760405162461bcd60e51b8152602060048201526005602482015264535244313560d81b60448201526064016104cf565b61138f8387838a61210e565b808585815181106113b057634e487b7160e01b600052603260045260246000fd5b60200260200101818152505050505080806113ca90612911565b9150506112af565b50336001600160a01b03167f28ee566bdecaf975c0979f4d09fecf91a9009ffe78523aef053a678134137b8b8260405161140c91906127a6565b60405180910390a250505050565b600454600160b01b900460ff16801561143d5750600454600160a81b900460ff16155b801561145457506002546001600160401b03164210155b80156114725750600254600160401b90046001600160401b03164211155b6114a65760405162461bcd60e51b8152602060048201526005602482015264535244323160d81b60448201526064016104cf565b600081116114de5760405162461bcd60e51b8152602060048201526005602482015264535244303960d81b60448201526064016104cf565b6006541561152d57600654816005546114f7919061284f565b111561152d5760405162461bcd60e51b8152602060048201526005602482015264053524431360dc1b60448201526064016104cf565b611535610c78565b33600090815260016020526040812080549091839183919061155890849061284f565b925050819055508160056000828254611571919061284f565b909155505060035461158e906001600160a01b031633308561216f565b60405182815233907f9e71bc8eea02a63969f509818f2dafb9254532904319f9dbda79b67bd34a5f3d90602001610b77565b600454600160b01b900460ff1680156115e35750600454600160a81b900460ff16155b80156115fa57506002546001600160401b03164210155b6116165760405162461bcd60e51b81526004016104cf90612811565b61161e610c78565b61162781610fe4565b33600090815260016020526040902054611640906109c7565b50565b6001600160a01b03811660009081526001602052604081208154606092906001600160401b0381111561168657634e487b7160e01b600052604160045260246000fd5b6040519080825280602002602001820160405280156116af578160200160208202803683370190505b50905060005b6000548110156117515760008082815481106116e157634e487b7160e01b600052603260045260246000fd5b60009182526020808320600590920290910180546001600160a01b031683526003870190915260409091205484519192509084908490811061173357634e487b7160e01b600052603260045260246000fd5b6020908102919091010152508061174981612911565b9150506116b5565b509392505050565b60008054606091906001600160401b0381111561178657634e487b7160e01b600052604160045260246000fd5b6040519080825280602002602001820160405280156117af578160200160208202803683370190505b50905060005b60005481101561184957600081815481106117e057634e487b7160e01b600052603260045260246000fd5b600091825260209091206005909102015482516001600160a01b039091169083908390811061181f57634e487b7160e01b600052603260045260246000fd5b6001600160a01b03909216602092830291909101909101528061184181612911565b9150506117b5565b50919050565b60008054606091906001600160401b0381111561187c57634e487b7160e01b600052604160045260246000fd5b6040519080825280602002602001820160405280156118a5578160200160208202803683370190505b50600454909150600160b01b900460ff1615806118cc57506002546001600160401b031642105b156119245760005b60005481101561191d57600082828151811061190057634e487b7160e01b600052603260045260246000fd5b60209081029190910101528061191581612911565b9150506118d4565b5092915050565b6001600160a01b038316600090815260016020526040812060025490919061195d904290600160401b90046001600160401b03166120f6565b60025490915060009061198090600160c01b90046001600160401b0316836128bd565b6001600160401b0316905060005b600054811015611b325760008082815481106119ba57634e487b7160e01b600052603260045260246000fd5b6000918252602080832060026005909302018281015481546001600160a01b0316855260038a018352604080862054948b01909352919093205492935091611a0291906128a6565b878481518110611a2257634e487b7160e01b600052603260045260246000fd5b6020908102919091010152600554611a3b575050611b20565b600254600554611a5b91600160801b90046001600160401b031690612887565b6001830154600160701b90611a709087612887565b611a7a9190612887565b611a849190612867565b611a8e908261284f565b90506000808211611aa0576000611ae2565b82546001600160a01b03166000908152600188016020526040902054600160701b90611acc90846128a6565b8854611ad89190612887565b611ae29190612867565b905080888581518110611b0557634e487b7160e01b600052603260045260246000fd5b60200260200101818151611b19919061284f565b9052505050505b80611b2a81612911565b91505061198e565b509295945050505050565b600454600160b01b900460ff168015611b605750600454600160a81b900460ff16155b8015611b7757506002546001600160401b03164210155b611b935760405162461bcd60e51b81526004016104cf90612811565b611b9b610c78565b600080546001600160401b03811115611bc457634e487b7160e01b600052604160045260246000fd5b604051908082528060200260200182016040528015611bed578160200160208202803683370190505b50905060005b600054811015611d4c576000808281548110611c1f57634e487b7160e01b600052603260045260246000fd5b906000526020600020906005020190508060030154816004016000828254611c47919061284f565b909155505060006003820181905560048201546001830154611c6991906128a6565b82546040516370a0823160e01b81523060048201526001600160a01b03909116906370a082319060240160206040518083038186803b158015611cab57600080fd5b505afa158015611cbf573d6000803e3d6000fd5b505050506040513d601f19601f82011682018060405250810190611ce3919061264a565b611ced91906128a6565b905080848481518110611d1057634e487b7160e01b600052603260045260246000fd5b60209081029190910101526004548254611d37916001600160a01b0391821691168361208e565b50508080611d4490612911565b915050611bf3565b507ff904fafa600a7e4e8039f3a5497d1b6016772e3060f87d3e40f911b315f00bd181604051611d7c91906127a6565b60405180910390a150565b6004546001600160a01b03163314611db15760405162461bcd60e51b81526004016104cf90612830565b600454600160b01b900460ff168015611dd45750600454600160a81b900460ff16155b611e085760405162461bcd60e51b8152602060048201526005602482015264535244313960d81b60448201526064016104cf565b6002546001600160401b03164210611e4a5760405162461bcd60e51b81526020600482015260056024820152640a6a48860760db1b60448201526064016104cf565b60005b600054811015611f40576000808281548110611e7957634e487b7160e01b600052603260045260246000fd5b6000918252602082206005919091020160018101919091556004805482546040516370a0823160e01b81523093810193909352929350611f2d926001600160a01b03918216929116906370a082319060240160206040518083038186803b158015611ee357600080fd5b505afa158015611ef7573d6000803e3d6000fd5b505050506040513d601f19601f82011682018060405250810190611f1b919061264a565b83546001600160a01b0316919061208e565b5080611f3881612911565b915050611e4d565b506004805460ff60a81b1916600160a81b1790556040517f1afb0ae590df277bcb3a37f88612725bf1f7df4755792b1548a7efe77985ff7790600090a1565b6004546001600160a01b03163314611fa95760405162461bcd60e51b81526004016104cf90612830565b6001600160a01b038116611fe75760405162461bcd60e51b815260206004820152600560248201526429a922189b60d91b60448201526064016104cf565b6004546040516001600160a01b038084169216907f8be0079c531659141344cd1fd0a4f28419497f9722a3daafe3b4186f6b6457e090600090a3600480546001600160a01b0319166001600160a01b0392909216919091179055565b6000818154811061205357600080fd5b6000918252602090912060059091020180546001820154600283015460038401546004909401546001600160a01b0390931694509092909185565b6040516001600160a01b0383166024820152604481018290526120f190849063a9059cbb60e01b906064015b60408051601f198184030181529190526020810180516001600160e01b03166001600160e01b0319909316929092179091526121a7565b505050565b60008183106121055781612107565b825b9392505050565b83546001600160a01b031660009081526003840160205260408120805484929061213990849061284f565b9250508190555081846004016000828254612154919061284f565b90915550508354610e1a906001600160a01b0316828461208e565b6040516001600160a01b0380851660248301528316604482015260648101829052610e1a9085906323b872dd60e01b906084016120ba565b60006121fc826040518060400160405280602081526020017f5361666545524332303a206c6f772d6c6576656c2063616c6c206661696c6564815250856001600160a01b03166122799092919063ffffffff16565b8051909150156120f1578080602001905181019061221a9190612616565b6120f15760405162461bcd60e51b815260206004820152602a60248201527f5361666545524332303a204552433230206f7065726174696f6e20646964206e6044820152691bdd081cdd58d8d9595960b21b60648201526084016104cf565b60606122888484600085612290565b949350505050565b6060824710156122f15760405162461bcd60e51b815260206004820152602660248201527f416464726573733a20696e73756666696369656e742062616c616e636520666f6044820152651c8818d85b1b60d21b60648201526084016104cf565b843b61233f5760405162461bcd60e51b815260206004820152601d60248201527f416464726573733a2063616c6c20746f206e6f6e2d636f6e747261637400000060448201526064016104cf565b600080866001600160a01b0316858760405161235b9190612696565b60006040518083038185875af1925050503d8060008114612398576040519150601f19603f3d011682016040523d82523d6000602084013e61239d565b606091505b50915091506123ad8282866123b8565b979650505050505050565b606083156123c7575081612107565b8251156123d75782518084602001fd5b8160405162461bcd60e51b81526004016104cf91906127de565b80356001600160a01b038116811461240857600080fd5b919050565b60008083601f84011261241e578081fd5b5081356001600160401b03811115612434578182fd5b6020830191508360208260051b850101111561244f57600080fd5b9250929050565b80356001600160401b038116811461240857600080fd5b60006020828403121561247e578081fd5b612107826123f1565b600080600080600080600080600060e08a8c0312156124a4578485fd5b89356001600160401b03808211156124ba578687fd5b6124c68d838e0161240d565b909b5099508991506124da60208d016123f1565b985060408c01359150808211156124ef578687fd5b506124fc8c828d0161240d565b909750955061250f905060608b01612456565b935061251d60808b01612456565b925060a08a013561252d8161297c565b8092505060c08a013590509295985092959850929598565b60008060408385031215612557578182fd5b82356001600160401b038082111561256d578384fd5b818501915085601f830112612580578384fd5b813560208282111561259457612594612966565b8160051b604051601f19603f830116810181811086821117156125b9576125b9612966565b604052838152828101945085830182870184018b10156125d7578889fd5b8896505b848710156125f95780358652600196909601959483019483016125db565b50965061260990508782016123f1565b9450505050509250929050565b600060208284031215612627578081fd5b81516121078161297c565b600060208284031215612643578081fd5b5035919050565b60006020828403121561265b578081fd5b5051919050565b81835260006001600160fb1b0383111561267a578081fd5b8260051b80836020870137939093016020019283525090919050565b600082516126a88184602087016128e5565b9190910192915050565b60e0808252810189905260008a6101008301825b8c8110156126f4576001600160a01b036126df846123f1565b168252602092830192909101906001016126c6565b506001600160a01b038b1660208501528381036040850152612717818a8c612662565b9250505061273060608301876001600160401b03169052565b6001600160401b0394909416608082015291151560a083015260c0909101529695505050505050565b6020808252825182820181905260009190848201906040850190845b8181101561279a5783516001600160a01b031683529284019291840191600101612775565b50909695505050505050565b6020808252825182820181905260009190848201906040850190845b8181101561279a578351835292840192918401916001016127c2565b60208152600082518060208401526127fd8160408501602087016128e5565b601f01601f19169190910160400192915050565b602080825260059082015264053524432360dc1b604082015260600190565b602080825260059082015264535244313760d81b604082015260600190565b6000821982111561286257612862612950565b500190565b60008261288257634e487b7160e01b81526012600452602481fd5b500490565b60008160001904831182151516156128a1576128a1612950565b500290565b6000828210156128b8576128b8612950565b500390565b60006001600160401b03838116908316818110156128dd576128dd612950565b039392505050565b60005b838110156129005781810151838201526020016128e8565b83811115610e1a5750506000910152565b600060001982141561292557612925612950565b5060010190565b600063ffffffff8083168181141561294657612946612950565b6001019392505050565b634e487b7160e01b600052601160045260246000fd5b634e487b7160e01b600052604160045260246000fd5b801515811461164057600080fdfea2646970667358221220de7512c0a5ff0e1d79e405260838abe5633edcf42128e0d63c1e26163c627bb864736f6c63430008040033",
  "immutableReferences": {},
  "source": "//SPDX-License-Identifier: GPL-3.0\n\npragma solidity ^0.8.0;\n\nimport \"@openzeppelin/contracts/token/ERC20/presets/ERC20PresetMinterPauser.sol\";\nimport \"../ERC20StakingRewardsDistribution.sol\";\n\ncontract FirstRewardERC20 is ERC20PresetMinterPauser {\n    constructor() ERC20PresetMinterPauser(\"First reward\", \"RWD1\") {}\n}\n\ncontract SecondRewardERC20 is ERC20PresetMinterPauser {\n    constructor() ERC20PresetMinterPauser(\"Second reward\", \"RWD2\") {}\n}\n\ncontract FirstStakableERC20 is ERC20PresetMinterPauser {\n    constructor() ERC20PresetMinterPauser(\"First stakable\", \"STK1\") {}\n}\n\ncontract SecondStakableERC20 is ERC20PresetMinterPauser {\n    constructor() ERC20PresetMinterPauser(\"Second stakable\", \"STK2\") {}\n}\n\ncontract UpgradedERC20StakingRewardsDistribution is\n    ERC20StakingRewardsDistribution\n{\n    function isUpgraded() external pure returns (bool) {\n        return true;\n    }\n}\n",
  "sourcePath": "/home/luzzif/Projects/swapr-lp-staker/contracts/test/TestDependencies.sol",
  "compiler": {
    "name": "solc",
    "version": "0.8.4+commit.c7e474f2.Emscripten.clang"
  },
  "schemaVersion": "3.3.3",
  "updatedAt": "2021-05-05T14:34:44.606Z",
  "devdoc": {
    "kind": "dev",
    "methods": {},
    "version": 1
  },
  "userdoc": {
    "kind": "user",
    "methods": {},
    "version": 1
  }
}