{
  "contractName": "ERC20Distribution",
  "abi": [
    {
      "anonymous": false,
      "inputs": [],
      "name": "Canceled",
      "type": "event"
    },
    {
      "anonymous": false,
      "inputs": [
        {
          "indexed": true,
          "internalType": "address",
          "name": "claimer",
          "type": "address"
        },
        {
          "indexed": false,
          "internalType": "uint256[]",
          "name": "amounts",
          "type": "uint256[]"
        }
      ],
      "name": "Claimed",
      "type": "event"
    },
    {
      "anonymous": false,
      "inputs": [
        {
          "indexed": false,
          "internalType": "address[]",
          "name": "rewardsTokenAddresses",
          "type": "address[]"
        },
        {
          "indexed": false,
          "internalType": "address[]",
          "name": "stakableTokenAddresses",
          "type": "address[]"
        },
        {
          "indexed": false,
          "internalType": "uint256[]",
          "name": "rewardsAmounts",
          "type": "uint256[]"
        },
        {
          "indexed": false,
          "internalType": "uint256",
          "name": "startingTimestamp",
          "type": "uint256"
        },
        {
          "indexed": false,
          "internalType": "uint256",
          "name": "endingTimestamp",
          "type": "uint256"
        }
      ],
      "name": "Initialized",
      "type": "event"
    },
    {
      "anonymous": false,
      "inputs": [
        {
          "indexed": true,
          "internalType": "address",
          "name": "previousOwner",
          "type": "address"
        },
        {
          "indexed": true,
          "internalType": "address",
          "name": "newOwner",
          "type": "address"
        }
      ],
      "name": "OwnershipTransferred",
      "type": "event"
    },
    {
      "anonymous": false,
      "inputs": [
        {
          "indexed": false,
          "internalType": "uint256[]",
          "name": "amounts",
          "type": "uint256[]"
        }
      ],
      "name": "Recovered",
      "type": "event"
    },
    {
      "anonymous": false,
      "inputs": [
        {
          "indexed": true,
          "internalType": "address",
          "name": "staker",
          "type": "address"
        },
        {
          "indexed": false,
          "internalType": "uint256[]",
          "name": "amounts",
          "type": "uint256[]"
        }
      ],
      "name": "Staked",
      "type": "event"
    },
    {
      "anonymous": false,
      "inputs": [
        {
          "indexed": true,
          "internalType": "address",
          "name": "withdrawer",
          "type": "address"
        },
        {
          "indexed": false,
          "internalType": "uint256[]",
          "name": "amounts",
          "type": "uint256[]"
        }
      ],
      "name": "Withdrawn",
      "type": "event"
    },
    {
      "inputs": [
        {
          "internalType": "address",
          "name": "",
          "type": "address"
        },
        {
          "internalType": "address",
          "name": "",
          "type": "address"
        }
      ],
      "name": "claimedReward",
      "outputs": [
        {
          "internalType": "uint256",
          "name": "",
          "type": "uint256"
        }
      ],
      "stateMutability": "view",
      "type": "function"
    },
    {
      "inputs": [
        {
          "internalType": "address",
          "name": "",
          "type": "address"
        },
        {
          "internalType": "address",
          "name": "",
          "type": "address"
        }
      ],
      "name": "consolidatedRewardsPerStakedToken",
      "outputs": [
        {
          "internalType": "uint256",
          "name": "",
          "type": "uint256"
        }
      ],
      "stateMutability": "view",
      "type": "function"
    },
    {
      "inputs": [
        {
          "internalType": "address",
          "name": "",
          "type": "address"
        },
        {
          "internalType": "address",
          "name": "",
          "type": "address"
        }
      ],
      "name": "earnedRewards",
      "outputs": [
        {
          "internalType": "uint256",
          "name": "",
          "type": "uint256"
        }
      ],
      "stateMutability": "view",
      "type": "function"
    },
    {
      "inputs": [],
      "name": "endingTimestamp",
      "outputs": [
        {
          "internalType": "uint256",
          "name": "",
          "type": "uint256"
        }
      ],
      "stateMutability": "view",
      "type": "function"
    },
    {
      "inputs": [],
      "name": "initialized",
      "outputs": [
        {
          "internalType": "bool",
          "name": "",
          "type": "bool"
        }
      ],
      "stateMutability": "view",
      "type": "function"
    },
    {
      "inputs": [],
      "name": "lastConsolidationTimestamp",
      "outputs": [
        {
          "internalType": "uint256",
          "name": "",
          "type": "uint256"
        }
      ],
      "stateMutability": "view",
      "type": "function"
    },
    {
      "inputs": [],
      "name": "owner",
      "outputs": [
        {
          "internalType": "address",
          "name": "",
          "type": "address"
        }
      ],
      "stateMutability": "view",
      "type": "function"
    },
    {
      "inputs": [
        {
          "internalType": "address",
          "name": "",
          "type": "address"
        }
      ],
      "name": "recoverableUnassignedReward",
      "outputs": [
        {
          "internalType": "uint256",
          "name": "",
          "type": "uint256"
        }
      ],
      "stateMutability": "view",
      "type": "function"
    },
    {
      "inputs": [],
      "name": "renounceOwnership",
      "outputs": [],
      "stateMutability": "nonpayable",
      "type": "function"
    },
    {
      "inputs": [
        {
          "internalType": "address",
          "name": "",
          "type": "address"
        }
      ],
      "name": "rewardAmount",
      "outputs": [
        {
          "internalType": "uint256",
          "name": "",
          "type": "uint256"
        }
      ],
      "stateMutability": "view",
      "type": "function"
    },
    {
      "inputs": [
        {
          "internalType": "address",
          "name": "",
          "type": "address"
        }
      ],
      "name": "rewardPerSecond",
      "outputs": [
        {
          "internalType": "uint256",
          "name": "",
          "type": "uint256"
        }
      ],
      "stateMutability": "view",
      "type": "function"
    },
    {
      "inputs": [
        {
          "internalType": "address",
          "name": "",
          "type": "address"
        }
      ],
      "name": "rewardPerStakedToken",
      "outputs": [
        {
          "internalType": "uint256",
          "name": "",
          "type": "uint256"
        }
      ],
      "stateMutability": "view",
      "type": "function"
    },
    {
      "inputs": [
        {
          "internalType": "address",
          "name": "",
          "type": "address"
        }
      ],
      "name": "rewardTokenMultiplier",
      "outputs": [
        {
          "internalType": "uint256",
          "name": "",
          "type": "uint256"
        }
      ],
      "stateMutability": "view",
      "type": "function"
    },
    {
      "inputs": [
        {
          "internalType": "uint256",
          "name": "",
          "type": "uint256"
        }
      ],
      "name": "rewardTokens",
      "outputs": [
        {
          "internalType": "contract ERC20",
          "name": "",
          "type": "address"
        }
      ],
      "stateMutability": "view",
      "type": "function"
    },
    {
      "inputs": [
        {
          "internalType": "uint256",
          "name": "",
          "type": "uint256"
        }
      ],
      "name": "stakableTokens",
      "outputs": [
        {
          "internalType": "contract ERC20",
          "name": "",
          "type": "address"
        }
      ],
      "stateMutability": "view",
      "type": "function"
    },
    {
      "inputs": [
        {
          "internalType": "address",
          "name": "",
          "type": "address"
        }
      ],
      "name": "stakedTokenAmount",
      "outputs": [
        {
          "internalType": "uint256",
          "name": "",
          "type": "uint256"
        }
      ],
      "stateMutability": "view",
      "type": "function"
    },
    {
      "inputs": [
        {
          "internalType": "address",
          "name": "",
          "type": "address"
        },
        {
          "internalType": "address",
          "name": "",
          "type": "address"
        }
      ],
      "name": "stakedTokensOf",
      "outputs": [
        {
          "internalType": "uint256",
          "name": "",
          "type": "uint256"
        }
      ],
      "stateMutability": "view",
      "type": "function"
    },
    {
      "inputs": [],
      "name": "startingTimestamp",
      "outputs": [
        {
          "internalType": "uint256",
          "name": "",
          "type": "uint256"
        }
      ],
      "stateMutability": "view",
      "type": "function"
    },
    {
      "inputs": [],
      "name": "totalStakedTokensAmount",
      "outputs": [
        {
          "internalType": "uint256",
          "name": "",
          "type": "uint256"
        }
      ],
      "stateMutability": "view",
      "type": "function"
    },
    {
      "inputs": [
        {
          "internalType": "address",
          "name": "newOwner",
          "type": "address"
        }
      ],
      "name": "transferOwnership",
      "outputs": [],
      "stateMutability": "nonpayable",
      "type": "function"
    },
    {
      "inputs": [],
      "name": "getRewardTokens",
      "outputs": [
        {
          "internalType": "contract ERC20[]",
          "name": "",
          "type": "address[]"
        }
      ],
      "stateMutability": "view",
      "type": "function"
    },
    {
      "inputs": [],
      "name": "getStakableTokens",
      "outputs": [
        {
          "internalType": "contract ERC20[]",
          "name": "",
          "type": "address[]"
        }
      ],
      "stateMutability": "view",
      "type": "function"
    },
    {
      "inputs": [
        {
          "internalType": "address[]",
          "name": "_rewardTokenAddresses",
          "type": "address[]"
        },
        {
          "internalType": "address[]",
          "name": "_stakableTokenAddresses",
          "type": "address[]"
        },
        {
          "internalType": "uint256[]",
          "name": "_rewardAmounts",
          "type": "uint256[]"
        },
        {
          "internalType": "uint256",
          "name": "_startingTimestamp",
          "type": "uint256"
        },
        {
          "internalType": "uint256",
          "name": "_endingTimestamp",
          "type": "uint256"
        }
      ],
      "name": "initialize",
      "outputs": [],
      "stateMutability": "nonpayable",
      "type": "function"
    },
    {
      "inputs": [],
      "name": "cancel",
      "outputs": [],
      "stateMutability": "nonpayable",
      "type": "function"
    },
    {
      "inputs": [],
      "name": "recoverUnassignedRewards",
      "outputs": [],
      "stateMutability": "nonpayable",
      "type": "function"
    },
    {
      "inputs": [
        {
          "internalType": "uint256[]",
          "name": "_amounts",
          "type": "uint256[]"
        }
      ],
      "name": "stake",
      "outputs": [],
      "stateMutability": "nonpayable",
      "type": "function"
    },
    {
      "inputs": [
        {
          "internalType": "uint256[]",
          "name": "_amounts",
          "type": "uint256[]"
        }
      ],
      "name": "withdraw",
      "outputs": [],
      "stateMutability": "nonpayable",
      "type": "function"
    },
    {
      "inputs": [],
      "name": "claim",
      "outputs": [],
      "stateMutability": "nonpayable",
      "type": "function"
    },
    {
      "inputs": [],
      "name": "consolidateReward",
      "outputs": [],
      "stateMutability": "nonpayable",
      "type": "function"
    }
  ],
  "bytecode": "0x608060405234801561001057600080fd5b50600061001b61006a565b600080546001600160a01b0319166001600160a01b0383169081178255604051929350917f8be0079c531659141344cd1fd0a4f28419497f9722a3daafe3b4186f6b6457e0908290a35061006e565b3390565b61294f8061007d6000396000f3fe608060405234801561001057600080fd5b50600436106101cf5760003560e01c806375b8dbf811610104578063b41fa979116100a2578063e66d85be11610071578063e66d85be14610660578063ea8a1af014610686578063ebbf95e11461068e578063f2fde38b14610696576101cf565b8063b41fa979146105f0578063c10de300146105f8578063c4f59f9b14610600578063e644067d14610658576101cf565b806388786272116100de578063887862721461054c5780638da5cb5b14610554578063983d95ce1461055c57806398f81230146105ca576101cf565b806375b8dbf8146104db5780637bb7bed114610509578063867b2f2714610526576101cf565b80634e71d92d11610171578063645a8a561161014b578063645a8a56146104775780636715dcb81461049d578063715018a6146104a5578063728e4a67146104ad576101cf565b80634e71d92d1461043957806355415592146104415780635e5294b71461046f576101cf565b806334380a61116101ad57806334380a61146103745780633b34ee50146103b4578063407f2932146103da57806348895a9c14610413576101cf565b80630fbf0a93146101d4578063158ef93e146102445780631aa5bc1214610260575b600080fd5b610242600480360360208110156101ea57600080fd5b810190602081018135600160201b81111561020457600080fd5b82018360208201111561021657600080fd5b803590602001918460208302840111600160201b8311171561023757600080fd5b5090925090506106bc565b005b61024c61099a565b604080519115158252519081900360200190f35b610242600480360360a081101561027657600080fd5b810190602081018135600160201b81111561029057600080fd5b8201836020820111156102a257600080fd5b803590602001918460208302840111600160201b831117156102c357600080fd5b919390929091602081019035600160201b8111156102e057600080fd5b8201836020820111156102f257600080fd5b803590602001918460208302840111600160201b8311171561031357600080fd5b919390929091602081019035600160201b81111561033057600080fd5b82018360208201111561034257600080fd5b803590602001918460208302840111600160201b8311171561036357600080fd5b9193509150803590602001356109a3565b6103a26004803603604081101561038a57600080fd5b506001600160a01b038135811691602001351661103f565b60408051918252519081900360200190f35b6103a2600480360360208110156103ca57600080fd5b50356001600160a01b031661105c565b6103f7600480360360208110156103f057600080fd5b503561106e565b604080516001600160a01b039092168252519081900360200190f35b6103a26004803603602081101561042957600080fd5b50356001600160a01b0316611095565b6102426110a7565b6103a26004803603604081101561045757600080fd5b506001600160a01b0381358116916020013516611306565b6103a2611323565b6103a26004803603602081101561048d57600080fd5b50356001600160a01b0316611329565b61024261133b565b610242611642565b6103a2600480360360408110156104c357600080fd5b506001600160a01b03813581169160200135166116e4565b6103a2600480360360408110156104f157600080fd5b506001600160a01b0381358116916020013516611701565b6103f76004803603602081101561051f57600080fd5b503561171e565b6103a26004803603602081101561053c57600080fd5b50356001600160a01b031661172b565b6103a261173d565b6103f7611743565b6102426004803603602081101561057257600080fd5b810190602081018135600160201b81111561058c57600080fd5b82018360208201111561059e57600080fd5b803590602001918460208302840111600160201b831117156105bf57600080fd5b509092509050611752565b6103a2600480360360208110156105e057600080fd5b50356001600160a01b0316611a2d565b6103a2611a3f565b6103a2611a45565b610608611a4b565b60408051602080825283518183015283519192839290830191858101910280838360005b8381101561064457818101518382015260200161062c565b505050509050019250505060405180910390f35b610242611aad565b6103a26004803603602081101561067657600080fd5b50356001600160a01b0316611cad565b610242611cbf565b610608611f16565b610242600480360360208110156106ac57600080fd5b50356001600160a01b0316611f76565b600b5460ff16610701576040805162461bcd60e51b815260206004820152601c6024820152600080516020612799833981519152604482015290519081900360640190fd5b600b5460ff16801561071557506009544210155b610754576040805162461bcd60e51b81526020600482015260186024820152600080516020612648833981519152604482015290519081900360640190fd5b600b5460ff1680156107685750600a544211155b6107b9576040805162461bcd60e51b815260206004820152601a60248201527f45524332305374616b65723a20616c726561647920656e646564000000000000604482015290519081900360640190fd5b60025481146107f95760405162461bcd60e51b815260040180806020018281038252602f8152602001806128b9602f913960400191505060405180910390fd5b61080161133b565b60005b8181101561092857600083838381811061081a57fe5b90506020020135905080600014156108325750610920565b60006002838154811061084157fe5b6000918252602090912001546001600160a01b03169050806108658133308661206e565b336000908152600e602090815260408083206001600160a01b038516845290915290205461089390846120ce565b336000908152600e602090815260408083206001600160a01b03861684528252808320939093556006905220546108ca90846120ce565b6001600160a01b038216600090815260066020908152604080832093909355338252600f905220546108fc90846120ce565b336000908152600f602052604090205560075461091990846120ce565b6007555050505b600101610804565b50336001600160a01b03167f134b166c6094cc1ccbf1e3353ce5c3cd9fd29869051bdb999895854d77cc5ef6838360405180806020018281038252848482818152602001925060200280828437600083820152604051601f909101601f19169092018290039550909350505050a25050565b600b5460ff1681565b6109ab612131565b6000546001600160a01b039081169116146109fb576040805162461bcd60e51b815260206004820181905260248201526000805160206127da833981519152604482015290519081900360640190fd5b600b5460ff1615610a53576040805162461bcd60e51b815260206004820181905260248201527f45524332305374616b65723a20616c726561647920696e697469616c697a6564604482015290519081900360640190fd5b42808311610a925760405162461bcd60e51b815260040180806020018281038252603b8152602001806127fa603b913960400191505060405180910390fd5b828211610ad05760405162461bcd60e51b81526004018080602001828103825260228152602001806128976022913960400191505060405180910390fd5b878414610b0e5760405162461bcd60e51b815260040180806020018281038252603b8152602001806126b4603b913960400191505060405180910390fd5b610b1a6001600061260d565b82820360005b63ffffffff81168a1115610e465760008b8b8363ffffffff16818110610b4257fe5b905060200201356001600160a01b0316905060006001600160a01b0316816001600160a01b03161415610ba65760405162461bcd60e51b815260040180806020018281038252602681526020018061268e6026913960400191505060405180910390fd5b806000898963ffffffff8616818110610bbb57fe5b90506020020135905060008111610c12576040805162461bcd60e51b8152602060048201526016602482015275115490cc8c14dd185ad95c8e881b9bc81c995dd85c9960521b604482015290519081900360640190fd5b80826001600160a01b03166370a08231306040518263ffffffff1660e01b815260040180826001600160a01b0316815260200191505060206040518083038186803b158015610c6057600080fd5b505afa158015610c74573d6000803e3d6000fd5b505050506040513d6020811015610c8a57600080fd5b50511015610cdf576040805162461bcd60e51b815260206004820152601b60248201527f45524332305374616b65723a2066756e64732072657175697265640000000000604482015290519081900360640190fd5b6000826001600160a01b031663313ce5676040518163ffffffff1660e01b815260040160206040518083038186803b158015610d1a57600080fd5b505afa158015610d2e573d6000803e3d6000fd5b505050506040513d6020811015610d4457600080fd5b505160ff1690506012811115610d8b5760405162461bcd60e51b81526004018080602001828103825260338152602001806127666033913960400191505060405180910390fd5b60018054808201825560008290527fb10e2d527612073b26eecdfd717e6a320cf44b4afac2b0732d9fcbe2b7fa0cf60180546001600160a01b0319166001600160a01b038616179055610de290600a83900a612135565b6001600160a01b038516600090815260036020526040902055610e05828761218e565b6001600160a01b039094166000908152600560209081526040808320969096556004815285822093909355600d909252509182209190915550600101610b20565b50610e536002600061260d565b60005b63ffffffff8116881115610f3457600089898363ffffffff16818110610e7857fe5b905060200201356001600160a01b0316905060006001600160a01b0316816001600160a01b03161415610edc5760405162461bcd60e51b815260040180806020018281038252602881526020018061273e6028913960400191505060405180910390fd5b60028054600180820183556000929092527f405787fa12a823e0f2b7631cc41b3ba8828b3321ca811111fa75cd3aa3bb5ace0180546001600160a01b0319166001600160a01b03939093169290921790915501610e56565b5060006007556009849055600a839055600c849055600b805460ff1916600117905560408051606081018690526080810185905260a080825281018b90527fb66a7fdfa1f812a423a8fd3e3493e80bc558e754516d86c479ecf358b2f7c297918c918c918c918c918c918c918c918c91819060208083019183019060c08401908d908d0280828437600083820152601f01601f191690910185810384528a8152602090810191508b908b0280828437600083820152601f01601f19169091018581038352888152602090810191508990890280828437600083820152604051601f909101601f19169092018290039d50909b505050505050505050505050a150505050505050505050565b601260209081526000928352604080842090915290825290205481565b600d6020526000908152604090205481565b6002818154811061107b57fe5b6000918252602090912001546001600160a01b0316905081565b60036020526000908152604090205481565b600b5460ff166110ec576040805162461bcd60e51b815260206004820152601c6024820152600080516020612799833981519152604482015290519081900360640190fd5b600b5460ff16801561110057506009544210155b61113f576040805162461bcd60e51b81526020600482015260186024820152600080516020612648833981519152604482015290519081900360640190fd5b61114761133b565b60015460609067ffffffffffffffff8111801561116357600080fd5b5060405190808252806020026020018201604052801561118d578160200160208202803683370190505b50905060005b60015481101561128e576000600182815481106111ac57fe5b6000918252602080832090910154338084526012835260408085206001600160a01b0390931680865292845280852054918552601184528085208386529093529183205490935083929161120091906121d0565b90506112166001600160a01b0384163383612212565b3360009081526012602090815260408083206001600160a01b038616845290915290205461124490826120ce565b3360009081526012602090815260408083206001600160a01b03871684529091529020558451819086908690811061127857fe5b6020908102919091010152505050600101611193565b50604080516020808252835181830152835133937f28ee566bdecaf975c0979f4d09fecf91a9009ffe78523aef053a678134137b8b93869390928392830191808601910280838360005b838110156112f05781810151838201526020016112d8565b505050509050019250505060405180910390a250565b600e60209081526000928352604080842090915290825290205481565b600a5481565b60046020526000908152604090205481565b600b5460ff16611380576040805162461bcd60e51b815260206004820152601c6024820152600080516020612799833981519152604482015290519081900360640190fd5b600b5460ff16801561139457506009544210155b6113d3576040805162461bcd60e51b81526020600482015260186024820152600080516020612648833981519152604482015290519081900360640190fd5b60006113e142600a54612269565b905060006113fa600c54836121d090919063ffffffff16565b905060005b60015481101561163b5760006001828154811061141857fe5b6000918252602090912001546007546001600160a01b0390911691506114ab576001600160a01b03811660009081526005602052604090205461147f90611460908590612135565b6001600160a01b0383166000908152600d6020526040902054906120ce565b6001600160a01b0382166000908152600d60209081526040808320939093556008905290812055611532565b6007546001600160a01b038216600090815260036020908152604080832054600590925290912054611518926114f99290916114f391906114ed908990612135565b90612135565b9061218e565b6001600160a01b038316600090815260086020526040902054906120ce565b6001600160a01b0382166000908152600860205260409020555b6001600160a01b0381166000908152600860205260408120546115565760006115b7565b6001600160a01b03821660008181526003602090815260408083205433845260108352818420948452938252808320546008909252909120546115b792916114f3916115a1916121d0565b336000908152600f602052604090205490612135565b3360009081526011602090815260408083206001600160a01b03871684529091529020549091506115e890826120ce565b3360008181526011602090815260408083206001600160a01b03979097168084529682528083209490945560088152838220549282526010815283822095825294909452922091909155506001016113ff565b5050600c55565b61164a612131565b6000546001600160a01b0390811691161461169a576040805162461bcd60e51b815260206004820181905260248201526000805160206127da833981519152604482015290519081900360640190fd5b600080546040516001600160a01b03909116907f8be0079c531659141344cd1fd0a4f28419497f9722a3daafe3b4186f6b6457e0908390a3600080546001600160a01b0319169055565b601160209081526000928352604080842090915290825290205481565b601060209081526000928352604080842090915290825290205481565b6001818154811061107b57fe5b60056020526000908152604090205481565b60095481565b6000546001600160a01b031690565b600b5460ff16611797576040805162461bcd60e51b815260206004820152601c6024820152600080516020612799833981519152604482015290519081900360640190fd5b600b5460ff1680156117ab57506009544210155b6117ea576040805162461bcd60e51b81526020600482015260186024820152600080516020612648833981519152604482015290519081900360640190fd5b600254811461182a5760405162461bcd60e51b81526004018080602001828103825260328152602001806128e86032913960400191505060405180910390fd5b61183261133b565b60005b818110156119bb57600083838381811061184b57fe5b905060200201359050806000141561186357506119b3565b60006002838154811061187257fe5b6000918252602080832090910154338352600e825260408084206001600160a01b039092168085529190925291205490915081908311156118e45760405162461bcd60e51b81526004018080602001828103825260388152602001806128356038913960400191505060405180910390fd5b6118f86001600160a01b0383163385612212565b336000908152600e602090815260408083206001600160a01b038516845290915290205461192690846121d0565b336000908152600e602090815260408083206001600160a01b038616845282528083209390935560069052205461195d90846121d0565b6001600160a01b038216600090815260066020908152604080832093909355338252600f9052205461198f90846121d0565b336000908152600f60205260409020556007546119ac90846121d0565b6007555050505b600101611835565b50336001600160a01b03167ff35c46796392b0deae18b1c5ac3cc50df76b67ef9bcf256df595a3607aab6258838360405180806020018281038252848482818152602001925060200280828437600083820152604051601f909101601f19169092018290039550909350505050a25050565b60086020526000908152604090205481565b60075481565b600c5481565b60606001805480602002602001604051908101604052809291908181526020018280548015611aa357602002820191906000526020600020905b81546001600160a01b03168152600190910190602001808311611a85575b5050505050905090565b600b5460ff16611af2576040805162461bcd60e51b815260206004820152601c6024820152600080516020612799833981519152604482015290519081900360640190fd5b600b5460ff168015611b0657506009544210155b611b45576040805162461bcd60e51b81526020600482015260186024820152600080516020612648833981519152604482015290519081900360640190fd5b611b4d61133b565b60015460608167ffffffffffffffff81118015611b6957600080fd5b50604051908082528060200260200182016040528015611b93578160200160208202803683370190505b50905060005b82811015611c3357600060018281548110611bb057fe5b60009182526020808320909101546001600160a01b0316808352600d909152604090912054909150611bf4611be3611743565b6001600160a01b0384169083612212565b80848481518110611c0157fe5b6020908102919091018101919091526001600160a01b039092166000908152600d909252506040812055600101611b99565b507ff904fafa600a7e4e8039f3a5497d1b6016772e3060f87d3e40f911b315f00bd1816040518080602001828103825283818151815260200191508051906020019060200280838360005b83811015611c96578181015183820152602001611c7e565b505050509050019250505060405180910390a15050565b60066020526000908152604090205481565b600b5460ff16611d04576040805162461bcd60e51b815260206004820152601c6024820152600080516020612799833981519152604482015290519081900360640190fd5b611d0c612131565b6000546001600160a01b03908116911614611d5c576040805162461bcd60e51b815260206004820181905260248201526000805160206127da833981519152604482015290519081900360640190fd5b6009544210611d9c5760405162461bcd60e51b81526004018080602001828103825260298152602001806127156029913960400191505060405180910390fd5b60005b600154811015611eb957600060018281548110611db857fe5b60009182526020808320909101546001600160a01b0316808352600490915260409091205490915081908163095ea7b3611df0611743565b836040518363ffffffff1660e01b815260040180836001600160a01b0316815260200182815260200192505050602060405180830381600087803b158015611e3757600080fd5b505af1158015611e4b573d6000803e3d6000fd5b505050506040513d6020811015611e6157600080fd5b50611e809050611e6f611743565b6001600160a01b0385169083612212565b506001600160a01b0316600090815260036020908152604080832083905560048252808320839055600590915281205550600101611d9f565b50611ec66001600061260d565b611ed26002600061260d565b60006009819055600a819055600c819055600b805460ff191690556040517f1afb0ae590df277bcb3a37f88612725bf1f7df4755792b1548a7efe77985ff779190a1565b60606002805480602002602001604051908101604052809291908181526020018280548015611aa3576020028201919060005260206000209081546001600160a01b03168152600190910190602001808311611a85575050505050905090565b611f7e612131565b6000546001600160a01b03908116911614611fce576040805162461bcd60e51b815260206004820181905260248201526000805160206127da833981519152604482015290519081900360640190fd5b6001600160a01b0381166120135760405162461bcd60e51b81526004018080602001828103825260268152602001806126686026913960400191505060405180910390fd5b600080546040516001600160a01b03808516939216917f8be0079c531659141344cd1fd0a4f28419497f9722a3daafe3b4186f6b6457e091a3600080546001600160a01b0319166001600160a01b0392909216919091179055565b604080516001600160a01b0380861660248301528416604482015260648082018490528251808303909101815260849091019091526020810180516001600160e01b03166323b872dd60e01b1790526120c890859061227f565b50505050565b600082820183811015612128576040805162461bcd60e51b815260206004820152601b60248201527f536166654d6174683a206164646974696f6e206f766572666c6f770000000000604482015290519081900360640190fd5b90505b92915050565b3390565b6000826121445750600061212b565b8282028284828161215157fe5b04146121285760405162461bcd60e51b81526004018080602001828103825260218152602001806127b96021913960400191505060405180910390fd5b600061212883836040518060400160405280601a81526020017f536166654d6174683a206469766973696f6e206279207a65726f000000000000815250612330565b600061212883836040518060400160405280601e81526020017f536166654d6174683a207375627472616374696f6e206f766572666c6f7700008152506123d4565b604080516001600160a01b038416602482015260448082018490528251808303909101815260649091019091526020810180516001600160e01b031663a9059cbb60e01b17905261226490849061227f565b505050565b60008183106122785781612128565b5090919050565b60606122d4826040518060400160405280602081526020017f5361666545524332303a206c6f772d6c6576656c2063616c6c206661696c6564815250856001600160a01b031661242e9092919063ffffffff16565b805190915015612264578080602001905160208110156122f357600080fd5b50516122645760405162461bcd60e51b815260040180806020018281038252602a81526020018061286d602a913960400191505060405180910390fd5b600081836123bc5760405162461bcd60e51b81526004018080602001828103825283818151815260200191508051906020019080838360005b83811015612381578181015183820152602001612369565b50505050905090810190601f1680156123ae5780820380516001836020036101000a031916815260200191505b509250505060405180910390fd5b5060008385816123c857fe5b049150505b9392505050565b600081848411156124265760405162461bcd60e51b8152602060048201818152835160248401528351909283926044909101919085019080838360008315612381578181015183820152602001612369565b505050900390565b606061243d8484600085612445565b949350505050565b6060824710156124865760405162461bcd60e51b81526004018080602001828103825260268152602001806126ef6026913960400191505060405180910390fd5b61248f856125a1565b6124e0576040805162461bcd60e51b815260206004820152601d60248201527f416464726573733a2063616c6c20746f206e6f6e2d636f6e7472616374000000604482015290519081900360640190fd5b60006060866001600160a01b031685876040518082805190602001908083835b6020831061251f5780518252601f199092019160209182019101612500565b6001836020036101000a03801982511681845116808217855250505050505090500191505060006040518083038185875af1925050503d8060008114612581576040519150601f19603f3d011682016040523d82523d6000602084013e612586565b606091505b50915091506125968282866125a7565b979650505050505050565b3b151590565b606083156125b65750816123cd565b8251156125c65782518084602001fd5b60405162461bcd60e51b8152602060048201818152845160248401528451859391928392604401919085019080838360008315612381578181015183820152602001612369565b508054600082559060005260206000209081019061262b919061262e565b50565b5b80821115612643576000815560010161262f565b509056fe45524332305374616b65723a206e6f74207374617274656400000000000000004f776e61626c653a206e6577206f776e657220697320746865207a65726f206164647265737345524332305374616b65723a203020616464726573732061732072657761726420746f6b656e45524332305374616b65723a20696e636f6e73697374656e742072657761726420746f6b656e2f616d6f756e7420617272617973206c656e677468416464726573733a20696e73756666696369656e742062616c616e636520666f722063616c6c45524332305374616b65723a20646973747269627574696f6e20616c7265616479207374617274656445524332305374616b65723a20302061646472657373206173207374616b61626c6520746f6b656e45524332305374616b65723a206d6f7265207468616e20313820646563696d616c7320666f722072657761726420746f6b656e45524332305374616b65723a206e6f7420696e697469616c697a656400000000536166654d6174683a206d756c7469706c69636174696f6e206f766572666c6f774f776e61626c653a2063616c6c6572206973206e6f7420746865206f776e657245524332305374616b65723a207374617274696e672074696d657374616d70206c6f776572206f7220657175616c207468616e2063757272656e7445524332305374616b65723a2077697468647261776e20616d6f756e742067726561746572207468616e2063757272656e74207374616b655361666545524332303a204552433230206f7065726174696f6e20646964206e6f74207375636365656445524332305374616b65723a20696e76616c69642074696d65206475726174696f6e45524332305374616b65723a20696e636f6e73697374656e74207374616b656420616d6f756e7473206c656e67746845524332305374616b65723a20696e636f6e73697374656e742077697468647261776e20616d6f756e7473206c656e677468a26469706673582212202bd03e4488e75f5aef21af71bff85dba63dc6b016d627ddf1940f3cf82a83c2664736f6c634300060c0033",
  "immutableReferences": {},
  "source": "// SPDX-License-Identifier: GPL-3.0\n\npragma solidity ^0.6.12;\n\nimport \"@openzeppelin/contracts/math/SafeMath.sol\";\nimport \"@openzeppelin/contracts/math/Math.sol\";\nimport \"@openzeppelin/contracts/token/ERC20/ERC20.sol\";\nimport \"@openzeppelin/contracts/token/ERC20/SafeERC20.sol\";\nimport \"@openzeppelin/contracts/access/Ownable.sol\";\nimport \"./IDistribution.sol\";\n\ncontract ERC20Distribution is IDistribution, Ownable {\n    using SafeMath for uint256;\n    using SafeERC20 for ERC20;\n\n    ERC20[] public rewardTokens;\n    ERC20[] public stakableTokens;\n    mapping(address => uint256) public rewardTokenMultiplier;\n    mapping(address => uint256) public rewardAmount;\n    mapping(address => uint256) public rewardPerSecond;\n    mapping(address => uint256) public stakedTokenAmount;\n    uint256 public totalStakedTokensAmount;\n    mapping(address => uint256) public rewardPerStakedToken;\n    uint256 public startingTimestamp;\n    uint256 public endingTimestamp;\n    bool public initialized;\n    uint256 public lastConsolidationTimestamp;\n    mapping(address => uint256) public recoverableUnassignedReward;\n\n    mapping(address => mapping(address => uint256)) public stakedTokensOf;\n    mapping(address => uint256) private totalStakedTokensOf;\n    mapping(address => mapping(address => uint256))\n        public consolidatedRewardsPerStakedToken;\n    mapping(address => mapping(address => uint256)) public earnedRewards;\n    mapping(address => mapping(address => uint256)) public claimedReward;\n\n    event Initialized(\n        address[] rewardsTokenAddresses,\n        address[] stakableTokenAddresses,\n        uint256[] rewardsAmounts,\n        uint256 startingTimestamp,\n        uint256 endingTimestamp\n    );\n    event Canceled();\n    event Staked(address indexed staker, uint256[] amounts);\n    event Withdrawn(address indexed withdrawer, uint256[] amounts);\n    event Claimed(address indexed claimer, uint256[] amounts);\n    event Recovered(uint256[] amounts);\n\n    function getRewardTokens() external view returns (ERC20[] memory) {\n        return rewardTokens;\n    }\n\n    function getStakableTokens() external view returns (ERC20[] memory) {\n        return stakableTokens;\n    }\n\n    function initialize(\n        address[] calldata _rewardTokenAddresses,\n        address[] calldata _stakableTokenAddresses,\n        uint256[] calldata _rewardAmounts,\n        uint256 _startingTimestamp,\n        uint256 _endingTimestamp\n    ) external override onlyOwner onlyUninitialized {\n        uint256 _currentTimestamp = block.timestamp;\n        require(\n            _startingTimestamp > _currentTimestamp,\n            \"ERC20Staker: starting timestamp lower or equal than current\"\n        );\n        require(\n            _endingTimestamp > _startingTimestamp,\n            \"ERC20Staker: invalid time duration\"\n        );\n        require(\n            _rewardTokenAddresses.length == _rewardAmounts.length,\n            \"ERC20Staker: inconsistent reward token/amount arrays length\"\n        );\n\n        delete rewardTokens;\n        uint256 _secondsDuration = _endingTimestamp - _startingTimestamp;\n        // Initializing reward tokens and amounts\n        for (uint32 _i = 0; _i < _rewardTokenAddresses.length; _i++) {\n            address _rewardTokenAddress = _rewardTokenAddresses[_i];\n            require(\n                _rewardTokenAddress != address(0),\n                \"ERC20Staker: 0 address as reward token\"\n            );\n            ERC20 _rewardToken = ERC20(_rewardTokenAddress);\n            uint256 _rewardAmount = _rewardAmounts[_i];\n            require(_rewardAmount > 0, \"ERC20Staker: no reward\");\n            require(\n                _rewardToken.balanceOf(address(this)) >= _rewardAmount,\n                \"ERC20Staker: funds required\"\n            );\n            // avoid overflow down the road by constraining the reward\n            // token decimals to a maximum of 18\n            uint256 _rewardTokenDecimals = _rewardToken.decimals();\n            require(\n                _rewardTokenDecimals <= 18,\n                \"ERC20Staker: more than 18 decimals for reward token\"\n            );\n            rewardTokens.push(_rewardToken);\n            rewardTokenMultiplier[_rewardTokenAddress] = uint256(1).mul(\n                uint256(10)**uint256(_rewardTokenDecimals)\n            );\n            rewardPerSecond[_rewardTokenAddress] = _rewardAmount.div(\n                _secondsDuration\n            );\n            rewardAmount[_rewardTokenAddress] = _rewardAmount;\n            recoverableUnassignedReward[_rewardTokenAddress] = 0;\n        }\n\n        // Initializing stakable tokens\n        delete stakableTokens;\n        for (uint32 _i = 0; _i < _stakableTokenAddresses.length; _i++) {\n            address _stakableTokenAddress = _stakableTokenAddresses[_i];\n            require(\n                _stakableTokenAddress != address(0),\n                \"ERC20Staker: 0 address as stakable token\"\n            );\n            stakableTokens.push(ERC20(_stakableTokenAddress));\n        }\n\n        totalStakedTokensAmount = 0;\n        startingTimestamp = _startingTimestamp;\n        endingTimestamp = _endingTimestamp;\n        lastConsolidationTimestamp = _startingTimestamp;\n\n        initialized = true;\n        emit Initialized(\n            _rewardTokenAddresses,\n            _stakableTokenAddresses,\n            _rewardAmounts,\n            _startingTimestamp,\n            _endingTimestamp\n        );\n    }\n\n    function cancel() external override onlyInitialized onlyOwner {\n        require(\n            block.timestamp < startingTimestamp,\n            \"ERC20Staker: distribution already started\"\n        );\n        // resetting reward information (both tokens and amounts)\n        for (uint256 _i; _i < rewardTokens.length; _i++) {\n            ERC20 rewardToken = rewardTokens[_i];\n            address rewardTokenAddress = address(rewardToken);\n            uint256 _relatedRewardAmount = rewardAmount[rewardTokenAddress];\n            rewardToken.approve(owner(), _relatedRewardAmount);\n            rewardToken.safeTransfer(owner(), _relatedRewardAmount);\n            delete rewardTokenMultiplier[rewardTokenAddress];\n            delete rewardAmount[rewardTokenAddress];\n            delete rewardPerSecond[rewardTokenAddress];\n        }\n        delete rewardTokens;\n        delete stakableTokens;\n        startingTimestamp = 0;\n        endingTimestamp = 0;\n        lastConsolidationTimestamp = 0;\n        initialized = false;\n        emit Canceled();\n    }\n\n    function recoverUnassignedRewards()\n        external\n        override\n        onlyInitialized\n        onlyStarted\n    {\n        consolidateReward();\n        uint256 _rewardTokensAmount = rewardTokens.length;\n        uint256[] memory _recoveredUnassignedRewards =\n            new uint256[](_rewardTokensAmount);\n        for (uint256 _i; _i < _rewardTokensAmount; _i++) {\n            ERC20 _relatedRewardToken = rewardTokens[_i];\n\n            uint256 _relatedUnassignedReward =\n                recoverableUnassignedReward[address(_relatedRewardToken)];\n            _relatedRewardToken.safeTransfer(owner(), _relatedUnassignedReward);\n            _recoveredUnassignedRewards[_i] = _relatedUnassignedReward;\n            delete recoverableUnassignedReward[address(_relatedRewardToken)];\n        }\n        emit Recovered(_recoveredUnassignedRewards);\n    }\n\n    function stake(uint256[] calldata _amounts)\n        external\n        override\n        onlyInitialized\n        onlyStarted\n        onlyRunning\n    {\n        require(\n            _amounts.length == stakableTokens.length,\n            \"ERC20Staker: inconsistent staked amounts length\"\n        );\n        consolidateReward();\n        for (uint256 _i; _i < _amounts.length; _i++) {\n            uint256 _amount = _amounts[_i];\n            if (_amount == 0) {\n                continue;\n            }\n            ERC20 _relatedStakableToken = stakableTokens[_i];\n            address _relatedStakableTokenAddress =\n                address(_relatedStakableToken);\n            _relatedStakableToken.safeTransferFrom(\n                msg.sender,\n                address(this),\n                _amount\n            );\n            stakedTokensOf[msg.sender][\n                _relatedStakableTokenAddress\n            ] = stakedTokensOf[msg.sender][_relatedStakableTokenAddress].add(\n                _amount\n            );\n            stakedTokenAmount[_relatedStakableTokenAddress] = stakedTokenAmount[\n                _relatedStakableTokenAddress\n            ]\n                .add(_amount);\n            totalStakedTokensOf[msg.sender] = totalStakedTokensOf[msg.sender]\n                .add(_amount);\n            totalStakedTokensAmount = totalStakedTokensAmount.add(_amount);\n        }\n        emit Staked(msg.sender, _amounts);\n    }\n\n    function withdraw(uint256[] calldata _amounts)\n        external\n        override\n        onlyInitialized\n        onlyStarted\n    {\n        require(\n            _amounts.length == stakableTokens.length,\n            \"ERC20Staker: inconsistent withdrawn amounts length\"\n        );\n        consolidateReward();\n        for (uint256 _i; _i < _amounts.length; _i++) {\n            uint256 _amount = _amounts[_i];\n            if (_amount == 0) {\n                continue;\n            }\n            ERC20 _relatedStakableToken = stakableTokens[_i];\n            address _relatedStakableTokenAddress =\n                address(_relatedStakableToken);\n            require(\n                _amount <=\n                    stakedTokensOf[msg.sender][_relatedStakableTokenAddress],\n                \"ERC20Staker: withdrawn amount greater than current stake\"\n            );\n            _relatedStakableToken.safeTransfer(msg.sender, _amount);\n            stakedTokensOf[msg.sender][\n                _relatedStakableTokenAddress\n            ] = stakedTokensOf[msg.sender][_relatedStakableTokenAddress].sub(\n                _amount\n            );\n            stakedTokenAmount[_relatedStakableTokenAddress] = stakedTokenAmount[\n                _relatedStakableTokenAddress\n            ]\n                .sub(_amount);\n            totalStakedTokensOf[msg.sender] = totalStakedTokensOf[msg.sender]\n                .sub(_amount);\n            totalStakedTokensAmount = totalStakedTokensAmount.sub(_amount);\n        }\n        emit Withdrawn(msg.sender, _amounts);\n    }\n\n    function claim() external override onlyInitialized onlyStarted {\n        consolidateReward();\n        uint256[] memory _pendingRewards = new uint256[](rewardTokens.length);\n        for (uint256 _i; _i < rewardTokens.length; _i++) {\n            ERC20 _relatedRewardToken = rewardTokens[_i];\n            address _relatedRewardTokenAddress = address(_relatedRewardToken);\n            uint256 _pendingReward =\n                earnedRewards[msg.sender][_relatedRewardTokenAddress].sub(\n                    claimedReward[msg.sender][_relatedRewardTokenAddress]\n                );\n            _relatedRewardToken.safeTransfer(msg.sender, _pendingReward);\n            claimedReward[msg.sender][\n                _relatedRewardTokenAddress\n            ] = claimedReward[msg.sender][_relatedRewardTokenAddress].add(\n                _pendingReward\n            );\n            _pendingRewards[_i] = _pendingReward;\n        }\n        emit Claimed(msg.sender, _pendingRewards);\n    }\n\n    function consolidateReward() public onlyInitialized onlyStarted {\n        uint256 _consolidationTimestamp =\n            Math.min(block.timestamp, endingTimestamp);\n        uint256 _lastPeriodDuration =\n            _consolidationTimestamp.sub(lastConsolidationTimestamp);\n        for (uint256 _i; _i < rewardTokens.length; _i++) {\n            address _relatedRewardTokenAddress = address(rewardTokens[_i]);\n            if (totalStakedTokensAmount == 0) {\n                // If the current staked tokens amount is zero, there have been unassigned rewards in the last period.\n                // We add them to any previous one so that they can be claimed back by the contract's owner.\n                recoverableUnassignedReward[\n                    _relatedRewardTokenAddress\n                ] = recoverableUnassignedReward[_relatedRewardTokenAddress].add(\n                    _lastPeriodDuration.mul(\n                        rewardPerSecond[_relatedRewardTokenAddress]\n                    )\n                );\n                rewardPerStakedToken[_relatedRewardTokenAddress] = 0;\n            } else {\n                rewardPerStakedToken[\n                    _relatedRewardTokenAddress\n                ] = rewardPerStakedToken[_relatedRewardTokenAddress].add(\n                    _lastPeriodDuration\n                        .mul(rewardPerSecond[_relatedRewardTokenAddress])\n                        .mul(rewardTokenMultiplier[_relatedRewardTokenAddress])\n                        .div(totalStakedTokensAmount)\n                );\n            }\n            // avoids subtraction overflow. If the rewards per staked tokens are 0,\n            // the rewards in current period must be 0 by definition, no need to\n            // perform subtraction risking overflow.\n\n            uint256 _rewardInCurrentPeriod =\n                rewardPerStakedToken[_relatedRewardTokenAddress] > 0\n                    ? totalStakedTokensOf[msg.sender]\n                        .mul(\n                        rewardPerStakedToken[_relatedRewardTokenAddress].sub(\n                            consolidatedRewardsPerStakedToken[msg.sender][\n                                _relatedRewardTokenAddress\n                            ]\n                        )\n                    )\n                        .div(rewardTokenMultiplier[_relatedRewardTokenAddress])\n                    : 0;\n            earnedRewards[msg.sender][\n                _relatedRewardTokenAddress\n            ] = earnedRewards[msg.sender][_relatedRewardTokenAddress].add(\n                _rewardInCurrentPeriod\n            );\n            consolidatedRewardsPerStakedToken[msg.sender][\n                _relatedRewardTokenAddress\n            ] = rewardPerStakedToken[_relatedRewardTokenAddress];\n        }\n        lastConsolidationTimestamp = _consolidationTimestamp;\n    }\n\n    modifier onlyUninitialized() {\n        require(!initialized, \"ERC20Staker: already initialized\");\n        _;\n    }\n\n    modifier onlyInitialized() {\n        require(initialized, \"ERC20Staker: not initialized\");\n        _;\n    }\n\n    modifier onlyStarted() {\n        require(\n            initialized && block.timestamp >= startingTimestamp,\n            \"ERC20Staker: not started\"\n        );\n        _;\n    }\n\n    modifier onlyRunning() {\n        require(\n            initialized && block.timestamp <= endingTimestamp,\n            \"ERC20Staker: already ended\"\n        );\n        _;\n    }\n}\n",
  "sourcePath": "/home/luzzif/Projects/swapr-lp-staker/contracts/distributions/ERC20Distribution.sol",
  "compiler": {
    "name": "solc",
    "version": "0.6.12+commit.27d51765.Emscripten.clang"
  },
  "schemaVersion": "3.3.3",
  "updatedAt": "2020-12-23T13:56:43.228Z",
  "devdoc": {
    "kind": "dev",
    "methods": {
      "owner()": {
        "details": "Returns the address of the current owner."
      },
      "renounceOwnership()": {
        "details": "Leaves the contract without owner. It will not be possible to call `onlyOwner` functions anymore. Can only be called by the current owner. NOTE: Renouncing ownership will leave the contract without an owner, thereby removing any functionality that is only available to the owner."
      },
      "transferOwnership(address)": {
        "details": "Transfers ownership of the contract to a new account (`newOwner`). Can only be called by the current owner."
      }
    },
    "version": 1
  },
  "userdoc": {
    "kind": "user",
    "methods": {},
    "version": 1
  }
}