{
  "contractName": "ERC20Staker",
  "abi": [
    {
      "anonymous": false,
      "inputs": [],
      "name": "Canceled",
      "type": "event"
    },
    {
      "anonymous": false,
      "inputs": [
        {
          "indexed": true,
          "internalType": "address",
          "name": "claimer",
          "type": "address"
        },
        {
          "indexed": false,
          "internalType": "uint256[]",
          "name": "amounts",
          "type": "uint256[]"
        }
      ],
      "name": "Claimed",
      "type": "event"
    },
    {
      "anonymous": false,
      "inputs": [
        {
          "indexed": false,
          "internalType": "address[]",
          "name": "rewardsTokenAddresses",
          "type": "address[]"
        },
        {
          "indexed": false,
          "internalType": "address[]",
          "name": "stakableTokenAddresses",
          "type": "address[]"
        },
        {
          "indexed": false,
          "internalType": "uint256[]",
          "name": "rewardsAmounts",
          "type": "uint256[]"
        },
        {
          "indexed": false,
          "internalType": "uint256",
          "name": "startingTimestamp",
          "type": "uint256"
        },
        {
          "indexed": false,
          "internalType": "uint256",
          "name": "endingTimestamp",
          "type": "uint256"
        }
      ],
      "name": "Initialized",
      "type": "event"
    },
    {
      "anonymous": false,
      "inputs": [
        {
          "indexed": true,
          "internalType": "address",
          "name": "previousOwner",
          "type": "address"
        },
        {
          "indexed": true,
          "internalType": "address",
          "name": "newOwner",
          "type": "address"
        }
      ],
      "name": "OwnershipTransferred",
      "type": "event"
    },
    {
      "anonymous": false,
      "inputs": [
        {
          "indexed": false,
          "internalType": "uint256[]",
          "name": "amounts",
          "type": "uint256[]"
        }
      ],
      "name": "Recovered",
      "type": "event"
    },
    {
      "anonymous": false,
      "inputs": [
        {
          "indexed": true,
          "internalType": "address",
          "name": "staker",
          "type": "address"
        },
        {
          "indexed": false,
          "internalType": "uint256[]",
          "name": "amounts",
          "type": "uint256[]"
        }
      ],
      "name": "Staked",
      "type": "event"
    },
    {
      "anonymous": false,
      "inputs": [
        {
          "indexed": true,
          "internalType": "address",
          "name": "withdrawer",
          "type": "address"
        },
        {
          "indexed": false,
          "internalType": "uint256[]",
          "name": "amounts",
          "type": "uint256[]"
        }
      ],
      "name": "Withdrawn",
      "type": "event"
    },
    {
      "inputs": [
        {
          "internalType": "address",
          "name": "",
          "type": "address"
        },
        {
          "internalType": "address",
          "name": "",
          "type": "address"
        }
      ],
      "name": "claimedReward",
      "outputs": [
        {
          "internalType": "uint256",
          "name": "",
          "type": "uint256"
        }
      ],
      "stateMutability": "view",
      "type": "function"
    },
    {
      "inputs": [
        {
          "internalType": "address",
          "name": "",
          "type": "address"
        },
        {
          "internalType": "address",
          "name": "",
          "type": "address"
        }
      ],
      "name": "consolidatedRewardsPerStakedToken",
      "outputs": [
        {
          "internalType": "uint256",
          "name": "",
          "type": "uint256"
        }
      ],
      "stateMutability": "view",
      "type": "function"
    },
    {
      "inputs": [
        {
          "internalType": "address",
          "name": "",
          "type": "address"
        },
        {
          "internalType": "address",
          "name": "",
          "type": "address"
        }
      ],
      "name": "earnedRewards",
      "outputs": [
        {
          "internalType": "uint256",
          "name": "",
          "type": "uint256"
        }
      ],
      "stateMutability": "view",
      "type": "function"
    },
    {
      "inputs": [],
      "name": "endingTimestamp",
      "outputs": [
        {
          "internalType": "uint256",
          "name": "",
          "type": "uint256"
        }
      ],
      "stateMutability": "view",
      "type": "function"
    },
    {
      "inputs": [],
      "name": "initialized",
      "outputs": [
        {
          "internalType": "bool",
          "name": "",
          "type": "bool"
        }
      ],
      "stateMutability": "view",
      "type": "function"
    },
    {
      "inputs": [],
      "name": "lastConsolidationTimestamp",
      "outputs": [
        {
          "internalType": "uint256",
          "name": "",
          "type": "uint256"
        }
      ],
      "stateMutability": "view",
      "type": "function"
    },
    {
      "inputs": [],
      "name": "owner",
      "outputs": [
        {
          "internalType": "address",
          "name": "",
          "type": "address"
        }
      ],
      "stateMutability": "view",
      "type": "function"
    },
    {
      "inputs": [
        {
          "internalType": "address",
          "name": "",
          "type": "address"
        }
      ],
      "name": "recoverableUnassignedReward",
      "outputs": [
        {
          "internalType": "uint256",
          "name": "",
          "type": "uint256"
        }
      ],
      "stateMutability": "view",
      "type": "function"
    },
    {
      "inputs": [],
      "name": "renounceOwnership",
      "outputs": [],
      "stateMutability": "nonpayable",
      "type": "function"
    },
    {
      "inputs": [
        {
          "internalType": "address",
          "name": "",
          "type": "address"
        }
      ],
      "name": "rewardAmount",
      "outputs": [
        {
          "internalType": "uint256",
          "name": "",
          "type": "uint256"
        }
      ],
      "stateMutability": "view",
      "type": "function"
    },
    {
      "inputs": [
        {
          "internalType": "address",
          "name": "",
          "type": "address"
        }
      ],
      "name": "rewardPerSecond",
      "outputs": [
        {
          "internalType": "uint256",
          "name": "",
          "type": "uint256"
        }
      ],
      "stateMutability": "view",
      "type": "function"
    },
    {
      "inputs": [
        {
          "internalType": "address",
          "name": "",
          "type": "address"
        }
      ],
      "name": "rewardPerStakedToken",
      "outputs": [
        {
          "internalType": "uint256",
          "name": "",
          "type": "uint256"
        }
      ],
      "stateMutability": "view",
      "type": "function"
    },
    {
      "inputs": [
        {
          "internalType": "address",
          "name": "",
          "type": "address"
        }
      ],
      "name": "rewardTokenMultiplier",
      "outputs": [
        {
          "internalType": "uint256",
          "name": "",
          "type": "uint256"
        }
      ],
      "stateMutability": "view",
      "type": "function"
    },
    {
      "inputs": [
        {
          "internalType": "uint256",
          "name": "",
          "type": "uint256"
        }
      ],
      "name": "rewardTokens",
      "outputs": [
        {
          "internalType": "contract ERC20",
          "name": "",
          "type": "address"
        }
      ],
      "stateMutability": "view",
      "type": "function"
    },
    {
      "inputs": [
        {
          "internalType": "uint256",
          "name": "",
          "type": "uint256"
        }
      ],
      "name": "stakableTokens",
      "outputs": [
        {
          "internalType": "contract ERC20",
          "name": "",
          "type": "address"
        }
      ],
      "stateMutability": "view",
      "type": "function"
    },
    {
      "inputs": [
        {
          "internalType": "address",
          "name": "",
          "type": "address"
        }
      ],
      "name": "stakedTokenAmount",
      "outputs": [
        {
          "internalType": "uint256",
          "name": "",
          "type": "uint256"
        }
      ],
      "stateMutability": "view",
      "type": "function"
    },
    {
      "inputs": [
        {
          "internalType": "address",
          "name": "",
          "type": "address"
        },
        {
          "internalType": "address",
          "name": "",
          "type": "address"
        }
      ],
      "name": "stakedTokensOf",
      "outputs": [
        {
          "internalType": "uint256",
          "name": "",
          "type": "uint256"
        }
      ],
      "stateMutability": "view",
      "type": "function"
    },
    {
      "inputs": [],
      "name": "startingTimestamp",
      "outputs": [
        {
          "internalType": "uint256",
          "name": "",
          "type": "uint256"
        }
      ],
      "stateMutability": "view",
      "type": "function"
    },
    {
      "inputs": [],
      "name": "totalStakedTokensAmount",
      "outputs": [
        {
          "internalType": "uint256",
          "name": "",
          "type": "uint256"
        }
      ],
      "stateMutability": "view",
      "type": "function"
    },
    {
      "inputs": [
        {
          "internalType": "address",
          "name": "newOwner",
          "type": "address"
        }
      ],
      "name": "transferOwnership",
      "outputs": [],
      "stateMutability": "nonpayable",
      "type": "function"
    },
    {
      "inputs": [],
      "name": "getRewardTokens",
      "outputs": [
        {
          "internalType": "contract ERC20[]",
          "name": "",
          "type": "address[]"
        }
      ],
      "stateMutability": "view",
      "type": "function"
    },
    {
      "inputs": [],
      "name": "getStakableTokens",
      "outputs": [
        {
          "internalType": "contract ERC20[]",
          "name": "",
          "type": "address[]"
        }
      ],
      "stateMutability": "view",
      "type": "function"
    },
    {
      "inputs": [
        {
          "internalType": "address[]",
          "name": "_rewardTokenAddresses",
          "type": "address[]"
        },
        {
          "internalType": "address[]",
          "name": "_stakableTokenAddresses",
          "type": "address[]"
        },
        {
          "internalType": "uint256[]",
          "name": "_rewardAmounts",
          "type": "uint256[]"
        },
        {
          "internalType": "uint256",
          "name": "_startingTimestamp",
          "type": "uint256"
        },
        {
          "internalType": "uint256",
          "name": "_endingTimestamp",
          "type": "uint256"
        }
      ],
      "name": "initialize",
      "outputs": [],
      "stateMutability": "nonpayable",
      "type": "function"
    },
    {
      "inputs": [],
      "name": "cancel",
      "outputs": [],
      "stateMutability": "nonpayable",
      "type": "function"
    },
    {
      "inputs": [],
      "name": "recoverUnassignedRewards",
      "outputs": [],
      "stateMutability": "nonpayable",
      "type": "function"
    },
    {
      "inputs": [
        {
          "internalType": "uint256[]",
          "name": "_amounts",
          "type": "uint256[]"
        }
      ],
      "name": "stake",
      "outputs": [],
      "stateMutability": "nonpayable",
      "type": "function"
    },
    {
      "inputs": [
        {
          "internalType": "uint256[]",
          "name": "_amounts",
          "type": "uint256[]"
        }
      ],
      "name": "withdraw",
      "outputs": [],
      "stateMutability": "nonpayable",
      "type": "function"
    },
    {
      "inputs": [],
      "name": "claim",
      "outputs": [],
      "stateMutability": "nonpayable",
      "type": "function"
    },
    {
      "inputs": [],
      "name": "consolidateReward",
      "outputs": [],
      "stateMutability": "nonpayable",
      "type": "function"
    }
  ],
  "bytecode": "0x608060405234801561001057600080fd5b50600061001b61006a565b600080546001600160a01b0319166001600160a01b0383169081178255604051929350917f8be0079c531659141344cd1fd0a4f28419497f9722a3daafe3b4186f6b6457e0908290a35061006e565b3390565b6128b28061007d6000396000f3fe608060405234801561001057600080fd5b50600436106101cf5760003560e01c806375b8dbf811610104578063b41fa979116100a2578063e66d85be11610071578063e66d85be14610660578063ea8a1af014610686578063ebbf95e11461068e578063f2fde38b14610696576101cf565b8063b41fa979146105f0578063c10de300146105f8578063c4f59f9b14610600578063e644067d14610658576101cf565b806388786272116100de578063887862721461054c5780638da5cb5b14610554578063983d95ce1461055c57806398f81230146105ca576101cf565b806375b8dbf8146104db5780637bb7bed114610509578063867b2f2714610526576101cf565b80634e71d92d11610171578063645a8a561161014b578063645a8a56146104775780636715dcb81461049d578063715018a6146104a5578063728e4a67146104ad576101cf565b80634e71d92d1461043957806355415592146104415780635e5294b71461046f576101cf565b806334380a61116101ad57806334380a61146103745780633b34ee50146103b4578063407f2932146103da57806348895a9c14610413576101cf565b80630fbf0a93146101d4578063158ef93e146102445780631aa5bc1214610260575b600080fd5b610242600480360360208110156101ea57600080fd5b810190602081018135600160201b81111561020457600080fd5b82018360208201111561021657600080fd5b803590602001918460208302840111600160201b8311171561023757600080fd5b5090925090506106bc565b005b61024c61099a565b604080519115158252519081900360200190f35b610242600480360360a081101561027657600080fd5b810190602081018135600160201b81111561029057600080fd5b8201836020820111156102a257600080fd5b803590602001918460208302840111600160201b831117156102c357600080fd5b919390929091602081019035600160201b8111156102e057600080fd5b8201836020820111156102f257600080fd5b803590602001918460208302840111600160201b8311171561031357600080fd5b919390929091602081019035600160201b81111561033057600080fd5b82018360208201111561034257600080fd5b803590602001918460208302840111600160201b8311171561036357600080fd5b9193509150803590602001356109a3565b6103a26004803603604081101561038a57600080fd5b506001600160a01b0381358116916020013516611014565b60408051918252519081900360200190f35b6103a2600480360360208110156103ca57600080fd5b50356001600160a01b0316611031565b6103f7600480360360208110156103f057600080fd5b5035611043565b604080516001600160a01b039092168252519081900360200190f35b6103a26004803603602081101561042957600080fd5b50356001600160a01b031661106a565b61024261107c565b6103a26004803603604081101561045757600080fd5b506001600160a01b03813581169160200135166112db565b6103a26112f8565b6103a26004803603602081101561048d57600080fd5b50356001600160a01b03166112fe565b610242611310565b610242611617565b6103a2600480360360408110156104c357600080fd5b506001600160a01b03813581169160200135166116b9565b6103a2600480360360408110156104f157600080fd5b506001600160a01b03813581169160200135166116d6565b6103f76004803603602081101561051f57600080fd5b50356116f3565b6103a26004803603602081101561053c57600080fd5b50356001600160a01b0316611700565b6103a2611712565b6103f7611718565b6102426004803603602081101561057257600080fd5b810190602081018135600160201b81111561058c57600080fd5b82018360208201111561059e57600080fd5b803590602001918460208302840111600160201b831117156105bf57600080fd5b509092509050611727565b6103a2600480360360208110156105e057600080fd5b50356001600160a01b03166119c2565b6103a26119d4565b6103a26119da565b6106086119e0565b60408051602080825283518183015283519192839290830191858101910280838360005b8381101561064457818101518382015260200161062c565b505050509050019250505060405180910390f35b610242611a42565b6103a26004803603602081101561067657600080fd5b50356001600160a01b0316611c42565b610242611c54565b610608611eab565b610242600480360360208110156106ac57600080fd5b50356001600160a01b0316611f0b565b600b5460ff16610701576040805162461bcd60e51b815260206004820152601c602482015260008051602061272e833981519152604482015290519081900360640190fd5b600b5460ff16801561071557506009544210155b610754576040805162461bcd60e51b815260206004820152601860248201526000805160206125dd833981519152604482015290519081900360640190fd5b600b5460ff1680156107685750600a544211155b6107b9576040805162461bcd60e51b815260206004820152601a60248201527f45524332305374616b65723a20616c726561647920656e646564000000000000604482015290519081900360640190fd5b60025481146107f95760405162461bcd60e51b815260040180806020018281038252602f81526020018061284e602f913960400191505060405180910390fd5b610801611310565b60005b8181101561092857600083838381811061081a57fe5b90506020020135905080600014156108325750610920565b60006002838154811061084157fe5b6000918252602090912001546001600160a01b031690508061086581333086612003565b336000908152600e602090815260408083206001600160a01b03851684529091529020546108939084612063565b336000908152600e602090815260408083206001600160a01b03861684528252808320939093556006905220546108ca9084612063565b6001600160a01b038216600090815260066020908152604080832093909355338252600f905220546108fc9084612063565b336000908152600f60205260409020556007546109199084612063565b6007555050505b600101610804565b50336001600160a01b03167f134b166c6094cc1ccbf1e3353ce5c3cd9fd29869051bdb999895854d77cc5ef6838360405180806020018281038252848482818152602001925060200280828437600083820152604051601f909101601f19169092018290039550909350505050a25050565b600b5460ff1681565b6109ab6120c6565b6000546001600160a01b039081169116146109fb576040805162461bcd60e51b8152602060048201819052602482015260008051602061276f833981519152604482015290519081900360640190fd5b600b5460ff1615610a53576040805162461bcd60e51b815260206004820181905260248201527f45524332305374616b65723a20616c726561647920696e697469616c697a6564604482015290519081900360640190fd5b42808311610a925760405162461bcd60e51b815260040180806020018281038252603b81526020018061278f603b913960400191505060405180910390fd5b828211610ad05760405162461bcd60e51b815260040180806020018281038252602281526020018061282c6022913960400191505060405180910390fd5b878414610b0e5760405162461bcd60e51b815260040180806020018281038252603b815260200180612649603b913960400191505060405180910390fd5b82820360005b63ffffffff81168a1115610e2c5760008b8b8363ffffffff16818110610b3657fe5b905060200201356001600160a01b0316905060006001600160a01b0316816001600160a01b03161415610b9a5760405162461bcd60e51b81526004018080602001828103825260268152602001806126236026913960400191505060405180910390fd5b806000898963ffffffff8616818110610baf57fe5b90506020020135905060008111610c06576040805162461bcd60e51b8152602060048201526016602482015275115490cc8c14dd185ad95c8e881b9bc81c995dd85c9960521b604482015290519081900360640190fd5b80826001600160a01b03166370a08231306040518263ffffffff1660e01b815260040180826001600160a01b0316815260200191505060206040518083038186803b158015610c5457600080fd5b505afa158015610c68573d6000803e3d6000fd5b505050506040513d6020811015610c7e57600080fd5b50511015610cd3576040805162461bcd60e51b815260206004820152601b60248201527f45524332305374616b65723a2066756e64732072657175697265640000000000604482015290519081900360640190fd5b6000826001600160a01b031663313ce5676040518163ffffffff1660e01b815260040160206040518083038186803b158015610d0e57600080fd5b505afa158015610d22573d6000803e3d6000fd5b505050506040513d6020811015610d3857600080fd5b505160ff1690506012811115610d7f5760405162461bcd60e51b81526004018080602001828103825260338152602001806126fb6033913960400191505060405180910390fd5b60018054808201825560008290527fb10e2d527612073b26eecdfd717e6a320cf44b4afac2b0732d9fcbe2b7fa0cf60180546001600160a01b0319166001600160a01b038616179055610dd690600a83900a6120ca565b6001600160a01b038516600090815260036020526040902055610df98287612123565b6001600160a01b039094166000908152600560209081526040808320969096556004905293909320555050600101610b14565b5060005b63ffffffff8116881115610f0e57600089898363ffffffff16818110610e5257fe5b905060200201356001600160a01b0316905060006001600160a01b0316816001600160a01b03161415610eb65760405162461bcd60e51b81526004018080602001828103825260288152602001806126d36028913960400191505060405180910390fd5b60028054600180820183556000929092527f405787fa12a823e0f2b7631cc41b3ba8828b3321ca811111fa75cd3aa3bb5ace0180546001600160a01b0319166001600160a01b03939093169290921790915501610e30565b506009849055600a839055600c849055600b805460ff1916600117905560408051606081018690526080810185905260a080825281018b90527fb66a7fdfa1f812a423a8fd3e3493e80bc558e754516d86c479ecf358b2f7c297918c918c918c918c918c918c918c918c91819060208083019183019060c08401908d908d0280828437600083820152601f01601f191690910185810384528a8152602090810191508b908b0280828437600083820152601f01601f19169091018581038352888152602090810191508990890280828437600083820152604051601f909101601f19169092018290039d50909b505050505050505050505050a150505050505050505050565b601260209081526000928352604080842090915290825290205481565b600d6020526000908152604090205481565b6002818154811061105057fe5b6000918252602090912001546001600160a01b0316905081565b60036020526000908152604090205481565b600b5460ff166110c1576040805162461bcd60e51b815260206004820152601c602482015260008051602061272e833981519152604482015290519081900360640190fd5b600b5460ff1680156110d557506009544210155b611114576040805162461bcd60e51b815260206004820152601860248201526000805160206125dd833981519152604482015290519081900360640190fd5b61111c611310565b60015460609067ffffffffffffffff8111801561113857600080fd5b50604051908082528060200260200182016040528015611162578160200160208202803683370190505b50905060005b6001548110156112635760006001828154811061118157fe5b6000918252602080832090910154338084526012835260408085206001600160a01b039093168086529284528085205491855260118452808520838652909352918320549093508392916111d59190612165565b90506111eb6001600160a01b03841633836121a7565b3360009081526012602090815260408083206001600160a01b03861684529091529020546112199082612063565b3360009081526012602090815260408083206001600160a01b03871684529091529020558451819086908690811061124d57fe5b6020908102919091010152505050600101611168565b50604080516020808252835181830152835133937f28ee566bdecaf975c0979f4d09fecf91a9009ffe78523aef053a678134137b8b93869390928392830191808601910280838360005b838110156112c55781810151838201526020016112ad565b505050509050019250505060405180910390a250565b600e60209081526000928352604080842090915290825290205481565b600a5481565b60046020526000908152604090205481565b600b5460ff16611355576040805162461bcd60e51b815260206004820152601c602482015260008051602061272e833981519152604482015290519081900360640190fd5b600b5460ff16801561136957506009544210155b6113a8576040805162461bcd60e51b815260206004820152601860248201526000805160206125dd833981519152604482015290519081900360640190fd5b60006113b642600a546121fe565b905060006113cf600c548361216590919063ffffffff16565b905060005b600154811015611610576000600182815481106113ed57fe5b6000918252602090912001546007546001600160a01b039091169150611480576001600160a01b038116600090815260056020526040902054611454906114359085906120ca565b6001600160a01b0383166000908152600d602052604090205490612063565b6001600160a01b0382166000908152600d60209081526040808320939093556008905290812055611507565b6007546001600160a01b0382166000908152600360209081526040808320546005909252909120546114ed926114ce9290916114c891906114c29089906120ca565b906120ca565b90612123565b6001600160a01b03831660009081526008602052604090205490612063565b6001600160a01b0382166000908152600860205260409020555b6001600160a01b03811660009081526008602052604081205461152b57600061158c565b6001600160a01b038216600081815260036020908152604080832054338452601083528184209484529382528083205460089092529091205461158c92916114c89161157691612165565b336000908152600f6020526040902054906120ca565b3360009081526011602090815260408083206001600160a01b03871684529091529020549091506115bd9082612063565b3360008181526011602090815260408083206001600160a01b03979097168084529682528083209490945560088152838220549282526010815283822095825294909452922091909155506001016113d4565b5050600c55565b61161f6120c6565b6000546001600160a01b0390811691161461166f576040805162461bcd60e51b8152602060048201819052602482015260008051602061276f833981519152604482015290519081900360640190fd5b600080546040516001600160a01b03909116907f8be0079c531659141344cd1fd0a4f28419497f9722a3daafe3b4186f6b6457e0908390a3600080546001600160a01b0319169055565b601160209081526000928352604080842090915290825290205481565b601060209081526000928352604080842090915290825290205481565b6001818154811061105057fe5b60056020526000908152604090205481565b60095481565b6000546001600160a01b031690565b600b5460ff1661176c576040805162461bcd60e51b815260206004820152601c602482015260008051602061272e833981519152604482015290519081900360640190fd5b600b5460ff16801561178057506009544210155b6117bf576040805162461bcd60e51b815260206004820152601860248201526000805160206125dd833981519152604482015290519081900360640190fd5b6117c7611310565b60005b818110156119505760008383838181106117e057fe5b90506020020135905080600014156117f85750611948565b60006002838154811061180757fe5b6000918252602080832090910154338352600e825260408084206001600160a01b039092168085529190925291205490915081908311156118795760405162461bcd60e51b81526004018080602001828103825260388152602001806127ca6038913960400191505060405180910390fd5b61188d6001600160a01b03831633856121a7565b336000908152600e602090815260408083206001600160a01b03851684529091529020546118bb9084612165565b336000908152600e602090815260408083206001600160a01b03861684528252808320939093556006905220546118f29084612165565b6001600160a01b038216600090815260066020908152604080832093909355338252600f905220546119249084612165565b336000908152600f60205260409020556007546119419084612165565b6007555050505b6001016117ca565b50336001600160a01b03167ff35c46796392b0deae18b1c5ac3cc50df76b67ef9bcf256df595a3607aab6258838360405180806020018281038252848482818152602001925060200280828437600083820152604051601f909101601f19169092018290039550909350505050a25050565b60086020526000908152604090205481565b60075481565b600c5481565b60606001805480602002602001604051908101604052809291908181526020018280548015611a3857602002820191906000526020600020905b81546001600160a01b03168152600190910190602001808311611a1a575b5050505050905090565b600b5460ff16611a87576040805162461bcd60e51b815260206004820152601c602482015260008051602061272e833981519152604482015290519081900360640190fd5b600b5460ff168015611a9b57506009544210155b611ada576040805162461bcd60e51b815260206004820152601860248201526000805160206125dd833981519152604482015290519081900360640190fd5b611ae2611310565b60015460608167ffffffffffffffff81118015611afe57600080fd5b50604051908082528060200260200182016040528015611b28578160200160208202803683370190505b50905060005b82811015611bc857600060018281548110611b4557fe5b60009182526020808320909101546001600160a01b0316808352600d909152604090912054909150611b89611b78611718565b6001600160a01b03841690836121a7565b80848481518110611b9657fe5b6020908102919091018101919091526001600160a01b039092166000908152600d909252506040812055600101611b2e565b507ff904fafa600a7e4e8039f3a5497d1b6016772e3060f87d3e40f911b315f00bd1816040518080602001828103825283818151815260200191508051906020019060200280838360005b83811015611c2b578181015183820152602001611c13565b505050509050019250505060405180910390a15050565b60066020526000908152604090205481565b600b5460ff16611c99576040805162461bcd60e51b815260206004820152601c602482015260008051602061272e833981519152604482015290519081900360640190fd5b611ca16120c6565b6000546001600160a01b03908116911614611cf1576040805162461bcd60e51b8152602060048201819052602482015260008051602061276f833981519152604482015290519081900360640190fd5b6009544210611d315760405162461bcd60e51b81526004018080602001828103825260298152602001806126aa6029913960400191505060405180910390fd5b60005b600154811015611e4e57600060018281548110611d4d57fe5b60009182526020808320909101546001600160a01b0316808352600490915260409091205490915081908163095ea7b3611d85611718565b836040518363ffffffff1660e01b815260040180836001600160a01b0316815260200182815260200192505050602060405180830381600087803b158015611dcc57600080fd5b505af1158015611de0573d6000803e3d6000fd5b505050506040513d6020811015611df657600080fd5b50611e159050611e04611718565b6001600160a01b03851690836121a7565b506001600160a01b0316600090815260036020908152604080832083905560048252808320839055600590915281205550600101611d34565b50611e5b600160006125a2565b611e67600260006125a2565b60006009819055600a819055600c819055600b805460ff191690556040517f1afb0ae590df277bcb3a37f88612725bf1f7df4755792b1548a7efe77985ff779190a1565b60606002805480602002602001604051908101604052809291908181526020018280548015611a38576020028201919060005260206000209081546001600160a01b03168152600190910190602001808311611a1a575050505050905090565b611f136120c6565b6000546001600160a01b03908116911614611f63576040805162461bcd60e51b8152602060048201819052602482015260008051602061276f833981519152604482015290519081900360640190fd5b6001600160a01b038116611fa85760405162461bcd60e51b81526004018080602001828103825260268152602001806125fd6026913960400191505060405180910390fd5b600080546040516001600160a01b03808516939216917f8be0079c531659141344cd1fd0a4f28419497f9722a3daafe3b4186f6b6457e091a3600080546001600160a01b0319166001600160a01b0392909216919091179055565b604080516001600160a01b0380861660248301528416604482015260648082018490528251808303909101815260849091019091526020810180516001600160e01b03166323b872dd60e01b17905261205d908590612214565b50505050565b6000828201838110156120bd576040805162461bcd60e51b815260206004820152601b60248201527f536166654d6174683a206164646974696f6e206f766572666c6f770000000000604482015290519081900360640190fd5b90505b92915050565b3390565b6000826120d9575060006120c0565b828202828482816120e657fe5b04146120bd5760405162461bcd60e51b815260040180806020018281038252602181526020018061274e6021913960400191505060405180910390fd5b60006120bd83836040518060400160405280601a81526020017f536166654d6174683a206469766973696f6e206279207a65726f0000000000008152506122c5565b60006120bd83836040518060400160405280601e81526020017f536166654d6174683a207375627472616374696f6e206f766572666c6f770000815250612369565b604080516001600160a01b038416602482015260448082018490528251808303909101815260649091019091526020810180516001600160e01b031663a9059cbb60e01b1790526121f9908490612214565b505050565b600081831061220d57816120bd565b5090919050565b6060612269826040518060400160405280602081526020017f5361666545524332303a206c6f772d6c6576656c2063616c6c206661696c6564815250856001600160a01b03166123c39092919063ffffffff16565b8051909150156121f95780806020019051602081101561228857600080fd5b50516121f95760405162461bcd60e51b815260040180806020018281038252602a815260200180612802602a913960400191505060405180910390fd5b600081836123515760405162461bcd60e51b81526004018080602001828103825283818151815260200191508051906020019080838360005b838110156123165781810151838201526020016122fe565b50505050905090810190601f1680156123435780820380516001836020036101000a031916815260200191505b509250505060405180910390fd5b50600083858161235d57fe5b049150505b9392505050565b600081848411156123bb5760405162461bcd60e51b81526020600482018181528351602484015283519092839260449091019190850190808383600083156123165781810151838201526020016122fe565b505050900390565b60606123d284846000856123da565b949350505050565b60608247101561241b5760405162461bcd60e51b81526004018080602001828103825260268152602001806126846026913960400191505060405180910390fd5b61242485612536565b612475576040805162461bcd60e51b815260206004820152601d60248201527f416464726573733a2063616c6c20746f206e6f6e2d636f6e7472616374000000604482015290519081900360640190fd5b60006060866001600160a01b031685876040518082805190602001908083835b602083106124b45780518252601f199092019160209182019101612495565b6001836020036101000a03801982511681845116808217855250505050505090500191505060006040518083038185875af1925050503d8060008114612516576040519150601f19603f3d011682016040523d82523d6000602084013e61251b565b606091505b509150915061252b82828661253c565b979650505050505050565b3b151590565b6060831561254b575081612362565b82511561255b5782518084602001fd5b60405162461bcd60e51b81526020600482018181528451602484015284518593919283926044019190850190808383600083156123165781810151838201526020016122fe565b50805460008255906000526020600020908101906125c091906125c3565b50565b5b808211156125d857600081556001016125c4565b509056fe45524332305374616b65723a206e6f74207374617274656400000000000000004f776e61626c653a206e6577206f776e657220697320746865207a65726f206164647265737345524332305374616b65723a203020616464726573732061732072657761726420746f6b656e45524332305374616b65723a20696e636f6e73697374656e742072657761726420746f6b656e2f616d6f756e7420617272617973206c656e677468416464726573733a20696e73756666696369656e742062616c616e636520666f722063616c6c45524332305374616b65723a20646973747269627574696f6e20616c7265616479207374617274656445524332305374616b65723a20302061646472657373206173207374616b61626c6520746f6b656e45524332305374616b65723a206d6f7265207468616e20313820646563696d616c7320666f722072657761726420746f6b656e45524332305374616b65723a206e6f7420696e697469616c697a656400000000536166654d6174683a206d756c7469706c69636174696f6e206f766572666c6f774f776e61626c653a2063616c6c6572206973206e6f7420746865206f776e657245524332305374616b65723a207374617274696e672074696d657374616d70206c6f776572206f7220657175616c207468616e2063757272656e7445524332305374616b65723a2077697468647261776e20616d6f756e742067726561746572207468616e2063757272656e74207374616b655361666545524332303a204552433230206f7065726174696f6e20646964206e6f74207375636365656445524332305374616b65723a20696e76616c69642074696d65206475726174696f6e45524332305374616b65723a20696e636f6e73697374656e74207374616b656420616d6f756e7473206c656e677468a2646970667358221220dcf41ee462f98cb677c20e679b93348157a96f2aba70ef959ae694c1b03331be64736f6c634300060c0033",
  "immutableReferences": {},
  "source": "// SPDX-License-Identifier: GPL-3.0\n\npragma solidity ^0.6.12;\n\nimport \"@openzeppelin/contracts/math/SafeMath.sol\";\nimport \"@openzeppelin/contracts/math/Math.sol\";\nimport \"@openzeppelin/contracts/token/ERC20/ERC20.sol\";\nimport \"@openzeppelin/contracts/token/ERC20/SafeERC20.sol\";\nimport \"@openzeppelin/contracts/access/Ownable.sol\";\n\n\ncontract ERC20Staker is Ownable {\n    using SafeMath for uint256;\n    using SafeERC20 for ERC20;\n\n    ERC20[] public rewardTokens;\n    ERC20[] public stakableTokens;\n    mapping(address => uint256) public rewardTokenMultiplier;\n    mapping(address => uint256) public rewardAmount;\n    mapping(address => uint256) public rewardPerSecond;\n    mapping(address => uint256) public stakedTokenAmount;\n    uint256 public totalStakedTokensAmount;\n    mapping(address => uint256) public rewardPerStakedToken;\n    uint256 public startingTimestamp;\n    uint256 public endingTimestamp;\n    bool public initialized;\n    uint256 public lastConsolidationTimestamp;\n    mapping(address => uint256) public recoverableUnassignedReward;\n\n    mapping(address => mapping(address => uint256)) public stakedTokensOf;\n    mapping(address => uint256) private totalStakedTokensOf;\n    mapping(address => mapping(address => uint256)) public consolidatedRewardsPerStakedToken;\n    mapping(address => mapping(address => uint256)) public earnedRewards;\n    mapping(address => mapping(address => uint256)) public claimedReward;\n\n    event Initialized(\n        address[] rewardsTokenAddresses,\n        address[] stakableTokenAddresses,\n        uint256[] rewardsAmounts,\n        uint256 startingTimestamp,\n        uint256 endingTimestamp\n    );\n    event Canceled();\n    event Staked(address indexed staker, uint256[] amounts);\n    event Withdrawn(address indexed withdrawer, uint256[] amounts);\n    event Claimed(address indexed claimer, uint256[] amounts);\n    event Recovered(uint256[] amounts);\n\n    function getRewardTokens() external view returns (ERC20[] memory) {\n        return rewardTokens;\n    }\n\n    function getStakableTokens() external view returns (ERC20[] memory) {\n        return stakableTokens;\n    }\n\n    function initialize(\n        address[] calldata _rewardTokenAddresses,\n        address[] calldata _stakableTokenAddresses,\n        uint256[] calldata _rewardAmounts,\n        uint256 _startingTimestamp,\n        uint256 _endingTimestamp\n    ) external onlyOwner onlyUninitialized {\n        uint256 _currentTimestamp = block.timestamp;\n        require(\n            _startingTimestamp > _currentTimestamp,\n            \"ERC20Staker: starting timestamp lower or equal than current\"\n        );\n        require(\n            _endingTimestamp > _startingTimestamp,\n            \"ERC20Staker: invalid time duration\"\n        );\n        require(\n            _rewardTokenAddresses.length == _rewardAmounts.length,\n            \"ERC20Staker: inconsistent reward token/amount arrays length\"\n        );\n\n        uint256 _secondsDuration = _endingTimestamp - _startingTimestamp;\n        // Initializing reward tokens and amounts\n        for (uint32 _i = 0; _i < _rewardTokenAddresses.length; _i++) {\n            address _rewardTokenAddress = _rewardTokenAddresses[_i];\n            require(\n                _rewardTokenAddress != address(0),\n                \"ERC20Staker: 0 address as reward token\"\n            );\n            ERC20 _rewardToken = ERC20(_rewardTokenAddress);\n            uint256 _rewardAmount = _rewardAmounts[_i];\n            require(_rewardAmount > 0, \"ERC20Staker: no reward\");\n            require(\n                _rewardToken.balanceOf(address(this)) >= _rewardAmount,\n                \"ERC20Staker: funds required\"\n            );\n            // avoid overflow down the road by constraining the reward\n            // token decimals to a maximum of 18\n            uint256 _rewardTokenDecimals = _rewardToken.decimals();\n            require(\n                _rewardTokenDecimals <= 18,\n                \"ERC20Staker: more than 18 decimals for reward token\"\n            );\n            rewardTokens.push(_rewardToken);\n            rewardTokenMultiplier[_rewardTokenAddress] = uint256(1).mul(\n                uint256(10)**uint256(_rewardTokenDecimals)\n            );\n            rewardPerSecond[_rewardTokenAddress] = _rewardAmount.div(\n                _secondsDuration\n            );\n            rewardAmount[_rewardTokenAddress] = _rewardAmount;\n        }\n\n        // Initializing stakable tokens\n        for (uint32 _i = 0; _i < _stakableTokenAddresses.length; _i++) {\n            address _stakableTokenAddress = _stakableTokenAddresses[_i];\n            require(\n                _stakableTokenAddress != address(0),\n                \"ERC20Staker: 0 address as stakable token\"\n            );\n            stakableTokens.push(ERC20(_stakableTokenAddress));\n        }\n\n        startingTimestamp = _startingTimestamp;\n        endingTimestamp = _endingTimestamp;\n        lastConsolidationTimestamp = _startingTimestamp;\n\n        initialized = true;\n        emit Initialized(\n            _rewardTokenAddresses,\n            _stakableTokenAddresses,\n            _rewardAmounts,\n            _startingTimestamp,\n            _endingTimestamp\n        );\n    }\n\n    function cancel() external onlyInitialized onlyOwner {\n        require(\n            block.timestamp < startingTimestamp,\n            \"ERC20Staker: distribution already started\"\n        );\n        // resetting reward information (both tokens and amounts)\n        for (uint256 _i; _i < rewardTokens.length; _i++) {\n            ERC20 rewardToken = rewardTokens[_i];\n            address rewardTokenAddress = address(rewardToken);\n            uint256 _relatedRewardAmount = rewardAmount[rewardTokenAddress];\n            rewardToken.approve(owner(), _relatedRewardAmount);\n            rewardToken.safeTransfer(owner(), _relatedRewardAmount);\n            delete rewardTokenMultiplier[rewardTokenAddress];\n            delete rewardAmount[rewardTokenAddress];\n            delete rewardPerSecond[rewardTokenAddress];\n        }\n        delete rewardTokens;\n        delete stakableTokens;\n        startingTimestamp = 0;\n        endingTimestamp = 0;\n        lastConsolidationTimestamp = 0;\n        initialized = false;\n        emit Canceled();\n    }\n\n    function recoverUnassignedRewards() external onlyInitialized onlyStarted {\n        consolidateReward();\n        uint256 _rewardTokensAmount = rewardTokens.length;\n        uint256[] memory _recoveredUnassignedRewards = new uint256[](\n            _rewardTokensAmount\n        );\n        for (uint256 _i; _i < _rewardTokensAmount; _i++) {\n            ERC20 _relatedRewardToken = rewardTokens[_i];\n\n\n                uint256 _relatedUnassignedReward\n             = recoverableUnassignedReward[address(_relatedRewardToken)];\n            _relatedRewardToken.safeTransfer(owner(), _relatedUnassignedReward);\n            _recoveredUnassignedRewards[_i] = _relatedUnassignedReward;\n            delete recoverableUnassignedReward[address(_relatedRewardToken)];\n        }\n        emit Recovered(_recoveredUnassignedRewards);\n    }\n\n    function stake(uint256[] calldata _amounts)\n        external\n        onlyInitialized\n        onlyStarted\n        onlyRunning\n    {\n        require(\n            _amounts.length == stakableTokens.length,\n            \"ERC20Staker: inconsistent staked amounts length\"\n        );\n        consolidateReward();\n        for (uint256 _i; _i < _amounts.length; _i++) {\n            uint256 _amount = _amounts[_i];\n            if (_amount == 0) {\n                continue;\n            }\n            ERC20 _relatedStakableToken = stakableTokens[_i];\n            address _relatedStakableTokenAddress = address(\n                _relatedStakableToken\n            );\n            _relatedStakableToken.safeTransferFrom(\n                msg.sender,\n                address(this),\n                _amount\n            );\n            stakedTokensOf[msg\n                .sender][_relatedStakableTokenAddress] = stakedTokensOf[msg\n                .sender][_relatedStakableTokenAddress]\n                .add(_amount);\n            stakedTokenAmount[_relatedStakableTokenAddress] = stakedTokenAmount[_relatedStakableTokenAddress]\n                .add(_amount);\n            totalStakedTokensOf[msg.sender] = totalStakedTokensOf[msg.sender]\n                .add(_amount);\n            totalStakedTokensAmount = totalStakedTokensAmount.add(_amount);\n        }\n        emit Staked(msg.sender, _amounts);\n    }\n\n    function withdraw(uint256[] calldata _amounts)\n        external\n        onlyInitialized\n        onlyStarted\n    {\n        consolidateReward();\n        for (uint256 _i; _i < _amounts.length; _i++) {\n            uint256 _amount = _amounts[_i];\n            if (_amount == 0) {\n                continue;\n            }\n            ERC20 _relatedStakableToken = stakableTokens[_i];\n            address _relatedStakableTokenAddress = address(\n                _relatedStakableToken\n            );\n            require(\n                _amount <=\n                    stakedTokensOf[msg.sender][_relatedStakableTokenAddress],\n                \"ERC20Staker: withdrawn amount greater than current stake\"\n            );\n            _relatedStakableToken.safeTransfer(msg.sender, _amount);\n            stakedTokensOf[msg\n                .sender][_relatedStakableTokenAddress] = stakedTokensOf[msg\n                .sender][_relatedStakableTokenAddress]\n                .sub(_amount);\n            stakedTokenAmount[_relatedStakableTokenAddress] = stakedTokenAmount[_relatedStakableTokenAddress]\n                .sub(_amount);\n            totalStakedTokensOf[msg.sender] = totalStakedTokensOf[msg.sender]\n                .sub(_amount);\n            totalStakedTokensAmount = totalStakedTokensAmount.sub(_amount);\n        }\n        emit Withdrawn(msg.sender, _amounts);\n    }\n\n    function claim() external onlyInitialized onlyStarted {\n        consolidateReward();\n        uint256[] memory _pendingRewards = new uint256[](rewardTokens.length);\n        for (uint256 _i; _i < rewardTokens.length; _i++) {\n            ERC20 _relatedRewardToken = rewardTokens[_i];\n            address _relatedRewardTokenAddress = address(_relatedRewardToken);\n            uint256 _pendingReward = earnedRewards[msg\n                .sender][_relatedRewardTokenAddress]\n                .sub(claimedReward[msg.sender][_relatedRewardTokenAddress]);\n            _relatedRewardToken.safeTransfer(msg.sender, _pendingReward);\n            claimedReward[msg\n                .sender][_relatedRewardTokenAddress] = claimedReward[msg\n                .sender][_relatedRewardTokenAddress]\n                .add(_pendingReward);\n            _pendingRewards[_i] = _pendingReward;\n        }\n        emit Claimed(msg.sender, _pendingRewards);\n    }\n\n    function consolidateReward() public onlyInitialized onlyStarted {\n        uint256 _consolidationTimestamp = Math.min(\n            block.timestamp,\n            endingTimestamp\n        );\n        uint256 _lastPeriodDuration = _consolidationTimestamp.sub(\n            lastConsolidationTimestamp\n        );\n        for (uint256 _i; _i < rewardTokens.length; _i++) {\n            address _relatedRewardTokenAddress = address(rewardTokens[_i]);\n            if (totalStakedTokensAmount == 0) {\n                // If the current staked tokens amount is zero, there have been unassigned rewards in the last period.\n                // We add them to any previous one so that they can be claimed back by the contract's owner.\n                recoverableUnassignedReward[_relatedRewardTokenAddress] = recoverableUnassignedReward[_relatedRewardTokenAddress]\n                    .add(\n                    _lastPeriodDuration.mul(\n                        rewardPerSecond[_relatedRewardTokenAddress]\n                    )\n                );\n                rewardPerStakedToken[_relatedRewardTokenAddress] = 0;\n            } else {\n                rewardPerStakedToken[_relatedRewardTokenAddress] = rewardPerStakedToken[_relatedRewardTokenAddress]\n                    .add(\n                    _lastPeriodDuration\n                        .mul(rewardPerSecond[_relatedRewardTokenAddress])\n                        .mul(rewardTokenMultiplier[_relatedRewardTokenAddress])\n                        .div(totalStakedTokensAmount)\n                );\n            }\n            // avoids subtraction overflow. If the rewards per staked tokens are 0,\n            // the rewards in current period must be 0 by definition, no need to\n            // perform subtraction risking overflow.\n\n\n                uint256 _rewardInCurrentPeriod\n             = rewardPerStakedToken[_relatedRewardTokenAddress] > 0\n                ? totalStakedTokensOf[msg.sender]\n                    .mul(\n                    rewardPerStakedToken[_relatedRewardTokenAddress].sub(\n                        consolidatedRewardsPerStakedToken[msg\n                            .sender][_relatedRewardTokenAddress]\n                    )\n                )\n                    .div(rewardTokenMultiplier[_relatedRewardTokenAddress])\n                : 0;\n            earnedRewards[msg\n                .sender][_relatedRewardTokenAddress] = earnedRewards[msg\n                .sender][_relatedRewardTokenAddress]\n                .add(_rewardInCurrentPeriod);\n            consolidatedRewardsPerStakedToken[msg\n                .sender][_relatedRewardTokenAddress] = rewardPerStakedToken[_relatedRewardTokenAddress];\n        }\n        lastConsolidationTimestamp = _consolidationTimestamp;\n    }\n\n    modifier onlyUninitialized() {\n        require(!initialized, \"ERC20Staker: already initialized\");\n        _;\n    }\n\n    modifier onlyInitialized() {\n        require(initialized, \"ERC20Staker: not initialized\");\n        _;\n    }\n\n    modifier onlyStarted() {\n        require(\n            initialized && block.timestamp >= startingTimestamp,\n            \"ERC20Staker: not started\"\n        );\n        _;\n    }\n\n    modifier onlyRunning() {\n        require(\n            initialized && block.timestamp <= endingTimestamp,\n            \"ERC20Staker: already ended\"\n        );\n        _;\n    }\n}\n",
  "sourcePath": "/home/luzzif/Projects/swapr-lp-staker/contracts/ERC20Staker.sol",
  "compiler": {
    "name": "solc",
    "version": "0.6.12+commit.27d51765.Emscripten.clang"
  },
  "schemaVersion": "3.3.3",
  "updatedAt": "2020-12-18T20:56:18.208Z",
  "devdoc": {
    "kind": "dev",
    "methods": {
      "owner()": {
        "details": "Returns the address of the current owner."
      },
      "renounceOwnership()": {
        "details": "Leaves the contract without owner. It will not be possible to call `onlyOwner` functions anymore. Can only be called by the current owner. NOTE: Renouncing ownership will leave the contract without an owner, thereby removing any functionality that is only available to the owner."
      },
      "transferOwnership(address)": {
        "details": "Transfers ownership of the contract to a new account (`newOwner`). Can only be called by the current owner."
      }
    },
    "version": 1
  },
  "userdoc": {
    "kind": "user",
    "methods": {},
    "version": 1
  }
}