{
  "contractName": "ERC20DistributionFactory",
  "abi": [
    {
      "anonymous": false,
      "inputs": [
        {
          "indexed": true,
          "internalType": "address",
          "name": "creator",
          "type": "address"
        },
        {
          "indexed": true,
          "internalType": "address[]",
          "name": "rewardsTokenAddresses",
          "type": "address[]"
        },
        {
          "indexed": true,
          "internalType": "address[]",
          "name": "stakableTokenAddresses",
          "type": "address[]"
        },
        {
          "indexed": false,
          "internalType": "uint256[]",
          "name": "rewardsAmounts",
          "type": "uint256[]"
        },
        {
          "indexed": false,
          "internalType": "uint256",
          "name": "startingTimestamp",
          "type": "uint256"
        },
        {
          "indexed": false,
          "internalType": "uint256",
          "name": "endingTimestamp",
          "type": "uint256"
        },
        {
          "indexed": false,
          "internalType": "bool",
          "name": "locked",
          "type": "bool"
        }
      ],
      "name": "Created",
      "type": "event"
    },
    {
      "anonymous": false,
      "inputs": [
        {
          "indexed": true,
          "internalType": "address",
          "name": "previousOwner",
          "type": "address"
        },
        {
          "indexed": true,
          "internalType": "address",
          "name": "newOwner",
          "type": "address"
        }
      ],
      "name": "OwnershipTransferred",
      "type": "event"
    },
    {
      "inputs": [
        {
          "internalType": "uint256",
          "name": "",
          "type": "uint256"
        }
      ],
      "name": "distributions",
      "outputs": [
        {
          "internalType": "contract ERC20Distribution",
          "name": "",
          "type": "address"
        }
      ],
      "stateMutability": "view",
      "type": "function"
    },
    {
      "inputs": [],
      "name": "owner",
      "outputs": [
        {
          "internalType": "address",
          "name": "",
          "type": "address"
        }
      ],
      "stateMutability": "view",
      "type": "function"
    },
    {
      "inputs": [],
      "name": "renounceOwnership",
      "outputs": [],
      "stateMutability": "nonpayable",
      "type": "function"
    },
    {
      "inputs": [
        {
          "internalType": "address",
          "name": "newOwner",
          "type": "address"
        }
      ],
      "name": "transferOwnership",
      "outputs": [],
      "stateMutability": "nonpayable",
      "type": "function"
    },
    {
      "inputs": [
        {
          "internalType": "address[]",
          "name": "_rewardsTokenAddresses",
          "type": "address[]"
        },
        {
          "internalType": "address[]",
          "name": "_stakableTokenAddresses",
          "type": "address[]"
        },
        {
          "internalType": "uint256[]",
          "name": "_rewardAmounts",
          "type": "uint256[]"
        },
        {
          "internalType": "uint256",
          "name": "_startingTimestamp",
          "type": "uint256"
        },
        {
          "internalType": "uint256",
          "name": "_endingTimestmp",
          "type": "uint256"
        },
        {
          "internalType": "bool",
          "name": "_locked",
          "type": "bool"
        }
      ],
      "name": "createDistribution",
      "outputs": [],
      "stateMutability": "nonpayable",
      "type": "function"
    }
  ],
  "bytecode": "0x608060405234801561001057600080fd5b50600061001b61006a565b600080546001600160a01b0319166001600160a01b0383169081178255604051929350917f8be0079c531659141344cd1fd0a4f28419497f9722a3daafe3b4186f6b6457e0908290a35061006e565b3390565b6134e58061007d6000396000f3fe608060405234801561001057600080fd5b50600436106100575760003560e01c8063212893091461005c5780634487d3df14610180578063715018a6146101b95780638da5cb5b146101c1578063f2fde38b146101c9575b600080fd5b61017e600480360360c081101561007257600080fd5b81019060208101813564010000000081111561008d57600080fd5b82018360208201111561009f57600080fd5b803590602001918460208302840111640100000000831117156100c157600080fd5b9193909290916020810190356401000000008111156100df57600080fd5b8201836020820111156100f157600080fd5b8035906020019184602083028401116401000000008311171561011357600080fd5b91939092909160208101903564010000000081111561013157600080fd5b82018360208201111561014357600080fd5b8035906020019184602083028401116401000000008311171561016557600080fd5b91935091508035906020810135906040013515156101ef565b005b61019d6004803603602081101561019657600080fd5b50356104a7565b604080516001600160a01b039092168252519081900360200190f35b61017e6104ce565b61019d610582565b61017e600480360360208110156101df57600080fd5b50356001600160a01b0316610591565b60005b888110156102535760008a8a8381811061020857fe5b905060200201356001600160a01b03169050600087878481811061022857fe5b6020029190910135915061024990506001600160a01b03831633308461069b565b50506001016101f2565b506000604051610262906109d4565b604051809103906000f08015801561027e573d6000803e3d6000fd5b509050806001600160a01b0316639b3787148b8b8b8b8b8b8b8b8b6040518a63ffffffff1660e01b815260040180806020018060200180602001878152602001868152602001851515815260200184810384528d8d82818152602001925060200280828437600083820152601f01601f191690910185810384528b8152602090810191508c908c0280828437600083820152601f01601f19169091018581038352898152602090810191508a908a0280828437600081840152601f19601f8201169050808301925050509c50505050505050505050505050600060405180830381600087803b15801561037057600080fd5b505af1158015610384573d6000803e3d6000fd5b50506001805480820182556000919091527fb10e2d527612073b26eecdfd717e6a320cf44b4afac2b0732d9fcbe2b7fa0cf60180546001600160a01b0319166001600160a01b038516179055505060405188908890808360208402808284376040519201829003822094508e93508d925081905083602084028082843780830192505050925050506040518091039020336001600160a01b03167f9e995a9ca96aaab96877e39e6011cc5c0a50d52af0ad58edeb3bacc6c6c910578989898989604051808060200185815260200184815260200183151581526020018281038252878782818152602001925060200280828437600083820152604051601f909101601f19169092018290039850909650505050505050a450505050505050505050565b600181815481106104b457fe5b6000918252602090912001546001600160a01b0316905081565b6104d66106fb565b6000546001600160a01b03908116911614610538576040805162461bcd60e51b815260206004820181905260248201527f4f776e61626c653a2063616c6c6572206973206e6f7420746865206f776e6572604482015290519081900360640190fd5b600080546040516001600160a01b03909116907f8be0079c531659141344cd1fd0a4f28419497f9722a3daafe3b4186f6b6457e0908390a3600080546001600160a01b0319169055565b6000546001600160a01b031690565b6105996106fb565b6000546001600160a01b039081169116146105fb576040805162461bcd60e51b815260206004820181905260248201527f4f776e61626c653a2063616c6c6572206973206e6f7420746865206f776e6572604482015290519081900360640190fd5b6001600160a01b0381166106405760405162461bcd60e51b815260040180806020018281038252602681526020018061343a6026913960400191505060405180910390fd5b600080546040516001600160a01b03808516939216917f8be0079c531659141344cd1fd0a4f28419497f9722a3daafe3b4186f6b6457e091a3600080546001600160a01b0319166001600160a01b0392909216919091179055565b604080516001600160a01b0380861660248301528416604482015260648082018490528251808303909101815260849091019091526020810180516001600160e01b03166323b872dd60e01b1790526106f59085906106ff565b50505050565b3390565b6060610754826040518060400160405280602081526020017f5361666545524332303a206c6f772d6c6576656c2063616c6c206661696c6564815250856001600160a01b03166107b59092919063ffffffff16565b8051909150156107b05780806020019051602081101561077357600080fd5b50516107b05760405162461bcd60e51b815260040180806020018281038252602a815260200180613486602a913960400191505060405180910390fd5b505050565b60606107c484846000856107ce565b90505b9392505050565b60608247101561080f5760405162461bcd60e51b81526004018080602001828103825260268152602001806134606026913960400191505060405180910390fd5b6108188561092a565b610869576040805162461bcd60e51b815260206004820152601d60248201527f416464726573733a2063616c6c20746f206e6f6e2d636f6e7472616374000000604482015290519081900360640190fd5b60006060866001600160a01b031685876040518082805190602001908083835b602083106108a85780518252601f199092019160209182019101610889565b6001836020036101000a03801982511681845116808217855250505050505090500191505060006040518083038185875af1925050503d806000811461090a576040519150601f19603f3d011682016040523d82523d6000602084013e61090f565b606091505b509150915061091f828286610930565b979650505050505050565b3b151590565b6060831561093f5750816107c7565b82511561094f5782518084602001fd5b8160405162461bcd60e51b81526004018080602001828103825283818151815260200191508051906020019080838360005b83811015610999578181015183820152602001610981565b50505050905090810190601f1680156109c65780820380516001836020036101000a031916815260200191505b509250505060405180910390fd5b612a58806109e28339019056fe608060405234801561001057600080fd5b50600061001b61006a565b600080546001600160a01b0319166001600160a01b0383169081178255604051929350917f8be0079c531659141344cd1fd0a4f28419497f9722a3daafe3b4186f6b6457e0908290a35061006e565b3390565b6129db8061007d6000396000f3fe608060405234801561001057600080fd5b50600436106101e55760003560e01c8063867b2f271161010f578063c4f59f9b116100a2578063e66d85be11610071578063e66d85be146106ac578063ea8a1af0146106d2578063ebbf95e1146106da578063f2fde38b146106e2576101e5565b8063c4f59f9b1461061e578063cf30901214610676578063e31a384f1461067e578063e644067d146106a4576101e5565b806398f81230116100de57806398f81230146104cc5780639b378714146104f2578063b41fa9791461060e578063c10de30014610616576101e5565b8063867b2f2714610428578063887862721461044e5780638da5cb5b14610456578063983d95ce1461045e576101e5565b80635541559211610187578063715018a611610156578063715018a6146103a7578063728e4a67146103af57806375b8dbf8146103dd5780637bb7bed11461040b576101e5565b806355415592146103435780635e5294b714610371578063645a8a56146103795780636715dcb81461039f576101e5565b80633b34ee50116101c35780633b34ee50146102b6578063407f2932146102dc57806348895a9c146103155780634e71d92d1461033b576101e5565b80630fbf0a93146101ea578063158ef93e1461025a57806334380a6114610276575b600080fd5b6102586004803603602081101561020057600080fd5b810190602081018135600160201b81111561021a57600080fd5b82018360208201111561022c57600080fd5b803590602001918460208302840111600160201b8311171561024d57600080fd5b509092509050610708565b005b6102626109f1565b604080519115158252519081900360200190f35b6102a46004803603604081101561028c57600080fd5b506001600160a01b03813581169160200135166109ff565b60408051918252519081900360200190f35b6102a4600480360360208110156102cc57600080fd5b50356001600160a01b0316610a1c565b6102f9600480360360208110156102f257600080fd5b5035610a2e565b604080516001600160a01b039092168252519081900360200190f35b6102a46004803603602081101561032b57600080fd5b50356001600160a01b0316610a55565b610258610a67565b6102a46004803603604081101561035957600080fd5b506001600160a01b0381358116916020013516610ccc565b6102a4610ce9565b6102a46004803603602081101561038f57600080fd5b50356001600160a01b0316610cef565b610258610d01565b61025861100e565b6102a4600480360360408110156103c557600080fd5b506001600160a01b03813581169160200135166110b0565b6102a4600480360360408110156103f357600080fd5b506001600160a01b03813581169160200135166110cd565b6102f96004803603602081101561042157600080fd5b50356110ea565b6102a46004803603602081101561043e57600080fd5b50356001600160a01b03166110f7565b6102a4611109565b6102f961110f565b6102586004803603602081101561047457600080fd5b810190602081018135600160201b81111561048e57600080fd5b8201836020820111156104a057600080fd5b803590602001918460208302840111600160201b831117156104c157600080fd5b50909250905061111e565b6102a4600480360360208110156104e257600080fd5b50356001600160a01b031661144a565b610258600480360360c081101561050857600080fd5b810190602081018135600160201b81111561052257600080fd5b82018360208201111561053457600080fd5b803590602001918460208302840111600160201b8311171561055557600080fd5b919390929091602081019035600160201b81111561057257600080fd5b82018360208201111561058457600080fd5b803590602001918460208302840111600160201b831117156105a557600080fd5b919390929091602081019035600160201b8111156105c257600080fd5b8201836020820111156105d457600080fd5b803590602001918460208302840111600160201b831117156105f557600080fd5b919350915080359060208101359060400135151561145c565b6102a4611a56565b6102a4611a5c565b610626611a62565b60408051602080825283518183015283519192839290830191858101910280838360005b8381101561066257818101518382015260200161064a565b505050509050019250505060405180910390f35b610262611ac4565b6102a46004803603602081101561069457600080fd5b50356001600160a01b0316611acd565b610258611adf565b6102a4600480360360208110156106c257600080fd5b50356001600160a01b0316611ce5565b610258611cf7565b610626611ece565b610258600480360360208110156106f857600080fd5b50356001600160a01b0316611f2e565b600b54610100900460ff1661074e5760405162461bcd60e51b81526004018080602001828103825260228152602001806128ea6022913960400191505060405180910390fd5b600b54610100900460ff16801561076757506009544210155b6107a6576040805162461bcd60e51b815260206004820152601e6024820152600080516020612690833981519152604482015290519081900360640190fd5b600b54610100900460ff1680156107bf5750600a544211155b610810576040805162461bcd60e51b815260206004820181905260248201527f4552433230446973747269627574696f6e3a20616c726561647920656e646564604482015290519081900360640190fd5b60025481146108505760405162461bcd60e51b81526004018080602001828103825260358152602001806128b56035913960400191505060405180910390fd5b610858610d01565b60005b8181101561097f57600083838381811061087157fe5b90506020020135905080600014156108895750610977565b60006002838154811061089857fe5b6000918252602090912001546001600160a01b03169050806108bc81333086612026565b336000908152600e602090815260408083206001600160a01b03851684529091529020546108ea9084612086565b336000908152600e602090815260408083206001600160a01b03861684528252808320939093556006905220546109219084612086565b6001600160a01b038216600090815260066020908152604080832093909355338252600f905220546109539084612086565b336000908152600f60205260409020556007546109709084612086565b6007555050505b60010161085b565b50336001600160a01b03167f134b166c6094cc1ccbf1e3353ce5c3cd9fd29869051bdb999895854d77cc5ef6838360405180806020018281038252848482818152602001925060200280828437600083820152604051601f909101601f19169092018290039550909350505050a25050565b600b54610100900460ff1681565b601260209081526000928352604080842090915290825290205481565b600d6020526000908152604090205481565b60028181548110610a3b57fe5b6000918252602090912001546001600160a01b0316905081565b60036020526000908152604090205481565b600b54610100900460ff16610aad5760405162461bcd60e51b81526004018080602001828103825260228152602001806128ea6022913960400191505060405180910390fd5b600b54610100900460ff168015610ac657506009544210155b610b05576040805162461bcd60e51b815260206004820152601e6024820152600080516020612690833981519152604482015290519081900360640190fd5b610b0d610d01565b60015460609067ffffffffffffffff81118015610b2957600080fd5b50604051908082528060200260200182016040528015610b53578160200160208202803683370190505b50905060005b600154811015610c5457600060018281548110610b7257fe5b6000918252602080832090910154338084526012835260408085206001600160a01b03909316808652928452808520549185526011845280852083865290935291832054909350839291610bc691906120e9565b9050610bdc6001600160a01b038416338361212b565b3360009081526012602090815260408083206001600160a01b0386168452909152902054610c0a9082612086565b3360009081526012602090815260408083206001600160a01b038716845290915290205584518190869086908110610c3e57fe5b6020908102919091010152505050600101610b59565b50604080516020808252835181830152835133937f28ee566bdecaf975c0979f4d09fecf91a9009ffe78523aef053a678134137b8b93869390928392830191808601910280838360005b83811015610cb6578181015183820152602001610c9e565b505050509050019250505060405180910390a250565b600e60209081526000928352604080842090915290825290205481565b600a5481565b60046020526000908152604090205481565b600b54610100900460ff16610d475760405162461bcd60e51b81526004018080602001828103825260228152602001806128ea6022913960400191505060405180910390fd5b600b54610100900460ff168015610d6057506009544210155b610d9f576040805162461bcd60e51b815260206004820152601e6024820152600080516020612690833981519152604482015290519081900360640190fd5b6000610dad42600a54612182565b90506000610dc6600c54836120e990919063ffffffff16565b905060005b60015481101561100757600060018281548110610de457fe5b6000918252602090912001546007546001600160a01b039091169150610e77576001600160a01b038116600090815260056020526040902054610e4b90610e2c908590612198565b6001600160a01b0383166000908152600d602052604090205490612086565b6001600160a01b0382166000908152600d60209081526040808320939093556008905290812055610efe565b6007546001600160a01b038216600090815260036020908152604080832054600590925290912054610ee492610ec5929091610ebf9190610eb9908990612198565b90612198565b906121f1565b6001600160a01b03831660009081526008602052604090205490612086565b6001600160a01b0382166000908152600860205260409020555b6001600160a01b038116600090815260086020526040812054610f22576000610f83565b6001600160a01b0382166000818152600360209081526040808320543384526010835281842094845293825280832054600890925290912054610f839291610ebf91610f6d916120e9565b336000908152600f602052604090205490612198565b3360009081526011602090815260408083206001600160a01b0387168452909152902054909150610fb49082612086565b3360008181526011602090815260408083206001600160a01b0397909716808452968252808320949094556008815283822054928252601081528382209582529490945292209190915550600101610dcb565b5050600c55565b611016612233565b6000546001600160a01b03908116911614611066576040805162461bcd60e51b815260206004820181905260248201526000805160206127cd833981519152604482015290519081900360640190fd5b600080546040516001600160a01b03909116907f8be0079c531659141344cd1fd0a4f28419497f9722a3daafe3b4186f6b6457e0908390a3600080546001600160a01b0319169055565b601160209081526000928352604080842090915290825290205481565b601060209081526000928352604080842090915290825290205481565b60018181548110610a3b57fe5b60056020526000908152604090205481565b60095481565b6000546001600160a01b031690565b600b54610100900460ff166111645760405162461bcd60e51b81526004018080602001828103825260228152602001806128ea6022913960400191505060405180910390fd5b600b54610100900460ff16801561117d57506009544210155b6111bc576040805162461bcd60e51b815260206004820152601e6024820152600080516020612690833981519152604482015290519081900360640190fd5b60025481146111fc5760405162461bcd60e51b81526004018080602001828103825260388152602001806126036038913960400191505060405180910390fd5b600b5460ff161561124757600a5442116112475760405162461bcd60e51b815260040180806020018281038252603681526020018061290c6036913960400191505060405180910390fd5b61124f610d01565b60005b818110156113d857600083838381811061126857fe5b905060200201359050806000141561128057506113d0565b60006002838154811061128f57fe5b6000918252602080832090910154338352600e825260408084206001600160a01b039092168085529190925291205490915081908311156113015760405162461bcd60e51b815260040180806020018281038252603e815260200180612968603e913960400191505060405180910390fd5b6113156001600160a01b038316338561212b565b336000908152600e602090815260408083206001600160a01b038516845290915290205461134390846120e9565b336000908152600e602090815260408083206001600160a01b038616845282528083209390935560069052205461137a90846120e9565b6001600160a01b038216600090815260066020908152604080832093909355338252600f905220546113ac90846120e9565b336000908152600f60205260409020556007546113c990846120e9565b6007555050505b600101611252565b50336001600160a01b03167ff35c46796392b0deae18b1c5ac3cc50df76b67ef9bcf256df595a3607aab6258838360405180806020018281038252848482818152602001925060200280828437600083820152604051601f909101601f19169092018290039550909350505050a25050565b60086020526000908152604090205481565b611464612233565b6000546001600160a01b039081169116146114b4576040805162461bcd60e51b815260206004820181905260248201526000805160206127cd833981519152604482015290519081900360640190fd5b600b54610100900460ff16156114fb5760405162461bcd60e51b81526004018080602001828103825260268152602001806129426026913960400191505060405180910390fd5b4283116115395760405162461bcd60e51b81526004018080602001828103825260418152602001806126d66041913960600191505060405180910390fd5b8282116115775760405162461bcd60e51b81526004018080602001828103825260288152602001806127846028913960400191505060405180910390fd5b8784146115b55760405162461bcd60e51b81526004018080602001828103825260418152602001806127176041913960600191505060405180910390fd5b82820360005b63ffffffff81168a11156118555760008b8b8363ffffffff168181106115dd57fe5b905060200201356001600160a01b03169050600088888463ffffffff1681811061160357fe5b60200291909101359150506001600160a01b0382166116535760405162461bcd60e51b815260040180806020018281038252602c815260200180612758602c913960400191505060405180910390fd5b600081116116a8576040805162461bcd60e51b815260206004820152601c60248201527f4552433230446973747269627574696f6e3a206e6f2072657761726400000000604482015290519081900360640190fd5b838110156116e75760405162461bcd60e51b815260040180806020018281038252603c81526020018061281b603c913960400191505060405180910390fd5b816116fd6001600160a01b038216333085612026565b6000816001600160a01b031663313ce5676040518163ffffffff1660e01b815260040160206040518083038186803b15801561173857600080fd5b505afa15801561174c573d6000803e3d6000fd5b505050506040513d602081101561176257600080fd5b505160ff1690508015801590611779575060128111155b6117b45760405162461bcd60e51b81526004018080602001828103825260348152602001806128576034913960400191505060405180910390fd5b600180548082019091557fb10e2d527612073b26eecdfd717e6a320cf44b4afac2b0732d9fcbe2b7fa0cf60180546001600160a01b0319166001600160a01b038481169190911790915584166000908152600360205260409020600a82900a905561181f83876121f1565b6001600160a01b0390941660009081526005602090815260408083209690965560049052939093209190915550506001016115bb565b5060005b63ffffffff811688111561193757600089898363ffffffff1681811061187b57fe5b905060200201356001600160a01b0316905060006001600160a01b0316816001600160a01b031614156118df5760405162461bcd60e51b815260040180806020018281038252602e8152602001806127ed602e913960400191505060405180910390fd5b60028054600180820183556000929092527f405787fa12a823e0f2b7631cc41b3ba8828b3321ca811111fa75cd3aa3bb5ace0180546001600160a01b0319166001600160a01b03939093169290921790915501611859565b506009849055600a839055600c849055600b805461ff001984151560ff199092168217166101001790915560408051606081018790526080810186905260a081019290925260c080835282018b90527fef15e7512073ff638a9e40adb0ee156e0662e18d3f642712ae4b4c04094db43a918c918c918c918c918c918c918c918c918c91819060208083019183019060e08401908e908e0280828437600083820152601f01601f191690910185810384528b8152602090810191508c908c0280828437600083820152601f01601f19169091018581038352898152602090810191508a908a0280828437600083820152604051601f909101601f19169092018290039e50909c50505050505050505050505050a150505050505050505050565b60075481565b600c5481565b60606001805480602002602001604051908101604052809291908181526020018280548015611aba57602002820191906000526020600020905b81546001600160a01b03168152600190910190602001808311611a9c575b5050505050905090565b600b5460ff1681565b600f6020526000908152604090205481565b600b54610100900460ff16611b255760405162461bcd60e51b81526004018080602001828103825260228152602001806128ea6022913960400191505060405180910390fd5b600b54610100900460ff168015611b3e57506009544210155b611b7d576040805162461bcd60e51b815260206004820152601e6024820152600080516020612690833981519152604482015290519081900360640190fd5b611b85610d01565b60015460608167ffffffffffffffff81118015611ba157600080fd5b50604051908082528060200260200182016040528015611bcb578160200160208202803683370190505b50905060005b82811015611c6b57600060018281548110611be857fe5b60009182526020808320909101546001600160a01b0316808352600d909152604090912054909150611c2c611c1b61110f565b6001600160a01b038416908361212b565b80848481518110611c3957fe5b6020908102919091018101919091526001600160a01b039092166000908152600d909252506040812055600101611bd1565b507ff904fafa600a7e4e8039f3a5497d1b6016772e3060f87d3e40f911b315f00bd1816040518080602001828103825283818151815260200191508051906020019060200280838360005b83811015611cce578181015183820152602001611cb6565b505050509050019250505060405180910390a15050565b60066020526000908152604090205481565b600b54610100900460ff16611d3d5760405162461bcd60e51b81526004018080602001828103825260228152602001806128ea6022913960400191505060405180910390fd5b611d45612233565b6000546001600160a01b03908116911614611d95576040805162461bcd60e51b815260206004820181905260248201526000805160206127cd833981519152604482015290519081900360640190fd5b6009544210611dd55760405162461bcd60e51b815260040180806020018281038252602f81526020018061263b602f913960400191505060405180910390fd5b60005b600154811015611e7057600060018281548110611df157fe5b60009182526020808320909101546001600160a01b031680835260049091526040909120549091508190611e37611e2661110f565b6001600160a01b038516908361212b565b506001600160a01b0316600090815260036020908152604080832083905560048252808320839055600590915281205550600101611dd8565b50611e7d600160006125c8565b611e89600260006125c8565b60006009819055600a819055600c819055600b805461ffff191690556040517f1afb0ae590df277bcb3a37f88612725bf1f7df4755792b1548a7efe77985ff779190a1565b60606002805480602002602001604051908101604052809291908181526020018280548015611aba576020028201919060005260206000209081546001600160a01b03168152600190910190602001808311611a9c575050505050905090565b611f36612233565b6000546001600160a01b03908116911614611f86576040805162461bcd60e51b815260206004820181905260248201526000805160206127cd833981519152604482015290519081900360640190fd5b6001600160a01b038116611fcb5760405162461bcd60e51b815260040180806020018281038252602681526020018061266a6026913960400191505060405180910390fd5b600080546040516001600160a01b03808516939216917f8be0079c531659141344cd1fd0a4f28419497f9722a3daafe3b4186f6b6457e091a3600080546001600160a01b0319166001600160a01b0392909216919091179055565b604080516001600160a01b0380861660248301528416604482015260648082018490528251808303909101815260849091019091526020810180516001600160e01b03166323b872dd60e01b179052612080908590612237565b50505050565b6000828201838110156120e0576040805162461bcd60e51b815260206004820152601b60248201527f536166654d6174683a206164646974696f6e206f766572666c6f770000000000604482015290519081900360640190fd5b90505b92915050565b60006120e083836040518060400160405280601e81526020017f536166654d6174683a207375627472616374696f6e206f766572666c6f7700008152506122e8565b604080516001600160a01b038416602482015260448082018490528251808303909101815260649091019091526020810180516001600160e01b031663a9059cbb60e01b17905261217d908490612237565b505050565b600081831061219157816120e0565b5090919050565b6000826121a7575060006120e3565b828202828482816121b457fe5b04146120e05760405162461bcd60e51b81526004018080602001828103825260218152602001806127ac6021913960400191505060405180910390fd5b60006120e083836040518060400160405280601a81526020017f536166654d6174683a206469766973696f6e206279207a65726f000000000000815250612384565b3390565b606061228c826040518060400160405280602081526020017f5361666545524332303a206c6f772d6c6576656c2063616c6c206661696c6564815250856001600160a01b03166123e99092919063ffffffff16565b80519091501561217d578080602001905160208110156122ab57600080fd5b505161217d5760405162461bcd60e51b815260040180806020018281038252602a81526020018061288b602a913960400191505060405180910390fd5b600081848411156123775760405162461bcd60e51b81526004018080602001828103825283818151815260200191508051906020019080838360005b8381101561233c578181015183820152602001612324565b50505050905090810190601f1680156123695780820380516001836020036101000a031916815260200191505b509250505060405180910390fd5b50508183035b9392505050565b600081836123d35760405162461bcd60e51b815260206004820181815283516024840152835190928392604490910191908501908083836000831561233c578181015183820152602001612324565b5060008385816123df57fe5b0495945050505050565b60606123f88484600085612400565b949350505050565b6060824710156124415760405162461bcd60e51b81526004018080602001828103825260268152602001806126b06026913960400191505060405180910390fd5b61244a8561255c565b61249b576040805162461bcd60e51b815260206004820152601d60248201527f416464726573733a2063616c6c20746f206e6f6e2d636f6e7472616374000000604482015290519081900360640190fd5b60006060866001600160a01b031685876040518082805190602001908083835b602083106124da5780518252601f1990920191602091820191016124bb565b6001836020036101000a03801982511681845116808217855250505050505090500191505060006040518083038185875af1925050503d806000811461253c576040519150601f19603f3d011682016040523d82523d6000602084013e612541565b606091505b5091509150612551828286612562565b979650505050505050565b3b151590565b6060831561257157508161237d565b8251156125815782518084602001fd5b60405162461bcd60e51b815260206004820181815284516024840152845185939192839260440191908501908083836000831561233c578181015183820152602001612324565b50805460008255906000526020600020908101906125e691906125e9565b50565b5b808211156125fe57600081556001016125ea565b509056fe4552433230446973747269627574696f6e3a20696e636f6e73697374656e742077697468647261776e20616d6f756e7473206c656e6774684552433230446973747269627574696f6e3a20646973747269627574696f6e20616c726561647920737461727465644f776e61626c653a206e6577206f776e657220697320746865207a65726f20616464726573734552433230446973747269627574696f6e3a206e6f7420737461727465640000416464726573733a20696e73756666696369656e742062616c616e636520666f722063616c6c4552433230446973747269627574696f6e3a207374617274696e672074696d657374616d70206c6f776572206f7220657175616c207468616e2063757272656e744552433230446973747269627574696f6e3a20696e636f6e73697374656e742072657761726420746f6b656e2f616d6f756e7420617272617973206c656e6774684552433230446973747269627574696f6e3a203020616464726573732061732072657761726420746f6b656e4552433230446973747269627574696f6e3a20696e76616c69642074696d65206475726174696f6e536166654d6174683a206d756c7469706c69636174696f6e206f766572666c6f774f776e61626c653a2063616c6c6572206973206e6f7420746865206f776e65724552433230446973747269627574696f6e3a20302061646472657373206173207374616b61626c6520746f6b656e4552433230446973747269627574696f6e3a207365636f6e6473206475726174696f6e206c657373207468616e207265776172647320616d6f756e744552433230446973747269627574696f6e3a20696e76616c696420646563696d616c7320666f722072657761726420746f6b656e5361666545524332303a204552433230206f7065726174696f6e20646964206e6f7420737563636565644552433230446973747269627574696f6e3a20696e636f6e73697374656e74207374616b656420616d6f756e7473206c656e6774684552433230446973747269627574696f6e3a206e6f7420696e697469616c697a65644552433230446973747269627574696f6e3a2066756e6473206c6f636b656420756e74696c20656e64696e672074696d657374616d704552433230446973747269627574696f6e3a20616c726561647920696e697469616c697a65644552433230446973747269627574696f6e3a2077697468647261776e20616d6f756e742067726561746572207468616e2063757272656e74207374616b65a26469706673582212201103a3de1dc698673f3b14438706a1910482d11b858408c0ec3d16be8b6a944864736f6c634300060c00334f776e61626c653a206e6577206f776e657220697320746865207a65726f2061646472657373416464726573733a20696e73756666696369656e742062616c616e636520666f722063616c6c5361666545524332303a204552433230206f7065726174696f6e20646964206e6f742073756363656564a2646970667358221220b26fdcf420fd6fa6cd1da86537a121e21ba696ad0d68eeb5d219b082a0fbf91964736f6c634300060c0033",
  "immutableReferences": {},
  "source": "// SPDX-License-Identifier: GPL-3.0\n\npragma solidity ^0.6.12;\n\nimport \"@openzeppelin/contracts/math/SafeMath.sol\";\nimport \"@openzeppelin/contracts/token/ERC20/ERC20.sol\";\nimport \"@openzeppelin/contracts/token/ERC20/SafeERC20.sol\";\nimport \"@openzeppelin/contracts/access/Ownable.sol\";\nimport \"../distributions/ERC20Distribution.sol\";\n\ncontract ERC20DistributionFactory is Ownable {\n    using SafeMath for uint256;\n    using SafeERC20 for ERC20;\n\n    ERC20Distribution[] public distributions;\n\n    event Created(\n        address indexed creator,\n        address[] indexed rewardsTokenAddresses,\n        address[] indexed stakableTokenAddresses,\n        uint256[] rewardsAmounts,\n        uint256 startingTimestamp,\n        uint256 endingTimestamp,\n        bool locked\n    );\n\n    function createDistribution(\n        address[] calldata _rewardsTokenAddresses,\n        address[] calldata _stakableTokenAddresses,\n        uint256[] calldata _rewardAmounts,\n        uint256 _startingTimestamp,\n        uint256 _endingTimestmp,\n        bool _locked\n    ) public virtual {\n        for (uint256 _i; _i < _rewardsTokenAddresses.length; _i++) {\n            ERC20 _rewardToken = ERC20(_rewardsTokenAddresses[_i]);\n            uint256 _relatedAmount = _rewardAmounts[_i];\n            _rewardToken.safeTransferFrom(\n                msg.sender,\n                address(this),\n                _relatedAmount\n            );\n        }\n        ERC20Distribution _distribution = new ERC20Distribution();\n        _distribution.initialize(\n            _rewardsTokenAddresses,\n            _stakableTokenAddresses,\n            _rewardAmounts,\n            _startingTimestamp,\n            _endingTimestmp,\n            _locked\n        );\n        distributions.push(_distribution);\n        emit Created(\n            msg.sender,\n            _rewardsTokenAddresses,\n            _stakableTokenAddresses,\n            _rewardAmounts,\n            _startingTimestamp,\n            _endingTimestmp,\n            _locked\n        );\n    }\n}\n",
  "sourcePath": "/home/luzzif/Projects/swapr-lp-staker/contracts/factories/ERC20DistributionFactory.sol",
  "compiler": {
    "name": "solc",
    "version": "0.6.12+commit.27d51765.Emscripten.clang"
  },
  "schemaVersion": "3.3.3",
  "updatedAt": "2020-12-30T15:33:14.703Z",
  "devdoc": {
    "kind": "dev",
    "methods": {
      "owner()": {
        "details": "Returns the address of the current owner."
      },
      "renounceOwnership()": {
        "details": "Leaves the contract without owner. It will not be possible to call `onlyOwner` functions anymore. Can only be called by the current owner. NOTE: Renouncing ownership will leave the contract without an owner, thereby removing any functionality that is only available to the owner."
      },
      "transferOwnership(address)": {
        "details": "Transfers ownership of the contract to a new account (`newOwner`). Can only be called by the current owner."
      }
    },
    "version": 1
  },
  "userdoc": {
    "kind": "user",
    "methods": {},
    "version": 1
  }
}